{
  "_format": "hh-sol-artifact-1",
  "contractName": "GoldChainConstants",
  "sourceName": "contracts/constants/GoldChainConstants.sol",
  "abi": [
    {
      "inputs": [],
      "name": "ADMIN",
      "outputs": [
        {
          "internalType": "bytes32",
          "name": "",
          "type": "bytes32"
        }
      ],
      "stateMutability": "view",
      "type": "function"
    },
    {
      "inputs": [],
      "name": "CERTIFICATOR_ROLE",
      "outputs": [
        {
          "internalType": "bytes32",
          "name": "",
          "type": "bytes32"
        }
      ],
      "stateMutability": "view",
      "type": "function"
    },
    {
      "inputs": [],
      "name": "CUSTOMERS_ROLE",
      "outputs": [
        {
          "internalType": "bytes32",
          "name": "",
          "type": "bytes32"
        }
      ],
      "stateMutability": "view",
      "type": "function"
    },
    {
      "inputs": [],
      "name": "JEWELERS_ROLE",
      "outputs": [
        {
          "internalType": "bytes32",
          "name": "",
          "type": "bytes32"
        }
      ],
      "stateMutability": "view",
      "type": "function"
    },
    {
      "inputs": [],
      "name": "JSON_BASE64_PREFIX",
      "outputs": [
        {
          "internalType": "string",
          "name": "",
          "type": "string"
        }
      ],
      "stateMutability": "view",
      "type": "function"
    },
    {
      "inputs": [],
      "name": "JSON_COLOR",
      "outputs": [
        {
          "internalType": "string",
          "name": "",
          "type": "string"
        }
      ],
      "stateMutability": "view",
      "type": "function"
    },
    {
      "inputs": [],
      "name": "JSON_END",
      "outputs": [
        {
          "internalType": "string",
          "name": "",
          "type": "string"
        }
      ],
      "stateMutability": "view",
      "type": "function"
    },
    {
      "inputs": [],
      "name": "JSON_GEMSTONE",
      "outputs": [
        {
          "internalType": "string",
          "name": "",
          "type": "string"
        }
      ],
      "stateMutability": "view",
      "type": "function"
    },
    {
      "inputs": [],
      "name": "JSON_IMAGE",
      "outputs": [
        {
          "internalType": "string",
          "name": "",
          "type": "string"
        }
      ],
      "stateMutability": "view",
      "type": "function"
    },
    {
      "inputs": [],
      "name": "JSON_JEWELER_NAME",
      "outputs": [
        {
          "internalType": "string",
          "name": "",
          "type": "string"
        }
      ],
      "stateMutability": "view",
      "type": "function"
    },
    {
      "inputs": [],
      "name": "JSON_LEVEL",
      "outputs": [
        {
          "internalType": "string",
          "name": "",
          "type": "string"
        }
      ],
      "stateMutability": "view",
      "type": "function"
    },
    {
      "inputs": [],
      "name": "JSON_MATERIAL",
      "outputs": [
        {
          "internalType": "string",
          "name": "",
          "type": "string"
        }
      ],
      "stateMutability": "view",
      "type": "function"
    },
    {
      "inputs": [],
      "name": "JSON_START",
      "outputs": [
        {
          "internalType": "string",
          "name": "",
          "type": "string"
        }
      ],
      "stateMutability": "view",
      "type": "function"
    },
    {
      "inputs": [],
      "name": "JSON_WEIGHT",
      "outputs": [
        {
          "internalType": "string",
          "name": "",
          "type": "string"
        }
      ],
      "stateMutability": "view",
      "type": "function"
    },
    {
      "inputs": [],
      "name": "SVG_BACKGROUND",
      "outputs": [
        {
          "internalType": "string",
          "name": "",
          "type": "string"
        }
      ],
      "stateMutability": "view",
      "type": "function"
    },
    {
      "inputs": [],
      "name": "SVG_BRAND_END",
      "outputs": [
        {
          "internalType": "string",
          "name": "",
          "type": "string"
        }
      ],
      "stateMutability": "view",
      "type": "function"
    },
    {
      "inputs": [],
      "name": "SVG_BRAND_START",
      "outputs": [
        {
          "internalType": "string",
          "name": "",
          "type": "string"
        }
      ],
      "stateMutability": "view",
      "type": "function"
    },
    {
      "inputs": [],
      "name": "SVG_BRAND_TEXT",
      "outputs": [
        {
          "internalType": "string",
          "name": "",
          "type": "string"
        }
      ],
      "stateMutability": "view",
      "type": "function"
    },
    {
      "inputs": [],
      "name": "SVG_DIAMOND_1",
      "outputs": [
        {
          "internalType": "string",
          "name": "",
          "type": "string"
        }
      ],
      "stateMutability": "view",
      "type": "function"
    },
    {
      "inputs": [],
      "name": "SVG_DIAMOND_2",
      "outputs": [
        {
          "internalType": "string",
          "name": "",
          "type": "string"
        }
      ],
      "stateMutability": "view",
      "type": "function"
    },
    {
      "inputs": [],
      "name": "SVG_DIAMOND_3",
      "outputs": [
        {
          "internalType": "string",
          "name": "",
          "type": "string"
        }
      ],
      "stateMutability": "view",
      "type": "function"
    },
    {
      "inputs": [],
      "name": "SVG_DIAMOND_4",
      "outputs": [
        {
          "internalType": "string",
          "name": "",
          "type": "string"
        }
      ],
      "stateMutability": "view",
      "type": "function"
    },
    {
      "inputs": [],
      "name": "SVG_END",
      "outputs": [
        {
          "internalType": "string",
          "name": "",
          "type": "string"
        }
      ],
      "stateMutability": "view",
      "type": "function"
    },
    {
      "inputs": [],
      "name": "SVG_FRAME",
      "outputs": [
        {
          "internalType": "string",
          "name": "",
          "type": "string"
        }
      ],
      "stateMutability": "view",
      "type": "function"
    },
    {
      "inputs": [],
      "name": "SVG_HEADER",
      "outputs": [
        {
          "internalType": "string",
          "name": "",
          "type": "string"
        }
      ],
      "stateMutability": "view",
      "type": "function"
    },
    {
      "inputs": [],
      "name": "SVG_NUMBER_START",
      "outputs": [
        {
          "internalType": "string",
          "name": "",
          "type": "string"
        }
      ],
      "stateMutability": "view",
      "type": "function"
    },
    {
      "inputs": [],
      "name": "SVG_RING_1",
      "outputs": [
        {
          "internalType": "string",
          "name": "",
          "type": "string"
        }
      ],
      "stateMutability": "view",
      "type": "function"
    },
    {
      "inputs": [],
      "name": "SVG_RING_2",
      "outputs": [
        {
          "internalType": "string",
          "name": "",
          "type": "string"
        }
      ],
      "stateMutability": "view",
      "type": "function"
    },
    {
      "inputs": [],
      "name": "SVG_TITLE_END",
      "outputs": [
        {
          "internalType": "string",
          "name": "",
          "type": "string"
        }
      ],
      "stateMutability": "view",
      "type": "function"
    },
    {
      "inputs": [],
      "name": "SVG_TITLE_START",
      "outputs": [
        {
          "internalType": "string",
          "name": "",
          "type": "string"
        }
      ],
      "stateMutability": "view",
      "type": "function"
    },
    {
      "inputs": [],
      "name": "SVG_TITLE_TEXT",
      "outputs": [
        {
          "internalType": "string",
          "name": "",
          "type": "string"
        }
      ],
      "stateMutability": "view",
      "type": "function"
    }
  ],
  "bytecode": "0x6110fe610052600b82828239805160001a6073146045577f4e487b7100000000000000000000000000000000000000000000000000000000600052600060045260246000fd5b30600052607381538281f3fe73000000000000000000000000000000000000000030146080604052600436106101ef5760003560e01c80635e63421e116101195780639b3a35f0116100ac578063caaf4b151161007b578063caaf4b151461051e578063df4bf5d91461053c578063e1bf59f81461055a578063e323f4b014610578576101ef565b80639b3a35f0146104a6578063b081d1e7146104c4578063b3430b9f146104e2578063bd9e23dd14610500576101ef565b80637f50096e116100e85780637f50096e1461042e57806386c699bb1461044c578063934b4af21461046a5780639aae9e3d14610488576101ef565b80635e63421e146103b65780636f5f6ce1146103d45780637254412b146103f25780637e1aa02114610410576101ef565b80632dfe11cf116101915780633d7fd774116101605780633d7fd7741461033e57806342eb2b451461035c5780634d8d46c31461037a5780634f6da79d14610398576101ef565b80632dfe11cf146102c6578063354fc34d146102e457806337abd05a14610302578063395f52d414610320576101ef565b806310818f7c116101cd57806310818f7c1461024e57806315f7b66d1461026c57806322f537ce1461028a5780632a0acc6a146102a8576101ef565b80630cdb5cb5146101f45780630d8d59e6146102125780630fb5939714610230575b600080fd5b6101fc610596565b60405161020991906109fe565b60405180910390f35b61021a6105ba565b6040516102279190610aa9565b60405180910390f35b6102386105f3565b6040516102459190610aa9565b60405180910390f35b61025661060f565b6040516102639190610aa9565b60405180910390f35b610274610648565b6040516102819190610aa9565b60405180910390f35b610292610664565b60405161029f91906109fe565b60405180910390f35b6102b0610688565b6040516102bd91906109fe565b60405180910390f35b6102ce6106ac565b6040516102db9190610aa9565b60405180910390f35b6102ec6106c8565b6040516102f99190610aa9565b60405180910390f35b61030a6106e4565b6040516103179190610aa9565b60405180910390f35b61032861071d565b6040516103359190610aa9565b60405180910390f35b610346610739565b6040516103539190610aa9565b60405180910390f35b610364610755565b6040516103719190610aa9565b60405180910390f35b610382610771565b60405161038f9190610aa9565b60405180910390f35b6103a061078d565b6040516103ad9190610aa9565b60405180910390f35b6103be6107a9565b6040516103cb9190610aa9565b60405180910390f35b6103dc6107c5565b6040516103e99190610aa9565b60405180910390f35b6103fa6107e1565b6040516104079190610aa9565b60405180910390f35b6104186107fd565b6040516104259190610aa9565b60405180910390f35b610436610819565b6040516104439190610aa9565b60405180910390f35b610454610835565b6040516104619190610aa9565b60405180910390f35b61047261086e565b60405161047f91906109fe565b60405180910390f35b610490610892565b60405161049d9190610aa9565b60405180910390f35b6104ae6108cb565b6040516104bb9190610aa9565b60405180910390f35b6104cc6108e7565b6040516104d99190610aa9565b60405180910390f35b6104ea610903565b6040516104f79190610aa9565b60405180910390f35b61050861091f565b6040516105159190610aa9565b60405180910390f35b61052661093b565b6040516105339190610aa9565b60405180910390f35b610544610957565b6040516105519190610aa9565b60405180910390f35b610562610990565b60405161056f9190610aa9565b60405180910390f35b6105806109c9565b60405161058d9190610aa9565b60405180910390f35b7f61e6a4bb6bca8aa1f17c71895c1ab1bf9c06c812442a0a16aad9f0837c23ca7981565b6040518060400160405280601781526020017f43657274696669636174204e46542064652042696a6f7500000000000000000081525081565b6040518060600160405280602f815260200161106e602f913981565b6040518060400160405280600981526020017f476f6c64436861696e000000000000000000000000000000000000000000000081525081565b6040518060600160405280602b8152602001610e39602b913981565b7faf6786efc154b345802554f1dea27e60ea4c3393b6b38eb8438e22c20e088bd281565b7fdf8b4c520ffe197c5343c6f5aec59570151ef9a492f2c624fd45ddde6135ec4281565b6040518060a0016040528060728152602001610bec6072913981565b604051806060016040528060398152602001610c5e6039913981565b6040518060400160405280600781526020017f3c2f746578743e0000000000000000000000000000000000000000000000000081525081565b6040518060800160405280604d8152602001610b73604d913981565b6040518060800160405280605d8152602001610e64605d913981565b6040518060a0016040528060798152602001610f6a6079913981565b604051806060016040528060288152602001610b4b6028913981565b6040518060600160405280602c8152602001610bc0602c913981565b6040518060600160405280602581526020016110496025913981565b604051806060016040528060288152602001610acc6028913981565b6040518060a00160405280607c8152602001610c97607c913981565b6040518060a00160405280606e8152602001610d13606e913981565b6040518060a0016040528060668152602001610fe36066913981565b6040518060400160405280600681526020017f3c2f7376673e000000000000000000000000000000000000000000000000000081525081565b7f8c6ae1b8cac4c99ac9b51ba2b44ec85e94139863fa8d7f1ab8f7e39763b3db4e81565b6040518060400160405280600781526020017f3c2f746578743e0000000000000000000000000000000000000000000000000081525081565b6040518060a00160405280606b8152602001610d81606b913981565b6040518060800160405280605c8152602001610ec1605c913981565b604051806080016040528060578152602001610af46057913981565b6040518060800160405280604d8152602001610dec604d913981565b6040518060800160405280604d8152602001610f1d604d913981565b6040518060400160405280601d81526020017f646174613a6170706c69636174696f6e2f6a736f6e3b6261736536342c00000081525081565b6040518060400160405280600281526020017f227d00000000000000000000000000000000000000000000000000000000000081525081565b6040518060600160405280602c815260200161109d602c913981565b6000819050919050565b6109f8816109e5565b82525050565b6000602082019050610a1360008301846109ef565b92915050565b600081519050919050565b600082825260208201905092915050565b60005b83811015610a53578082015181840152602081019050610a38565b60008484015250505050565b6000601f19601f8301169050919050565b6000610a7b82610a19565b610a858185610a24565b9350610a95818560208601610a35565b610a9e81610a5f565b840191505092915050565b60006020820190508181036000830152610ac38184610a70565b90509291505056fe227d5d2c22696d616765223a2022646174613a696d6167652f7376672b786d6c3b6261736536342c3c7376672077696474683d2238303022206865696768743d22383030222076696577426f783d2230203020383030203830302220786d6c6e733d22687474703a2f2f7777772e77332e6f72672f323030302f737667223e227d2c7b2274726169745f74797065223a20226d61696e436f6c6f72222c2276616c7565223a20223c6c696e652078313d22333330222079313d22333030222078323d22343730222079323d2233383022207374726f6b653d222338613666333022207374726f6b652d77696474683d2233222f3e227d2c7b2274726169745f74797065223a2022776569676874496e4772616d73222c2276616c7565223a20223c706f6c79676f6e20706f696e74733d223430302c323530203437302c333030203437302c333830203430302c343330203333302c333830203333302c333030222066696c6c3d22776869746522207374726f6b653d222338613666333022207374726f6b652d77696474683d2235222f3e222c202261747472696275746573223a205b7b2274726169745f74797065223a20224a6577656c65724e616d65222c2276616c7565223a20223c7465787420783d223530252220793d223630302220666f6e742d73697a653d2234302220666f6e742d66616d696c793d22417269616c2c2073616e732d73657269662220666f6e742d7765696768743d22626f6c64222066696c6c3d22236434616633372220746578742d616e63686f723d226d6964646c65223e3c7265637420783d22302220793d2230222077696474683d2238303022206865696768743d22383030222066696c6c3d222366386639666122207374726f6b653d222364346166333722207374726f6b652d77696474683d223130222072783d223230222072793d223230222f3e3c7265637420783d223230302220793d22363530222077696474683d2234303022206865696768743d223830222066696c6c3d22776869746522207374726f6b653d222333333322207374726f6b652d77696474683d2233222072783d223130222072793d223130222f3e3c6c696e652078313d22343030222079313d22323530222078323d22343030222079323d2234333022207374726f6b653d222338613666333022207374726f6b652d77696474683d2233222f3e227d2c7b2274726169745f74797065223a20226d61696e4d6174657269616c222c2276616c7565223a20223c656c6c697073652063783d22343030222063793d22343230222072783d22313830222072793d22313030222066696c6c3d226e6f6e6522207374726f6b653d222364346166333722207374726f6b652d77696474683d223230222f3e3c656c6c697073652063783d22343030222063793d22343230222072783d22313430222072793d223830222066696c6c3d226e6f6e6522207374726f6b653d222366386639666122207374726f6b652d77696474683d223230222f3e3c6c696e652078313d22343730222079313d22333030222078323d22333330222079323d2233383022207374726f6b653d222338613666333022207374726f6b652d77696474683d2233222f3e3c7465787420783d223530252220793d223132302220666f6e742d73697a653d2235302220666f6e742d66616d696c793d22417269616c2c2073616e732d73657269662220666f6e742d7765696768743d22626f6c64222066696c6c3d22233333332220746578742d616e63686f723d226d6964646c65223e3c7465787420783d223530252220793d223730302220666f6e742d73697a653d2233302220666f6e742d66616d696c793d22417269616c2c2073616e732d7365726966222066696c6c3d22233333332220746578742d616e63686f723d226d6964646c65223e7b226e616d65223a2022476f6c64436861696e204365727469666963617465204e46542023227d2c7b2274726169745f74797065223a202243657274696669636174654c6576656c222c2276616c7565223a2022227d2c7b2274726169745f74797065223a20226d61696e47656d53746f6e6573222c2276616c7565223a2022a2646970667358221220067808ccf37e03256d57e5539be5cf4cd82f594aefe6f1c55f98c5a58898c73764736f6c634300081c0033",
  "linkReferences": {},
  "deployedLinkReferences": {}
}