{
  "_format": "hh-sol-artifact-1",
  "contractName": "DataStorage",
  "sourceName": "contracts/DataStorage.sol",
  "abi": [
    {
      "inputs": [],
      "stateMutability": "nonpayable",
      "type": "constructor"
    },
    {
      "inputs": [
        {
          "internalType": "address",
          "name": "owner",
          "type": "address"
        }
      ],
      "name": "OwnableInvalidOwner",
      "type": "error"
    },
    {
      "inputs": [
        {
          "internalType": "address",
          "name": "account",
          "type": "address"
        }
      ],
      "name": "OwnableUnauthorizedAccount",
      "type": "error"
    },
    {
      "anonymous": false,
      "inputs": [
        {
          "indexed": true,
          "internalType": "address",
          "name": "previousOwner",
          "type": "address"
        },
        {
          "indexed": true,
          "internalType": "address",
          "name": "newOwner",
          "type": "address"
        }
      ],
      "name": "OwnershipTransferred",
      "type": "event"
    },
    {
      "inputs": [
        {
          "internalType": "address",
          "name": "_jewelerAddress",
          "type": "address"
        }
      ],
      "name": "activateJeweler",
      "outputs": [
        {
          "internalType": "bool",
          "name": "",
          "type": "bool"
        }
      ],
      "stateMutability": "nonpayable",
      "type": "function"
    },
    {
      "inputs": [
        {
          "internalType": "uint8[]",
          "name": "_materials",
          "type": "uint8[]"
        },
        {
          "internalType": "uint8[]",
          "name": "_gemStones",
          "type": "uint8[]"
        },
        {
          "internalType": "uint8",
          "name": "_weightInGrams",
          "type": "uint8"
        },
        {
          "internalType": "string",
          "name": "_mainColor",
          "type": "string"
        },
        {
          "internalType": "enum DataStorage.CertificateLevel",
          "name": "_level",
          "type": "uint8"
        },
        {
          "internalType": "string",
          "name": "_JewelerName",
          "type": "string"
        },
        {
          "internalType": "enum DataStorage.CertificateStatus",
          "name": "_status",
          "type": "uint8"
        }
      ],
      "name": "addCertificate",
      "outputs": [
        {
          "internalType": "bool",
          "name": "",
          "type": "bool"
        }
      ],
      "stateMutability": "nonpayable",
      "type": "function"
    },
    {
      "inputs": [
        {
          "internalType": "address",
          "name": "_customerAddress",
          "type": "address"
        },
        {
          "internalType": "string",
          "name": "_name",
          "type": "string"
        },
        {
          "internalType": "string",
          "name": "_email",
          "type": "string"
        },
        {
          "internalType": "string",
          "name": "_location",
          "type": "string"
        },
        {
          "internalType": "bool",
          "name": "_visible",
          "type": "bool"
        }
      ],
      "name": "addCustomer",
      "outputs": [
        {
          "internalType": "bool",
          "name": "",
          "type": "bool"
        }
      ],
      "stateMutability": "nonpayable",
      "type": "function"
    },
    {
      "inputs": [
        {
          "internalType": "address",
          "name": "_jewelerAddress",
          "type": "address"
        },
        {
          "internalType": "string",
          "name": "_name",
          "type": "string"
        },
        {
          "internalType": "string",
          "name": "_email",
          "type": "string"
        },
        {
          "internalType": "string",
          "name": "_location",
          "type": "string"
        },
        {
          "internalType": "bool",
          "name": "_available",
          "type": "bool"
        },
        {
          "internalType": "bool",
          "name": "_visible",
          "type": "bool"
        }
      ],
      "name": "addJeweler",
      "outputs": [
        {
          "internalType": "bool",
          "name": "",
          "type": "bool"
        }
      ],
      "stateMutability": "nonpayable",
      "type": "function"
    },
    {
      "inputs": [
        {
          "internalType": "uint256",
          "name": "",
          "type": "uint256"
        }
      ],
      "name": "certificates",
      "outputs": [
        {
          "internalType": "uint256",
          "name": "creationDate",
          "type": "uint256"
        },
        {
          "internalType": "uint256",
          "name": "updated_at",
          "type": "uint256"
        },
        {
          "internalType": "uint8",
          "name": "weightInGrams",
          "type": "uint8"
        },
        {
          "internalType": "string",
          "name": "mainColor",
          "type": "string"
        },
        {
          "internalType": "enum DataStorage.CertificateLevel",
          "name": "level",
          "type": "uint8"
        },
        {
          "internalType": "string",
          "name": "JewelerName",
          "type": "string"
        },
        {
          "internalType": "enum DataStorage.CertificateStatus",
          "name": "status",
          "type": "uint8"
        }
      ],
      "stateMutability": "view",
      "type": "function"
    },
    {
      "inputs": [
        {
          "internalType": "address",
          "name": "",
          "type": "address"
        }
      ],
      "name": "customers",
      "outputs": [
        {
          "internalType": "uint256",
          "name": "created_at",
          "type": "uint256"
        },
        {
          "internalType": "uint256",
          "name": "updated_at",
          "type": "uint256"
        },
        {
          "internalType": "string",
          "name": "name",
          "type": "string"
        },
        {
          "internalType": "string",
          "name": "email",
          "type": "string"
        },
        {
          "internalType": "string",
          "name": "location",
          "type": "string"
        },
        {
          "internalType": "bool",
          "name": "visible",
          "type": "bool"
        }
      ],
      "stateMutability": "view",
      "type": "function"
    },
    {
      "inputs": [
        {
          "internalType": "address",
          "name": "_jewelerAddress",
          "type": "address"
        }
      ],
      "name": "desactivateJeweler",
      "outputs": [
        {
          "internalType": "bool",
          "name": "",
          "type": "bool"
        }
      ],
      "stateMutability": "nonpayable",
      "type": "function"
    },
    {
      "inputs": [],
      "name": "getCertificateCount",
      "outputs": [
        {
          "internalType": "uint256",
          "name": "",
          "type": "uint256"
        }
      ],
      "stateMutability": "view",
      "type": "function"
    },
    {
      "inputs": [],
      "name": "getCustomerCount",
      "outputs": [
        {
          "internalType": "uint256",
          "name": "",
          "type": "uint256"
        }
      ],
      "stateMutability": "view",
      "type": "function"
    },
    {
      "inputs": [],
      "name": "getJewelerCount",
      "outputs": [
        {
          "internalType": "uint256",
          "name": "",
          "type": "uint256"
        }
      ],
      "stateMutability": "view",
      "type": "function"
    },
    {
      "inputs": [
        {
          "internalType": "address",
          "name": "_customerAddress",
          "type": "address"
        }
      ],
      "name": "getOneCustomer",
      "outputs": [
        {
          "components": [
            {
              "internalType": "uint256",
              "name": "created_at",
              "type": "uint256"
            },
            {
              "internalType": "uint256",
              "name": "updated_at",
              "type": "uint256"
            },
            {
              "internalType": "string",
              "name": "name",
              "type": "string"
            },
            {
              "internalType": "string",
              "name": "email",
              "type": "string"
            },
            {
              "internalType": "string",
              "name": "location",
              "type": "string"
            },
            {
              "internalType": "bool",
              "name": "visible",
              "type": "bool"
            },
            {
              "internalType": "uint256[]",
              "name": "OwnedCertificateIds",
              "type": "uint256[]"
            }
          ],
          "internalType": "struct DataStorage.Customer",
          "name": "",
          "type": "tuple"
        }
      ],
      "stateMutability": "view",
      "type": "function"
    },
    {
      "inputs": [
        {
          "internalType": "address",
          "name": "_jewelerAddress",
          "type": "address"
        }
      ],
      "name": "getOneJeweler",
      "outputs": [
        {
          "components": [
            {
              "internalType": "uint256",
              "name": "created_at",
              "type": "uint256"
            },
            {
              "internalType": "uint256",
              "name": "updated_at",
              "type": "uint256"
            },
            {
              "internalType": "string",
              "name": "name",
              "type": "string"
            },
            {
              "internalType": "string",
              "name": "email",
              "type": "string"
            },
            {
              "internalType": "string",
              "name": "location",
              "type": "string"
            },
            {
              "internalType": "uint256[]",
              "name": "CreatedCertificateIds",
              "type": "uint256[]"
            },
            {
              "internalType": "bool",
              "name": "available",
              "type": "bool"
            },
            {
              "internalType": "bool",
              "name": "visible",
              "type": "bool"
            }
          ],
          "internalType": "struct DataStorage.Jeweler",
          "name": "",
          "type": "tuple"
        }
      ],
      "stateMutability": "view",
      "type": "function"
    },
    {
      "inputs": [
        {
          "internalType": "address",
          "name": "",
          "type": "address"
        }
      ],
      "name": "jewelers",
      "outputs": [
        {
          "internalType": "uint256",
          "name": "created_at",
          "type": "uint256"
        },
        {
          "internalType": "uint256",
          "name": "updated_at",
          "type": "uint256"
        },
        {
          "internalType": "string",
          "name": "name",
          "type": "string"
        },
        {
          "internalType": "string",
          "name": "email",
          "type": "string"
        },
        {
          "internalType": "string",
          "name": "location",
          "type": "string"
        },
        {
          "internalType": "bool",
          "name": "available",
          "type": "bool"
        },
        {
          "internalType": "bool",
          "name": "visible",
          "type": "bool"
        }
      ],
      "stateMutability": "view",
      "type": "function"
    },
    {
      "inputs": [],
      "name": "owner",
      "outputs": [
        {
          "internalType": "address",
          "name": "",
          "type": "address"
        }
      ],
      "stateMutability": "view",
      "type": "function"
    },
    {
      "inputs": [],
      "name": "renounceOwnership",
      "outputs": [],
      "stateMutability": "nonpayable",
      "type": "function"
    },
    {
      "inputs": [],
      "name": "transertCertificate",
      "outputs": [
        {
          "internalType": "bool",
          "name": "",
          "type": "bool"
        }
      ],
      "stateMutability": "nonpayable",
      "type": "function"
    },
    {
      "inputs": [
        {
          "internalType": "address",
          "name": "newOwner",
          "type": "address"
        }
      ],
      "name": "transferOwnership",
      "outputs": [],
      "stateMutability": "nonpayable",
      "type": "function"
    },
    {
      "inputs": [],
      "name": "updateCertificate",
      "outputs": [
        {
          "internalType": "bool",
          "name": "",
          "type": "bool"
        }
      ],
      "stateMutability": "nonpayable",
      "type": "function"
    },
    {
      "inputs": [
        {
          "internalType": "address",
          "name": "_customerAddress",
          "type": "address"
        },
        {
          "internalType": "string",
          "name": "_name",
          "type": "string"
        },
        {
          "internalType": "string",
          "name": "_email",
          "type": "string"
        },
        {
          "internalType": "string",
          "name": "_location",
          "type": "string"
        },
        {
          "internalType": "bool",
          "name": "_visible",
          "type": "bool"
        }
      ],
      "name": "updateCustomer",
      "outputs": [
        {
          "internalType": "bool",
          "name": "",
          "type": "bool"
        }
      ],
      "stateMutability": "nonpayable",
      "type": "function"
    },
    {
      "inputs": [
        {
          "internalType": "address",
          "name": "_jewelerAddress",
          "type": "address"
        },
        {
          "internalType": "string",
          "name": "_name",
          "type": "string"
        },
        {
          "internalType": "string",
          "name": "_email",
          "type": "string"
        },
        {
          "internalType": "string",
          "name": "_location",
          "type": "string"
        },
        {
          "internalType": "bool",
          "name": "_visible",
          "type": "bool"
        }
      ],
      "name": "updateJeweler",
      "outputs": [
        {
          "internalType": "bool",
          "name": "",
          "type": "bool"
        }
      ],
      "stateMutability": "nonpayable",
      "type": "function"
    }
  ],
  "bytecode": "0x608060405234801561001057600080fd5b5033600073ffffffffffffffffffffffffffffffffffffffff168173ffffffffffffffffffffffffffffffffffffffff16036100845760006040517f1e4fbdf700000000000000000000000000000000000000000000000000000000815260040161007b919061019e565b60405180910390fd5b6100938161009960201b60201c565b506101b9565b60008060009054906101000a900473ffffffffffffffffffffffffffffffffffffffff169050816000806101000a81548173ffffffffffffffffffffffffffffffffffffffff021916908373ffffffffffffffffffffffffffffffffffffffff1602179055508173ffffffffffffffffffffffffffffffffffffffff168173ffffffffffffffffffffffffffffffffffffffff167f8be0079c531659141344cd1fd0a4f28419497f9722a3daafe3b4186f6b6457e060405160405180910390a35050565b600073ffffffffffffffffffffffffffffffffffffffff82169050919050565b60006101888261015d565b9050919050565b6101988161017d565b82525050565b60006020820190506101b3600083018461018f565b92915050565b612f29806101c86000396000f3fe608060405234801561001057600080fd5b506004361061012c5760003560e01c80638809f727116100ad578063a1e5a38a11610071578063a1e5a38a14610392578063a735e5de146103b0578063dfd49f25146103e0578063ee7bf0ee14610410578063f2fde38b146104405761012c565b80638809f727146102e4578063899f9d0d146103025780638c271777146103205780638da5cb5b1461033e578063930fa7941461035c5761012c565b806357a00ccf116100f457806357a00ccf1461021457806364df69e714610244578063663b3e2214610274578063715018a6146102aa5780637208ca19146102b45761012c565b8063081ba2d5146101315780630f6a3540146101615780632027d7461461019157806329acc209146101af578063336989ae146101df575b600080fd5b61014b60048036038101906101469190611f8f565b61045c565b6040516101589190611fd7565b60405180910390f35b61017b60048036038101906101769190612083565b6104c1565b6040516101889190611fd7565b60405180910390f35b61019961076f565b6040516101a69190612178565b60405180910390f35b6101c960048036038101906101c49190611f8f565b610779565b6040516101d69190611fd7565b60405180910390f35b6101f960048036038101906101f49190611f8f565b6107df565b60405161020b96959493929190612223565b60405180910390f35b61022e60048036038101906102299190611f8f565b6109c0565b60405161023b9190612475565b60405180910390f35b61025e60048036038101906102599190612570565b610c72565b60405161026b9190611fd7565b60405180910390f35b61028e600480360381019061028991906126c0565b610f26565b6040516102a197969594939291906127bb565b60405180910390f35b6102b261109f565b005b6102ce60048036038101906102c99190612838565b6110b3565b6040516102db9190611fd7565b60405180910390f35b6102ec61138a565b6040516102f99190612178565b60405180910390f35b61030a611394565b6040516103179190611fd7565b60405180910390f35b61032861139d565b6040516103359190612178565b60405180910390f35b6103466113a7565b6040516103539190612936565b60405180910390f35b61037660048036038101906103719190611f8f565b6113d0565b6040516103899796959493929190612951565b60405180910390f35b61039a6115c4565b6040516103a79190611fd7565b60405180910390f35b6103ca60048036038101906103c59190612083565b6115cd565b6040516103d79190611fd7565b60405180910390f35b6103fa60048036038101906103f59190612083565b611776565b6040516104079190611fd7565b60405180910390f35b61042a60048036038101906104259190611f8f565b61191f565b6040516104379190612a86565b60405180910390f35b61045a60048036038101906104559190611f8f565b611bb5565b005b600080600660008473ffffffffffffffffffffffffffffffffffffffff1673ffffffffffffffffffffffffffffffffffffffff16815260200190815260200160002060060160006101000a81548160ff02191690831515021790555060019050919050565b60006040518060e0016040528042815260200142815260200189898080601f016020809104026020016040519081016040528093929190818152602001838380828437600081840152601f19601f82011690508083019250505050505050815260200187878080601f016020809104026020016040519081016040528093929190818152602001838380828437600081840152601f19601f82011690508083019250505050505050815260200185858080601f016020809104026020016040519081016040528093929190818152602001838380828437600081840152601f19601f8201169050808301925050505050505081526020018315158152602001600067ffffffffffffffff8111156105db576105da612aa8565b5b6040519080825280602002602001820160405280156106095781602001602082028036833780820191505090505b50815250600760008b73ffffffffffffffffffffffffffffffffffffffff1673ffffffffffffffffffffffffffffffffffffffff168152602001908152602001600020600082015181600001556020820151816001015560408201518160020190816106759190612ce3565b50606082015181600301908161068b9190612ce3565b5060808201518160040190816106a19190612ce3565b5060a08201518160050160006101000a81548160ff02191690831515021790555060c08201518160060190805190602001906106de929190611d8e565b509050506001600260008282546106f59190612de4565b925050819055506005899080600181540180825580915050600190039060005260206000200160009091909190916101000a81548173ffffffffffffffffffffffffffffffffffffffff021916908373ffffffffffffffffffffffffffffffffffffffff1602179055506001905098975050505050505050565b6000600254905090565b60006001600660008473ffffffffffffffffffffffffffffffffffffffff1673ffffffffffffffffffffffffffffffffffffffff16815260200190815260200160002060060160006101000a81548160ff02191690831515021790555060019050919050565b600760205280600052604060002060009150905080600001549080600101549080600201805461080e90612b06565b80601f016020809104026020016040519081016040528092919081815260200182805461083a90612b06565b80156108875780601f1061085c57610100808354040283529160200191610887565b820191906000526020600020905b81548152906001019060200180831161086a57829003601f168201915b50505050509080600301805461089c90612b06565b80601f01602080910402602001604051908101604052809291908181526020018280546108c890612b06565b80156109155780601f106108ea57610100808354040283529160200191610915565b820191906000526020600020905b8154815290600101906020018083116108f857829003601f168201915b50505050509080600401805461092a90612b06565b80601f016020809104026020016040519081016040528092919081815260200182805461095690612b06565b80156109a35780601f10610978576101008083540402835291602001916109a3565b820191906000526020600020905b81548152906001019060200180831161098657829003601f168201915b5050505050908060050160009054906101000a900460ff16905086565b6109c8611ddb565b600660008373ffffffffffffffffffffffffffffffffffffffff1673ffffffffffffffffffffffffffffffffffffffff168152602001908152602001600020604051806101000160405290816000820154815260200160018201548152602001600282018054610a3790612b06565b80601f0160208091040260200160405190810160405280929190818152602001828054610a6390612b06565b8015610ab05780601f10610a8557610100808354040283529160200191610ab0565b820191906000526020600020905b815481529060010190602001808311610a9357829003601f168201915b50505050508152602001600382018054610ac990612b06565b80601f0160208091040260200160405190810160405280929190818152602001828054610af590612b06565b8015610b425780601f10610b1757610100808354040283529160200191610b42565b820191906000526020600020905b815481529060010190602001808311610b2557829003601f168201915b50505050508152602001600482018054610b5b90612b06565b80601f0160208091040260200160405190810160405280929190818152602001828054610b8790612b06565b8015610bd45780601f10610ba957610100808354040283529160200191610bd4565b820191906000526020600020905b815481529060010190602001808311610bb757829003601f168201915b5050505050815260200160058201805480602002602001604051908101604052809291908181526020018280548015610c2c57602002820191906000526020600020905b815481526020019060010190808311610c18575b505050505081526020016006820160009054906101000a900460ff161515151581526020016006820160019054906101000a900460ff1615151515815250509050919050565b60006040518061012001604052804281526020014281526020018d8d80806020026020016040519081016040528093929190818152602001838360200280828437600081840152601f19601f8201169050808301925050505050505081526020018b8b80806020026020016040519081016040528093929190818152602001838360200280828437600081840152601f19601f8201169050808301925050505050505081526020018960ff16815260200188888080601f016020809104026020016040519081016040528093929190818152602001838380828437600081840152601f19601f820116905080830192505050505050508152602001866003811115610d8057610d7f6126fc565b5b815260200185858080601f016020809104026020016040519081016040528093929190818152602001838380828437600081840152601f19601f820116905080830192505050505050508152602001836004811115610de257610de16126fc565b5b81525060086000600354815260200190815260200160002060008201518160000155602082015181600101556040820151816002019080519060200190610e2a929190611e24565b506060820151816003019080519060200190610e47929190611e24565b5060808201518160040160006101000a81548160ff021916908360ff16021790555060a0820151816005019081610e7e9190612ce3565b5060c08201518160060160006101000a81548160ff02191690836003811115610eaa57610ea96126fc565b5b021790555060e0820151816007019081610ec49190612ce3565b506101008201518160080160006101000a81548160ff02191690836004811115610ef157610ef06126fc565b5b0217905550905050600160036000828254610f0c9190612de4565b92505081905550600190509b9a5050505050505050505050565b60086020528060005260406000206000915090508060000154908060010154908060040160009054906101000a900460ff1690806005018054610f6890612b06565b80601f0160208091040260200160405190810160405280929190818152602001828054610f9490612b06565b8015610fe15780601f10610fb657610100808354040283529160200191610fe1565b820191906000526020600020905b815481529060010190602001808311610fc457829003601f168201915b5050505050908060060160009054906101000a900460ff169080600701805461100990612b06565b80601f016020809104026020016040519081016040528092919081815260200182805461103590612b06565b80156110825780601f1061105757610100808354040283529160200191611082565b820191906000526020600020905b81548152906001019060200180831161106557829003601f168201915b5050505050908060080160009054906101000a900460ff16905087565b6110a7611c3b565b6110b16000611cc2565b565b60006040518061010001604052804281526020014281526020018a8a8080601f016020809104026020016040519081016040528093929190818152602001838380828437600081840152601f19601f82011690508083019250505050505050815260200188888080601f016020809104026020016040519081016040528093929190818152602001838380828437600081840152601f19601f82011690508083019250505050505050815260200186868080601f016020809104026020016040519081016040528093929190818152602001838380828437600081840152601f19601f820116905080830192505050505050508152602001600067ffffffffffffffff8111156111c6576111c5612aa8565b5b6040519080825280602002602001820160405280156111f45781602001602082028036833780820191505090505b5081526020018415158152602001831515815250600660008c73ffffffffffffffffffffffffffffffffffffffff1673ffffffffffffffffffffffffffffffffffffffff168152602001908152602001600020600082015181600001556020820151816001015560408201518160020190816112709190612ce3565b5060608201518160030190816112869190612ce3565b50608082015181600401908161129c9190612ce3565b5060a08201518160050190805190602001906112b9929190611d8e565b5060c08201518160060160006101000a81548160ff02191690831515021790555060e08201518160060160016101000a81548160ff021916908315150217905550905050600180600082825461130f9190612de4565b9250508190555060048a9080600181540180825580915050600190039060005260206000200160009091909190916101000a81548173ffffffffffffffffffffffffffffffffffffffff021916908373ffffffffffffffffffffffffffffffffffffffff160217905550600190509998505050505050505050565b6000600354905090565b60006001905090565b6000600154905090565b60008060009054906101000a900473ffffffffffffffffffffffffffffffffffffffff16905090565b60066020528060005260406000206000915090508060000154908060010154908060020180546113ff90612b06565b80601f016020809104026020016040519081016040528092919081815260200182805461142b90612b06565b80156114785780601f1061144d57610100808354040283529160200191611478565b820191906000526020600020905b81548152906001019060200180831161145b57829003601f168201915b50505050509080600301805461148d90612b06565b80601f01602080910402602001604051908101604052809291908181526020018280546114b990612b06565b80156115065780601f106114db57610100808354040283529160200191611506565b820191906000526020600020905b8154815290600101906020018083116114e957829003601f168201915b50505050509080600401805461151b90612b06565b80601f016020809104026020016040519081016040528092919081815260200182805461154790612b06565b80156115945780601f1061156957610100808354040283529160200191611594565b820191906000526020600020905b81548152906001019060200180831161157757829003601f168201915b5050505050908060060160009054906101000a900460ff16908060060160019054906101000a900460ff16905087565b60006001905090565b600042600660008b73ffffffffffffffffffffffffffffffffffffffff1673ffffffffffffffffffffffffffffffffffffffff168152602001908152602001600020600101819055508787600660008c73ffffffffffffffffffffffffffffffffffffffff1673ffffffffffffffffffffffffffffffffffffffff1681526020019081526020016000206002019182611667929190612e23565b508585600660008c73ffffffffffffffffffffffffffffffffffffffff1673ffffffffffffffffffffffffffffffffffffffff16815260200190815260200160002060030191826116b9929190612e23565b508383600660008c73ffffffffffffffffffffffffffffffffffffffff1673ffffffffffffffffffffffffffffffffffffffff168152602001908152602001600020600401918261170b929190612e23565b5081600660008b73ffffffffffffffffffffffffffffffffffffffff1673ffffffffffffffffffffffffffffffffffffffff16815260200190815260200160002060060160016101000a81548160ff0219169083151502179055506001905098975050505050505050565b600042600760008b73ffffffffffffffffffffffffffffffffffffffff1673ffffffffffffffffffffffffffffffffffffffff168152602001908152602001600020600101819055508787600760008c73ffffffffffffffffffffffffffffffffffffffff1673ffffffffffffffffffffffffffffffffffffffff1681526020019081526020016000206002019182611810929190612e23565b508585600760008c73ffffffffffffffffffffffffffffffffffffffff1673ffffffffffffffffffffffffffffffffffffffff1681526020019081526020016000206003019182611862929190612e23565b508383600760008c73ffffffffffffffffffffffffffffffffffffffff1673ffffffffffffffffffffffffffffffffffffffff16815260200190815260200160002060040191826118b4929190612e23565b5081600760008b73ffffffffffffffffffffffffffffffffffffffff1673ffffffffffffffffffffffffffffffffffffffff16815260200190815260200160002060050160006101000a81548160ff0219169083151502179055506001905098975050505050505050565b611927611ecb565b600760008373ffffffffffffffffffffffffffffffffffffffff1673ffffffffffffffffffffffffffffffffffffffff1681526020019081526020016000206040518060e0016040529081600082015481526020016001820154815260200160028201805461199590612b06565b80601f01602080910402602001604051908101604052809291908181526020018280546119c190612b06565b8015611a0e5780601f106119e357610100808354040283529160200191611a0e565b820191906000526020600020905b8154815290600101906020018083116119f157829003601f168201915b50505050508152602001600382018054611a2790612b06565b80601f0160208091040260200160405190810160405280929190818152602001828054611a5390612b06565b8015611aa05780601f10611a7557610100808354040283529160200191611aa0565b820191906000526020600020905b815481529060010190602001808311611a8357829003601f168201915b50505050508152602001600482018054611ab990612b06565b80601f0160208091040260200160405190810160405280929190818152602001828054611ae590612b06565b8015611b325780601f10611b0757610100808354040283529160200191611b32565b820191906000526020600020905b815481529060010190602001808311611b1557829003601f168201915b505050505081526020016005820160009054906101000a900460ff1615151515815260200160068201805480602002602001604051908101604052809291908181526020018280548015611ba557602002820191906000526020600020905b815481526020019060010190808311611b91575b5050505050815250509050919050565b611bbd611c3b565b600073ffffffffffffffffffffffffffffffffffffffff168173ffffffffffffffffffffffffffffffffffffffff1603611c2f5760006040517f1e4fbdf7000000000000000000000000000000000000000000000000000000008152600401611c269190612936565b60405180910390fd5b611c3881611cc2565b50565b611c43611d86565b73ffffffffffffffffffffffffffffffffffffffff16611c616113a7565b73ffffffffffffffffffffffffffffffffffffffff1614611cc057611c84611d86565b6040517f118cdaa7000000000000000000000000000000000000000000000000000000008152600401611cb79190612936565b60405180910390fd5b565b60008060009054906101000a900473ffffffffffffffffffffffffffffffffffffffff169050816000806101000a81548173ffffffffffffffffffffffffffffffffffffffff021916908373ffffffffffffffffffffffffffffffffffffffff1602179055508173ffffffffffffffffffffffffffffffffffffffff168173ffffffffffffffffffffffffffffffffffffffff167f8be0079c531659141344cd1fd0a4f28419497f9722a3daafe3b4186f6b6457e060405160405180910390a35050565b600033905090565b828054828255906000526020600020908101928215611dca579160200282015b82811115611dc9578251825591602001919060010190611dae565b5b509050611dd79190611f0a565b5090565b6040518061010001604052806000815260200160008152602001606081526020016060815260200160608152602001606081526020016000151581526020016000151581525090565b82805482825590600052602060002090601f01602090048101928215611eba5791602002820160005b83821115611e8b57835183826101000a81548160ff021916908360ff1602179055509260200192600101602081600001049283019260010302611e4d565b8015611eb85782816101000a81549060ff0219169055600101602081600001049283019260010302611e8b565b505b509050611ec79190611f0a565b5090565b6040518060e001604052806000815260200160008152602001606081526020016060815260200160608152602001600015158152602001606081525090565b5b80821115611f23576000816000905550600101611f0b565b5090565b600080fd5b600080fd5b600073ffffffffffffffffffffffffffffffffffffffff82169050919050565b6000611f5c82611f31565b9050919050565b611f6c81611f51565b8114611f7757600080fd5b50565b600081359050611f8981611f63565b92915050565b600060208284031215611fa557611fa4611f27565b5b6000611fb384828501611f7a565b91505092915050565b60008115159050919050565b611fd181611fbc565b82525050565b6000602082019050611fec6000830184611fc8565b92915050565b600080fd5b600080fd5b600080fd5b60008083601f84011261201757612016611ff2565b5b8235905067ffffffffffffffff81111561203457612033611ff7565b5b6020830191508360018202830111156120505761204f611ffc565b5b9250929050565b61206081611fbc565b811461206b57600080fd5b50565b60008135905061207d81612057565b92915050565b60008060008060008060008060a0898b0312156120a3576120a2611f27565b5b60006120b18b828c01611f7a565b985050602089013567ffffffffffffffff8111156120d2576120d1611f2c565b5b6120de8b828c01612001565b9750975050604089013567ffffffffffffffff81111561210157612100611f2c565b5b61210d8b828c01612001565b9550955050606089013567ffffffffffffffff8111156121305761212f611f2c565b5b61213c8b828c01612001565b9350935050608061214f8b828c0161206e565b9150509295985092959890939650565b6000819050919050565b6121728161215f565b82525050565b600060208201905061218d6000830184612169565b92915050565b600081519050919050565b600082825260208201905092915050565b60005b838110156121cd5780820151818401526020810190506121b2565b60008484015250505050565b6000601f19601f8301169050919050565b60006121f582612193565b6121ff818561219e565b935061220f8185602086016121af565b612218816121d9565b840191505092915050565b600060c0820190506122386000830189612169565b6122456020830188612169565b818103604083015261225781876121ea565b9050818103606083015261226b81866121ea565b9050818103608083015261227f81856121ea565b905061228e60a0830184611fc8565b979650505050505050565b6122a28161215f565b82525050565b600082825260208201905092915050565b60006122c482612193565b6122ce81856122a8565b93506122de8185602086016121af565b6122e7816121d9565b840191505092915050565b600081519050919050565b600082825260208201905092915050565b6000819050602082019050919050565b600061232a8383612299565b60208301905092915050565b6000602082019050919050565b600061234e826122f2565b61235881856122fd565b93506123638361230e565b8060005b8381101561239457815161237b888261231e565b975061238683612336565b925050600181019050612367565b5085935050505092915050565b6123aa81611fbc565b82525050565b6000610100830160008301516123c96000860182612299565b5060208301516123dc6020860182612299565b50604083015184820360408601526123f482826122b9565b9150506060830151848203606086015261240e82826122b9565b9150506080830151848203608086015261242882826122b9565b91505060a083015184820360a08601526124428282612343565b91505060c083015161245760c08601826123a1565b5060e083015161246a60e08601826123a1565b508091505092915050565b6000602082019050818103600083015261248f81846123b0565b905092915050565b60008083601f8401126124ad576124ac611ff2565b5b8235905067ffffffffffffffff8111156124ca576124c9611ff7565b5b6020830191508360208202830111156124e6576124e5611ffc565b5b9250929050565b600060ff82169050919050565b612503816124ed565b811461250e57600080fd5b50565b600081359050612520816124fa565b92915050565b6004811061253357600080fd5b50565b60008135905061254581612526565b92915050565b6005811061255857600080fd5b50565b60008135905061256a8161254b565b92915050565b600080600080600080600080600080600060e08c8e03121561259557612594611f27565b5b60008c013567ffffffffffffffff8111156125b3576125b2611f2c565b5b6125bf8e828f01612497565b9b509b505060208c013567ffffffffffffffff8111156125e2576125e1611f2c565b5b6125ee8e828f01612497565b995099505060406126018e828f01612511565b97505060608c013567ffffffffffffffff81111561262257612621611f2c565b5b61262e8e828f01612001565b965096505060806126418e828f01612536565b94505060a08c013567ffffffffffffffff81111561266257612661611f2c565b5b61266e8e828f01612001565b935093505060c06126818e828f0161255b565b9150509295989b509295989b9093969950565b61269d8161215f565b81146126a857600080fd5b50565b6000813590506126ba81612694565b92915050565b6000602082840312156126d6576126d5611f27565b5b60006126e4848285016126ab565b91505092915050565b6126f6816124ed565b82525050565b7f4e487b7100000000000000000000000000000000000000000000000000000000600052602160045260246000fd5b6004811061273c5761273b6126fc565b5b50565b600081905061274d8261272b565b919050565b600061275d8261273f565b9050919050565b61276d81612752565b82525050565b60058110612784576127836126fc565b5b50565b600081905061279582612773565b919050565b60006127a582612787565b9050919050565b6127b58161279a565b82525050565b600060e0820190506127d0600083018a612169565b6127dd6020830189612169565b6127ea60408301886126ed565b81810360608301526127fc81876121ea565b905061280b6080830186612764565b81810360a083015261281d81856121ea565b905061282c60c08301846127ac565b98975050505050505050565b600080600080600080600080600060c08a8c03121561285a57612859611f27565b5b60006128688c828d01611f7a565b99505060208a013567ffffffffffffffff81111561288957612888611f2c565b5b6128958c828d01612001565b985098505060408a013567ffffffffffffffff8111156128b8576128b7611f2c565b5b6128c48c828d01612001565b965096505060608a013567ffffffffffffffff8111156128e7576128e6611f2c565b5b6128f38c828d01612001565b945094505060806129068c828d0161206e565b92505060a06129178c828d0161206e565b9150509295985092959850929598565b61293081611f51565b82525050565b600060208201905061294b6000830184612927565b92915050565b600060e082019050612966600083018a612169565b6129736020830189612169565b818103604083015261298581886121ea565b9050818103606083015261299981876121ea565b905081810360808301526129ad81866121ea565b90506129bc60a0830185611fc8565b6129c960c0830184611fc8565b98975050505050505050565b600060e0830160008301516129ed6000860182612299565b506020830151612a006020860182612299565b5060408301518482036040860152612a1882826122b9565b91505060608301518482036060860152612a3282826122b9565b91505060808301518482036080860152612a4c82826122b9565b91505060a0830151612a6160a08601826123a1565b5060c083015184820360c0860152612a798282612343565b9150508091505092915050565b60006020820190508181036000830152612aa081846129d5565b905092915050565b7f4e487b7100000000000000000000000000000000000000000000000000000000600052604160045260246000fd5b7f4e487b7100000000000000000000000000000000000000000000000000000000600052602260045260246000fd5b60006002820490506001821680612b1e57607f821691505b602082108103612b3157612b30612ad7565b5b50919050565b60008190508160005260206000209050919050565b60006020601f8301049050919050565b600082821b905092915050565b600060088302612b997fffffffffffffffffffffffffffffffffffffffffffffffffffffffffffffffff82612b5c565b612ba38683612b5c565b95508019841693508086168417925050509392505050565b6000819050919050565b6000612be0612bdb612bd68461215f565b612bbb565b61215f565b9050919050565b6000819050919050565b612bfa83612bc5565b612c0e612c0682612be7565b848454612b69565b825550505050565b600090565b612c23612c16565b612c2e818484612bf1565b505050565b5b81811015612c5257612c47600082612c1b565b600181019050612c34565b5050565b601f821115612c9757612c6881612b37565b612c7184612b4c565b81016020851015612c80578190505b612c94612c8c85612b4c565b830182612c33565b50505b505050565b600082821c905092915050565b6000612cba60001984600802612c9c565b1980831691505092915050565b6000612cd38383612ca9565b9150826002028217905092915050565b612cec82612193565b67ffffffffffffffff811115612d0557612d04612aa8565b5b612d0f8254612b06565b612d1a828285612c56565b600060209050601f831160018114612d4d5760008415612d3b578287015190505b612d458582612cc7565b865550612dad565b601f198416612d5b86612b37565b60005b82811015612d8357848901518255600182019150602085019450602081019050612d5e565b86831015612da05784890151612d9c601f891682612ca9565b8355505b6001600288020188555050505b505050505050565b7f4e487b7100000000000000000000000000000000000000000000000000000000600052601160045260246000fd5b6000612def8261215f565b9150612dfa8361215f565b9250828201905080821115612e1257612e11612db5565b5b92915050565b600082905092915050565b612e2d8383612e18565b67ffffffffffffffff811115612e4657612e45612aa8565b5b612e508254612b06565b612e5b828285612c56565b6000601f831160018114612e8a5760008415612e78578287013590505b612e828582612cc7565b865550612eea565b601f198416612e9886612b37565b60005b82811015612ec057848901358255600182019150602085019450602081019050612e9b565b86831015612edd5784890135612ed9601f891682612ca9565b8355505b6001600288020188555050505b5050505050505056fea2646970667358221220ae2c50795c99df22040884c80ecd38ab69650d9bf6afd8d762de8c53f5bce5ec64736f6c634300081c0033",
  "linkReferences": {},
  "deployedLinkReferences": {}
}