{
  "_format": "hh-sol-artifact-1",
  "contractName": "DataStorage",
  "sourceName": "contracts/DataStorage.sol",
  "abi": [
    {
      "inputs": [],
      "stateMutability": "nonpayable",
      "type": "constructor"
    },
    {
      "inputs": [
        {
          "internalType": "address",
          "name": "owner",
          "type": "address"
        }
      ],
      "name": "OwnableInvalidOwner",
      "type": "error"
    },
    {
      "inputs": [
        {
          "internalType": "address",
          "name": "account",
          "type": "address"
        }
      ],
      "name": "OwnableUnauthorizedAccount",
      "type": "error"
    },
    {
      "anonymous": false,
      "inputs": [
        {
          "indexed": true,
          "internalType": "address",
          "name": "previousOwner",
          "type": "address"
        },
        {
          "indexed": true,
          "internalType": "address",
          "name": "newOwner",
          "type": "address"
        }
      ],
      "name": "OwnershipTransferred",
      "type": "event"
    },
    {
      "inputs": [
        {
          "internalType": "address",
          "name": "_jewelerAddress",
          "type": "address"
        }
      ],
      "name": "activateJeweler",
      "outputs": [
        {
          "internalType": "bool",
          "name": "",
          "type": "bool"
        }
      ],
      "stateMutability": "nonpayable",
      "type": "function"
    },
    {
      "inputs": [
        {
          "internalType": "uint8[]",
          "name": "_materials",
          "type": "uint8[]"
        },
        {
          "internalType": "uint8[]",
          "name": "_gemStones",
          "type": "uint8[]"
        },
        {
          "internalType": "uint8",
          "name": "_weightInGrams",
          "type": "uint8"
        },
        {
          "internalType": "string",
          "name": "_mainColor",
          "type": "string"
        },
        {
          "internalType": "enum DataStorage.CertificateLevel",
          "name": "_level",
          "type": "uint8"
        },
        {
          "internalType": "string",
          "name": "_JewelerName",
          "type": "string"
        },
        {
          "internalType": "enum DataStorage.CertificateStatus",
          "name": "_status",
          "type": "uint8"
        }
      ],
      "name": "addCertificate",
      "outputs": [
        {
          "internalType": "bool",
          "name": "",
          "type": "bool"
        }
      ],
      "stateMutability": "nonpayable",
      "type": "function"
    },
    {
      "inputs": [
        {
          "internalType": "address",
          "name": "_customerAddress",
          "type": "address"
        },
        {
          "internalType": "string",
          "name": "_name",
          "type": "string"
        },
        {
          "internalType": "string",
          "name": "_email",
          "type": "string"
        },
        {
          "internalType": "bool",
          "name": "_visible",
          "type": "bool"
        }
      ],
      "name": "addCustomer",
      "outputs": [
        {
          "internalType": "bool",
          "name": "",
          "type": "bool"
        }
      ],
      "stateMutability": "nonpayable",
      "type": "function"
    },
    {
      "inputs": [
        {
          "internalType": "address",
          "name": "_jewelerAddress",
          "type": "address"
        },
        {
          "internalType": "string",
          "name": "_name",
          "type": "string"
        },
        {
          "internalType": "string",
          "name": "_email",
          "type": "string"
        },
        {
          "internalType": "string",
          "name": "_location",
          "type": "string"
        },
        {
          "internalType": "bool",
          "name": "_available",
          "type": "bool"
        },
        {
          "internalType": "bool",
          "name": "_visible",
          "type": "bool"
        }
      ],
      "name": "addJeweler",
      "outputs": [
        {
          "internalType": "bool",
          "name": "",
          "type": "bool"
        }
      ],
      "stateMutability": "nonpayable",
      "type": "function"
    },
    {
      "inputs": [
        {
          "internalType": "uint256",
          "name": "",
          "type": "uint256"
        }
      ],
      "name": "certificates",
      "outputs": [
        {
          "internalType": "uint256",
          "name": "creationDate",
          "type": "uint256"
        },
        {
          "internalType": "uint256",
          "name": "updated_at",
          "type": "uint256"
        },
        {
          "internalType": "uint8",
          "name": "weightInGrams",
          "type": "uint8"
        },
        {
          "internalType": "string",
          "name": "mainColor",
          "type": "string"
        },
        {
          "internalType": "enum DataStorage.CertificateLevel",
          "name": "level",
          "type": "uint8"
        },
        {
          "internalType": "string",
          "name": "JewelerName",
          "type": "string"
        },
        {
          "internalType": "enum DataStorage.CertificateStatus",
          "name": "status",
          "type": "uint8"
        }
      ],
      "stateMutability": "view",
      "type": "function"
    },
    {
      "inputs": [
        {
          "internalType": "address",
          "name": "",
          "type": "address"
        }
      ],
      "name": "customers",
      "outputs": [
        {
          "internalType": "uint256",
          "name": "created_at",
          "type": "uint256"
        },
        {
          "internalType": "uint256",
          "name": "updated_at",
          "type": "uint256"
        },
        {
          "internalType": "string",
          "name": "name",
          "type": "string"
        },
        {
          "internalType": "string",
          "name": "email",
          "type": "string"
        },
        {
          "internalType": "bool",
          "name": "visible",
          "type": "bool"
        }
      ],
      "stateMutability": "view",
      "type": "function"
    },
    {
      "inputs": [
        {
          "internalType": "address",
          "name": "_jewelerAddress",
          "type": "address"
        }
      ],
      "name": "desactivateJeweler",
      "outputs": [
        {
          "internalType": "bool",
          "name": "",
          "type": "bool"
        }
      ],
      "stateMutability": "nonpayable",
      "type": "function"
    },
    {
      "inputs": [],
      "name": "getCertificateCount",
      "outputs": [
        {
          "internalType": "uint256",
          "name": "",
          "type": "uint256"
        }
      ],
      "stateMutability": "view",
      "type": "function"
    },
    {
      "inputs": [],
      "name": "getCustomerCount",
      "outputs": [
        {
          "internalType": "uint256",
          "name": "",
          "type": "uint256"
        }
      ],
      "stateMutability": "view",
      "type": "function"
    },
    {
      "inputs": [],
      "name": "getJewelerCount",
      "outputs": [
        {
          "internalType": "uint256",
          "name": "",
          "type": "uint256"
        }
      ],
      "stateMutability": "view",
      "type": "function"
    },
    {
      "inputs": [
        {
          "internalType": "address",
          "name": "_customerAddress",
          "type": "address"
        }
      ],
      "name": "getOneCustomer",
      "outputs": [
        {
          "components": [
            {
              "internalType": "uint256",
              "name": "created_at",
              "type": "uint256"
            },
            {
              "internalType": "uint256",
              "name": "updated_at",
              "type": "uint256"
            },
            {
              "internalType": "string",
              "name": "name",
              "type": "string"
            },
            {
              "internalType": "string",
              "name": "email",
              "type": "string"
            },
            {
              "internalType": "bool",
              "name": "visible",
              "type": "bool"
            },
            {
              "internalType": "uint256[]",
              "name": "OwnedCertificateIds",
              "type": "uint256[]"
            }
          ],
          "internalType": "struct DataStorage.Customer",
          "name": "",
          "type": "tuple"
        }
      ],
      "stateMutability": "view",
      "type": "function"
    },
    {
      "inputs": [
        {
          "internalType": "address",
          "name": "_jewelerAddress",
          "type": "address"
        }
      ],
      "name": "getOneJeweler",
      "outputs": [
        {
          "components": [
            {
              "internalType": "uint256",
              "name": "created_at",
              "type": "uint256"
            },
            {
              "internalType": "uint256",
              "name": "updated_at",
              "type": "uint256"
            },
            {
              "internalType": "string",
              "name": "name",
              "type": "string"
            },
            {
              "internalType": "string",
              "name": "email",
              "type": "string"
            },
            {
              "internalType": "string",
              "name": "location",
              "type": "string"
            },
            {
              "internalType": "uint256[]",
              "name": "CreatedCertificateIds",
              "type": "uint256[]"
            },
            {
              "internalType": "bool",
              "name": "available",
              "type": "bool"
            },
            {
              "internalType": "bool",
              "name": "visible",
              "type": "bool"
            }
          ],
          "internalType": "struct DataStorage.Jeweler",
          "name": "",
          "type": "tuple"
        }
      ],
      "stateMutability": "view",
      "type": "function"
    },
    {
      "inputs": [
        {
          "internalType": "address",
          "name": "",
          "type": "address"
        }
      ],
      "name": "jewelers",
      "outputs": [
        {
          "internalType": "uint256",
          "name": "created_at",
          "type": "uint256"
        },
        {
          "internalType": "uint256",
          "name": "updated_at",
          "type": "uint256"
        },
        {
          "internalType": "string",
          "name": "name",
          "type": "string"
        },
        {
          "internalType": "string",
          "name": "email",
          "type": "string"
        },
        {
          "internalType": "string",
          "name": "location",
          "type": "string"
        },
        {
          "internalType": "bool",
          "name": "available",
          "type": "bool"
        },
        {
          "internalType": "bool",
          "name": "visible",
          "type": "bool"
        }
      ],
      "stateMutability": "view",
      "type": "function"
    },
    {
      "inputs": [],
      "name": "owner",
      "outputs": [
        {
          "internalType": "address",
          "name": "",
          "type": "address"
        }
      ],
      "stateMutability": "view",
      "type": "function"
    },
    {
      "inputs": [],
      "name": "renounceOwnership",
      "outputs": [],
      "stateMutability": "nonpayable",
      "type": "function"
    },
    {
      "inputs": [],
      "name": "transertCertificate",
      "outputs": [
        {
          "internalType": "bool",
          "name": "",
          "type": "bool"
        }
      ],
      "stateMutability": "nonpayable",
      "type": "function"
    },
    {
      "inputs": [
        {
          "internalType": "address",
          "name": "newOwner",
          "type": "address"
        }
      ],
      "name": "transferOwnership",
      "outputs": [],
      "stateMutability": "nonpayable",
      "type": "function"
    },
    {
      "inputs": [],
      "name": "updateCertificate",
      "outputs": [
        {
          "internalType": "bool",
          "name": "",
          "type": "bool"
        }
      ],
      "stateMutability": "nonpayable",
      "type": "function"
    },
    {
      "inputs": [
        {
          "internalType": "address",
          "name": "_customerAddress",
          "type": "address"
        },
        {
          "internalType": "string",
          "name": "_name",
          "type": "string"
        },
        {
          "internalType": "string",
          "name": "_email",
          "type": "string"
        },
        {
          "internalType": "bool",
          "name": "_visible",
          "type": "bool"
        }
      ],
      "name": "updateCustomer",
      "outputs": [
        {
          "internalType": "bool",
          "name": "",
          "type": "bool"
        }
      ],
      "stateMutability": "nonpayable",
      "type": "function"
    },
    {
      "inputs": [
        {
          "internalType": "address",
          "name": "_jewelerAddress",
          "type": "address"
        },
        {
          "internalType": "string",
          "name": "_name",
          "type": "string"
        },
        {
          "internalType": "string",
          "name": "_email",
          "type": "string"
        },
        {
          "internalType": "string",
          "name": "_location",
          "type": "string"
        },
        {
          "internalType": "bool",
          "name": "_visible",
          "type": "bool"
        }
      ],
      "name": "updateJeweler",
      "outputs": [
        {
          "internalType": "bool",
          "name": "",
          "type": "bool"
        }
      ],
      "stateMutability": "nonpayable",
      "type": "function"
    }
  ],
  "bytecode": "0x608060405234801561001057600080fd5b5033600073ffffffffffffffffffffffffffffffffffffffff168173ffffffffffffffffffffffffffffffffffffffff16036100845760006040517f1e4fbdf700000000000000000000000000000000000000000000000000000000815260040161007b919061019e565b60405180910390fd5b6100938161009960201b60201c565b506101b9565b60008060009054906101000a900473ffffffffffffffffffffffffffffffffffffffff169050816000806101000a81548173ffffffffffffffffffffffffffffffffffffffff021916908373ffffffffffffffffffffffffffffffffffffffff1602179055508173ffffffffffffffffffffffffffffffffffffffff168173ffffffffffffffffffffffffffffffffffffffff167f8be0079c531659141344cd1fd0a4f28419497f9722a3daafe3b4186f6b6457e060405160405180910390a35050565b600073ffffffffffffffffffffffffffffffffffffffff82169050919050565b60006101888261015d565b9050919050565b6101988161017d565b82525050565b60006020820190506101b3600083018461018f565b92915050565b612dc3806101c86000396000f3fe608060405234801561001057600080fd5b506004361061012c5760003560e01c80638809f727116100ad578063a1e5a38a11610071578063a1e5a38a14610391578063a735e5de146103af578063c5128e05146103df578063ee7bf0ee1461040f578063f2fde38b1461043f5761012c565b80638809f727146102e3578063899f9d0d146103015780638c2717771461031f5780638da5cb5b1461033d578063930fa7941461035b5761012c565b806364df69e7116100f457806364df69e714610213578063663b3e2214610243578063715018a6146102795780637208ca191461028357806378e4d305146102b35761012c565b8063081ba2d5146101315780632027d7461461016157806329acc2091461017f578063336989ae146101af57806357a00ccf146101e3575b600080fd5b61014b60048036038101906101469190611db1565b61045b565b6040516101589190611df9565b60405180910390f35b6101696104c0565b6040516101769190611e2d565b60405180910390f35b61019960048036038101906101949190611db1565b6104ca565b6040516101a69190611df9565b60405180910390f35b6101c960048036038101906101c49190611db1565b610530565b6040516101da959493929190611ed8565b60405180910390f35b6101fd60048036038101906101f89190611db1565b610683565b60405161020a9190612115565b60405180910390f35b61022d60048036038101906102289190612275565b610935565b60405161023a9190611df9565b60405180910390f35b61025d600480360381019061025891906123c5565b610be9565b60405161027097969594939291906124c0565b60405180910390f35b610281610d62565b005b61029d60048036038101906102989190612569565b610d76565b6040516102aa9190611df9565b60405180910390f35b6102cd60048036038101906102c89190612658565b61104d565b6040516102da9190611df9565b60405180910390f35b6102eb611299565b6040516102f89190611e2d565b60405180910390f35b6103096112a3565b6040516103169190611df9565b60405180910390f35b6103276112ac565b6040516103349190611e2d565b60405180910390f35b6103456112b6565b604051610352919061270e565b60405180910390f35b61037560048036038101906103709190611db1565b6112df565b6040516103889796959493929190612729565b60405180910390f35b6103996114d3565b6040516103a69190611df9565b60405180910390f35b6103c960048036038101906103c491906127ad565b6114dc565b6040516103d69190611df9565b60405180910390f35b6103f960048036038101906103f49190612658565b611685565b6040516104069190611df9565b60405180910390f35b61042960048036038101906104249190611db1565b6117da565b6040516104369190612920565b60405180910390f35b61045960048036038101906104549190611db1565b6119de565b005b600080600660008473ffffffffffffffffffffffffffffffffffffffff1673ffffffffffffffffffffffffffffffffffffffff16815260200190815260200160002060060160006101000a81548160ff02191690831515021790555060019050919050565b6000600254905090565b60006001600660008473ffffffffffffffffffffffffffffffffffffffff1673ffffffffffffffffffffffffffffffffffffffff16815260200190815260200160002060060160006101000a81548160ff02191690831515021790555060019050919050565b600760205280600052604060002060009150905080600001549080600101549080600201805461055f90612971565b80601f016020809104026020016040519081016040528092919081815260200182805461058b90612971565b80156105d85780601f106105ad576101008083540402835291602001916105d8565b820191906000526020600020905b8154815290600101906020018083116105bb57829003601f168201915b5050505050908060030180546105ed90612971565b80601f016020809104026020016040519081016040528092919081815260200182805461061990612971565b80156106665780601f1061063b57610100808354040283529160200191610666565b820191906000526020600020905b81548152906001019060200180831161064957829003601f168201915b5050505050908060040160009054906101000a900460ff16905085565b61068b611bb7565b600660008373ffffffffffffffffffffffffffffffffffffffff1673ffffffffffffffffffffffffffffffffffffffff1681526020019081526020016000206040518061010001604052908160008201548152602001600182015481526020016002820180546106fa90612971565b80601f016020809104026020016040519081016040528092919081815260200182805461072690612971565b80156107735780601f1061074857610100808354040283529160200191610773565b820191906000526020600020905b81548152906001019060200180831161075657829003601f168201915b5050505050815260200160038201805461078c90612971565b80601f01602080910402602001604051908101604052809291908181526020018280546107b890612971565b80156108055780601f106107da57610100808354040283529160200191610805565b820191906000526020600020905b8154815290600101906020018083116107e857829003601f168201915b5050505050815260200160048201805461081e90612971565b80601f016020809104026020016040519081016040528092919081815260200182805461084a90612971565b80156108975780601f1061086c57610100808354040283529160200191610897565b820191906000526020600020905b81548152906001019060200180831161087a57829003601f168201915b50505050508152602001600582018054806020026020016040519081016040528092919081815260200182805480156108ef57602002820191906000526020600020905b8154815260200190600101908083116108db575b505050505081526020016006820160009054906101000a900460ff161515151581526020016006820160019054906101000a900460ff1615151515815250509050919050565b60006040518061012001604052804281526020014281526020018d8d80806020026020016040519081016040528093929190818152602001838360200280828437600081840152601f19601f8201169050808301925050505050505081526020018b8b80806020026020016040519081016040528093929190818152602001838360200280828437600081840152601f19601f8201169050808301925050505050505081526020018960ff16815260200188888080601f016020809104026020016040519081016040528093929190818152602001838380828437600081840152601f19601f820116905080830192505050505050508152602001866003811115610a4357610a42612401565b5b815260200185858080601f016020809104026020016040519081016040528093929190818152602001838380828437600081840152601f19601f820116905080830192505050505050508152602001836004811115610aa557610aa4612401565b5b81525060086000600354815260200190815260200160002060008201518160000155602082015181600101556040820151816002019080519060200190610aed929190611c00565b506060820151816003019080519060200190610b0a929190611c00565b5060808201518160040160006101000a81548160ff021916908360ff16021790555060a0820151816005019081610b419190612b7d565b5060c08201518160060160006101000a81548160ff02191690836003811115610b6d57610b6c612401565b5b021790555060e0820151816007019081610b879190612b7d565b506101008201518160080160006101000a81548160ff02191690836004811115610bb457610bb3612401565b5b0217905550905050600160036000828254610bcf9190612c7e565b92505081905550600190509b9a5050505050505050505050565b60086020528060005260406000206000915090508060000154908060010154908060040160009054906101000a900460ff1690806005018054610c2b90612971565b80601f0160208091040260200160405190810160405280929190818152602001828054610c5790612971565b8015610ca45780601f10610c7957610100808354040283529160200191610ca4565b820191906000526020600020905b815481529060010190602001808311610c8757829003601f168201915b5050505050908060060160009054906101000a900460ff1690806007018054610ccc90612971565b80601f0160208091040260200160405190810160405280929190818152602001828054610cf890612971565b8015610d455780601f10610d1a57610100808354040283529160200191610d45565b820191906000526020600020905b815481529060010190602001808311610d2857829003601f168201915b5050505050908060080160009054906101000a900460ff16905087565b610d6a611a64565b610d746000611aeb565b565b60006040518061010001604052804281526020014281526020018a8a8080601f016020809104026020016040519081016040528093929190818152602001838380828437600081840152601f19601f82011690508083019250505050505050815260200188888080601f016020809104026020016040519081016040528093929190818152602001838380828437600081840152601f19601f82011690508083019250505050505050815260200186868080601f016020809104026020016040519081016040528093929190818152602001838380828437600081840152601f19601f820116905080830192505050505050508152602001600067ffffffffffffffff811115610e8957610e886129a2565b5b604051908082528060200260200182016040528015610eb75781602001602082028036833780820191505090505b5081526020018415158152602001831515815250600660008c73ffffffffffffffffffffffffffffffffffffffff1673ffffffffffffffffffffffffffffffffffffffff16815260200190815260200160002060008201518160000155602082015181600101556040820151816002019081610f339190612b7d565b506060820151816003019081610f499190612b7d565b506080820151816004019081610f5f9190612b7d565b5060a0820151816005019080519060200190610f7c929190611ca7565b5060c08201518160060160006101000a81548160ff02191690831515021790555060e08201518160060160016101000a81548160ff0219169083151502179055509050506001806000828254610fd29190612c7e565b9250508190555060048a9080600181540180825580915050600190039060005260206000200160009091909190916101000a81548173ffffffffffffffffffffffffffffffffffffffff021916908373ffffffffffffffffffffffffffffffffffffffff160217905550600190509998505050505050505050565b60006040518060c0016040528042815260200142815260200187878080601f016020809104026020016040519081016040528093929190818152602001838380828437600081840152601f19601f82011690508083019250505050505050815260200185858080601f016020809104026020016040519081016040528093929190818152602001838380828437600081840152601f19601f8201169050808301925050505050505081526020018315158152602001600067ffffffffffffffff81111561111d5761111c6129a2565b5b60405190808252806020026020018201604052801561114b5781602001602082028036833780820191505090505b50815250600760008973ffffffffffffffffffffffffffffffffffffffff1673ffffffffffffffffffffffffffffffffffffffff168152602001908152602001600020600082015181600001556020820151816001015560408201518160020190816111b79190612b7d565b5060608201518160030190816111cd9190612b7d565b5060808201518160040160006101000a81548160ff02191690831515021790555060a082015181600501908051906020019061120a929190611ca7565b509050506001600260008282546112219190612c7e565b925050819055506005879080600181540180825580915050600190039060005260206000200160009091909190916101000a81548173ffffffffffffffffffffffffffffffffffffffff021916908373ffffffffffffffffffffffffffffffffffffffff160217905550600190509695505050505050565b6000600354905090565b60006001905090565b6000600154905090565b60008060009054906101000a900473ffffffffffffffffffffffffffffffffffffffff16905090565b600660205280600052604060002060009150905080600001549080600101549080600201805461130e90612971565b80601f016020809104026020016040519081016040528092919081815260200182805461133a90612971565b80156113875780601f1061135c57610100808354040283529160200191611387565b820191906000526020600020905b81548152906001019060200180831161136a57829003601f168201915b50505050509080600301805461139c90612971565b80601f01602080910402602001604051908101604052809291908181526020018280546113c890612971565b80156114155780601f106113ea57610100808354040283529160200191611415565b820191906000526020600020905b8154815290600101906020018083116113f857829003601f168201915b50505050509080600401805461142a90612971565b80601f016020809104026020016040519081016040528092919081815260200182805461145690612971565b80156114a35780601f10611478576101008083540402835291602001916114a3565b820191906000526020600020905b81548152906001019060200180831161148657829003601f168201915b5050505050908060060160009054906101000a900460ff16908060060160019054906101000a900460ff16905087565b60006001905090565b600042600660008b73ffffffffffffffffffffffffffffffffffffffff1673ffffffffffffffffffffffffffffffffffffffff168152602001908152602001600020600101819055508787600660008c73ffffffffffffffffffffffffffffffffffffffff1673ffffffffffffffffffffffffffffffffffffffff1681526020019081526020016000206002019182611576929190612cbd565b508585600660008c73ffffffffffffffffffffffffffffffffffffffff1673ffffffffffffffffffffffffffffffffffffffff16815260200190815260200160002060030191826115c8929190612cbd565b508383600660008c73ffffffffffffffffffffffffffffffffffffffff1673ffffffffffffffffffffffffffffffffffffffff168152602001908152602001600020600401918261161a929190612cbd565b5081600660008b73ffffffffffffffffffffffffffffffffffffffff1673ffffffffffffffffffffffffffffffffffffffff16815260200190815260200160002060060160016101000a81548160ff0219169083151502179055506001905098975050505050505050565b600042600760008973ffffffffffffffffffffffffffffffffffffffff1673ffffffffffffffffffffffffffffffffffffffff168152602001908152602001600020600101819055508585600760008a73ffffffffffffffffffffffffffffffffffffffff1673ffffffffffffffffffffffffffffffffffffffff168152602001908152602001600020600201918261171f929190612cbd565b508383600760008a73ffffffffffffffffffffffffffffffffffffffff1673ffffffffffffffffffffffffffffffffffffffff1681526020019081526020016000206003019182611771929190612cbd565b5081600760008973ffffffffffffffffffffffffffffffffffffffff1673ffffffffffffffffffffffffffffffffffffffff16815260200190815260200160002060040160006101000a81548160ff021916908315150217905550600190509695505050505050565b6117e2611cf4565b600760008373ffffffffffffffffffffffffffffffffffffffff1673ffffffffffffffffffffffffffffffffffffffff1681526020019081526020016000206040518060c0016040529081600082015481526020016001820154815260200160028201805461185090612971565b80601f016020809104026020016040519081016040528092919081815260200182805461187c90612971565b80156118c95780601f1061189e576101008083540402835291602001916118c9565b820191906000526020600020905b8154815290600101906020018083116118ac57829003601f168201915b505050505081526020016003820180546118e290612971565b80601f016020809104026020016040519081016040528092919081815260200182805461190e90612971565b801561195b5780601f106119305761010080835404028352916020019161195b565b820191906000526020600020905b81548152906001019060200180831161193e57829003601f168201915b505050505081526020016004820160009054906101000a900460ff16151515158152602001600582018054806020026020016040519081016040528092919081815260200182805480156119ce57602002820191906000526020600020905b8154815260200190600101908083116119ba575b5050505050815250509050919050565b6119e6611a64565b600073ffffffffffffffffffffffffffffffffffffffff168173ffffffffffffffffffffffffffffffffffffffff1603611a585760006040517f1e4fbdf7000000000000000000000000000000000000000000000000000000008152600401611a4f919061270e565b60405180910390fd5b611a6181611aeb565b50565b611a6c611baf565b73ffffffffffffffffffffffffffffffffffffffff16611a8a6112b6565b73ffffffffffffffffffffffffffffffffffffffff1614611ae957611aad611baf565b6040517f118cdaa7000000000000000000000000000000000000000000000000000000008152600401611ae0919061270e565b60405180910390fd5b565b60008060009054906101000a900473ffffffffffffffffffffffffffffffffffffffff169050816000806101000a81548173ffffffffffffffffffffffffffffffffffffffff021916908373ffffffffffffffffffffffffffffffffffffffff1602179055508173ffffffffffffffffffffffffffffffffffffffff168173ffffffffffffffffffffffffffffffffffffffff167f8be0079c531659141344cd1fd0a4f28419497f9722a3daafe3b4186f6b6457e060405160405180910390a35050565b600033905090565b6040518061010001604052806000815260200160008152602001606081526020016060815260200160608152602001606081526020016000151581526020016000151581525090565b82805482825590600052602060002090601f01602090048101928215611c965791602002820160005b83821115611c6757835183826101000a81548160ff021916908360ff1602179055509260200192600101602081600001049283019260010302611c29565b8015611c945782816101000a81549060ff0219169055600101602081600001049283019260010302611c67565b505b509050611ca39190611d2c565b5090565b828054828255906000526020600020908101928215611ce3579160200282015b82811115611ce2578251825591602001919060010190611cc7565b5b509050611cf09190611d2c565b5090565b6040518060c0016040528060008152602001600081526020016060815260200160608152602001600015158152602001606081525090565b5b80821115611d45576000816000905550600101611d2d565b5090565b600080fd5b600080fd5b600073ffffffffffffffffffffffffffffffffffffffff82169050919050565b6000611d7e82611d53565b9050919050565b611d8e81611d73565b8114611d9957600080fd5b50565b600081359050611dab81611d85565b92915050565b600060208284031215611dc757611dc6611d49565b5b6000611dd584828501611d9c565b91505092915050565b60008115159050919050565b611df381611dde565b82525050565b6000602082019050611e0e6000830184611dea565b92915050565b6000819050919050565b611e2781611e14565b82525050565b6000602082019050611e426000830184611e1e565b92915050565b600081519050919050565b600082825260208201905092915050565b60005b83811015611e82578082015181840152602081019050611e67565b60008484015250505050565b6000601f19601f8301169050919050565b6000611eaa82611e48565b611eb48185611e53565b9350611ec4818560208601611e64565b611ecd81611e8e565b840191505092915050565b600060a082019050611eed6000830188611e1e565b611efa6020830187611e1e565b8181036040830152611f0c8186611e9f565b90508181036060830152611f208185611e9f565b9050611f2f6080830184611dea565b9695505050505050565b611f4281611e14565b82525050565b600082825260208201905092915050565b6000611f6482611e48565b611f6e8185611f48565b9350611f7e818560208601611e64565b611f8781611e8e565b840191505092915050565b600081519050919050565b600082825260208201905092915050565b6000819050602082019050919050565b6000611fca8383611f39565b60208301905092915050565b6000602082019050919050565b6000611fee82611f92565b611ff88185611f9d565b935061200383611fae565b8060005b8381101561203457815161201b8882611fbe565b975061202683611fd6565b925050600181019050612007565b5085935050505092915050565b61204a81611dde565b82525050565b6000610100830160008301516120696000860182611f39565b50602083015161207c6020860182611f39565b50604083015184820360408601526120948282611f59565b915050606083015184820360608601526120ae8282611f59565b915050608083015184820360808601526120c88282611f59565b91505060a083015184820360a08601526120e28282611fe3565b91505060c08301516120f760c0860182612041565b5060e083015161210a60e0860182612041565b508091505092915050565b6000602082019050818103600083015261212f8184612050565b905092915050565b600080fd5b600080fd5b600080fd5b60008083601f84011261215c5761215b612137565b5b8235905067ffffffffffffffff8111156121795761217861213c565b5b60208301915083602082028301111561219557612194612141565b5b9250929050565b600060ff82169050919050565b6121b28161219c565b81146121bd57600080fd5b50565b6000813590506121cf816121a9565b92915050565b60008083601f8401126121eb576121ea612137565b5b8235905067ffffffffffffffff8111156122085761220761213c565b5b60208301915083600182028301111561222457612223612141565b5b9250929050565b6004811061223857600080fd5b50565b60008135905061224a8161222b565b92915050565b6005811061225d57600080fd5b50565b60008135905061226f81612250565b92915050565b600080600080600080600080600080600060e08c8e03121561229a57612299611d49565b5b60008c013567ffffffffffffffff8111156122b8576122b7611d4e565b5b6122c48e828f01612146565b9b509b505060208c013567ffffffffffffffff8111156122e7576122e6611d4e565b5b6122f38e828f01612146565b995099505060406123068e828f016121c0565b97505060608c013567ffffffffffffffff81111561232757612326611d4e565b5b6123338e828f016121d5565b965096505060806123468e828f0161223b565b94505060a08c013567ffffffffffffffff81111561236757612366611d4e565b5b6123738e828f016121d5565b935093505060c06123868e828f01612260565b9150509295989b509295989b9093969950565b6123a281611e14565b81146123ad57600080fd5b50565b6000813590506123bf81612399565b92915050565b6000602082840312156123db576123da611d49565b5b60006123e9848285016123b0565b91505092915050565b6123fb8161219c565b82525050565b7f4e487b7100000000000000000000000000000000000000000000000000000000600052602160045260246000fd5b6004811061244157612440612401565b5b50565b600081905061245282612430565b919050565b600061246282612444565b9050919050565b61247281612457565b82525050565b6005811061248957612488612401565b5b50565b600081905061249a82612478565b919050565b60006124aa8261248c565b9050919050565b6124ba8161249f565b82525050565b600060e0820190506124d5600083018a611e1e565b6124e26020830189611e1e565b6124ef60408301886123f2565b81810360608301526125018187611e9f565b90506125106080830186612469565b81810360a08301526125228185611e9f565b905061253160c08301846124b1565b98975050505050505050565b61254681611dde565b811461255157600080fd5b50565b6000813590506125638161253d565b92915050565b600080600080600080600080600060c08a8c03121561258b5761258a611d49565b5b60006125998c828d01611d9c565b99505060208a013567ffffffffffffffff8111156125ba576125b9611d4e565b5b6125c68c828d016121d5565b985098505060408a013567ffffffffffffffff8111156125e9576125e8611d4e565b5b6125f58c828d016121d5565b965096505060608a013567ffffffffffffffff81111561261857612617611d4e565b5b6126248c828d016121d5565b945094505060806126378c828d01612554565b92505060a06126488c828d01612554565b9150509295985092959850929598565b6000806000806000806080878903121561267557612674611d49565b5b600061268389828a01611d9c565b965050602087013567ffffffffffffffff8111156126a4576126a3611d4e565b5b6126b089828a016121d5565b9550955050604087013567ffffffffffffffff8111156126d3576126d2611d4e565b5b6126df89828a016121d5565b935093505060606126f289828a01612554565b9150509295509295509295565b61270881611d73565b82525050565b600060208201905061272360008301846126ff565b92915050565b600060e08201905061273e600083018a611e1e565b61274b6020830189611e1e565b818103604083015261275d8188611e9f565b905081810360608301526127718187611e9f565b905081810360808301526127858186611e9f565b905061279460a0830185611dea565b6127a160c0830184611dea565b98975050505050505050565b60008060008060008060008060a0898b0312156127cd576127cc611d49565b5b60006127db8b828c01611d9c565b985050602089013567ffffffffffffffff8111156127fc576127fb611d4e565b5b6128088b828c016121d5565b9750975050604089013567ffffffffffffffff81111561282b5761282a611d4e565b5b6128378b828c016121d5565b9550955050606089013567ffffffffffffffff81111561285a57612859611d4e565b5b6128668b828c016121d5565b935093505060806128798b828c01612554565b9150509295985092959890939650565b600060c0830160008301516128a16000860182611f39565b5060208301516128b46020860182611f39565b50604083015184820360408601526128cc8282611f59565b915050606083015184820360608601526128e68282611f59565b91505060808301516128fb6080860182612041565b5060a083015184820360a08601526129138282611fe3565b9150508091505092915050565b6000602082019050818103600083015261293a8184612889565b905092915050565b7f4e487b7100000000000000000000000000000000000000000000000000000000600052602260045260246000fd5b6000600282049050600182168061298957607f821691505b60208210810361299c5761299b612942565b5b50919050565b7f4e487b7100000000000000000000000000000000000000000000000000000000600052604160045260246000fd5b60008190508160005260206000209050919050565b60006020601f8301049050919050565b600082821b905092915050565b600060088302612a337fffffffffffffffffffffffffffffffffffffffffffffffffffffffffffffffff826129f6565b612a3d86836129f6565b95508019841693508086168417925050509392505050565b6000819050919050565b6000612a7a612a75612a7084611e14565b612a55565b611e14565b9050919050565b6000819050919050565b612a9483612a5f565b612aa8612aa082612a81565b848454612a03565b825550505050565b600090565b612abd612ab0565b612ac8818484612a8b565b505050565b5b81811015612aec57612ae1600082612ab5565b600181019050612ace565b5050565b601f821115612b3157612b02816129d1565b612b0b846129e6565b81016020851015612b1a578190505b612b2e612b26856129e6565b830182612acd565b50505b505050565b600082821c905092915050565b6000612b5460001984600802612b36565b1980831691505092915050565b6000612b6d8383612b43565b9150826002028217905092915050565b612b8682611e48565b67ffffffffffffffff811115612b9f57612b9e6129a2565b5b612ba98254612971565b612bb4828285612af0565b600060209050601f831160018114612be75760008415612bd5578287015190505b612bdf8582612b61565b865550612c47565b601f198416612bf5866129d1565b60005b82811015612c1d57848901518255600182019150602085019450602081019050612bf8565b86831015612c3a5784890151612c36601f891682612b43565b8355505b6001600288020188555050505b505050505050565b7f4e487b7100000000000000000000000000000000000000000000000000000000600052601160045260246000fd5b6000612c8982611e14565b9150612c9483611e14565b9250828201905080821115612cac57612cab612c4f565b5b92915050565b600082905092915050565b612cc78383612cb2565b67ffffffffffffffff811115612ce057612cdf6129a2565b5b612cea8254612971565b612cf5828285612af0565b6000601f831160018114612d245760008415612d12578287013590505b612d1c8582612b61565b865550612d84565b601f198416612d32866129d1565b60005b82811015612d5a57848901358255600182019150602085019450602081019050612d35565b86831015612d775784890135612d73601f891682612b43565b8355505b6001600288020188555050505b5050505050505056fea26469706673582212208442a0d78e074b870296519d652252a6845d52aa05681173061aea8512cd39dd64736f6c634300081c0033",
  "linkReferences": {},
  "deployedLinkReferences": {}
}