{"contracts/GoldChain.sol":{"GoldChain":{"abi":[{"inputs":[{"internalType":"contract IDataStorage","name":"_dataStorage","type":"address"}],"stateMutability":"nonpayable","type":"constructor"},{"inputs":[],"name":"AccessControlBadConfirmation","type":"error"},{"inputs":[{"internalType":"address","name":"account","type":"address"},{"internalType":"bytes32","name":"neededRole","type":"bytes32"}],"name":"AccessControlUnauthorizedAccount","type":"error"},{"inputs":[],"name":"CustomerIsAlreadyRegistered","type":"error"},{"inputs":[],"name":"CustomerNotExists","type":"error"},{"inputs":[{"internalType":"address","name":"sender","type":"address"},{"internalType":"uint256","name":"tokenId","type":"uint256"},{"internalType":"address","name":"owner","type":"address"}],"name":"ERC721IncorrectOwner","type":"error"},{"inputs":[{"internalType":"address","name":"operator","type":"address"},{"internalType":"uint256","name":"tokenId","type":"uint256"}],"name":"ERC721InsufficientApproval","type":"error"},{"inputs":[{"internalType":"address","name":"approver","type":"address"}],"name":"ERC721InvalidApprover","type":"error"},{"inputs":[{"internalType":"address","name":"operator","type":"address"}],"name":"ERC721InvalidOperator","type":"error"},{"inputs":[{"internalType":"address","name":"owner","type":"address"}],"name":"ERC721InvalidOwner","type":"error"},{"inputs":[{"internalType":"address","name":"receiver","type":"address"}],"name":"ERC721InvalidReceiver","type":"error"},{"inputs":[{"internalType":"address","name":"sender","type":"address"}],"name":"ERC721InvalidSender","type":"error"},{"inputs":[{"internalType":"uint256","name":"tokenId","type":"uint256"}],"name":"ERC721NonexistentToken","type":"error"},{"inputs":[],"name":"JewelerIsAlreadyRegistered","type":"error"},{"inputs":[],"name":"JewelerNotExists","type":"error"},{"inputs":[],"name":"TokenDoesNotExist","type":"error"},{"anonymous":false,"inputs":[{"indexed":true,"internalType":"address","name":"owner","type":"address"},{"indexed":true,"internalType":"address","name":"approved","type":"address"},{"indexed":true,"internalType":"uint256","name":"tokenId","type":"uint256"}],"name":"Approval","type":"event"},{"anonymous":false,"inputs":[{"indexed":true,"internalType":"address","name":"owner","type":"address"},{"indexed":true,"internalType":"address","name":"operator","type":"address"},{"indexed":false,"internalType":"bool","name":"approved","type":"bool"}],"name":"ApprovalForAll","type":"event"},{"anonymous":false,"inputs":[{"indexed":true,"internalType":"bytes32","name":"role","type":"bytes32"},{"indexed":true,"internalType":"bytes32","name":"previousAdminRole","type":"bytes32"},{"indexed":true,"internalType":"bytes32","name":"newAdminRole","type":"bytes32"}],"name":"RoleAdminChanged","type":"event"},{"anonymous":false,"inputs":[{"indexed":true,"internalType":"bytes32","name":"role","type":"bytes32"},{"indexed":true,"internalType":"address","name":"account","type":"address"},{"indexed":true,"internalType":"address","name":"sender","type":"address"}],"name":"RoleGranted","type":"event"},{"anonymous":false,"inputs":[{"indexed":true,"internalType":"bytes32","name":"role","type":"bytes32"},{"indexed":true,"internalType":"address","name":"account","type":"address"},{"indexed":true,"internalType":"address","name":"sender","type":"address"}],"name":"RoleRevoked","type":"event"},{"anonymous":false,"inputs":[{"indexed":true,"internalType":"address","name":"from","type":"address"},{"indexed":true,"internalType":"address","name":"to","type":"address"},{"indexed":true,"internalType":"uint256","name":"tokenId","type":"uint256"}],"name":"Transfer","type":"event"},{"anonymous":false,"inputs":[{"indexed":false,"internalType":"address","name":"jewelerAddress","type":"address"},{"indexed":false,"internalType":"uint256","name":"timestamp","type":"uint256"},{"indexed":false,"internalType":"uint256","name":"certificateId","type":"uint256"}],"name":"certificateCreated","type":"event"},{"anonymous":false,"inputs":[{"indexed":false,"internalType":"address","name":"customerAddress","type":"address"},{"indexed":false,"internalType":"uint256","name":"timestamp","type":"uint256"}],"name":"customerCreated","type":"event"},{"anonymous":false,"inputs":[{"indexed":false,"internalType":"address","name":"customerAddress","type":"address"},{"indexed":false,"internalType":"uint256","name":"timestamp","type":"uint256"}],"name":"customerUpdated","type":"event"},{"anonymous":false,"inputs":[{"indexed":false,"internalType":"address","name":"jewelerAddress","type":"address"},{"indexed":false,"internalType":"uint256","name":"timestamp","type":"uint256"}],"name":"jewelerActivated","type":"event"},{"anonymous":false,"inputs":[{"indexed":false,"internalType":"address","name":"jewelerAddress","type":"address"},{"indexed":false,"internalType":"uint256","name":"timestamp","type":"uint256"}],"name":"jewelerCreated","type":"event"},{"anonymous":false,"inputs":[{"indexed":false,"internalType":"address","name":"jewelerAddress","type":"address"},{"indexed":false,"internalType":"uint256","name":"timestamp","type":"uint256"}],"name":"jewelerDesactivated","type":"event"},{"anonymous":false,"inputs":[{"indexed":false,"internalType":"address","name":"jewelerAddress","type":"address"},{"indexed":false,"internalType":"uint256","name":"timestamp","type":"uint256"}],"name":"jewelerUpdated","type":"event"},{"inputs":[],"name":"ADMIN","outputs":[{"internalType":"bytes32","name":"","type":"bytes32"}],"stateMutability":"view","type":"function"},{"inputs":[],"name":"CERTIFICATOR_ROLE","outputs":[{"internalType":"bytes32","name":"","type":"bytes32"}],"stateMutability":"view","type":"function"},{"inputs":[],"name":"CUSTOMERS_ROLE","outputs":[{"internalType":"bytes32","name":"","type":"bytes32"}],"stateMutability":"view","type":"function"},{"inputs":[],"name":"DEFAULT_ADMIN_ROLE","outputs":[{"internalType":"bytes32","name":"","type":"bytes32"}],"stateMutability":"view","type":"function"},{"inputs":[],"name":"FALSE","outputs":[{"internalType":"bool","name":"","type":"bool"}],"stateMutability":"view","type":"function"},{"inputs":[],"name":"JEWELERS_ROLE","outputs":[{"internalType":"bytes32","name":"","type":"bytes32"}],"stateMutability":"view","type":"function"},{"inputs":[],"name":"TRUE","outputs":[{"internalType":"bool","name":"","type":"bool"}],"stateMutability":"view","type":"function"},{"inputs":[{"internalType":"address","name":"_jewelerAddress","type":"address"}],"name":"activateJeweler","outputs":[{"internalType":"bool","name":"","type":"bool"}],"stateMutability":"nonpayable","type":"function"},{"inputs":[],"name":"admin","outputs":[{"internalType":"address","name":"","type":"address"}],"stateMutability":"view","type":"function"},{"inputs":[{"internalType":"address","name":"to","type":"address"},{"internalType":"uint256","name":"tokenId","type":"uint256"}],"name":"approve","outputs":[],"stateMutability":"nonpayable","type":"function"},{"inputs":[{"internalType":"address","name":"owner","type":"address"}],"name":"balanceOf","outputs":[{"internalType":"uint256","name":"","type":"uint256"}],"stateMutability":"view","type":"function"},{"inputs":[{"internalType":"uint8[]","name":"_materials","type":"uint8[]"},{"internalType":"uint8[]","name":"_gemStones","type":"uint8[]"},{"internalType":"uint8","name":"_weightInGrams","type":"uint8"},{"internalType":"string","name":"_mainColor","type":"string"},{"internalType":"enum IDataStorage.CertificateLevel","name":"_level","type":"uint8"},{"internalType":"string","name":"_JewelerName","type":"string"},{"internalType":"enum IDataStorage.CertificateStatus","name":"_status","type":"uint8"}],"name":"createCertificate","outputs":[{"internalType":"bool","name":"","type":"bool"}],"stateMutability":"nonpayable","type":"function"},{"inputs":[{"internalType":"string","name":"_name","type":"string"},{"internalType":"string","name":"_email","type":"string"},{"internalType":"string","name":"_location","type":"string"}],"name":"createCustomer","outputs":[{"internalType":"bool","name":"","type":"bool"}],"stateMutability":"nonpayable","type":"function"},{"inputs":[{"internalType":"string","name":"_name","type":"string"},{"internalType":"string","name":"_email","type":"string"},{"internalType":"string","name":"_location","type":"string"}],"name":"createJeweler","outputs":[{"internalType":"bool","name":"","type":"bool"}],"stateMutability":"nonpayable","type":"function"},{"inputs":[{"internalType":"address","name":"_jewelerAddress","type":"address"}],"name":"desactivateJeweler","outputs":[{"internalType":"bool","name":"","type":"bool"}],"stateMutability":"nonpayable","type":"function"},{"inputs":[{"internalType":"uint256","name":"tokenId","type":"uint256"}],"name":"getApproved","outputs":[{"internalType":"address","name":"","type":"address"}],"stateMutability":"view","type":"function"},{"inputs":[],"name":"getCustomerCount","outputs":[{"internalType":"uint256","name":"","type":"uint256"}],"stateMutability":"view","type":"function"},{"inputs":[],"name":"getJewelerCount","outputs":[{"internalType":"uint256","name":"","type":"uint256"}],"stateMutability":"view","type":"function"},{"inputs":[{"internalType":"address","name":"_customerAddress","type":"address"}],"name":"getOneCustomer","outputs":[{"components":[{"internalType":"uint256","name":"created_at","type":"uint256"},{"internalType":"uint256","name":"updated_at","type":"uint256"},{"internalType":"string","name":"name","type":"string"},{"internalType":"string","name":"email","type":"string"},{"internalType":"string","name":"location","type":"string"},{"internalType":"bool","name":"visible","type":"bool"},{"internalType":"uint256[]","name":"OwnedCertificateIds","type":"uint256[]"}],"internalType":"struct IDataStorage.Customer","name":"","type":"tuple"}],"stateMutability":"view","type":"function"},{"inputs":[{"internalType":"address","name":"_jewelerAddress","type":"address"}],"name":"getOneJeweler","outputs":[{"components":[{"internalType":"uint256","name":"created_at","type":"uint256"},{"internalType":"uint256","name":"updated_at","type":"uint256"},{"internalType":"string","name":"name","type":"string"},{"internalType":"string","name":"email","type":"string"},{"internalType":"string","name":"location","type":"string"},{"internalType":"uint256[]","name":"CreatedCertificateIds","type":"uint256[]"},{"internalType":"bool","name":"available","type":"bool"},{"internalType":"bool","name":"visible","type":"bool"}],"internalType":"struct IDataStorage.Jeweler","name":"","type":"tuple"}],"stateMutability":"view","type":"function"},{"inputs":[{"internalType":"bytes32","name":"role","type":"bytes32"}],"name":"getRoleAdmin","outputs":[{"internalType":"bytes32","name":"","type":"bytes32"}],"stateMutability":"view","type":"function"},{"inputs":[{"internalType":"bytes32","name":"role","type":"bytes32"},{"internalType":"address","name":"account","type":"address"}],"name":"grantRole","outputs":[],"stateMutability":"nonpayable","type":"function"},{"inputs":[{"internalType":"bytes32","name":"role","type":"bytes32"},{"internalType":"address","name":"account","type":"address"}],"name":"hasRole","outputs":[{"internalType":"bool","name":"","type":"bool"}],"stateMutability":"view","type":"function"},{"inputs":[{"internalType":"address","name":"owner","type":"address"},{"internalType":"address","name":"operator","type":"address"}],"name":"isApprovedForAll","outputs":[{"internalType":"bool","name":"","type":"bool"}],"stateMutability":"view","type":"function"},{"inputs":[],"name":"name","outputs":[{"internalType":"string","name":"","type":"string"}],"stateMutability":"view","type":"function"},{"inputs":[{"internalType":"uint256","name":"tokenId","type":"uint256"}],"name":"ownerOf","outputs":[{"internalType":"address","name":"","type":"address"}],"stateMutability":"view","type":"function"},{"inputs":[{"internalType":"bytes32","name":"role","type":"bytes32"},{"internalType":"address","name":"callerConfirmation","type":"address"}],"name":"renounceRole","outputs":[],"stateMutability":"nonpayable","type":"function"},{"inputs":[{"internalType":"bytes32","name":"role","type":"bytes32"},{"internalType":"address","name":"account","type":"address"}],"name":"revokeRole","outputs":[],"stateMutability":"nonpayable","type":"function"},{"inputs":[{"internalType":"address","name":"to","type":"address"}],"name":"safeMint","outputs":[{"internalType":"uint256","name":"","type":"uint256"}],"stateMutability":"nonpayable","type":"function"},{"inputs":[{"internalType":"address","name":"from","type":"address"},{"internalType":"address","name":"to","type":"address"},{"internalType":"uint256","name":"tokenId","type":"uint256"}],"name":"safeTransferFrom","outputs":[],"stateMutability":"nonpayable","type":"function"},{"inputs":[{"internalType":"address","name":"from","type":"address"},{"internalType":"address","name":"to","type":"address"},{"internalType":"uint256","name":"tokenId","type":"uint256"},{"internalType":"bytes","name":"data","type":"bytes"}],"name":"safeTransferFrom","outputs":[],"stateMutability":"nonpayable","type":"function"},{"inputs":[{"internalType":"address","name":"operator","type":"address"},{"internalType":"bool","name":"approved","type":"bool"}],"name":"setApprovalForAll","outputs":[],"stateMutability":"nonpayable","type":"function"},{"inputs":[{"internalType":"bytes4","name":"interfaceId","type":"bytes4"}],"name":"supportsInterface","outputs":[{"internalType":"bool","name":"","type":"bool"}],"stateMutability":"view","type":"function"},{"inputs":[],"name":"symbol","outputs":[{"internalType":"string","name":"","type":"string"}],"stateMutability":"view","type":"function"},{"inputs":[{"internalType":"uint256","name":"tokenId","type":"uint256"}],"name":"tokenURI","outputs":[{"internalType":"string","name":"","type":"string"}],"stateMutability":"view","type":"function"},{"inputs":[{"internalType":"address","name":"_to","type":"address"},{"internalType":"uint256","name":"_tokenId","type":"uint256"}],"name":"transertCertificate","outputs":[{"internalType":"bool","name":"","type":"bool"}],"stateMutability":"nonpayable","type":"function"},{"inputs":[{"internalType":"address","name":"from","type":"address"},{"internalType":"address","name":"to","type":"address"},{"internalType":"uint256","name":"tokenId","type":"uint256"}],"name":"transferFrom","outputs":[],"stateMutability":"nonpayable","type":"function"},{"inputs":[],"name":"updateCertificate","outputs":[{"internalType":"bool","name":"","type":"bool"}],"stateMutability":"nonpayable","type":"function"},{"inputs":[{"internalType":"string","name":"_name","type":"string"},{"internalType":"string","name":"_email","type":"string"},{"internalType":"string","name":"_location","type":"string"},{"internalType":"bool","name":"_visible","type":"bool"}],"name":"updateCustomer","outputs":[{"internalType":"bool","name":"","type":"bool"}],"stateMutability":"nonpayable","type":"function"},{"inputs":[{"internalType":"string","name":"_name","type":"string"},{"internalType":"string","name":"_email","type":"string"},{"internalType":"string","name":"_location","type":"string"},{"internalType":"bool","name":"_visible","type":"bool"}],"name":"updateJeweler","outputs":[{"internalType":"bool","name":"","type":"bool"}],"stateMutability":"nonpayable","type":"function"}],"evm":{"bytecode":{"linkReferences":{},"object":"608060405234801561001057600080fd5b50604051615f95380380615f9583398181016040528101906100329190610371565b6040518060400160405280600f81526020017f476f6c64436861696e45524337323100000000000000000000000000000000008152506040518060400160405280600281526020017f474300000000000000000000000000000000000000000000000000000000000081525081600190816100ad91906105ee565b5080600290816100bd91906105ee565b5050506100d36000801b3361018d60201b60201c565b506101047fdf8b4c520ffe197c5343c6f5aec59570151ef9a492f2c624fd45ddde6135ec423361018d60201b60201c565b5033600960006101000a81548173ffffffffffffffffffffffffffffffffffffffff021916908373ffffffffffffffffffffffffffffffffffffffff16021790555080600860006101000a81548173ffffffffffffffffffffffffffffffffffffffff021916908373ffffffffffffffffffffffffffffffffffffffff160217905550506106c0565b600061019f838361028a60201b60201c565b61027f57600160008085815260200190815260200160002060000160008473ffffffffffffffffffffffffffffffffffffffff1673ffffffffffffffffffffffffffffffffffffffff16815260200190815260200160002060006101000a81548160ff02191690831515021790555061021c6102f460201b60201c565b73ffffffffffffffffffffffffffffffffffffffff168273ffffffffffffffffffffffffffffffffffffffff16847f2f8788117e7eff1d82e926ec794901d17c78024a50270940304540a733656f0d60405160405180910390a460019050610284565b600090505b92915050565b600080600084815260200190815260200160002060000160008373ffffffffffffffffffffffffffffffffffffffff1673ffffffffffffffffffffffffffffffffffffffff16815260200190815260200160002060009054906101000a900460ff16905092915050565b600033905090565b600080fd5b600073ffffffffffffffffffffffffffffffffffffffff82169050919050565b600061032c82610301565b9050919050565b600061033e82610321565b9050919050565b61034e81610333565b811461035957600080fd5b50565b60008151905061036b81610345565b92915050565b600060208284031215610387576103866102fc565b5b60006103958482850161035c565b91505092915050565b600081519050919050565b7f4e487b7100000000000000000000000000000000000000000000000000000000600052604160045260246000fd5b7f4e487b7100000000000000000000000000000000000000000000000000000000600052602260045260246000fd5b6000600282049050600182168061041f57607f821691505b602082108103610432576104316103d8565b5b50919050565b60008190508160005260206000209050919050565b60006020601f8301049050919050565b600082821b905092915050565b60006008830261049a7fffffffffffffffffffffffffffffffffffffffffffffffffffffffffffffffff8261045d565b6104a4868361045d565b95508019841693508086168417925050509392505050565b6000819050919050565b6000819050919050565b60006104eb6104e66104e1846104bc565b6104c6565b6104bc565b9050919050565b6000819050919050565b610505836104d0565b610519610511826104f2565b84845461046a565b825550505050565b600090565b61052e610521565b6105398184846104fc565b505050565b5b8181101561055d57610552600082610526565b60018101905061053f565b5050565b601f8211156105a25761057381610438565b61057c8461044d565b8101602085101561058b578190505b61059f6105978561044d565b83018261053e565b50505b505050565b600082821c905092915050565b60006105c5600019846008026105a7565b1980831691505092915050565b60006105de83836105b4565b9150826002028217905092915050565b6105f78261039e565b67ffffffffffffffff8111156106105761060f6103a9565b5b61061a8254610407565b610625828285610561565b600060209050601f8311600181146106585760008415610646578287015190505b61065085826105d2565b8655506106b8565b601f19841661066686610438565b60005b8281101561068e57848901518255600182019150602085019450602081019050610669565b868310156106ab57848901516106a7601f8916826105b4565b8355505b6001600288020188555050505b505050505050565b6158c6806106cf6000396000f3fe608060405234801561001057600080fd5b50600436106102485760003560e01c806355ed5fe81161013b578063a217fddf116100b8578063d547741f1161007c578063d547741f14610779578063e985e9c514610795578063ee7bf0ee146107c5578063f2e0bc58146107f5578063f851a4401461082557610248565b8063a217fddf146106c3578063a22cb465146106e1578063a5ddd288146106fd578063b88d4fde1461072d578063c87b56dd1461074957610248565b8063899f9d0d116100ff578063899f9d0d1461061b5780638c2717771461063957806391d1485414610657578063934b4af21461068757806395d89b41146106a557610248565b806355ed5fe81461053d57806357a00ccf1461056d5780635994d9841461059d5780636352211e146105bb57806370a08231146105eb57610248565b806329acc209116101c957806340d097c31161018d57806340d097c31461047357806341cc7c73146104a357806342842e0e146104d35780634ff7986e146104ef57806355b059e81461050d57610248565b806329acc209146103bd5780632a0acc6a146103ed5780632b3dd38b1461040b5780632f2ff15d1461043b57806336568abe1461045757610248565b80630cdb5cb5116102105780630cdb5cb5146103175780632027d7461461033557806322f537ce1461035357806323b872dd14610371578063248a9ca31461038d57610248565b806301ffc9a71461024d57806306fdde031461027d578063081812fc1461029b578063081ba2d5146102cb578063095ea7b3146102fb575b600080fd5b61026760048036038101906102629190613581565b610843565b60405161027491906135c9565b60405180910390f35b610285610855565b6040516102929190613674565b60405180910390f35b6102b560048036038101906102b091906136cc565b6108e7565b6040516102c2919061373a565b60405180910390f35b6102e560048036038101906102e09190613781565b610903565b6040516102f291906135c9565b60405180910390f35b610315600480360381019061031091906137ae565b610a11565b005b61031f610a27565b60405161032c9190613807565b60405180910390f35b61033d610a4b565b60405161034a9190613831565b60405180910390f35b61035b610ae3565b6040516103689190613807565b60405180910390f35b61038b6004803603810190610386919061384c565b610b07565b005b6103a760048036038101906103a291906138cb565b610c09565b6040516103b49190613807565b60405180910390f35b6103d760048036038101906103d29190613781565b610c28565b6040516103e491906135c9565b60405180910390f35b6103f5610d36565b6040516104029190613807565b60405180910390f35b61042560048036038101906104209190613989565b610d5a565b60405161043291906135c9565b60405180910390f35b61045560048036038101906104509190613a52565b610e7c565b005b610471600480360381019061046c9190613a52565b610e9e565b005b61048d60048036038101906104889190613781565b610f19565b60405161049a9190613831565b60405180910390f35b6104bd60048036038101906104b89190613b6b565b610f48565b6040516104ca91906135c9565b60405180910390f35b6104ed60048036038101906104e8919061384c565b611047565b005b6104f7611067565b60405161050491906135c9565b60405180910390f35b61052760048036038101906105229190613c8f565b61106c565b60405161053491906135c9565b60405180910390f35b61055760048036038101906105529190613c8f565b6111ef565b60405161056491906135c9565b60405180910390f35b61058760048036038101906105829190613781565b611375565b6040516105949190613f1f565b60405180910390f35b6105a5611425565b6040516105b291906135c9565b60405180910390f35b6105d560048036038101906105d091906136cc565b61142a565b6040516105e2919061373a565b60405180910390f35b61060560048036038101906106009190613781565b61143c565b6040516106129190613831565b60405180910390f35b6106236114f6565b60405161063091906135c9565b60405180910390f35b6106416114ff565b60405161064e9190613831565b60405180910390f35b610671600480360381019061066c9190613a52565b611597565b60405161067e91906135c9565b60405180910390f35b61068f611601565b60405161069c9190613807565b60405180910390f35b6106ad611625565b6040516106ba9190613674565b60405180910390f35b6106cb6116b7565b6040516106d89190613807565b60405180910390f35b6106fb60048036038101906106f69190613f41565b6116be565b005b610717600480360381019061071291906137ae565b6116d4565b60405161072491906135c9565b60405180910390f35b610747600480360381019061074291906140b1565b6116eb565b005b610763600480360381019061075e91906136cc565b611710565b6040516107709190613674565b60405180910390f35b610793600480360381019061078e9190613a52565b611847565b005b6107af60048036038101906107aa9190614134565b611869565b6040516107bc91906135c9565b60405180910390f35b6107df60048036038101906107da9190613781565b6118fd565b6040516107ec9190614225565b60405180910390f35b61080f600480360381019061080a9190613989565b6119ad565b60405161081c91906135c9565b60405180910390f35b61082d611acf565b60405161083a919061373a565b60405180910390f35b600061084e82611af5565b9050919050565b60606001805461086490614276565b80601f016020809104026020016040519081016040528092919081815260200182805461089090614276565b80156108dd5780601f106108b2576101008083540402835291602001916108dd565b820191906000526020600020905b8154815290600101906020018083116108c057829003601f168201915b5050505050905090565b60006108f282611b07565b506108fc82611b8f565b9050919050565b60007fdf8b4c520ffe197c5343c6f5aec59570151ef9a492f2c624fd45ddde6135ec4261092f81611bcc565b600860009054906101000a900473ffffffffffffffffffffffffffffffffffffffff1673ffffffffffffffffffffffffffffffffffffffff1663081ba2d5846040518263ffffffff1660e01b815260040161098a919061373a565b6020604051808303816000875af11580156109a9573d6000803e3d6000fd5b505050506040513d601f19601f820116820180604052508101906109cd91906142bc565b507f188d8ca5695483231734d1734924f73ab34848f997f2de827c8f73033b4614ae83426040516109ff9291906142e9565b60405180910390a16001915050919050565b610a238282610a1e611be0565b611be8565b5050565b7f61e6a4bb6bca8aa1f17c71895c1ab1bf9c06c812442a0a16aad9f0837c23ca7981565b6000600860009054906101000a900473ffffffffffffffffffffffffffffffffffffffff1673ffffffffffffffffffffffffffffffffffffffff16632027d7466040518163ffffffff1660e01b8152600401602060405180830381865afa158015610aba573d6000803e3d6000fd5b505050506040513d601f19601f82011682018060405250810190610ade9190614327565b905090565b7faf6786efc154b345802554f1dea27e60ea4c3393b6b38eb8438e22c20e088bd281565b600073ffffffffffffffffffffffffffffffffffffffff168273ffffffffffffffffffffffffffffffffffffffff1603610b795760006040517f64a0ae92000000000000000000000000000000000000000000000000000000008152600401610b70919061373a565b60405180910390fd5b6000610b8d8383610b88611be0565b611bfa565b90508373ffffffffffffffffffffffffffffffffffffffff168173ffffffffffffffffffffffffffffffffffffffff1614610c03578382826040517f64283d7b000000000000000000000000000000000000000000000000000000008152600401610bfa93929190614354565b60405180910390fd5b50505050565b6000806000838152602001908152602001600020600101549050919050565b60007fdf8b4c520ffe197c5343c6f5aec59570151ef9a492f2c624fd45ddde6135ec42610c5481611bcc565b600860009054906101000a900473ffffffffffffffffffffffffffffffffffffffff1673ffffffffffffffffffffffffffffffffffffffff166329acc209846040518263ffffffff1660e01b8152600401610caf919061373a565b6020604051808303816000875af1158015610cce573d6000803e3d6000fd5b505050506040513d601f19601f82011682018060405250810190610cf291906142bc565b507f449422d37ad477a115e35ded9d4971e6ed3594f45df1408f1eb2320a8bc5c2b88342604051610d249291906142e9565b60405180910390a16001915050919050565b7fdf8b4c520ffe197c5343c6f5aec59570151ef9a492f2c624fd45ddde6135ec4281565b60007f61e6a4bb6bca8aa1f17c71895c1ab1bf9c06c812442a0a16aad9f0837c23ca79610d8681611bcc565b600860009054906101000a900473ffffffffffffffffffffffffffffffffffffffff1673ffffffffffffffffffffffffffffffffffffffff1663a735e5de338b8b8b8b8b8b8b6040518963ffffffff1660e01b8152600401610def9897969594939291906143b8565b6020604051808303816000875af1158015610e0e573d6000803e3d6000fd5b505050506040513d601f19601f82011682018060405250810190610e3291906142bc565b507fc21195a7f73acb0112d9942f6c5c02acc3d8d2c74ab81a6c28f4f492dac933b83342604051610e649291906142e9565b60405180910390a16001915050979650505050505050565b610e8582610c09565b610e8e81611bcc565b610e988383611c10565b50505050565b610ea6611be0565b73ffffffffffffffffffffffffffffffffffffffff168173ffffffffffffffffffffffffffffffffffffffff1614610f0a576040517f6697b23200000000000000000000000000000000000000000000000000000000815260040160405180910390fd5b610f148282611d01565b505050565b60008060076000815480929190610f2f90614455565b919050559050610f3f8382611df3565b80915050919050565b60007f61e6a4bb6bca8aa1f17c71895c1ab1bf9c06c812442a0a16aad9f0837c23ca79610f7481611bcc565b600860009054906101000a900473ffffffffffffffffffffffffffffffffffffffff1673ffffffffffffffffffffffffffffffffffffffff166364df69e78e8e8e8e8e8e8e8e8e8e8e6040518c63ffffffff1660e01b8152600401610fe39b9a9998979695949392919061462e565b6020604051808303816000875af1158015611002573d6000803e3d6000fd5b505050506040513d601f19601f8201168201806040525081019061102691906142bc565b5061103333600754611df3565b60019150509b9a5050505050505050505050565b611062838383604051806020016040528060008152506116eb565b505050565b600081565b60006110987faf6786efc154b345802554f1dea27e60ea4c3393b6b38eb8438e22c20e088bd233611597565b156110cf576040517f937df23900000000000000000000000000000000000000000000000000000000815260040160405180910390fd5b6110f97faf6786efc154b345802554f1dea27e60ea4c3393b6b38eb8438e22c20e088bd233611c10565b50600860009054906101000a900473ffffffffffffffffffffffffffffffffffffffff1673ffffffffffffffffffffffffffffffffffffffff16630f6a35403389898989898960016040518963ffffffff1660e01b81526004016111649897969594939291906143b8565b6020604051808303816000875af1158015611183573d6000803e3d6000fd5b505050506040513d601f19601f820116820180604052508101906111a791906142bc565b507f9355f2ba77852e61793679ff03cf26231b8175fdfb97dc47490f1b151e6ab0d433426040516111d99291906142e9565b60405180910390a1600190509695505050505050565b600061121b7f61e6a4bb6bca8aa1f17c71895c1ab1bf9c06c812442a0a16aad9f0837c23ca7933611597565b15611252576040517f9e5ae09300000000000000000000000000000000000000000000000000000000815260040160405180910390fd5b61127c7f61e6a4bb6bca8aa1f17c71895c1ab1bf9c06c812442a0a16aad9f0837c23ca7933611c10565b50600860009054906101000a900473ffffffffffffffffffffffffffffffffffffffff1673ffffffffffffffffffffffffffffffffffffffff16637208ca1933898989898989600060016040518a63ffffffff1660e01b81526004016112ea999897969594939291906146c1565b6020604051808303816000875af1158015611309573d6000803e3d6000fd5b505050506040513d601f19601f8201168201806040525081019061132d91906142bc565b507fa12abd8201760a4e094635a878d94e4e31ee41204057e1ba4081b4c8ba7df8a8334260405161135f9291906142e9565b60405180910390a1600190509695505050505050565b61137d61348d565b600860009054906101000a900473ffffffffffffffffffffffffffffffffffffffff1673ffffffffffffffffffffffffffffffffffffffff166357a00ccf836040518263ffffffff1660e01b81526004016113d8919061373a565b600060405180830381865afa1580156113f5573d6000803e3d6000fd5b505050506040513d6000823e3d601f19601f8201168201806040525081019061141e91906149e5565b9050919050565b600181565b600061143582611b07565b9050919050565b60008073ffffffffffffffffffffffffffffffffffffffff168273ffffffffffffffffffffffffffffffffffffffff16036114af5760006040517f89c62b640000000000000000000000000000000000000000000000000000000081526004016114a6919061373a565b60405180910390fd5b600460008373ffffffffffffffffffffffffffffffffffffffff1673ffffffffffffffffffffffffffffffffffffffff168152602001908152602001600020549050919050565b60006001905090565b6000600860009054906101000a900473ffffffffffffffffffffffffffffffffffffffff1673ffffffffffffffffffffffffffffffffffffffff16638c2717776040518163ffffffff1660e01b8152600401602060405180830381865afa15801561156e573d6000803e3d6000fd5b505050506040513d601f19601f820116820180604052508101906115929190614327565b905090565b600080600084815260200190815260200160002060000160008373ffffffffffffffffffffffffffffffffffffffff1673ffffffffffffffffffffffffffffffffffffffff16815260200190815260200160002060009054906101000a900460ff16905092915050565b7f8c6ae1b8cac4c99ac9b51ba2b44ec85e94139863fa8d7f1ab8f7e39763b3db4e81565b60606002805461163490614276565b80601f016020809104026020016040519081016040528092919081815260200182805461166090614276565b80156116ad5780601f10611682576101008083540402835291602001916116ad565b820191906000526020600020905b81548152906001019060200180831161169057829003601f168201915b5050505050905090565b6000801b81565b6116d06116c9611be0565b8383611e11565b5050565b60006116e1338484611f80565b6001905092915050565b6116f6848484610b07565b61170a611701611be0565b858585856120ed565b50505050565b6060600754821061174d576040517fceea21b600000000000000000000000000000000000000000000000000000000815260040160405180910390fd5b6040518060400160405280601d81526020017f646174613a6170706c69636174696f6e2f6a736f6e3b6261736536342c000000815250611820604051806060016040528060258152602001615811602591396117a88561229e565b6117b18661236c565b6117c26117bd88612579565b6128ce565b6040518060400160405280600281526020017f227d00000000000000000000000000000000000000000000000000000000000081525060405160200161180c959493929190614a6a565b6040516020818303038152906040526128ce565b604051602001611831929190614ab5565b6040516020818303038152906040529050919050565b61185082610c09565b61185981611bcc565b6118638383611d01565b50505050565b6000600660008473ffffffffffffffffffffffffffffffffffffffff1673ffffffffffffffffffffffffffffffffffffffff16815260200190815260200160002060008373ffffffffffffffffffffffffffffffffffffffff1673ffffffffffffffffffffffffffffffffffffffff16815260200190815260200160002060009054906101000a900460ff16905092915050565b6119056134d6565b600860009054906101000a900473ffffffffffffffffffffffffffffffffffffffff1673ffffffffffffffffffffffffffffffffffffffff1663ee7bf0ee836040518263ffffffff1660e01b8152600401611960919061373a565b600060405180830381865afa15801561197d573d6000803e3d6000fd5b505050506040513d6000823e3d601f19601f820116820180604052508101906119a69190614bfd565b9050919050565b60007faf6786efc154b345802554f1dea27e60ea4c3393b6b38eb8438e22c20e088bd26119d981611bcc565b600860009054906101000a900473ffffffffffffffffffffffffffffffffffffffff1673ffffffffffffffffffffffffffffffffffffffff1663dfd49f25338b8b8b8b8b8b8b6040518963ffffffff1660e01b8152600401611a429897969594939291906143b8565b6020604051808303816000875af1158015611a61573d6000803e3d6000fd5b505050506040513d601f19601f82011682018060405250810190611a8591906142bc565b507f3e981d6fd4c5bd91ef3f68ca28a36322130d52221ab7319ae700e4c417dcc8e33342604051611ab79291906142e9565b60405180910390a16001915050979650505050505050565b600960009054906101000a900473ffffffffffffffffffffffffffffffffffffffff1681565b6000611b0082612a65565b9050919050565b600080611b1383612b47565b9050600073ffffffffffffffffffffffffffffffffffffffff168173ffffffffffffffffffffffffffffffffffffffff1603611b8657826040517f7e273289000000000000000000000000000000000000000000000000000000008152600401611b7d9190613831565b60405180910390fd5b80915050919050565b60006005600083815260200190815260200160002060009054906101000a900473ffffffffffffffffffffffffffffffffffffffff169050919050565b611bdd81611bd8611be0565b612b84565b50565b600033905090565b611bf58383836001612bd5565b505050565b6000611c07848484612d9a565b90509392505050565b6000611c1c8383611597565b611cf657600160008085815260200190815260200160002060000160008473ffffffffffffffffffffffffffffffffffffffff1673ffffffffffffffffffffffffffffffffffffffff16815260200190815260200160002060006101000a81548160ff021916908315150217905550611c93611be0565b73ffffffffffffffffffffffffffffffffffffffff168273ffffffffffffffffffffffffffffffffffffffff16847f2f8788117e7eff1d82e926ec794901d17c78024a50270940304540a733656f0d60405160405180910390a460019050611cfb565b600090505b92915050565b6000611d0d8383611597565b15611de857600080600085815260200190815260200160002060000160008473ffffffffffffffffffffffffffffffffffffffff1673ffffffffffffffffffffffffffffffffffffffff16815260200190815260200160002060006101000a81548160ff021916908315150217905550611d85611be0565b73ffffffffffffffffffffffffffffffffffffffff168273ffffffffffffffffffffffffffffffffffffffff16847ff6391f5c32d9c69d2a47ea670b442974b53935d1edc7fd64eb21e047a839171b60405160405180910390a460019050611ded565b600090505b92915050565b611e0d828260405180602001604052806000815250612fb4565b5050565b600073ffffffffffffffffffffffffffffffffffffffff168273ffffffffffffffffffffffffffffffffffffffff1603611e8257816040517f5b08ba18000000000000000000000000000000000000000000000000000000008152600401611e79919061373a565b60405180910390fd5b80600660008573ffffffffffffffffffffffffffffffffffffffff1673ffffffffffffffffffffffffffffffffffffffff16815260200190815260200160002060008473ffffffffffffffffffffffffffffffffffffffff1673ffffffffffffffffffffffffffffffffffffffff16815260200190815260200160002060006101000a81548160ff0219169083151502179055508173ffffffffffffffffffffffffffffffffffffffff168373ffffffffffffffffffffffffffffffffffffffff167f17307eab39ab6107e8899845ad3d59bd9653f200f220920489ca2b5937696c3183604051611f7391906135c9565b60405180910390a3505050565b600073ffffffffffffffffffffffffffffffffffffffff168273ffffffffffffffffffffffffffffffffffffffff1603611ff25760006040517f64a0ae92000000000000000000000000000000000000000000000000000000008152600401611fe9919061373a565b60405180910390fd5b600061200083836000611bfa565b9050600073ffffffffffffffffffffffffffffffffffffffff168173ffffffffffffffffffffffffffffffffffffffff160361207357816040517f7e27328900000000000000000000000000000000000000000000000000000000815260040161206a9190613831565b60405180910390fd5b8373ffffffffffffffffffffffffffffffffffffffff168173ffffffffffffffffffffffffffffffffffffffff16146120e7578382826040517f64283d7b0000000000000000000000000000000000000000000000000000000081526004016120de93929190614354565b60405180910390fd5b50505050565b60008373ffffffffffffffffffffffffffffffffffffffff163b1115612297578273ffffffffffffffffffffffffffffffffffffffff1663150b7a02868685856040518563ffffffff1660e01b815260040161214c9493929190614c9b565b6020604051808303816000875af192505050801561218857506040513d601f19601f820116820180604052508101906121859190614cfc565b60015b61220c573d80600081146121b8576040519150601f19603f3d011682016040523d82523d6000602084013e6121bd565b606091505b50600081510361220457836040517f64a0ae920000000000000000000000000000000000000000000000000000000081526004016121fb919061373a565b60405180910390fd5b805181602001fd5b63150b7a0260e01b7bffffffffffffffffffffffffffffffffffffffffffffffffffffffff1916817bffffffffffffffffffffffffffffffffffffffffffffffffffffffff19161461229557836040517f64a0ae9200000000000000000000000000000000000000000000000000000000815260040161228c919061373a565b60405180910390fd5b505b5050505050565b6060600060016122ad84612fd8565b01905060008167ffffffffffffffff8111156122cc576122cb613f86565b5b6040519080825280601f01601f1916602001820160405280156122fe5781602001600182028036833780820191505090505b509050600082602001820190505b600115612361578080600190039150507f3031323334353637383961626364656600000000000000000000000000000000600a86061a8153600a858161235557612354614d29565b5b0494506000850361230c575b819350505050919050565b60606000600860009054906101000a900473ffffffffffffffffffffffffffffffffffffffff1673ffffffffffffffffffffffffffffffffffffffff1663bab859a5846040518263ffffffff1660e01b81526004016123cb9190613831565b600060405180830381865afa1580156123e8573d6000803e3d6000fd5b505050506040513d6000823e3d601f19601f820116820180604052508101906124119190614faa565b905060006040518060600160405280603981526020016153e6603991398260e001516040518060600160405280602b8152602001615601602b9139846040015160008151811061246457612463614ff3565b5b60200260200101516040518060600160405280602c8152602001615865602c9139866060015160008151811061249d5761249c614ff3565b5b60200260200101516040516020016124ba96959493929190615058565b6040516020818303038152906040529050806040518060600160405280602c8152602001615348602c91396124f5846080015160ff1661229e565b6040518060600160405280602881526020016152d3602891398560a001516040518060600160405280602f8152602001615836602f91398760c00151604051806060016040528060288152602001615254602891396040516020016125619897969594939291906150cf565b60405160208183030381529060405292505050919050565b60606000604051602001604051602081830303815290604052905060405180608001604052806057815260200161527c605791396040518060a00160405280606e815260200161549b606e91396040518060a0016040528060798152602001615732607991396040518060400160405280601781526020017f43657274696669636174204e46542064652042696a6f750000000000000000008152506040518060400160405280600781526020017f3c2f746578743e0000000000000000000000000000000000000000000000000081525060405160200161265f959493929190614a6a565b6040516020818303038152906040529050806040518060800160405280605d815260200161562c605d91396040518060800160405280605c8152602001615689605c91396040518060a0016040528060728152602001615374607291396040518060800160405280604d8152602001615574604d91396040516020016126e9959493929190614a6a565b6040516020818303038152906040529050806040518060800160405280604d81526020016152fb604d91396040518060800160405280604d81526020016156e5604d91396040518060a00160405280607c815260200161541f607c91396040518060400160405280600981526020017f476f6c64436861696e0000000000000000000000000000000000000000000000815250604051602001612790959493929190614a6a565b6040516020818303038152906040529050806040518060400160405280600781526020017f3c2f746578743e000000000000000000000000000000000000000000000000008152506040518060a00160405280606b8152602001615509606b91396040518060a00160405280606681526020016157ab6066913960405160200161281d9493929190615145565b6040516020818303038152906040529050806040518060400160405280600781526020017f3c2f746578743e0000000000000000000000000000000000000000000000000081525061286e8561229e565b6040518060400160405280600681526020017f3c2f7376673e00000000000000000000000000000000000000000000000000008152506040516020016128b79493929190615145565b604051602081830303815290604052915050919050565b6060600082519050600081036128f65760405180602001604052806000815250915050612a60565b600060036002836129079190615183565b61291191906151b7565b600461291d91906151e8565b9050600060208261292e9190615183565b67ffffffffffffffff81111561294757612946613f86565b5b6040519080825280601f01601f1916602001820160405280156129795781602001600182028036833780820191505090505b50905060006040518060600160405280604081526020016155c1604091399050600181016020830160005b86811015612a1d5760038101905062ffffff818a015116603f8160121c168401518060081b905060ff603f83600c1c1686015116810190508060081b905060ff603f8360061c1686015116810190508060081b905060ff603f831686015116810190508060e01b905080845260048401935050506129a4565b506003860660018114612a375760028114612a4757612a52565b613d3d60f01b6002830352612a52565b603d60f81b60018303525b508484525050819450505050505b919050565b60007f80ac58cd000000000000000000000000000000000000000000000000000000007bffffffffffffffffffffffffffffffffffffffffffffffffffffffff1916827bffffffffffffffffffffffffffffffffffffffffffffffffffffffff19161480612b3057507f5b5e139f000000000000000000000000000000000000000000000000000000007bffffffffffffffffffffffffffffffffffffffffffffffffffffffff1916827bffffffffffffffffffffffffffffffffffffffffffffffffffffffff1916145b80612b405750612b3f8261312b565b5b9050919050565b60006003600083815260200190815260200160002060009054906101000a900473ffffffffffffffffffffffffffffffffffffffff169050919050565b612b8e8282611597565b612bd15780826040517fe2517d3f000000000000000000000000000000000000000000000000000000008152600401612bc892919061522a565b60405180910390fd5b5050565b8080612c0e5750600073ffffffffffffffffffffffffffffffffffffffff168273ffffffffffffffffffffffffffffffffffffffff1614155b15612d42576000612c1e84611b07565b9050600073ffffffffffffffffffffffffffffffffffffffff168373ffffffffffffffffffffffffffffffffffffffff1614158015612c8957508273ffffffffffffffffffffffffffffffffffffffff168173ffffffffffffffffffffffffffffffffffffffff1614155b8015612c9c5750612c9a8184611869565b155b15612cde57826040517fa9fbf51f000000000000000000000000000000000000000000000000000000008152600401612cd5919061373a565b60405180910390fd5b8115612d4057838573ffffffffffffffffffffffffffffffffffffffff168273ffffffffffffffffffffffffffffffffffffffff167f8c5be1e5ebec7d5bd14f71427d1e84f3dd0314c0f7b2291e5b200ac8c7c3b92560405160405180910390a45b505b836005600085815260200190815260200160002060006101000a81548173ffffffffffffffffffffffffffffffffffffffff021916908373ffffffffffffffffffffffffffffffffffffffff16021790555050505050565b600080612da684612b47565b9050600073ffffffffffffffffffffffffffffffffffffffff168373ffffffffffffffffffffffffffffffffffffffff1614612de857612de78184866131a5565b5b600073ffffffffffffffffffffffffffffffffffffffff168173ffffffffffffffffffffffffffffffffffffffff1614612e7957612e2a600085600080612bd5565b6001600460008373ffffffffffffffffffffffffffffffffffffffff1673ffffffffffffffffffffffffffffffffffffffff168152602001908152602001600020600082825403925050819055505b600073ffffffffffffffffffffffffffffffffffffffff168573ffffffffffffffffffffffffffffffffffffffff1614612efc576001600460008773ffffffffffffffffffffffffffffffffffffffff1673ffffffffffffffffffffffffffffffffffffffff168152602001908152602001600020600082825401925050819055505b846003600086815260200190815260200160002060006101000a81548173ffffffffffffffffffffffffffffffffffffffff021916908373ffffffffffffffffffffffffffffffffffffffff160217905550838573ffffffffffffffffffffffffffffffffffffffff168273ffffffffffffffffffffffffffffffffffffffff167fddf252ad1be2c89b69c2b068fc378daa952ba7f163c4a11628f55a4df523b3ef60405160405180910390a4809150509392505050565b612fbe8383613269565b612fd3612fc9611be0565b60008585856120ed565b505050565b600080600090507a184f03e93ff9f4daa797ed6e38ed64bf6a1f0100000000000000008310613036577a184f03e93ff9f4daa797ed6e38ed64bf6a1f010000000000000000838161302c5761302b614d29565b5b0492506040810190505b6d04ee2d6d415b85acef81000000008310613073576d04ee2d6d415b85acef8100000000838161306957613068614d29565b5b0492506020810190505b662386f26fc1000083106130a257662386f26fc10000838161309857613097614d29565b5b0492506010810190505b6305f5e10083106130cb576305f5e10083816130c1576130c0614d29565b5b0492506008810190505b61271083106130f05761271083816130e6576130e5614d29565b5b0492506004810190505b60648310613113576064838161310957613108614d29565b5b0492506002810190505b600a8310613122576001810190505b80915050919050565b60007f7965db0b000000000000000000000000000000000000000000000000000000007bffffffffffffffffffffffffffffffffffffffffffffffffffffffff1916827bffffffffffffffffffffffffffffffffffffffffffffffffffffffff1916148061319e575061319d82613362565b5b9050919050565b6131b08383836133cc565b61326457600073ffffffffffffffffffffffffffffffffffffffff168373ffffffffffffffffffffffffffffffffffffffff160361322557806040517f7e27328900000000000000000000000000000000000000000000000000000000815260040161321c9190613831565b60405180910390fd5b81816040517f177e802f00000000000000000000000000000000000000000000000000000000815260040161325b9291906142e9565b60405180910390fd5b505050565b600073ffffffffffffffffffffffffffffffffffffffff168273ffffffffffffffffffffffffffffffffffffffff16036132db5760006040517f64a0ae920000000000000000000000000000000000000000000000000000000081526004016132d2919061373a565b60405180910390fd5b60006132e983836000611bfa565b9050600073ffffffffffffffffffffffffffffffffffffffff168173ffffffffffffffffffffffffffffffffffffffff161461335d5760006040517f73c6ac6e000000000000000000000000000000000000000000000000000000008152600401613354919061373a565b60405180910390fd5b505050565b60007f01ffc9a7000000000000000000000000000000000000000000000000000000007bffffffffffffffffffffffffffffffffffffffffffffffffffffffff1916827bffffffffffffffffffffffffffffffffffffffffffffffffffffffff1916149050919050565b60008073ffffffffffffffffffffffffffffffffffffffff168373ffffffffffffffffffffffffffffffffffffffff161415801561348457508273ffffffffffffffffffffffffffffffffffffffff168473ffffffffffffffffffffffffffffffffffffffff16148061344557506134448484611869565b5b8061348357508273ffffffffffffffffffffffffffffffffffffffff1661346b83611b8f565b73ffffffffffffffffffffffffffffffffffffffff16145b5b90509392505050565b6040518061010001604052806000815260200160008152602001606081526020016060815260200160608152602001606081526020016000151581526020016000151581525090565b6040518060e001604052806000815260200160008152602001606081526020016060815260200160608152602001600015158152602001606081525090565b6000604051905090565b600080fd5b600080fd5b60007fffffffff0000000000000000000000000000000000000000000000000000000082169050919050565b61355e81613529565b811461356957600080fd5b50565b60008135905061357b81613555565b92915050565b6000602082840312156135975761359661351f565b5b60006135a58482850161356c565b91505092915050565b60008115159050919050565b6135c3816135ae565b82525050565b60006020820190506135de60008301846135ba565b92915050565b600081519050919050565b600082825260208201905092915050565b60005b8381101561361e578082015181840152602081019050613603565b60008484015250505050565b6000601f19601f8301169050919050565b6000613646826135e4565b61365081856135ef565b9350613660818560208601613600565b6136698161362a565b840191505092915050565b6000602082019050818103600083015261368e818461363b565b905092915050565b6000819050919050565b6136a981613696565b81146136b457600080fd5b50565b6000813590506136c6816136a0565b92915050565b6000602082840312156136e2576136e161351f565b5b60006136f0848285016136b7565b91505092915050565b600073ffffffffffffffffffffffffffffffffffffffff82169050919050565b6000613724826136f9565b9050919050565b61373481613719565b82525050565b600060208201905061374f600083018461372b565b92915050565b61375e81613719565b811461376957600080fd5b50565b60008135905061377b81613755565b92915050565b6000602082840312156137975761379661351f565b5b60006137a58482850161376c565b91505092915050565b600080604083850312156137c5576137c461351f565b5b60006137d38582860161376c565b92505060206137e4858286016136b7565b9150509250929050565b6000819050919050565b613801816137ee565b82525050565b600060208201905061381c60008301846137f8565b92915050565b61382b81613696565b82525050565b60006020820190506138466000830184613822565b92915050565b6000806000606084860312156138655761386461351f565b5b60006138738682870161376c565b93505060206138848682870161376c565b9250506040613895868287016136b7565b9150509250925092565b6138a8816137ee565b81146138b357600080fd5b50565b6000813590506138c58161389f565b92915050565b6000602082840312156138e1576138e061351f565b5b60006138ef848285016138b6565b91505092915050565b600080fd5b600080fd5b600080fd5b60008083601f84011261391d5761391c6138f8565b5b8235905067ffffffffffffffff81111561393a576139396138fd565b5b60208301915083600182028301111561395657613955613902565b5b9250929050565b613966816135ae565b811461397157600080fd5b50565b6000813590506139838161395d565b92915050565b60008060008060008060006080888a0312156139a8576139a761351f565b5b600088013567ffffffffffffffff8111156139c6576139c5613524565b5b6139d28a828b01613907565b9750975050602088013567ffffffffffffffff8111156139f5576139f4613524565b5b613a018a828b01613907565b9550955050604088013567ffffffffffffffff811115613a2457613a23613524565b5b613a308a828b01613907565b93509350506060613a438a828b01613974565b91505092959891949750929550565b60008060408385031215613a6957613a6861351f565b5b6000613a77858286016138b6565b9250506020613a888582860161376c565b9150509250929050565b60008083601f840112613aa857613aa76138f8565b5b8235905067ffffffffffffffff811115613ac557613ac46138fd565b5b602083019150836020820283011115613ae157613ae0613902565b5b9250929050565b600060ff82169050919050565b613afe81613ae8565b8114613b0957600080fd5b50565b600081359050613b1b81613af5565b92915050565b60048110613b2e57600080fd5b50565b600081359050613b4081613b21565b92915050565b60058110613b5357600080fd5b50565b600081359050613b6581613b46565b92915050565b600080600080600080600080600080600060e08c8e031215613b9057613b8f61351f565b5b60008c013567ffffffffffffffff811115613bae57613bad613524565b5b613bba8e828f01613a92565b9b509b505060208c013567ffffffffffffffff811115613bdd57613bdc613524565b5b613be98e828f01613a92565b99509950506040613bfc8e828f01613b0c565b97505060608c013567ffffffffffffffff811115613c1d57613c1c613524565b5b613c298e828f01613907565b96509650506080613c3c8e828f01613b31565b94505060a08c013567ffffffffffffffff811115613c5d57613c5c613524565b5b613c698e828f01613907565b935093505060c0613c7c8e828f01613b56565b9150509295989b509295989b9093969950565b60008060008060008060608789031215613cac57613cab61351f565b5b600087013567ffffffffffffffff811115613cca57613cc9613524565b5b613cd689828a01613907565b9650965050602087013567ffffffffffffffff811115613cf957613cf8613524565b5b613d0589828a01613907565b9450945050604087013567ffffffffffffffff811115613d2857613d27613524565b5b613d3489828a01613907565b92509250509295509295509295565b613d4c81613696565b82525050565b600082825260208201905092915050565b6000613d6e826135e4565b613d788185613d52565b9350613d88818560208601613600565b613d918161362a565b840191505092915050565b600081519050919050565b600082825260208201905092915050565b6000819050602082019050919050565b6000613dd48383613d43565b60208301905092915050565b6000602082019050919050565b6000613df882613d9c565b613e028185613da7565b9350613e0d83613db8565b8060005b83811015613e3e578151613e258882613dc8565b9750613e3083613de0565b925050600181019050613e11565b5085935050505092915050565b613e54816135ae565b82525050565b600061010083016000830151613e736000860182613d43565b506020830151613e866020860182613d43565b5060408301518482036040860152613e9e8282613d63565b91505060608301518482036060860152613eb88282613d63565b91505060808301518482036080860152613ed28282613d63565b91505060a083015184820360a0860152613eec8282613ded565b91505060c0830151613f0160c0860182613e4b565b5060e0830151613f1460e0860182613e4b565b508091505092915050565b60006020820190508181036000830152613f398184613e5a565b905092915050565b60008060408385031215613f5857613f5761351f565b5b6000613f668582860161376c565b9250506020613f7785828601613974565b9150509250929050565b600080fd5b7f4e487b7100000000000000000000000000000000000000000000000000000000600052604160045260246000fd5b613fbe8261362a565b810181811067ffffffffffffffff82111715613fdd57613fdc613f86565b5b80604052505050565b6000613ff0613515565b9050613ffc8282613fb5565b919050565b600067ffffffffffffffff82111561401c5761401b613f86565b5b6140258261362a565b9050602081019050919050565b82818337600083830152505050565b600061405461404f84614001565b613fe6565b9050828152602081018484840111156140705761406f613f81565b5b61407b848285614032565b509392505050565b600082601f830112614098576140976138f8565b5b81356140a8848260208601614041565b91505092915050565b600080600080608085870312156140cb576140ca61351f565b5b60006140d98782880161376c565b94505060206140ea8782880161376c565b93505060406140fb878288016136b7565b925050606085013567ffffffffffffffff81111561411c5761411b613524565b5b61412887828801614083565b91505092959194509250565b6000806040838503121561414b5761414a61351f565b5b60006141598582860161376c565b925050602061416a8582860161376c565b9150509250929050565b600060e08301600083015161418c6000860182613d43565b50602083015161419f6020860182613d43565b50604083015184820360408601526141b78282613d63565b915050606083015184820360608601526141d18282613d63565b915050608083015184820360808601526141eb8282613d63565b91505060a083015161420060a0860182613e4b565b5060c083015184820360c08601526142188282613ded565b9150508091505092915050565b6000602082019050818103600083015261423f8184614174565b905092915050565b7f4e487b7100000000000000000000000000000000000000000000000000000000600052602260045260246000fd5b6000600282049050600182168061428e57607f821691505b6020821081036142a1576142a0614247565b5b50919050565b6000815190506142b68161395d565b92915050565b6000602082840312156142d2576142d161351f565b5b60006142e0848285016142a7565b91505092915050565b60006040820190506142fe600083018561372b565b61430b6020830184613822565b9392505050565b600081519050614321816136a0565b92915050565b60006020828403121561433d5761433c61351f565b5b600061434b84828501614312565b91505092915050565b6000606082019050614369600083018661372b565b6143766020830185613822565b614383604083018461372b565b949350505050565b600061439783856135ef565b93506143a4838584614032565b6143ad8361362a565b840190509392505050565b600060a0820190506143cd600083018b61372b565b81810360208301526143e081898b61438b565b905081810360408301526143f581878961438b565b9050818103606083015261440a81858761438b565b905061441960808301846135ba565b9998505050505050505050565b7f4e487b7100000000000000000000000000000000000000000000000000000000600052601160045260246000fd5b600061446082613696565b91507fffffffffffffffffffffffffffffffffffffffffffffffffffffffffffffffff820361449257614491614426565b5b600182019050919050565b600082825260208201905092915050565b6000819050919050565b6144c181613ae8565b82525050565b60006144d383836144b8565b60208301905092915050565b60006144ee6020840184613b0c565b905092915050565b6000602082019050919050565b600061450f838561449d565b935061451a826144ae565b8060005b858110156145535761453082846144df565b61453a88826144c7565b9750614545836144f6565b92505060018101905061451e565b5085925050509392505050565b61456981613ae8565b82525050565b7f4e487b7100000000000000000000000000000000000000000000000000000000600052602160045260246000fd5b600481106145af576145ae61456f565b5b50565b60008190506145c08261459e565b919050565b60006145d0826145b2565b9050919050565b6145e0816145c5565b82525050565b600581106145f7576145f661456f565b5b50565b6000819050614608826145e6565b919050565b6000614618826145fa565b9050919050565b6146288161460d565b82525050565b600060e0820190508181036000830152614649818d8f614503565b9050818103602083015261465e818b8d614503565b905061466d604083018a614560565b818103606083015261468081888a61438b565b905061468f60808301876145d7565b81810360a08301526146a281858761438b565b90506146b160c083018461461f565b9c9b505050505050505050505050565b600060c0820190506146d6600083018c61372b565b81810360208301526146e9818a8c61438b565b905081810360408301526146fe81888a61438b565b9050818103606083015261471381868861438b565b905061472260808301856135ba565b61472f60a08301846135ba565b9a9950505050505050505050565b600080fd5b600080fd5b600067ffffffffffffffff82111561476257614761613f86565b5b61476b8261362a565b9050602081019050919050565b600061478b61478684614747565b613fe6565b9050828152602081018484840111156147a7576147a6613f81565b5b6147b2848285613600565b509392505050565b600082601f8301126147cf576147ce6138f8565b5b81516147df848260208601614778565b91505092915050565b600067ffffffffffffffff82111561480357614802613f86565b5b602082029050602081019050919050565b6000614827614822846147e8565b613fe6565b9050808382526020820190506020840283018581111561484a57614849613902565b5b835b81811015614873578061485f8882614312565b84526020840193505060208101905061484c565b5050509392505050565b600082601f830112614892576148916138f8565b5b81516148a2848260208601614814565b91505092915050565b600061010082840312156148c2576148c161473d565b5b6148cd610100613fe6565b905060006148dd84828501614312565b60008301525060206148f184828501614312565b602083015250604082015167ffffffffffffffff81111561491557614914614742565b5b614921848285016147ba565b604083015250606082015167ffffffffffffffff81111561494557614944614742565b5b614951848285016147ba565b606083015250608082015167ffffffffffffffff81111561497557614974614742565b5b614981848285016147ba565b60808301525060a082015167ffffffffffffffff8111156149a5576149a4614742565b5b6149b18482850161487d565b60a08301525060c06149c5848285016142a7565b60c08301525060e06149d9848285016142a7565b60e08301525092915050565b6000602082840312156149fb576149fa61351f565b5b600082015167ffffffffffffffff811115614a1957614a18613524565b5b614a25848285016148ab565b91505092915050565b600081905092915050565b6000614a44826135e4565b614a4e8185614a2e565b9350614a5e818560208601613600565b80840191505092915050565b6000614a768288614a39565b9150614a828287614a39565b9150614a8e8286614a39565b9150614a9a8285614a39565b9150614aa68284614a39565b91508190509695505050505050565b6000614ac18285614a39565b9150614acd8284614a39565b91508190509392505050565b600060e08284031215614aef57614aee61473d565b5b614af960e0613fe6565b90506000614b0984828501614312565b6000830152506020614b1d84828501614312565b602083015250604082015167ffffffffffffffff811115614b4157614b40614742565b5b614b4d848285016147ba565b604083015250606082015167ffffffffffffffff811115614b7157614b70614742565b5b614b7d848285016147ba565b606083015250608082015167ffffffffffffffff811115614ba157614ba0614742565b5b614bad848285016147ba565b60808301525060a0614bc1848285016142a7565b60a08301525060c082015167ffffffffffffffff811115614be557614be4614742565b5b614bf18482850161487d565b60c08301525092915050565b600060208284031215614c1357614c1261351f565b5b600082015167ffffffffffffffff811115614c3157614c30613524565b5b614c3d84828501614ad9565b91505092915050565b600081519050919050565b600082825260208201905092915050565b6000614c6d82614c46565b614c778185614c51565b9350614c87818560208601613600565b614c908161362a565b840191505092915050565b6000608082019050614cb0600083018761372b565b614cbd602083018661372b565b614cca6040830185613822565b8181036060830152614cdc8184614c62565b905095945050505050565b600081519050614cf681613555565b92915050565b600060208284031215614d1257614d1161351f565b5b6000614d2084828501614ce7565b91505092915050565b7f4e487b7100000000000000000000000000000000000000000000000000000000600052601260045260246000fd5b600067ffffffffffffffff821115614d7357614d72613f86565b5b602082029050602081019050919050565b600081519050614d9381613af5565b92915050565b6000614dac614da784614d58565b613fe6565b90508083825260208201905060208402830185811115614dcf57614dce613902565b5b835b81811015614df85780614de48882614d84565b845260208401935050602081019050614dd1565b5050509392505050565b600082601f830112614e1757614e166138f8565b5b8151614e27848260208601614d99565b91505092915050565b600081519050614e3f81613b21565b92915050565b600081519050614e5481613b46565b92915050565b60006101208284031215614e7157614e7061473d565b5b614e7c610120613fe6565b90506000614e8c84828501614312565b6000830152506020614ea084828501614312565b602083015250604082015167ffffffffffffffff811115614ec457614ec3614742565b5b614ed084828501614e02565b604083015250606082015167ffffffffffffffff811115614ef457614ef3614742565b5b614f0084828501614e02565b6060830152506080614f1484828501614d84565b60808301525060a082015167ffffffffffffffff811115614f3857614f37614742565b5b614f44848285016147ba565b60a08301525060c0614f5884828501614e30565b60c08301525060e082015167ffffffffffffffff811115614f7c57614f7b614742565b5b614f88848285016147ba565b60e083015250610100614f9d84828501614e45565b6101008301525092915050565b600060208284031215614fc057614fbf61351f565b5b600082015167ffffffffffffffff811115614fde57614fdd613524565b5b614fea84828501614e5a565b91505092915050565b7f4e487b7100000000000000000000000000000000000000000000000000000000600052603260045260246000fd5b60008160f81b9050919050565b600061503a82615022565b9050919050565b61505261504d82613ae8565b61502f565b82525050565b60006150648289614a39565b91506150708288614a39565b915061507c8287614a39565b91506150888286615041565b6001820191506150988285614a39565b91506150a48284615041565b600182019150819050979650505050505050565b6150c96150c4826145c5565b61502f565b82525050565b60006150db828b614a39565b91506150e7828a614a39565b91506150f38289614a39565b91506150ff8288614a39565b915061510b8287614a39565b91506151178286614a39565b915061512382856150b8565b6001820191506151338284614a39565b91508190509998505050505050505050565b60006151518287614a39565b915061515d8286614a39565b91506151698285614a39565b91506151758284614a39565b915081905095945050505050565b600061518e82613696565b915061519983613696565b92508282019050808211156151b1576151b0614426565b5b92915050565b60006151c282613696565b91506151cd83613696565b9250826151dd576151dc614d29565b5b828204905092915050565b60006151f382613696565b91506151fe83613696565b925082820261520c81613696565b9150828204841483151761522357615222614426565b5b5092915050565b600060408201905061523f600083018561372b565b61524c60208301846137f8565b939250505056fe227d5d2c22696d616765223a2022646174613a696d6167652f7376672b786d6c3b6261736536342c3c7376672077696474683d2238303022206865696768743d22383030222076696577426f783d2230203020383030203830302220786d6c6e733d22687474703a2f2f7777772e77332e6f72672f323030302f737667223e227d2c7b2274726169745f74797065223a20226d61696e436f6c6f72222c2276616c7565223a20223c6c696e652078313d22333330222079313d22333030222078323d22343730222079323d2233383022207374726f6b653d222338613666333022207374726f6b652d77696474683d2233222f3e227d2c7b2274726169745f74797065223a2022776569676874496e4772616d73222c2276616c7565223a20223c706f6c79676f6e20706f696e74733d223430302c323530203437302c333030203437302c333830203430302c343330203333302c333830203333302c333030222066696c6c3d22776869746522207374726f6b653d222338613666333022207374726f6b652d77696474683d2235222f3e222c202261747472696275746573223a205b7b2274726169745f74797065223a20224a6577656c65724e616d65222c2276616c7565223a20223c7465787420783d223530252220793d223630302220666f6e742d73697a653d2234302220666f6e742d66616d696c793d22417269616c2c2073616e732d73657269662220666f6e742d7765696768743d22626f6c64222066696c6c3d22236434616633372220746578742d616e63686f723d226d6964646c65223e3c7265637420783d22302220793d2230222077696474683d2238303022206865696768743d22383030222066696c6c3d222366386639666122207374726f6b653d222364346166333722207374726f6b652d77696474683d223130222072783d223230222072793d223230222f3e3c7265637420783d223230302220793d22363530222077696474683d2234303022206865696768743d223830222066696c6c3d22776869746522207374726f6b653d222333333322207374726f6b652d77696474683d2233222072783d223130222072793d223130222f3e3c6c696e652078313d22343030222079313d22323530222078323d22343030222079323d2234333022207374726f6b653d222338613666333022207374726f6b652d77696474683d2233222f3e4142434445464748494a4b4c4d4e4f505152535455565758595a6162636465666768696a6b6c6d6e6f707172737475767778797a303132333435363738392b2f227d2c7b2274726169745f74797065223a20226d61696e4d6174657269616c222c2276616c7565223a20223c656c6c697073652063783d22343030222063793d22343230222072783d22313830222072793d22313030222066696c6c3d226e6f6e6522207374726f6b653d222364346166333722207374726f6b652d77696474683d223230222f3e3c656c6c697073652063783d22343030222063793d22343230222072783d22313430222072793d223830222066696c6c3d226e6f6e6522207374726f6b653d222366386639666122207374726f6b652d77696474683d223230222f3e3c6c696e652078313d22343730222079313d22333030222078323d22333330222079323d2233383022207374726f6b653d222338613666333022207374726f6b652d77696474683d2233222f3e3c7465787420783d223530252220793d223132302220666f6e742d73697a653d2235302220666f6e742d66616d696c793d22417269616c2c2073616e732d73657269662220666f6e742d7765696768743d22626f6c64222066696c6c3d22233333332220746578742d616e63686f723d226d6964646c65223e3c7465787420783d223530252220793d223730302220666f6e742d73697a653d2233302220666f6e742d66616d696c793d22417269616c2c2073616e732d7365726966222066696c6c3d22233333332220746578742d616e63686f723d226d6964646c65223e7b226e616d65223a2022476f6c64436861696e204365727469666963617465204e46542023227d2c7b2274726169745f74797065223a202243657274696669636174654c6576656c222c2276616c7565223a2022227d2c7b2274726169745f74797065223a20226d61696e47656d53746f6e6573222c2276616c7565223a2022a26469706673582212200d364a369acdfc040f8491cd7c8ed0389956bf8b04a25d9527708dd1f1425f4e64736f6c634300081c0033","opcodes":"PUSH1 0x80 PUSH1 0x40 MSTORE CALLVALUE DUP1 ISZERO PUSH2 0x10 JUMPI PUSH1 0x0 DUP1 REVERT JUMPDEST POP PUSH1 0x40 MLOAD PUSH2 0x5F95 CODESIZE SUB DUP1 PUSH2 0x5F95 DUP4 CODECOPY DUP2 DUP2 ADD PUSH1 0x40 MSTORE DUP2 ADD SWAP1 PUSH2 0x32 SWAP2 SWAP1 PUSH2 0x371 JUMP JUMPDEST PUSH1 0x40 MLOAD DUP1 PUSH1 0x40 ADD PUSH1 0x40 MSTORE DUP1 PUSH1 0xF DUP2 MSTORE PUSH1 0x20 ADD PUSH32 0x476F6C64436861696E4552433732310000000000000000000000000000000000 DUP2 MSTORE POP PUSH1 0x40 MLOAD DUP1 PUSH1 0x40 ADD PUSH1 0x40 MSTORE DUP1 PUSH1 0x2 DUP2 MSTORE PUSH1 0x20 ADD PUSH32 0x4743000000000000000000000000000000000000000000000000000000000000 DUP2 MSTORE POP DUP2 PUSH1 0x1 SWAP1 DUP2 PUSH2 0xAD SWAP2 SWAP1 PUSH2 0x5EE JUMP JUMPDEST POP DUP1 PUSH1 0x2 SWAP1 DUP2 PUSH2 0xBD SWAP2 SWAP1 PUSH2 0x5EE JUMP JUMPDEST POP POP POP PUSH2 0xD3 PUSH1 0x0 DUP1 SHL CALLER PUSH2 0x18D PUSH1 0x20 SHL PUSH1 0x20 SHR JUMP JUMPDEST POP PUSH2 0x104 PUSH32 0xDF8B4C520FFE197C5343C6F5AEC59570151EF9A492F2C624FD45DDDE6135EC42 CALLER PUSH2 0x18D PUSH1 0x20 SHL PUSH1 0x20 SHR JUMP JUMPDEST POP CALLER PUSH1 0x9 PUSH1 0x0 PUSH2 0x100 EXP DUP2 SLOAD DUP2 PUSH20 0xFFFFFFFFFFFFFFFFFFFFFFFFFFFFFFFFFFFFFFFF MUL NOT AND SWAP1 DUP4 PUSH20 0xFFFFFFFFFFFFFFFFFFFFFFFFFFFFFFFFFFFFFFFF AND MUL OR SWAP1 SSTORE POP DUP1 PUSH1 0x8 PUSH1 0x0 PUSH2 0x100 EXP DUP2 SLOAD DUP2 PUSH20 0xFFFFFFFFFFFFFFFFFFFFFFFFFFFFFFFFFFFFFFFF MUL NOT AND SWAP1 DUP4 PUSH20 0xFFFFFFFFFFFFFFFFFFFFFFFFFFFFFFFFFFFFFFFF AND MUL OR SWAP1 SSTORE POP POP PUSH2 0x6C0 JUMP JUMPDEST PUSH1 0x0 PUSH2 0x19F DUP4 DUP4 PUSH2 0x28A PUSH1 0x20 SHL PUSH1 0x20 SHR JUMP JUMPDEST PUSH2 0x27F JUMPI PUSH1 0x1 PUSH1 0x0 DUP1 DUP6 DUP2 MSTORE PUSH1 0x20 ADD SWAP1 DUP2 MSTORE PUSH1 0x20 ADD PUSH1 0x0 KECCAK256 PUSH1 0x0 ADD PUSH1 0x0 DUP5 PUSH20 0xFFFFFFFFFFFFFFFFFFFFFFFFFFFFFFFFFFFFFFFF AND PUSH20 0xFFFFFFFFFFFFFFFFFFFFFFFFFFFFFFFFFFFFFFFF AND DUP2 MSTORE PUSH1 0x20 ADD SWAP1 DUP2 MSTORE PUSH1 0x20 ADD PUSH1 0x0 KECCAK256 PUSH1 0x0 PUSH2 0x100 EXP DUP2 SLOAD DUP2 PUSH1 0xFF MUL NOT AND SWAP1 DUP4 ISZERO ISZERO MUL OR SWAP1 SSTORE POP PUSH2 0x21C PUSH2 0x2F4 PUSH1 0x20 SHL PUSH1 0x20 SHR JUMP JUMPDEST PUSH20 0xFFFFFFFFFFFFFFFFFFFFFFFFFFFFFFFFFFFFFFFF AND DUP3 PUSH20 0xFFFFFFFFFFFFFFFFFFFFFFFFFFFFFFFFFFFFFFFF AND DUP5 PUSH32 0x2F8788117E7EFF1D82E926EC794901D17C78024A50270940304540A733656F0D PUSH1 0x40 MLOAD PUSH1 0x40 MLOAD DUP1 SWAP2 SUB SWAP1 LOG4 PUSH1 0x1 SWAP1 POP PUSH2 0x284 JUMP JUMPDEST PUSH1 0x0 SWAP1 POP JUMPDEST SWAP3 SWAP2 POP POP JUMP JUMPDEST PUSH1 0x0 DUP1 PUSH1 0x0 DUP5 DUP2 MSTORE PUSH1 0x20 ADD SWAP1 DUP2 MSTORE PUSH1 0x20 ADD PUSH1 0x0 KECCAK256 PUSH1 0x0 ADD PUSH1 0x0 DUP4 PUSH20 0xFFFFFFFFFFFFFFFFFFFFFFFFFFFFFFFFFFFFFFFF AND PUSH20 0xFFFFFFFFFFFFFFFFFFFFFFFFFFFFFFFFFFFFFFFF AND DUP2 MSTORE PUSH1 0x20 ADD SWAP1 DUP2 MSTORE PUSH1 0x20 ADD PUSH1 0x0 KECCAK256 PUSH1 0x0 SWAP1 SLOAD SWAP1 PUSH2 0x100 EXP SWAP1 DIV PUSH1 0xFF AND SWAP1 POP SWAP3 SWAP2 POP POP JUMP JUMPDEST PUSH1 0x0 CALLER SWAP1 POP SWAP1 JUMP JUMPDEST PUSH1 0x0 DUP1 REVERT JUMPDEST PUSH1 0x0 PUSH20 0xFFFFFFFFFFFFFFFFFFFFFFFFFFFFFFFFFFFFFFFF DUP3 AND SWAP1 POP SWAP2 SWAP1 POP JUMP JUMPDEST PUSH1 0x0 PUSH2 0x32C DUP3 PUSH2 0x301 JUMP JUMPDEST SWAP1 POP SWAP2 SWAP1 POP JUMP JUMPDEST PUSH1 0x0 PUSH2 0x33E DUP3 PUSH2 0x321 JUMP JUMPDEST SWAP1 POP SWAP2 SWAP1 POP JUMP JUMPDEST PUSH2 0x34E DUP2 PUSH2 0x333 JUMP JUMPDEST DUP2 EQ PUSH2 0x359 JUMPI PUSH1 0x0 DUP1 REVERT JUMPDEST POP JUMP JUMPDEST PUSH1 0x0 DUP2 MLOAD SWAP1 POP PUSH2 0x36B DUP2 PUSH2 0x345 JUMP JUMPDEST SWAP3 SWAP2 POP POP JUMP JUMPDEST PUSH1 0x0 PUSH1 0x20 DUP3 DUP5 SUB SLT ISZERO PUSH2 0x387 JUMPI PUSH2 0x386 PUSH2 0x2FC JUMP JUMPDEST JUMPDEST PUSH1 0x0 PUSH2 0x395 DUP5 DUP3 DUP6 ADD PUSH2 0x35C JUMP JUMPDEST SWAP2 POP POP SWAP3 SWAP2 POP POP JUMP JUMPDEST PUSH1 0x0 DUP2 MLOAD SWAP1 POP SWAP2 SWAP1 POP JUMP JUMPDEST PUSH32 0x4E487B7100000000000000000000000000000000000000000000000000000000 PUSH1 0x0 MSTORE PUSH1 0x41 PUSH1 0x4 MSTORE PUSH1 0x24 PUSH1 0x0 REVERT JUMPDEST PUSH32 0x4E487B7100000000000000000000000000000000000000000000000000000000 PUSH1 0x0 MSTORE PUSH1 0x22 PUSH1 0x4 MSTORE PUSH1 0x24 PUSH1 0x0 REVERT JUMPDEST PUSH1 0x0 PUSH1 0x2 DUP3 DIV SWAP1 POP PUSH1 0x1 DUP3 AND DUP1 PUSH2 0x41F JUMPI PUSH1 0x7F DUP3 AND SWAP2 POP JUMPDEST PUSH1 0x20 DUP3 LT DUP2 SUB PUSH2 0x432 JUMPI PUSH2 0x431 PUSH2 0x3D8 JUMP JUMPDEST JUMPDEST POP SWAP2 SWAP1 POP JUMP JUMPDEST PUSH1 0x0 DUP2 SWAP1 POP DUP2 PUSH1 0x0 MSTORE PUSH1 0x20 PUSH1 0x0 KECCAK256 SWAP1 POP SWAP2 SWAP1 POP JUMP JUMPDEST PUSH1 0x0 PUSH1 0x20 PUSH1 0x1F DUP4 ADD DIV SWAP1 POP SWAP2 SWAP1 POP JUMP JUMPDEST PUSH1 0x0 DUP3 DUP3 SHL SWAP1 POP SWAP3 SWAP2 POP POP JUMP JUMPDEST PUSH1 0x0 PUSH1 0x8 DUP4 MUL PUSH2 0x49A PUSH32 0xFFFFFFFFFFFFFFFFFFFFFFFFFFFFFFFFFFFFFFFFFFFFFFFFFFFFFFFFFFFFFFFF DUP3 PUSH2 0x45D JUMP JUMPDEST PUSH2 0x4A4 DUP7 DUP4 PUSH2 0x45D JUMP JUMPDEST SWAP6 POP DUP1 NOT DUP5 AND SWAP4 POP DUP1 DUP7 AND DUP5 OR SWAP3 POP POP POP SWAP4 SWAP3 POP POP POP JUMP JUMPDEST PUSH1 0x0 DUP2 SWAP1 POP SWAP2 SWAP1 POP JUMP JUMPDEST PUSH1 0x0 DUP2 SWAP1 POP SWAP2 SWAP1 POP JUMP JUMPDEST PUSH1 0x0 PUSH2 0x4EB PUSH2 0x4E6 PUSH2 0x4E1 DUP5 PUSH2 0x4BC JUMP JUMPDEST PUSH2 0x4C6 JUMP JUMPDEST PUSH2 0x4BC JUMP JUMPDEST SWAP1 POP SWAP2 SWAP1 POP JUMP JUMPDEST PUSH1 0x0 DUP2 SWAP1 POP SWAP2 SWAP1 POP JUMP JUMPDEST PUSH2 0x505 DUP4 PUSH2 0x4D0 JUMP JUMPDEST PUSH2 0x519 PUSH2 0x511 DUP3 PUSH2 0x4F2 JUMP JUMPDEST DUP5 DUP5 SLOAD PUSH2 0x46A JUMP JUMPDEST DUP3 SSTORE POP POP POP POP JUMP JUMPDEST PUSH1 0x0 SWAP1 JUMP JUMPDEST PUSH2 0x52E PUSH2 0x521 JUMP JUMPDEST PUSH2 0x539 DUP2 DUP5 DUP5 PUSH2 0x4FC JUMP JUMPDEST POP POP POP JUMP JUMPDEST JUMPDEST DUP2 DUP2 LT ISZERO PUSH2 0x55D JUMPI PUSH2 0x552 PUSH1 0x0 DUP3 PUSH2 0x526 JUMP JUMPDEST PUSH1 0x1 DUP2 ADD SWAP1 POP PUSH2 0x53F JUMP JUMPDEST POP POP JUMP JUMPDEST PUSH1 0x1F DUP3 GT ISZERO PUSH2 0x5A2 JUMPI PUSH2 0x573 DUP2 PUSH2 0x438 JUMP JUMPDEST PUSH2 0x57C DUP5 PUSH2 0x44D JUMP JUMPDEST DUP2 ADD PUSH1 0x20 DUP6 LT ISZERO PUSH2 0x58B JUMPI DUP2 SWAP1 POP JUMPDEST PUSH2 0x59F PUSH2 0x597 DUP6 PUSH2 0x44D JUMP JUMPDEST DUP4 ADD DUP3 PUSH2 0x53E JUMP JUMPDEST POP POP JUMPDEST POP POP POP JUMP JUMPDEST PUSH1 0x0 DUP3 DUP3 SHR SWAP1 POP SWAP3 SWAP2 POP POP JUMP JUMPDEST PUSH1 0x0 PUSH2 0x5C5 PUSH1 0x0 NOT DUP5 PUSH1 0x8 MUL PUSH2 0x5A7 JUMP JUMPDEST NOT DUP1 DUP4 AND SWAP2 POP POP SWAP3 SWAP2 POP POP JUMP JUMPDEST PUSH1 0x0 PUSH2 0x5DE DUP4 DUP4 PUSH2 0x5B4 JUMP JUMPDEST SWAP2 POP DUP3 PUSH1 0x2 MUL DUP3 OR SWAP1 POP SWAP3 SWAP2 POP POP JUMP JUMPDEST PUSH2 0x5F7 DUP3 PUSH2 0x39E JUMP JUMPDEST PUSH8 0xFFFFFFFFFFFFFFFF DUP2 GT ISZERO PUSH2 0x610 JUMPI PUSH2 0x60F PUSH2 0x3A9 JUMP JUMPDEST JUMPDEST PUSH2 0x61A DUP3 SLOAD PUSH2 0x407 JUMP JUMPDEST PUSH2 0x625 DUP3 DUP3 DUP6 PUSH2 0x561 JUMP JUMPDEST PUSH1 0x0 PUSH1 0x20 SWAP1 POP PUSH1 0x1F DUP4 GT PUSH1 0x1 DUP2 EQ PUSH2 0x658 JUMPI PUSH1 0x0 DUP5 ISZERO PUSH2 0x646 JUMPI DUP3 DUP8 ADD MLOAD SWAP1 POP JUMPDEST PUSH2 0x650 DUP6 DUP3 PUSH2 0x5D2 JUMP JUMPDEST DUP7 SSTORE POP PUSH2 0x6B8 JUMP JUMPDEST PUSH1 0x1F NOT DUP5 AND PUSH2 0x666 DUP7 PUSH2 0x438 JUMP JUMPDEST PUSH1 0x0 JUMPDEST DUP3 DUP2 LT ISZERO PUSH2 0x68E JUMPI DUP5 DUP10 ADD MLOAD DUP3 SSTORE PUSH1 0x1 DUP3 ADD SWAP2 POP PUSH1 0x20 DUP6 ADD SWAP5 POP PUSH1 0x20 DUP2 ADD SWAP1 POP PUSH2 0x669 JUMP JUMPDEST DUP7 DUP4 LT ISZERO PUSH2 0x6AB JUMPI DUP5 DUP10 ADD MLOAD PUSH2 0x6A7 PUSH1 0x1F DUP10 AND DUP3 PUSH2 0x5B4 JUMP JUMPDEST DUP4 SSTORE POP JUMPDEST PUSH1 0x1 PUSH1 0x2 DUP9 MUL ADD DUP9 SSTORE POP POP POP JUMPDEST POP POP POP POP POP POP JUMP JUMPDEST PUSH2 0x58C6 DUP1 PUSH2 0x6CF PUSH1 0x0 CODECOPY PUSH1 0x0 RETURN INVALID PUSH1 0x80 PUSH1 0x40 MSTORE CALLVALUE DUP1 ISZERO PUSH2 0x10 JUMPI PUSH1 0x0 DUP1 REVERT JUMPDEST POP PUSH1 0x4 CALLDATASIZE LT PUSH2 0x248 JUMPI PUSH1 0x0 CALLDATALOAD PUSH1 0xE0 SHR DUP1 PUSH4 0x55ED5FE8 GT PUSH2 0x13B JUMPI DUP1 PUSH4 0xA217FDDF GT PUSH2 0xB8 JUMPI DUP1 PUSH4 0xD547741F GT PUSH2 0x7C JUMPI DUP1 PUSH4 0xD547741F EQ PUSH2 0x779 JUMPI DUP1 PUSH4 0xE985E9C5 EQ PUSH2 0x795 JUMPI DUP1 PUSH4 0xEE7BF0EE EQ PUSH2 0x7C5 JUMPI DUP1 PUSH4 0xF2E0BC58 EQ PUSH2 0x7F5 JUMPI DUP1 PUSH4 0xF851A440 EQ PUSH2 0x825 JUMPI PUSH2 0x248 JUMP JUMPDEST DUP1 PUSH4 0xA217FDDF EQ PUSH2 0x6C3 JUMPI DUP1 PUSH4 0xA22CB465 EQ PUSH2 0x6E1 JUMPI DUP1 PUSH4 0xA5DDD288 EQ PUSH2 0x6FD JUMPI DUP1 PUSH4 0xB88D4FDE EQ PUSH2 0x72D JUMPI DUP1 PUSH4 0xC87B56DD EQ PUSH2 0x749 JUMPI PUSH2 0x248 JUMP JUMPDEST DUP1 PUSH4 0x899F9D0D GT PUSH2 0xFF JUMPI DUP1 PUSH4 0x899F9D0D EQ PUSH2 0x61B JUMPI DUP1 PUSH4 0x8C271777 EQ PUSH2 0x639 JUMPI DUP1 PUSH4 0x91D14854 EQ PUSH2 0x657 JUMPI DUP1 PUSH4 0x934B4AF2 EQ PUSH2 0x687 JUMPI DUP1 PUSH4 0x95D89B41 EQ PUSH2 0x6A5 JUMPI PUSH2 0x248 JUMP JUMPDEST DUP1 PUSH4 0x55ED5FE8 EQ PUSH2 0x53D JUMPI DUP1 PUSH4 0x57A00CCF EQ PUSH2 0x56D JUMPI DUP1 PUSH4 0x5994D984 EQ PUSH2 0x59D JUMPI DUP1 PUSH4 0x6352211E EQ PUSH2 0x5BB JUMPI DUP1 PUSH4 0x70A08231 EQ PUSH2 0x5EB JUMPI PUSH2 0x248 JUMP JUMPDEST DUP1 PUSH4 0x29ACC209 GT PUSH2 0x1C9 JUMPI DUP1 PUSH4 0x40D097C3 GT PUSH2 0x18D JUMPI DUP1 PUSH4 0x40D097C3 EQ PUSH2 0x473 JUMPI DUP1 PUSH4 0x41CC7C73 EQ PUSH2 0x4A3 JUMPI DUP1 PUSH4 0x42842E0E EQ PUSH2 0x4D3 JUMPI DUP1 PUSH4 0x4FF7986E EQ PUSH2 0x4EF JUMPI DUP1 PUSH4 0x55B059E8 EQ PUSH2 0x50D JUMPI PUSH2 0x248 JUMP JUMPDEST DUP1 PUSH4 0x29ACC209 EQ PUSH2 0x3BD JUMPI DUP1 PUSH4 0x2A0ACC6A EQ PUSH2 0x3ED JUMPI DUP1 PUSH4 0x2B3DD38B EQ PUSH2 0x40B JUMPI DUP1 PUSH4 0x2F2FF15D EQ PUSH2 0x43B JUMPI DUP1 PUSH4 0x36568ABE EQ PUSH2 0x457 JUMPI PUSH2 0x248 JUMP JUMPDEST DUP1 PUSH4 0xCDB5CB5 GT PUSH2 0x210 JUMPI DUP1 PUSH4 0xCDB5CB5 EQ PUSH2 0x317 JUMPI DUP1 PUSH4 0x2027D746 EQ PUSH2 0x335 JUMPI DUP1 PUSH4 0x22F537CE EQ PUSH2 0x353 JUMPI DUP1 PUSH4 0x23B872DD EQ PUSH2 0x371 JUMPI DUP1 PUSH4 0x248A9CA3 EQ PUSH2 0x38D JUMPI PUSH2 0x248 JUMP JUMPDEST DUP1 PUSH4 0x1FFC9A7 EQ PUSH2 0x24D JUMPI DUP1 PUSH4 0x6FDDE03 EQ PUSH2 0x27D JUMPI DUP1 PUSH4 0x81812FC EQ PUSH2 0x29B JUMPI DUP1 PUSH4 0x81BA2D5 EQ PUSH2 0x2CB JUMPI DUP1 PUSH4 0x95EA7B3 EQ PUSH2 0x2FB JUMPI JUMPDEST PUSH1 0x0 DUP1 REVERT JUMPDEST PUSH2 0x267 PUSH1 0x4 DUP1 CALLDATASIZE SUB DUP2 ADD SWAP1 PUSH2 0x262 SWAP2 SWAP1 PUSH2 0x3581 JUMP JUMPDEST PUSH2 0x843 JUMP JUMPDEST PUSH1 0x40 MLOAD PUSH2 0x274 SWAP2 SWAP1 PUSH2 0x35C9 JUMP JUMPDEST PUSH1 0x40 MLOAD DUP1 SWAP2 SUB SWAP1 RETURN JUMPDEST PUSH2 0x285 PUSH2 0x855 JUMP JUMPDEST PUSH1 0x40 MLOAD PUSH2 0x292 SWAP2 SWAP1 PUSH2 0x3674 JUMP JUMPDEST PUSH1 0x40 MLOAD DUP1 SWAP2 SUB SWAP1 RETURN JUMPDEST PUSH2 0x2B5 PUSH1 0x4 DUP1 CALLDATASIZE SUB DUP2 ADD SWAP1 PUSH2 0x2B0 SWAP2 SWAP1 PUSH2 0x36CC JUMP JUMPDEST PUSH2 0x8E7 JUMP JUMPDEST PUSH1 0x40 MLOAD PUSH2 0x2C2 SWAP2 SWAP1 PUSH2 0x373A JUMP JUMPDEST PUSH1 0x40 MLOAD DUP1 SWAP2 SUB SWAP1 RETURN JUMPDEST PUSH2 0x2E5 PUSH1 0x4 DUP1 CALLDATASIZE SUB DUP2 ADD SWAP1 PUSH2 0x2E0 SWAP2 SWAP1 PUSH2 0x3781 JUMP JUMPDEST PUSH2 0x903 JUMP JUMPDEST PUSH1 0x40 MLOAD PUSH2 0x2F2 SWAP2 SWAP1 PUSH2 0x35C9 JUMP JUMPDEST PUSH1 0x40 MLOAD DUP1 SWAP2 SUB SWAP1 RETURN JUMPDEST PUSH2 0x315 PUSH1 0x4 DUP1 CALLDATASIZE SUB DUP2 ADD SWAP1 PUSH2 0x310 SWAP2 SWAP1 PUSH2 0x37AE JUMP JUMPDEST PUSH2 0xA11 JUMP JUMPDEST STOP JUMPDEST PUSH2 0x31F PUSH2 0xA27 JUMP JUMPDEST PUSH1 0x40 MLOAD PUSH2 0x32C SWAP2 SWAP1 PUSH2 0x3807 JUMP JUMPDEST PUSH1 0x40 MLOAD DUP1 SWAP2 SUB SWAP1 RETURN JUMPDEST PUSH2 0x33D PUSH2 0xA4B JUMP JUMPDEST PUSH1 0x40 MLOAD PUSH2 0x34A SWAP2 SWAP1 PUSH2 0x3831 JUMP JUMPDEST PUSH1 0x40 MLOAD DUP1 SWAP2 SUB SWAP1 RETURN JUMPDEST PUSH2 0x35B PUSH2 0xAE3 JUMP JUMPDEST PUSH1 0x40 MLOAD PUSH2 0x368 SWAP2 SWAP1 PUSH2 0x3807 JUMP JUMPDEST PUSH1 0x40 MLOAD DUP1 SWAP2 SUB SWAP1 RETURN JUMPDEST PUSH2 0x38B PUSH1 0x4 DUP1 CALLDATASIZE SUB DUP2 ADD SWAP1 PUSH2 0x386 SWAP2 SWAP1 PUSH2 0x384C JUMP JUMPDEST PUSH2 0xB07 JUMP JUMPDEST STOP JUMPDEST PUSH2 0x3A7 PUSH1 0x4 DUP1 CALLDATASIZE SUB DUP2 ADD SWAP1 PUSH2 0x3A2 SWAP2 SWAP1 PUSH2 0x38CB JUMP JUMPDEST PUSH2 0xC09 JUMP JUMPDEST PUSH1 0x40 MLOAD PUSH2 0x3B4 SWAP2 SWAP1 PUSH2 0x3807 JUMP JUMPDEST PUSH1 0x40 MLOAD DUP1 SWAP2 SUB SWAP1 RETURN JUMPDEST PUSH2 0x3D7 PUSH1 0x4 DUP1 CALLDATASIZE SUB DUP2 ADD SWAP1 PUSH2 0x3D2 SWAP2 SWAP1 PUSH2 0x3781 JUMP JUMPDEST PUSH2 0xC28 JUMP JUMPDEST PUSH1 0x40 MLOAD PUSH2 0x3E4 SWAP2 SWAP1 PUSH2 0x35C9 JUMP JUMPDEST PUSH1 0x40 MLOAD DUP1 SWAP2 SUB SWAP1 RETURN JUMPDEST PUSH2 0x3F5 PUSH2 0xD36 JUMP JUMPDEST PUSH1 0x40 MLOAD PUSH2 0x402 SWAP2 SWAP1 PUSH2 0x3807 JUMP JUMPDEST PUSH1 0x40 MLOAD DUP1 SWAP2 SUB SWAP1 RETURN JUMPDEST PUSH2 0x425 PUSH1 0x4 DUP1 CALLDATASIZE SUB DUP2 ADD SWAP1 PUSH2 0x420 SWAP2 SWAP1 PUSH2 0x3989 JUMP JUMPDEST PUSH2 0xD5A JUMP JUMPDEST PUSH1 0x40 MLOAD PUSH2 0x432 SWAP2 SWAP1 PUSH2 0x35C9 JUMP JUMPDEST PUSH1 0x40 MLOAD DUP1 SWAP2 SUB SWAP1 RETURN JUMPDEST PUSH2 0x455 PUSH1 0x4 DUP1 CALLDATASIZE SUB DUP2 ADD SWAP1 PUSH2 0x450 SWAP2 SWAP1 PUSH2 0x3A52 JUMP JUMPDEST PUSH2 0xE7C JUMP JUMPDEST STOP JUMPDEST PUSH2 0x471 PUSH1 0x4 DUP1 CALLDATASIZE SUB DUP2 ADD SWAP1 PUSH2 0x46C SWAP2 SWAP1 PUSH2 0x3A52 JUMP JUMPDEST PUSH2 0xE9E JUMP JUMPDEST STOP JUMPDEST PUSH2 0x48D PUSH1 0x4 DUP1 CALLDATASIZE SUB DUP2 ADD SWAP1 PUSH2 0x488 SWAP2 SWAP1 PUSH2 0x3781 JUMP JUMPDEST PUSH2 0xF19 JUMP JUMPDEST PUSH1 0x40 MLOAD PUSH2 0x49A SWAP2 SWAP1 PUSH2 0x3831 JUMP JUMPDEST PUSH1 0x40 MLOAD DUP1 SWAP2 SUB SWAP1 RETURN JUMPDEST PUSH2 0x4BD PUSH1 0x4 DUP1 CALLDATASIZE SUB DUP2 ADD SWAP1 PUSH2 0x4B8 SWAP2 SWAP1 PUSH2 0x3B6B JUMP JUMPDEST PUSH2 0xF48 JUMP JUMPDEST PUSH1 0x40 MLOAD PUSH2 0x4CA SWAP2 SWAP1 PUSH2 0x35C9 JUMP JUMPDEST PUSH1 0x40 MLOAD DUP1 SWAP2 SUB SWAP1 RETURN JUMPDEST PUSH2 0x4ED PUSH1 0x4 DUP1 CALLDATASIZE SUB DUP2 ADD SWAP1 PUSH2 0x4E8 SWAP2 SWAP1 PUSH2 0x384C JUMP JUMPDEST PUSH2 0x1047 JUMP JUMPDEST STOP JUMPDEST PUSH2 0x4F7 PUSH2 0x1067 JUMP JUMPDEST PUSH1 0x40 MLOAD PUSH2 0x504 SWAP2 SWAP1 PUSH2 0x35C9 JUMP JUMPDEST PUSH1 0x40 MLOAD DUP1 SWAP2 SUB SWAP1 RETURN JUMPDEST PUSH2 0x527 PUSH1 0x4 DUP1 CALLDATASIZE SUB DUP2 ADD SWAP1 PUSH2 0x522 SWAP2 SWAP1 PUSH2 0x3C8F JUMP JUMPDEST PUSH2 0x106C JUMP JUMPDEST PUSH1 0x40 MLOAD PUSH2 0x534 SWAP2 SWAP1 PUSH2 0x35C9 JUMP JUMPDEST PUSH1 0x40 MLOAD DUP1 SWAP2 SUB SWAP1 RETURN JUMPDEST PUSH2 0x557 PUSH1 0x4 DUP1 CALLDATASIZE SUB DUP2 ADD SWAP1 PUSH2 0x552 SWAP2 SWAP1 PUSH2 0x3C8F JUMP JUMPDEST PUSH2 0x11EF JUMP JUMPDEST PUSH1 0x40 MLOAD PUSH2 0x564 SWAP2 SWAP1 PUSH2 0x35C9 JUMP JUMPDEST PUSH1 0x40 MLOAD DUP1 SWAP2 SUB SWAP1 RETURN JUMPDEST PUSH2 0x587 PUSH1 0x4 DUP1 CALLDATASIZE SUB DUP2 ADD SWAP1 PUSH2 0x582 SWAP2 SWAP1 PUSH2 0x3781 JUMP JUMPDEST PUSH2 0x1375 JUMP JUMPDEST PUSH1 0x40 MLOAD PUSH2 0x594 SWAP2 SWAP1 PUSH2 0x3F1F JUMP JUMPDEST PUSH1 0x40 MLOAD DUP1 SWAP2 SUB SWAP1 RETURN JUMPDEST PUSH2 0x5A5 PUSH2 0x1425 JUMP JUMPDEST PUSH1 0x40 MLOAD PUSH2 0x5B2 SWAP2 SWAP1 PUSH2 0x35C9 JUMP JUMPDEST PUSH1 0x40 MLOAD DUP1 SWAP2 SUB SWAP1 RETURN JUMPDEST PUSH2 0x5D5 PUSH1 0x4 DUP1 CALLDATASIZE SUB DUP2 ADD SWAP1 PUSH2 0x5D0 SWAP2 SWAP1 PUSH2 0x36CC JUMP JUMPDEST PUSH2 0x142A JUMP JUMPDEST PUSH1 0x40 MLOAD PUSH2 0x5E2 SWAP2 SWAP1 PUSH2 0x373A JUMP JUMPDEST PUSH1 0x40 MLOAD DUP1 SWAP2 SUB SWAP1 RETURN JUMPDEST PUSH2 0x605 PUSH1 0x4 DUP1 CALLDATASIZE SUB DUP2 ADD SWAP1 PUSH2 0x600 SWAP2 SWAP1 PUSH2 0x3781 JUMP JUMPDEST PUSH2 0x143C JUMP JUMPDEST PUSH1 0x40 MLOAD PUSH2 0x612 SWAP2 SWAP1 PUSH2 0x3831 JUMP JUMPDEST PUSH1 0x40 MLOAD DUP1 SWAP2 SUB SWAP1 RETURN JUMPDEST PUSH2 0x623 PUSH2 0x14F6 JUMP JUMPDEST PUSH1 0x40 MLOAD PUSH2 0x630 SWAP2 SWAP1 PUSH2 0x35C9 JUMP JUMPDEST PUSH1 0x40 MLOAD DUP1 SWAP2 SUB SWAP1 RETURN JUMPDEST PUSH2 0x641 PUSH2 0x14FF JUMP JUMPDEST PUSH1 0x40 MLOAD PUSH2 0x64E SWAP2 SWAP1 PUSH2 0x3831 JUMP JUMPDEST PUSH1 0x40 MLOAD DUP1 SWAP2 SUB SWAP1 RETURN JUMPDEST PUSH2 0x671 PUSH1 0x4 DUP1 CALLDATASIZE SUB DUP2 ADD SWAP1 PUSH2 0x66C SWAP2 SWAP1 PUSH2 0x3A52 JUMP JUMPDEST PUSH2 0x1597 JUMP JUMPDEST PUSH1 0x40 MLOAD PUSH2 0x67E SWAP2 SWAP1 PUSH2 0x35C9 JUMP JUMPDEST PUSH1 0x40 MLOAD DUP1 SWAP2 SUB SWAP1 RETURN JUMPDEST PUSH2 0x68F PUSH2 0x1601 JUMP JUMPDEST PUSH1 0x40 MLOAD PUSH2 0x69C SWAP2 SWAP1 PUSH2 0x3807 JUMP JUMPDEST PUSH1 0x40 MLOAD DUP1 SWAP2 SUB SWAP1 RETURN JUMPDEST PUSH2 0x6AD PUSH2 0x1625 JUMP JUMPDEST PUSH1 0x40 MLOAD PUSH2 0x6BA SWAP2 SWAP1 PUSH2 0x3674 JUMP JUMPDEST PUSH1 0x40 MLOAD DUP1 SWAP2 SUB SWAP1 RETURN JUMPDEST PUSH2 0x6CB PUSH2 0x16B7 JUMP JUMPDEST PUSH1 0x40 MLOAD PUSH2 0x6D8 SWAP2 SWAP1 PUSH2 0x3807 JUMP JUMPDEST PUSH1 0x40 MLOAD DUP1 SWAP2 SUB SWAP1 RETURN JUMPDEST PUSH2 0x6FB PUSH1 0x4 DUP1 CALLDATASIZE SUB DUP2 ADD SWAP1 PUSH2 0x6F6 SWAP2 SWAP1 PUSH2 0x3F41 JUMP JUMPDEST PUSH2 0x16BE JUMP JUMPDEST STOP JUMPDEST PUSH2 0x717 PUSH1 0x4 DUP1 CALLDATASIZE SUB DUP2 ADD SWAP1 PUSH2 0x712 SWAP2 SWAP1 PUSH2 0x37AE JUMP JUMPDEST PUSH2 0x16D4 JUMP JUMPDEST PUSH1 0x40 MLOAD PUSH2 0x724 SWAP2 SWAP1 PUSH2 0x35C9 JUMP JUMPDEST PUSH1 0x40 MLOAD DUP1 SWAP2 SUB SWAP1 RETURN JUMPDEST PUSH2 0x747 PUSH1 0x4 DUP1 CALLDATASIZE SUB DUP2 ADD SWAP1 PUSH2 0x742 SWAP2 SWAP1 PUSH2 0x40B1 JUMP JUMPDEST PUSH2 0x16EB JUMP JUMPDEST STOP JUMPDEST PUSH2 0x763 PUSH1 0x4 DUP1 CALLDATASIZE SUB DUP2 ADD SWAP1 PUSH2 0x75E SWAP2 SWAP1 PUSH2 0x36CC JUMP JUMPDEST PUSH2 0x1710 JUMP JUMPDEST PUSH1 0x40 MLOAD PUSH2 0x770 SWAP2 SWAP1 PUSH2 0x3674 JUMP JUMPDEST PUSH1 0x40 MLOAD DUP1 SWAP2 SUB SWAP1 RETURN JUMPDEST PUSH2 0x793 PUSH1 0x4 DUP1 CALLDATASIZE SUB DUP2 ADD SWAP1 PUSH2 0x78E SWAP2 SWAP1 PUSH2 0x3A52 JUMP JUMPDEST PUSH2 0x1847 JUMP JUMPDEST STOP JUMPDEST PUSH2 0x7AF PUSH1 0x4 DUP1 CALLDATASIZE SUB DUP2 ADD SWAP1 PUSH2 0x7AA SWAP2 SWAP1 PUSH2 0x4134 JUMP JUMPDEST PUSH2 0x1869 JUMP JUMPDEST PUSH1 0x40 MLOAD PUSH2 0x7BC SWAP2 SWAP1 PUSH2 0x35C9 JUMP JUMPDEST PUSH1 0x40 MLOAD DUP1 SWAP2 SUB SWAP1 RETURN JUMPDEST PUSH2 0x7DF PUSH1 0x4 DUP1 CALLDATASIZE SUB DUP2 ADD SWAP1 PUSH2 0x7DA SWAP2 SWAP1 PUSH2 0x3781 JUMP JUMPDEST PUSH2 0x18FD JUMP JUMPDEST PUSH1 0x40 MLOAD PUSH2 0x7EC SWAP2 SWAP1 PUSH2 0x4225 JUMP JUMPDEST PUSH1 0x40 MLOAD DUP1 SWAP2 SUB SWAP1 RETURN JUMPDEST PUSH2 0x80F PUSH1 0x4 DUP1 CALLDATASIZE SUB DUP2 ADD SWAP1 PUSH2 0x80A SWAP2 SWAP1 PUSH2 0x3989 JUMP JUMPDEST PUSH2 0x19AD JUMP JUMPDEST PUSH1 0x40 MLOAD PUSH2 0x81C SWAP2 SWAP1 PUSH2 0x35C9 JUMP JUMPDEST PUSH1 0x40 MLOAD DUP1 SWAP2 SUB SWAP1 RETURN JUMPDEST PUSH2 0x82D PUSH2 0x1ACF JUMP JUMPDEST PUSH1 0x40 MLOAD PUSH2 0x83A SWAP2 SWAP1 PUSH2 0x373A JUMP JUMPDEST PUSH1 0x40 MLOAD DUP1 SWAP2 SUB SWAP1 RETURN JUMPDEST PUSH1 0x0 PUSH2 0x84E DUP3 PUSH2 0x1AF5 JUMP JUMPDEST SWAP1 POP SWAP2 SWAP1 POP JUMP JUMPDEST PUSH1 0x60 PUSH1 0x1 DUP1 SLOAD PUSH2 0x864 SWAP1 PUSH2 0x4276 JUMP JUMPDEST DUP1 PUSH1 0x1F ADD PUSH1 0x20 DUP1 SWAP2 DIV MUL PUSH1 0x20 ADD PUSH1 0x40 MLOAD SWAP1 DUP2 ADD PUSH1 0x40 MSTORE DUP1 SWAP3 SWAP2 SWAP1 DUP2 DUP2 MSTORE PUSH1 0x20 ADD DUP3 DUP1 SLOAD PUSH2 0x890 SWAP1 PUSH2 0x4276 JUMP JUMPDEST DUP1 ISZERO PUSH2 0x8DD JUMPI DUP1 PUSH1 0x1F LT PUSH2 0x8B2 JUMPI PUSH2 0x100 DUP1 DUP4 SLOAD DIV MUL DUP4 MSTORE SWAP2 PUSH1 0x20 ADD SWAP2 PUSH2 0x8DD JUMP JUMPDEST DUP3 ADD SWAP2 SWAP1 PUSH1 0x0 MSTORE PUSH1 0x20 PUSH1 0x0 KECCAK256 SWAP1 JUMPDEST DUP2 SLOAD DUP2 MSTORE SWAP1 PUSH1 0x1 ADD SWAP1 PUSH1 0x20 ADD DUP1 DUP4 GT PUSH2 0x8C0 JUMPI DUP3 SWAP1 SUB PUSH1 0x1F AND DUP3 ADD SWAP2 JUMPDEST POP POP POP POP POP SWAP1 POP SWAP1 JUMP JUMPDEST PUSH1 0x0 PUSH2 0x8F2 DUP3 PUSH2 0x1B07 JUMP JUMPDEST POP PUSH2 0x8FC DUP3 PUSH2 0x1B8F JUMP JUMPDEST SWAP1 POP SWAP2 SWAP1 POP JUMP JUMPDEST PUSH1 0x0 PUSH32 0xDF8B4C520FFE197C5343C6F5AEC59570151EF9A492F2C624FD45DDDE6135EC42 PUSH2 0x92F DUP2 PUSH2 0x1BCC JUMP JUMPDEST PUSH1 0x8 PUSH1 0x0 SWAP1 SLOAD SWAP1 PUSH2 0x100 EXP SWAP1 DIV PUSH20 0xFFFFFFFFFFFFFFFFFFFFFFFFFFFFFFFFFFFFFFFF AND PUSH20 0xFFFFFFFFFFFFFFFFFFFFFFFFFFFFFFFFFFFFFFFF AND PUSH4 0x81BA2D5 DUP5 PUSH1 0x40 MLOAD DUP3 PUSH4 0xFFFFFFFF AND PUSH1 0xE0 SHL DUP2 MSTORE PUSH1 0x4 ADD PUSH2 0x98A SWAP2 SWAP1 PUSH2 0x373A JUMP JUMPDEST PUSH1 0x20 PUSH1 0x40 MLOAD DUP1 DUP4 SUB DUP2 PUSH1 0x0 DUP8 GAS CALL ISZERO DUP1 ISZERO PUSH2 0x9A9 JUMPI RETURNDATASIZE PUSH1 0x0 DUP1 RETURNDATACOPY RETURNDATASIZE PUSH1 0x0 REVERT JUMPDEST POP POP POP POP PUSH1 0x40 MLOAD RETURNDATASIZE PUSH1 0x1F NOT PUSH1 0x1F DUP3 ADD AND DUP3 ADD DUP1 PUSH1 0x40 MSTORE POP DUP2 ADD SWAP1 PUSH2 0x9CD SWAP2 SWAP1 PUSH2 0x42BC JUMP JUMPDEST POP PUSH32 0x188D8CA5695483231734D1734924F73AB34848F997F2DE827C8F73033B4614AE DUP4 TIMESTAMP PUSH1 0x40 MLOAD PUSH2 0x9FF SWAP3 SWAP2 SWAP1 PUSH2 0x42E9 JUMP JUMPDEST PUSH1 0x40 MLOAD DUP1 SWAP2 SUB SWAP1 LOG1 PUSH1 0x1 SWAP2 POP POP SWAP2 SWAP1 POP JUMP JUMPDEST PUSH2 0xA23 DUP3 DUP3 PUSH2 0xA1E PUSH2 0x1BE0 JUMP JUMPDEST PUSH2 0x1BE8 JUMP JUMPDEST POP POP JUMP JUMPDEST PUSH32 0x61E6A4BB6BCA8AA1F17C71895C1AB1BF9C06C812442A0A16AAD9F0837C23CA79 DUP2 JUMP JUMPDEST PUSH1 0x0 PUSH1 0x8 PUSH1 0x0 SWAP1 SLOAD SWAP1 PUSH2 0x100 EXP SWAP1 DIV PUSH20 0xFFFFFFFFFFFFFFFFFFFFFFFFFFFFFFFFFFFFFFFF AND PUSH20 0xFFFFFFFFFFFFFFFFFFFFFFFFFFFFFFFFFFFFFFFF AND PUSH4 0x2027D746 PUSH1 0x40 MLOAD DUP2 PUSH4 0xFFFFFFFF AND PUSH1 0xE0 SHL DUP2 MSTORE PUSH1 0x4 ADD PUSH1 0x20 PUSH1 0x40 MLOAD DUP1 DUP4 SUB DUP2 DUP7 GAS STATICCALL ISZERO DUP1 ISZERO PUSH2 0xABA JUMPI RETURNDATASIZE PUSH1 0x0 DUP1 RETURNDATACOPY RETURNDATASIZE PUSH1 0x0 REVERT JUMPDEST POP POP POP POP PUSH1 0x40 MLOAD RETURNDATASIZE PUSH1 0x1F NOT PUSH1 0x1F DUP3 ADD AND DUP3 ADD DUP1 PUSH1 0x40 MSTORE POP DUP2 ADD SWAP1 PUSH2 0xADE SWAP2 SWAP1 PUSH2 0x4327 JUMP JUMPDEST SWAP1 POP SWAP1 JUMP JUMPDEST PUSH32 0xAF6786EFC154B345802554F1DEA27E60EA4C3393B6B38EB8438E22C20E088BD2 DUP2 JUMP JUMPDEST PUSH1 0x0 PUSH20 0xFFFFFFFFFFFFFFFFFFFFFFFFFFFFFFFFFFFFFFFF AND DUP3 PUSH20 0xFFFFFFFFFFFFFFFFFFFFFFFFFFFFFFFFFFFFFFFF AND SUB PUSH2 0xB79 JUMPI PUSH1 0x0 PUSH1 0x40 MLOAD PUSH32 0x64A0AE9200000000000000000000000000000000000000000000000000000000 DUP2 MSTORE PUSH1 0x4 ADD PUSH2 0xB70 SWAP2 SWAP1 PUSH2 0x373A JUMP JUMPDEST PUSH1 0x40 MLOAD DUP1 SWAP2 SUB SWAP1 REVERT JUMPDEST PUSH1 0x0 PUSH2 0xB8D DUP4 DUP4 PUSH2 0xB88 PUSH2 0x1BE0 JUMP JUMPDEST PUSH2 0x1BFA JUMP JUMPDEST SWAP1 POP DUP4 PUSH20 0xFFFFFFFFFFFFFFFFFFFFFFFFFFFFFFFFFFFFFFFF AND DUP2 PUSH20 0xFFFFFFFFFFFFFFFFFFFFFFFFFFFFFFFFFFFFFFFF AND EQ PUSH2 0xC03 JUMPI DUP4 DUP3 DUP3 PUSH1 0x40 MLOAD PUSH32 0x64283D7B00000000000000000000000000000000000000000000000000000000 DUP2 MSTORE PUSH1 0x4 ADD PUSH2 0xBFA SWAP4 SWAP3 SWAP2 SWAP1 PUSH2 0x4354 JUMP JUMPDEST PUSH1 0x40 MLOAD DUP1 SWAP2 SUB SWAP1 REVERT JUMPDEST POP POP POP POP JUMP JUMPDEST PUSH1 0x0 DUP1 PUSH1 0x0 DUP4 DUP2 MSTORE PUSH1 0x20 ADD SWAP1 DUP2 MSTORE PUSH1 0x20 ADD PUSH1 0x0 KECCAK256 PUSH1 0x1 ADD SLOAD SWAP1 POP SWAP2 SWAP1 POP JUMP JUMPDEST PUSH1 0x0 PUSH32 0xDF8B4C520FFE197C5343C6F5AEC59570151EF9A492F2C624FD45DDDE6135EC42 PUSH2 0xC54 DUP2 PUSH2 0x1BCC JUMP JUMPDEST PUSH1 0x8 PUSH1 0x0 SWAP1 SLOAD SWAP1 PUSH2 0x100 EXP SWAP1 DIV PUSH20 0xFFFFFFFFFFFFFFFFFFFFFFFFFFFFFFFFFFFFFFFF AND PUSH20 0xFFFFFFFFFFFFFFFFFFFFFFFFFFFFFFFFFFFFFFFF AND PUSH4 0x29ACC209 DUP5 PUSH1 0x40 MLOAD DUP3 PUSH4 0xFFFFFFFF AND PUSH1 0xE0 SHL DUP2 MSTORE PUSH1 0x4 ADD PUSH2 0xCAF SWAP2 SWAP1 PUSH2 0x373A JUMP JUMPDEST PUSH1 0x20 PUSH1 0x40 MLOAD DUP1 DUP4 SUB DUP2 PUSH1 0x0 DUP8 GAS CALL ISZERO DUP1 ISZERO PUSH2 0xCCE JUMPI RETURNDATASIZE PUSH1 0x0 DUP1 RETURNDATACOPY RETURNDATASIZE PUSH1 0x0 REVERT JUMPDEST POP POP POP POP PUSH1 0x40 MLOAD RETURNDATASIZE PUSH1 0x1F NOT PUSH1 0x1F DUP3 ADD AND DUP3 ADD DUP1 PUSH1 0x40 MSTORE POP DUP2 ADD SWAP1 PUSH2 0xCF2 SWAP2 SWAP1 PUSH2 0x42BC JUMP JUMPDEST POP PUSH32 0x449422D37AD477A115E35DED9D4971E6ED3594F45DF1408F1EB2320A8BC5C2B8 DUP4 TIMESTAMP PUSH1 0x40 MLOAD PUSH2 0xD24 SWAP3 SWAP2 SWAP1 PUSH2 0x42E9 JUMP JUMPDEST PUSH1 0x40 MLOAD DUP1 SWAP2 SUB SWAP1 LOG1 PUSH1 0x1 SWAP2 POP POP SWAP2 SWAP1 POP JUMP JUMPDEST PUSH32 0xDF8B4C520FFE197C5343C6F5AEC59570151EF9A492F2C624FD45DDDE6135EC42 DUP2 JUMP JUMPDEST PUSH1 0x0 PUSH32 0x61E6A4BB6BCA8AA1F17C71895C1AB1BF9C06C812442A0A16AAD9F0837C23CA79 PUSH2 0xD86 DUP2 PUSH2 0x1BCC JUMP JUMPDEST PUSH1 0x8 PUSH1 0x0 SWAP1 SLOAD SWAP1 PUSH2 0x100 EXP SWAP1 DIV PUSH20 0xFFFFFFFFFFFFFFFFFFFFFFFFFFFFFFFFFFFFFFFF AND PUSH20 0xFFFFFFFFFFFFFFFFFFFFFFFFFFFFFFFFFFFFFFFF AND PUSH4 0xA735E5DE CALLER DUP12 DUP12 DUP12 DUP12 DUP12 DUP12 DUP12 PUSH1 0x40 MLOAD DUP10 PUSH4 0xFFFFFFFF AND PUSH1 0xE0 SHL DUP2 MSTORE PUSH1 0x4 ADD PUSH2 0xDEF SWAP9 SWAP8 SWAP7 SWAP6 SWAP5 SWAP4 SWAP3 SWAP2 SWAP1 PUSH2 0x43B8 JUMP JUMPDEST PUSH1 0x20 PUSH1 0x40 MLOAD DUP1 DUP4 SUB DUP2 PUSH1 0x0 DUP8 GAS CALL ISZERO DUP1 ISZERO PUSH2 0xE0E JUMPI RETURNDATASIZE PUSH1 0x0 DUP1 RETURNDATACOPY RETURNDATASIZE PUSH1 0x0 REVERT JUMPDEST POP POP POP POP PUSH1 0x40 MLOAD RETURNDATASIZE PUSH1 0x1F NOT PUSH1 0x1F DUP3 ADD AND DUP3 ADD DUP1 PUSH1 0x40 MSTORE POP DUP2 ADD SWAP1 PUSH2 0xE32 SWAP2 SWAP1 PUSH2 0x42BC JUMP JUMPDEST POP PUSH32 0xC21195A7F73ACB0112D9942F6C5C02ACC3D8D2C74AB81A6C28F4F492DAC933B8 CALLER TIMESTAMP PUSH1 0x40 MLOAD PUSH2 0xE64 SWAP3 SWAP2 SWAP1 PUSH2 0x42E9 JUMP JUMPDEST PUSH1 0x40 MLOAD DUP1 SWAP2 SUB SWAP1 LOG1 PUSH1 0x1 SWAP2 POP POP SWAP8 SWAP7 POP POP POP POP POP POP POP JUMP JUMPDEST PUSH2 0xE85 DUP3 PUSH2 0xC09 JUMP JUMPDEST PUSH2 0xE8E DUP2 PUSH2 0x1BCC JUMP JUMPDEST PUSH2 0xE98 DUP4 DUP4 PUSH2 0x1C10 JUMP JUMPDEST POP POP POP POP JUMP JUMPDEST PUSH2 0xEA6 PUSH2 0x1BE0 JUMP JUMPDEST PUSH20 0xFFFFFFFFFFFFFFFFFFFFFFFFFFFFFFFFFFFFFFFF AND DUP2 PUSH20 0xFFFFFFFFFFFFFFFFFFFFFFFFFFFFFFFFFFFFFFFF AND EQ PUSH2 0xF0A JUMPI PUSH1 0x40 MLOAD PUSH32 0x6697B23200000000000000000000000000000000000000000000000000000000 DUP2 MSTORE PUSH1 0x4 ADD PUSH1 0x40 MLOAD DUP1 SWAP2 SUB SWAP1 REVERT JUMPDEST PUSH2 0xF14 DUP3 DUP3 PUSH2 0x1D01 JUMP JUMPDEST POP POP POP JUMP JUMPDEST PUSH1 0x0 DUP1 PUSH1 0x7 PUSH1 0x0 DUP2 SLOAD DUP1 SWAP3 SWAP2 SWAP1 PUSH2 0xF2F SWAP1 PUSH2 0x4455 JUMP JUMPDEST SWAP2 SWAP1 POP SSTORE SWAP1 POP PUSH2 0xF3F DUP4 DUP3 PUSH2 0x1DF3 JUMP JUMPDEST DUP1 SWAP2 POP POP SWAP2 SWAP1 POP JUMP JUMPDEST PUSH1 0x0 PUSH32 0x61E6A4BB6BCA8AA1F17C71895C1AB1BF9C06C812442A0A16AAD9F0837C23CA79 PUSH2 0xF74 DUP2 PUSH2 0x1BCC JUMP JUMPDEST PUSH1 0x8 PUSH1 0x0 SWAP1 SLOAD SWAP1 PUSH2 0x100 EXP SWAP1 DIV PUSH20 0xFFFFFFFFFFFFFFFFFFFFFFFFFFFFFFFFFFFFFFFF AND PUSH20 0xFFFFFFFFFFFFFFFFFFFFFFFFFFFFFFFFFFFFFFFF AND PUSH4 0x64DF69E7 DUP15 DUP15 DUP15 DUP15 DUP15 DUP15 DUP15 DUP15 DUP15 DUP15 DUP15 PUSH1 0x40 MLOAD DUP13 PUSH4 0xFFFFFFFF AND PUSH1 0xE0 SHL DUP2 MSTORE PUSH1 0x4 ADD PUSH2 0xFE3 SWAP12 SWAP11 SWAP10 SWAP9 SWAP8 SWAP7 SWAP6 SWAP5 SWAP4 SWAP3 SWAP2 SWAP1 PUSH2 0x462E JUMP JUMPDEST PUSH1 0x20 PUSH1 0x40 MLOAD DUP1 DUP4 SUB DUP2 PUSH1 0x0 DUP8 GAS CALL ISZERO DUP1 ISZERO PUSH2 0x1002 JUMPI RETURNDATASIZE PUSH1 0x0 DUP1 RETURNDATACOPY RETURNDATASIZE PUSH1 0x0 REVERT JUMPDEST POP POP POP POP PUSH1 0x40 MLOAD RETURNDATASIZE PUSH1 0x1F NOT PUSH1 0x1F DUP3 ADD AND DUP3 ADD DUP1 PUSH1 0x40 MSTORE POP DUP2 ADD SWAP1 PUSH2 0x1026 SWAP2 SWAP1 PUSH2 0x42BC JUMP JUMPDEST POP PUSH2 0x1033 CALLER PUSH1 0x7 SLOAD PUSH2 0x1DF3 JUMP JUMPDEST PUSH1 0x1 SWAP2 POP POP SWAP12 SWAP11 POP POP POP POP POP POP POP POP POP POP POP JUMP JUMPDEST PUSH2 0x1062 DUP4 DUP4 DUP4 PUSH1 0x40 MLOAD DUP1 PUSH1 0x20 ADD PUSH1 0x40 MSTORE DUP1 PUSH1 0x0 DUP2 MSTORE POP PUSH2 0x16EB JUMP JUMPDEST POP POP POP JUMP JUMPDEST PUSH1 0x0 DUP2 JUMP JUMPDEST PUSH1 0x0 PUSH2 0x1098 PUSH32 0xAF6786EFC154B345802554F1DEA27E60EA4C3393B6B38EB8438E22C20E088BD2 CALLER PUSH2 0x1597 JUMP JUMPDEST ISZERO PUSH2 0x10CF JUMPI PUSH1 0x40 MLOAD PUSH32 0x937DF23900000000000000000000000000000000000000000000000000000000 DUP2 MSTORE PUSH1 0x4 ADD PUSH1 0x40 MLOAD DUP1 SWAP2 SUB SWAP1 REVERT JUMPDEST PUSH2 0x10F9 PUSH32 0xAF6786EFC154B345802554F1DEA27E60EA4C3393B6B38EB8438E22C20E088BD2 CALLER PUSH2 0x1C10 JUMP JUMPDEST POP PUSH1 0x8 PUSH1 0x0 SWAP1 SLOAD SWAP1 PUSH2 0x100 EXP SWAP1 DIV PUSH20 0xFFFFFFFFFFFFFFFFFFFFFFFFFFFFFFFFFFFFFFFF AND PUSH20 0xFFFFFFFFFFFFFFFFFFFFFFFFFFFFFFFFFFFFFFFF AND PUSH4 0xF6A3540 CALLER DUP10 DUP10 DUP10 DUP10 DUP10 DUP10 PUSH1 0x1 PUSH1 0x40 MLOAD DUP10 PUSH4 0xFFFFFFFF AND PUSH1 0xE0 SHL DUP2 MSTORE PUSH1 0x4 ADD PUSH2 0x1164 SWAP9 SWAP8 SWAP7 SWAP6 SWAP5 SWAP4 SWAP3 SWAP2 SWAP1 PUSH2 0x43B8 JUMP JUMPDEST PUSH1 0x20 PUSH1 0x40 MLOAD DUP1 DUP4 SUB DUP2 PUSH1 0x0 DUP8 GAS CALL ISZERO DUP1 ISZERO PUSH2 0x1183 JUMPI RETURNDATASIZE PUSH1 0x0 DUP1 RETURNDATACOPY RETURNDATASIZE PUSH1 0x0 REVERT JUMPDEST POP POP POP POP PUSH1 0x40 MLOAD RETURNDATASIZE PUSH1 0x1F NOT PUSH1 0x1F DUP3 ADD AND DUP3 ADD DUP1 PUSH1 0x40 MSTORE POP DUP2 ADD SWAP1 PUSH2 0x11A7 SWAP2 SWAP1 PUSH2 0x42BC JUMP JUMPDEST POP PUSH32 0x9355F2BA77852E61793679FF03CF26231B8175FDFB97DC47490F1B151E6AB0D4 CALLER TIMESTAMP PUSH1 0x40 MLOAD PUSH2 0x11D9 SWAP3 SWAP2 SWAP1 PUSH2 0x42E9 JUMP JUMPDEST PUSH1 0x40 MLOAD DUP1 SWAP2 SUB SWAP1 LOG1 PUSH1 0x1 SWAP1 POP SWAP7 SWAP6 POP POP POP POP POP POP JUMP JUMPDEST PUSH1 0x0 PUSH2 0x121B PUSH32 0x61E6A4BB6BCA8AA1F17C71895C1AB1BF9C06C812442A0A16AAD9F0837C23CA79 CALLER PUSH2 0x1597 JUMP JUMPDEST ISZERO PUSH2 0x1252 JUMPI PUSH1 0x40 MLOAD PUSH32 0x9E5AE09300000000000000000000000000000000000000000000000000000000 DUP2 MSTORE PUSH1 0x4 ADD PUSH1 0x40 MLOAD DUP1 SWAP2 SUB SWAP1 REVERT JUMPDEST PUSH2 0x127C PUSH32 0x61E6A4BB6BCA8AA1F17C71895C1AB1BF9C06C812442A0A16AAD9F0837C23CA79 CALLER PUSH2 0x1C10 JUMP JUMPDEST POP PUSH1 0x8 PUSH1 0x0 SWAP1 SLOAD SWAP1 PUSH2 0x100 EXP SWAP1 DIV PUSH20 0xFFFFFFFFFFFFFFFFFFFFFFFFFFFFFFFFFFFFFFFF AND PUSH20 0xFFFFFFFFFFFFFFFFFFFFFFFFFFFFFFFFFFFFFFFF AND PUSH4 0x7208CA19 CALLER DUP10 DUP10 DUP10 DUP10 DUP10 DUP10 PUSH1 0x0 PUSH1 0x1 PUSH1 0x40 MLOAD DUP11 PUSH4 0xFFFFFFFF AND PUSH1 0xE0 SHL DUP2 MSTORE PUSH1 0x4 ADD PUSH2 0x12EA SWAP10 SWAP9 SWAP8 SWAP7 SWAP6 SWAP5 SWAP4 SWAP3 SWAP2 SWAP1 PUSH2 0x46C1 JUMP JUMPDEST PUSH1 0x20 PUSH1 0x40 MLOAD DUP1 DUP4 SUB DUP2 PUSH1 0x0 DUP8 GAS CALL ISZERO DUP1 ISZERO PUSH2 0x1309 JUMPI RETURNDATASIZE PUSH1 0x0 DUP1 RETURNDATACOPY RETURNDATASIZE PUSH1 0x0 REVERT JUMPDEST POP POP POP POP PUSH1 0x40 MLOAD RETURNDATASIZE PUSH1 0x1F NOT PUSH1 0x1F DUP3 ADD AND DUP3 ADD DUP1 PUSH1 0x40 MSTORE POP DUP2 ADD SWAP1 PUSH2 0x132D SWAP2 SWAP1 PUSH2 0x42BC JUMP JUMPDEST POP PUSH32 0xA12ABD8201760A4E094635A878D94E4E31EE41204057E1BA4081B4C8BA7DF8A8 CALLER TIMESTAMP PUSH1 0x40 MLOAD PUSH2 0x135F SWAP3 SWAP2 SWAP1 PUSH2 0x42E9 JUMP JUMPDEST PUSH1 0x40 MLOAD DUP1 SWAP2 SUB SWAP1 LOG1 PUSH1 0x1 SWAP1 POP SWAP7 SWAP6 POP POP POP POP POP POP JUMP JUMPDEST PUSH2 0x137D PUSH2 0x348D JUMP JUMPDEST PUSH1 0x8 PUSH1 0x0 SWAP1 SLOAD SWAP1 PUSH2 0x100 EXP SWAP1 DIV PUSH20 0xFFFFFFFFFFFFFFFFFFFFFFFFFFFFFFFFFFFFFFFF AND PUSH20 0xFFFFFFFFFFFFFFFFFFFFFFFFFFFFFFFFFFFFFFFF AND PUSH4 0x57A00CCF DUP4 PUSH1 0x40 MLOAD DUP3 PUSH4 0xFFFFFFFF AND PUSH1 0xE0 SHL DUP2 MSTORE PUSH1 0x4 ADD PUSH2 0x13D8 SWAP2 SWAP1 PUSH2 0x373A JUMP JUMPDEST PUSH1 0x0 PUSH1 0x40 MLOAD DUP1 DUP4 SUB DUP2 DUP7 GAS STATICCALL ISZERO DUP1 ISZERO PUSH2 0x13F5 JUMPI RETURNDATASIZE PUSH1 0x0 DUP1 RETURNDATACOPY RETURNDATASIZE PUSH1 0x0 REVERT JUMPDEST POP POP POP POP PUSH1 0x40 MLOAD RETURNDATASIZE PUSH1 0x0 DUP3 RETURNDATACOPY RETURNDATASIZE PUSH1 0x1F NOT PUSH1 0x1F DUP3 ADD AND DUP3 ADD DUP1 PUSH1 0x40 MSTORE POP DUP2 ADD SWAP1 PUSH2 0x141E SWAP2 SWAP1 PUSH2 0x49E5 JUMP JUMPDEST SWAP1 POP SWAP2 SWAP1 POP JUMP JUMPDEST PUSH1 0x1 DUP2 JUMP JUMPDEST PUSH1 0x0 PUSH2 0x1435 DUP3 PUSH2 0x1B07 JUMP JUMPDEST SWAP1 POP SWAP2 SWAP1 POP JUMP JUMPDEST PUSH1 0x0 DUP1 PUSH20 0xFFFFFFFFFFFFFFFFFFFFFFFFFFFFFFFFFFFFFFFF AND DUP3 PUSH20 0xFFFFFFFFFFFFFFFFFFFFFFFFFFFFFFFFFFFFFFFF AND SUB PUSH2 0x14AF JUMPI PUSH1 0x0 PUSH1 0x40 MLOAD PUSH32 0x89C62B6400000000000000000000000000000000000000000000000000000000 DUP2 MSTORE PUSH1 0x4 ADD PUSH2 0x14A6 SWAP2 SWAP1 PUSH2 0x373A JUMP JUMPDEST PUSH1 0x40 MLOAD DUP1 SWAP2 SUB SWAP1 REVERT JUMPDEST PUSH1 0x4 PUSH1 0x0 DUP4 PUSH20 0xFFFFFFFFFFFFFFFFFFFFFFFFFFFFFFFFFFFFFFFF AND PUSH20 0xFFFFFFFFFFFFFFFFFFFFFFFFFFFFFFFFFFFFFFFF AND DUP2 MSTORE PUSH1 0x20 ADD SWAP1 DUP2 MSTORE PUSH1 0x20 ADD PUSH1 0x0 KECCAK256 SLOAD SWAP1 POP SWAP2 SWAP1 POP JUMP JUMPDEST PUSH1 0x0 PUSH1 0x1 SWAP1 POP SWAP1 JUMP JUMPDEST PUSH1 0x0 PUSH1 0x8 PUSH1 0x0 SWAP1 SLOAD SWAP1 PUSH2 0x100 EXP SWAP1 DIV PUSH20 0xFFFFFFFFFFFFFFFFFFFFFFFFFFFFFFFFFFFFFFFF AND PUSH20 0xFFFFFFFFFFFFFFFFFFFFFFFFFFFFFFFFFFFFFFFF AND PUSH4 0x8C271777 PUSH1 0x40 MLOAD DUP2 PUSH4 0xFFFFFFFF AND PUSH1 0xE0 SHL DUP2 MSTORE PUSH1 0x4 ADD PUSH1 0x20 PUSH1 0x40 MLOAD DUP1 DUP4 SUB DUP2 DUP7 GAS STATICCALL ISZERO DUP1 ISZERO PUSH2 0x156E JUMPI RETURNDATASIZE PUSH1 0x0 DUP1 RETURNDATACOPY RETURNDATASIZE PUSH1 0x0 REVERT JUMPDEST POP POP POP POP PUSH1 0x40 MLOAD RETURNDATASIZE PUSH1 0x1F NOT PUSH1 0x1F DUP3 ADD AND DUP3 ADD DUP1 PUSH1 0x40 MSTORE POP DUP2 ADD SWAP1 PUSH2 0x1592 SWAP2 SWAP1 PUSH2 0x4327 JUMP JUMPDEST SWAP1 POP SWAP1 JUMP JUMPDEST PUSH1 0x0 DUP1 PUSH1 0x0 DUP5 DUP2 MSTORE PUSH1 0x20 ADD SWAP1 DUP2 MSTORE PUSH1 0x20 ADD PUSH1 0x0 KECCAK256 PUSH1 0x0 ADD PUSH1 0x0 DUP4 PUSH20 0xFFFFFFFFFFFFFFFFFFFFFFFFFFFFFFFFFFFFFFFF AND PUSH20 0xFFFFFFFFFFFFFFFFFFFFFFFFFFFFFFFFFFFFFFFF AND DUP2 MSTORE PUSH1 0x20 ADD SWAP1 DUP2 MSTORE PUSH1 0x20 ADD PUSH1 0x0 KECCAK256 PUSH1 0x0 SWAP1 SLOAD SWAP1 PUSH2 0x100 EXP SWAP1 DIV PUSH1 0xFF AND SWAP1 POP SWAP3 SWAP2 POP POP JUMP JUMPDEST PUSH32 0x8C6AE1B8CAC4C99AC9B51BA2B44EC85E94139863FA8D7F1AB8F7E39763B3DB4E DUP2 JUMP JUMPDEST PUSH1 0x60 PUSH1 0x2 DUP1 SLOAD PUSH2 0x1634 SWAP1 PUSH2 0x4276 JUMP JUMPDEST DUP1 PUSH1 0x1F ADD PUSH1 0x20 DUP1 SWAP2 DIV MUL PUSH1 0x20 ADD PUSH1 0x40 MLOAD SWAP1 DUP2 ADD PUSH1 0x40 MSTORE DUP1 SWAP3 SWAP2 SWAP1 DUP2 DUP2 MSTORE PUSH1 0x20 ADD DUP3 DUP1 SLOAD PUSH2 0x1660 SWAP1 PUSH2 0x4276 JUMP JUMPDEST DUP1 ISZERO PUSH2 0x16AD JUMPI DUP1 PUSH1 0x1F LT PUSH2 0x1682 JUMPI PUSH2 0x100 DUP1 DUP4 SLOAD DIV MUL DUP4 MSTORE SWAP2 PUSH1 0x20 ADD SWAP2 PUSH2 0x16AD JUMP JUMPDEST DUP3 ADD SWAP2 SWAP1 PUSH1 0x0 MSTORE PUSH1 0x20 PUSH1 0x0 KECCAK256 SWAP1 JUMPDEST DUP2 SLOAD DUP2 MSTORE SWAP1 PUSH1 0x1 ADD SWAP1 PUSH1 0x20 ADD DUP1 DUP4 GT PUSH2 0x1690 JUMPI DUP3 SWAP1 SUB PUSH1 0x1F AND DUP3 ADD SWAP2 JUMPDEST POP POP POP POP POP SWAP1 POP SWAP1 JUMP JUMPDEST PUSH1 0x0 DUP1 SHL DUP2 JUMP JUMPDEST PUSH2 0x16D0 PUSH2 0x16C9 PUSH2 0x1BE0 JUMP JUMPDEST DUP4 DUP4 PUSH2 0x1E11 JUMP JUMPDEST POP POP JUMP JUMPDEST PUSH1 0x0 PUSH2 0x16E1 CALLER DUP5 DUP5 PUSH2 0x1F80 JUMP JUMPDEST PUSH1 0x1 SWAP1 POP SWAP3 SWAP2 POP POP JUMP JUMPDEST PUSH2 0x16F6 DUP5 DUP5 DUP5 PUSH2 0xB07 JUMP JUMPDEST PUSH2 0x170A PUSH2 0x1701 PUSH2 0x1BE0 JUMP JUMPDEST DUP6 DUP6 DUP6 DUP6 PUSH2 0x20ED JUMP JUMPDEST POP POP POP POP JUMP JUMPDEST PUSH1 0x60 PUSH1 0x7 SLOAD DUP3 LT PUSH2 0x174D JUMPI PUSH1 0x40 MLOAD PUSH32 0xCEEA21B600000000000000000000000000000000000000000000000000000000 DUP2 MSTORE PUSH1 0x4 ADD PUSH1 0x40 MLOAD DUP1 SWAP2 SUB SWAP1 REVERT JUMPDEST PUSH1 0x40 MLOAD DUP1 PUSH1 0x40 ADD PUSH1 0x40 MSTORE DUP1 PUSH1 0x1D DUP2 MSTORE PUSH1 0x20 ADD PUSH32 0x646174613A6170706C69636174696F6E2F6A736F6E3B6261736536342C000000 DUP2 MSTORE POP PUSH2 0x1820 PUSH1 0x40 MLOAD DUP1 PUSH1 0x60 ADD PUSH1 0x40 MSTORE DUP1 PUSH1 0x25 DUP2 MSTORE PUSH1 0x20 ADD PUSH2 0x5811 PUSH1 0x25 SWAP2 CODECOPY PUSH2 0x17A8 DUP6 PUSH2 0x229E JUMP JUMPDEST PUSH2 0x17B1 DUP7 PUSH2 0x236C JUMP JUMPDEST PUSH2 0x17C2 PUSH2 0x17BD DUP9 PUSH2 0x2579 JUMP JUMPDEST PUSH2 0x28CE JUMP JUMPDEST PUSH1 0x40 MLOAD DUP1 PUSH1 0x40 ADD PUSH1 0x40 MSTORE DUP1 PUSH1 0x2 DUP2 MSTORE PUSH1 0x20 ADD PUSH32 0x227D000000000000000000000000000000000000000000000000000000000000 DUP2 MSTORE POP PUSH1 0x40 MLOAD PUSH1 0x20 ADD PUSH2 0x180C SWAP6 SWAP5 SWAP4 SWAP3 SWAP2 SWAP1 PUSH2 0x4A6A JUMP JUMPDEST PUSH1 0x40 MLOAD PUSH1 0x20 DUP2 DUP4 SUB SUB DUP2 MSTORE SWAP1 PUSH1 0x40 MSTORE PUSH2 0x28CE JUMP JUMPDEST PUSH1 0x40 MLOAD PUSH1 0x20 ADD PUSH2 0x1831 SWAP3 SWAP2 SWAP1 PUSH2 0x4AB5 JUMP JUMPDEST PUSH1 0x40 MLOAD PUSH1 0x20 DUP2 DUP4 SUB SUB DUP2 MSTORE SWAP1 PUSH1 0x40 MSTORE SWAP1 POP SWAP2 SWAP1 POP JUMP JUMPDEST PUSH2 0x1850 DUP3 PUSH2 0xC09 JUMP JUMPDEST PUSH2 0x1859 DUP2 PUSH2 0x1BCC JUMP JUMPDEST PUSH2 0x1863 DUP4 DUP4 PUSH2 0x1D01 JUMP JUMPDEST POP POP POP POP JUMP JUMPDEST PUSH1 0x0 PUSH1 0x6 PUSH1 0x0 DUP5 PUSH20 0xFFFFFFFFFFFFFFFFFFFFFFFFFFFFFFFFFFFFFFFF AND PUSH20 0xFFFFFFFFFFFFFFFFFFFFFFFFFFFFFFFFFFFFFFFF AND DUP2 MSTORE PUSH1 0x20 ADD SWAP1 DUP2 MSTORE PUSH1 0x20 ADD PUSH1 0x0 KECCAK256 PUSH1 0x0 DUP4 PUSH20 0xFFFFFFFFFFFFFFFFFFFFFFFFFFFFFFFFFFFFFFFF AND PUSH20 0xFFFFFFFFFFFFFFFFFFFFFFFFFFFFFFFFFFFFFFFF AND DUP2 MSTORE PUSH1 0x20 ADD SWAP1 DUP2 MSTORE PUSH1 0x20 ADD PUSH1 0x0 KECCAK256 PUSH1 0x0 SWAP1 SLOAD SWAP1 PUSH2 0x100 EXP SWAP1 DIV PUSH1 0xFF AND SWAP1 POP SWAP3 SWAP2 POP POP JUMP JUMPDEST PUSH2 0x1905 PUSH2 0x34D6 JUMP JUMPDEST PUSH1 0x8 PUSH1 0x0 SWAP1 SLOAD SWAP1 PUSH2 0x100 EXP SWAP1 DIV PUSH20 0xFFFFFFFFFFFFFFFFFFFFFFFFFFFFFFFFFFFFFFFF AND PUSH20 0xFFFFFFFFFFFFFFFFFFFFFFFFFFFFFFFFFFFFFFFF AND PUSH4 0xEE7BF0EE DUP4 PUSH1 0x40 MLOAD DUP3 PUSH4 0xFFFFFFFF AND PUSH1 0xE0 SHL DUP2 MSTORE PUSH1 0x4 ADD PUSH2 0x1960 SWAP2 SWAP1 PUSH2 0x373A JUMP JUMPDEST PUSH1 0x0 PUSH1 0x40 MLOAD DUP1 DUP4 SUB DUP2 DUP7 GAS STATICCALL ISZERO DUP1 ISZERO PUSH2 0x197D JUMPI RETURNDATASIZE PUSH1 0x0 DUP1 RETURNDATACOPY RETURNDATASIZE PUSH1 0x0 REVERT JUMPDEST POP POP POP POP PUSH1 0x40 MLOAD RETURNDATASIZE PUSH1 0x0 DUP3 RETURNDATACOPY RETURNDATASIZE PUSH1 0x1F NOT PUSH1 0x1F DUP3 ADD AND DUP3 ADD DUP1 PUSH1 0x40 MSTORE POP DUP2 ADD SWAP1 PUSH2 0x19A6 SWAP2 SWAP1 PUSH2 0x4BFD JUMP JUMPDEST SWAP1 POP SWAP2 SWAP1 POP JUMP JUMPDEST PUSH1 0x0 PUSH32 0xAF6786EFC154B345802554F1DEA27E60EA4C3393B6B38EB8438E22C20E088BD2 PUSH2 0x19D9 DUP2 PUSH2 0x1BCC JUMP JUMPDEST PUSH1 0x8 PUSH1 0x0 SWAP1 SLOAD SWAP1 PUSH2 0x100 EXP SWAP1 DIV PUSH20 0xFFFFFFFFFFFFFFFFFFFFFFFFFFFFFFFFFFFFFFFF AND PUSH20 0xFFFFFFFFFFFFFFFFFFFFFFFFFFFFFFFFFFFFFFFF AND PUSH4 0xDFD49F25 CALLER DUP12 DUP12 DUP12 DUP12 DUP12 DUP12 DUP12 PUSH1 0x40 MLOAD DUP10 PUSH4 0xFFFFFFFF AND PUSH1 0xE0 SHL DUP2 MSTORE PUSH1 0x4 ADD PUSH2 0x1A42 SWAP9 SWAP8 SWAP7 SWAP6 SWAP5 SWAP4 SWAP3 SWAP2 SWAP1 PUSH2 0x43B8 JUMP JUMPDEST PUSH1 0x20 PUSH1 0x40 MLOAD DUP1 DUP4 SUB DUP2 PUSH1 0x0 DUP8 GAS CALL ISZERO DUP1 ISZERO PUSH2 0x1A61 JUMPI RETURNDATASIZE PUSH1 0x0 DUP1 RETURNDATACOPY RETURNDATASIZE PUSH1 0x0 REVERT JUMPDEST POP POP POP POP PUSH1 0x40 MLOAD RETURNDATASIZE PUSH1 0x1F NOT PUSH1 0x1F DUP3 ADD AND DUP3 ADD DUP1 PUSH1 0x40 MSTORE POP DUP2 ADD SWAP1 PUSH2 0x1A85 SWAP2 SWAP1 PUSH2 0x42BC JUMP JUMPDEST POP PUSH32 0x3E981D6FD4C5BD91EF3F68CA28A36322130D52221AB7319AE700E4C417DCC8E3 CALLER TIMESTAMP PUSH1 0x40 MLOAD PUSH2 0x1AB7 SWAP3 SWAP2 SWAP1 PUSH2 0x42E9 JUMP JUMPDEST PUSH1 0x40 MLOAD DUP1 SWAP2 SUB SWAP1 LOG1 PUSH1 0x1 SWAP2 POP POP SWAP8 SWAP7 POP POP POP POP POP POP POP JUMP JUMPDEST PUSH1 0x9 PUSH1 0x0 SWAP1 SLOAD SWAP1 PUSH2 0x100 EXP SWAP1 DIV PUSH20 0xFFFFFFFFFFFFFFFFFFFFFFFFFFFFFFFFFFFFFFFF AND DUP2 JUMP JUMPDEST PUSH1 0x0 PUSH2 0x1B00 DUP3 PUSH2 0x2A65 JUMP JUMPDEST SWAP1 POP SWAP2 SWAP1 POP JUMP JUMPDEST PUSH1 0x0 DUP1 PUSH2 0x1B13 DUP4 PUSH2 0x2B47 JUMP JUMPDEST SWAP1 POP PUSH1 0x0 PUSH20 0xFFFFFFFFFFFFFFFFFFFFFFFFFFFFFFFFFFFFFFFF AND DUP2 PUSH20 0xFFFFFFFFFFFFFFFFFFFFFFFFFFFFFFFFFFFFFFFF AND SUB PUSH2 0x1B86 JUMPI DUP3 PUSH1 0x40 MLOAD PUSH32 0x7E27328900000000000000000000000000000000000000000000000000000000 DUP2 MSTORE PUSH1 0x4 ADD PUSH2 0x1B7D SWAP2 SWAP1 PUSH2 0x3831 JUMP JUMPDEST PUSH1 0x40 MLOAD DUP1 SWAP2 SUB SWAP1 REVERT JUMPDEST DUP1 SWAP2 POP POP SWAP2 SWAP1 POP JUMP JUMPDEST PUSH1 0x0 PUSH1 0x5 PUSH1 0x0 DUP4 DUP2 MSTORE PUSH1 0x20 ADD SWAP1 DUP2 MSTORE PUSH1 0x20 ADD PUSH1 0x0 KECCAK256 PUSH1 0x0 SWAP1 SLOAD SWAP1 PUSH2 0x100 EXP SWAP1 DIV PUSH20 0xFFFFFFFFFFFFFFFFFFFFFFFFFFFFFFFFFFFFFFFF AND SWAP1 POP SWAP2 SWAP1 POP JUMP JUMPDEST PUSH2 0x1BDD DUP2 PUSH2 0x1BD8 PUSH2 0x1BE0 JUMP JUMPDEST PUSH2 0x2B84 JUMP JUMPDEST POP JUMP JUMPDEST PUSH1 0x0 CALLER SWAP1 POP SWAP1 JUMP JUMPDEST PUSH2 0x1BF5 DUP4 DUP4 DUP4 PUSH1 0x1 PUSH2 0x2BD5 JUMP JUMPDEST POP POP POP JUMP JUMPDEST PUSH1 0x0 PUSH2 0x1C07 DUP5 DUP5 DUP5 PUSH2 0x2D9A JUMP JUMPDEST SWAP1 POP SWAP4 SWAP3 POP POP POP JUMP JUMPDEST PUSH1 0x0 PUSH2 0x1C1C DUP4 DUP4 PUSH2 0x1597 JUMP JUMPDEST PUSH2 0x1CF6 JUMPI PUSH1 0x1 PUSH1 0x0 DUP1 DUP6 DUP2 MSTORE PUSH1 0x20 ADD SWAP1 DUP2 MSTORE PUSH1 0x20 ADD PUSH1 0x0 KECCAK256 PUSH1 0x0 ADD PUSH1 0x0 DUP5 PUSH20 0xFFFFFFFFFFFFFFFFFFFFFFFFFFFFFFFFFFFFFFFF AND PUSH20 0xFFFFFFFFFFFFFFFFFFFFFFFFFFFFFFFFFFFFFFFF AND DUP2 MSTORE PUSH1 0x20 ADD SWAP1 DUP2 MSTORE PUSH1 0x20 ADD PUSH1 0x0 KECCAK256 PUSH1 0x0 PUSH2 0x100 EXP DUP2 SLOAD DUP2 PUSH1 0xFF MUL NOT AND SWAP1 DUP4 ISZERO ISZERO MUL OR SWAP1 SSTORE POP PUSH2 0x1C93 PUSH2 0x1BE0 JUMP JUMPDEST PUSH20 0xFFFFFFFFFFFFFFFFFFFFFFFFFFFFFFFFFFFFFFFF AND DUP3 PUSH20 0xFFFFFFFFFFFFFFFFFFFFFFFFFFFFFFFFFFFFFFFF AND DUP5 PUSH32 0x2F8788117E7EFF1D82E926EC794901D17C78024A50270940304540A733656F0D PUSH1 0x40 MLOAD PUSH1 0x40 MLOAD DUP1 SWAP2 SUB SWAP1 LOG4 PUSH1 0x1 SWAP1 POP PUSH2 0x1CFB JUMP JUMPDEST PUSH1 0x0 SWAP1 POP JUMPDEST SWAP3 SWAP2 POP POP JUMP JUMPDEST PUSH1 0x0 PUSH2 0x1D0D DUP4 DUP4 PUSH2 0x1597 JUMP JUMPDEST ISZERO PUSH2 0x1DE8 JUMPI PUSH1 0x0 DUP1 PUSH1 0x0 DUP6 DUP2 MSTORE PUSH1 0x20 ADD SWAP1 DUP2 MSTORE PUSH1 0x20 ADD PUSH1 0x0 KECCAK256 PUSH1 0x0 ADD PUSH1 0x0 DUP5 PUSH20 0xFFFFFFFFFFFFFFFFFFFFFFFFFFFFFFFFFFFFFFFF AND PUSH20 0xFFFFFFFFFFFFFFFFFFFFFFFFFFFFFFFFFFFFFFFF AND DUP2 MSTORE PUSH1 0x20 ADD SWAP1 DUP2 MSTORE PUSH1 0x20 ADD PUSH1 0x0 KECCAK256 PUSH1 0x0 PUSH2 0x100 EXP DUP2 SLOAD DUP2 PUSH1 0xFF MUL NOT AND SWAP1 DUP4 ISZERO ISZERO MUL OR SWAP1 SSTORE POP PUSH2 0x1D85 PUSH2 0x1BE0 JUMP JUMPDEST PUSH20 0xFFFFFFFFFFFFFFFFFFFFFFFFFFFFFFFFFFFFFFFF AND DUP3 PUSH20 0xFFFFFFFFFFFFFFFFFFFFFFFFFFFFFFFFFFFFFFFF AND DUP5 PUSH32 0xF6391F5C32D9C69D2A47EA670B442974B53935D1EDC7FD64EB21E047A839171B PUSH1 0x40 MLOAD PUSH1 0x40 MLOAD DUP1 SWAP2 SUB SWAP1 LOG4 PUSH1 0x1 SWAP1 POP PUSH2 0x1DED JUMP JUMPDEST PUSH1 0x0 SWAP1 POP JUMPDEST SWAP3 SWAP2 POP POP JUMP JUMPDEST PUSH2 0x1E0D DUP3 DUP3 PUSH1 0x40 MLOAD DUP1 PUSH1 0x20 ADD PUSH1 0x40 MSTORE DUP1 PUSH1 0x0 DUP2 MSTORE POP PUSH2 0x2FB4 JUMP JUMPDEST POP POP JUMP JUMPDEST PUSH1 0x0 PUSH20 0xFFFFFFFFFFFFFFFFFFFFFFFFFFFFFFFFFFFFFFFF AND DUP3 PUSH20 0xFFFFFFFFFFFFFFFFFFFFFFFFFFFFFFFFFFFFFFFF AND SUB PUSH2 0x1E82 JUMPI DUP2 PUSH1 0x40 MLOAD PUSH32 0x5B08BA1800000000000000000000000000000000000000000000000000000000 DUP2 MSTORE PUSH1 0x4 ADD PUSH2 0x1E79 SWAP2 SWAP1 PUSH2 0x373A JUMP JUMPDEST PUSH1 0x40 MLOAD DUP1 SWAP2 SUB SWAP1 REVERT JUMPDEST DUP1 PUSH1 0x6 PUSH1 0x0 DUP6 PUSH20 0xFFFFFFFFFFFFFFFFFFFFFFFFFFFFFFFFFFFFFFFF AND PUSH20 0xFFFFFFFFFFFFFFFFFFFFFFFFFFFFFFFFFFFFFFFF AND DUP2 MSTORE PUSH1 0x20 ADD SWAP1 DUP2 MSTORE PUSH1 0x20 ADD PUSH1 0x0 KECCAK256 PUSH1 0x0 DUP5 PUSH20 0xFFFFFFFFFFFFFFFFFFFFFFFFFFFFFFFFFFFFFFFF AND PUSH20 0xFFFFFFFFFFFFFFFFFFFFFFFFFFFFFFFFFFFFFFFF AND DUP2 MSTORE PUSH1 0x20 ADD SWAP1 DUP2 MSTORE PUSH1 0x20 ADD PUSH1 0x0 KECCAK256 PUSH1 0x0 PUSH2 0x100 EXP DUP2 SLOAD DUP2 PUSH1 0xFF MUL NOT AND SWAP1 DUP4 ISZERO ISZERO MUL OR SWAP1 SSTORE POP DUP2 PUSH20 0xFFFFFFFFFFFFFFFFFFFFFFFFFFFFFFFFFFFFFFFF AND DUP4 PUSH20 0xFFFFFFFFFFFFFFFFFFFFFFFFFFFFFFFFFFFFFFFF AND PUSH32 0x17307EAB39AB6107E8899845AD3D59BD9653F200F220920489CA2B5937696C31 DUP4 PUSH1 0x40 MLOAD PUSH2 0x1F73 SWAP2 SWAP1 PUSH2 0x35C9 JUMP JUMPDEST PUSH1 0x40 MLOAD DUP1 SWAP2 SUB SWAP1 LOG3 POP POP POP JUMP JUMPDEST PUSH1 0x0 PUSH20 0xFFFFFFFFFFFFFFFFFFFFFFFFFFFFFFFFFFFFFFFF AND DUP3 PUSH20 0xFFFFFFFFFFFFFFFFFFFFFFFFFFFFFFFFFFFFFFFF AND SUB PUSH2 0x1FF2 JUMPI PUSH1 0x0 PUSH1 0x40 MLOAD PUSH32 0x64A0AE9200000000000000000000000000000000000000000000000000000000 DUP2 MSTORE PUSH1 0x4 ADD PUSH2 0x1FE9 SWAP2 SWAP1 PUSH2 0x373A JUMP JUMPDEST PUSH1 0x40 MLOAD DUP1 SWAP2 SUB SWAP1 REVERT JUMPDEST PUSH1 0x0 PUSH2 0x2000 DUP4 DUP4 PUSH1 0x0 PUSH2 0x1BFA JUMP JUMPDEST SWAP1 POP PUSH1 0x0 PUSH20 0xFFFFFFFFFFFFFFFFFFFFFFFFFFFFFFFFFFFFFFFF AND DUP2 PUSH20 0xFFFFFFFFFFFFFFFFFFFFFFFFFFFFFFFFFFFFFFFF AND SUB PUSH2 0x2073 JUMPI DUP2 PUSH1 0x40 MLOAD PUSH32 0x7E27328900000000000000000000000000000000000000000000000000000000 DUP2 MSTORE PUSH1 0x4 ADD PUSH2 0x206A SWAP2 SWAP1 PUSH2 0x3831 JUMP JUMPDEST PUSH1 0x40 MLOAD DUP1 SWAP2 SUB SWAP1 REVERT JUMPDEST DUP4 PUSH20 0xFFFFFFFFFFFFFFFFFFFFFFFFFFFFFFFFFFFFFFFF AND DUP2 PUSH20 0xFFFFFFFFFFFFFFFFFFFFFFFFFFFFFFFFFFFFFFFF AND EQ PUSH2 0x20E7 JUMPI DUP4 DUP3 DUP3 PUSH1 0x40 MLOAD PUSH32 0x64283D7B00000000000000000000000000000000000000000000000000000000 DUP2 MSTORE PUSH1 0x4 ADD PUSH2 0x20DE SWAP4 SWAP3 SWAP2 SWAP1 PUSH2 0x4354 JUMP JUMPDEST PUSH1 0x40 MLOAD DUP1 SWAP2 SUB SWAP1 REVERT JUMPDEST POP POP POP POP JUMP JUMPDEST PUSH1 0x0 DUP4 PUSH20 0xFFFFFFFFFFFFFFFFFFFFFFFFFFFFFFFFFFFFFFFF AND EXTCODESIZE GT ISZERO PUSH2 0x2297 JUMPI DUP3 PUSH20 0xFFFFFFFFFFFFFFFFFFFFFFFFFFFFFFFFFFFFFFFF AND PUSH4 0x150B7A02 DUP7 DUP7 DUP6 DUP6 PUSH1 0x40 MLOAD DUP6 PUSH4 0xFFFFFFFF AND PUSH1 0xE0 SHL DUP2 MSTORE PUSH1 0x4 ADD PUSH2 0x214C SWAP5 SWAP4 SWAP3 SWAP2 SWAP1 PUSH2 0x4C9B JUMP JUMPDEST PUSH1 0x20 PUSH1 0x40 MLOAD DUP1 DUP4 SUB DUP2 PUSH1 0x0 DUP8 GAS CALL SWAP3 POP POP POP DUP1 ISZERO PUSH2 0x2188 JUMPI POP PUSH1 0x40 MLOAD RETURNDATASIZE PUSH1 0x1F NOT PUSH1 0x1F DUP3 ADD AND DUP3 ADD DUP1 PUSH1 0x40 MSTORE POP DUP2 ADD SWAP1 PUSH2 0x2185 SWAP2 SWAP1 PUSH2 0x4CFC JUMP JUMPDEST PUSH1 0x1 JUMPDEST PUSH2 0x220C JUMPI RETURNDATASIZE DUP1 PUSH1 0x0 DUP2 EQ PUSH2 0x21B8 JUMPI PUSH1 0x40 MLOAD SWAP2 POP PUSH1 0x1F NOT PUSH1 0x3F RETURNDATASIZE ADD AND DUP3 ADD PUSH1 0x40 MSTORE RETURNDATASIZE DUP3 MSTORE RETURNDATASIZE PUSH1 0x0 PUSH1 0x20 DUP5 ADD RETURNDATACOPY PUSH2 0x21BD JUMP JUMPDEST PUSH1 0x60 SWAP2 POP JUMPDEST POP PUSH1 0x0 DUP2 MLOAD SUB PUSH2 0x2204 JUMPI DUP4 PUSH1 0x40 MLOAD PUSH32 0x64A0AE9200000000000000000000000000000000000000000000000000000000 DUP2 MSTORE PUSH1 0x4 ADD PUSH2 0x21FB SWAP2 SWAP1 PUSH2 0x373A JUMP JUMPDEST PUSH1 0x40 MLOAD DUP1 SWAP2 SUB SWAP1 REVERT JUMPDEST DUP1 MLOAD DUP2 PUSH1 0x20 ADD REVERT JUMPDEST PUSH4 0x150B7A02 PUSH1 0xE0 SHL PUSH28 0xFFFFFFFFFFFFFFFFFFFFFFFFFFFFFFFFFFFFFFFFFFFFFFFFFFFFFFFF NOT AND DUP2 PUSH28 0xFFFFFFFFFFFFFFFFFFFFFFFFFFFFFFFFFFFFFFFFFFFFFFFFFFFFFFFF NOT AND EQ PUSH2 0x2295 JUMPI DUP4 PUSH1 0x40 MLOAD PUSH32 0x64A0AE9200000000000000000000000000000000000000000000000000000000 DUP2 MSTORE PUSH1 0x4 ADD PUSH2 0x228C SWAP2 SWAP1 PUSH2 0x373A JUMP JUMPDEST PUSH1 0x40 MLOAD DUP1 SWAP2 SUB SWAP1 REVERT JUMPDEST POP JUMPDEST POP POP POP POP POP JUMP JUMPDEST PUSH1 0x60 PUSH1 0x0 PUSH1 0x1 PUSH2 0x22AD DUP5 PUSH2 0x2FD8 JUMP JUMPDEST ADD SWAP1 POP PUSH1 0x0 DUP2 PUSH8 0xFFFFFFFFFFFFFFFF DUP2 GT ISZERO PUSH2 0x22CC JUMPI PUSH2 0x22CB PUSH2 0x3F86 JUMP JUMPDEST JUMPDEST PUSH1 0x40 MLOAD SWAP1 DUP1 DUP3 MSTORE DUP1 PUSH1 0x1F ADD PUSH1 0x1F NOT AND PUSH1 0x20 ADD DUP3 ADD PUSH1 0x40 MSTORE DUP1 ISZERO PUSH2 0x22FE JUMPI DUP2 PUSH1 0x20 ADD PUSH1 0x1 DUP3 MUL DUP1 CALLDATASIZE DUP4 CALLDATACOPY DUP1 DUP3 ADD SWAP2 POP POP SWAP1 POP JUMPDEST POP SWAP1 POP PUSH1 0x0 DUP3 PUSH1 0x20 ADD DUP3 ADD SWAP1 POP JUMPDEST PUSH1 0x1 ISZERO PUSH2 0x2361 JUMPI DUP1 DUP1 PUSH1 0x1 SWAP1 SUB SWAP2 POP POP PUSH32 0x3031323334353637383961626364656600000000000000000000000000000000 PUSH1 0xA DUP7 MOD BYTE DUP2 MSTORE8 PUSH1 0xA DUP6 DUP2 PUSH2 0x2355 JUMPI PUSH2 0x2354 PUSH2 0x4D29 JUMP JUMPDEST JUMPDEST DIV SWAP5 POP PUSH1 0x0 DUP6 SUB PUSH2 0x230C JUMPI JUMPDEST DUP2 SWAP4 POP POP POP POP SWAP2 SWAP1 POP JUMP JUMPDEST PUSH1 0x60 PUSH1 0x0 PUSH1 0x8 PUSH1 0x0 SWAP1 SLOAD SWAP1 PUSH2 0x100 EXP SWAP1 DIV PUSH20 0xFFFFFFFFFFFFFFFFFFFFFFFFFFFFFFFFFFFFFFFF AND PUSH20 0xFFFFFFFFFFFFFFFFFFFFFFFFFFFFFFFFFFFFFFFF AND PUSH4 0xBAB859A5 DUP5 PUSH1 0x40 MLOAD DUP3 PUSH4 0xFFFFFFFF AND PUSH1 0xE0 SHL DUP2 MSTORE PUSH1 0x4 ADD PUSH2 0x23CB SWAP2 SWAP1 PUSH2 0x3831 JUMP JUMPDEST PUSH1 0x0 PUSH1 0x40 MLOAD DUP1 DUP4 SUB DUP2 DUP7 GAS STATICCALL ISZERO DUP1 ISZERO PUSH2 0x23E8 JUMPI RETURNDATASIZE PUSH1 0x0 DUP1 RETURNDATACOPY RETURNDATASIZE PUSH1 0x0 REVERT JUMPDEST POP POP POP POP PUSH1 0x40 MLOAD RETURNDATASIZE PUSH1 0x0 DUP3 RETURNDATACOPY RETURNDATASIZE PUSH1 0x1F NOT PUSH1 0x1F DUP3 ADD AND DUP3 ADD DUP1 PUSH1 0x40 MSTORE POP DUP2 ADD SWAP1 PUSH2 0x2411 SWAP2 SWAP1 PUSH2 0x4FAA JUMP JUMPDEST SWAP1 POP PUSH1 0x0 PUSH1 0x40 MLOAD DUP1 PUSH1 0x60 ADD PUSH1 0x40 MSTORE DUP1 PUSH1 0x39 DUP2 MSTORE PUSH1 0x20 ADD PUSH2 0x53E6 PUSH1 0x39 SWAP2 CODECOPY DUP3 PUSH1 0xE0 ADD MLOAD PUSH1 0x40 MLOAD DUP1 PUSH1 0x60 ADD PUSH1 0x40 MSTORE DUP1 PUSH1 0x2B DUP2 MSTORE PUSH1 0x20 ADD PUSH2 0x5601 PUSH1 0x2B SWAP2 CODECOPY DUP5 PUSH1 0x40 ADD MLOAD PUSH1 0x0 DUP2 MLOAD DUP2 LT PUSH2 0x2464 JUMPI PUSH2 0x2463 PUSH2 0x4FF3 JUMP JUMPDEST JUMPDEST PUSH1 0x20 MUL PUSH1 0x20 ADD ADD MLOAD PUSH1 0x40 MLOAD DUP1 PUSH1 0x60 ADD PUSH1 0x40 MSTORE DUP1 PUSH1 0x2C DUP2 MSTORE PUSH1 0x20 ADD PUSH2 0x5865 PUSH1 0x2C SWAP2 CODECOPY DUP7 PUSH1 0x60 ADD MLOAD PUSH1 0x0 DUP2 MLOAD DUP2 LT PUSH2 0x249D JUMPI PUSH2 0x249C PUSH2 0x4FF3 JUMP JUMPDEST JUMPDEST PUSH1 0x20 MUL PUSH1 0x20 ADD ADD MLOAD PUSH1 0x40 MLOAD PUSH1 0x20 ADD PUSH2 0x24BA SWAP7 SWAP6 SWAP5 SWAP4 SWAP3 SWAP2 SWAP1 PUSH2 0x5058 JUMP JUMPDEST PUSH1 0x40 MLOAD PUSH1 0x20 DUP2 DUP4 SUB SUB DUP2 MSTORE SWAP1 PUSH1 0x40 MSTORE SWAP1 POP DUP1 PUSH1 0x40 MLOAD DUP1 PUSH1 0x60 ADD PUSH1 0x40 MSTORE DUP1 PUSH1 0x2C DUP2 MSTORE PUSH1 0x20 ADD PUSH2 0x5348 PUSH1 0x2C SWAP2 CODECOPY PUSH2 0x24F5 DUP5 PUSH1 0x80 ADD MLOAD PUSH1 0xFF AND PUSH2 0x229E JUMP JUMPDEST PUSH1 0x40 MLOAD DUP1 PUSH1 0x60 ADD PUSH1 0x40 MSTORE DUP1 PUSH1 0x28 DUP2 MSTORE PUSH1 0x20 ADD PUSH2 0x52D3 PUSH1 0x28 SWAP2 CODECOPY DUP6 PUSH1 0xA0 ADD MLOAD PUSH1 0x40 MLOAD DUP1 PUSH1 0x60 ADD PUSH1 0x40 MSTORE DUP1 PUSH1 0x2F DUP2 MSTORE PUSH1 0x20 ADD PUSH2 0x5836 PUSH1 0x2F SWAP2 CODECOPY DUP8 PUSH1 0xC0 ADD MLOAD PUSH1 0x40 MLOAD DUP1 PUSH1 0x60 ADD PUSH1 0x40 MSTORE DUP1 PUSH1 0x28 DUP2 MSTORE PUSH1 0x20 ADD PUSH2 0x5254 PUSH1 0x28 SWAP2 CODECOPY PUSH1 0x40 MLOAD PUSH1 0x20 ADD PUSH2 0x2561 SWAP9 SWAP8 SWAP7 SWAP6 SWAP5 SWAP4 SWAP3 SWAP2 SWAP1 PUSH2 0x50CF JUMP JUMPDEST PUSH1 0x40 MLOAD PUSH1 0x20 DUP2 DUP4 SUB SUB DUP2 MSTORE SWAP1 PUSH1 0x40 MSTORE SWAP3 POP POP POP SWAP2 SWAP1 POP JUMP JUMPDEST PUSH1 0x60 PUSH1 0x0 PUSH1 0x40 MLOAD PUSH1 0x20 ADD PUSH1 0x40 MLOAD PUSH1 0x20 DUP2 DUP4 SUB SUB DUP2 MSTORE SWAP1 PUSH1 0x40 MSTORE SWAP1 POP PUSH1 0x40 MLOAD DUP1 PUSH1 0x80 ADD PUSH1 0x40 MSTORE DUP1 PUSH1 0x57 DUP2 MSTORE PUSH1 0x20 ADD PUSH2 0x527C PUSH1 0x57 SWAP2 CODECOPY PUSH1 0x40 MLOAD DUP1 PUSH1 0xA0 ADD PUSH1 0x40 MSTORE DUP1 PUSH1 0x6E DUP2 MSTORE PUSH1 0x20 ADD PUSH2 0x549B PUSH1 0x6E SWAP2 CODECOPY PUSH1 0x40 MLOAD DUP1 PUSH1 0xA0 ADD PUSH1 0x40 MSTORE DUP1 PUSH1 0x79 DUP2 MSTORE PUSH1 0x20 ADD PUSH2 0x5732 PUSH1 0x79 SWAP2 CODECOPY PUSH1 0x40 MLOAD DUP1 PUSH1 0x40 ADD PUSH1 0x40 MSTORE DUP1 PUSH1 0x17 DUP2 MSTORE PUSH1 0x20 ADD PUSH32 0x43657274696669636174204E46542064652042696A6F75000000000000000000 DUP2 MSTORE POP PUSH1 0x40 MLOAD DUP1 PUSH1 0x40 ADD PUSH1 0x40 MSTORE DUP1 PUSH1 0x7 DUP2 MSTORE PUSH1 0x20 ADD PUSH32 0x3C2F746578743E00000000000000000000000000000000000000000000000000 DUP2 MSTORE POP PUSH1 0x40 MLOAD PUSH1 0x20 ADD PUSH2 0x265F SWAP6 SWAP5 SWAP4 SWAP3 SWAP2 SWAP1 PUSH2 0x4A6A JUMP JUMPDEST PUSH1 0x40 MLOAD PUSH1 0x20 DUP2 DUP4 SUB SUB DUP2 MSTORE SWAP1 PUSH1 0x40 MSTORE SWAP1 POP DUP1 PUSH1 0x40 MLOAD DUP1 PUSH1 0x80 ADD PUSH1 0x40 MSTORE DUP1 PUSH1 0x5D DUP2 MSTORE PUSH1 0x20 ADD PUSH2 0x562C PUSH1 0x5D SWAP2 CODECOPY PUSH1 0x40 MLOAD DUP1 PUSH1 0x80 ADD PUSH1 0x40 MSTORE DUP1 PUSH1 0x5C DUP2 MSTORE PUSH1 0x20 ADD PUSH2 0x5689 PUSH1 0x5C SWAP2 CODECOPY PUSH1 0x40 MLOAD DUP1 PUSH1 0xA0 ADD PUSH1 0x40 MSTORE DUP1 PUSH1 0x72 DUP2 MSTORE PUSH1 0x20 ADD PUSH2 0x5374 PUSH1 0x72 SWAP2 CODECOPY PUSH1 0x40 MLOAD DUP1 PUSH1 0x80 ADD PUSH1 0x40 MSTORE DUP1 PUSH1 0x4D DUP2 MSTORE PUSH1 0x20 ADD PUSH2 0x5574 PUSH1 0x4D SWAP2 CODECOPY PUSH1 0x40 MLOAD PUSH1 0x20 ADD PUSH2 0x26E9 SWAP6 SWAP5 SWAP4 SWAP3 SWAP2 SWAP1 PUSH2 0x4A6A JUMP JUMPDEST PUSH1 0x40 MLOAD PUSH1 0x20 DUP2 DUP4 SUB SUB DUP2 MSTORE SWAP1 PUSH1 0x40 MSTORE SWAP1 POP DUP1 PUSH1 0x40 MLOAD DUP1 PUSH1 0x80 ADD PUSH1 0x40 MSTORE DUP1 PUSH1 0x4D DUP2 MSTORE PUSH1 0x20 ADD PUSH2 0x52FB PUSH1 0x4D SWAP2 CODECOPY PUSH1 0x40 MLOAD DUP1 PUSH1 0x80 ADD PUSH1 0x40 MSTORE DUP1 PUSH1 0x4D DUP2 MSTORE PUSH1 0x20 ADD PUSH2 0x56E5 PUSH1 0x4D SWAP2 CODECOPY PUSH1 0x40 MLOAD DUP1 PUSH1 0xA0 ADD PUSH1 0x40 MSTORE DUP1 PUSH1 0x7C DUP2 MSTORE PUSH1 0x20 ADD PUSH2 0x541F PUSH1 0x7C SWAP2 CODECOPY PUSH1 0x40 MLOAD DUP1 PUSH1 0x40 ADD PUSH1 0x40 MSTORE DUP1 PUSH1 0x9 DUP2 MSTORE PUSH1 0x20 ADD PUSH32 0x476F6C64436861696E0000000000000000000000000000000000000000000000 DUP2 MSTORE POP PUSH1 0x40 MLOAD PUSH1 0x20 ADD PUSH2 0x2790 SWAP6 SWAP5 SWAP4 SWAP3 SWAP2 SWAP1 PUSH2 0x4A6A JUMP JUMPDEST PUSH1 0x40 MLOAD PUSH1 0x20 DUP2 DUP4 SUB SUB DUP2 MSTORE SWAP1 PUSH1 0x40 MSTORE SWAP1 POP DUP1 PUSH1 0x40 MLOAD DUP1 PUSH1 0x40 ADD PUSH1 0x40 MSTORE DUP1 PUSH1 0x7 DUP2 MSTORE PUSH1 0x20 ADD PUSH32 0x3C2F746578743E00000000000000000000000000000000000000000000000000 DUP2 MSTORE POP PUSH1 0x40 MLOAD DUP1 PUSH1 0xA0 ADD PUSH1 0x40 MSTORE DUP1 PUSH1 0x6B DUP2 MSTORE PUSH1 0x20 ADD PUSH2 0x5509 PUSH1 0x6B SWAP2 CODECOPY PUSH1 0x40 MLOAD DUP1 PUSH1 0xA0 ADD PUSH1 0x40 MSTORE DUP1 PUSH1 0x66 DUP2 MSTORE PUSH1 0x20 ADD PUSH2 0x57AB PUSH1 0x66 SWAP2 CODECOPY PUSH1 0x40 MLOAD PUSH1 0x20 ADD PUSH2 0x281D SWAP5 SWAP4 SWAP3 SWAP2 SWAP1 PUSH2 0x5145 JUMP JUMPDEST PUSH1 0x40 MLOAD PUSH1 0x20 DUP2 DUP4 SUB SUB DUP2 MSTORE SWAP1 PUSH1 0x40 MSTORE SWAP1 POP DUP1 PUSH1 0x40 MLOAD DUP1 PUSH1 0x40 ADD PUSH1 0x40 MSTORE DUP1 PUSH1 0x7 DUP2 MSTORE PUSH1 0x20 ADD PUSH32 0x3C2F746578743E00000000000000000000000000000000000000000000000000 DUP2 MSTORE POP PUSH2 0x286E DUP6 PUSH2 0x229E JUMP JUMPDEST PUSH1 0x40 MLOAD DUP1 PUSH1 0x40 ADD PUSH1 0x40 MSTORE DUP1 PUSH1 0x6 DUP2 MSTORE PUSH1 0x20 ADD PUSH32 0x3C2F7376673E0000000000000000000000000000000000000000000000000000 DUP2 MSTORE POP PUSH1 0x40 MLOAD PUSH1 0x20 ADD PUSH2 0x28B7 SWAP5 SWAP4 SWAP3 SWAP2 SWAP1 PUSH2 0x5145 JUMP JUMPDEST PUSH1 0x40 MLOAD PUSH1 0x20 DUP2 DUP4 SUB SUB DUP2 MSTORE SWAP1 PUSH1 0x40 MSTORE SWAP2 POP POP SWAP2 SWAP1 POP JUMP JUMPDEST PUSH1 0x60 PUSH1 0x0 DUP3 MLOAD SWAP1 POP PUSH1 0x0 DUP2 SUB PUSH2 0x28F6 JUMPI PUSH1 0x40 MLOAD DUP1 PUSH1 0x20 ADD PUSH1 0x40 MSTORE DUP1 PUSH1 0x0 DUP2 MSTORE POP SWAP2 POP POP PUSH2 0x2A60 JUMP JUMPDEST PUSH1 0x0 PUSH1 0x3 PUSH1 0x2 DUP4 PUSH2 0x2907 SWAP2 SWAP1 PUSH2 0x5183 JUMP JUMPDEST PUSH2 0x2911 SWAP2 SWAP1 PUSH2 0x51B7 JUMP JUMPDEST PUSH1 0x4 PUSH2 0x291D SWAP2 SWAP1 PUSH2 0x51E8 JUMP JUMPDEST SWAP1 POP PUSH1 0x0 PUSH1 0x20 DUP3 PUSH2 0x292E SWAP2 SWAP1 PUSH2 0x5183 JUMP JUMPDEST PUSH8 0xFFFFFFFFFFFFFFFF DUP2 GT ISZERO PUSH2 0x2947 JUMPI PUSH2 0x2946 PUSH2 0x3F86 JUMP JUMPDEST JUMPDEST PUSH1 0x40 MLOAD SWAP1 DUP1 DUP3 MSTORE DUP1 PUSH1 0x1F ADD PUSH1 0x1F NOT AND PUSH1 0x20 ADD DUP3 ADD PUSH1 0x40 MSTORE DUP1 ISZERO PUSH2 0x2979 JUMPI DUP2 PUSH1 0x20 ADD PUSH1 0x1 DUP3 MUL DUP1 CALLDATASIZE DUP4 CALLDATACOPY DUP1 DUP3 ADD SWAP2 POP POP SWAP1 POP JUMPDEST POP SWAP1 POP PUSH1 0x0 PUSH1 0x40 MLOAD DUP1 PUSH1 0x60 ADD PUSH1 0x40 MSTORE DUP1 PUSH1 0x40 DUP2 MSTORE PUSH1 0x20 ADD PUSH2 0x55C1 PUSH1 0x40 SWAP2 CODECOPY SWAP1 POP PUSH1 0x1 DUP2 ADD PUSH1 0x20 DUP4 ADD PUSH1 0x0 JUMPDEST DUP7 DUP2 LT ISZERO PUSH2 0x2A1D JUMPI PUSH1 0x3 DUP2 ADD SWAP1 POP PUSH3 0xFFFFFF DUP2 DUP11 ADD MLOAD AND PUSH1 0x3F DUP2 PUSH1 0x12 SHR AND DUP5 ADD MLOAD DUP1 PUSH1 0x8 SHL SWAP1 POP PUSH1 0xFF PUSH1 0x3F DUP4 PUSH1 0xC SHR AND DUP7 ADD MLOAD AND DUP2 ADD SWAP1 POP DUP1 PUSH1 0x8 SHL SWAP1 POP PUSH1 0xFF PUSH1 0x3F DUP4 PUSH1 0x6 SHR AND DUP7 ADD MLOAD AND DUP2 ADD SWAP1 POP DUP1 PUSH1 0x8 SHL SWAP1 POP PUSH1 0xFF PUSH1 0x3F DUP4 AND DUP7 ADD MLOAD AND DUP2 ADD SWAP1 POP DUP1 PUSH1 0xE0 SHL SWAP1 POP DUP1 DUP5 MSTORE PUSH1 0x4 DUP5 ADD SWAP4 POP POP POP PUSH2 0x29A4 JUMP JUMPDEST POP PUSH1 0x3 DUP7 MOD PUSH1 0x1 DUP2 EQ PUSH2 0x2A37 JUMPI PUSH1 0x2 DUP2 EQ PUSH2 0x2A47 JUMPI PUSH2 0x2A52 JUMP JUMPDEST PUSH2 0x3D3D PUSH1 0xF0 SHL PUSH1 0x2 DUP4 SUB MSTORE PUSH2 0x2A52 JUMP JUMPDEST PUSH1 0x3D PUSH1 0xF8 SHL PUSH1 0x1 DUP4 SUB MSTORE JUMPDEST POP DUP5 DUP5 MSTORE POP POP DUP2 SWAP5 POP POP POP POP POP JUMPDEST SWAP2 SWAP1 POP JUMP JUMPDEST PUSH1 0x0 PUSH32 0x80AC58CD00000000000000000000000000000000000000000000000000000000 PUSH28 0xFFFFFFFFFFFFFFFFFFFFFFFFFFFFFFFFFFFFFFFFFFFFFFFFFFFFFFFF NOT AND DUP3 PUSH28 0xFFFFFFFFFFFFFFFFFFFFFFFFFFFFFFFFFFFFFFFFFFFFFFFFFFFFFFFF NOT AND EQ DUP1 PUSH2 0x2B30 JUMPI POP PUSH32 0x5B5E139F00000000000000000000000000000000000000000000000000000000 PUSH28 0xFFFFFFFFFFFFFFFFFFFFFFFFFFFFFFFFFFFFFFFFFFFFFFFFFFFFFFFF NOT AND DUP3 PUSH28 0xFFFFFFFFFFFFFFFFFFFFFFFFFFFFFFFFFFFFFFFFFFFFFFFFFFFFFFFF NOT AND EQ JUMPDEST DUP1 PUSH2 0x2B40 JUMPI POP PUSH2 0x2B3F DUP3 PUSH2 0x312B JUMP JUMPDEST JUMPDEST SWAP1 POP SWAP2 SWAP1 POP JUMP JUMPDEST PUSH1 0x0 PUSH1 0x3 PUSH1 0x0 DUP4 DUP2 MSTORE PUSH1 0x20 ADD SWAP1 DUP2 MSTORE PUSH1 0x20 ADD PUSH1 0x0 KECCAK256 PUSH1 0x0 SWAP1 SLOAD SWAP1 PUSH2 0x100 EXP SWAP1 DIV PUSH20 0xFFFFFFFFFFFFFFFFFFFFFFFFFFFFFFFFFFFFFFFF AND SWAP1 POP SWAP2 SWAP1 POP JUMP JUMPDEST PUSH2 0x2B8E DUP3 DUP3 PUSH2 0x1597 JUMP JUMPDEST PUSH2 0x2BD1 JUMPI DUP1 DUP3 PUSH1 0x40 MLOAD PUSH32 0xE2517D3F00000000000000000000000000000000000000000000000000000000 DUP2 MSTORE PUSH1 0x4 ADD PUSH2 0x2BC8 SWAP3 SWAP2 SWAP1 PUSH2 0x522A JUMP JUMPDEST PUSH1 0x40 MLOAD DUP1 SWAP2 SUB SWAP1 REVERT JUMPDEST POP POP JUMP JUMPDEST DUP1 DUP1 PUSH2 0x2C0E JUMPI POP PUSH1 0x0 PUSH20 0xFFFFFFFFFFFFFFFFFFFFFFFFFFFFFFFFFFFFFFFF AND DUP3 PUSH20 0xFFFFFFFFFFFFFFFFFFFFFFFFFFFFFFFFFFFFFFFF AND EQ ISZERO JUMPDEST ISZERO PUSH2 0x2D42 JUMPI PUSH1 0x0 PUSH2 0x2C1E DUP5 PUSH2 0x1B07 JUMP JUMPDEST SWAP1 POP PUSH1 0x0 PUSH20 0xFFFFFFFFFFFFFFFFFFFFFFFFFFFFFFFFFFFFFFFF AND DUP4 PUSH20 0xFFFFFFFFFFFFFFFFFFFFFFFFFFFFFFFFFFFFFFFF AND EQ ISZERO DUP1 ISZERO PUSH2 0x2C89 JUMPI POP DUP3 PUSH20 0xFFFFFFFFFFFFFFFFFFFFFFFFFFFFFFFFFFFFFFFF AND DUP2 PUSH20 0xFFFFFFFFFFFFFFFFFFFFFFFFFFFFFFFFFFFFFFFF AND EQ ISZERO JUMPDEST DUP1 ISZERO PUSH2 0x2C9C JUMPI POP PUSH2 0x2C9A DUP2 DUP5 PUSH2 0x1869 JUMP JUMPDEST ISZERO JUMPDEST ISZERO PUSH2 0x2CDE JUMPI DUP3 PUSH1 0x40 MLOAD PUSH32 0xA9FBF51F00000000000000000000000000000000000000000000000000000000 DUP2 MSTORE PUSH1 0x4 ADD PUSH2 0x2CD5 SWAP2 SWAP1 PUSH2 0x373A JUMP JUMPDEST PUSH1 0x40 MLOAD DUP1 SWAP2 SUB SWAP1 REVERT JUMPDEST DUP2 ISZERO PUSH2 0x2D40 JUMPI DUP4 DUP6 PUSH20 0xFFFFFFFFFFFFFFFFFFFFFFFFFFFFFFFFFFFFFFFF AND DUP3 PUSH20 0xFFFFFFFFFFFFFFFFFFFFFFFFFFFFFFFFFFFFFFFF AND PUSH32 0x8C5BE1E5EBEC7D5BD14F71427D1E84F3DD0314C0F7B2291E5B200AC8C7C3B925 PUSH1 0x40 MLOAD PUSH1 0x40 MLOAD DUP1 SWAP2 SUB SWAP1 LOG4 JUMPDEST POP JUMPDEST DUP4 PUSH1 0x5 PUSH1 0x0 DUP6 DUP2 MSTORE PUSH1 0x20 ADD SWAP1 DUP2 MSTORE PUSH1 0x20 ADD PUSH1 0x0 KECCAK256 PUSH1 0x0 PUSH2 0x100 EXP DUP2 SLOAD DUP2 PUSH20 0xFFFFFFFFFFFFFFFFFFFFFFFFFFFFFFFFFFFFFFFF MUL NOT AND SWAP1 DUP4 PUSH20 0xFFFFFFFFFFFFFFFFFFFFFFFFFFFFFFFFFFFFFFFF AND MUL OR SWAP1 SSTORE POP POP POP POP POP JUMP JUMPDEST PUSH1 0x0 DUP1 PUSH2 0x2DA6 DUP5 PUSH2 0x2B47 JUMP JUMPDEST SWAP1 POP PUSH1 0x0 PUSH20 0xFFFFFFFFFFFFFFFFFFFFFFFFFFFFFFFFFFFFFFFF AND DUP4 PUSH20 0xFFFFFFFFFFFFFFFFFFFFFFFFFFFFFFFFFFFFFFFF AND EQ PUSH2 0x2DE8 JUMPI PUSH2 0x2DE7 DUP2 DUP5 DUP7 PUSH2 0x31A5 JUMP JUMPDEST JUMPDEST PUSH1 0x0 PUSH20 0xFFFFFFFFFFFFFFFFFFFFFFFFFFFFFFFFFFFFFFFF AND DUP2 PUSH20 0xFFFFFFFFFFFFFFFFFFFFFFFFFFFFFFFFFFFFFFFF AND EQ PUSH2 0x2E79 JUMPI PUSH2 0x2E2A PUSH1 0x0 DUP6 PUSH1 0x0 DUP1 PUSH2 0x2BD5 JUMP JUMPDEST PUSH1 0x1 PUSH1 0x4 PUSH1 0x0 DUP4 PUSH20 0xFFFFFFFFFFFFFFFFFFFFFFFFFFFFFFFFFFFFFFFF AND PUSH20 0xFFFFFFFFFFFFFFFFFFFFFFFFFFFFFFFFFFFFFFFF AND DUP2 MSTORE PUSH1 0x20 ADD SWAP1 DUP2 MSTORE PUSH1 0x20 ADD PUSH1 0x0 KECCAK256 PUSH1 0x0 DUP3 DUP3 SLOAD SUB SWAP3 POP POP DUP2 SWAP1 SSTORE POP JUMPDEST PUSH1 0x0 PUSH20 0xFFFFFFFFFFFFFFFFFFFFFFFFFFFFFFFFFFFFFFFF AND DUP6 PUSH20 0xFFFFFFFFFFFFFFFFFFFFFFFFFFFFFFFFFFFFFFFF AND EQ PUSH2 0x2EFC JUMPI PUSH1 0x1 PUSH1 0x4 PUSH1 0x0 DUP8 PUSH20 0xFFFFFFFFFFFFFFFFFFFFFFFFFFFFFFFFFFFFFFFF AND PUSH20 0xFFFFFFFFFFFFFFFFFFFFFFFFFFFFFFFFFFFFFFFF AND DUP2 MSTORE PUSH1 0x20 ADD SWAP1 DUP2 MSTORE PUSH1 0x20 ADD PUSH1 0x0 KECCAK256 PUSH1 0x0 DUP3 DUP3 SLOAD ADD SWAP3 POP POP DUP2 SWAP1 SSTORE POP JUMPDEST DUP5 PUSH1 0x3 PUSH1 0x0 DUP7 DUP2 MSTORE PUSH1 0x20 ADD SWAP1 DUP2 MSTORE PUSH1 0x20 ADD PUSH1 0x0 KECCAK256 PUSH1 0x0 PUSH2 0x100 EXP DUP2 SLOAD DUP2 PUSH20 0xFFFFFFFFFFFFFFFFFFFFFFFFFFFFFFFFFFFFFFFF MUL NOT AND SWAP1 DUP4 PUSH20 0xFFFFFFFFFFFFFFFFFFFFFFFFFFFFFFFFFFFFFFFF AND MUL OR SWAP1 SSTORE POP DUP4 DUP6 PUSH20 0xFFFFFFFFFFFFFFFFFFFFFFFFFFFFFFFFFFFFFFFF AND DUP3 PUSH20 0xFFFFFFFFFFFFFFFFFFFFFFFFFFFFFFFFFFFFFFFF AND PUSH32 0xDDF252AD1BE2C89B69C2B068FC378DAA952BA7F163C4A11628F55A4DF523B3EF PUSH1 0x40 MLOAD PUSH1 0x40 MLOAD DUP1 SWAP2 SUB SWAP1 LOG4 DUP1 SWAP2 POP POP SWAP4 SWAP3 POP POP POP JUMP JUMPDEST PUSH2 0x2FBE DUP4 DUP4 PUSH2 0x3269 JUMP JUMPDEST PUSH2 0x2FD3 PUSH2 0x2FC9 PUSH2 0x1BE0 JUMP JUMPDEST PUSH1 0x0 DUP6 DUP6 DUP6 PUSH2 0x20ED JUMP JUMPDEST POP POP POP JUMP JUMPDEST PUSH1 0x0 DUP1 PUSH1 0x0 SWAP1 POP PUSH27 0x184F03E93FF9F4DAA797ED6E38ED64BF6A1F010000000000000000 DUP4 LT PUSH2 0x3036 JUMPI PUSH27 0x184F03E93FF9F4DAA797ED6E38ED64BF6A1F010000000000000000 DUP4 DUP2 PUSH2 0x302C JUMPI PUSH2 0x302B PUSH2 0x4D29 JUMP JUMPDEST JUMPDEST DIV SWAP3 POP PUSH1 0x40 DUP2 ADD SWAP1 POP JUMPDEST PUSH14 0x4EE2D6D415B85ACEF8100000000 DUP4 LT PUSH2 0x3073 JUMPI PUSH14 0x4EE2D6D415B85ACEF8100000000 DUP4 DUP2 PUSH2 0x3069 JUMPI PUSH2 0x3068 PUSH2 0x4D29 JUMP JUMPDEST JUMPDEST DIV SWAP3 POP PUSH1 0x20 DUP2 ADD SWAP1 POP JUMPDEST PUSH7 0x2386F26FC10000 DUP4 LT PUSH2 0x30A2 JUMPI PUSH7 0x2386F26FC10000 DUP4 DUP2 PUSH2 0x3098 JUMPI PUSH2 0x3097 PUSH2 0x4D29 JUMP JUMPDEST JUMPDEST DIV SWAP3 POP PUSH1 0x10 DUP2 ADD SWAP1 POP JUMPDEST PUSH4 0x5F5E100 DUP4 LT PUSH2 0x30CB JUMPI PUSH4 0x5F5E100 DUP4 DUP2 PUSH2 0x30C1 JUMPI PUSH2 0x30C0 PUSH2 0x4D29 JUMP JUMPDEST JUMPDEST DIV SWAP3 POP PUSH1 0x8 DUP2 ADD SWAP1 POP JUMPDEST PUSH2 0x2710 DUP4 LT PUSH2 0x30F0 JUMPI PUSH2 0x2710 DUP4 DUP2 PUSH2 0x30E6 JUMPI PUSH2 0x30E5 PUSH2 0x4D29 JUMP JUMPDEST JUMPDEST DIV SWAP3 POP PUSH1 0x4 DUP2 ADD SWAP1 POP JUMPDEST PUSH1 0x64 DUP4 LT PUSH2 0x3113 JUMPI PUSH1 0x64 DUP4 DUP2 PUSH2 0x3109 JUMPI PUSH2 0x3108 PUSH2 0x4D29 JUMP JUMPDEST JUMPDEST DIV SWAP3 POP PUSH1 0x2 DUP2 ADD SWAP1 POP JUMPDEST PUSH1 0xA DUP4 LT PUSH2 0x3122 JUMPI PUSH1 0x1 DUP2 ADD SWAP1 POP JUMPDEST DUP1 SWAP2 POP POP SWAP2 SWAP1 POP JUMP JUMPDEST PUSH1 0x0 PUSH32 0x7965DB0B00000000000000000000000000000000000000000000000000000000 PUSH28 0xFFFFFFFFFFFFFFFFFFFFFFFFFFFFFFFFFFFFFFFFFFFFFFFFFFFFFFFF NOT AND DUP3 PUSH28 0xFFFFFFFFFFFFFFFFFFFFFFFFFFFFFFFFFFFFFFFFFFFFFFFFFFFFFFFF NOT AND EQ DUP1 PUSH2 0x319E JUMPI POP PUSH2 0x319D DUP3 PUSH2 0x3362 JUMP JUMPDEST JUMPDEST SWAP1 POP SWAP2 SWAP1 POP JUMP JUMPDEST PUSH2 0x31B0 DUP4 DUP4 DUP4 PUSH2 0x33CC JUMP JUMPDEST PUSH2 0x3264 JUMPI PUSH1 0x0 PUSH20 0xFFFFFFFFFFFFFFFFFFFFFFFFFFFFFFFFFFFFFFFF AND DUP4 PUSH20 0xFFFFFFFFFFFFFFFFFFFFFFFFFFFFFFFFFFFFFFFF AND SUB PUSH2 0x3225 JUMPI DUP1 PUSH1 0x40 MLOAD PUSH32 0x7E27328900000000000000000000000000000000000000000000000000000000 DUP2 MSTORE PUSH1 0x4 ADD PUSH2 0x321C SWAP2 SWAP1 PUSH2 0x3831 JUMP JUMPDEST PUSH1 0x40 MLOAD DUP1 SWAP2 SUB SWAP1 REVERT JUMPDEST DUP2 DUP2 PUSH1 0x40 MLOAD PUSH32 0x177E802F00000000000000000000000000000000000000000000000000000000 DUP2 MSTORE PUSH1 0x4 ADD PUSH2 0x325B SWAP3 SWAP2 SWAP1 PUSH2 0x42E9 JUMP JUMPDEST PUSH1 0x40 MLOAD DUP1 SWAP2 SUB SWAP1 REVERT JUMPDEST POP POP POP JUMP JUMPDEST PUSH1 0x0 PUSH20 0xFFFFFFFFFFFFFFFFFFFFFFFFFFFFFFFFFFFFFFFF AND DUP3 PUSH20 0xFFFFFFFFFFFFFFFFFFFFFFFFFFFFFFFFFFFFFFFF AND SUB PUSH2 0x32DB JUMPI PUSH1 0x0 PUSH1 0x40 MLOAD PUSH32 0x64A0AE9200000000000000000000000000000000000000000000000000000000 DUP2 MSTORE PUSH1 0x4 ADD PUSH2 0x32D2 SWAP2 SWAP1 PUSH2 0x373A JUMP JUMPDEST PUSH1 0x40 MLOAD DUP1 SWAP2 SUB SWAP1 REVERT JUMPDEST PUSH1 0x0 PUSH2 0x32E9 DUP4 DUP4 PUSH1 0x0 PUSH2 0x1BFA JUMP JUMPDEST SWAP1 POP PUSH1 0x0 PUSH20 0xFFFFFFFFFFFFFFFFFFFFFFFFFFFFFFFFFFFFFFFF AND DUP2 PUSH20 0xFFFFFFFFFFFFFFFFFFFFFFFFFFFFFFFFFFFFFFFF AND EQ PUSH2 0x335D JUMPI PUSH1 0x0 PUSH1 0x40 MLOAD PUSH32 0x73C6AC6E00000000000000000000000000000000000000000000000000000000 DUP2 MSTORE PUSH1 0x4 ADD PUSH2 0x3354 SWAP2 SWAP1 PUSH2 0x373A JUMP JUMPDEST PUSH1 0x40 MLOAD DUP1 SWAP2 SUB SWAP1 REVERT JUMPDEST POP POP POP JUMP JUMPDEST PUSH1 0x0 PUSH32 0x1FFC9A700000000000000000000000000000000000000000000000000000000 PUSH28 0xFFFFFFFFFFFFFFFFFFFFFFFFFFFFFFFFFFFFFFFFFFFFFFFFFFFFFFFF NOT AND DUP3 PUSH28 0xFFFFFFFFFFFFFFFFFFFFFFFFFFFFFFFFFFFFFFFFFFFFFFFFFFFFFFFF NOT AND EQ SWAP1 POP SWAP2 SWAP1 POP JUMP JUMPDEST PUSH1 0x0 DUP1 PUSH20 0xFFFFFFFFFFFFFFFFFFFFFFFFFFFFFFFFFFFFFFFF AND DUP4 PUSH20 0xFFFFFFFFFFFFFFFFFFFFFFFFFFFFFFFFFFFFFFFF AND EQ ISZERO DUP1 ISZERO PUSH2 0x3484 JUMPI POP DUP3 PUSH20 0xFFFFFFFFFFFFFFFFFFFFFFFFFFFFFFFFFFFFFFFF AND DUP5 PUSH20 0xFFFFFFFFFFFFFFFFFFFFFFFFFFFFFFFFFFFFFFFF AND EQ DUP1 PUSH2 0x3445 JUMPI POP PUSH2 0x3444 DUP5 DUP5 PUSH2 0x1869 JUMP JUMPDEST JUMPDEST DUP1 PUSH2 0x3483 JUMPI POP DUP3 PUSH20 0xFFFFFFFFFFFFFFFFFFFFFFFFFFFFFFFFFFFFFFFF AND PUSH2 0x346B DUP4 PUSH2 0x1B8F JUMP JUMPDEST PUSH20 0xFFFFFFFFFFFFFFFFFFFFFFFFFFFFFFFFFFFFFFFF AND EQ JUMPDEST JUMPDEST SWAP1 POP SWAP4 SWAP3 POP POP POP JUMP JUMPDEST PUSH1 0x40 MLOAD DUP1 PUSH2 0x100 ADD PUSH1 0x40 MSTORE DUP1 PUSH1 0x0 DUP2 MSTORE PUSH1 0x20 ADD PUSH1 0x0 DUP2 MSTORE PUSH1 0x20 ADD PUSH1 0x60 DUP2 MSTORE PUSH1 0x20 ADD PUSH1 0x60 DUP2 MSTORE PUSH1 0x20 ADD PUSH1 0x60 DUP2 MSTORE PUSH1 0x20 ADD PUSH1 0x60 DUP2 MSTORE PUSH1 0x20 ADD PUSH1 0x0 ISZERO ISZERO DUP2 MSTORE PUSH1 0x20 ADD PUSH1 0x0 ISZERO ISZERO DUP2 MSTORE POP SWAP1 JUMP JUMPDEST PUSH1 0x40 MLOAD DUP1 PUSH1 0xE0 ADD PUSH1 0x40 MSTORE DUP1 PUSH1 0x0 DUP2 MSTORE PUSH1 0x20 ADD PUSH1 0x0 DUP2 MSTORE PUSH1 0x20 ADD PUSH1 0x60 DUP2 MSTORE PUSH1 0x20 ADD PUSH1 0x60 DUP2 MSTORE PUSH1 0x20 ADD PUSH1 0x60 DUP2 MSTORE PUSH1 0x20 ADD PUSH1 0x0 ISZERO ISZERO DUP2 MSTORE PUSH1 0x20 ADD PUSH1 0x60 DUP2 MSTORE POP SWAP1 JUMP JUMPDEST PUSH1 0x0 PUSH1 0x40 MLOAD SWAP1 POP SWAP1 JUMP JUMPDEST PUSH1 0x0 DUP1 REVERT JUMPDEST PUSH1 0x0 DUP1 REVERT JUMPDEST PUSH1 0x0 PUSH32 0xFFFFFFFF00000000000000000000000000000000000000000000000000000000 DUP3 AND SWAP1 POP SWAP2 SWAP1 POP JUMP JUMPDEST PUSH2 0x355E DUP2 PUSH2 0x3529 JUMP JUMPDEST DUP2 EQ PUSH2 0x3569 JUMPI PUSH1 0x0 DUP1 REVERT JUMPDEST POP JUMP JUMPDEST PUSH1 0x0 DUP2 CALLDATALOAD SWAP1 POP PUSH2 0x357B DUP2 PUSH2 0x3555 JUMP JUMPDEST SWAP3 SWAP2 POP POP JUMP JUMPDEST PUSH1 0x0 PUSH1 0x20 DUP3 DUP5 SUB SLT ISZERO PUSH2 0x3597 JUMPI PUSH2 0x3596 PUSH2 0x351F JUMP JUMPDEST JUMPDEST PUSH1 0x0 PUSH2 0x35A5 DUP5 DUP3 DUP6 ADD PUSH2 0x356C JUMP JUMPDEST SWAP2 POP POP SWAP3 SWAP2 POP POP JUMP JUMPDEST PUSH1 0x0 DUP2 ISZERO ISZERO SWAP1 POP SWAP2 SWAP1 POP JUMP JUMPDEST PUSH2 0x35C3 DUP2 PUSH2 0x35AE JUMP JUMPDEST DUP3 MSTORE POP POP JUMP JUMPDEST PUSH1 0x0 PUSH1 0x20 DUP3 ADD SWAP1 POP PUSH2 0x35DE PUSH1 0x0 DUP4 ADD DUP5 PUSH2 0x35BA JUMP JUMPDEST SWAP3 SWAP2 POP POP JUMP JUMPDEST PUSH1 0x0 DUP2 MLOAD SWAP1 POP SWAP2 SWAP1 POP JUMP JUMPDEST PUSH1 0x0 DUP3 DUP3 MSTORE PUSH1 0x20 DUP3 ADD SWAP1 POP SWAP3 SWAP2 POP POP JUMP JUMPDEST PUSH1 0x0 JUMPDEST DUP4 DUP2 LT ISZERO PUSH2 0x361E JUMPI DUP1 DUP3 ADD MLOAD DUP2 DUP5 ADD MSTORE PUSH1 0x20 DUP2 ADD SWAP1 POP PUSH2 0x3603 JUMP JUMPDEST PUSH1 0x0 DUP5 DUP5 ADD MSTORE POP POP POP POP JUMP JUMPDEST PUSH1 0x0 PUSH1 0x1F NOT PUSH1 0x1F DUP4 ADD AND SWAP1 POP SWAP2 SWAP1 POP JUMP JUMPDEST PUSH1 0x0 PUSH2 0x3646 DUP3 PUSH2 0x35E4 JUMP JUMPDEST PUSH2 0x3650 DUP2 DUP6 PUSH2 0x35EF JUMP JUMPDEST SWAP4 POP PUSH2 0x3660 DUP2 DUP6 PUSH1 0x20 DUP7 ADD PUSH2 0x3600 JUMP JUMPDEST PUSH2 0x3669 DUP2 PUSH2 0x362A JUMP JUMPDEST DUP5 ADD SWAP2 POP POP SWAP3 SWAP2 POP POP JUMP JUMPDEST PUSH1 0x0 PUSH1 0x20 DUP3 ADD SWAP1 POP DUP2 DUP2 SUB PUSH1 0x0 DUP4 ADD MSTORE PUSH2 0x368E DUP2 DUP5 PUSH2 0x363B JUMP JUMPDEST SWAP1 POP SWAP3 SWAP2 POP POP JUMP JUMPDEST PUSH1 0x0 DUP2 SWAP1 POP SWAP2 SWAP1 POP JUMP JUMPDEST PUSH2 0x36A9 DUP2 PUSH2 0x3696 JUMP JUMPDEST DUP2 EQ PUSH2 0x36B4 JUMPI PUSH1 0x0 DUP1 REVERT JUMPDEST POP JUMP JUMPDEST PUSH1 0x0 DUP2 CALLDATALOAD SWAP1 POP PUSH2 0x36C6 DUP2 PUSH2 0x36A0 JUMP JUMPDEST SWAP3 SWAP2 POP POP JUMP JUMPDEST PUSH1 0x0 PUSH1 0x20 DUP3 DUP5 SUB SLT ISZERO PUSH2 0x36E2 JUMPI PUSH2 0x36E1 PUSH2 0x351F JUMP JUMPDEST JUMPDEST PUSH1 0x0 PUSH2 0x36F0 DUP5 DUP3 DUP6 ADD PUSH2 0x36B7 JUMP JUMPDEST SWAP2 POP POP SWAP3 SWAP2 POP POP JUMP JUMPDEST PUSH1 0x0 PUSH20 0xFFFFFFFFFFFFFFFFFFFFFFFFFFFFFFFFFFFFFFFF DUP3 AND SWAP1 POP SWAP2 SWAP1 POP JUMP JUMPDEST PUSH1 0x0 PUSH2 0x3724 DUP3 PUSH2 0x36F9 JUMP JUMPDEST SWAP1 POP SWAP2 SWAP1 POP JUMP JUMPDEST PUSH2 0x3734 DUP2 PUSH2 0x3719 JUMP JUMPDEST DUP3 MSTORE POP POP JUMP JUMPDEST PUSH1 0x0 PUSH1 0x20 DUP3 ADD SWAP1 POP PUSH2 0x374F PUSH1 0x0 DUP4 ADD DUP5 PUSH2 0x372B JUMP JUMPDEST SWAP3 SWAP2 POP POP JUMP JUMPDEST PUSH2 0x375E DUP2 PUSH2 0x3719 JUMP JUMPDEST DUP2 EQ PUSH2 0x3769 JUMPI PUSH1 0x0 DUP1 REVERT JUMPDEST POP JUMP JUMPDEST PUSH1 0x0 DUP2 CALLDATALOAD SWAP1 POP PUSH2 0x377B DUP2 PUSH2 0x3755 JUMP JUMPDEST SWAP3 SWAP2 POP POP JUMP JUMPDEST PUSH1 0x0 PUSH1 0x20 DUP3 DUP5 SUB SLT ISZERO PUSH2 0x3797 JUMPI PUSH2 0x3796 PUSH2 0x351F JUMP JUMPDEST JUMPDEST PUSH1 0x0 PUSH2 0x37A5 DUP5 DUP3 DUP6 ADD PUSH2 0x376C JUMP JUMPDEST SWAP2 POP POP SWAP3 SWAP2 POP POP JUMP JUMPDEST PUSH1 0x0 DUP1 PUSH1 0x40 DUP4 DUP6 SUB SLT ISZERO PUSH2 0x37C5 JUMPI PUSH2 0x37C4 PUSH2 0x351F JUMP JUMPDEST JUMPDEST PUSH1 0x0 PUSH2 0x37D3 DUP6 DUP3 DUP7 ADD PUSH2 0x376C JUMP JUMPDEST SWAP3 POP POP PUSH1 0x20 PUSH2 0x37E4 DUP6 DUP3 DUP7 ADD PUSH2 0x36B7 JUMP JUMPDEST SWAP2 POP POP SWAP3 POP SWAP3 SWAP1 POP JUMP JUMPDEST PUSH1 0x0 DUP2 SWAP1 POP SWAP2 SWAP1 POP JUMP JUMPDEST PUSH2 0x3801 DUP2 PUSH2 0x37EE JUMP JUMPDEST DUP3 MSTORE POP POP JUMP JUMPDEST PUSH1 0x0 PUSH1 0x20 DUP3 ADD SWAP1 POP PUSH2 0x381C PUSH1 0x0 DUP4 ADD DUP5 PUSH2 0x37F8 JUMP JUMPDEST SWAP3 SWAP2 POP POP JUMP JUMPDEST PUSH2 0x382B DUP2 PUSH2 0x3696 JUMP JUMPDEST DUP3 MSTORE POP POP JUMP JUMPDEST PUSH1 0x0 PUSH1 0x20 DUP3 ADD SWAP1 POP PUSH2 0x3846 PUSH1 0x0 DUP4 ADD DUP5 PUSH2 0x3822 JUMP JUMPDEST SWAP3 SWAP2 POP POP JUMP JUMPDEST PUSH1 0x0 DUP1 PUSH1 0x0 PUSH1 0x60 DUP5 DUP7 SUB SLT ISZERO PUSH2 0x3865 JUMPI PUSH2 0x3864 PUSH2 0x351F JUMP JUMPDEST JUMPDEST PUSH1 0x0 PUSH2 0x3873 DUP7 DUP3 DUP8 ADD PUSH2 0x376C JUMP JUMPDEST SWAP4 POP POP PUSH1 0x20 PUSH2 0x3884 DUP7 DUP3 DUP8 ADD PUSH2 0x376C JUMP JUMPDEST SWAP3 POP POP PUSH1 0x40 PUSH2 0x3895 DUP7 DUP3 DUP8 ADD PUSH2 0x36B7 JUMP JUMPDEST SWAP2 POP POP SWAP3 POP SWAP3 POP SWAP3 JUMP JUMPDEST PUSH2 0x38A8 DUP2 PUSH2 0x37EE JUMP JUMPDEST DUP2 EQ PUSH2 0x38B3 JUMPI PUSH1 0x0 DUP1 REVERT JUMPDEST POP JUMP JUMPDEST PUSH1 0x0 DUP2 CALLDATALOAD SWAP1 POP PUSH2 0x38C5 DUP2 PUSH2 0x389F JUMP JUMPDEST SWAP3 SWAP2 POP POP JUMP JUMPDEST PUSH1 0x0 PUSH1 0x20 DUP3 DUP5 SUB SLT ISZERO PUSH2 0x38E1 JUMPI PUSH2 0x38E0 PUSH2 0x351F JUMP JUMPDEST JUMPDEST PUSH1 0x0 PUSH2 0x38EF DUP5 DUP3 DUP6 ADD PUSH2 0x38B6 JUMP JUMPDEST SWAP2 POP POP SWAP3 SWAP2 POP POP JUMP JUMPDEST PUSH1 0x0 DUP1 REVERT JUMPDEST PUSH1 0x0 DUP1 REVERT JUMPDEST PUSH1 0x0 DUP1 REVERT JUMPDEST PUSH1 0x0 DUP1 DUP4 PUSH1 0x1F DUP5 ADD SLT PUSH2 0x391D JUMPI PUSH2 0x391C PUSH2 0x38F8 JUMP JUMPDEST JUMPDEST DUP3 CALLDATALOAD SWAP1 POP PUSH8 0xFFFFFFFFFFFFFFFF DUP2 GT ISZERO PUSH2 0x393A JUMPI PUSH2 0x3939 PUSH2 0x38FD JUMP JUMPDEST JUMPDEST PUSH1 0x20 DUP4 ADD SWAP2 POP DUP4 PUSH1 0x1 DUP3 MUL DUP4 ADD GT ISZERO PUSH2 0x3956 JUMPI PUSH2 0x3955 PUSH2 0x3902 JUMP JUMPDEST JUMPDEST SWAP3 POP SWAP3 SWAP1 POP JUMP JUMPDEST PUSH2 0x3966 DUP2 PUSH2 0x35AE JUMP JUMPDEST DUP2 EQ PUSH2 0x3971 JUMPI PUSH1 0x0 DUP1 REVERT JUMPDEST POP JUMP JUMPDEST PUSH1 0x0 DUP2 CALLDATALOAD SWAP1 POP PUSH2 0x3983 DUP2 PUSH2 0x395D JUMP JUMPDEST SWAP3 SWAP2 POP POP JUMP JUMPDEST PUSH1 0x0 DUP1 PUSH1 0x0 DUP1 PUSH1 0x0 DUP1 PUSH1 0x0 PUSH1 0x80 DUP9 DUP11 SUB SLT ISZERO PUSH2 0x39A8 JUMPI PUSH2 0x39A7 PUSH2 0x351F JUMP JUMPDEST JUMPDEST PUSH1 0x0 DUP9 ADD CALLDATALOAD PUSH8 0xFFFFFFFFFFFFFFFF DUP2 GT ISZERO PUSH2 0x39C6 JUMPI PUSH2 0x39C5 PUSH2 0x3524 JUMP JUMPDEST JUMPDEST PUSH2 0x39D2 DUP11 DUP3 DUP12 ADD PUSH2 0x3907 JUMP JUMPDEST SWAP8 POP SWAP8 POP POP PUSH1 0x20 DUP9 ADD CALLDATALOAD PUSH8 0xFFFFFFFFFFFFFFFF DUP2 GT ISZERO PUSH2 0x39F5 JUMPI PUSH2 0x39F4 PUSH2 0x3524 JUMP JUMPDEST JUMPDEST PUSH2 0x3A01 DUP11 DUP3 DUP12 ADD PUSH2 0x3907 JUMP JUMPDEST SWAP6 POP SWAP6 POP POP PUSH1 0x40 DUP9 ADD CALLDATALOAD PUSH8 0xFFFFFFFFFFFFFFFF DUP2 GT ISZERO PUSH2 0x3A24 JUMPI PUSH2 0x3A23 PUSH2 0x3524 JUMP JUMPDEST JUMPDEST PUSH2 0x3A30 DUP11 DUP3 DUP12 ADD PUSH2 0x3907 JUMP JUMPDEST SWAP4 POP SWAP4 POP POP PUSH1 0x60 PUSH2 0x3A43 DUP11 DUP3 DUP12 ADD PUSH2 0x3974 JUMP JUMPDEST SWAP2 POP POP SWAP3 SWAP6 SWAP9 SWAP2 SWAP5 SWAP8 POP SWAP3 SWAP6 POP JUMP JUMPDEST PUSH1 0x0 DUP1 PUSH1 0x40 DUP4 DUP6 SUB SLT ISZERO PUSH2 0x3A69 JUMPI PUSH2 0x3A68 PUSH2 0x351F JUMP JUMPDEST JUMPDEST PUSH1 0x0 PUSH2 0x3A77 DUP6 DUP3 DUP7 ADD PUSH2 0x38B6 JUMP JUMPDEST SWAP3 POP POP PUSH1 0x20 PUSH2 0x3A88 DUP6 DUP3 DUP7 ADD PUSH2 0x376C JUMP JUMPDEST SWAP2 POP POP SWAP3 POP SWAP3 SWAP1 POP JUMP JUMPDEST PUSH1 0x0 DUP1 DUP4 PUSH1 0x1F DUP5 ADD SLT PUSH2 0x3AA8 JUMPI PUSH2 0x3AA7 PUSH2 0x38F8 JUMP JUMPDEST JUMPDEST DUP3 CALLDATALOAD SWAP1 POP PUSH8 0xFFFFFFFFFFFFFFFF DUP2 GT ISZERO PUSH2 0x3AC5 JUMPI PUSH2 0x3AC4 PUSH2 0x38FD JUMP JUMPDEST JUMPDEST PUSH1 0x20 DUP4 ADD SWAP2 POP DUP4 PUSH1 0x20 DUP3 MUL DUP4 ADD GT ISZERO PUSH2 0x3AE1 JUMPI PUSH2 0x3AE0 PUSH2 0x3902 JUMP JUMPDEST JUMPDEST SWAP3 POP SWAP3 SWAP1 POP JUMP JUMPDEST PUSH1 0x0 PUSH1 0xFF DUP3 AND SWAP1 POP SWAP2 SWAP1 POP JUMP JUMPDEST PUSH2 0x3AFE DUP2 PUSH2 0x3AE8 JUMP JUMPDEST DUP2 EQ PUSH2 0x3B09 JUMPI PUSH1 0x0 DUP1 REVERT JUMPDEST POP JUMP JUMPDEST PUSH1 0x0 DUP2 CALLDATALOAD SWAP1 POP PUSH2 0x3B1B DUP2 PUSH2 0x3AF5 JUMP JUMPDEST SWAP3 SWAP2 POP POP JUMP JUMPDEST PUSH1 0x4 DUP2 LT PUSH2 0x3B2E JUMPI PUSH1 0x0 DUP1 REVERT JUMPDEST POP JUMP JUMPDEST PUSH1 0x0 DUP2 CALLDATALOAD SWAP1 POP PUSH2 0x3B40 DUP2 PUSH2 0x3B21 JUMP JUMPDEST SWAP3 SWAP2 POP POP JUMP JUMPDEST PUSH1 0x5 DUP2 LT PUSH2 0x3B53 JUMPI PUSH1 0x0 DUP1 REVERT JUMPDEST POP JUMP JUMPDEST PUSH1 0x0 DUP2 CALLDATALOAD SWAP1 POP PUSH2 0x3B65 DUP2 PUSH2 0x3B46 JUMP JUMPDEST SWAP3 SWAP2 POP POP JUMP JUMPDEST PUSH1 0x0 DUP1 PUSH1 0x0 DUP1 PUSH1 0x0 DUP1 PUSH1 0x0 DUP1 PUSH1 0x0 DUP1 PUSH1 0x0 PUSH1 0xE0 DUP13 DUP15 SUB SLT ISZERO PUSH2 0x3B90 JUMPI PUSH2 0x3B8F PUSH2 0x351F JUMP JUMPDEST JUMPDEST PUSH1 0x0 DUP13 ADD CALLDATALOAD PUSH8 0xFFFFFFFFFFFFFFFF DUP2 GT ISZERO PUSH2 0x3BAE JUMPI PUSH2 0x3BAD PUSH2 0x3524 JUMP JUMPDEST JUMPDEST PUSH2 0x3BBA DUP15 DUP3 DUP16 ADD PUSH2 0x3A92 JUMP JUMPDEST SWAP12 POP SWAP12 POP POP PUSH1 0x20 DUP13 ADD CALLDATALOAD PUSH8 0xFFFFFFFFFFFFFFFF DUP2 GT ISZERO PUSH2 0x3BDD JUMPI PUSH2 0x3BDC PUSH2 0x3524 JUMP JUMPDEST JUMPDEST PUSH2 0x3BE9 DUP15 DUP3 DUP16 ADD PUSH2 0x3A92 JUMP JUMPDEST SWAP10 POP SWAP10 POP POP PUSH1 0x40 PUSH2 0x3BFC DUP15 DUP3 DUP16 ADD PUSH2 0x3B0C JUMP JUMPDEST SWAP8 POP POP PUSH1 0x60 DUP13 ADD CALLDATALOAD PUSH8 0xFFFFFFFFFFFFFFFF DUP2 GT ISZERO PUSH2 0x3C1D JUMPI PUSH2 0x3C1C PUSH2 0x3524 JUMP JUMPDEST JUMPDEST PUSH2 0x3C29 DUP15 DUP3 DUP16 ADD PUSH2 0x3907 JUMP JUMPDEST SWAP7 POP SWAP7 POP POP PUSH1 0x80 PUSH2 0x3C3C DUP15 DUP3 DUP16 ADD PUSH2 0x3B31 JUMP JUMPDEST SWAP5 POP POP PUSH1 0xA0 DUP13 ADD CALLDATALOAD PUSH8 0xFFFFFFFFFFFFFFFF DUP2 GT ISZERO PUSH2 0x3C5D JUMPI PUSH2 0x3C5C PUSH2 0x3524 JUMP JUMPDEST JUMPDEST PUSH2 0x3C69 DUP15 DUP3 DUP16 ADD PUSH2 0x3907 JUMP JUMPDEST SWAP4 POP SWAP4 POP POP PUSH1 0xC0 PUSH2 0x3C7C DUP15 DUP3 DUP16 ADD PUSH2 0x3B56 JUMP JUMPDEST SWAP2 POP POP SWAP3 SWAP6 SWAP9 SWAP12 POP SWAP3 SWAP6 SWAP9 SWAP12 SWAP1 SWAP4 SWAP7 SWAP10 POP JUMP JUMPDEST PUSH1 0x0 DUP1 PUSH1 0x0 DUP1 PUSH1 0x0 DUP1 PUSH1 0x60 DUP8 DUP10 SUB SLT ISZERO PUSH2 0x3CAC JUMPI PUSH2 0x3CAB PUSH2 0x351F JUMP JUMPDEST JUMPDEST PUSH1 0x0 DUP8 ADD CALLDATALOAD PUSH8 0xFFFFFFFFFFFFFFFF DUP2 GT ISZERO PUSH2 0x3CCA JUMPI PUSH2 0x3CC9 PUSH2 0x3524 JUMP JUMPDEST JUMPDEST PUSH2 0x3CD6 DUP10 DUP3 DUP11 ADD PUSH2 0x3907 JUMP JUMPDEST SWAP7 POP SWAP7 POP POP PUSH1 0x20 DUP8 ADD CALLDATALOAD PUSH8 0xFFFFFFFFFFFFFFFF DUP2 GT ISZERO PUSH2 0x3CF9 JUMPI PUSH2 0x3CF8 PUSH2 0x3524 JUMP JUMPDEST JUMPDEST PUSH2 0x3D05 DUP10 DUP3 DUP11 ADD PUSH2 0x3907 JUMP JUMPDEST SWAP5 POP SWAP5 POP POP PUSH1 0x40 DUP8 ADD CALLDATALOAD PUSH8 0xFFFFFFFFFFFFFFFF DUP2 GT ISZERO PUSH2 0x3D28 JUMPI PUSH2 0x3D27 PUSH2 0x3524 JUMP JUMPDEST JUMPDEST PUSH2 0x3D34 DUP10 DUP3 DUP11 ADD PUSH2 0x3907 JUMP JUMPDEST SWAP3 POP SWAP3 POP POP SWAP3 SWAP6 POP SWAP3 SWAP6 POP SWAP3 SWAP6 JUMP JUMPDEST PUSH2 0x3D4C DUP2 PUSH2 0x3696 JUMP JUMPDEST DUP3 MSTORE POP POP JUMP JUMPDEST PUSH1 0x0 DUP3 DUP3 MSTORE PUSH1 0x20 DUP3 ADD SWAP1 POP SWAP3 SWAP2 POP POP JUMP JUMPDEST PUSH1 0x0 PUSH2 0x3D6E DUP3 PUSH2 0x35E4 JUMP JUMPDEST PUSH2 0x3D78 DUP2 DUP6 PUSH2 0x3D52 JUMP JUMPDEST SWAP4 POP PUSH2 0x3D88 DUP2 DUP6 PUSH1 0x20 DUP7 ADD PUSH2 0x3600 JUMP JUMPDEST PUSH2 0x3D91 DUP2 PUSH2 0x362A JUMP JUMPDEST DUP5 ADD SWAP2 POP POP SWAP3 SWAP2 POP POP JUMP JUMPDEST PUSH1 0x0 DUP2 MLOAD SWAP1 POP SWAP2 SWAP1 POP JUMP JUMPDEST PUSH1 0x0 DUP3 DUP3 MSTORE PUSH1 0x20 DUP3 ADD SWAP1 POP SWAP3 SWAP2 POP POP JUMP JUMPDEST PUSH1 0x0 DUP2 SWAP1 POP PUSH1 0x20 DUP3 ADD SWAP1 POP SWAP2 SWAP1 POP JUMP JUMPDEST PUSH1 0x0 PUSH2 0x3DD4 DUP4 DUP4 PUSH2 0x3D43 JUMP JUMPDEST PUSH1 0x20 DUP4 ADD SWAP1 POP SWAP3 SWAP2 POP POP JUMP JUMPDEST PUSH1 0x0 PUSH1 0x20 DUP3 ADD SWAP1 POP SWAP2 SWAP1 POP JUMP JUMPDEST PUSH1 0x0 PUSH2 0x3DF8 DUP3 PUSH2 0x3D9C JUMP JUMPDEST PUSH2 0x3E02 DUP2 DUP6 PUSH2 0x3DA7 JUMP JUMPDEST SWAP4 POP PUSH2 0x3E0D DUP4 PUSH2 0x3DB8 JUMP JUMPDEST DUP1 PUSH1 0x0 JUMPDEST DUP4 DUP2 LT ISZERO PUSH2 0x3E3E JUMPI DUP2 MLOAD PUSH2 0x3E25 DUP9 DUP3 PUSH2 0x3DC8 JUMP JUMPDEST SWAP8 POP PUSH2 0x3E30 DUP4 PUSH2 0x3DE0 JUMP JUMPDEST SWAP3 POP POP PUSH1 0x1 DUP2 ADD SWAP1 POP PUSH2 0x3E11 JUMP JUMPDEST POP DUP6 SWAP4 POP POP POP POP SWAP3 SWAP2 POP POP JUMP JUMPDEST PUSH2 0x3E54 DUP2 PUSH2 0x35AE JUMP JUMPDEST DUP3 MSTORE POP POP JUMP JUMPDEST PUSH1 0x0 PUSH2 0x100 DUP4 ADD PUSH1 0x0 DUP4 ADD MLOAD PUSH2 0x3E73 PUSH1 0x0 DUP7 ADD DUP3 PUSH2 0x3D43 JUMP JUMPDEST POP PUSH1 0x20 DUP4 ADD MLOAD PUSH2 0x3E86 PUSH1 0x20 DUP7 ADD DUP3 PUSH2 0x3D43 JUMP JUMPDEST POP PUSH1 0x40 DUP4 ADD MLOAD DUP5 DUP3 SUB PUSH1 0x40 DUP7 ADD MSTORE PUSH2 0x3E9E DUP3 DUP3 PUSH2 0x3D63 JUMP JUMPDEST SWAP2 POP POP PUSH1 0x60 DUP4 ADD MLOAD DUP5 DUP3 SUB PUSH1 0x60 DUP7 ADD MSTORE PUSH2 0x3EB8 DUP3 DUP3 PUSH2 0x3D63 JUMP JUMPDEST SWAP2 POP POP PUSH1 0x80 DUP4 ADD MLOAD DUP5 DUP3 SUB PUSH1 0x80 DUP7 ADD MSTORE PUSH2 0x3ED2 DUP3 DUP3 PUSH2 0x3D63 JUMP JUMPDEST SWAP2 POP POP PUSH1 0xA0 DUP4 ADD MLOAD DUP5 DUP3 SUB PUSH1 0xA0 DUP7 ADD MSTORE PUSH2 0x3EEC DUP3 DUP3 PUSH2 0x3DED JUMP JUMPDEST SWAP2 POP POP PUSH1 0xC0 DUP4 ADD MLOAD PUSH2 0x3F01 PUSH1 0xC0 DUP7 ADD DUP3 PUSH2 0x3E4B JUMP JUMPDEST POP PUSH1 0xE0 DUP4 ADD MLOAD PUSH2 0x3F14 PUSH1 0xE0 DUP7 ADD DUP3 PUSH2 0x3E4B JUMP JUMPDEST POP DUP1 SWAP2 POP POP SWAP3 SWAP2 POP POP JUMP JUMPDEST PUSH1 0x0 PUSH1 0x20 DUP3 ADD SWAP1 POP DUP2 DUP2 SUB PUSH1 0x0 DUP4 ADD MSTORE PUSH2 0x3F39 DUP2 DUP5 PUSH2 0x3E5A JUMP JUMPDEST SWAP1 POP SWAP3 SWAP2 POP POP JUMP JUMPDEST PUSH1 0x0 DUP1 PUSH1 0x40 DUP4 DUP6 SUB SLT ISZERO PUSH2 0x3F58 JUMPI PUSH2 0x3F57 PUSH2 0x351F JUMP JUMPDEST JUMPDEST PUSH1 0x0 PUSH2 0x3F66 DUP6 DUP3 DUP7 ADD PUSH2 0x376C JUMP JUMPDEST SWAP3 POP POP PUSH1 0x20 PUSH2 0x3F77 DUP6 DUP3 DUP7 ADD PUSH2 0x3974 JUMP JUMPDEST SWAP2 POP POP SWAP3 POP SWAP3 SWAP1 POP JUMP JUMPDEST PUSH1 0x0 DUP1 REVERT JUMPDEST PUSH32 0x4E487B7100000000000000000000000000000000000000000000000000000000 PUSH1 0x0 MSTORE PUSH1 0x41 PUSH1 0x4 MSTORE PUSH1 0x24 PUSH1 0x0 REVERT JUMPDEST PUSH2 0x3FBE DUP3 PUSH2 0x362A JUMP JUMPDEST DUP2 ADD DUP2 DUP2 LT PUSH8 0xFFFFFFFFFFFFFFFF DUP3 GT OR ISZERO PUSH2 0x3FDD JUMPI PUSH2 0x3FDC PUSH2 0x3F86 JUMP JUMPDEST JUMPDEST DUP1 PUSH1 0x40 MSTORE POP POP POP JUMP JUMPDEST PUSH1 0x0 PUSH2 0x3FF0 PUSH2 0x3515 JUMP JUMPDEST SWAP1 POP PUSH2 0x3FFC DUP3 DUP3 PUSH2 0x3FB5 JUMP JUMPDEST SWAP2 SWAP1 POP JUMP JUMPDEST PUSH1 0x0 PUSH8 0xFFFFFFFFFFFFFFFF DUP3 GT ISZERO PUSH2 0x401C JUMPI PUSH2 0x401B PUSH2 0x3F86 JUMP JUMPDEST JUMPDEST PUSH2 0x4025 DUP3 PUSH2 0x362A JUMP JUMPDEST SWAP1 POP PUSH1 0x20 DUP2 ADD SWAP1 POP SWAP2 SWAP1 POP JUMP JUMPDEST DUP3 DUP2 DUP4 CALLDATACOPY PUSH1 0x0 DUP4 DUP4 ADD MSTORE POP POP POP JUMP JUMPDEST PUSH1 0x0 PUSH2 0x4054 PUSH2 0x404F DUP5 PUSH2 0x4001 JUMP JUMPDEST PUSH2 0x3FE6 JUMP JUMPDEST SWAP1 POP DUP3 DUP2 MSTORE PUSH1 0x20 DUP2 ADD DUP5 DUP5 DUP5 ADD GT ISZERO PUSH2 0x4070 JUMPI PUSH2 0x406F PUSH2 0x3F81 JUMP JUMPDEST JUMPDEST PUSH2 0x407B DUP5 DUP3 DUP6 PUSH2 0x4032 JUMP JUMPDEST POP SWAP4 SWAP3 POP POP POP JUMP JUMPDEST PUSH1 0x0 DUP3 PUSH1 0x1F DUP4 ADD SLT PUSH2 0x4098 JUMPI PUSH2 0x4097 PUSH2 0x38F8 JUMP JUMPDEST JUMPDEST DUP2 CALLDATALOAD PUSH2 0x40A8 DUP5 DUP3 PUSH1 0x20 DUP7 ADD PUSH2 0x4041 JUMP JUMPDEST SWAP2 POP POP SWAP3 SWAP2 POP POP JUMP JUMPDEST PUSH1 0x0 DUP1 PUSH1 0x0 DUP1 PUSH1 0x80 DUP6 DUP8 SUB SLT ISZERO PUSH2 0x40CB JUMPI PUSH2 0x40CA PUSH2 0x351F JUMP JUMPDEST JUMPDEST PUSH1 0x0 PUSH2 0x40D9 DUP8 DUP3 DUP9 ADD PUSH2 0x376C JUMP JUMPDEST SWAP5 POP POP PUSH1 0x20 PUSH2 0x40EA DUP8 DUP3 DUP9 ADD PUSH2 0x376C JUMP JUMPDEST SWAP4 POP POP PUSH1 0x40 PUSH2 0x40FB DUP8 DUP3 DUP9 ADD PUSH2 0x36B7 JUMP JUMPDEST SWAP3 POP POP PUSH1 0x60 DUP6 ADD CALLDATALOAD PUSH8 0xFFFFFFFFFFFFFFFF DUP2 GT ISZERO PUSH2 0x411C JUMPI PUSH2 0x411B PUSH2 0x3524 JUMP JUMPDEST JUMPDEST PUSH2 0x4128 DUP8 DUP3 DUP9 ADD PUSH2 0x4083 JUMP JUMPDEST SWAP2 POP POP SWAP3 SWAP6 SWAP2 SWAP5 POP SWAP3 POP JUMP JUMPDEST PUSH1 0x0 DUP1 PUSH1 0x40 DUP4 DUP6 SUB SLT ISZERO PUSH2 0x414B JUMPI PUSH2 0x414A PUSH2 0x351F JUMP JUMPDEST JUMPDEST PUSH1 0x0 PUSH2 0x4159 DUP6 DUP3 DUP7 ADD PUSH2 0x376C JUMP JUMPDEST SWAP3 POP POP PUSH1 0x20 PUSH2 0x416A DUP6 DUP3 DUP7 ADD PUSH2 0x376C JUMP JUMPDEST SWAP2 POP POP SWAP3 POP SWAP3 SWAP1 POP JUMP JUMPDEST PUSH1 0x0 PUSH1 0xE0 DUP4 ADD PUSH1 0x0 DUP4 ADD MLOAD PUSH2 0x418C PUSH1 0x0 DUP7 ADD DUP3 PUSH2 0x3D43 JUMP JUMPDEST POP PUSH1 0x20 DUP4 ADD MLOAD PUSH2 0x419F PUSH1 0x20 DUP7 ADD DUP3 PUSH2 0x3D43 JUMP JUMPDEST POP PUSH1 0x40 DUP4 ADD MLOAD DUP5 DUP3 SUB PUSH1 0x40 DUP7 ADD MSTORE PUSH2 0x41B7 DUP3 DUP3 PUSH2 0x3D63 JUMP JUMPDEST SWAP2 POP POP PUSH1 0x60 DUP4 ADD MLOAD DUP5 DUP3 SUB PUSH1 0x60 DUP7 ADD MSTORE PUSH2 0x41D1 DUP3 DUP3 PUSH2 0x3D63 JUMP JUMPDEST SWAP2 POP POP PUSH1 0x80 DUP4 ADD MLOAD DUP5 DUP3 SUB PUSH1 0x80 DUP7 ADD MSTORE PUSH2 0x41EB DUP3 DUP3 PUSH2 0x3D63 JUMP JUMPDEST SWAP2 POP POP PUSH1 0xA0 DUP4 ADD MLOAD PUSH2 0x4200 PUSH1 0xA0 DUP7 ADD DUP3 PUSH2 0x3E4B JUMP JUMPDEST POP PUSH1 0xC0 DUP4 ADD MLOAD DUP5 DUP3 SUB PUSH1 0xC0 DUP7 ADD MSTORE PUSH2 0x4218 DUP3 DUP3 PUSH2 0x3DED JUMP JUMPDEST SWAP2 POP POP DUP1 SWAP2 POP POP SWAP3 SWAP2 POP POP JUMP JUMPDEST PUSH1 0x0 PUSH1 0x20 DUP3 ADD SWAP1 POP DUP2 DUP2 SUB PUSH1 0x0 DUP4 ADD MSTORE PUSH2 0x423F DUP2 DUP5 PUSH2 0x4174 JUMP JUMPDEST SWAP1 POP SWAP3 SWAP2 POP POP JUMP JUMPDEST PUSH32 0x4E487B7100000000000000000000000000000000000000000000000000000000 PUSH1 0x0 MSTORE PUSH1 0x22 PUSH1 0x4 MSTORE PUSH1 0x24 PUSH1 0x0 REVERT JUMPDEST PUSH1 0x0 PUSH1 0x2 DUP3 DIV SWAP1 POP PUSH1 0x1 DUP3 AND DUP1 PUSH2 0x428E JUMPI PUSH1 0x7F DUP3 AND SWAP2 POP JUMPDEST PUSH1 0x20 DUP3 LT DUP2 SUB PUSH2 0x42A1 JUMPI PUSH2 0x42A0 PUSH2 0x4247 JUMP JUMPDEST JUMPDEST POP SWAP2 SWAP1 POP JUMP JUMPDEST PUSH1 0x0 DUP2 MLOAD SWAP1 POP PUSH2 0x42B6 DUP2 PUSH2 0x395D JUMP JUMPDEST SWAP3 SWAP2 POP POP JUMP JUMPDEST PUSH1 0x0 PUSH1 0x20 DUP3 DUP5 SUB SLT ISZERO PUSH2 0x42D2 JUMPI PUSH2 0x42D1 PUSH2 0x351F JUMP JUMPDEST JUMPDEST PUSH1 0x0 PUSH2 0x42E0 DUP5 DUP3 DUP6 ADD PUSH2 0x42A7 JUMP JUMPDEST SWAP2 POP POP SWAP3 SWAP2 POP POP JUMP JUMPDEST PUSH1 0x0 PUSH1 0x40 DUP3 ADD SWAP1 POP PUSH2 0x42FE PUSH1 0x0 DUP4 ADD DUP6 PUSH2 0x372B JUMP JUMPDEST PUSH2 0x430B PUSH1 0x20 DUP4 ADD DUP5 PUSH2 0x3822 JUMP JUMPDEST SWAP4 SWAP3 POP POP POP JUMP JUMPDEST PUSH1 0x0 DUP2 MLOAD SWAP1 POP PUSH2 0x4321 DUP2 PUSH2 0x36A0 JUMP JUMPDEST SWAP3 SWAP2 POP POP JUMP JUMPDEST PUSH1 0x0 PUSH1 0x20 DUP3 DUP5 SUB SLT ISZERO PUSH2 0x433D JUMPI PUSH2 0x433C PUSH2 0x351F JUMP JUMPDEST JUMPDEST PUSH1 0x0 PUSH2 0x434B DUP5 DUP3 DUP6 ADD PUSH2 0x4312 JUMP JUMPDEST SWAP2 POP POP SWAP3 SWAP2 POP POP JUMP JUMPDEST PUSH1 0x0 PUSH1 0x60 DUP3 ADD SWAP1 POP PUSH2 0x4369 PUSH1 0x0 DUP4 ADD DUP7 PUSH2 0x372B JUMP JUMPDEST PUSH2 0x4376 PUSH1 0x20 DUP4 ADD DUP6 PUSH2 0x3822 JUMP JUMPDEST PUSH2 0x4383 PUSH1 0x40 DUP4 ADD DUP5 PUSH2 0x372B JUMP JUMPDEST SWAP5 SWAP4 POP POP POP POP JUMP JUMPDEST PUSH1 0x0 PUSH2 0x4397 DUP4 DUP6 PUSH2 0x35EF JUMP JUMPDEST SWAP4 POP PUSH2 0x43A4 DUP4 DUP6 DUP5 PUSH2 0x4032 JUMP JUMPDEST PUSH2 0x43AD DUP4 PUSH2 0x362A JUMP JUMPDEST DUP5 ADD SWAP1 POP SWAP4 SWAP3 POP POP POP JUMP JUMPDEST PUSH1 0x0 PUSH1 0xA0 DUP3 ADD SWAP1 POP PUSH2 0x43CD PUSH1 0x0 DUP4 ADD DUP12 PUSH2 0x372B JUMP JUMPDEST DUP2 DUP2 SUB PUSH1 0x20 DUP4 ADD MSTORE PUSH2 0x43E0 DUP2 DUP10 DUP12 PUSH2 0x438B JUMP JUMPDEST SWAP1 POP DUP2 DUP2 SUB PUSH1 0x40 DUP4 ADD MSTORE PUSH2 0x43F5 DUP2 DUP8 DUP10 PUSH2 0x438B JUMP JUMPDEST SWAP1 POP DUP2 DUP2 SUB PUSH1 0x60 DUP4 ADD MSTORE PUSH2 0x440A DUP2 DUP6 DUP8 PUSH2 0x438B JUMP JUMPDEST SWAP1 POP PUSH2 0x4419 PUSH1 0x80 DUP4 ADD DUP5 PUSH2 0x35BA JUMP JUMPDEST SWAP10 SWAP9 POP POP POP POP POP POP POP POP POP JUMP JUMPDEST PUSH32 0x4E487B7100000000000000000000000000000000000000000000000000000000 PUSH1 0x0 MSTORE PUSH1 0x11 PUSH1 0x4 MSTORE PUSH1 0x24 PUSH1 0x0 REVERT JUMPDEST PUSH1 0x0 PUSH2 0x4460 DUP3 PUSH2 0x3696 JUMP JUMPDEST SWAP2 POP PUSH32 0xFFFFFFFFFFFFFFFFFFFFFFFFFFFFFFFFFFFFFFFFFFFFFFFFFFFFFFFFFFFFFFFF DUP3 SUB PUSH2 0x4492 JUMPI PUSH2 0x4491 PUSH2 0x4426 JUMP JUMPDEST JUMPDEST PUSH1 0x1 DUP3 ADD SWAP1 POP SWAP2 SWAP1 POP JUMP JUMPDEST PUSH1 0x0 DUP3 DUP3 MSTORE PUSH1 0x20 DUP3 ADD SWAP1 POP SWAP3 SWAP2 POP POP JUMP JUMPDEST PUSH1 0x0 DUP2 SWAP1 POP SWAP2 SWAP1 POP JUMP JUMPDEST PUSH2 0x44C1 DUP2 PUSH2 0x3AE8 JUMP JUMPDEST DUP3 MSTORE POP POP JUMP JUMPDEST PUSH1 0x0 PUSH2 0x44D3 DUP4 DUP4 PUSH2 0x44B8 JUMP JUMPDEST PUSH1 0x20 DUP4 ADD SWAP1 POP SWAP3 SWAP2 POP POP JUMP JUMPDEST PUSH1 0x0 PUSH2 0x44EE PUSH1 0x20 DUP5 ADD DUP5 PUSH2 0x3B0C JUMP JUMPDEST SWAP1 POP SWAP3 SWAP2 POP POP JUMP JUMPDEST PUSH1 0x0 PUSH1 0x20 DUP3 ADD SWAP1 POP SWAP2 SWAP1 POP JUMP JUMPDEST PUSH1 0x0 PUSH2 0x450F DUP4 DUP6 PUSH2 0x449D JUMP JUMPDEST SWAP4 POP PUSH2 0x451A DUP3 PUSH2 0x44AE JUMP JUMPDEST DUP1 PUSH1 0x0 JUMPDEST DUP6 DUP2 LT ISZERO PUSH2 0x4553 JUMPI PUSH2 0x4530 DUP3 DUP5 PUSH2 0x44DF JUMP JUMPDEST PUSH2 0x453A DUP9 DUP3 PUSH2 0x44C7 JUMP JUMPDEST SWAP8 POP PUSH2 0x4545 DUP4 PUSH2 0x44F6 JUMP JUMPDEST SWAP3 POP POP PUSH1 0x1 DUP2 ADD SWAP1 POP PUSH2 0x451E JUMP JUMPDEST POP DUP6 SWAP3 POP POP POP SWAP4 SWAP3 POP POP POP JUMP JUMPDEST PUSH2 0x4569 DUP2 PUSH2 0x3AE8 JUMP JUMPDEST DUP3 MSTORE POP POP JUMP JUMPDEST PUSH32 0x4E487B7100000000000000000000000000000000000000000000000000000000 PUSH1 0x0 MSTORE PUSH1 0x21 PUSH1 0x4 MSTORE PUSH1 0x24 PUSH1 0x0 REVERT JUMPDEST PUSH1 0x4 DUP2 LT PUSH2 0x45AF JUMPI PUSH2 0x45AE PUSH2 0x456F JUMP JUMPDEST JUMPDEST POP JUMP JUMPDEST PUSH1 0x0 DUP2 SWAP1 POP PUSH2 0x45C0 DUP3 PUSH2 0x459E JUMP JUMPDEST SWAP2 SWAP1 POP JUMP JUMPDEST PUSH1 0x0 PUSH2 0x45D0 DUP3 PUSH2 0x45B2 JUMP JUMPDEST SWAP1 POP SWAP2 SWAP1 POP JUMP JUMPDEST PUSH2 0x45E0 DUP2 PUSH2 0x45C5 JUMP JUMPDEST DUP3 MSTORE POP POP JUMP JUMPDEST PUSH1 0x5 DUP2 LT PUSH2 0x45F7 JUMPI PUSH2 0x45F6 PUSH2 0x456F JUMP JUMPDEST JUMPDEST POP JUMP JUMPDEST PUSH1 0x0 DUP2 SWAP1 POP PUSH2 0x4608 DUP3 PUSH2 0x45E6 JUMP JUMPDEST SWAP2 SWAP1 POP JUMP JUMPDEST PUSH1 0x0 PUSH2 0x4618 DUP3 PUSH2 0x45FA JUMP JUMPDEST SWAP1 POP SWAP2 SWAP1 POP JUMP JUMPDEST PUSH2 0x4628 DUP2 PUSH2 0x460D JUMP JUMPDEST DUP3 MSTORE POP POP JUMP JUMPDEST PUSH1 0x0 PUSH1 0xE0 DUP3 ADD SWAP1 POP DUP2 DUP2 SUB PUSH1 0x0 DUP4 ADD MSTORE PUSH2 0x4649 DUP2 DUP14 DUP16 PUSH2 0x4503 JUMP JUMPDEST SWAP1 POP DUP2 DUP2 SUB PUSH1 0x20 DUP4 ADD MSTORE PUSH2 0x465E DUP2 DUP12 DUP14 PUSH2 0x4503 JUMP JUMPDEST SWAP1 POP PUSH2 0x466D PUSH1 0x40 DUP4 ADD DUP11 PUSH2 0x4560 JUMP JUMPDEST DUP2 DUP2 SUB PUSH1 0x60 DUP4 ADD MSTORE PUSH2 0x4680 DUP2 DUP9 DUP11 PUSH2 0x438B JUMP JUMPDEST SWAP1 POP PUSH2 0x468F PUSH1 0x80 DUP4 ADD DUP8 PUSH2 0x45D7 JUMP JUMPDEST DUP2 DUP2 SUB PUSH1 0xA0 DUP4 ADD MSTORE PUSH2 0x46A2 DUP2 DUP6 DUP8 PUSH2 0x438B JUMP JUMPDEST SWAP1 POP PUSH2 0x46B1 PUSH1 0xC0 DUP4 ADD DUP5 PUSH2 0x461F JUMP JUMPDEST SWAP13 SWAP12 POP POP POP POP POP POP POP POP POP POP POP POP JUMP JUMPDEST PUSH1 0x0 PUSH1 0xC0 DUP3 ADD SWAP1 POP PUSH2 0x46D6 PUSH1 0x0 DUP4 ADD DUP13 PUSH2 0x372B JUMP JUMPDEST DUP2 DUP2 SUB PUSH1 0x20 DUP4 ADD MSTORE PUSH2 0x46E9 DUP2 DUP11 DUP13 PUSH2 0x438B JUMP JUMPDEST SWAP1 POP DUP2 DUP2 SUB PUSH1 0x40 DUP4 ADD MSTORE PUSH2 0x46FE DUP2 DUP9 DUP11 PUSH2 0x438B JUMP JUMPDEST SWAP1 POP DUP2 DUP2 SUB PUSH1 0x60 DUP4 ADD MSTORE PUSH2 0x4713 DUP2 DUP7 DUP9 PUSH2 0x438B JUMP JUMPDEST SWAP1 POP PUSH2 0x4722 PUSH1 0x80 DUP4 ADD DUP6 PUSH2 0x35BA JUMP JUMPDEST PUSH2 0x472F PUSH1 0xA0 DUP4 ADD DUP5 PUSH2 0x35BA JUMP JUMPDEST SWAP11 SWAP10 POP POP POP POP POP POP POP POP POP POP JUMP JUMPDEST PUSH1 0x0 DUP1 REVERT JUMPDEST PUSH1 0x0 DUP1 REVERT JUMPDEST PUSH1 0x0 PUSH8 0xFFFFFFFFFFFFFFFF DUP3 GT ISZERO PUSH2 0x4762 JUMPI PUSH2 0x4761 PUSH2 0x3F86 JUMP JUMPDEST JUMPDEST PUSH2 0x476B DUP3 PUSH2 0x362A JUMP JUMPDEST SWAP1 POP PUSH1 0x20 DUP2 ADD SWAP1 POP SWAP2 SWAP1 POP JUMP JUMPDEST PUSH1 0x0 PUSH2 0x478B PUSH2 0x4786 DUP5 PUSH2 0x4747 JUMP JUMPDEST PUSH2 0x3FE6 JUMP JUMPDEST SWAP1 POP DUP3 DUP2 MSTORE PUSH1 0x20 DUP2 ADD DUP5 DUP5 DUP5 ADD GT ISZERO PUSH2 0x47A7 JUMPI PUSH2 0x47A6 PUSH2 0x3F81 JUMP JUMPDEST JUMPDEST PUSH2 0x47B2 DUP5 DUP3 DUP6 PUSH2 0x3600 JUMP JUMPDEST POP SWAP4 SWAP3 POP POP POP JUMP JUMPDEST PUSH1 0x0 DUP3 PUSH1 0x1F DUP4 ADD SLT PUSH2 0x47CF JUMPI PUSH2 0x47CE PUSH2 0x38F8 JUMP JUMPDEST JUMPDEST DUP2 MLOAD PUSH2 0x47DF DUP5 DUP3 PUSH1 0x20 DUP7 ADD PUSH2 0x4778 JUMP JUMPDEST SWAP2 POP POP SWAP3 SWAP2 POP POP JUMP JUMPDEST PUSH1 0x0 PUSH8 0xFFFFFFFFFFFFFFFF DUP3 GT ISZERO PUSH2 0x4803 JUMPI PUSH2 0x4802 PUSH2 0x3F86 JUMP JUMPDEST JUMPDEST PUSH1 0x20 DUP3 MUL SWAP1 POP PUSH1 0x20 DUP2 ADD SWAP1 POP SWAP2 SWAP1 POP JUMP JUMPDEST PUSH1 0x0 PUSH2 0x4827 PUSH2 0x4822 DUP5 PUSH2 0x47E8 JUMP JUMPDEST PUSH2 0x3FE6 JUMP JUMPDEST SWAP1 POP DUP1 DUP4 DUP3 MSTORE PUSH1 0x20 DUP3 ADD SWAP1 POP PUSH1 0x20 DUP5 MUL DUP4 ADD DUP6 DUP2 GT ISZERO PUSH2 0x484A JUMPI PUSH2 0x4849 PUSH2 0x3902 JUMP JUMPDEST JUMPDEST DUP4 JUMPDEST DUP2 DUP2 LT ISZERO PUSH2 0x4873 JUMPI DUP1 PUSH2 0x485F DUP9 DUP3 PUSH2 0x4312 JUMP JUMPDEST DUP5 MSTORE PUSH1 0x20 DUP5 ADD SWAP4 POP POP PUSH1 0x20 DUP2 ADD SWAP1 POP PUSH2 0x484C JUMP JUMPDEST POP POP POP SWAP4 SWAP3 POP POP POP JUMP JUMPDEST PUSH1 0x0 DUP3 PUSH1 0x1F DUP4 ADD SLT PUSH2 0x4892 JUMPI PUSH2 0x4891 PUSH2 0x38F8 JUMP JUMPDEST JUMPDEST DUP2 MLOAD PUSH2 0x48A2 DUP5 DUP3 PUSH1 0x20 DUP7 ADD PUSH2 0x4814 JUMP JUMPDEST SWAP2 POP POP SWAP3 SWAP2 POP POP JUMP JUMPDEST PUSH1 0x0 PUSH2 0x100 DUP3 DUP5 SUB SLT ISZERO PUSH2 0x48C2 JUMPI PUSH2 0x48C1 PUSH2 0x473D JUMP JUMPDEST JUMPDEST PUSH2 0x48CD PUSH2 0x100 PUSH2 0x3FE6 JUMP JUMPDEST SWAP1 POP PUSH1 0x0 PUSH2 0x48DD DUP5 DUP3 DUP6 ADD PUSH2 0x4312 JUMP JUMPDEST PUSH1 0x0 DUP4 ADD MSTORE POP PUSH1 0x20 PUSH2 0x48F1 DUP5 DUP3 DUP6 ADD PUSH2 0x4312 JUMP JUMPDEST PUSH1 0x20 DUP4 ADD MSTORE POP PUSH1 0x40 DUP3 ADD MLOAD PUSH8 0xFFFFFFFFFFFFFFFF DUP2 GT ISZERO PUSH2 0x4915 JUMPI PUSH2 0x4914 PUSH2 0x4742 JUMP JUMPDEST JUMPDEST PUSH2 0x4921 DUP5 DUP3 DUP6 ADD PUSH2 0x47BA JUMP JUMPDEST PUSH1 0x40 DUP4 ADD MSTORE POP PUSH1 0x60 DUP3 ADD MLOAD PUSH8 0xFFFFFFFFFFFFFFFF DUP2 GT ISZERO PUSH2 0x4945 JUMPI PUSH2 0x4944 PUSH2 0x4742 JUMP JUMPDEST JUMPDEST PUSH2 0x4951 DUP5 DUP3 DUP6 ADD PUSH2 0x47BA JUMP JUMPDEST PUSH1 0x60 DUP4 ADD MSTORE POP PUSH1 0x80 DUP3 ADD MLOAD PUSH8 0xFFFFFFFFFFFFFFFF DUP2 GT ISZERO PUSH2 0x4975 JUMPI PUSH2 0x4974 PUSH2 0x4742 JUMP JUMPDEST JUMPDEST PUSH2 0x4981 DUP5 DUP3 DUP6 ADD PUSH2 0x47BA JUMP JUMPDEST PUSH1 0x80 DUP4 ADD MSTORE POP PUSH1 0xA0 DUP3 ADD MLOAD PUSH8 0xFFFFFFFFFFFFFFFF DUP2 GT ISZERO PUSH2 0x49A5 JUMPI PUSH2 0x49A4 PUSH2 0x4742 JUMP JUMPDEST JUMPDEST PUSH2 0x49B1 DUP5 DUP3 DUP6 ADD PUSH2 0x487D JUMP JUMPDEST PUSH1 0xA0 DUP4 ADD MSTORE POP PUSH1 0xC0 PUSH2 0x49C5 DUP5 DUP3 DUP6 ADD PUSH2 0x42A7 JUMP JUMPDEST PUSH1 0xC0 DUP4 ADD MSTORE POP PUSH1 0xE0 PUSH2 0x49D9 DUP5 DUP3 DUP6 ADD PUSH2 0x42A7 JUMP JUMPDEST PUSH1 0xE0 DUP4 ADD MSTORE POP SWAP3 SWAP2 POP POP JUMP JUMPDEST PUSH1 0x0 PUSH1 0x20 DUP3 DUP5 SUB SLT ISZERO PUSH2 0x49FB JUMPI PUSH2 0x49FA PUSH2 0x351F JUMP JUMPDEST JUMPDEST PUSH1 0x0 DUP3 ADD MLOAD PUSH8 0xFFFFFFFFFFFFFFFF DUP2 GT ISZERO PUSH2 0x4A19 JUMPI PUSH2 0x4A18 PUSH2 0x3524 JUMP JUMPDEST JUMPDEST PUSH2 0x4A25 DUP5 DUP3 DUP6 ADD PUSH2 0x48AB JUMP JUMPDEST SWAP2 POP POP SWAP3 SWAP2 POP POP JUMP JUMPDEST PUSH1 0x0 DUP2 SWAP1 POP SWAP3 SWAP2 POP POP JUMP JUMPDEST PUSH1 0x0 PUSH2 0x4A44 DUP3 PUSH2 0x35E4 JUMP JUMPDEST PUSH2 0x4A4E DUP2 DUP6 PUSH2 0x4A2E JUMP JUMPDEST SWAP4 POP PUSH2 0x4A5E DUP2 DUP6 PUSH1 0x20 DUP7 ADD PUSH2 0x3600 JUMP JUMPDEST DUP1 DUP5 ADD SWAP2 POP POP SWAP3 SWAP2 POP POP JUMP JUMPDEST PUSH1 0x0 PUSH2 0x4A76 DUP3 DUP9 PUSH2 0x4A39 JUMP JUMPDEST SWAP2 POP PUSH2 0x4A82 DUP3 DUP8 PUSH2 0x4A39 JUMP JUMPDEST SWAP2 POP PUSH2 0x4A8E DUP3 DUP7 PUSH2 0x4A39 JUMP JUMPDEST SWAP2 POP PUSH2 0x4A9A DUP3 DUP6 PUSH2 0x4A39 JUMP JUMPDEST SWAP2 POP PUSH2 0x4AA6 DUP3 DUP5 PUSH2 0x4A39 JUMP JUMPDEST SWAP2 POP DUP2 SWAP1 POP SWAP7 SWAP6 POP POP POP POP POP POP JUMP JUMPDEST PUSH1 0x0 PUSH2 0x4AC1 DUP3 DUP6 PUSH2 0x4A39 JUMP JUMPDEST SWAP2 POP PUSH2 0x4ACD DUP3 DUP5 PUSH2 0x4A39 JUMP JUMPDEST SWAP2 POP DUP2 SWAP1 POP SWAP4 SWAP3 POP POP POP JUMP JUMPDEST PUSH1 0x0 PUSH1 0xE0 DUP3 DUP5 SUB SLT ISZERO PUSH2 0x4AEF JUMPI PUSH2 0x4AEE PUSH2 0x473D JUMP JUMPDEST JUMPDEST PUSH2 0x4AF9 PUSH1 0xE0 PUSH2 0x3FE6 JUMP JUMPDEST SWAP1 POP PUSH1 0x0 PUSH2 0x4B09 DUP5 DUP3 DUP6 ADD PUSH2 0x4312 JUMP JUMPDEST PUSH1 0x0 DUP4 ADD MSTORE POP PUSH1 0x20 PUSH2 0x4B1D DUP5 DUP3 DUP6 ADD PUSH2 0x4312 JUMP JUMPDEST PUSH1 0x20 DUP4 ADD MSTORE POP PUSH1 0x40 DUP3 ADD MLOAD PUSH8 0xFFFFFFFFFFFFFFFF DUP2 GT ISZERO PUSH2 0x4B41 JUMPI PUSH2 0x4B40 PUSH2 0x4742 JUMP JUMPDEST JUMPDEST PUSH2 0x4B4D DUP5 DUP3 DUP6 ADD PUSH2 0x47BA JUMP JUMPDEST PUSH1 0x40 DUP4 ADD MSTORE POP PUSH1 0x60 DUP3 ADD MLOAD PUSH8 0xFFFFFFFFFFFFFFFF DUP2 GT ISZERO PUSH2 0x4B71 JUMPI PUSH2 0x4B70 PUSH2 0x4742 JUMP JUMPDEST JUMPDEST PUSH2 0x4B7D DUP5 DUP3 DUP6 ADD PUSH2 0x47BA JUMP JUMPDEST PUSH1 0x60 DUP4 ADD MSTORE POP PUSH1 0x80 DUP3 ADD MLOAD PUSH8 0xFFFFFFFFFFFFFFFF DUP2 GT ISZERO PUSH2 0x4BA1 JUMPI PUSH2 0x4BA0 PUSH2 0x4742 JUMP JUMPDEST JUMPDEST PUSH2 0x4BAD DUP5 DUP3 DUP6 ADD PUSH2 0x47BA JUMP JUMPDEST PUSH1 0x80 DUP4 ADD MSTORE POP PUSH1 0xA0 PUSH2 0x4BC1 DUP5 DUP3 DUP6 ADD PUSH2 0x42A7 JUMP JUMPDEST PUSH1 0xA0 DUP4 ADD MSTORE POP PUSH1 0xC0 DUP3 ADD MLOAD PUSH8 0xFFFFFFFFFFFFFFFF DUP2 GT ISZERO PUSH2 0x4BE5 JUMPI PUSH2 0x4BE4 PUSH2 0x4742 JUMP JUMPDEST JUMPDEST PUSH2 0x4BF1 DUP5 DUP3 DUP6 ADD PUSH2 0x487D JUMP JUMPDEST PUSH1 0xC0 DUP4 ADD MSTORE POP SWAP3 SWAP2 POP POP JUMP JUMPDEST PUSH1 0x0 PUSH1 0x20 DUP3 DUP5 SUB SLT ISZERO PUSH2 0x4C13 JUMPI PUSH2 0x4C12 PUSH2 0x351F JUMP JUMPDEST JUMPDEST PUSH1 0x0 DUP3 ADD MLOAD PUSH8 0xFFFFFFFFFFFFFFFF DUP2 GT ISZERO PUSH2 0x4C31 JUMPI PUSH2 0x4C30 PUSH2 0x3524 JUMP JUMPDEST JUMPDEST PUSH2 0x4C3D DUP5 DUP3 DUP6 ADD PUSH2 0x4AD9 JUMP JUMPDEST SWAP2 POP POP SWAP3 SWAP2 POP POP JUMP JUMPDEST PUSH1 0x0 DUP2 MLOAD SWAP1 POP SWAP2 SWAP1 POP JUMP JUMPDEST PUSH1 0x0 DUP3 DUP3 MSTORE PUSH1 0x20 DUP3 ADD SWAP1 POP SWAP3 SWAP2 POP POP JUMP JUMPDEST PUSH1 0x0 PUSH2 0x4C6D DUP3 PUSH2 0x4C46 JUMP JUMPDEST PUSH2 0x4C77 DUP2 DUP6 PUSH2 0x4C51 JUMP JUMPDEST SWAP4 POP PUSH2 0x4C87 DUP2 DUP6 PUSH1 0x20 DUP7 ADD PUSH2 0x3600 JUMP JUMPDEST PUSH2 0x4C90 DUP2 PUSH2 0x362A JUMP JUMPDEST DUP5 ADD SWAP2 POP POP SWAP3 SWAP2 POP POP JUMP JUMPDEST PUSH1 0x0 PUSH1 0x80 DUP3 ADD SWAP1 POP PUSH2 0x4CB0 PUSH1 0x0 DUP4 ADD DUP8 PUSH2 0x372B JUMP JUMPDEST PUSH2 0x4CBD PUSH1 0x20 DUP4 ADD DUP7 PUSH2 0x372B JUMP JUMPDEST PUSH2 0x4CCA PUSH1 0x40 DUP4 ADD DUP6 PUSH2 0x3822 JUMP JUMPDEST DUP2 DUP2 SUB PUSH1 0x60 DUP4 ADD MSTORE PUSH2 0x4CDC DUP2 DUP5 PUSH2 0x4C62 JUMP JUMPDEST SWAP1 POP SWAP6 SWAP5 POP POP POP POP POP JUMP JUMPDEST PUSH1 0x0 DUP2 MLOAD SWAP1 POP PUSH2 0x4CF6 DUP2 PUSH2 0x3555 JUMP JUMPDEST SWAP3 SWAP2 POP POP JUMP JUMPDEST PUSH1 0x0 PUSH1 0x20 DUP3 DUP5 SUB SLT ISZERO PUSH2 0x4D12 JUMPI PUSH2 0x4D11 PUSH2 0x351F JUMP JUMPDEST JUMPDEST PUSH1 0x0 PUSH2 0x4D20 DUP5 DUP3 DUP6 ADD PUSH2 0x4CE7 JUMP JUMPDEST SWAP2 POP POP SWAP3 SWAP2 POP POP JUMP JUMPDEST PUSH32 0x4E487B7100000000000000000000000000000000000000000000000000000000 PUSH1 0x0 MSTORE PUSH1 0x12 PUSH1 0x4 MSTORE PUSH1 0x24 PUSH1 0x0 REVERT JUMPDEST PUSH1 0x0 PUSH8 0xFFFFFFFFFFFFFFFF DUP3 GT ISZERO PUSH2 0x4D73 JUMPI PUSH2 0x4D72 PUSH2 0x3F86 JUMP JUMPDEST JUMPDEST PUSH1 0x20 DUP3 MUL SWAP1 POP PUSH1 0x20 DUP2 ADD SWAP1 POP SWAP2 SWAP1 POP JUMP JUMPDEST PUSH1 0x0 DUP2 MLOAD SWAP1 POP PUSH2 0x4D93 DUP2 PUSH2 0x3AF5 JUMP JUMPDEST SWAP3 SWAP2 POP POP JUMP JUMPDEST PUSH1 0x0 PUSH2 0x4DAC PUSH2 0x4DA7 DUP5 PUSH2 0x4D58 JUMP JUMPDEST PUSH2 0x3FE6 JUMP JUMPDEST SWAP1 POP DUP1 DUP4 DUP3 MSTORE PUSH1 0x20 DUP3 ADD SWAP1 POP PUSH1 0x20 DUP5 MUL DUP4 ADD DUP6 DUP2 GT ISZERO PUSH2 0x4DCF JUMPI PUSH2 0x4DCE PUSH2 0x3902 JUMP JUMPDEST JUMPDEST DUP4 JUMPDEST DUP2 DUP2 LT ISZERO PUSH2 0x4DF8 JUMPI DUP1 PUSH2 0x4DE4 DUP9 DUP3 PUSH2 0x4D84 JUMP JUMPDEST DUP5 MSTORE PUSH1 0x20 DUP5 ADD SWAP4 POP POP PUSH1 0x20 DUP2 ADD SWAP1 POP PUSH2 0x4DD1 JUMP JUMPDEST POP POP POP SWAP4 SWAP3 POP POP POP JUMP JUMPDEST PUSH1 0x0 DUP3 PUSH1 0x1F DUP4 ADD SLT PUSH2 0x4E17 JUMPI PUSH2 0x4E16 PUSH2 0x38F8 JUMP JUMPDEST JUMPDEST DUP2 MLOAD PUSH2 0x4E27 DUP5 DUP3 PUSH1 0x20 DUP7 ADD PUSH2 0x4D99 JUMP JUMPDEST SWAP2 POP POP SWAP3 SWAP2 POP POP JUMP JUMPDEST PUSH1 0x0 DUP2 MLOAD SWAP1 POP PUSH2 0x4E3F DUP2 PUSH2 0x3B21 JUMP JUMPDEST SWAP3 SWAP2 POP POP JUMP JUMPDEST PUSH1 0x0 DUP2 MLOAD SWAP1 POP PUSH2 0x4E54 DUP2 PUSH2 0x3B46 JUMP JUMPDEST SWAP3 SWAP2 POP POP JUMP JUMPDEST PUSH1 0x0 PUSH2 0x120 DUP3 DUP5 SUB SLT ISZERO PUSH2 0x4E71 JUMPI PUSH2 0x4E70 PUSH2 0x473D JUMP JUMPDEST JUMPDEST PUSH2 0x4E7C PUSH2 0x120 PUSH2 0x3FE6 JUMP JUMPDEST SWAP1 POP PUSH1 0x0 PUSH2 0x4E8C DUP5 DUP3 DUP6 ADD PUSH2 0x4312 JUMP JUMPDEST PUSH1 0x0 DUP4 ADD MSTORE POP PUSH1 0x20 PUSH2 0x4EA0 DUP5 DUP3 DUP6 ADD PUSH2 0x4312 JUMP JUMPDEST PUSH1 0x20 DUP4 ADD MSTORE POP PUSH1 0x40 DUP3 ADD MLOAD PUSH8 0xFFFFFFFFFFFFFFFF DUP2 GT ISZERO PUSH2 0x4EC4 JUMPI PUSH2 0x4EC3 PUSH2 0x4742 JUMP JUMPDEST JUMPDEST PUSH2 0x4ED0 DUP5 DUP3 DUP6 ADD PUSH2 0x4E02 JUMP JUMPDEST PUSH1 0x40 DUP4 ADD MSTORE POP PUSH1 0x60 DUP3 ADD MLOAD PUSH8 0xFFFFFFFFFFFFFFFF DUP2 GT ISZERO PUSH2 0x4EF4 JUMPI PUSH2 0x4EF3 PUSH2 0x4742 JUMP JUMPDEST JUMPDEST PUSH2 0x4F00 DUP5 DUP3 DUP6 ADD PUSH2 0x4E02 JUMP JUMPDEST PUSH1 0x60 DUP4 ADD MSTORE POP PUSH1 0x80 PUSH2 0x4F14 DUP5 DUP3 DUP6 ADD PUSH2 0x4D84 JUMP JUMPDEST PUSH1 0x80 DUP4 ADD MSTORE POP PUSH1 0xA0 DUP3 ADD MLOAD PUSH8 0xFFFFFFFFFFFFFFFF DUP2 GT ISZERO PUSH2 0x4F38 JUMPI PUSH2 0x4F37 PUSH2 0x4742 JUMP JUMPDEST JUMPDEST PUSH2 0x4F44 DUP5 DUP3 DUP6 ADD PUSH2 0x47BA JUMP JUMPDEST PUSH1 0xA0 DUP4 ADD MSTORE POP PUSH1 0xC0 PUSH2 0x4F58 DUP5 DUP3 DUP6 ADD PUSH2 0x4E30 JUMP JUMPDEST PUSH1 0xC0 DUP4 ADD MSTORE POP PUSH1 0xE0 DUP3 ADD MLOAD PUSH8 0xFFFFFFFFFFFFFFFF DUP2 GT ISZERO PUSH2 0x4F7C JUMPI PUSH2 0x4F7B PUSH2 0x4742 JUMP JUMPDEST JUMPDEST PUSH2 0x4F88 DUP5 DUP3 DUP6 ADD PUSH2 0x47BA JUMP JUMPDEST PUSH1 0xE0 DUP4 ADD MSTORE POP PUSH2 0x100 PUSH2 0x4F9D DUP5 DUP3 DUP6 ADD PUSH2 0x4E45 JUMP JUMPDEST PUSH2 0x100 DUP4 ADD MSTORE POP SWAP3 SWAP2 POP POP JUMP JUMPDEST PUSH1 0x0 PUSH1 0x20 DUP3 DUP5 SUB SLT ISZERO PUSH2 0x4FC0 JUMPI PUSH2 0x4FBF PUSH2 0x351F JUMP JUMPDEST JUMPDEST PUSH1 0x0 DUP3 ADD MLOAD PUSH8 0xFFFFFFFFFFFFFFFF DUP2 GT ISZERO PUSH2 0x4FDE JUMPI PUSH2 0x4FDD PUSH2 0x3524 JUMP JUMPDEST JUMPDEST PUSH2 0x4FEA DUP5 DUP3 DUP6 ADD PUSH2 0x4E5A JUMP JUMPDEST SWAP2 POP POP SWAP3 SWAP2 POP POP JUMP JUMPDEST PUSH32 0x4E487B7100000000000000000000000000000000000000000000000000000000 PUSH1 0x0 MSTORE PUSH1 0x32 PUSH1 0x4 MSTORE PUSH1 0x24 PUSH1 0x0 REVERT JUMPDEST PUSH1 0x0 DUP2 PUSH1 0xF8 SHL SWAP1 POP SWAP2 SWAP1 POP JUMP JUMPDEST PUSH1 0x0 PUSH2 0x503A DUP3 PUSH2 0x5022 JUMP JUMPDEST SWAP1 POP SWAP2 SWAP1 POP JUMP JUMPDEST PUSH2 0x5052 PUSH2 0x504D DUP3 PUSH2 0x3AE8 JUMP JUMPDEST PUSH2 0x502F JUMP JUMPDEST DUP3 MSTORE POP POP JUMP JUMPDEST PUSH1 0x0 PUSH2 0x5064 DUP3 DUP10 PUSH2 0x4A39 JUMP JUMPDEST SWAP2 POP PUSH2 0x5070 DUP3 DUP9 PUSH2 0x4A39 JUMP JUMPDEST SWAP2 POP PUSH2 0x507C DUP3 DUP8 PUSH2 0x4A39 JUMP JUMPDEST SWAP2 POP PUSH2 0x5088 DUP3 DUP7 PUSH2 0x5041 JUMP JUMPDEST PUSH1 0x1 DUP3 ADD SWAP2 POP PUSH2 0x5098 DUP3 DUP6 PUSH2 0x4A39 JUMP JUMPDEST SWAP2 POP PUSH2 0x50A4 DUP3 DUP5 PUSH2 0x5041 JUMP JUMPDEST PUSH1 0x1 DUP3 ADD SWAP2 POP DUP2 SWAP1 POP SWAP8 SWAP7 POP POP POP POP POP POP POP JUMP JUMPDEST PUSH2 0x50C9 PUSH2 0x50C4 DUP3 PUSH2 0x45C5 JUMP JUMPDEST PUSH2 0x502F JUMP JUMPDEST DUP3 MSTORE POP POP JUMP JUMPDEST PUSH1 0x0 PUSH2 0x50DB DUP3 DUP12 PUSH2 0x4A39 JUMP JUMPDEST SWAP2 POP PUSH2 0x50E7 DUP3 DUP11 PUSH2 0x4A39 JUMP JUMPDEST SWAP2 POP PUSH2 0x50F3 DUP3 DUP10 PUSH2 0x4A39 JUMP JUMPDEST SWAP2 POP PUSH2 0x50FF DUP3 DUP9 PUSH2 0x4A39 JUMP JUMPDEST SWAP2 POP PUSH2 0x510B DUP3 DUP8 PUSH2 0x4A39 JUMP JUMPDEST SWAP2 POP PUSH2 0x5117 DUP3 DUP7 PUSH2 0x4A39 JUMP JUMPDEST SWAP2 POP PUSH2 0x5123 DUP3 DUP6 PUSH2 0x50B8 JUMP JUMPDEST PUSH1 0x1 DUP3 ADD SWAP2 POP PUSH2 0x5133 DUP3 DUP5 PUSH2 0x4A39 JUMP JUMPDEST SWAP2 POP DUP2 SWAP1 POP SWAP10 SWAP9 POP POP POP POP POP POP POP POP POP JUMP JUMPDEST PUSH1 0x0 PUSH2 0x5151 DUP3 DUP8 PUSH2 0x4A39 JUMP JUMPDEST SWAP2 POP PUSH2 0x515D DUP3 DUP7 PUSH2 0x4A39 JUMP JUMPDEST SWAP2 POP PUSH2 0x5169 DUP3 DUP6 PUSH2 0x4A39 JUMP JUMPDEST SWAP2 POP PUSH2 0x5175 DUP3 DUP5 PUSH2 0x4A39 JUMP JUMPDEST SWAP2 POP DUP2 SWAP1 POP SWAP6 SWAP5 POP POP POP POP POP JUMP JUMPDEST PUSH1 0x0 PUSH2 0x518E DUP3 PUSH2 0x3696 JUMP JUMPDEST SWAP2 POP PUSH2 0x5199 DUP4 PUSH2 0x3696 JUMP JUMPDEST SWAP3 POP DUP3 DUP3 ADD SWAP1 POP DUP1 DUP3 GT ISZERO PUSH2 0x51B1 JUMPI PUSH2 0x51B0 PUSH2 0x4426 JUMP JUMPDEST JUMPDEST SWAP3 SWAP2 POP POP JUMP JUMPDEST PUSH1 0x0 PUSH2 0x51C2 DUP3 PUSH2 0x3696 JUMP JUMPDEST SWAP2 POP PUSH2 0x51CD DUP4 PUSH2 0x3696 JUMP JUMPDEST SWAP3 POP DUP3 PUSH2 0x51DD JUMPI PUSH2 0x51DC PUSH2 0x4D29 JUMP JUMPDEST JUMPDEST DUP3 DUP3 DIV SWAP1 POP SWAP3 SWAP2 POP POP JUMP JUMPDEST PUSH1 0x0 PUSH2 0x51F3 DUP3 PUSH2 0x3696 JUMP JUMPDEST SWAP2 POP PUSH2 0x51FE DUP4 PUSH2 0x3696 JUMP JUMPDEST SWAP3 POP DUP3 DUP3 MUL PUSH2 0x520C DUP2 PUSH2 0x3696 JUMP JUMPDEST SWAP2 POP DUP3 DUP3 DIV DUP5 EQ DUP4 ISZERO OR PUSH2 0x5223 JUMPI PUSH2 0x5222 PUSH2 0x4426 JUMP JUMPDEST JUMPDEST POP SWAP3 SWAP2 POP POP JUMP JUMPDEST PUSH1 0x0 PUSH1 0x40 DUP3 ADD SWAP1 POP PUSH2 0x523F PUSH1 0x0 DUP4 ADD DUP6 PUSH2 0x372B JUMP JUMPDEST PUSH2 0x524C PUSH1 0x20 DUP4 ADD DUP5 PUSH2 0x37F8 JUMP JUMPDEST SWAP4 SWAP3 POP POP POP JUMP INVALID 0x22 PUSH30 0x5D2C22696D616765223A2022646174613A696D6167652F7376672B786D6C EXTCODESIZE PUSH3 0x617365 CALLDATASIZE CALLVALUE 0x2C EXTCODECOPY PUSH20 0x76672077696474683D2238303022206865696768 PUSH21 0x3D22383030222076696577426F783D223020302038 ADDRESS ADDRESS KECCAK256 CODESIZE ADDRESS ADDRESS 0x22 KECCAK256 PUSH25 0x6D6C6E733D22687474703A2F2F7777772E77332E6F72672F32 ADDRESS ADDRESS ADDRESS 0x2F PUSH20 0x7667223E227D2C7B2274726169745F7479706522 GASPRICE KECCAK256 0x22 PUSH14 0x61696E436F6C6F72222C2276616C PUSH22 0x65223A20223C6C696E652078313D2233333022207931 RETURNDATASIZE 0x22 CALLER ADDRESS ADDRESS 0x22 KECCAK256 PUSH25 0x323D22343730222079323D2233383022207374726F6B653D22 0x23 CODESIZE PUSH2 0x3666 CALLER ADDRESS 0x22 KECCAK256 PUSH20 0x74726F6B652D77696474683D2233222F3E227D2C PUSH28 0x2274726169745F74797065223A2022776569676874496E4772616D73 0x22 0x2C 0x22 PUSH23 0x616C7565223A20223C706F6C79676F6E20706F696E7473 RETURNDATASIZE 0x22 CALLVALUE ADDRESS ADDRESS 0x2C ORIGIN CALLDATALOAD ADDRESS KECCAK256 CALLVALUE CALLDATACOPY ADDRESS 0x2C CALLER ADDRESS ADDRESS KECCAK256 CALLVALUE CALLDATACOPY ADDRESS 0x2C CALLER CODESIZE ADDRESS KECCAK256 CALLVALUE ADDRESS ADDRESS 0x2C CALLVALUE CALLER ADDRESS KECCAK256 CALLER CALLER ADDRESS 0x2C CALLER CODESIZE ADDRESS KECCAK256 CALLER CALLER ADDRESS 0x2C CALLER ADDRESS ADDRESS 0x22 KECCAK256 PUSH7 0x696C6C3D227768 PUSH10 0x746522207374726F6B65 RETURNDATASIZE 0x22 0x23 CODESIZE PUSH2 0x3666 CALLER ADDRESS 0x22 KECCAK256 PUSH20 0x74726F6B652D77696474683D2235222F3E222C20 0x22 PUSH2 0x7474 PUSH19 0x696275746573223A205B7B2274726169745F74 PUSH26 0x7065223A20224A6577656C65724E616D65222C2276616C756522 GASPRICE KECCAK256 0x22 EXTCODECOPY PUSH21 0x65787420783D223530252220793D22363030222066 PUSH16 0x6E742D73697A653D2234302220666F6E PUSH21 0x2D66616D696C793D22417269616C2C2073616E732D PUSH20 0x657269662220666F6E742D7765696768743D2262 PUSH16 0x6C64222066696C6C3D22236434616633 CALLDATACOPY 0x22 KECCAK256 PUSH21 0x6578742D616E63686F723D226D6964646C65223E3C PUSH19 0x65637420783D22302220793D22302220776964 PUSH21 0x683D2238303022206865696768743D223830302220 PUSH7 0x696C6C3D222366 CODESIZE PUSH7 0x39666122207374 PUSH19 0x6F6B653D222364346166333722207374726F6B PUSH6 0x2D7769647468 RETURNDATASIZE 0x22 BALANCE ADDRESS 0x22 KECCAK256 PUSH19 0x783D223230222072793D223230222F3E3C7265 PUSH4 0x7420783D 0x22 ORIGIN ADDRESS ADDRESS 0x22 KECCAK256 PUSH26 0x3D22363530222077696474683D2234303022206865696768743D 0x22 CODESIZE ADDRESS 0x22 KECCAK256 PUSH7 0x696C6C3D227768 PUSH10 0x746522207374726F6B65 RETURNDATASIZE 0x22 0x23 CALLER CALLER CALLER 0x22 KECCAK256 PUSH20 0x74726F6B652D77696474683D2233222072783D22 BALANCE ADDRESS 0x22 KECCAK256 PUSH19 0x793D223130222F3E3C6C696E652078313D2234 ADDRESS ADDRESS 0x22 KECCAK256 PUSH26 0x313D22323530222078323D22343030222079323D223433302220 PUSH20 0x74726F6B653D222338613666333022207374726F PUSH12 0x652D77696474683D2233222F RETURNDATACOPY COINBASE TIMESTAMP NUMBER PREVRANDAO GASLIMIT CHAINID SELFBALANCE BASEFEE BLOBHASH BLOBBASEFEE 0x4B 0x4C 0x4D 0x4E 0x4F POP MLOAD MSTORE MSTORE8 SLOAD SSTORE JUMP JUMPI PC MSIZE GAS PUSH2 0x6263 PUSH5 0x6566676869 PUSH11 0x6B6C6D6E6F707172737475 PUSH23 0x7778797A303132333435363738392B2F227D2C7B227472 PUSH2 0x6974 PUSH0 PUSH21 0x797065223A20226D61696E4D6174657269616C222C 0x22 PUSH23 0x616C7565223A20223C656C6C697073652063783D223430 ADDRESS 0x22 KECCAK256 PUSH4 0x793D2234 ORIGIN ADDRESS 0x22 KECCAK256 PUSH19 0x783D22313830222072793D2231303022206669 PUSH13 0x6C3D226E6F6E6522207374726F PUSH12 0x653D22236434616633372220 PUSH20 0x74726F6B652D77696474683D223230222F3E3C65 PUSH13 0x6C697073652063783D22343030 0x22 KECCAK256 PUSH4 0x793D2234 ORIGIN ADDRESS 0x22 KECCAK256 PUSH19 0x783D22313430222072793D223830222066696C PUSH13 0x3D226E6F6E6522207374726F6B PUSH6 0x3D2223663866 CODECOPY PUSH7 0x6122207374726F PUSH12 0x652D77696474683D22323022 0x2F RETURNDATACOPY EXTCODECOPY PUSH13 0x696E652078313D223437302220 PUSH26 0x313D22333030222078323D22333330222079323D223338302220 PUSH20 0x74726F6B653D222338613666333022207374726F PUSH12 0x652D77696474683D2233222F RETURNDATACOPY EXTCODECOPY PUSH21 0x65787420783D223530252220793D22313230222066 PUSH16 0x6E742D73697A653D2235302220666F6E PUSH21 0x2D66616D696C793D22417269616C2C2073616E732D PUSH20 0x657269662220666F6E742D7765696768743D2262 PUSH16 0x6C64222066696C6C3D22233333332220 PUSH21 0x6578742D616E63686F723D226D6964646C65223E3C PUSH21 0x65787420783D223530252220793D22373030222066 PUSH16 0x6E742D73697A653D2233302220666F6E PUSH21 0x2D66616D696C793D22417269616C2C2073616E732D PUSH20 0x65726966222066696C6C3D222333333322207465 PUSH25 0x742D616E63686F723D226D6964646C65223E7B226E616D6522 GASPRICE KECCAK256 0x22 SELFBALANCE PUSH16 0x6C64436861696E204365727469666963 PUSH2 0x7465 KECCAK256 0x4E CHAINID SLOAD KECCAK256 0x23 0x22 PUSH30 0x2C7B2274726169745F74797065223A202243657274696669636174654C65 PUSH23 0x656C222C2276616C7565223A2022227D2C7B2274726169 PUSH21 0x5F74797065223A20226D61696E47656D53746F6E65 PUSH20 0x222C2276616C7565223A2022A264697066735822 SLT KECCAK256 0xD CALLDATASIZE BLOBBASEFEE CALLDATASIZE SWAP11 0xCD 0xFC DIV 0xF DUP5 SWAP2 0xCD PUSH29 0x8ED0389956BF8B04A25D9527708DD1F1425F4E64736F6C634300081C00 CALLER "},"methodIdentifiers":{"ADMIN()":"2a0acc6a","CERTIFICATOR_ROLE()":"934b4af2","CUSTOMERS_ROLE()":"22f537ce","DEFAULT_ADMIN_ROLE()":"a217fddf","FALSE()":"4ff7986e","JEWELERS_ROLE()":"0cdb5cb5","TRUE()":"5994d984","activateJeweler(address)":"29acc209","admin()":"f851a440","approve(address,uint256)":"095ea7b3","balanceOf(address)":"70a08231","createCertificate(uint8[],uint8[],uint8,string,uint8,string,uint8)":"41cc7c73","createCustomer(string,string,string)":"55b059e8","createJeweler(string,string,string)":"55ed5fe8","desactivateJeweler(address)":"081ba2d5","getApproved(uint256)":"081812fc","getCustomerCount()":"2027d746","getJewelerCount()":"8c271777","getOneCustomer(address)":"ee7bf0ee","getOneJeweler(address)":"57a00ccf","getRoleAdmin(bytes32)":"248a9ca3","grantRole(bytes32,address)":"2f2ff15d","hasRole(bytes32,address)":"91d14854","isApprovedForAll(address,address)":"e985e9c5","name()":"06fdde03","ownerOf(uint256)":"6352211e","renounceRole(bytes32,address)":"36568abe","revokeRole(bytes32,address)":"d547741f","safeMint(address)":"40d097c3","safeTransferFrom(address,address,uint256)":"42842e0e","safeTransferFrom(address,address,uint256,bytes)":"b88d4fde","setApprovalForAll(address,bool)":"a22cb465","supportsInterface(bytes4)":"01ffc9a7","symbol()":"95d89b41","tokenURI(uint256)":"c87b56dd","transertCertificate(address,uint256)":"a5ddd288","transferFrom(address,address,uint256)":"23b872dd","updateCertificate()":"899f9d0d","updateCustomer(string,string,string,bool)":"f2e0bc58","updateJeweler(string,string,string,bool)":"2b3dd38b"}}}}}