{"contracts/GoldChain.sol":{"GoldChain":{"abi":[{"inputs":[{"internalType":"contract IDataStorage","name":"_dataStorage","type":"address"}],"stateMutability":"nonpayable","type":"constructor"},{"inputs":[],"name":"AccessControlBadConfirmation","type":"error"},{"inputs":[{"internalType":"address","name":"account","type":"address"},{"internalType":"bytes32","name":"neededRole","type":"bytes32"}],"name":"AccessControlUnauthorizedAccount","type":"error"},{"inputs":[],"name":"CustomerIsAlreadyRegistered","type":"error"},{"inputs":[],"name":"CustomerNotExists","type":"error"},{"inputs":[],"name":"ERC721EnumerableForbiddenBatchMint","type":"error"},{"inputs":[{"internalType":"address","name":"sender","type":"address"},{"internalType":"uint256","name":"tokenId","type":"uint256"},{"internalType":"address","name":"owner","type":"address"}],"name":"ERC721IncorrectOwner","type":"error"},{"inputs":[{"internalType":"address","name":"operator","type":"address"},{"internalType":"uint256","name":"tokenId","type":"uint256"}],"name":"ERC721InsufficientApproval","type":"error"},{"inputs":[{"internalType":"address","name":"approver","type":"address"}],"name":"ERC721InvalidApprover","type":"error"},{"inputs":[{"internalType":"address","name":"operator","type":"address"}],"name":"ERC721InvalidOperator","type":"error"},{"inputs":[{"internalType":"address","name":"owner","type":"address"}],"name":"ERC721InvalidOwner","type":"error"},{"inputs":[{"internalType":"address","name":"receiver","type":"address"}],"name":"ERC721InvalidReceiver","type":"error"},{"inputs":[{"internalType":"address","name":"sender","type":"address"}],"name":"ERC721InvalidSender","type":"error"},{"inputs":[{"internalType":"uint256","name":"tokenId","type":"uint256"}],"name":"ERC721NonexistentToken","type":"error"},{"inputs":[{"internalType":"address","name":"owner","type":"address"},{"internalType":"uint256","name":"index","type":"uint256"}],"name":"ERC721OutOfBoundsIndex","type":"error"},{"inputs":[],"name":"JewelerIsAlreadyRegistered","type":"error"},{"inputs":[],"name":"JewelerNotExists","type":"error"},{"inputs":[],"name":"TokenDoesNotExist","type":"error"},{"anonymous":false,"inputs":[{"indexed":true,"internalType":"address","name":"owner","type":"address"},{"indexed":true,"internalType":"address","name":"approved","type":"address"},{"indexed":true,"internalType":"uint256","name":"tokenId","type":"uint256"}],"name":"Approval","type":"event"},{"anonymous":false,"inputs":[{"indexed":true,"internalType":"address","name":"owner","type":"address"},{"indexed":true,"internalType":"address","name":"operator","type":"address"},{"indexed":false,"internalType":"bool","name":"approved","type":"bool"}],"name":"ApprovalForAll","type":"event"},{"anonymous":false,"inputs":[{"indexed":true,"internalType":"bytes32","name":"role","type":"bytes32"},{"indexed":true,"internalType":"bytes32","name":"previousAdminRole","type":"bytes32"},{"indexed":true,"internalType":"bytes32","name":"newAdminRole","type":"bytes32"}],"name":"RoleAdminChanged","type":"event"},{"anonymous":false,"inputs":[{"indexed":true,"internalType":"bytes32","name":"role","type":"bytes32"},{"indexed":true,"internalType":"address","name":"account","type":"address"},{"indexed":true,"internalType":"address","name":"sender","type":"address"}],"name":"RoleGranted","type":"event"},{"anonymous":false,"inputs":[{"indexed":true,"internalType":"bytes32","name":"role","type":"bytes32"},{"indexed":true,"internalType":"address","name":"account","type":"address"},{"indexed":true,"internalType":"address","name":"sender","type":"address"}],"name":"RoleRevoked","type":"event"},{"anonymous":false,"inputs":[{"indexed":true,"internalType":"address","name":"from","type":"address"},{"indexed":true,"internalType":"address","name":"to","type":"address"},{"indexed":true,"internalType":"uint256","name":"tokenId","type":"uint256"}],"name":"Transfer","type":"event"},{"anonymous":false,"inputs":[{"indexed":false,"internalType":"address","name":"jewelerAddress","type":"address"},{"indexed":false,"internalType":"uint256","name":"timestamp","type":"uint256"},{"indexed":false,"internalType":"uint256","name":"certificateId","type":"uint256"}],"name":"certificateCreated","type":"event"},{"anonymous":false,"inputs":[{"indexed":false,"internalType":"address","name":"customerAddress","type":"address"},{"indexed":false,"internalType":"uint256","name":"timestamp","type":"uint256"}],"name":"customerCreated","type":"event"},{"anonymous":false,"inputs":[{"indexed":false,"internalType":"address","name":"customerAddress","type":"address"},{"indexed":false,"internalType":"uint256","name":"timestamp","type":"uint256"}],"name":"customerUpdated","type":"event"},{"anonymous":false,"inputs":[{"indexed":false,"internalType":"address","name":"jewelerAddress","type":"address"},{"indexed":false,"internalType":"uint256","name":"timestamp","type":"uint256"}],"name":"jewelerActivated","type":"event"},{"anonymous":false,"inputs":[{"indexed":false,"internalType":"address","name":"jewelerAddress","type":"address"},{"indexed":false,"internalType":"uint256","name":"timestamp","type":"uint256"}],"name":"jewelerCreated","type":"event"},{"anonymous":false,"inputs":[{"indexed":false,"internalType":"address","name":"jewelerAddress","type":"address"},{"indexed":false,"internalType":"uint256","name":"timestamp","type":"uint256"}],"name":"jewelerDesactivated","type":"event"},{"anonymous":false,"inputs":[{"indexed":false,"internalType":"address","name":"jewelerAddress","type":"address"},{"indexed":false,"internalType":"uint256","name":"timestamp","type":"uint256"}],"name":"jewelerUpdated","type":"event"},{"inputs":[{"internalType":"bytes","name":"data","type":"bytes"}],"name":"Base64Encode","outputs":[{"internalType":"string","name":"","type":"string"}],"stateMutability":"pure","type":"function"},{"inputs":[],"name":"DEFAULT_ADMIN_ROLE","outputs":[{"internalType":"bytes32","name":"","type":"bytes32"}],"stateMutability":"view","type":"function"},{"inputs":[],"name":"FALSE","outputs":[{"internalType":"bool","name":"","type":"bool"}],"stateMutability":"view","type":"function"},{"inputs":[],"name":"TRUE","outputs":[{"internalType":"bool","name":"","type":"bool"}],"stateMutability":"view","type":"function"},{"inputs":[{"internalType":"address","name":"_jewelerAddress","type":"address"}],"name":"activateJeweler","outputs":[{"internalType":"bool","name":"","type":"bool"}],"stateMutability":"nonpayable","type":"function"},{"inputs":[],"name":"admin","outputs":[{"internalType":"address","name":"","type":"address"}],"stateMutability":"view","type":"function"},{"inputs":[{"internalType":"address","name":"to","type":"address"},{"internalType":"uint256","name":"tokenId","type":"uint256"}],"name":"approve","outputs":[],"stateMutability":"nonpayable","type":"function"},{"inputs":[{"internalType":"address","name":"owner","type":"address"}],"name":"balanceOf","outputs":[{"internalType":"uint256","name":"","type":"uint256"}],"stateMutability":"view","type":"function"},{"inputs":[{"internalType":"uint8[]","name":"_materials","type":"uint8[]"},{"internalType":"uint8[]","name":"_gemStones","type":"uint8[]"},{"internalType":"uint8","name":"_weightInGrams","type":"uint8"},{"internalType":"string","name":"_mainColor","type":"string"},{"internalType":"enum IDataStorage.CertificateLevel","name":"_level","type":"uint8"},{"internalType":"string","name":"_JewelerName","type":"string"},{"internalType":"enum IDataStorage.CertificateStatus","name":"_status","type":"uint8"}],"name":"createCertificate","outputs":[{"internalType":"bool","name":"","type":"bool"}],"stateMutability":"nonpayable","type":"function"},{"inputs":[{"internalType":"string","name":"_name","type":"string"},{"internalType":"string","name":"_email","type":"string"},{"internalType":"string","name":"_location","type":"string"}],"name":"createCustomer","outputs":[{"internalType":"bool","name":"","type":"bool"}],"stateMutability":"nonpayable","type":"function"},{"inputs":[{"internalType":"string","name":"_name","type":"string"},{"internalType":"string","name":"_email","type":"string"},{"internalType":"string","name":"_location","type":"string"}],"name":"createJeweler","outputs":[{"internalType":"bool","name":"","type":"bool"}],"stateMutability":"nonpayable","type":"function"},{"inputs":[{"internalType":"address","name":"_jewelerAddress","type":"address"}],"name":"desactivateJeweler","outputs":[{"internalType":"bool","name":"","type":"bool"}],"stateMutability":"nonpayable","type":"function"},{"inputs":[{"internalType":"uint256","name":"tokenId","type":"uint256"}],"name":"getApproved","outputs":[{"internalType":"address","name":"","type":"address"}],"stateMutability":"view","type":"function"},{"inputs":[],"name":"getCustomerCount","outputs":[{"internalType":"uint256","name":"","type":"uint256"}],"stateMutability":"view","type":"function"},{"inputs":[],"name":"getJewelerCount","outputs":[{"internalType":"uint256","name":"","type":"uint256"}],"stateMutability":"view","type":"function"},{"inputs":[{"internalType":"uint256","name":"_certificateId","type":"uint256"}],"name":"getOneCertificate","outputs":[{"components":[{"internalType":"uint256","name":"creationDate","type":"uint256"},{"internalType":"uint256","name":"updated_at","type":"uint256"},{"internalType":"uint8[]","name":"materials","type":"uint8[]"},{"internalType":"uint8[]","name":"gemStones","type":"uint8[]"},{"internalType":"uint8","name":"weightInGrams","type":"uint8"},{"internalType":"string","name":"mainColor","type":"string"},{"internalType":"enum IDataStorage.CertificateLevel","name":"level","type":"uint8"},{"internalType":"string","name":"JewelerName","type":"string"},{"internalType":"enum IDataStorage.CertificateStatus","name":"status","type":"uint8"}],"internalType":"struct IDataStorage.Certificate","name":"","type":"tuple"}],"stateMutability":"view","type":"function"},{"inputs":[{"internalType":"address","name":"_customerAddress","type":"address"}],"name":"getOneCustomer","outputs":[{"components":[{"internalType":"uint256","name":"created_at","type":"uint256"},{"internalType":"uint256","name":"updated_at","type":"uint256"},{"internalType":"string","name":"name","type":"string"},{"internalType":"string","name":"email","type":"string"},{"internalType":"string","name":"location","type":"string"},{"internalType":"bool","name":"visible","type":"bool"},{"internalType":"uint256[]","name":"OwnedCertificateIds","type":"uint256[]"}],"internalType":"struct IDataStorage.Customer","name":"","type":"tuple"}],"stateMutability":"view","type":"function"},{"inputs":[{"internalType":"address","name":"_jewelerAddress","type":"address"}],"name":"getOneJeweler","outputs":[{"components":[{"internalType":"uint256","name":"created_at","type":"uint256"},{"internalType":"uint256","name":"updated_at","type":"uint256"},{"internalType":"string","name":"name","type":"string"},{"internalType":"string","name":"email","type":"string"},{"internalType":"string","name":"location","type":"string"},{"internalType":"uint256[]","name":"CreatedCertificateIds","type":"uint256[]"},{"internalType":"bool","name":"available","type":"bool"},{"internalType":"bool","name":"visible","type":"bool"}],"internalType":"struct IDataStorage.Jeweler","name":"","type":"tuple"}],"stateMutability":"view","type":"function"},{"inputs":[{"internalType":"bytes32","name":"role","type":"bytes32"}],"name":"getRoleAdmin","outputs":[{"internalType":"bytes32","name":"","type":"bytes32"}],"stateMutability":"view","type":"function"},{"inputs":[{"internalType":"bytes32","name":"role","type":"bytes32"},{"internalType":"address","name":"account","type":"address"}],"name":"grantRole","outputs":[],"stateMutability":"nonpayable","type":"function"},{"inputs":[{"internalType":"bytes32","name":"role","type":"bytes32"},{"internalType":"address","name":"account","type":"address"}],"name":"hasRole","outputs":[{"internalType":"bool","name":"","type":"bool"}],"stateMutability":"view","type":"function"},{"inputs":[{"internalType":"address","name":"owner","type":"address"},{"internalType":"address","name":"operator","type":"address"}],"name":"isApprovedForAll","outputs":[{"internalType":"bool","name":"","type":"bool"}],"stateMutability":"view","type":"function"},{"inputs":[],"name":"name","outputs":[{"internalType":"string","name":"","type":"string"}],"stateMutability":"view","type":"function"},{"inputs":[{"internalType":"uint256","name":"tokenId","type":"uint256"}],"name":"ownerOf","outputs":[{"internalType":"address","name":"","type":"address"}],"stateMutability":"view","type":"function"},{"inputs":[{"internalType":"bytes32","name":"role","type":"bytes32"},{"internalType":"address","name":"callerConfirmation","type":"address"}],"name":"renounceRole","outputs":[],"stateMutability":"nonpayable","type":"function"},{"inputs":[{"internalType":"bytes32","name":"role","type":"bytes32"},{"internalType":"address","name":"account","type":"address"}],"name":"revokeRole","outputs":[],"stateMutability":"nonpayable","type":"function"},{"inputs":[{"internalType":"address","name":"to","type":"address"}],"name":"safeMint","outputs":[{"internalType":"uint256","name":"","type":"uint256"}],"stateMutability":"nonpayable","type":"function"},{"inputs":[{"internalType":"address","name":"from","type":"address"},{"internalType":"address","name":"to","type":"address"},{"internalType":"uint256","name":"tokenId","type":"uint256"}],"name":"safeTransferFrom","outputs":[],"stateMutability":"nonpayable","type":"function"},{"inputs":[{"internalType":"address","name":"from","type":"address"},{"internalType":"address","name":"to","type":"address"},{"internalType":"uint256","name":"tokenId","type":"uint256"},{"internalType":"bytes","name":"data","type":"bytes"}],"name":"safeTransferFrom","outputs":[],"stateMutability":"nonpayable","type":"function"},{"inputs":[{"internalType":"address","name":"operator","type":"address"},{"internalType":"bool","name":"approved","type":"bool"}],"name":"setApprovalForAll","outputs":[],"stateMutability":"nonpayable","type":"function"},{"inputs":[{"internalType":"bytes4","name":"interfaceId","type":"bytes4"}],"name":"supportsInterface","outputs":[{"internalType":"bool","name":"","type":"bool"}],"stateMutability":"view","type":"function"},{"inputs":[],"name":"symbol","outputs":[{"internalType":"string","name":"","type":"string"}],"stateMutability":"view","type":"function"},{"inputs":[{"internalType":"uint256","name":"index","type":"uint256"}],"name":"tokenByIndex","outputs":[{"internalType":"uint256","name":"","type":"uint256"}],"stateMutability":"view","type":"function"},{"inputs":[{"internalType":"address","name":"owner","type":"address"},{"internalType":"uint256","name":"index","type":"uint256"}],"name":"tokenOfOwnerByIndex","outputs":[{"internalType":"uint256","name":"","type":"uint256"}],"stateMutability":"view","type":"function"},{"inputs":[{"internalType":"uint256","name":"tokenId","type":"uint256"}],"name":"tokenURI","outputs":[{"internalType":"string","name":"","type":"string"}],"stateMutability":"view","type":"function"},{"inputs":[],"name":"totalSupply","outputs":[{"internalType":"uint256","name":"","type":"uint256"}],"stateMutability":"view","type":"function"},{"inputs":[{"internalType":"address","name":"from","type":"address"},{"internalType":"address","name":"to","type":"address"},{"internalType":"uint256","name":"tokenId","type":"uint256"}],"name":"transferFrom","outputs":[],"stateMutability":"nonpayable","type":"function"},{"inputs":[],"name":"updateCertificate","outputs":[{"internalType":"bool","name":"","type":"bool"}],"stateMutability":"nonpayable","type":"function"},{"inputs":[{"internalType":"string","name":"_name","type":"string"},{"internalType":"string","name":"_email","type":"string"},{"internalType":"string","name":"_location","type":"string"},{"internalType":"bool","name":"_visible","type":"bool"}],"name":"updateCustomer","outputs":[{"internalType":"bool","name":"","type":"bool"}],"stateMutability":"nonpayable","type":"function"},{"inputs":[{"internalType":"string","name":"_name","type":"string"},{"internalType":"string","name":"_email","type":"string"},{"internalType":"string","name":"_location","type":"string"},{"internalType":"bool","name":"_visible","type":"bool"}],"name":"updateJeweler","outputs":[{"internalType":"bool","name":"","type":"bool"}],"stateMutability":"nonpayable","type":"function"}],"evm":{"bytecode":{"linkReferences":{},"object":"608060405234801561001057600080fd5b5060405161668538038061668583398181016040528101906100329190610371565b6040518060400160405280600f81526020017f476f6c64436861696e45524337323100000000000000000000000000000000008152506040518060400160405280600281526020017f474300000000000000000000000000000000000000000000000000000000000081525081600190816100ad91906105ee565b5080600290816100bd91906105ee565b5050506100d36000801b3361018d60201b60201c565b506101047fdf8b4c520ffe197c5343c6f5aec59570151ef9a492f2c624fd45ddde6135ec423361018d60201b60201c565b5033600d60006101000a81548173ffffffffffffffffffffffffffffffffffffffff021916908373ffffffffffffffffffffffffffffffffffffffff16021790555080600c60006101000a81548173ffffffffffffffffffffffffffffffffffffffff021916908373ffffffffffffffffffffffffffffffffffffffff160217905550506106c0565b600061019f838361028a60201b60201c565b61027f57600160008085815260200190815260200160002060000160008473ffffffffffffffffffffffffffffffffffffffff1673ffffffffffffffffffffffffffffffffffffffff16815260200190815260200160002060006101000a81548160ff02191690831515021790555061021c6102f460201b60201c565b73ffffffffffffffffffffffffffffffffffffffff168273ffffffffffffffffffffffffffffffffffffffff16847f2f8788117e7eff1d82e926ec794901d17c78024a50270940304540a733656f0d60405160405180910390a460019050610284565b600090505b92915050565b600080600084815260200190815260200160002060000160008373ffffffffffffffffffffffffffffffffffffffff1673ffffffffffffffffffffffffffffffffffffffff16815260200190815260200160002060009054906101000a900460ff16905092915050565b600033905090565b600080fd5b600073ffffffffffffffffffffffffffffffffffffffff82169050919050565b600061032c82610301565b9050919050565b600061033e82610321565b9050919050565b61034e81610333565b811461035957600080fd5b50565b60008151905061036b81610345565b92915050565b600060208284031215610387576103866102fc565b5b60006103958482850161035c565b91505092915050565b600081519050919050565b7f4e487b7100000000000000000000000000000000000000000000000000000000600052604160045260246000fd5b7f4e487b7100000000000000000000000000000000000000000000000000000000600052602260045260246000fd5b6000600282049050600182168061041f57607f821691505b602082108103610432576104316103d8565b5b50919050565b60008190508160005260206000209050919050565b60006020601f8301049050919050565b600082821b905092915050565b60006008830261049a7fffffffffffffffffffffffffffffffffffffffffffffffffffffffffffffffff8261045d565b6104a4868361045d565b95508019841693508086168417925050509392505050565b6000819050919050565b6000819050919050565b60006104eb6104e66104e1846104bc565b6104c6565b6104bc565b9050919050565b6000819050919050565b610505836104d0565b610519610511826104f2565b84845461046a565b825550505050565b600090565b61052e610521565b6105398184846104fc565b505050565b5b8181101561055d57610552600082610526565b60018101905061053f565b5050565b601f8211156105a25761057381610438565b61057c8461044d565b8101602085101561058b578190505b61059f6105978561044d565b83018261053e565b50505b505050565b600082821c905092915050565b60006105c5600019846008026105a7565b1980831691505092915050565b60006105de83836105b4565b9150826002028217905092915050565b6105f78261039e565b67ffffffffffffffff8111156106105761060f6103a9565b5b61061a8254610407565b610625828285610561565b600060209050601f8311600181146106585760008415610646578287015190505b61065085826105d2565b8655506106b8565b601f19841661066686610438565b60005b8281101561068e57848901518255600182019150602085019450602081019050610669565b868310156106ab57848901516106a7601f8916826105b4565b8355505b6001600288020188555050505b505050505050565b615fb6806106cf6000396000f3fe608060405234801561001057600080fd5b50600436106102485760003560e01c806355ed5fe81161013b578063a217fddf116100b8578063d547741f1161007c578063d547741f146107af578063e985e9c5146107cb578063ee7bf0ee146107fb578063f2e0bc581461082b578063f851a4401461085b57610248565b8063a217fddf146106f9578063a22cb46514610717578063b88d4fde14610733578063bab859a51461074f578063c87b56dd1461077f57610248565b8063832cc77e116100ff578063832cc77e1461063f578063899f9d0d1461066f5780638c2717771461068d57806391d14854146106ab57806395d89b41146106db57610248565b806355ed5fe81461056157806357a00ccf146105915780635994d984146105c15780636352211e146105df57806370a082311461060f57610248565b80632b3dd38b116101c957806341cc7c731161018d57806341cc7c731461049757806342842e0e146104c75780634f6ccce7146104e35780634ff7986e1461051357806355b059e81461053157610248565b80632b3dd38b146103cf5780632f2ff15d146103ff5780632f745c591461041b57806336568abe1461044b57806340d097c31461046757610248565b806318160ddd1161021057806318160ddd146103175780632027d7461461033557806323b872dd14610353578063248a9ca31461036f57806329acc2091461039f57610248565b806301ffc9a71461024d57806306fdde031461027d578063081812fc1461029b578063081ba2d5146102cb578063095ea7b3146102fb575b600080fd5b61026760048036038101906102629190613a14565b610879565b6040516102749190613a5c565b60405180910390f35b61028561088b565b6040516102929190613b07565b60405180910390f35b6102b560048036038101906102b09190613b5f565b61091d565b6040516102c29190613bcd565b60405180910390f35b6102e560048036038101906102e09190613c14565b610939565b6040516102f29190613a5c565b60405180910390f35b61031560048036038101906103109190613c41565b610a47565b005b61031f610a5d565b60405161032c9190613c90565b60405180910390f35b61033d610a6a565b60405161034a9190613c90565b60405180910390f35b61036d60048036038101906103689190613cab565b610b02565b005b61038960048036038101906103849190613d34565b610c04565b6040516103969190613d70565b60405180910390f35b6103b960048036038101906103b49190613c14565b610c23565b6040516103c69190613a5c565b60405180910390f35b6103e960048036038101906103e49190613e1c565b610d31565b6040516103f69190613a5c565b60405180910390f35b61041960048036038101906104149190613ee5565b610e53565b005b61043560048036038101906104309190613c41565b610e75565b6040516104429190613c90565b60405180910390f35b61046560048036038101906104609190613ee5565b610f1e565b005b610481600480360381019061047c9190613c14565b610f99565b60405161048e9190613c90565b60405180910390f35b6104b160048036038101906104ac9190613ffe565b610fc8565b6040516104be9190613a5c565b60405180910390f35b6104e160048036038101906104dc9190613cab565b6110c7565b005b6104fd60048036038101906104f89190613b5f565b6110e7565b60405161050a9190613c90565b60405180910390f35b61051b61115d565b6040516105289190613a5c565b60405180910390f35b61054b60048036038101906105469190614122565b611162565b6040516105589190613a5c565b60405180910390f35b61057b60048036038101906105769190614122565b6112e5565b6040516105889190613a5c565b60405180910390f35b6105ab60048036038101906105a69190613c14565b61146b565b6040516105b891906143b2565b60405180910390f35b6105c961151b565b6040516105d69190613a5c565b60405180910390f35b6105f960048036038101906105f49190613b5f565b611520565b6040516106069190613bcd565b60405180910390f35b61062960048036038101906106249190613c14565b611532565b6040516106369190613c90565b60405180910390f35b61065960048036038101906106549190614504565b6115ec565b6040516106669190613b07565b60405180910390f35b6106776115fe565b6040516106849190613a5c565b60405180910390f35b610695611607565b6040516106a29190613c90565b60405180910390f35b6106c560048036038101906106c09190613ee5565b61169f565b6040516106d29190613a5c565b60405180910390f35b6106e3611709565b6040516106f09190613b07565b60405180910390f35b61070161179b565b60405161070e9190613d70565b60405180910390f35b610731600480360381019061072c919061454d565b6117a2565b005b61074d6004803603810190610748919061458d565b6117b8565b005b61076960048036038101906107649190613b5f565b6117dd565b6040516107769190614867565b60405180910390f35b61079960048036038101906107949190613b5f565b61188d565b6040516107a69190613b07565b60405180910390f35b6107c960048036038101906107c49190613ee5565b6119c4565b005b6107e560048036038101906107e09190614889565b6119e6565b6040516107f29190613a5c565b60405180910390f35b61081560048036038101906108109190613c14565b611a7a565b604051610822919061497a565b60405180910390f35b61084560048036038101906108409190613e1c565b611b2a565b6040516108529190613a5c565b60405180910390f35b610863611c4c565b6040516108709190613bcd565b60405180910390f35b600061088482611c72565b9050919050565b60606001805461089a906149cb565b80601f01602080910402602001604051908101604052809291908181526020018280546108c6906149cb565b80156109135780601f106108e857610100808354040283529160200191610913565b820191906000526020600020905b8154815290600101906020018083116108f657829003601f168201915b5050505050905090565b600061092882611c84565b5061093282611d0c565b9050919050565b60007fdf8b4c520ffe197c5343c6f5aec59570151ef9a492f2c624fd45ddde6135ec4261096581611d49565b600c60009054906101000a900473ffffffffffffffffffffffffffffffffffffffff1673ffffffffffffffffffffffffffffffffffffffff1663081ba2d5846040518263ffffffff1660e01b81526004016109c09190613bcd565b6020604051808303816000875af11580156109df573d6000803e3d6000fd5b505050506040513d601f19601f82011682018060405250810190610a039190614a11565b507f188d8ca5695483231734d1734924f73ab34848f997f2de827c8f73033b4614ae8342604051610a35929190614a3e565b60405180910390a16001915050919050565b610a598282610a54611d5d565b611d65565b5050565b6000600980549050905090565b6000600c60009054906101000a900473ffffffffffffffffffffffffffffffffffffffff1673ffffffffffffffffffffffffffffffffffffffff16632027d7466040518163ffffffff1660e01b8152600401602060405180830381865afa158015610ad9573d6000803e3d6000fd5b505050506040513d601f19601f82011682018060405250810190610afd9190614a7c565b905090565b600073ffffffffffffffffffffffffffffffffffffffff168273ffffffffffffffffffffffffffffffffffffffff1603610b745760006040517f64a0ae92000000000000000000000000000000000000000000000000000000008152600401610b6b9190613bcd565b60405180910390fd5b6000610b888383610b83611d5d565b611d77565b90508373ffffffffffffffffffffffffffffffffffffffff168173ffffffffffffffffffffffffffffffffffffffff1614610bfe578382826040517f64283d7b000000000000000000000000000000000000000000000000000000008152600401610bf593929190614aa9565b60405180910390fd5b50505050565b6000806000838152602001908152602001600020600101549050919050565b60007fdf8b4c520ffe197c5343c6f5aec59570151ef9a492f2c624fd45ddde6135ec42610c4f81611d49565b600c60009054906101000a900473ffffffffffffffffffffffffffffffffffffffff1673ffffffffffffffffffffffffffffffffffffffff166329acc209846040518263ffffffff1660e01b8152600401610caa9190613bcd565b6020604051808303816000875af1158015610cc9573d6000803e3d6000fd5b505050506040513d601f19601f82011682018060405250810190610ced9190614a11565b507f449422d37ad477a115e35ded9d4971e6ed3594f45df1408f1eb2320a8bc5c2b88342604051610d1f929190614a3e565b60405180910390a16001915050919050565b60007f61e6a4bb6bca8aa1f17c71895c1ab1bf9c06c812442a0a16aad9f0837c23ca79610d5d81611d49565b600c60009054906101000a900473ffffffffffffffffffffffffffffffffffffffff1673ffffffffffffffffffffffffffffffffffffffff1663a735e5de338b8b8b8b8b8b8b6040518963ffffffff1660e01b8152600401610dc6989796959493929190614b0d565b6020604051808303816000875af1158015610de5573d6000803e3d6000fd5b505050506040513d601f19601f82011682018060405250810190610e099190614a11565b507fc21195a7f73acb0112d9942f6c5c02acc3d8d2c74ab81a6c28f4f492dac933b83342604051610e3b929190614a3e565b60405180910390a16001915050979650505050505050565b610e5c82610c04565b610e6581611d49565b610e6f8383611d8d565b50505050565b6000610e8083611532565b8210610ec55782826040517fa57d13dc000000000000000000000000000000000000000000000000000000008152600401610ebc929190614a3e565b60405180910390fd5b600760008473ffffffffffffffffffffffffffffffffffffffff1673ffffffffffffffffffffffffffffffffffffffff168152602001908152602001600020600083815260200190815260200160002054905092915050565b610f26611d5d565b73ffffffffffffffffffffffffffffffffffffffff168173ffffffffffffffffffffffffffffffffffffffff1614610f8a576040517f6697b23200000000000000000000000000000000000000000000000000000000815260040160405180910390fd5b610f948282611e7e565b505050565b600080600b6000815480929190610faf90614baa565b919050559050610fbf8382611f70565b80915050919050565b60007f61e6a4bb6bca8aa1f17c71895c1ab1bf9c06c812442a0a16aad9f0837c23ca79610ff481611d49565b600c60009054906101000a900473ffffffffffffffffffffffffffffffffffffffff1673ffffffffffffffffffffffffffffffffffffffff166364df69e78e8e8e8e8e8e8e8e8e8e8e6040518c63ffffffff1660e01b81526004016110639b9a99989796959493929190614cbb565b6020604051808303816000875af1158015611082573d6000803e3d6000fd5b505050506040513d601f19601f820116820180604052508101906110a69190614a11565b506110b333600b54611f70565b60019150509b9a5050505050505050505050565b6110e2838383604051806020016040528060008152506117b8565b505050565b60006110f1610a5d565b8210611137576000826040517fa57d13dc00000000000000000000000000000000000000000000000000000000815260040161112e929190614a3e565b60405180910390fd5b6009828154811061114b5761114a614d4e565b5b90600052602060002001549050919050565b600081565b600061118e7faf6786efc154b345802554f1dea27e60ea4c3393b6b38eb8438e22c20e088bd23361169f565b156111c5576040517f937df23900000000000000000000000000000000000000000000000000000000815260040160405180910390fd5b6111ef7faf6786efc154b345802554f1dea27e60ea4c3393b6b38eb8438e22c20e088bd233611d8d565b50600c60009054906101000a900473ffffffffffffffffffffffffffffffffffffffff1673ffffffffffffffffffffffffffffffffffffffff16630f6a35403389898989898960016040518963ffffffff1660e01b815260040161125a989796959493929190614b0d565b6020604051808303816000875af1158015611279573d6000803e3d6000fd5b505050506040513d601f19601f8201168201806040525081019061129d9190614a11565b507f9355f2ba77852e61793679ff03cf26231b8175fdfb97dc47490f1b151e6ab0d433426040516112cf929190614a3e565b60405180910390a1600190509695505050505050565b60006113117f61e6a4bb6bca8aa1f17c71895c1ab1bf9c06c812442a0a16aad9f0837c23ca793361169f565b15611348576040517f9e5ae09300000000000000000000000000000000000000000000000000000000815260040160405180910390fd5b6113727f61e6a4bb6bca8aa1f17c71895c1ab1bf9c06c812442a0a16aad9f0837c23ca7933611d8d565b50600c60009054906101000a900473ffffffffffffffffffffffffffffffffffffffff1673ffffffffffffffffffffffffffffffffffffffff16637208ca1933898989898989600060016040518a63ffffffff1660e01b81526004016113e099989796959493929190614d7d565b6020604051808303816000875af11580156113ff573d6000803e3d6000fd5b505050506040513d601f19601f820116820180604052508101906114239190614a11565b507fa12abd8201760a4e094635a878d94e4e31ee41204057e1ba4081b4c8ba7df8a83342604051611455929190614a3e565b60405180910390a1600190509695505050505050565b6114736138ad565b600c60009054906101000a900473ffffffffffffffffffffffffffffffffffffffff1673ffffffffffffffffffffffffffffffffffffffff166357a00ccf836040518263ffffffff1660e01b81526004016114ce9190613bcd565b600060405180830381865afa1580156114eb573d6000803e3d6000fd5b505050506040513d6000823e3d601f19601f8201168201806040525081019061151491906150a1565b9050919050565b600181565b600061152b82611c84565b9050919050565b60008073ffffffffffffffffffffffffffffffffffffffff168273ffffffffffffffffffffffffffffffffffffffff16036115a55760006040517f89c62b6400000000000000000000000000000000000000000000000000000000815260040161159c9190613bcd565b60405180910390fd5b600460008373ffffffffffffffffffffffffffffffffffffffff1673ffffffffffffffffffffffffffffffffffffffff168152602001908152602001600020549050919050565b60606115f782611f8e565b9050919050565b60006001905090565b6000600c60009054906101000a900473ffffffffffffffffffffffffffffffffffffffff1673ffffffffffffffffffffffffffffffffffffffff16638c2717776040518163ffffffff1660e01b8152600401602060405180830381865afa158015611676573d6000803e3d6000fd5b505050506040513d601f19601f8201168201806040525081019061169a9190614a7c565b905090565b600080600084815260200190815260200160002060000160008373ffffffffffffffffffffffffffffffffffffffff1673ffffffffffffffffffffffffffffffffffffffff16815260200190815260200160002060009054906101000a900460ff16905092915050565b606060028054611718906149cb565b80601f0160208091040260200160405190810160405280929190818152602001828054611744906149cb565b80156117915780601f1061176657610100808354040283529160200191611791565b820191906000526020600020905b81548152906001019060200180831161177457829003601f168201915b5050505050905090565b6000801b81565b6117b46117ad611d5d565b8383612125565b5050565b6117c3848484610b02565b6117d76117ce611d5d565b85858585612294565b50505050565b6117e56138f6565b600c60009054906101000a900473ffffffffffffffffffffffffffffffffffffffff1673ffffffffffffffffffffffffffffffffffffffff1663bab859a5836040518263ffffffff1660e01b81526004016118409190613c90565b600060405180830381865afa15801561185d573d6000803e3d6000fd5b505050506040513d6000823e3d601f19601f82011682018060405250810190611886919061533c565b9050919050565b6060600b5482106118ca576040517fceea21b600000000000000000000000000000000000000000000000000000000815260040160405180910390fd5b6040518060400160405280601d81526020017f646174613a6170706c69636174696f6e2f6a736f6e3b6261736536342c00000081525061199d604051806060016040528060258152602001615f016025913961192585612445565b61192e86612513565b61193f61193a88612720565b611f8e565b6040518060400160405280600281526020017f227d0000000000000000000000000000000000000000000000000000000000008152506040516020016119899594939291906153c1565b604051602081830303815290604052611f8e565b6040516020016119ae92919061540c565b6040516020818303038152906040529050919050565b6119cd82610c04565b6119d681611d49565b6119e08383611e7e565b50505050565b6000600660008473ffffffffffffffffffffffffffffffffffffffff1673ffffffffffffffffffffffffffffffffffffffff16815260200190815260200160002060008373ffffffffffffffffffffffffffffffffffffffff1673ffffffffffffffffffffffffffffffffffffffff16815260200190815260200160002060009054906101000a900460ff16905092915050565b611a82613969565b600c60009054906101000a900473ffffffffffffffffffffffffffffffffffffffff1673ffffffffffffffffffffffffffffffffffffffff1663ee7bf0ee836040518263ffffffff1660e01b8152600401611add9190613bcd565b600060405180830381865afa158015611afa573d6000803e3d6000fd5b505050506040513d6000823e3d601f19601f82011682018060405250810190611b239190615554565b9050919050565b60007faf6786efc154b345802554f1dea27e60ea4c3393b6b38eb8438e22c20e088bd2611b5681611d49565b600c60009054906101000a900473ffffffffffffffffffffffffffffffffffffffff1673ffffffffffffffffffffffffffffffffffffffff1663dfd49f25338b8b8b8b8b8b8b6040518963ffffffff1660e01b8152600401611bbf989796959493929190614b0d565b6020604051808303816000875af1158015611bde573d6000803e3d6000fd5b505050506040513d601f19601f82011682018060405250810190611c029190614a11565b507f3e981d6fd4c5bd91ef3f68ca28a36322130d52221ab7319ae700e4c417dcc8e33342604051611c34929190614a3e565b60405180910390a16001915050979650505050505050565b600d60009054906101000a900473ffffffffffffffffffffffffffffffffffffffff1681565b6000611c7d82612a5e565b9050919050565b600080611c9083612ad8565b9050600073ffffffffffffffffffffffffffffffffffffffff168173ffffffffffffffffffffffffffffffffffffffff1603611d0357826040517f7e273289000000000000000000000000000000000000000000000000000000008152600401611cfa9190613c90565b60405180910390fd5b80915050919050565b60006005600083815260200190815260200160002060009054906101000a900473ffffffffffffffffffffffffffffffffffffffff169050919050565b611d5a81611d55611d5d565b612b15565b50565b600033905090565b611d728383836001612b66565b505050565b6000611d84848484612d2b565b90509392505050565b6000611d99838361169f565b611e7357600160008085815260200190815260200160002060000160008473ffffffffffffffffffffffffffffffffffffffff1673ffffffffffffffffffffffffffffffffffffffff16815260200190815260200160002060006101000a81548160ff021916908315150217905550611e10611d5d565b73ffffffffffffffffffffffffffffffffffffffff168273ffffffffffffffffffffffffffffffffffffffff16847f2f8788117e7eff1d82e926ec794901d17c78024a50270940304540a733656f0d60405160405180910390a460019050611e78565b600090505b92915050565b6000611e8a838361169f565b15611f6557600080600085815260200190815260200160002060000160008473ffffffffffffffffffffffffffffffffffffffff1673ffffffffffffffffffffffffffffffffffffffff16815260200190815260200160002060006101000a81548160ff021916908315150217905550611f02611d5d565b73ffffffffffffffffffffffffffffffffffffffff168273ffffffffffffffffffffffffffffffffffffffff16847ff6391f5c32d9c69d2a47ea670b442974b53935d1edc7fd64eb21e047a839171b60405160405180910390a460019050611f6a565b600090505b92915050565b611f8a828260405180602001604052806000815250612e48565b5050565b606060008251905060008103611fb65760405180602001604052806000815250915050612120565b60006003600283611fc7919061559d565b611fd19190615600565b6004611fdd9190615631565b90506000602082611fee919061559d565b67ffffffffffffffff811115612007576120066143d9565b5b6040519080825280601f01601f1916602001820160405280156120395781602001600182028036833780820191505090505b5090506000604051806060016040528060408152602001615cb1604091399050600181016020830160005b868110156120dd5760038101905062ffffff818a015116603f8160121c168401518060081b905060ff603f83600c1c1686015116810190508060081b905060ff603f8360061c1686015116810190508060081b905060ff603f831686015116810190508060e01b90508084526004840193505050612064565b5060038606600181146120f7576002811461210757612112565b613d3d60f01b6002830352612112565b603d60f81b60018303525b508484525050819450505050505b919050565b600073ffffffffffffffffffffffffffffffffffffffff168273ffffffffffffffffffffffffffffffffffffffff160361219657816040517f5b08ba1800000000000000000000000000000000000000000000000000000000815260040161218d9190613bcd565b60405180910390fd5b80600660008573ffffffffffffffffffffffffffffffffffffffff1673ffffffffffffffffffffffffffffffffffffffff16815260200190815260200160002060008473ffffffffffffffffffffffffffffffffffffffff1673ffffffffffffffffffffffffffffffffffffffff16815260200190815260200160002060006101000a81548160ff0219169083151502179055508173ffffffffffffffffffffffffffffffffffffffff168373ffffffffffffffffffffffffffffffffffffffff167f17307eab39ab6107e8899845ad3d59bd9653f200f220920489ca2b5937696c31836040516122879190613a5c565b60405180910390a3505050565b60008373ffffffffffffffffffffffffffffffffffffffff163b111561243e578273ffffffffffffffffffffffffffffffffffffffff1663150b7a02868685856040518563ffffffff1660e01b81526004016122f394939291906156c8565b6020604051808303816000875af192505050801561232f57506040513d601f19601f8201168201806040525081019061232c9190615729565b60015b6123b3573d806000811461235f576040519150601f19603f3d011682016040523d82523d6000602084013e612364565b606091505b5060008151036123ab57836040517f64a0ae920000000000000000000000000000000000000000000000000000000081526004016123a29190613bcd565b60405180910390fd5b805181602001fd5b63150b7a0260e01b7bffffffffffffffffffffffffffffffffffffffffffffffffffffffff1916817bffffffffffffffffffffffffffffffffffffffffffffffffffffffff19161461243c57836040517f64a0ae920000000000000000000000000000000000000000000000000000000081526004016124339190613bcd565b60405180910390fd5b505b5050505050565b60606000600161245484612e6c565b01905060008167ffffffffffffffff811115612473576124726143d9565b5b6040519080825280601f01601f1916602001820160405280156124a55781602001600182028036833780820191505090505b509050600082602001820190505b600115612508578080600190039150507f3031323334353637383961626364656600000000000000000000000000000000600a86061a8153600a85816124fc576124fb6155d1565b5b049450600085036124b3575b819350505050919050565b60606000600c60009054906101000a900473ffffffffffffffffffffffffffffffffffffffff1673ffffffffffffffffffffffffffffffffffffffff1663bab859a5846040518263ffffffff1660e01b81526004016125729190613c90565b600060405180830381865afa15801561258f573d6000803e3d6000fd5b505050506040513d6000823e3d601f19601f820116820180604052508101906125b8919061533c565b90506000604051806060016040528060398152602001615ad6603991398260e001516040518060600160405280602b8152602001615cf1602b9139846040015160008151811061260b5761260a614d4e565b5b60200260200101516040518060600160405280602c8152602001615f55602c9139866060015160008151811061264457612643614d4e565b5b60200260200101516040516020016126619695949392919061578c565b6040516020818303038152906040529050806040518060600160405280602c8152602001615a38602c913961269c846080015160ff16612445565b6040518060600160405280602881526020016159c3602891398560a001516040518060600160405280602f8152602001615f26602f91398760c0015160405180606001604052806028815260200161594460289139604051602001612708989796959493929190615803565b60405160208183030381529060405292505050919050565b6060600060405180608001604052806057815260200161596c605791396040518060a00160405280606e8152602001615b8b606e91396040518060a0016040528060798152602001615e22607991396040518060400160405280601781526020017f43657274696669636174204e46542064652042696a6f750000000000000000008152506040518060400160405280600781526020017f3c2f746578743e000000000000000000000000000000000000000000000000008152506040516020016127ef9594939291906153c1565b6040516020818303038152906040529050806040518060800160405280605d8152602001615d1c605d91396040518060800160405280605c8152602001615d79605c91396040518060a0016040528060728152602001615a64607291396040518060800160405280604d8152602001615c64604d91396040516020016128799594939291906153c1565b6040516020818303038152906040529050806040518060800160405280604d81526020016159eb604d91396040518060800160405280604d8152602001615dd5604d91396040518060a00160405280607c8152602001615b0f607c91396040518060400160405280600981526020017f476f6c64436861696e00000000000000000000000000000000000000000000008152506040516020016129209594939291906153c1565b6040516020818303038152906040529050806040518060400160405280600781526020017f3c2f746578743e000000000000000000000000000000000000000000000000008152506040518060a00160405280606b8152602001615bf9606b91396040518060a0016040528060668152602001615e9b606691396040516020016129ad9493929190615879565b6040516020818303038152906040529050806040518060400160405280600781526020017f3c2f746578743e000000000000000000000000000000000000000000000000008152506129fe85612445565b6040518060400160405280600681526020017f3c2f7376673e0000000000000000000000000000000000000000000000000000815250604051602001612a479493929190615879565b604051602081830303815290604052915050919050565b60007f780e9d63000000000000000000000000000000000000000000000000000000007bffffffffffffffffffffffffffffffffffffffffffffffffffffffff1916827bffffffffffffffffffffffffffffffffffffffffffffffffffffffff19161480612ad15750612ad082612fbf565b5b9050919050565b60006003600083815260200190815260200160002060009054906101000a900473ffffffffffffffffffffffffffffffffffffffff169050919050565b612b1f828261169f565b612b625780826040517fe2517d3f000000000000000000000000000000000000000000000000000000008152600401612b599291906158b7565b60405180910390fd5b5050565b8080612b9f5750600073ffffffffffffffffffffffffffffffffffffffff168273ffffffffffffffffffffffffffffffffffffffff1614155b15612cd3576000612baf84611c84565b9050600073ffffffffffffffffffffffffffffffffffffffff168373ffffffffffffffffffffffffffffffffffffffff1614158015612c1a57508273ffffffffffffffffffffffffffffffffffffffff168173ffffffffffffffffffffffffffffffffffffffff1614155b8015612c2d5750612c2b81846119e6565b155b15612c6f57826040517fa9fbf51f000000000000000000000000000000000000000000000000000000008152600401612c669190613bcd565b60405180910390fd5b8115612cd157838573ffffffffffffffffffffffffffffffffffffffff168273ffffffffffffffffffffffffffffffffffffffff167f8c5be1e5ebec7d5bd14f71427d1e84f3dd0314c0f7b2291e5b200ac8c7c3b92560405160405180910390a45b505b836005600085815260200190815260200160002060006101000a81548173ffffffffffffffffffffffffffffffffffffffff021916908373ffffffffffffffffffffffffffffffffffffffff16021790555050505050565b600080612d398585856130a1565b9050600073ffffffffffffffffffffffffffffffffffffffff168173ffffffffffffffffffffffffffffffffffffffff1603612d7d57612d78846132bb565b612dbc565b8473ffffffffffffffffffffffffffffffffffffffff168173ffffffffffffffffffffffffffffffffffffffff1614612dbb57612dba8185613304565b5b5b600073ffffffffffffffffffffffffffffffffffffffff168573ffffffffffffffffffffffffffffffffffffffff1603612dfe57612df9846133ef565b612e3d565b8473ffffffffffffffffffffffffffffffffffffffff168173ffffffffffffffffffffffffffffffffffffffff1614612e3c57612e3b85856134c0565b5b5b809150509392505050565b612e52838361354b565b612e67612e5d611d5d565b6000858585612294565b505050565b600080600090507a184f03e93ff9f4daa797ed6e38ed64bf6a1f0100000000000000008310612eca577a184f03e93ff9f4daa797ed6e38ed64bf6a1f0100000000000000008381612ec057612ebf6155d1565b5b0492506040810190505b6d04ee2d6d415b85acef81000000008310612f07576d04ee2d6d415b85acef81000000008381612efd57612efc6155d1565b5b0492506020810190505b662386f26fc100008310612f3657662386f26fc100008381612f2c57612f2b6155d1565b5b0492506010810190505b6305f5e1008310612f5f576305f5e1008381612f5557612f546155d1565b5b0492506008810190505b6127108310612f84576127108381612f7a57612f796155d1565b5b0492506004810190505b60648310612fa75760648381612f9d57612f9c6155d1565b5b0492506002810190505b600a8310612fb6576001810190505b80915050919050565b60007f80ac58cd000000000000000000000000000000000000000000000000000000007bffffffffffffffffffffffffffffffffffffffffffffffffffffffff1916827bffffffffffffffffffffffffffffffffffffffffffffffffffffffff1916148061308a57507f5b5e139f000000000000000000000000000000000000000000000000000000007bffffffffffffffffffffffffffffffffffffffffffffffffffffffff1916827bffffffffffffffffffffffffffffffffffffffffffffffffffffffff1916145b8061309a575061309982613644565b5b9050919050565b6000806130ad84612ad8565b9050600073ffffffffffffffffffffffffffffffffffffffff168373ffffffffffffffffffffffffffffffffffffffff16146130ef576130ee8184866136be565b5b600073ffffffffffffffffffffffffffffffffffffffff168173ffffffffffffffffffffffffffffffffffffffff161461318057613131600085600080612b66565b6001600460008373ffffffffffffffffffffffffffffffffffffffff1673ffffffffffffffffffffffffffffffffffffffff168152602001908152602001600020600082825403925050819055505b600073ffffffffffffffffffffffffffffffffffffffff168573ffffffffffffffffffffffffffffffffffffffff1614613203576001600460008773ffffffffffffffffffffffffffffffffffffffff1673ffffffffffffffffffffffffffffffffffffffff168152602001908152602001600020600082825401925050819055505b846003600086815260200190815260200160002060006101000a81548173ffffffffffffffffffffffffffffffffffffffff021916908373ffffffffffffffffffffffffffffffffffffffff160217905550838573ffffffffffffffffffffffffffffffffffffffff168273ffffffffffffffffffffffffffffffffffffffff167fddf252ad1be2c89b69c2b068fc378daa952ba7f163c4a11628f55a4df523b3ef60405160405180910390a4809150509392505050565b600980549050600a600083815260200190815260200160002081905550600981908060018154018082558091505060019003906000526020600020016000909190919091505550565b600061330f83611532565b90506000600860008481526020019081526020016000205490506000600760008673ffffffffffffffffffffffffffffffffffffffff1673ffffffffffffffffffffffffffffffffffffffff16815260200190815260200160002090508282146133bb5760008160008581526020019081526020016000205490508082600085815260200190815260200160002081905550826008600083815260200190815260200160002081905550505b6008600085815260200190815260200160002060009055806000848152602001908152602001600020600090555050505050565b6000600160098054905061340391906158e0565b90506000600a600084815260200190815260200160002054905060006009838154811061343357613432614d4e565b5b90600052602060002001549050806009838154811061345557613454614d4e565b5b906000526020600020018190555081600a600083815260200190815260200160002081905550600a60008581526020019081526020016000206000905560098054806134a4576134a3615914565b5b6001900381819060005260206000200160009055905550505050565b600060016134cd84611532565b6134d791906158e0565b905081600760008573ffffffffffffffffffffffffffffffffffffffff1673ffffffffffffffffffffffffffffffffffffffff168152602001908152602001600020600083815260200190815260200160002081905550806008600084815260200190815260200160002081905550505050565b600073ffffffffffffffffffffffffffffffffffffffff168273ffffffffffffffffffffffffffffffffffffffff16036135bd5760006040517f64a0ae920000000000000000000000000000000000000000000000000000000081526004016135b49190613bcd565b60405180910390fd5b60006135cb83836000611d77565b9050600073ffffffffffffffffffffffffffffffffffffffff168173ffffffffffffffffffffffffffffffffffffffff161461363f5760006040517f73c6ac6e0000000000000000000000000000000000000000000000000000000081526004016136369190613bcd565b60405180910390fd5b505050565b60007f7965db0b000000000000000000000000000000000000000000000000000000007bffffffffffffffffffffffffffffffffffffffffffffffffffffffff1916827bffffffffffffffffffffffffffffffffffffffffffffffffffffffff191614806136b757506136b682613782565b5b9050919050565b6136c98383836137ec565b61377d57600073ffffffffffffffffffffffffffffffffffffffff168373ffffffffffffffffffffffffffffffffffffffff160361373e57806040517f7e2732890000000000000000000000000000000000000000000000000000000081526004016137359190613c90565b60405180910390fd5b81816040517f177e802f000000000000000000000000000000000000000000000000000000008152600401613774929190614a3e565b60405180910390fd5b505050565b60007f01ffc9a7000000000000000000000000000000000000000000000000000000007bffffffffffffffffffffffffffffffffffffffffffffffffffffffff1916827bffffffffffffffffffffffffffffffffffffffffffffffffffffffff1916149050919050565b60008073ffffffffffffffffffffffffffffffffffffffff168373ffffffffffffffffffffffffffffffffffffffff16141580156138a457508273ffffffffffffffffffffffffffffffffffffffff168473ffffffffffffffffffffffffffffffffffffffff161480613865575061386484846119e6565b5b806138a357508273ffffffffffffffffffffffffffffffffffffffff1661388b83611d0c565b73ffffffffffffffffffffffffffffffffffffffff16145b5b90509392505050565b6040518061010001604052806000815260200160008152602001606081526020016060815260200160608152602001606081526020016000151581526020016000151581525090565b60405180610120016040528060008152602001600081526020016060815260200160608152602001600060ff1681526020016060815260200160006003811115613943576139426146ce565b5b81526020016060815260200160006004811115613963576139626146ce565b5b81525090565b6040518060e001604052806000815260200160008152602001606081526020016060815260200160608152602001600015158152602001606081525090565b6000604051905090565b600080fd5b600080fd5b60007fffffffff0000000000000000000000000000000000000000000000000000000082169050919050565b6139f1816139bc565b81146139fc57600080fd5b50565b600081359050613a0e816139e8565b92915050565b600060208284031215613a2a57613a296139b2565b5b6000613a38848285016139ff565b91505092915050565b60008115159050919050565b613a5681613a41565b82525050565b6000602082019050613a716000830184613a4d565b92915050565b600081519050919050565b600082825260208201905092915050565b60005b83811015613ab1578082015181840152602081019050613a96565b60008484015250505050565b6000601f19601f8301169050919050565b6000613ad982613a77565b613ae38185613a82565b9350613af3818560208601613a93565b613afc81613abd565b840191505092915050565b60006020820190508181036000830152613b218184613ace565b905092915050565b6000819050919050565b613b3c81613b29565b8114613b4757600080fd5b50565b600081359050613b5981613b33565b92915050565b600060208284031215613b7557613b746139b2565b5b6000613b8384828501613b4a565b91505092915050565b600073ffffffffffffffffffffffffffffffffffffffff82169050919050565b6000613bb782613b8c565b9050919050565b613bc781613bac565b82525050565b6000602082019050613be26000830184613bbe565b92915050565b613bf181613bac565b8114613bfc57600080fd5b50565b600081359050613c0e81613be8565b92915050565b600060208284031215613c2a57613c296139b2565b5b6000613c3884828501613bff565b91505092915050565b60008060408385031215613c5857613c576139b2565b5b6000613c6685828601613bff565b9250506020613c7785828601613b4a565b9150509250929050565b613c8a81613b29565b82525050565b6000602082019050613ca56000830184613c81565b92915050565b600080600060608486031215613cc457613cc36139b2565b5b6000613cd286828701613bff565b9350506020613ce386828701613bff565b9250506040613cf486828701613b4a565b9150509250925092565b6000819050919050565b613d1181613cfe565b8114613d1c57600080fd5b50565b600081359050613d2e81613d08565b92915050565b600060208284031215613d4a57613d496139b2565b5b6000613d5884828501613d1f565b91505092915050565b613d6a81613cfe565b82525050565b6000602082019050613d856000830184613d61565b92915050565b600080fd5b600080fd5b600080fd5b60008083601f840112613db057613daf613d8b565b5b8235905067ffffffffffffffff811115613dcd57613dcc613d90565b5b602083019150836001820283011115613de957613de8613d95565b5b9250929050565b613df981613a41565b8114613e0457600080fd5b50565b600081359050613e1681613df0565b92915050565b60008060008060008060006080888a031215613e3b57613e3a6139b2565b5b600088013567ffffffffffffffff811115613e5957613e586139b7565b5b613e658a828b01613d9a565b9750975050602088013567ffffffffffffffff811115613e8857613e876139b7565b5b613e948a828b01613d9a565b9550955050604088013567ffffffffffffffff811115613eb757613eb66139b7565b5b613ec38a828b01613d9a565b93509350506060613ed68a828b01613e07565b91505092959891949750929550565b60008060408385031215613efc57613efb6139b2565b5b6000613f0a85828601613d1f565b9250506020613f1b85828601613bff565b9150509250929050565b60008083601f840112613f3b57613f3a613d8b565b5b8235905067ffffffffffffffff811115613f5857613f57613d90565b5b602083019150836020820283011115613f7457613f73613d95565b5b9250929050565b600060ff82169050919050565b613f9181613f7b565b8114613f9c57600080fd5b50565b600081359050613fae81613f88565b92915050565b60048110613fc157600080fd5b50565b600081359050613fd381613fb4565b92915050565b60058110613fe657600080fd5b50565b600081359050613ff881613fd9565b92915050565b600080600080600080600080600080600060e08c8e031215614023576140226139b2565b5b60008c013567ffffffffffffffff811115614041576140406139b7565b5b61404d8e828f01613f25565b9b509b505060208c013567ffffffffffffffff8111156140705761406f6139b7565b5b61407c8e828f01613f25565b9950995050604061408f8e828f01613f9f565b97505060608c013567ffffffffffffffff8111156140b0576140af6139b7565b5b6140bc8e828f01613d9a565b965096505060806140cf8e828f01613fc4565b94505060a08c013567ffffffffffffffff8111156140f0576140ef6139b7565b5b6140fc8e828f01613d9a565b935093505060c061410f8e828f01613fe9565b9150509295989b509295989b9093969950565b6000806000806000806060878903121561413f5761413e6139b2565b5b600087013567ffffffffffffffff81111561415d5761415c6139b7565b5b61416989828a01613d9a565b9650965050602087013567ffffffffffffffff81111561418c5761418b6139b7565b5b61419889828a01613d9a565b9450945050604087013567ffffffffffffffff8111156141bb576141ba6139b7565b5b6141c789828a01613d9a565b92509250509295509295509295565b6141df81613b29565b82525050565b600082825260208201905092915050565b600061420182613a77565b61420b81856141e5565b935061421b818560208601613a93565b61422481613abd565b840191505092915050565b600081519050919050565b600082825260208201905092915050565b6000819050602082019050919050565b600061426783836141d6565b60208301905092915050565b6000602082019050919050565b600061428b8261422f565b614295818561423a565b93506142a08361424b565b8060005b838110156142d15781516142b8888261425b565b97506142c383614273565b9250506001810190506142a4565b5085935050505092915050565b6142e781613a41565b82525050565b60006101008301600083015161430660008601826141d6565b50602083015161431960208601826141d6565b506040830151848203604086015261433182826141f6565b9150506060830151848203606086015261434b82826141f6565b9150506080830151848203608086015261436582826141f6565b91505060a083015184820360a086015261437f8282614280565b91505060c083015161439460c08601826142de565b5060e08301516143a760e08601826142de565b508091505092915050565b600060208201905081810360008301526143cc81846142ed565b905092915050565b600080fd5b7f4e487b7100000000000000000000000000000000000000000000000000000000600052604160045260246000fd5b61441182613abd565b810181811067ffffffffffffffff821117156144305761442f6143d9565b5b80604052505050565b60006144436139a8565b905061444f8282614408565b919050565b600067ffffffffffffffff82111561446f5761446e6143d9565b5b61447882613abd565b9050602081019050919050565b82818337600083830152505050565b60006144a76144a284614454565b614439565b9050828152602081018484840111156144c3576144c26143d4565b5b6144ce848285614485565b509392505050565b600082601f8301126144eb576144ea613d8b565b5b81356144fb848260208601614494565b91505092915050565b60006020828403121561451a576145196139b2565b5b600082013567ffffffffffffffff811115614538576145376139b7565b5b614544848285016144d6565b91505092915050565b60008060408385031215614564576145636139b2565b5b600061457285828601613bff565b925050602061458385828601613e07565b9150509250929050565b600080600080608085870312156145a7576145a66139b2565b5b60006145b587828801613bff565b94505060206145c687828801613bff565b93505060406145d787828801613b4a565b925050606085013567ffffffffffffffff8111156145f8576145f76139b7565b5b614604878288016144d6565b91505092959194509250565b600081519050919050565b600082825260208201905092915050565b6000819050602082019050919050565b61464581613f7b565b82525050565b6000614657838361463c565b60208301905092915050565b6000602082019050919050565b600061467b82614610565b614685818561461b565b93506146908361462c565b8060005b838110156146c15781516146a8888261464b565b97506146b383614663565b925050600181019050614694565b5085935050505092915050565b7f4e487b7100000000000000000000000000000000000000000000000000000000600052602160045260246000fd5b6004811061470e5761470d6146ce565b5b50565b600081905061471f826146fd565b919050565b600061472f82614711565b9050919050565b61473f81614724565b82525050565b60058110614756576147556146ce565b5b50565b600081905061476782614745565b919050565b600061477782614759565b9050919050565b6147878161476c565b82525050565b6000610120830160008301516147a660008601826141d6565b5060208301516147b960208601826141d6565b50604083015184820360408601526147d18282614670565b915050606083015184820360608601526147eb8282614670565b9150506080830151614800608086018261463c565b5060a083015184820360a086015261481882826141f6565b91505060c083015161482d60c0860182614736565b5060e083015184820360e086015261484582826141f6565b91505061010083015161485c61010086018261477e565b508091505092915050565b60006020820190508181036000830152614881818461478d565b905092915050565b600080604083850312156148a05761489f6139b2565b5b60006148ae85828601613bff565b92505060206148bf85828601613bff565b9150509250929050565b600060e0830160008301516148e160008601826141d6565b5060208301516148f460208601826141d6565b506040830151848203604086015261490c82826141f6565b9150506060830151848203606086015261492682826141f6565b9150506080830151848203608086015261494082826141f6565b91505060a083015161495560a08601826142de565b5060c083015184820360c086015261496d8282614280565b9150508091505092915050565b6000602082019050818103600083015261499481846148c9565b905092915050565b7f4e487b7100000000000000000000000000000000000000000000000000000000600052602260045260246000fd5b600060028204905060018216806149e357607f821691505b6020821081036149f6576149f561499c565b5b50919050565b600081519050614a0b81613df0565b92915050565b600060208284031215614a2757614a266139b2565b5b6000614a35848285016149fc565b91505092915050565b6000604082019050614a536000830185613bbe565b614a606020830184613c81565b9392505050565b600081519050614a7681613b33565b92915050565b600060208284031215614a9257614a916139b2565b5b6000614aa084828501614a67565b91505092915050565b6000606082019050614abe6000830186613bbe565b614acb6020830185613c81565b614ad86040830184613bbe565b949350505050565b6000614aec8385613a82565b9350614af9838584614485565b614b0283613abd565b840190509392505050565b600060a082019050614b22600083018b613bbe565b8181036020830152614b3581898b614ae0565b90508181036040830152614b4a818789614ae0565b90508181036060830152614b5f818587614ae0565b9050614b6e6080830184613a4d565b9998505050505050505050565b7f4e487b7100000000000000000000000000000000000000000000000000000000600052601160045260246000fd5b6000614bb582613b29565b91507fffffffffffffffffffffffffffffffffffffffffffffffffffffffffffffffff8203614be757614be6614b7b565b5b600182019050919050565b600082825260208201905092915050565b6000819050919050565b6000614c1c6020840184613f9f565b905092915050565b6000602082019050919050565b6000614c3d8385614bf2565b9350614c4882614c03565b8060005b85811015614c8157614c5e8284614c0d565b614c68888261464b565b9750614c7383614c24565b925050600181019050614c4c565b5085925050509392505050565b614c9781613f7b565b82525050565b614ca681614724565b82525050565b614cb58161476c565b82525050565b600060e0820190508181036000830152614cd6818d8f614c31565b90508181036020830152614ceb818b8d614c31565b9050614cfa604083018a614c8e565b8181036060830152614d0d81888a614ae0565b9050614d1c6080830187614c9d565b81810360a0830152614d2f818587614ae0565b9050614d3e60c0830184614cac565b9c9b505050505050505050505050565b7f4e487b7100000000000000000000000000000000000000000000000000000000600052603260045260246000fd5b600060c082019050614d92600083018c613bbe565b8181036020830152614da5818a8c614ae0565b90508181036040830152614dba81888a614ae0565b90508181036060830152614dcf818688614ae0565b9050614dde6080830185613a4d565b614deb60a0830184613a4d565b9a9950505050505050505050565b600080fd5b600080fd5b600067ffffffffffffffff821115614e1e57614e1d6143d9565b5b614e2782613abd565b9050602081019050919050565b6000614e47614e4284614e03565b614439565b905082815260208101848484011115614e6357614e626143d4565b5b614e6e848285613a93565b509392505050565b600082601f830112614e8b57614e8a613d8b565b5b8151614e9b848260208601614e34565b91505092915050565b600067ffffffffffffffff821115614ebf57614ebe6143d9565b5b602082029050602081019050919050565b6000614ee3614ede84614ea4565b614439565b90508083825260208201905060208402830185811115614f0657614f05613d95565b5b835b81811015614f2f5780614f1b8882614a67565b845260208401935050602081019050614f08565b5050509392505050565b600082601f830112614f4e57614f4d613d8b565b5b8151614f5e848260208601614ed0565b91505092915050565b60006101008284031215614f7e57614f7d614df9565b5b614f89610100614439565b90506000614f9984828501614a67565b6000830152506020614fad84828501614a67565b602083015250604082015167ffffffffffffffff811115614fd157614fd0614dfe565b5b614fdd84828501614e76565b604083015250606082015167ffffffffffffffff81111561500157615000614dfe565b5b61500d84828501614e76565b606083015250608082015167ffffffffffffffff81111561503157615030614dfe565b5b61503d84828501614e76565b60808301525060a082015167ffffffffffffffff81111561506157615060614dfe565b5b61506d84828501614f39565b60a08301525060c0615081848285016149fc565b60c08301525060e0615095848285016149fc565b60e08301525092915050565b6000602082840312156150b7576150b66139b2565b5b600082015167ffffffffffffffff8111156150d5576150d46139b7565b5b6150e184828501614f67565b91505092915050565b600067ffffffffffffffff821115615105576151046143d9565b5b602082029050602081019050919050565b60008151905061512581613f88565b92915050565b600061513e615139846150ea565b614439565b9050808382526020820190506020840283018581111561516157615160613d95565b5b835b8181101561518a57806151768882615116565b845260208401935050602081019050615163565b5050509392505050565b600082601f8301126151a9576151a8613d8b565b5b81516151b984826020860161512b565b91505092915050565b6000815190506151d181613fb4565b92915050565b6000815190506151e681613fd9565b92915050565b6000610120828403121561520357615202614df9565b5b61520e610120614439565b9050600061521e84828501614a67565b600083015250602061523284828501614a67565b602083015250604082015167ffffffffffffffff81111561525657615255614dfe565b5b61526284828501615194565b604083015250606082015167ffffffffffffffff81111561528657615285614dfe565b5b61529284828501615194565b60608301525060806152a684828501615116565b60808301525060a082015167ffffffffffffffff8111156152ca576152c9614dfe565b5b6152d684828501614e76565b60a08301525060c06152ea848285016151c2565b60c08301525060e082015167ffffffffffffffff81111561530e5761530d614dfe565b5b61531a84828501614e76565b60e08301525061010061532f848285016151d7565b6101008301525092915050565b600060208284031215615352576153516139b2565b5b600082015167ffffffffffffffff8111156153705761536f6139b7565b5b61537c848285016151ec565b91505092915050565b600081905092915050565b600061539b82613a77565b6153a58185615385565b93506153b5818560208601613a93565b80840191505092915050565b60006153cd8288615390565b91506153d98287615390565b91506153e58286615390565b91506153f18285615390565b91506153fd8284615390565b91508190509695505050505050565b60006154188285615390565b91506154248284615390565b91508190509392505050565b600060e0828403121561544657615445614df9565b5b61545060e0614439565b9050600061546084828501614a67565b600083015250602061547484828501614a67565b602083015250604082015167ffffffffffffffff81111561549857615497614dfe565b5b6154a484828501614e76565b604083015250606082015167ffffffffffffffff8111156154c8576154c7614dfe565b5b6154d484828501614e76565b606083015250608082015167ffffffffffffffff8111156154f8576154f7614dfe565b5b61550484828501614e76565b60808301525060a0615518848285016149fc565b60a08301525060c082015167ffffffffffffffff81111561553c5761553b614dfe565b5b61554884828501614f39565b60c08301525092915050565b60006020828403121561556a576155696139b2565b5b600082015167ffffffffffffffff811115615588576155876139b7565b5b61559484828501615430565b91505092915050565b60006155a882613b29565b91506155b383613b29565b92508282019050808211156155cb576155ca614b7b565b5b92915050565b7f4e487b7100000000000000000000000000000000000000000000000000000000600052601260045260246000fd5b600061560b82613b29565b915061561683613b29565b925082615626576156256155d1565b5b828204905092915050565b600061563c82613b29565b915061564783613b29565b925082820261565581613b29565b9150828204841483151761566c5761566b614b7b565b5b5092915050565b600081519050919050565b600082825260208201905092915050565b600061569a82615673565b6156a4818561567e565b93506156b4818560208601613a93565b6156bd81613abd565b840191505092915050565b60006080820190506156dd6000830187613bbe565b6156ea6020830186613bbe565b6156f76040830185613c81565b8181036060830152615709818461568f565b905095945050505050565b600081519050615723816139e8565b92915050565b60006020828403121561573f5761573e6139b2565b5b600061574d84828501615714565b91505092915050565b60008160f81b9050919050565b600061576e82615756565b9050919050565b61578661578182613f7b565b615763565b82525050565b60006157988289615390565b91506157a48288615390565b91506157b08287615390565b91506157bc8286615775565b6001820191506157cc8285615390565b91506157d88284615775565b600182019150819050979650505050505050565b6157fd6157f882614724565b615763565b82525050565b600061580f828b615390565b915061581b828a615390565b91506158278289615390565b91506158338288615390565b915061583f8287615390565b915061584b8286615390565b915061585782856157ec565b6001820191506158678284615390565b91508190509998505050505050505050565b60006158858287615390565b91506158918286615390565b915061589d8285615390565b91506158a98284615390565b915081905095945050505050565b60006040820190506158cc6000830185613bbe565b6158d96020830184613d61565b9392505050565b60006158eb82613b29565b91506158f683613b29565b925082820390508181111561590e5761590d614b7b565b5b92915050565b7f4e487b7100000000000000000000000000000000000000000000000000000000600052603160045260246000fdfe227d5d2c22696d616765223a2022646174613a696d6167652f7376672b786d6c3b6261736536342c3c7376672077696474683d2238303022206865696768743d22383030222076696577426f783d2230203020383030203830302220786d6c6e733d22687474703a2f2f7777772e77332e6f72672f323030302f737667223e227d2c7b2274726169745f74797065223a20226d61696e436f6c6f72222c2276616c7565223a20223c6c696e652078313d22333330222079313d22333030222078323d22343730222079323d2233383022207374726f6b653d222338613666333022207374726f6b652d77696474683d2233222f3e227d2c7b2274726169745f74797065223a2022776569676874496e4772616d73222c2276616c7565223a20223c706f6c79676f6e20706f696e74733d223430302c323530203437302c333030203437302c333830203430302c343330203333302c333830203333302c333030222066696c6c3d22776869746522207374726f6b653d222338613666333022207374726f6b652d77696474683d2235222f3e222c202261747472696275746573223a205b7b2274726169745f74797065223a20224a6577656c65724e616d65222c2276616c7565223a20223c7465787420783d223530252220793d223630302220666f6e742d73697a653d2234302220666f6e742d66616d696c793d22417269616c2c2073616e732d73657269662220666f6e742d7765696768743d22626f6c64222066696c6c3d22236434616633372220746578742d616e63686f723d226d6964646c65223e3c7265637420783d22302220793d2230222077696474683d2238303022206865696768743d22383030222066696c6c3d222366386639666122207374726f6b653d222364346166333722207374726f6b652d77696474683d223130222072783d223230222072793d223230222f3e3c7265637420783d223230302220793d22363530222077696474683d2234303022206865696768743d223830222066696c6c3d22776869746522207374726f6b653d222333333322207374726f6b652d77696474683d2233222072783d223130222072793d223130222f3e3c6c696e652078313d22343030222079313d22323530222078323d22343030222079323d2234333022207374726f6b653d222338613666333022207374726f6b652d77696474683d2233222f3e4142434445464748494a4b4c4d4e4f505152535455565758595a6162636465666768696a6b6c6d6e6f707172737475767778797a303132333435363738392b2f227d2c7b2274726169745f74797065223a20226d61696e4d6174657269616c222c2276616c7565223a20223c656c6c697073652063783d22343030222063793d22343230222072783d22313830222072793d22313030222066696c6c3d226e6f6e6522207374726f6b653d222364346166333722207374726f6b652d77696474683d223230222f3e3c656c6c697073652063783d22343030222063793d22343230222072783d22313430222072793d223830222066696c6c3d226e6f6e6522207374726f6b653d222366386639666122207374726f6b652d77696474683d223230222f3e3c6c696e652078313d22343730222079313d22333030222078323d22333330222079323d2233383022207374726f6b653d222338613666333022207374726f6b652d77696474683d2233222f3e3c7465787420783d223530252220793d223132302220666f6e742d73697a653d2235302220666f6e742d66616d696c793d22417269616c2c2073616e732d73657269662220666f6e742d7765696768743d22626f6c64222066696c6c3d22233333332220746578742d616e63686f723d226d6964646c65223e3c7465787420783d223530252220793d223730302220666f6e742d73697a653d2233302220666f6e742d66616d696c793d22417269616c2c2073616e732d7365726966222066696c6c3d22233333332220746578742d616e63686f723d226d6964646c65223e7b226e616d65223a2022476f6c64436861696e204365727469666963617465204e46542023227d2c7b2274726169745f74797065223a202243657274696669636174654c6576656c222c2276616c7565223a2022227d2c7b2274726169745f74797065223a20226d61696e47656d53746f6e6573222c2276616c7565223a2022a2646970667358221220844413ca78203a3216ae5db9260adebf732dc21320232b8be7116442ccd7289864736f6c634300081c0033","opcodes":"PUSH1 0x80 PUSH1 0x40 MSTORE CALLVALUE DUP1 ISZERO PUSH2 0x10 JUMPI PUSH1 0x0 DUP1 REVERT JUMPDEST POP PUSH1 0x40 MLOAD PUSH2 0x6685 CODESIZE SUB DUP1 PUSH2 0x6685 DUP4 CODECOPY DUP2 DUP2 ADD PUSH1 0x40 MSTORE DUP2 ADD SWAP1 PUSH2 0x32 SWAP2 SWAP1 PUSH2 0x371 JUMP JUMPDEST PUSH1 0x40 MLOAD DUP1 PUSH1 0x40 ADD PUSH1 0x40 MSTORE DUP1 PUSH1 0xF DUP2 MSTORE PUSH1 0x20 ADD PUSH32 0x476F6C64436861696E4552433732310000000000000000000000000000000000 DUP2 MSTORE POP PUSH1 0x40 MLOAD DUP1 PUSH1 0x40 ADD PUSH1 0x40 MSTORE DUP1 PUSH1 0x2 DUP2 MSTORE PUSH1 0x20 ADD PUSH32 0x4743000000000000000000000000000000000000000000000000000000000000 DUP2 MSTORE POP DUP2 PUSH1 0x1 SWAP1 DUP2 PUSH2 0xAD SWAP2 SWAP1 PUSH2 0x5EE JUMP JUMPDEST POP DUP1 PUSH1 0x2 SWAP1 DUP2 PUSH2 0xBD SWAP2 SWAP1 PUSH2 0x5EE JUMP JUMPDEST POP POP POP PUSH2 0xD3 PUSH1 0x0 DUP1 SHL CALLER PUSH2 0x18D PUSH1 0x20 SHL PUSH1 0x20 SHR JUMP JUMPDEST POP PUSH2 0x104 PUSH32 0xDF8B4C520FFE197C5343C6F5AEC59570151EF9A492F2C624FD45DDDE6135EC42 CALLER PUSH2 0x18D PUSH1 0x20 SHL PUSH1 0x20 SHR JUMP JUMPDEST POP CALLER PUSH1 0xD PUSH1 0x0 PUSH2 0x100 EXP DUP2 SLOAD DUP2 PUSH20 0xFFFFFFFFFFFFFFFFFFFFFFFFFFFFFFFFFFFFFFFF MUL NOT AND SWAP1 DUP4 PUSH20 0xFFFFFFFFFFFFFFFFFFFFFFFFFFFFFFFFFFFFFFFF AND MUL OR SWAP1 SSTORE POP DUP1 PUSH1 0xC PUSH1 0x0 PUSH2 0x100 EXP DUP2 SLOAD DUP2 PUSH20 0xFFFFFFFFFFFFFFFFFFFFFFFFFFFFFFFFFFFFFFFF MUL NOT AND SWAP1 DUP4 PUSH20 0xFFFFFFFFFFFFFFFFFFFFFFFFFFFFFFFFFFFFFFFF AND MUL OR SWAP1 SSTORE POP POP PUSH2 0x6C0 JUMP JUMPDEST PUSH1 0x0 PUSH2 0x19F DUP4 DUP4 PUSH2 0x28A PUSH1 0x20 SHL PUSH1 0x20 SHR JUMP JUMPDEST PUSH2 0x27F JUMPI PUSH1 0x1 PUSH1 0x0 DUP1 DUP6 DUP2 MSTORE PUSH1 0x20 ADD SWAP1 DUP2 MSTORE PUSH1 0x20 ADD PUSH1 0x0 KECCAK256 PUSH1 0x0 ADD PUSH1 0x0 DUP5 PUSH20 0xFFFFFFFFFFFFFFFFFFFFFFFFFFFFFFFFFFFFFFFF AND PUSH20 0xFFFFFFFFFFFFFFFFFFFFFFFFFFFFFFFFFFFFFFFF AND DUP2 MSTORE PUSH1 0x20 ADD SWAP1 DUP2 MSTORE PUSH1 0x20 ADD PUSH1 0x0 KECCAK256 PUSH1 0x0 PUSH2 0x100 EXP DUP2 SLOAD DUP2 PUSH1 0xFF MUL NOT AND SWAP1 DUP4 ISZERO ISZERO MUL OR SWAP1 SSTORE POP PUSH2 0x21C PUSH2 0x2F4 PUSH1 0x20 SHL PUSH1 0x20 SHR JUMP JUMPDEST PUSH20 0xFFFFFFFFFFFFFFFFFFFFFFFFFFFFFFFFFFFFFFFF AND DUP3 PUSH20 0xFFFFFFFFFFFFFFFFFFFFFFFFFFFFFFFFFFFFFFFF AND DUP5 PUSH32 0x2F8788117E7EFF1D82E926EC794901D17C78024A50270940304540A733656F0D PUSH1 0x40 MLOAD PUSH1 0x40 MLOAD DUP1 SWAP2 SUB SWAP1 LOG4 PUSH1 0x1 SWAP1 POP PUSH2 0x284 JUMP JUMPDEST PUSH1 0x0 SWAP1 POP JUMPDEST SWAP3 SWAP2 POP POP JUMP JUMPDEST PUSH1 0x0 DUP1 PUSH1 0x0 DUP5 DUP2 MSTORE PUSH1 0x20 ADD SWAP1 DUP2 MSTORE PUSH1 0x20 ADD PUSH1 0x0 KECCAK256 PUSH1 0x0 ADD PUSH1 0x0 DUP4 PUSH20 0xFFFFFFFFFFFFFFFFFFFFFFFFFFFFFFFFFFFFFFFF AND PUSH20 0xFFFFFFFFFFFFFFFFFFFFFFFFFFFFFFFFFFFFFFFF AND DUP2 MSTORE PUSH1 0x20 ADD SWAP1 DUP2 MSTORE PUSH1 0x20 ADD PUSH1 0x0 KECCAK256 PUSH1 0x0 SWAP1 SLOAD SWAP1 PUSH2 0x100 EXP SWAP1 DIV PUSH1 0xFF AND SWAP1 POP SWAP3 SWAP2 POP POP JUMP JUMPDEST PUSH1 0x0 CALLER SWAP1 POP SWAP1 JUMP JUMPDEST PUSH1 0x0 DUP1 REVERT JUMPDEST PUSH1 0x0 PUSH20 0xFFFFFFFFFFFFFFFFFFFFFFFFFFFFFFFFFFFFFFFF DUP3 AND SWAP1 POP SWAP2 SWAP1 POP JUMP JUMPDEST PUSH1 0x0 PUSH2 0x32C DUP3 PUSH2 0x301 JUMP JUMPDEST SWAP1 POP SWAP2 SWAP1 POP JUMP JUMPDEST PUSH1 0x0 PUSH2 0x33E DUP3 PUSH2 0x321 JUMP JUMPDEST SWAP1 POP SWAP2 SWAP1 POP JUMP JUMPDEST PUSH2 0x34E DUP2 PUSH2 0x333 JUMP JUMPDEST DUP2 EQ PUSH2 0x359 JUMPI PUSH1 0x0 DUP1 REVERT JUMPDEST POP JUMP JUMPDEST PUSH1 0x0 DUP2 MLOAD SWAP1 POP PUSH2 0x36B DUP2 PUSH2 0x345 JUMP JUMPDEST SWAP3 SWAP2 POP POP JUMP JUMPDEST PUSH1 0x0 PUSH1 0x20 DUP3 DUP5 SUB SLT ISZERO PUSH2 0x387 JUMPI PUSH2 0x386 PUSH2 0x2FC JUMP JUMPDEST JUMPDEST PUSH1 0x0 PUSH2 0x395 DUP5 DUP3 DUP6 ADD PUSH2 0x35C JUMP JUMPDEST SWAP2 POP POP SWAP3 SWAP2 POP POP JUMP JUMPDEST PUSH1 0x0 DUP2 MLOAD SWAP1 POP SWAP2 SWAP1 POP JUMP JUMPDEST PUSH32 0x4E487B7100000000000000000000000000000000000000000000000000000000 PUSH1 0x0 MSTORE PUSH1 0x41 PUSH1 0x4 MSTORE PUSH1 0x24 PUSH1 0x0 REVERT JUMPDEST PUSH32 0x4E487B7100000000000000000000000000000000000000000000000000000000 PUSH1 0x0 MSTORE PUSH1 0x22 PUSH1 0x4 MSTORE PUSH1 0x24 PUSH1 0x0 REVERT JUMPDEST PUSH1 0x0 PUSH1 0x2 DUP3 DIV SWAP1 POP PUSH1 0x1 DUP3 AND DUP1 PUSH2 0x41F JUMPI PUSH1 0x7F DUP3 AND SWAP2 POP JUMPDEST PUSH1 0x20 DUP3 LT DUP2 SUB PUSH2 0x432 JUMPI PUSH2 0x431 PUSH2 0x3D8 JUMP JUMPDEST JUMPDEST POP SWAP2 SWAP1 POP JUMP JUMPDEST PUSH1 0x0 DUP2 SWAP1 POP DUP2 PUSH1 0x0 MSTORE PUSH1 0x20 PUSH1 0x0 KECCAK256 SWAP1 POP SWAP2 SWAP1 POP JUMP JUMPDEST PUSH1 0x0 PUSH1 0x20 PUSH1 0x1F DUP4 ADD DIV SWAP1 POP SWAP2 SWAP1 POP JUMP JUMPDEST PUSH1 0x0 DUP3 DUP3 SHL SWAP1 POP SWAP3 SWAP2 POP POP JUMP JUMPDEST PUSH1 0x0 PUSH1 0x8 DUP4 MUL PUSH2 0x49A PUSH32 0xFFFFFFFFFFFFFFFFFFFFFFFFFFFFFFFFFFFFFFFFFFFFFFFFFFFFFFFFFFFFFFFF DUP3 PUSH2 0x45D JUMP JUMPDEST PUSH2 0x4A4 DUP7 DUP4 PUSH2 0x45D JUMP JUMPDEST SWAP6 POP DUP1 NOT DUP5 AND SWAP4 POP DUP1 DUP7 AND DUP5 OR SWAP3 POP POP POP SWAP4 SWAP3 POP POP POP JUMP JUMPDEST PUSH1 0x0 DUP2 SWAP1 POP SWAP2 SWAP1 POP JUMP JUMPDEST PUSH1 0x0 DUP2 SWAP1 POP SWAP2 SWAP1 POP JUMP JUMPDEST PUSH1 0x0 PUSH2 0x4EB PUSH2 0x4E6 PUSH2 0x4E1 DUP5 PUSH2 0x4BC JUMP JUMPDEST PUSH2 0x4C6 JUMP JUMPDEST PUSH2 0x4BC JUMP JUMPDEST SWAP1 POP SWAP2 SWAP1 POP JUMP JUMPDEST PUSH1 0x0 DUP2 SWAP1 POP SWAP2 SWAP1 POP JUMP JUMPDEST PUSH2 0x505 DUP4 PUSH2 0x4D0 JUMP JUMPDEST PUSH2 0x519 PUSH2 0x511 DUP3 PUSH2 0x4F2 JUMP JUMPDEST DUP5 DUP5 SLOAD PUSH2 0x46A JUMP JUMPDEST DUP3 SSTORE POP POP POP POP JUMP JUMPDEST PUSH1 0x0 SWAP1 JUMP JUMPDEST PUSH2 0x52E PUSH2 0x521 JUMP JUMPDEST PUSH2 0x539 DUP2 DUP5 DUP5 PUSH2 0x4FC JUMP JUMPDEST POP POP POP JUMP JUMPDEST JUMPDEST DUP2 DUP2 LT ISZERO PUSH2 0x55D JUMPI PUSH2 0x552 PUSH1 0x0 DUP3 PUSH2 0x526 JUMP JUMPDEST PUSH1 0x1 DUP2 ADD SWAP1 POP PUSH2 0x53F JUMP JUMPDEST POP POP JUMP JUMPDEST PUSH1 0x1F DUP3 GT ISZERO PUSH2 0x5A2 JUMPI PUSH2 0x573 DUP2 PUSH2 0x438 JUMP JUMPDEST PUSH2 0x57C DUP5 PUSH2 0x44D JUMP JUMPDEST DUP2 ADD PUSH1 0x20 DUP6 LT ISZERO PUSH2 0x58B JUMPI DUP2 SWAP1 POP JUMPDEST PUSH2 0x59F PUSH2 0x597 DUP6 PUSH2 0x44D JUMP JUMPDEST DUP4 ADD DUP3 PUSH2 0x53E JUMP JUMPDEST POP POP JUMPDEST POP POP POP JUMP JUMPDEST PUSH1 0x0 DUP3 DUP3 SHR SWAP1 POP SWAP3 SWAP2 POP POP JUMP JUMPDEST PUSH1 0x0 PUSH2 0x5C5 PUSH1 0x0 NOT DUP5 PUSH1 0x8 MUL PUSH2 0x5A7 JUMP JUMPDEST NOT DUP1 DUP4 AND SWAP2 POP POP SWAP3 SWAP2 POP POP JUMP JUMPDEST PUSH1 0x0 PUSH2 0x5DE DUP4 DUP4 PUSH2 0x5B4 JUMP JUMPDEST SWAP2 POP DUP3 PUSH1 0x2 MUL DUP3 OR SWAP1 POP SWAP3 SWAP2 POP POP JUMP JUMPDEST PUSH2 0x5F7 DUP3 PUSH2 0x39E JUMP JUMPDEST PUSH8 0xFFFFFFFFFFFFFFFF DUP2 GT ISZERO PUSH2 0x610 JUMPI PUSH2 0x60F PUSH2 0x3A9 JUMP JUMPDEST JUMPDEST PUSH2 0x61A DUP3 SLOAD PUSH2 0x407 JUMP JUMPDEST PUSH2 0x625 DUP3 DUP3 DUP6 PUSH2 0x561 JUMP JUMPDEST PUSH1 0x0 PUSH1 0x20 SWAP1 POP PUSH1 0x1F DUP4 GT PUSH1 0x1 DUP2 EQ PUSH2 0x658 JUMPI PUSH1 0x0 DUP5 ISZERO PUSH2 0x646 JUMPI DUP3 DUP8 ADD MLOAD SWAP1 POP JUMPDEST PUSH2 0x650 DUP6 DUP3 PUSH2 0x5D2 JUMP JUMPDEST DUP7 SSTORE POP PUSH2 0x6B8 JUMP JUMPDEST PUSH1 0x1F NOT DUP5 AND PUSH2 0x666 DUP7 PUSH2 0x438 JUMP JUMPDEST PUSH1 0x0 JUMPDEST DUP3 DUP2 LT ISZERO PUSH2 0x68E JUMPI DUP5 DUP10 ADD MLOAD DUP3 SSTORE PUSH1 0x1 DUP3 ADD SWAP2 POP PUSH1 0x20 DUP6 ADD SWAP5 POP PUSH1 0x20 DUP2 ADD SWAP1 POP PUSH2 0x669 JUMP JUMPDEST DUP7 DUP4 LT ISZERO PUSH2 0x6AB JUMPI DUP5 DUP10 ADD MLOAD PUSH2 0x6A7 PUSH1 0x1F DUP10 AND DUP3 PUSH2 0x5B4 JUMP JUMPDEST DUP4 SSTORE POP JUMPDEST PUSH1 0x1 PUSH1 0x2 DUP9 MUL ADD DUP9 SSTORE POP POP POP JUMPDEST POP POP POP POP POP POP JUMP JUMPDEST PUSH2 0x5FB6 DUP1 PUSH2 0x6CF PUSH1 0x0 CODECOPY PUSH1 0x0 RETURN INVALID PUSH1 0x80 PUSH1 0x40 MSTORE CALLVALUE DUP1 ISZERO PUSH2 0x10 JUMPI PUSH1 0x0 DUP1 REVERT JUMPDEST POP PUSH1 0x4 CALLDATASIZE LT PUSH2 0x248 JUMPI PUSH1 0x0 CALLDATALOAD PUSH1 0xE0 SHR DUP1 PUSH4 0x55ED5FE8 GT PUSH2 0x13B JUMPI DUP1 PUSH4 0xA217FDDF GT PUSH2 0xB8 JUMPI DUP1 PUSH4 0xD547741F GT PUSH2 0x7C JUMPI DUP1 PUSH4 0xD547741F EQ PUSH2 0x7AF JUMPI DUP1 PUSH4 0xE985E9C5 EQ PUSH2 0x7CB JUMPI DUP1 PUSH4 0xEE7BF0EE EQ PUSH2 0x7FB JUMPI DUP1 PUSH4 0xF2E0BC58 EQ PUSH2 0x82B JUMPI DUP1 PUSH4 0xF851A440 EQ PUSH2 0x85B JUMPI PUSH2 0x248 JUMP JUMPDEST DUP1 PUSH4 0xA217FDDF EQ PUSH2 0x6F9 JUMPI DUP1 PUSH4 0xA22CB465 EQ PUSH2 0x717 JUMPI DUP1 PUSH4 0xB88D4FDE EQ PUSH2 0x733 JUMPI DUP1 PUSH4 0xBAB859A5 EQ PUSH2 0x74F JUMPI DUP1 PUSH4 0xC87B56DD EQ PUSH2 0x77F JUMPI PUSH2 0x248 JUMP JUMPDEST DUP1 PUSH4 0x832CC77E GT PUSH2 0xFF JUMPI DUP1 PUSH4 0x832CC77E EQ PUSH2 0x63F JUMPI DUP1 PUSH4 0x899F9D0D EQ PUSH2 0x66F JUMPI DUP1 PUSH4 0x8C271777 EQ PUSH2 0x68D JUMPI DUP1 PUSH4 0x91D14854 EQ PUSH2 0x6AB JUMPI DUP1 PUSH4 0x95D89B41 EQ PUSH2 0x6DB JUMPI PUSH2 0x248 JUMP JUMPDEST DUP1 PUSH4 0x55ED5FE8 EQ PUSH2 0x561 JUMPI DUP1 PUSH4 0x57A00CCF EQ PUSH2 0x591 JUMPI DUP1 PUSH4 0x5994D984 EQ PUSH2 0x5C1 JUMPI DUP1 PUSH4 0x6352211E EQ PUSH2 0x5DF JUMPI DUP1 PUSH4 0x70A08231 EQ PUSH2 0x60F JUMPI PUSH2 0x248 JUMP JUMPDEST DUP1 PUSH4 0x2B3DD38B GT PUSH2 0x1C9 JUMPI DUP1 PUSH4 0x41CC7C73 GT PUSH2 0x18D JUMPI DUP1 PUSH4 0x41CC7C73 EQ PUSH2 0x497 JUMPI DUP1 PUSH4 0x42842E0E EQ PUSH2 0x4C7 JUMPI DUP1 PUSH4 0x4F6CCCE7 EQ PUSH2 0x4E3 JUMPI DUP1 PUSH4 0x4FF7986E EQ PUSH2 0x513 JUMPI DUP1 PUSH4 0x55B059E8 EQ PUSH2 0x531 JUMPI PUSH2 0x248 JUMP JUMPDEST DUP1 PUSH4 0x2B3DD38B EQ PUSH2 0x3CF JUMPI DUP1 PUSH4 0x2F2FF15D EQ PUSH2 0x3FF JUMPI DUP1 PUSH4 0x2F745C59 EQ PUSH2 0x41B JUMPI DUP1 PUSH4 0x36568ABE EQ PUSH2 0x44B JUMPI DUP1 PUSH4 0x40D097C3 EQ PUSH2 0x467 JUMPI PUSH2 0x248 JUMP JUMPDEST DUP1 PUSH4 0x18160DDD GT PUSH2 0x210 JUMPI DUP1 PUSH4 0x18160DDD EQ PUSH2 0x317 JUMPI DUP1 PUSH4 0x2027D746 EQ PUSH2 0x335 JUMPI DUP1 PUSH4 0x23B872DD EQ PUSH2 0x353 JUMPI DUP1 PUSH4 0x248A9CA3 EQ PUSH2 0x36F JUMPI DUP1 PUSH4 0x29ACC209 EQ PUSH2 0x39F JUMPI PUSH2 0x248 JUMP JUMPDEST DUP1 PUSH4 0x1FFC9A7 EQ PUSH2 0x24D JUMPI DUP1 PUSH4 0x6FDDE03 EQ PUSH2 0x27D JUMPI DUP1 PUSH4 0x81812FC EQ PUSH2 0x29B JUMPI DUP1 PUSH4 0x81BA2D5 EQ PUSH2 0x2CB JUMPI DUP1 PUSH4 0x95EA7B3 EQ PUSH2 0x2FB JUMPI JUMPDEST PUSH1 0x0 DUP1 REVERT JUMPDEST PUSH2 0x267 PUSH1 0x4 DUP1 CALLDATASIZE SUB DUP2 ADD SWAP1 PUSH2 0x262 SWAP2 SWAP1 PUSH2 0x3A14 JUMP JUMPDEST PUSH2 0x879 JUMP JUMPDEST PUSH1 0x40 MLOAD PUSH2 0x274 SWAP2 SWAP1 PUSH2 0x3A5C JUMP JUMPDEST PUSH1 0x40 MLOAD DUP1 SWAP2 SUB SWAP1 RETURN JUMPDEST PUSH2 0x285 PUSH2 0x88B JUMP JUMPDEST PUSH1 0x40 MLOAD PUSH2 0x292 SWAP2 SWAP1 PUSH2 0x3B07 JUMP JUMPDEST PUSH1 0x40 MLOAD DUP1 SWAP2 SUB SWAP1 RETURN JUMPDEST PUSH2 0x2B5 PUSH1 0x4 DUP1 CALLDATASIZE SUB DUP2 ADD SWAP1 PUSH2 0x2B0 SWAP2 SWAP1 PUSH2 0x3B5F JUMP JUMPDEST PUSH2 0x91D JUMP JUMPDEST PUSH1 0x40 MLOAD PUSH2 0x2C2 SWAP2 SWAP1 PUSH2 0x3BCD JUMP JUMPDEST PUSH1 0x40 MLOAD DUP1 SWAP2 SUB SWAP1 RETURN JUMPDEST PUSH2 0x2E5 PUSH1 0x4 DUP1 CALLDATASIZE SUB DUP2 ADD SWAP1 PUSH2 0x2E0 SWAP2 SWAP1 PUSH2 0x3C14 JUMP JUMPDEST PUSH2 0x939 JUMP JUMPDEST PUSH1 0x40 MLOAD PUSH2 0x2F2 SWAP2 SWAP1 PUSH2 0x3A5C JUMP JUMPDEST PUSH1 0x40 MLOAD DUP1 SWAP2 SUB SWAP1 RETURN JUMPDEST PUSH2 0x315 PUSH1 0x4 DUP1 CALLDATASIZE SUB DUP2 ADD SWAP1 PUSH2 0x310 SWAP2 SWAP1 PUSH2 0x3C41 JUMP JUMPDEST PUSH2 0xA47 JUMP JUMPDEST STOP JUMPDEST PUSH2 0x31F PUSH2 0xA5D JUMP JUMPDEST PUSH1 0x40 MLOAD PUSH2 0x32C SWAP2 SWAP1 PUSH2 0x3C90 JUMP JUMPDEST PUSH1 0x40 MLOAD DUP1 SWAP2 SUB SWAP1 RETURN JUMPDEST PUSH2 0x33D PUSH2 0xA6A JUMP JUMPDEST PUSH1 0x40 MLOAD PUSH2 0x34A SWAP2 SWAP1 PUSH2 0x3C90 JUMP JUMPDEST PUSH1 0x40 MLOAD DUP1 SWAP2 SUB SWAP1 RETURN JUMPDEST PUSH2 0x36D PUSH1 0x4 DUP1 CALLDATASIZE SUB DUP2 ADD SWAP1 PUSH2 0x368 SWAP2 SWAP1 PUSH2 0x3CAB JUMP JUMPDEST PUSH2 0xB02 JUMP JUMPDEST STOP JUMPDEST PUSH2 0x389 PUSH1 0x4 DUP1 CALLDATASIZE SUB DUP2 ADD SWAP1 PUSH2 0x384 SWAP2 SWAP1 PUSH2 0x3D34 JUMP JUMPDEST PUSH2 0xC04 JUMP JUMPDEST PUSH1 0x40 MLOAD PUSH2 0x396 SWAP2 SWAP1 PUSH2 0x3D70 JUMP JUMPDEST PUSH1 0x40 MLOAD DUP1 SWAP2 SUB SWAP1 RETURN JUMPDEST PUSH2 0x3B9 PUSH1 0x4 DUP1 CALLDATASIZE SUB DUP2 ADD SWAP1 PUSH2 0x3B4 SWAP2 SWAP1 PUSH2 0x3C14 JUMP JUMPDEST PUSH2 0xC23 JUMP JUMPDEST PUSH1 0x40 MLOAD PUSH2 0x3C6 SWAP2 SWAP1 PUSH2 0x3A5C JUMP JUMPDEST PUSH1 0x40 MLOAD DUP1 SWAP2 SUB SWAP1 RETURN JUMPDEST PUSH2 0x3E9 PUSH1 0x4 DUP1 CALLDATASIZE SUB DUP2 ADD SWAP1 PUSH2 0x3E4 SWAP2 SWAP1 PUSH2 0x3E1C JUMP JUMPDEST PUSH2 0xD31 JUMP JUMPDEST PUSH1 0x40 MLOAD PUSH2 0x3F6 SWAP2 SWAP1 PUSH2 0x3A5C JUMP JUMPDEST PUSH1 0x40 MLOAD DUP1 SWAP2 SUB SWAP1 RETURN JUMPDEST PUSH2 0x419 PUSH1 0x4 DUP1 CALLDATASIZE SUB DUP2 ADD SWAP1 PUSH2 0x414 SWAP2 SWAP1 PUSH2 0x3EE5 JUMP JUMPDEST PUSH2 0xE53 JUMP JUMPDEST STOP JUMPDEST PUSH2 0x435 PUSH1 0x4 DUP1 CALLDATASIZE SUB DUP2 ADD SWAP1 PUSH2 0x430 SWAP2 SWAP1 PUSH2 0x3C41 JUMP JUMPDEST PUSH2 0xE75 JUMP JUMPDEST PUSH1 0x40 MLOAD PUSH2 0x442 SWAP2 SWAP1 PUSH2 0x3C90 JUMP JUMPDEST PUSH1 0x40 MLOAD DUP1 SWAP2 SUB SWAP1 RETURN JUMPDEST PUSH2 0x465 PUSH1 0x4 DUP1 CALLDATASIZE SUB DUP2 ADD SWAP1 PUSH2 0x460 SWAP2 SWAP1 PUSH2 0x3EE5 JUMP JUMPDEST PUSH2 0xF1E JUMP JUMPDEST STOP JUMPDEST PUSH2 0x481 PUSH1 0x4 DUP1 CALLDATASIZE SUB DUP2 ADD SWAP1 PUSH2 0x47C SWAP2 SWAP1 PUSH2 0x3C14 JUMP JUMPDEST PUSH2 0xF99 JUMP JUMPDEST PUSH1 0x40 MLOAD PUSH2 0x48E SWAP2 SWAP1 PUSH2 0x3C90 JUMP JUMPDEST PUSH1 0x40 MLOAD DUP1 SWAP2 SUB SWAP1 RETURN JUMPDEST PUSH2 0x4B1 PUSH1 0x4 DUP1 CALLDATASIZE SUB DUP2 ADD SWAP1 PUSH2 0x4AC SWAP2 SWAP1 PUSH2 0x3FFE JUMP JUMPDEST PUSH2 0xFC8 JUMP JUMPDEST PUSH1 0x40 MLOAD PUSH2 0x4BE SWAP2 SWAP1 PUSH2 0x3A5C JUMP JUMPDEST PUSH1 0x40 MLOAD DUP1 SWAP2 SUB SWAP1 RETURN JUMPDEST PUSH2 0x4E1 PUSH1 0x4 DUP1 CALLDATASIZE SUB DUP2 ADD SWAP1 PUSH2 0x4DC SWAP2 SWAP1 PUSH2 0x3CAB JUMP JUMPDEST PUSH2 0x10C7 JUMP JUMPDEST STOP JUMPDEST PUSH2 0x4FD PUSH1 0x4 DUP1 CALLDATASIZE SUB DUP2 ADD SWAP1 PUSH2 0x4F8 SWAP2 SWAP1 PUSH2 0x3B5F JUMP JUMPDEST PUSH2 0x10E7 JUMP JUMPDEST PUSH1 0x40 MLOAD PUSH2 0x50A SWAP2 SWAP1 PUSH2 0x3C90 JUMP JUMPDEST PUSH1 0x40 MLOAD DUP1 SWAP2 SUB SWAP1 RETURN JUMPDEST PUSH2 0x51B PUSH2 0x115D JUMP JUMPDEST PUSH1 0x40 MLOAD PUSH2 0x528 SWAP2 SWAP1 PUSH2 0x3A5C JUMP JUMPDEST PUSH1 0x40 MLOAD DUP1 SWAP2 SUB SWAP1 RETURN JUMPDEST PUSH2 0x54B PUSH1 0x4 DUP1 CALLDATASIZE SUB DUP2 ADD SWAP1 PUSH2 0x546 SWAP2 SWAP1 PUSH2 0x4122 JUMP JUMPDEST PUSH2 0x1162 JUMP JUMPDEST PUSH1 0x40 MLOAD PUSH2 0x558 SWAP2 SWAP1 PUSH2 0x3A5C JUMP JUMPDEST PUSH1 0x40 MLOAD DUP1 SWAP2 SUB SWAP1 RETURN JUMPDEST PUSH2 0x57B PUSH1 0x4 DUP1 CALLDATASIZE SUB DUP2 ADD SWAP1 PUSH2 0x576 SWAP2 SWAP1 PUSH2 0x4122 JUMP JUMPDEST PUSH2 0x12E5 JUMP JUMPDEST PUSH1 0x40 MLOAD PUSH2 0x588 SWAP2 SWAP1 PUSH2 0x3A5C JUMP JUMPDEST PUSH1 0x40 MLOAD DUP1 SWAP2 SUB SWAP1 RETURN JUMPDEST PUSH2 0x5AB PUSH1 0x4 DUP1 CALLDATASIZE SUB DUP2 ADD SWAP1 PUSH2 0x5A6 SWAP2 SWAP1 PUSH2 0x3C14 JUMP JUMPDEST PUSH2 0x146B JUMP JUMPDEST PUSH1 0x40 MLOAD PUSH2 0x5B8 SWAP2 SWAP1 PUSH2 0x43B2 JUMP JUMPDEST PUSH1 0x40 MLOAD DUP1 SWAP2 SUB SWAP1 RETURN JUMPDEST PUSH2 0x5C9 PUSH2 0x151B JUMP JUMPDEST PUSH1 0x40 MLOAD PUSH2 0x5D6 SWAP2 SWAP1 PUSH2 0x3A5C JUMP JUMPDEST PUSH1 0x40 MLOAD DUP1 SWAP2 SUB SWAP1 RETURN JUMPDEST PUSH2 0x5F9 PUSH1 0x4 DUP1 CALLDATASIZE SUB DUP2 ADD SWAP1 PUSH2 0x5F4 SWAP2 SWAP1 PUSH2 0x3B5F JUMP JUMPDEST PUSH2 0x1520 JUMP JUMPDEST PUSH1 0x40 MLOAD PUSH2 0x606 SWAP2 SWAP1 PUSH2 0x3BCD JUMP JUMPDEST PUSH1 0x40 MLOAD DUP1 SWAP2 SUB SWAP1 RETURN JUMPDEST PUSH2 0x629 PUSH1 0x4 DUP1 CALLDATASIZE SUB DUP2 ADD SWAP1 PUSH2 0x624 SWAP2 SWAP1 PUSH2 0x3C14 JUMP JUMPDEST PUSH2 0x1532 JUMP JUMPDEST PUSH1 0x40 MLOAD PUSH2 0x636 SWAP2 SWAP1 PUSH2 0x3C90 JUMP JUMPDEST PUSH1 0x40 MLOAD DUP1 SWAP2 SUB SWAP1 RETURN JUMPDEST PUSH2 0x659 PUSH1 0x4 DUP1 CALLDATASIZE SUB DUP2 ADD SWAP1 PUSH2 0x654 SWAP2 SWAP1 PUSH2 0x4504 JUMP JUMPDEST PUSH2 0x15EC JUMP JUMPDEST PUSH1 0x40 MLOAD PUSH2 0x666 SWAP2 SWAP1 PUSH2 0x3B07 JUMP JUMPDEST PUSH1 0x40 MLOAD DUP1 SWAP2 SUB SWAP1 RETURN JUMPDEST PUSH2 0x677 PUSH2 0x15FE JUMP JUMPDEST PUSH1 0x40 MLOAD PUSH2 0x684 SWAP2 SWAP1 PUSH2 0x3A5C JUMP JUMPDEST PUSH1 0x40 MLOAD DUP1 SWAP2 SUB SWAP1 RETURN JUMPDEST PUSH2 0x695 PUSH2 0x1607 JUMP JUMPDEST PUSH1 0x40 MLOAD PUSH2 0x6A2 SWAP2 SWAP1 PUSH2 0x3C90 JUMP JUMPDEST PUSH1 0x40 MLOAD DUP1 SWAP2 SUB SWAP1 RETURN JUMPDEST PUSH2 0x6C5 PUSH1 0x4 DUP1 CALLDATASIZE SUB DUP2 ADD SWAP1 PUSH2 0x6C0 SWAP2 SWAP1 PUSH2 0x3EE5 JUMP JUMPDEST PUSH2 0x169F JUMP JUMPDEST PUSH1 0x40 MLOAD PUSH2 0x6D2 SWAP2 SWAP1 PUSH2 0x3A5C JUMP JUMPDEST PUSH1 0x40 MLOAD DUP1 SWAP2 SUB SWAP1 RETURN JUMPDEST PUSH2 0x6E3 PUSH2 0x1709 JUMP JUMPDEST PUSH1 0x40 MLOAD PUSH2 0x6F0 SWAP2 SWAP1 PUSH2 0x3B07 JUMP JUMPDEST PUSH1 0x40 MLOAD DUP1 SWAP2 SUB SWAP1 RETURN JUMPDEST PUSH2 0x701 PUSH2 0x179B JUMP JUMPDEST PUSH1 0x40 MLOAD PUSH2 0x70E SWAP2 SWAP1 PUSH2 0x3D70 JUMP JUMPDEST PUSH1 0x40 MLOAD DUP1 SWAP2 SUB SWAP1 RETURN JUMPDEST PUSH2 0x731 PUSH1 0x4 DUP1 CALLDATASIZE SUB DUP2 ADD SWAP1 PUSH2 0x72C SWAP2 SWAP1 PUSH2 0x454D JUMP JUMPDEST PUSH2 0x17A2 JUMP JUMPDEST STOP JUMPDEST PUSH2 0x74D PUSH1 0x4 DUP1 CALLDATASIZE SUB DUP2 ADD SWAP1 PUSH2 0x748 SWAP2 SWAP1 PUSH2 0x458D JUMP JUMPDEST PUSH2 0x17B8 JUMP JUMPDEST STOP JUMPDEST PUSH2 0x769 PUSH1 0x4 DUP1 CALLDATASIZE SUB DUP2 ADD SWAP1 PUSH2 0x764 SWAP2 SWAP1 PUSH2 0x3B5F JUMP JUMPDEST PUSH2 0x17DD JUMP JUMPDEST PUSH1 0x40 MLOAD PUSH2 0x776 SWAP2 SWAP1 PUSH2 0x4867 JUMP JUMPDEST PUSH1 0x40 MLOAD DUP1 SWAP2 SUB SWAP1 RETURN JUMPDEST PUSH2 0x799 PUSH1 0x4 DUP1 CALLDATASIZE SUB DUP2 ADD SWAP1 PUSH2 0x794 SWAP2 SWAP1 PUSH2 0x3B5F JUMP JUMPDEST PUSH2 0x188D JUMP JUMPDEST PUSH1 0x40 MLOAD PUSH2 0x7A6 SWAP2 SWAP1 PUSH2 0x3B07 JUMP JUMPDEST PUSH1 0x40 MLOAD DUP1 SWAP2 SUB SWAP1 RETURN JUMPDEST PUSH2 0x7C9 PUSH1 0x4 DUP1 CALLDATASIZE SUB DUP2 ADD SWAP1 PUSH2 0x7C4 SWAP2 SWAP1 PUSH2 0x3EE5 JUMP JUMPDEST PUSH2 0x19C4 JUMP JUMPDEST STOP JUMPDEST PUSH2 0x7E5 PUSH1 0x4 DUP1 CALLDATASIZE SUB DUP2 ADD SWAP1 PUSH2 0x7E0 SWAP2 SWAP1 PUSH2 0x4889 JUMP JUMPDEST PUSH2 0x19E6 JUMP JUMPDEST PUSH1 0x40 MLOAD PUSH2 0x7F2 SWAP2 SWAP1 PUSH2 0x3A5C JUMP JUMPDEST PUSH1 0x40 MLOAD DUP1 SWAP2 SUB SWAP1 RETURN JUMPDEST PUSH2 0x815 PUSH1 0x4 DUP1 CALLDATASIZE SUB DUP2 ADD SWAP1 PUSH2 0x810 SWAP2 SWAP1 PUSH2 0x3C14 JUMP JUMPDEST PUSH2 0x1A7A JUMP JUMPDEST PUSH1 0x40 MLOAD PUSH2 0x822 SWAP2 SWAP1 PUSH2 0x497A JUMP JUMPDEST PUSH1 0x40 MLOAD DUP1 SWAP2 SUB SWAP1 RETURN JUMPDEST PUSH2 0x845 PUSH1 0x4 DUP1 CALLDATASIZE SUB DUP2 ADD SWAP1 PUSH2 0x840 SWAP2 SWAP1 PUSH2 0x3E1C JUMP JUMPDEST PUSH2 0x1B2A JUMP JUMPDEST PUSH1 0x40 MLOAD PUSH2 0x852 SWAP2 SWAP1 PUSH2 0x3A5C JUMP JUMPDEST PUSH1 0x40 MLOAD DUP1 SWAP2 SUB SWAP1 RETURN JUMPDEST PUSH2 0x863 PUSH2 0x1C4C JUMP JUMPDEST PUSH1 0x40 MLOAD PUSH2 0x870 SWAP2 SWAP1 PUSH2 0x3BCD JUMP JUMPDEST PUSH1 0x40 MLOAD DUP1 SWAP2 SUB SWAP1 RETURN JUMPDEST PUSH1 0x0 PUSH2 0x884 DUP3 PUSH2 0x1C72 JUMP JUMPDEST SWAP1 POP SWAP2 SWAP1 POP JUMP JUMPDEST PUSH1 0x60 PUSH1 0x1 DUP1 SLOAD PUSH2 0x89A SWAP1 PUSH2 0x49CB JUMP JUMPDEST DUP1 PUSH1 0x1F ADD PUSH1 0x20 DUP1 SWAP2 DIV MUL PUSH1 0x20 ADD PUSH1 0x40 MLOAD SWAP1 DUP2 ADD PUSH1 0x40 MSTORE DUP1 SWAP3 SWAP2 SWAP1 DUP2 DUP2 MSTORE PUSH1 0x20 ADD DUP3 DUP1 SLOAD PUSH2 0x8C6 SWAP1 PUSH2 0x49CB JUMP JUMPDEST DUP1 ISZERO PUSH2 0x913 JUMPI DUP1 PUSH1 0x1F LT PUSH2 0x8E8 JUMPI PUSH2 0x100 DUP1 DUP4 SLOAD DIV MUL DUP4 MSTORE SWAP2 PUSH1 0x20 ADD SWAP2 PUSH2 0x913 JUMP JUMPDEST DUP3 ADD SWAP2 SWAP1 PUSH1 0x0 MSTORE PUSH1 0x20 PUSH1 0x0 KECCAK256 SWAP1 JUMPDEST DUP2 SLOAD DUP2 MSTORE SWAP1 PUSH1 0x1 ADD SWAP1 PUSH1 0x20 ADD DUP1 DUP4 GT PUSH2 0x8F6 JUMPI DUP3 SWAP1 SUB PUSH1 0x1F AND DUP3 ADD SWAP2 JUMPDEST POP POP POP POP POP SWAP1 POP SWAP1 JUMP JUMPDEST PUSH1 0x0 PUSH2 0x928 DUP3 PUSH2 0x1C84 JUMP JUMPDEST POP PUSH2 0x932 DUP3 PUSH2 0x1D0C JUMP JUMPDEST SWAP1 POP SWAP2 SWAP1 POP JUMP JUMPDEST PUSH1 0x0 PUSH32 0xDF8B4C520FFE197C5343C6F5AEC59570151EF9A492F2C624FD45DDDE6135EC42 PUSH2 0x965 DUP2 PUSH2 0x1D49 JUMP JUMPDEST PUSH1 0xC PUSH1 0x0 SWAP1 SLOAD SWAP1 PUSH2 0x100 EXP SWAP1 DIV PUSH20 0xFFFFFFFFFFFFFFFFFFFFFFFFFFFFFFFFFFFFFFFF AND PUSH20 0xFFFFFFFFFFFFFFFFFFFFFFFFFFFFFFFFFFFFFFFF AND PUSH4 0x81BA2D5 DUP5 PUSH1 0x40 MLOAD DUP3 PUSH4 0xFFFFFFFF AND PUSH1 0xE0 SHL DUP2 MSTORE PUSH1 0x4 ADD PUSH2 0x9C0 SWAP2 SWAP1 PUSH2 0x3BCD JUMP JUMPDEST PUSH1 0x20 PUSH1 0x40 MLOAD DUP1 DUP4 SUB DUP2 PUSH1 0x0 DUP8 GAS CALL ISZERO DUP1 ISZERO PUSH2 0x9DF JUMPI RETURNDATASIZE PUSH1 0x0 DUP1 RETURNDATACOPY RETURNDATASIZE PUSH1 0x0 REVERT JUMPDEST POP POP POP POP PUSH1 0x40 MLOAD RETURNDATASIZE PUSH1 0x1F NOT PUSH1 0x1F DUP3 ADD AND DUP3 ADD DUP1 PUSH1 0x40 MSTORE POP DUP2 ADD SWAP1 PUSH2 0xA03 SWAP2 SWAP1 PUSH2 0x4A11 JUMP JUMPDEST POP PUSH32 0x188D8CA5695483231734D1734924F73AB34848F997F2DE827C8F73033B4614AE DUP4 TIMESTAMP PUSH1 0x40 MLOAD PUSH2 0xA35 SWAP3 SWAP2 SWAP1 PUSH2 0x4A3E JUMP JUMPDEST PUSH1 0x40 MLOAD DUP1 SWAP2 SUB SWAP1 LOG1 PUSH1 0x1 SWAP2 POP POP SWAP2 SWAP1 POP JUMP JUMPDEST PUSH2 0xA59 DUP3 DUP3 PUSH2 0xA54 PUSH2 0x1D5D JUMP JUMPDEST PUSH2 0x1D65 JUMP JUMPDEST POP POP JUMP JUMPDEST PUSH1 0x0 PUSH1 0x9 DUP1 SLOAD SWAP1 POP SWAP1 POP SWAP1 JUMP JUMPDEST PUSH1 0x0 PUSH1 0xC PUSH1 0x0 SWAP1 SLOAD SWAP1 PUSH2 0x100 EXP SWAP1 DIV PUSH20 0xFFFFFFFFFFFFFFFFFFFFFFFFFFFFFFFFFFFFFFFF AND PUSH20 0xFFFFFFFFFFFFFFFFFFFFFFFFFFFFFFFFFFFFFFFF AND PUSH4 0x2027D746 PUSH1 0x40 MLOAD DUP2 PUSH4 0xFFFFFFFF AND PUSH1 0xE0 SHL DUP2 MSTORE PUSH1 0x4 ADD PUSH1 0x20 PUSH1 0x40 MLOAD DUP1 DUP4 SUB DUP2 DUP7 GAS STATICCALL ISZERO DUP1 ISZERO PUSH2 0xAD9 JUMPI RETURNDATASIZE PUSH1 0x0 DUP1 RETURNDATACOPY RETURNDATASIZE PUSH1 0x0 REVERT JUMPDEST POP POP POP POP PUSH1 0x40 MLOAD RETURNDATASIZE PUSH1 0x1F NOT PUSH1 0x1F DUP3 ADD AND DUP3 ADD DUP1 PUSH1 0x40 MSTORE POP DUP2 ADD SWAP1 PUSH2 0xAFD SWAP2 SWAP1 PUSH2 0x4A7C JUMP JUMPDEST SWAP1 POP SWAP1 JUMP JUMPDEST PUSH1 0x0 PUSH20 0xFFFFFFFFFFFFFFFFFFFFFFFFFFFFFFFFFFFFFFFF AND DUP3 PUSH20 0xFFFFFFFFFFFFFFFFFFFFFFFFFFFFFFFFFFFFFFFF AND SUB PUSH2 0xB74 JUMPI PUSH1 0x0 PUSH1 0x40 MLOAD PUSH32 0x64A0AE9200000000000000000000000000000000000000000000000000000000 DUP2 MSTORE PUSH1 0x4 ADD PUSH2 0xB6B SWAP2 SWAP1 PUSH2 0x3BCD JUMP JUMPDEST PUSH1 0x40 MLOAD DUP1 SWAP2 SUB SWAP1 REVERT JUMPDEST PUSH1 0x0 PUSH2 0xB88 DUP4 DUP4 PUSH2 0xB83 PUSH2 0x1D5D JUMP JUMPDEST PUSH2 0x1D77 JUMP JUMPDEST SWAP1 POP DUP4 PUSH20 0xFFFFFFFFFFFFFFFFFFFFFFFFFFFFFFFFFFFFFFFF AND DUP2 PUSH20 0xFFFFFFFFFFFFFFFFFFFFFFFFFFFFFFFFFFFFFFFF AND EQ PUSH2 0xBFE JUMPI DUP4 DUP3 DUP3 PUSH1 0x40 MLOAD PUSH32 0x64283D7B00000000000000000000000000000000000000000000000000000000 DUP2 MSTORE PUSH1 0x4 ADD PUSH2 0xBF5 SWAP4 SWAP3 SWAP2 SWAP1 PUSH2 0x4AA9 JUMP JUMPDEST PUSH1 0x40 MLOAD DUP1 SWAP2 SUB SWAP1 REVERT JUMPDEST POP POP POP POP JUMP JUMPDEST PUSH1 0x0 DUP1 PUSH1 0x0 DUP4 DUP2 MSTORE PUSH1 0x20 ADD SWAP1 DUP2 MSTORE PUSH1 0x20 ADD PUSH1 0x0 KECCAK256 PUSH1 0x1 ADD SLOAD SWAP1 POP SWAP2 SWAP1 POP JUMP JUMPDEST PUSH1 0x0 PUSH32 0xDF8B4C520FFE197C5343C6F5AEC59570151EF9A492F2C624FD45DDDE6135EC42 PUSH2 0xC4F DUP2 PUSH2 0x1D49 JUMP JUMPDEST PUSH1 0xC PUSH1 0x0 SWAP1 SLOAD SWAP1 PUSH2 0x100 EXP SWAP1 DIV PUSH20 0xFFFFFFFFFFFFFFFFFFFFFFFFFFFFFFFFFFFFFFFF AND PUSH20 0xFFFFFFFFFFFFFFFFFFFFFFFFFFFFFFFFFFFFFFFF AND PUSH4 0x29ACC209 DUP5 PUSH1 0x40 MLOAD DUP3 PUSH4 0xFFFFFFFF AND PUSH1 0xE0 SHL DUP2 MSTORE PUSH1 0x4 ADD PUSH2 0xCAA SWAP2 SWAP1 PUSH2 0x3BCD JUMP JUMPDEST PUSH1 0x20 PUSH1 0x40 MLOAD DUP1 DUP4 SUB DUP2 PUSH1 0x0 DUP8 GAS CALL ISZERO DUP1 ISZERO PUSH2 0xCC9 JUMPI RETURNDATASIZE PUSH1 0x0 DUP1 RETURNDATACOPY RETURNDATASIZE PUSH1 0x0 REVERT JUMPDEST POP POP POP POP PUSH1 0x40 MLOAD RETURNDATASIZE PUSH1 0x1F NOT PUSH1 0x1F DUP3 ADD AND DUP3 ADD DUP1 PUSH1 0x40 MSTORE POP DUP2 ADD SWAP1 PUSH2 0xCED SWAP2 SWAP1 PUSH2 0x4A11 JUMP JUMPDEST POP PUSH32 0x449422D37AD477A115E35DED9D4971E6ED3594F45DF1408F1EB2320A8BC5C2B8 DUP4 TIMESTAMP PUSH1 0x40 MLOAD PUSH2 0xD1F SWAP3 SWAP2 SWAP1 PUSH2 0x4A3E JUMP JUMPDEST PUSH1 0x40 MLOAD DUP1 SWAP2 SUB SWAP1 LOG1 PUSH1 0x1 SWAP2 POP POP SWAP2 SWAP1 POP JUMP JUMPDEST PUSH1 0x0 PUSH32 0x61E6A4BB6BCA8AA1F17C71895C1AB1BF9C06C812442A0A16AAD9F0837C23CA79 PUSH2 0xD5D DUP2 PUSH2 0x1D49 JUMP JUMPDEST PUSH1 0xC PUSH1 0x0 SWAP1 SLOAD SWAP1 PUSH2 0x100 EXP SWAP1 DIV PUSH20 0xFFFFFFFFFFFFFFFFFFFFFFFFFFFFFFFFFFFFFFFF AND PUSH20 0xFFFFFFFFFFFFFFFFFFFFFFFFFFFFFFFFFFFFFFFF AND PUSH4 0xA735E5DE CALLER DUP12 DUP12 DUP12 DUP12 DUP12 DUP12 DUP12 PUSH1 0x40 MLOAD DUP10 PUSH4 0xFFFFFFFF AND PUSH1 0xE0 SHL DUP2 MSTORE PUSH1 0x4 ADD PUSH2 0xDC6 SWAP9 SWAP8 SWAP7 SWAP6 SWAP5 SWAP4 SWAP3 SWAP2 SWAP1 PUSH2 0x4B0D JUMP JUMPDEST PUSH1 0x20 PUSH1 0x40 MLOAD DUP1 DUP4 SUB DUP2 PUSH1 0x0 DUP8 GAS CALL ISZERO DUP1 ISZERO PUSH2 0xDE5 JUMPI RETURNDATASIZE PUSH1 0x0 DUP1 RETURNDATACOPY RETURNDATASIZE PUSH1 0x0 REVERT JUMPDEST POP POP POP POP PUSH1 0x40 MLOAD RETURNDATASIZE PUSH1 0x1F NOT PUSH1 0x1F DUP3 ADD AND DUP3 ADD DUP1 PUSH1 0x40 MSTORE POP DUP2 ADD SWAP1 PUSH2 0xE09 SWAP2 SWAP1 PUSH2 0x4A11 JUMP JUMPDEST POP PUSH32 0xC21195A7F73ACB0112D9942F6C5C02ACC3D8D2C74AB81A6C28F4F492DAC933B8 CALLER TIMESTAMP PUSH1 0x40 MLOAD PUSH2 0xE3B SWAP3 SWAP2 SWAP1 PUSH2 0x4A3E JUMP JUMPDEST PUSH1 0x40 MLOAD DUP1 SWAP2 SUB SWAP1 LOG1 PUSH1 0x1 SWAP2 POP POP SWAP8 SWAP7 POP POP POP POP POP POP POP JUMP JUMPDEST PUSH2 0xE5C DUP3 PUSH2 0xC04 JUMP JUMPDEST PUSH2 0xE65 DUP2 PUSH2 0x1D49 JUMP JUMPDEST PUSH2 0xE6F DUP4 DUP4 PUSH2 0x1D8D JUMP JUMPDEST POP POP POP POP JUMP JUMPDEST PUSH1 0x0 PUSH2 0xE80 DUP4 PUSH2 0x1532 JUMP JUMPDEST DUP3 LT PUSH2 0xEC5 JUMPI DUP3 DUP3 PUSH1 0x40 MLOAD PUSH32 0xA57D13DC00000000000000000000000000000000000000000000000000000000 DUP2 MSTORE PUSH1 0x4 ADD PUSH2 0xEBC SWAP3 SWAP2 SWAP1 PUSH2 0x4A3E JUMP JUMPDEST PUSH1 0x40 MLOAD DUP1 SWAP2 SUB SWAP1 REVERT JUMPDEST PUSH1 0x7 PUSH1 0x0 DUP5 PUSH20 0xFFFFFFFFFFFFFFFFFFFFFFFFFFFFFFFFFFFFFFFF AND PUSH20 0xFFFFFFFFFFFFFFFFFFFFFFFFFFFFFFFFFFFFFFFF AND DUP2 MSTORE PUSH1 0x20 ADD SWAP1 DUP2 MSTORE PUSH1 0x20 ADD PUSH1 0x0 KECCAK256 PUSH1 0x0 DUP4 DUP2 MSTORE PUSH1 0x20 ADD SWAP1 DUP2 MSTORE PUSH1 0x20 ADD PUSH1 0x0 KECCAK256 SLOAD SWAP1 POP SWAP3 SWAP2 POP POP JUMP JUMPDEST PUSH2 0xF26 PUSH2 0x1D5D JUMP JUMPDEST PUSH20 0xFFFFFFFFFFFFFFFFFFFFFFFFFFFFFFFFFFFFFFFF AND DUP2 PUSH20 0xFFFFFFFFFFFFFFFFFFFFFFFFFFFFFFFFFFFFFFFF AND EQ PUSH2 0xF8A JUMPI PUSH1 0x40 MLOAD PUSH32 0x6697B23200000000000000000000000000000000000000000000000000000000 DUP2 MSTORE PUSH1 0x4 ADD PUSH1 0x40 MLOAD DUP1 SWAP2 SUB SWAP1 REVERT JUMPDEST PUSH2 0xF94 DUP3 DUP3 PUSH2 0x1E7E JUMP JUMPDEST POP POP POP JUMP JUMPDEST PUSH1 0x0 DUP1 PUSH1 0xB PUSH1 0x0 DUP2 SLOAD DUP1 SWAP3 SWAP2 SWAP1 PUSH2 0xFAF SWAP1 PUSH2 0x4BAA JUMP JUMPDEST SWAP2 SWAP1 POP SSTORE SWAP1 POP PUSH2 0xFBF DUP4 DUP3 PUSH2 0x1F70 JUMP JUMPDEST DUP1 SWAP2 POP POP SWAP2 SWAP1 POP JUMP JUMPDEST PUSH1 0x0 PUSH32 0x61E6A4BB6BCA8AA1F17C71895C1AB1BF9C06C812442A0A16AAD9F0837C23CA79 PUSH2 0xFF4 DUP2 PUSH2 0x1D49 JUMP JUMPDEST PUSH1 0xC PUSH1 0x0 SWAP1 SLOAD SWAP1 PUSH2 0x100 EXP SWAP1 DIV PUSH20 0xFFFFFFFFFFFFFFFFFFFFFFFFFFFFFFFFFFFFFFFF AND PUSH20 0xFFFFFFFFFFFFFFFFFFFFFFFFFFFFFFFFFFFFFFFF AND PUSH4 0x64DF69E7 DUP15 DUP15 DUP15 DUP15 DUP15 DUP15 DUP15 DUP15 DUP15 DUP15 DUP15 PUSH1 0x40 MLOAD DUP13 PUSH4 0xFFFFFFFF AND PUSH1 0xE0 SHL DUP2 MSTORE PUSH1 0x4 ADD PUSH2 0x1063 SWAP12 SWAP11 SWAP10 SWAP9 SWAP8 SWAP7 SWAP6 SWAP5 SWAP4 SWAP3 SWAP2 SWAP1 PUSH2 0x4CBB JUMP JUMPDEST PUSH1 0x20 PUSH1 0x40 MLOAD DUP1 DUP4 SUB DUP2 PUSH1 0x0 DUP8 GAS CALL ISZERO DUP1 ISZERO PUSH2 0x1082 JUMPI RETURNDATASIZE PUSH1 0x0 DUP1 RETURNDATACOPY RETURNDATASIZE PUSH1 0x0 REVERT JUMPDEST POP POP POP POP PUSH1 0x40 MLOAD RETURNDATASIZE PUSH1 0x1F NOT PUSH1 0x1F DUP3 ADD AND DUP3 ADD DUP1 PUSH1 0x40 MSTORE POP DUP2 ADD SWAP1 PUSH2 0x10A6 SWAP2 SWAP1 PUSH2 0x4A11 JUMP JUMPDEST POP PUSH2 0x10B3 CALLER PUSH1 0xB SLOAD PUSH2 0x1F70 JUMP JUMPDEST PUSH1 0x1 SWAP2 POP POP SWAP12 SWAP11 POP POP POP POP POP POP POP POP POP POP POP JUMP JUMPDEST PUSH2 0x10E2 DUP4 DUP4 DUP4 PUSH1 0x40 MLOAD DUP1 PUSH1 0x20 ADD PUSH1 0x40 MSTORE DUP1 PUSH1 0x0 DUP2 MSTORE POP PUSH2 0x17B8 JUMP JUMPDEST POP POP POP JUMP JUMPDEST PUSH1 0x0 PUSH2 0x10F1 PUSH2 0xA5D JUMP JUMPDEST DUP3 LT PUSH2 0x1137 JUMPI PUSH1 0x0 DUP3 PUSH1 0x40 MLOAD PUSH32 0xA57D13DC00000000000000000000000000000000000000000000000000000000 DUP2 MSTORE PUSH1 0x4 ADD PUSH2 0x112E SWAP3 SWAP2 SWAP1 PUSH2 0x4A3E JUMP JUMPDEST PUSH1 0x40 MLOAD DUP1 SWAP2 SUB SWAP1 REVERT JUMPDEST PUSH1 0x9 DUP3 DUP2 SLOAD DUP2 LT PUSH2 0x114B JUMPI PUSH2 0x114A PUSH2 0x4D4E JUMP JUMPDEST JUMPDEST SWAP1 PUSH1 0x0 MSTORE PUSH1 0x20 PUSH1 0x0 KECCAK256 ADD SLOAD SWAP1 POP SWAP2 SWAP1 POP JUMP JUMPDEST PUSH1 0x0 DUP2 JUMP JUMPDEST PUSH1 0x0 PUSH2 0x118E PUSH32 0xAF6786EFC154B345802554F1DEA27E60EA4C3393B6B38EB8438E22C20E088BD2 CALLER PUSH2 0x169F JUMP JUMPDEST ISZERO PUSH2 0x11C5 JUMPI PUSH1 0x40 MLOAD PUSH32 0x937DF23900000000000000000000000000000000000000000000000000000000 DUP2 MSTORE PUSH1 0x4 ADD PUSH1 0x40 MLOAD DUP1 SWAP2 SUB SWAP1 REVERT JUMPDEST PUSH2 0x11EF PUSH32 0xAF6786EFC154B345802554F1DEA27E60EA4C3393B6B38EB8438E22C20E088BD2 CALLER PUSH2 0x1D8D JUMP JUMPDEST POP PUSH1 0xC PUSH1 0x0 SWAP1 SLOAD SWAP1 PUSH2 0x100 EXP SWAP1 DIV PUSH20 0xFFFFFFFFFFFFFFFFFFFFFFFFFFFFFFFFFFFFFFFF AND PUSH20 0xFFFFFFFFFFFFFFFFFFFFFFFFFFFFFFFFFFFFFFFF AND PUSH4 0xF6A3540 CALLER DUP10 DUP10 DUP10 DUP10 DUP10 DUP10 PUSH1 0x1 PUSH1 0x40 MLOAD DUP10 PUSH4 0xFFFFFFFF AND PUSH1 0xE0 SHL DUP2 MSTORE PUSH1 0x4 ADD PUSH2 0x125A SWAP9 SWAP8 SWAP7 SWAP6 SWAP5 SWAP4 SWAP3 SWAP2 SWAP1 PUSH2 0x4B0D JUMP JUMPDEST PUSH1 0x20 PUSH1 0x40 MLOAD DUP1 DUP4 SUB DUP2 PUSH1 0x0 DUP8 GAS CALL ISZERO DUP1 ISZERO PUSH2 0x1279 JUMPI RETURNDATASIZE PUSH1 0x0 DUP1 RETURNDATACOPY RETURNDATASIZE PUSH1 0x0 REVERT JUMPDEST POP POP POP POP PUSH1 0x40 MLOAD RETURNDATASIZE PUSH1 0x1F NOT PUSH1 0x1F DUP3 ADD AND DUP3 ADD DUP1 PUSH1 0x40 MSTORE POP DUP2 ADD SWAP1 PUSH2 0x129D SWAP2 SWAP1 PUSH2 0x4A11 JUMP JUMPDEST POP PUSH32 0x9355F2BA77852E61793679FF03CF26231B8175FDFB97DC47490F1B151E6AB0D4 CALLER TIMESTAMP PUSH1 0x40 MLOAD PUSH2 0x12CF SWAP3 SWAP2 SWAP1 PUSH2 0x4A3E JUMP JUMPDEST PUSH1 0x40 MLOAD DUP1 SWAP2 SUB SWAP1 LOG1 PUSH1 0x1 SWAP1 POP SWAP7 SWAP6 POP POP POP POP POP POP JUMP JUMPDEST PUSH1 0x0 PUSH2 0x1311 PUSH32 0x61E6A4BB6BCA8AA1F17C71895C1AB1BF9C06C812442A0A16AAD9F0837C23CA79 CALLER PUSH2 0x169F JUMP JUMPDEST ISZERO PUSH2 0x1348 JUMPI PUSH1 0x40 MLOAD PUSH32 0x9E5AE09300000000000000000000000000000000000000000000000000000000 DUP2 MSTORE PUSH1 0x4 ADD PUSH1 0x40 MLOAD DUP1 SWAP2 SUB SWAP1 REVERT JUMPDEST PUSH2 0x1372 PUSH32 0x61E6A4BB6BCA8AA1F17C71895C1AB1BF9C06C812442A0A16AAD9F0837C23CA79 CALLER PUSH2 0x1D8D JUMP JUMPDEST POP PUSH1 0xC PUSH1 0x0 SWAP1 SLOAD SWAP1 PUSH2 0x100 EXP SWAP1 DIV PUSH20 0xFFFFFFFFFFFFFFFFFFFFFFFFFFFFFFFFFFFFFFFF AND PUSH20 0xFFFFFFFFFFFFFFFFFFFFFFFFFFFFFFFFFFFFFFFF AND PUSH4 0x7208CA19 CALLER DUP10 DUP10 DUP10 DUP10 DUP10 DUP10 PUSH1 0x0 PUSH1 0x1 PUSH1 0x40 MLOAD DUP11 PUSH4 0xFFFFFFFF AND PUSH1 0xE0 SHL DUP2 MSTORE PUSH1 0x4 ADD PUSH2 0x13E0 SWAP10 SWAP9 SWAP8 SWAP7 SWAP6 SWAP5 SWAP4 SWAP3 SWAP2 SWAP1 PUSH2 0x4D7D JUMP JUMPDEST PUSH1 0x20 PUSH1 0x40 MLOAD DUP1 DUP4 SUB DUP2 PUSH1 0x0 DUP8 GAS CALL ISZERO DUP1 ISZERO PUSH2 0x13FF JUMPI RETURNDATASIZE PUSH1 0x0 DUP1 RETURNDATACOPY RETURNDATASIZE PUSH1 0x0 REVERT JUMPDEST POP POP POP POP PUSH1 0x40 MLOAD RETURNDATASIZE PUSH1 0x1F NOT PUSH1 0x1F DUP3 ADD AND DUP3 ADD DUP1 PUSH1 0x40 MSTORE POP DUP2 ADD SWAP1 PUSH2 0x1423 SWAP2 SWAP1 PUSH2 0x4A11 JUMP JUMPDEST POP PUSH32 0xA12ABD8201760A4E094635A878D94E4E31EE41204057E1BA4081B4C8BA7DF8A8 CALLER TIMESTAMP PUSH1 0x40 MLOAD PUSH2 0x1455 SWAP3 SWAP2 SWAP1 PUSH2 0x4A3E JUMP JUMPDEST PUSH1 0x40 MLOAD DUP1 SWAP2 SUB SWAP1 LOG1 PUSH1 0x1 SWAP1 POP SWAP7 SWAP6 POP POP POP POP POP POP JUMP JUMPDEST PUSH2 0x1473 PUSH2 0x38AD JUMP JUMPDEST PUSH1 0xC PUSH1 0x0 SWAP1 SLOAD SWAP1 PUSH2 0x100 EXP SWAP1 DIV PUSH20 0xFFFFFFFFFFFFFFFFFFFFFFFFFFFFFFFFFFFFFFFF AND PUSH20 0xFFFFFFFFFFFFFFFFFFFFFFFFFFFFFFFFFFFFFFFF AND PUSH4 0x57A00CCF DUP4 PUSH1 0x40 MLOAD DUP3 PUSH4 0xFFFFFFFF AND PUSH1 0xE0 SHL DUP2 MSTORE PUSH1 0x4 ADD PUSH2 0x14CE SWAP2 SWAP1 PUSH2 0x3BCD JUMP JUMPDEST PUSH1 0x0 PUSH1 0x40 MLOAD DUP1 DUP4 SUB DUP2 DUP7 GAS STATICCALL ISZERO DUP1 ISZERO PUSH2 0x14EB JUMPI RETURNDATASIZE PUSH1 0x0 DUP1 RETURNDATACOPY RETURNDATASIZE PUSH1 0x0 REVERT JUMPDEST POP POP POP POP PUSH1 0x40 MLOAD RETURNDATASIZE PUSH1 0x0 DUP3 RETURNDATACOPY RETURNDATASIZE PUSH1 0x1F NOT PUSH1 0x1F DUP3 ADD AND DUP3 ADD DUP1 PUSH1 0x40 MSTORE POP DUP2 ADD SWAP1 PUSH2 0x1514 SWAP2 SWAP1 PUSH2 0x50A1 JUMP JUMPDEST SWAP1 POP SWAP2 SWAP1 POP JUMP JUMPDEST PUSH1 0x1 DUP2 JUMP JUMPDEST PUSH1 0x0 PUSH2 0x152B DUP3 PUSH2 0x1C84 JUMP JUMPDEST SWAP1 POP SWAP2 SWAP1 POP JUMP JUMPDEST PUSH1 0x0 DUP1 PUSH20 0xFFFFFFFFFFFFFFFFFFFFFFFFFFFFFFFFFFFFFFFF AND DUP3 PUSH20 0xFFFFFFFFFFFFFFFFFFFFFFFFFFFFFFFFFFFFFFFF AND SUB PUSH2 0x15A5 JUMPI PUSH1 0x0 PUSH1 0x40 MLOAD PUSH32 0x89C62B6400000000000000000000000000000000000000000000000000000000 DUP2 MSTORE PUSH1 0x4 ADD PUSH2 0x159C SWAP2 SWAP1 PUSH2 0x3BCD JUMP JUMPDEST PUSH1 0x40 MLOAD DUP1 SWAP2 SUB SWAP1 REVERT JUMPDEST PUSH1 0x4 PUSH1 0x0 DUP4 PUSH20 0xFFFFFFFFFFFFFFFFFFFFFFFFFFFFFFFFFFFFFFFF AND PUSH20 0xFFFFFFFFFFFFFFFFFFFFFFFFFFFFFFFFFFFFFFFF AND DUP2 MSTORE PUSH1 0x20 ADD SWAP1 DUP2 MSTORE PUSH1 0x20 ADD PUSH1 0x0 KECCAK256 SLOAD SWAP1 POP SWAP2 SWAP1 POP JUMP JUMPDEST PUSH1 0x60 PUSH2 0x15F7 DUP3 PUSH2 0x1F8E JUMP JUMPDEST SWAP1 POP SWAP2 SWAP1 POP JUMP JUMPDEST PUSH1 0x0 PUSH1 0x1 SWAP1 POP SWAP1 JUMP JUMPDEST PUSH1 0x0 PUSH1 0xC PUSH1 0x0 SWAP1 SLOAD SWAP1 PUSH2 0x100 EXP SWAP1 DIV PUSH20 0xFFFFFFFFFFFFFFFFFFFFFFFFFFFFFFFFFFFFFFFF AND PUSH20 0xFFFFFFFFFFFFFFFFFFFFFFFFFFFFFFFFFFFFFFFF AND PUSH4 0x8C271777 PUSH1 0x40 MLOAD DUP2 PUSH4 0xFFFFFFFF AND PUSH1 0xE0 SHL DUP2 MSTORE PUSH1 0x4 ADD PUSH1 0x20 PUSH1 0x40 MLOAD DUP1 DUP4 SUB DUP2 DUP7 GAS STATICCALL ISZERO DUP1 ISZERO PUSH2 0x1676 JUMPI RETURNDATASIZE PUSH1 0x0 DUP1 RETURNDATACOPY RETURNDATASIZE PUSH1 0x0 REVERT JUMPDEST POP POP POP POP PUSH1 0x40 MLOAD RETURNDATASIZE PUSH1 0x1F NOT PUSH1 0x1F DUP3 ADD AND DUP3 ADD DUP1 PUSH1 0x40 MSTORE POP DUP2 ADD SWAP1 PUSH2 0x169A SWAP2 SWAP1 PUSH2 0x4A7C JUMP JUMPDEST SWAP1 POP SWAP1 JUMP JUMPDEST PUSH1 0x0 DUP1 PUSH1 0x0 DUP5 DUP2 MSTORE PUSH1 0x20 ADD SWAP1 DUP2 MSTORE PUSH1 0x20 ADD PUSH1 0x0 KECCAK256 PUSH1 0x0 ADD PUSH1 0x0 DUP4 PUSH20 0xFFFFFFFFFFFFFFFFFFFFFFFFFFFFFFFFFFFFFFFF AND PUSH20 0xFFFFFFFFFFFFFFFFFFFFFFFFFFFFFFFFFFFFFFFF AND DUP2 MSTORE PUSH1 0x20 ADD SWAP1 DUP2 MSTORE PUSH1 0x20 ADD PUSH1 0x0 KECCAK256 PUSH1 0x0 SWAP1 SLOAD SWAP1 PUSH2 0x100 EXP SWAP1 DIV PUSH1 0xFF AND SWAP1 POP SWAP3 SWAP2 POP POP JUMP JUMPDEST PUSH1 0x60 PUSH1 0x2 DUP1 SLOAD PUSH2 0x1718 SWAP1 PUSH2 0x49CB JUMP JUMPDEST DUP1 PUSH1 0x1F ADD PUSH1 0x20 DUP1 SWAP2 DIV MUL PUSH1 0x20 ADD PUSH1 0x40 MLOAD SWAP1 DUP2 ADD PUSH1 0x40 MSTORE DUP1 SWAP3 SWAP2 SWAP1 DUP2 DUP2 MSTORE PUSH1 0x20 ADD DUP3 DUP1 SLOAD PUSH2 0x1744 SWAP1 PUSH2 0x49CB JUMP JUMPDEST DUP1 ISZERO PUSH2 0x1791 JUMPI DUP1 PUSH1 0x1F LT PUSH2 0x1766 JUMPI PUSH2 0x100 DUP1 DUP4 SLOAD DIV MUL DUP4 MSTORE SWAP2 PUSH1 0x20 ADD SWAP2 PUSH2 0x1791 JUMP JUMPDEST DUP3 ADD SWAP2 SWAP1 PUSH1 0x0 MSTORE PUSH1 0x20 PUSH1 0x0 KECCAK256 SWAP1 JUMPDEST DUP2 SLOAD DUP2 MSTORE SWAP1 PUSH1 0x1 ADD SWAP1 PUSH1 0x20 ADD DUP1 DUP4 GT PUSH2 0x1774 JUMPI DUP3 SWAP1 SUB PUSH1 0x1F AND DUP3 ADD SWAP2 JUMPDEST POP POP POP POP POP SWAP1 POP SWAP1 JUMP JUMPDEST PUSH1 0x0 DUP1 SHL DUP2 JUMP JUMPDEST PUSH2 0x17B4 PUSH2 0x17AD PUSH2 0x1D5D JUMP JUMPDEST DUP4 DUP4 PUSH2 0x2125 JUMP JUMPDEST POP POP JUMP JUMPDEST PUSH2 0x17C3 DUP5 DUP5 DUP5 PUSH2 0xB02 JUMP JUMPDEST PUSH2 0x17D7 PUSH2 0x17CE PUSH2 0x1D5D JUMP JUMPDEST DUP6 DUP6 DUP6 DUP6 PUSH2 0x2294 JUMP JUMPDEST POP POP POP POP JUMP JUMPDEST PUSH2 0x17E5 PUSH2 0x38F6 JUMP JUMPDEST PUSH1 0xC PUSH1 0x0 SWAP1 SLOAD SWAP1 PUSH2 0x100 EXP SWAP1 DIV PUSH20 0xFFFFFFFFFFFFFFFFFFFFFFFFFFFFFFFFFFFFFFFF AND PUSH20 0xFFFFFFFFFFFFFFFFFFFFFFFFFFFFFFFFFFFFFFFF AND PUSH4 0xBAB859A5 DUP4 PUSH1 0x40 MLOAD DUP3 PUSH4 0xFFFFFFFF AND PUSH1 0xE0 SHL DUP2 MSTORE PUSH1 0x4 ADD PUSH2 0x1840 SWAP2 SWAP1 PUSH2 0x3C90 JUMP JUMPDEST PUSH1 0x0 PUSH1 0x40 MLOAD DUP1 DUP4 SUB DUP2 DUP7 GAS STATICCALL ISZERO DUP1 ISZERO PUSH2 0x185D JUMPI RETURNDATASIZE PUSH1 0x0 DUP1 RETURNDATACOPY RETURNDATASIZE PUSH1 0x0 REVERT JUMPDEST POP POP POP POP PUSH1 0x40 MLOAD RETURNDATASIZE PUSH1 0x0 DUP3 RETURNDATACOPY RETURNDATASIZE PUSH1 0x1F NOT PUSH1 0x1F DUP3 ADD AND DUP3 ADD DUP1 PUSH1 0x40 MSTORE POP DUP2 ADD SWAP1 PUSH2 0x1886 SWAP2 SWAP1 PUSH2 0x533C JUMP JUMPDEST SWAP1 POP SWAP2 SWAP1 POP JUMP JUMPDEST PUSH1 0x60 PUSH1 0xB SLOAD DUP3 LT PUSH2 0x18CA JUMPI PUSH1 0x40 MLOAD PUSH32 0xCEEA21B600000000000000000000000000000000000000000000000000000000 DUP2 MSTORE PUSH1 0x4 ADD PUSH1 0x40 MLOAD DUP1 SWAP2 SUB SWAP1 REVERT JUMPDEST PUSH1 0x40 MLOAD DUP1 PUSH1 0x40 ADD PUSH1 0x40 MSTORE DUP1 PUSH1 0x1D DUP2 MSTORE PUSH1 0x20 ADD PUSH32 0x646174613A6170706C69636174696F6E2F6A736F6E3B6261736536342C000000 DUP2 MSTORE POP PUSH2 0x199D PUSH1 0x40 MLOAD DUP1 PUSH1 0x60 ADD PUSH1 0x40 MSTORE DUP1 PUSH1 0x25 DUP2 MSTORE PUSH1 0x20 ADD PUSH2 0x5F01 PUSH1 0x25 SWAP2 CODECOPY PUSH2 0x1925 DUP6 PUSH2 0x2445 JUMP JUMPDEST PUSH2 0x192E DUP7 PUSH2 0x2513 JUMP JUMPDEST PUSH2 0x193F PUSH2 0x193A DUP9 PUSH2 0x2720 JUMP JUMPDEST PUSH2 0x1F8E JUMP JUMPDEST PUSH1 0x40 MLOAD DUP1 PUSH1 0x40 ADD PUSH1 0x40 MSTORE DUP1 PUSH1 0x2 DUP2 MSTORE PUSH1 0x20 ADD PUSH32 0x227D000000000000000000000000000000000000000000000000000000000000 DUP2 MSTORE POP PUSH1 0x40 MLOAD PUSH1 0x20 ADD PUSH2 0x1989 SWAP6 SWAP5 SWAP4 SWAP3 SWAP2 SWAP1 PUSH2 0x53C1 JUMP JUMPDEST PUSH1 0x40 MLOAD PUSH1 0x20 DUP2 DUP4 SUB SUB DUP2 MSTORE SWAP1 PUSH1 0x40 MSTORE PUSH2 0x1F8E JUMP JUMPDEST PUSH1 0x40 MLOAD PUSH1 0x20 ADD PUSH2 0x19AE SWAP3 SWAP2 SWAP1 PUSH2 0x540C JUMP JUMPDEST PUSH1 0x40 MLOAD PUSH1 0x20 DUP2 DUP4 SUB SUB DUP2 MSTORE SWAP1 PUSH1 0x40 MSTORE SWAP1 POP SWAP2 SWAP1 POP JUMP JUMPDEST PUSH2 0x19CD DUP3 PUSH2 0xC04 JUMP JUMPDEST PUSH2 0x19D6 DUP2 PUSH2 0x1D49 JUMP JUMPDEST PUSH2 0x19E0 DUP4 DUP4 PUSH2 0x1E7E JUMP JUMPDEST POP POP POP POP JUMP JUMPDEST PUSH1 0x0 PUSH1 0x6 PUSH1 0x0 DUP5 PUSH20 0xFFFFFFFFFFFFFFFFFFFFFFFFFFFFFFFFFFFFFFFF AND PUSH20 0xFFFFFFFFFFFFFFFFFFFFFFFFFFFFFFFFFFFFFFFF AND DUP2 MSTORE PUSH1 0x20 ADD SWAP1 DUP2 MSTORE PUSH1 0x20 ADD PUSH1 0x0 KECCAK256 PUSH1 0x0 DUP4 PUSH20 0xFFFFFFFFFFFFFFFFFFFFFFFFFFFFFFFFFFFFFFFF AND PUSH20 0xFFFFFFFFFFFFFFFFFFFFFFFFFFFFFFFFFFFFFFFF AND DUP2 MSTORE PUSH1 0x20 ADD SWAP1 DUP2 MSTORE PUSH1 0x20 ADD PUSH1 0x0 KECCAK256 PUSH1 0x0 SWAP1 SLOAD SWAP1 PUSH2 0x100 EXP SWAP1 DIV PUSH1 0xFF AND SWAP1 POP SWAP3 SWAP2 POP POP JUMP JUMPDEST PUSH2 0x1A82 PUSH2 0x3969 JUMP JUMPDEST PUSH1 0xC PUSH1 0x0 SWAP1 SLOAD SWAP1 PUSH2 0x100 EXP SWAP1 DIV PUSH20 0xFFFFFFFFFFFFFFFFFFFFFFFFFFFFFFFFFFFFFFFF AND PUSH20 0xFFFFFFFFFFFFFFFFFFFFFFFFFFFFFFFFFFFFFFFF AND PUSH4 0xEE7BF0EE DUP4 PUSH1 0x40 MLOAD DUP3 PUSH4 0xFFFFFFFF AND PUSH1 0xE0 SHL DUP2 MSTORE PUSH1 0x4 ADD PUSH2 0x1ADD SWAP2 SWAP1 PUSH2 0x3BCD JUMP JUMPDEST PUSH1 0x0 PUSH1 0x40 MLOAD DUP1 DUP4 SUB DUP2 DUP7 GAS STATICCALL ISZERO DUP1 ISZERO PUSH2 0x1AFA JUMPI RETURNDATASIZE PUSH1 0x0 DUP1 RETURNDATACOPY RETURNDATASIZE PUSH1 0x0 REVERT JUMPDEST POP POP POP POP PUSH1 0x40 MLOAD RETURNDATASIZE PUSH1 0x0 DUP3 RETURNDATACOPY RETURNDATASIZE PUSH1 0x1F NOT PUSH1 0x1F DUP3 ADD AND DUP3 ADD DUP1 PUSH1 0x40 MSTORE POP DUP2 ADD SWAP1 PUSH2 0x1B23 SWAP2 SWAP1 PUSH2 0x5554 JUMP JUMPDEST SWAP1 POP SWAP2 SWAP1 POP JUMP JUMPDEST PUSH1 0x0 PUSH32 0xAF6786EFC154B345802554F1DEA27E60EA4C3393B6B38EB8438E22C20E088BD2 PUSH2 0x1B56 DUP2 PUSH2 0x1D49 JUMP JUMPDEST PUSH1 0xC PUSH1 0x0 SWAP1 SLOAD SWAP1 PUSH2 0x100 EXP SWAP1 DIV PUSH20 0xFFFFFFFFFFFFFFFFFFFFFFFFFFFFFFFFFFFFFFFF AND PUSH20 0xFFFFFFFFFFFFFFFFFFFFFFFFFFFFFFFFFFFFFFFF AND PUSH4 0xDFD49F25 CALLER DUP12 DUP12 DUP12 DUP12 DUP12 DUP12 DUP12 PUSH1 0x40 MLOAD DUP10 PUSH4 0xFFFFFFFF AND PUSH1 0xE0 SHL DUP2 MSTORE PUSH1 0x4 ADD PUSH2 0x1BBF SWAP9 SWAP8 SWAP7 SWAP6 SWAP5 SWAP4 SWAP3 SWAP2 SWAP1 PUSH2 0x4B0D JUMP JUMPDEST PUSH1 0x20 PUSH1 0x40 MLOAD DUP1 DUP4 SUB DUP2 PUSH1 0x0 DUP8 GAS CALL ISZERO DUP1 ISZERO PUSH2 0x1BDE JUMPI RETURNDATASIZE PUSH1 0x0 DUP1 RETURNDATACOPY RETURNDATASIZE PUSH1 0x0 REVERT JUMPDEST POP POP POP POP PUSH1 0x40 MLOAD RETURNDATASIZE PUSH1 0x1F NOT PUSH1 0x1F DUP3 ADD AND DUP3 ADD DUP1 PUSH1 0x40 MSTORE POP DUP2 ADD SWAP1 PUSH2 0x1C02 SWAP2 SWAP1 PUSH2 0x4A11 JUMP JUMPDEST POP PUSH32 0x3E981D6FD4C5BD91EF3F68CA28A36322130D52221AB7319AE700E4C417DCC8E3 CALLER TIMESTAMP PUSH1 0x40 MLOAD PUSH2 0x1C34 SWAP3 SWAP2 SWAP1 PUSH2 0x4A3E JUMP JUMPDEST PUSH1 0x40 MLOAD DUP1 SWAP2 SUB SWAP1 LOG1 PUSH1 0x1 SWAP2 POP POP SWAP8 SWAP7 POP POP POP POP POP POP POP JUMP JUMPDEST PUSH1 0xD PUSH1 0x0 SWAP1 SLOAD SWAP1 PUSH2 0x100 EXP SWAP1 DIV PUSH20 0xFFFFFFFFFFFFFFFFFFFFFFFFFFFFFFFFFFFFFFFF AND DUP2 JUMP JUMPDEST PUSH1 0x0 PUSH2 0x1C7D DUP3 PUSH2 0x2A5E JUMP JUMPDEST SWAP1 POP SWAP2 SWAP1 POP JUMP JUMPDEST PUSH1 0x0 DUP1 PUSH2 0x1C90 DUP4 PUSH2 0x2AD8 JUMP JUMPDEST SWAP1 POP PUSH1 0x0 PUSH20 0xFFFFFFFFFFFFFFFFFFFFFFFFFFFFFFFFFFFFFFFF AND DUP2 PUSH20 0xFFFFFFFFFFFFFFFFFFFFFFFFFFFFFFFFFFFFFFFF AND SUB PUSH2 0x1D03 JUMPI DUP3 PUSH1 0x40 MLOAD PUSH32 0x7E27328900000000000000000000000000000000000000000000000000000000 DUP2 MSTORE PUSH1 0x4 ADD PUSH2 0x1CFA SWAP2 SWAP1 PUSH2 0x3C90 JUMP JUMPDEST PUSH1 0x40 MLOAD DUP1 SWAP2 SUB SWAP1 REVERT JUMPDEST DUP1 SWAP2 POP POP SWAP2 SWAP1 POP JUMP JUMPDEST PUSH1 0x0 PUSH1 0x5 PUSH1 0x0 DUP4 DUP2 MSTORE PUSH1 0x20 ADD SWAP1 DUP2 MSTORE PUSH1 0x20 ADD PUSH1 0x0 KECCAK256 PUSH1 0x0 SWAP1 SLOAD SWAP1 PUSH2 0x100 EXP SWAP1 DIV PUSH20 0xFFFFFFFFFFFFFFFFFFFFFFFFFFFFFFFFFFFFFFFF AND SWAP1 POP SWAP2 SWAP1 POP JUMP JUMPDEST PUSH2 0x1D5A DUP2 PUSH2 0x1D55 PUSH2 0x1D5D JUMP JUMPDEST PUSH2 0x2B15 JUMP JUMPDEST POP JUMP JUMPDEST PUSH1 0x0 CALLER SWAP1 POP SWAP1 JUMP JUMPDEST PUSH2 0x1D72 DUP4 DUP4 DUP4 PUSH1 0x1 PUSH2 0x2B66 JUMP JUMPDEST POP POP POP JUMP JUMPDEST PUSH1 0x0 PUSH2 0x1D84 DUP5 DUP5 DUP5 PUSH2 0x2D2B JUMP JUMPDEST SWAP1 POP SWAP4 SWAP3 POP POP POP JUMP JUMPDEST PUSH1 0x0 PUSH2 0x1D99 DUP4 DUP4 PUSH2 0x169F JUMP JUMPDEST PUSH2 0x1E73 JUMPI PUSH1 0x1 PUSH1 0x0 DUP1 DUP6 DUP2 MSTORE PUSH1 0x20 ADD SWAP1 DUP2 MSTORE PUSH1 0x20 ADD PUSH1 0x0 KECCAK256 PUSH1 0x0 ADD PUSH1 0x0 DUP5 PUSH20 0xFFFFFFFFFFFFFFFFFFFFFFFFFFFFFFFFFFFFFFFF AND PUSH20 0xFFFFFFFFFFFFFFFFFFFFFFFFFFFFFFFFFFFFFFFF AND DUP2 MSTORE PUSH1 0x20 ADD SWAP1 DUP2 MSTORE PUSH1 0x20 ADD PUSH1 0x0 KECCAK256 PUSH1 0x0 PUSH2 0x100 EXP DUP2 SLOAD DUP2 PUSH1 0xFF MUL NOT AND SWAP1 DUP4 ISZERO ISZERO MUL OR SWAP1 SSTORE POP PUSH2 0x1E10 PUSH2 0x1D5D JUMP JUMPDEST PUSH20 0xFFFFFFFFFFFFFFFFFFFFFFFFFFFFFFFFFFFFFFFF AND DUP3 PUSH20 0xFFFFFFFFFFFFFFFFFFFFFFFFFFFFFFFFFFFFFFFF AND DUP5 PUSH32 0x2F8788117E7EFF1D82E926EC794901D17C78024A50270940304540A733656F0D PUSH1 0x40 MLOAD PUSH1 0x40 MLOAD DUP1 SWAP2 SUB SWAP1 LOG4 PUSH1 0x1 SWAP1 POP PUSH2 0x1E78 JUMP JUMPDEST PUSH1 0x0 SWAP1 POP JUMPDEST SWAP3 SWAP2 POP POP JUMP JUMPDEST PUSH1 0x0 PUSH2 0x1E8A DUP4 DUP4 PUSH2 0x169F JUMP JUMPDEST ISZERO PUSH2 0x1F65 JUMPI PUSH1 0x0 DUP1 PUSH1 0x0 DUP6 DUP2 MSTORE PUSH1 0x20 ADD SWAP1 DUP2 MSTORE PUSH1 0x20 ADD PUSH1 0x0 KECCAK256 PUSH1 0x0 ADD PUSH1 0x0 DUP5 PUSH20 0xFFFFFFFFFFFFFFFFFFFFFFFFFFFFFFFFFFFFFFFF AND PUSH20 0xFFFFFFFFFFFFFFFFFFFFFFFFFFFFFFFFFFFFFFFF AND DUP2 MSTORE PUSH1 0x20 ADD SWAP1 DUP2 MSTORE PUSH1 0x20 ADD PUSH1 0x0 KECCAK256 PUSH1 0x0 PUSH2 0x100 EXP DUP2 SLOAD DUP2 PUSH1 0xFF MUL NOT AND SWAP1 DUP4 ISZERO ISZERO MUL OR SWAP1 SSTORE POP PUSH2 0x1F02 PUSH2 0x1D5D JUMP JUMPDEST PUSH20 0xFFFFFFFFFFFFFFFFFFFFFFFFFFFFFFFFFFFFFFFF AND DUP3 PUSH20 0xFFFFFFFFFFFFFFFFFFFFFFFFFFFFFFFFFFFFFFFF AND DUP5 PUSH32 0xF6391F5C32D9C69D2A47EA670B442974B53935D1EDC7FD64EB21E047A839171B PUSH1 0x40 MLOAD PUSH1 0x40 MLOAD DUP1 SWAP2 SUB SWAP1 LOG4 PUSH1 0x1 SWAP1 POP PUSH2 0x1F6A JUMP JUMPDEST PUSH1 0x0 SWAP1 POP JUMPDEST SWAP3 SWAP2 POP POP JUMP JUMPDEST PUSH2 0x1F8A DUP3 DUP3 PUSH1 0x40 MLOAD DUP1 PUSH1 0x20 ADD PUSH1 0x40 MSTORE DUP1 PUSH1 0x0 DUP2 MSTORE POP PUSH2 0x2E48 JUMP JUMPDEST POP POP JUMP JUMPDEST PUSH1 0x60 PUSH1 0x0 DUP3 MLOAD SWAP1 POP PUSH1 0x0 DUP2 SUB PUSH2 0x1FB6 JUMPI PUSH1 0x40 MLOAD DUP1 PUSH1 0x20 ADD PUSH1 0x40 MSTORE DUP1 PUSH1 0x0 DUP2 MSTORE POP SWAP2 POP POP PUSH2 0x2120 JUMP JUMPDEST PUSH1 0x0 PUSH1 0x3 PUSH1 0x2 DUP4 PUSH2 0x1FC7 SWAP2 SWAP1 PUSH2 0x559D JUMP JUMPDEST PUSH2 0x1FD1 SWAP2 SWAP1 PUSH2 0x5600 JUMP JUMPDEST PUSH1 0x4 PUSH2 0x1FDD SWAP2 SWAP1 PUSH2 0x5631 JUMP JUMPDEST SWAP1 POP PUSH1 0x0 PUSH1 0x20 DUP3 PUSH2 0x1FEE SWAP2 SWAP1 PUSH2 0x559D JUMP JUMPDEST PUSH8 0xFFFFFFFFFFFFFFFF DUP2 GT ISZERO PUSH2 0x2007 JUMPI PUSH2 0x2006 PUSH2 0x43D9 JUMP JUMPDEST JUMPDEST PUSH1 0x40 MLOAD SWAP1 DUP1 DUP3 MSTORE DUP1 PUSH1 0x1F ADD PUSH1 0x1F NOT AND PUSH1 0x20 ADD DUP3 ADD PUSH1 0x40 MSTORE DUP1 ISZERO PUSH2 0x2039 JUMPI DUP2 PUSH1 0x20 ADD PUSH1 0x1 DUP3 MUL DUP1 CALLDATASIZE DUP4 CALLDATACOPY DUP1 DUP3 ADD SWAP2 POP POP SWAP1 POP JUMPDEST POP SWAP1 POP PUSH1 0x0 PUSH1 0x40 MLOAD DUP1 PUSH1 0x60 ADD PUSH1 0x40 MSTORE DUP1 PUSH1 0x40 DUP2 MSTORE PUSH1 0x20 ADD PUSH2 0x5CB1 PUSH1 0x40 SWAP2 CODECOPY SWAP1 POP PUSH1 0x1 DUP2 ADD PUSH1 0x20 DUP4 ADD PUSH1 0x0 JUMPDEST DUP7 DUP2 LT ISZERO PUSH2 0x20DD JUMPI PUSH1 0x3 DUP2 ADD SWAP1 POP PUSH3 0xFFFFFF DUP2 DUP11 ADD MLOAD AND PUSH1 0x3F DUP2 PUSH1 0x12 SHR AND DUP5 ADD MLOAD DUP1 PUSH1 0x8 SHL SWAP1 POP PUSH1 0xFF PUSH1 0x3F DUP4 PUSH1 0xC SHR AND DUP7 ADD MLOAD AND DUP2 ADD SWAP1 POP DUP1 PUSH1 0x8 SHL SWAP1 POP PUSH1 0xFF PUSH1 0x3F DUP4 PUSH1 0x6 SHR AND DUP7 ADD MLOAD AND DUP2 ADD SWAP1 POP DUP1 PUSH1 0x8 SHL SWAP1 POP PUSH1 0xFF PUSH1 0x3F DUP4 AND DUP7 ADD MLOAD AND DUP2 ADD SWAP1 POP DUP1 PUSH1 0xE0 SHL SWAP1 POP DUP1 DUP5 MSTORE PUSH1 0x4 DUP5 ADD SWAP4 POP POP POP PUSH2 0x2064 JUMP JUMPDEST POP PUSH1 0x3 DUP7 MOD PUSH1 0x1 DUP2 EQ PUSH2 0x20F7 JUMPI PUSH1 0x2 DUP2 EQ PUSH2 0x2107 JUMPI PUSH2 0x2112 JUMP JUMPDEST PUSH2 0x3D3D PUSH1 0xF0 SHL PUSH1 0x2 DUP4 SUB MSTORE PUSH2 0x2112 JUMP JUMPDEST PUSH1 0x3D PUSH1 0xF8 SHL PUSH1 0x1 DUP4 SUB MSTORE JUMPDEST POP DUP5 DUP5 MSTORE POP POP DUP2 SWAP5 POP POP POP POP POP JUMPDEST SWAP2 SWAP1 POP JUMP JUMPDEST PUSH1 0x0 PUSH20 0xFFFFFFFFFFFFFFFFFFFFFFFFFFFFFFFFFFFFFFFF AND DUP3 PUSH20 0xFFFFFFFFFFFFFFFFFFFFFFFFFFFFFFFFFFFFFFFF AND SUB PUSH2 0x2196 JUMPI DUP2 PUSH1 0x40 MLOAD PUSH32 0x5B08BA1800000000000000000000000000000000000000000000000000000000 DUP2 MSTORE PUSH1 0x4 ADD PUSH2 0x218D SWAP2 SWAP1 PUSH2 0x3BCD JUMP JUMPDEST PUSH1 0x40 MLOAD DUP1 SWAP2 SUB SWAP1 REVERT JUMPDEST DUP1 PUSH1 0x6 PUSH1 0x0 DUP6 PUSH20 0xFFFFFFFFFFFFFFFFFFFFFFFFFFFFFFFFFFFFFFFF AND PUSH20 0xFFFFFFFFFFFFFFFFFFFFFFFFFFFFFFFFFFFFFFFF AND DUP2 MSTORE PUSH1 0x20 ADD SWAP1 DUP2 MSTORE PUSH1 0x20 ADD PUSH1 0x0 KECCAK256 PUSH1 0x0 DUP5 PUSH20 0xFFFFFFFFFFFFFFFFFFFFFFFFFFFFFFFFFFFFFFFF AND PUSH20 0xFFFFFFFFFFFFFFFFFFFFFFFFFFFFFFFFFFFFFFFF AND DUP2 MSTORE PUSH1 0x20 ADD SWAP1 DUP2 MSTORE PUSH1 0x20 ADD PUSH1 0x0 KECCAK256 PUSH1 0x0 PUSH2 0x100 EXP DUP2 SLOAD DUP2 PUSH1 0xFF MUL NOT AND SWAP1 DUP4 ISZERO ISZERO MUL OR SWAP1 SSTORE POP DUP2 PUSH20 0xFFFFFFFFFFFFFFFFFFFFFFFFFFFFFFFFFFFFFFFF AND DUP4 PUSH20 0xFFFFFFFFFFFFFFFFFFFFFFFFFFFFFFFFFFFFFFFF AND PUSH32 0x17307EAB39AB6107E8899845AD3D59BD9653F200F220920489CA2B5937696C31 DUP4 PUSH1 0x40 MLOAD PUSH2 0x2287 SWAP2 SWAP1 PUSH2 0x3A5C JUMP JUMPDEST PUSH1 0x40 MLOAD DUP1 SWAP2 SUB SWAP1 LOG3 POP POP POP JUMP JUMPDEST PUSH1 0x0 DUP4 PUSH20 0xFFFFFFFFFFFFFFFFFFFFFFFFFFFFFFFFFFFFFFFF AND EXTCODESIZE GT ISZERO PUSH2 0x243E JUMPI DUP3 PUSH20 0xFFFFFFFFFFFFFFFFFFFFFFFFFFFFFFFFFFFFFFFF AND PUSH4 0x150B7A02 DUP7 DUP7 DUP6 DUP6 PUSH1 0x40 MLOAD DUP6 PUSH4 0xFFFFFFFF AND PUSH1 0xE0 SHL DUP2 MSTORE PUSH1 0x4 ADD PUSH2 0x22F3 SWAP5 SWAP4 SWAP3 SWAP2 SWAP1 PUSH2 0x56C8 JUMP JUMPDEST PUSH1 0x20 PUSH1 0x40 MLOAD DUP1 DUP4 SUB DUP2 PUSH1 0x0 DUP8 GAS CALL SWAP3 POP POP POP DUP1 ISZERO PUSH2 0x232F JUMPI POP PUSH1 0x40 MLOAD RETURNDATASIZE PUSH1 0x1F NOT PUSH1 0x1F DUP3 ADD AND DUP3 ADD DUP1 PUSH1 0x40 MSTORE POP DUP2 ADD SWAP1 PUSH2 0x232C SWAP2 SWAP1 PUSH2 0x5729 JUMP JUMPDEST PUSH1 0x1 JUMPDEST PUSH2 0x23B3 JUMPI RETURNDATASIZE DUP1 PUSH1 0x0 DUP2 EQ PUSH2 0x235F JUMPI PUSH1 0x40 MLOAD SWAP2 POP PUSH1 0x1F NOT PUSH1 0x3F RETURNDATASIZE ADD AND DUP3 ADD PUSH1 0x40 MSTORE RETURNDATASIZE DUP3 MSTORE RETURNDATASIZE PUSH1 0x0 PUSH1 0x20 DUP5 ADD RETURNDATACOPY PUSH2 0x2364 JUMP JUMPDEST PUSH1 0x60 SWAP2 POP JUMPDEST POP PUSH1 0x0 DUP2 MLOAD SUB PUSH2 0x23AB JUMPI DUP4 PUSH1 0x40 MLOAD PUSH32 0x64A0AE9200000000000000000000000000000000000000000000000000000000 DUP2 MSTORE PUSH1 0x4 ADD PUSH2 0x23A2 SWAP2 SWAP1 PUSH2 0x3BCD JUMP JUMPDEST PUSH1 0x40 MLOAD DUP1 SWAP2 SUB SWAP1 REVERT JUMPDEST DUP1 MLOAD DUP2 PUSH1 0x20 ADD REVERT JUMPDEST PUSH4 0x150B7A02 PUSH1 0xE0 SHL PUSH28 0xFFFFFFFFFFFFFFFFFFFFFFFFFFFFFFFFFFFFFFFFFFFFFFFFFFFFFFFF NOT AND DUP2 PUSH28 0xFFFFFFFFFFFFFFFFFFFFFFFFFFFFFFFFFFFFFFFFFFFFFFFFFFFFFFFF NOT AND EQ PUSH2 0x243C JUMPI DUP4 PUSH1 0x40 MLOAD PUSH32 0x64A0AE9200000000000000000000000000000000000000000000000000000000 DUP2 MSTORE PUSH1 0x4 ADD PUSH2 0x2433 SWAP2 SWAP1 PUSH2 0x3BCD JUMP JUMPDEST PUSH1 0x40 MLOAD DUP1 SWAP2 SUB SWAP1 REVERT JUMPDEST POP JUMPDEST POP POP POP POP POP JUMP JUMPDEST PUSH1 0x60 PUSH1 0x0 PUSH1 0x1 PUSH2 0x2454 DUP5 PUSH2 0x2E6C JUMP JUMPDEST ADD SWAP1 POP PUSH1 0x0 DUP2 PUSH8 0xFFFFFFFFFFFFFFFF DUP2 GT ISZERO PUSH2 0x2473 JUMPI PUSH2 0x2472 PUSH2 0x43D9 JUMP JUMPDEST JUMPDEST PUSH1 0x40 MLOAD SWAP1 DUP1 DUP3 MSTORE DUP1 PUSH1 0x1F ADD PUSH1 0x1F NOT AND PUSH1 0x20 ADD DUP3 ADD PUSH1 0x40 MSTORE DUP1 ISZERO PUSH2 0x24A5 JUMPI DUP2 PUSH1 0x20 ADD PUSH1 0x1 DUP3 MUL DUP1 CALLDATASIZE DUP4 CALLDATACOPY DUP1 DUP3 ADD SWAP2 POP POP SWAP1 POP JUMPDEST POP SWAP1 POP PUSH1 0x0 DUP3 PUSH1 0x20 ADD DUP3 ADD SWAP1 POP JUMPDEST PUSH1 0x1 ISZERO PUSH2 0x2508 JUMPI DUP1 DUP1 PUSH1 0x1 SWAP1 SUB SWAP2 POP POP PUSH32 0x3031323334353637383961626364656600000000000000000000000000000000 PUSH1 0xA DUP7 MOD BYTE DUP2 MSTORE8 PUSH1 0xA DUP6 DUP2 PUSH2 0x24FC JUMPI PUSH2 0x24FB PUSH2 0x55D1 JUMP JUMPDEST JUMPDEST DIV SWAP5 POP PUSH1 0x0 DUP6 SUB PUSH2 0x24B3 JUMPI JUMPDEST DUP2 SWAP4 POP POP POP POP SWAP2 SWAP1 POP JUMP JUMPDEST PUSH1 0x60 PUSH1 0x0 PUSH1 0xC PUSH1 0x0 SWAP1 SLOAD SWAP1 PUSH2 0x100 EXP SWAP1 DIV PUSH20 0xFFFFFFFFFFFFFFFFFFFFFFFFFFFFFFFFFFFFFFFF AND PUSH20 0xFFFFFFFFFFFFFFFFFFFFFFFFFFFFFFFFFFFFFFFF AND PUSH4 0xBAB859A5 DUP5 PUSH1 0x40 MLOAD DUP3 PUSH4 0xFFFFFFFF AND PUSH1 0xE0 SHL DUP2 MSTORE PUSH1 0x4 ADD PUSH2 0x2572 SWAP2 SWAP1 PUSH2 0x3C90 JUMP JUMPDEST PUSH1 0x0 PUSH1 0x40 MLOAD DUP1 DUP4 SUB DUP2 DUP7 GAS STATICCALL ISZERO DUP1 ISZERO PUSH2 0x258F JUMPI RETURNDATASIZE PUSH1 0x0 DUP1 RETURNDATACOPY RETURNDATASIZE PUSH1 0x0 REVERT JUMPDEST POP POP POP POP PUSH1 0x40 MLOAD RETURNDATASIZE PUSH1 0x0 DUP3 RETURNDATACOPY RETURNDATASIZE PUSH1 0x1F NOT PUSH1 0x1F DUP3 ADD AND DUP3 ADD DUP1 PUSH1 0x40 MSTORE POP DUP2 ADD SWAP1 PUSH2 0x25B8 SWAP2 SWAP1 PUSH2 0x533C JUMP JUMPDEST SWAP1 POP PUSH1 0x0 PUSH1 0x40 MLOAD DUP1 PUSH1 0x60 ADD PUSH1 0x40 MSTORE DUP1 PUSH1 0x39 DUP2 MSTORE PUSH1 0x20 ADD PUSH2 0x5AD6 PUSH1 0x39 SWAP2 CODECOPY DUP3 PUSH1 0xE0 ADD MLOAD PUSH1 0x40 MLOAD DUP1 PUSH1 0x60 ADD PUSH1 0x40 MSTORE DUP1 PUSH1 0x2B DUP2 MSTORE PUSH1 0x20 ADD PUSH2 0x5CF1 PUSH1 0x2B SWAP2 CODECOPY DUP5 PUSH1 0x40 ADD MLOAD PUSH1 0x0 DUP2 MLOAD DUP2 LT PUSH2 0x260B JUMPI PUSH2 0x260A PUSH2 0x4D4E JUMP JUMPDEST JUMPDEST PUSH1 0x20 MUL PUSH1 0x20 ADD ADD MLOAD PUSH1 0x40 MLOAD DUP1 PUSH1 0x60 ADD PUSH1 0x40 MSTORE DUP1 PUSH1 0x2C DUP2 MSTORE PUSH1 0x20 ADD PUSH2 0x5F55 PUSH1 0x2C SWAP2 CODECOPY DUP7 PUSH1 0x60 ADD MLOAD PUSH1 0x0 DUP2 MLOAD DUP2 LT PUSH2 0x2644 JUMPI PUSH2 0x2643 PUSH2 0x4D4E JUMP JUMPDEST JUMPDEST PUSH1 0x20 MUL PUSH1 0x20 ADD ADD MLOAD PUSH1 0x40 MLOAD PUSH1 0x20 ADD PUSH2 0x2661 SWAP7 SWAP6 SWAP5 SWAP4 SWAP3 SWAP2 SWAP1 PUSH2 0x578C JUMP JUMPDEST PUSH1 0x40 MLOAD PUSH1 0x20 DUP2 DUP4 SUB SUB DUP2 MSTORE SWAP1 PUSH1 0x40 MSTORE SWAP1 POP DUP1 PUSH1 0x40 MLOAD DUP1 PUSH1 0x60 ADD PUSH1 0x40 MSTORE DUP1 PUSH1 0x2C DUP2 MSTORE PUSH1 0x20 ADD PUSH2 0x5A38 PUSH1 0x2C SWAP2 CODECOPY PUSH2 0x269C DUP5 PUSH1 0x80 ADD MLOAD PUSH1 0xFF AND PUSH2 0x2445 JUMP JUMPDEST PUSH1 0x40 MLOAD DUP1 PUSH1 0x60 ADD PUSH1 0x40 MSTORE DUP1 PUSH1 0x28 DUP2 MSTORE PUSH1 0x20 ADD PUSH2 0x59C3 PUSH1 0x28 SWAP2 CODECOPY DUP6 PUSH1 0xA0 ADD MLOAD PUSH1 0x40 MLOAD DUP1 PUSH1 0x60 ADD PUSH1 0x40 MSTORE DUP1 PUSH1 0x2F DUP2 MSTORE PUSH1 0x20 ADD PUSH2 0x5F26 PUSH1 0x2F SWAP2 CODECOPY DUP8 PUSH1 0xC0 ADD MLOAD PUSH1 0x40 MLOAD DUP1 PUSH1 0x60 ADD PUSH1 0x40 MSTORE DUP1 PUSH1 0x28 DUP2 MSTORE PUSH1 0x20 ADD PUSH2 0x5944 PUSH1 0x28 SWAP2 CODECOPY PUSH1 0x40 MLOAD PUSH1 0x20 ADD PUSH2 0x2708 SWAP9 SWAP8 SWAP7 SWAP6 SWAP5 SWAP4 SWAP3 SWAP2 SWAP1 PUSH2 0x5803 JUMP JUMPDEST PUSH1 0x40 MLOAD PUSH1 0x20 DUP2 DUP4 SUB SUB DUP2 MSTORE SWAP1 PUSH1 0x40 MSTORE SWAP3 POP POP POP SWAP2 SWAP1 POP JUMP JUMPDEST PUSH1 0x60 PUSH1 0x0 PUSH1 0x40 MLOAD DUP1 PUSH1 0x80 ADD PUSH1 0x40 MSTORE DUP1 PUSH1 0x57 DUP2 MSTORE PUSH1 0x20 ADD PUSH2 0x596C PUSH1 0x57 SWAP2 CODECOPY PUSH1 0x40 MLOAD DUP1 PUSH1 0xA0 ADD PUSH1 0x40 MSTORE DUP1 PUSH1 0x6E DUP2 MSTORE PUSH1 0x20 ADD PUSH2 0x5B8B PUSH1 0x6E SWAP2 CODECOPY PUSH1 0x40 MLOAD DUP1 PUSH1 0xA0 ADD PUSH1 0x40 MSTORE DUP1 PUSH1 0x79 DUP2 MSTORE PUSH1 0x20 ADD PUSH2 0x5E22 PUSH1 0x79 SWAP2 CODECOPY PUSH1 0x40 MLOAD DUP1 PUSH1 0x40 ADD PUSH1 0x40 MSTORE DUP1 PUSH1 0x17 DUP2 MSTORE PUSH1 0x20 ADD PUSH32 0x43657274696669636174204E46542064652042696A6F75000000000000000000 DUP2 MSTORE POP PUSH1 0x40 MLOAD DUP1 PUSH1 0x40 ADD PUSH1 0x40 MSTORE DUP1 PUSH1 0x7 DUP2 MSTORE PUSH1 0x20 ADD PUSH32 0x3C2F746578743E00000000000000000000000000000000000000000000000000 DUP2 MSTORE POP PUSH1 0x40 MLOAD PUSH1 0x20 ADD PUSH2 0x27EF SWAP6 SWAP5 SWAP4 SWAP3 SWAP2 SWAP1 PUSH2 0x53C1 JUMP JUMPDEST PUSH1 0x40 MLOAD PUSH1 0x20 DUP2 DUP4 SUB SUB DUP2 MSTORE SWAP1 PUSH1 0x40 MSTORE SWAP1 POP DUP1 PUSH1 0x40 MLOAD DUP1 PUSH1 0x80 ADD PUSH1 0x40 MSTORE DUP1 PUSH1 0x5D DUP2 MSTORE PUSH1 0x20 ADD PUSH2 0x5D1C PUSH1 0x5D SWAP2 CODECOPY PUSH1 0x40 MLOAD DUP1 PUSH1 0x80 ADD PUSH1 0x40 MSTORE DUP1 PUSH1 0x5C DUP2 MSTORE PUSH1 0x20 ADD PUSH2 0x5D79 PUSH1 0x5C SWAP2 CODECOPY PUSH1 0x40 MLOAD DUP1 PUSH1 0xA0 ADD PUSH1 0x40 MSTORE DUP1 PUSH1 0x72 DUP2 MSTORE PUSH1 0x20 ADD PUSH2 0x5A64 PUSH1 0x72 SWAP2 CODECOPY PUSH1 0x40 MLOAD DUP1 PUSH1 0x80 ADD PUSH1 0x40 MSTORE DUP1 PUSH1 0x4D DUP2 MSTORE PUSH1 0x20 ADD PUSH2 0x5C64 PUSH1 0x4D SWAP2 CODECOPY PUSH1 0x40 MLOAD PUSH1 0x20 ADD PUSH2 0x2879 SWAP6 SWAP5 SWAP4 SWAP3 SWAP2 SWAP1 PUSH2 0x53C1 JUMP JUMPDEST PUSH1 0x40 MLOAD PUSH1 0x20 DUP2 DUP4 SUB SUB DUP2 MSTORE SWAP1 PUSH1 0x40 MSTORE SWAP1 POP DUP1 PUSH1 0x40 MLOAD DUP1 PUSH1 0x80 ADD PUSH1 0x40 MSTORE DUP1 PUSH1 0x4D DUP2 MSTORE PUSH1 0x20 ADD PUSH2 0x59EB PUSH1 0x4D SWAP2 CODECOPY PUSH1 0x40 MLOAD DUP1 PUSH1 0x80 ADD PUSH1 0x40 MSTORE DUP1 PUSH1 0x4D DUP2 MSTORE PUSH1 0x20 ADD PUSH2 0x5DD5 PUSH1 0x4D SWAP2 CODECOPY PUSH1 0x40 MLOAD DUP1 PUSH1 0xA0 ADD PUSH1 0x40 MSTORE DUP1 PUSH1 0x7C DUP2 MSTORE PUSH1 0x20 ADD PUSH2 0x5B0F PUSH1 0x7C SWAP2 CODECOPY PUSH1 0x40 MLOAD DUP1 PUSH1 0x40 ADD PUSH1 0x40 MSTORE DUP1 PUSH1 0x9 DUP2 MSTORE PUSH1 0x20 ADD PUSH32 0x476F6C64436861696E0000000000000000000000000000000000000000000000 DUP2 MSTORE POP PUSH1 0x40 MLOAD PUSH1 0x20 ADD PUSH2 0x2920 SWAP6 SWAP5 SWAP4 SWAP3 SWAP2 SWAP1 PUSH2 0x53C1 JUMP JUMPDEST PUSH1 0x40 MLOAD PUSH1 0x20 DUP2 DUP4 SUB SUB DUP2 MSTORE SWAP1 PUSH1 0x40 MSTORE SWAP1 POP DUP1 PUSH1 0x40 MLOAD DUP1 PUSH1 0x40 ADD PUSH1 0x40 MSTORE DUP1 PUSH1 0x7 DUP2 MSTORE PUSH1 0x20 ADD PUSH32 0x3C2F746578743E00000000000000000000000000000000000000000000000000 DUP2 MSTORE POP PUSH1 0x40 MLOAD DUP1 PUSH1 0xA0 ADD PUSH1 0x40 MSTORE DUP1 PUSH1 0x6B DUP2 MSTORE PUSH1 0x20 ADD PUSH2 0x5BF9 PUSH1 0x6B SWAP2 CODECOPY PUSH1 0x40 MLOAD DUP1 PUSH1 0xA0 ADD PUSH1 0x40 MSTORE DUP1 PUSH1 0x66 DUP2 MSTORE PUSH1 0x20 ADD PUSH2 0x5E9B PUSH1 0x66 SWAP2 CODECOPY PUSH1 0x40 MLOAD PUSH1 0x20 ADD PUSH2 0x29AD SWAP5 SWAP4 SWAP3 SWAP2 SWAP1 PUSH2 0x5879 JUMP JUMPDEST PUSH1 0x40 MLOAD PUSH1 0x20 DUP2 DUP4 SUB SUB DUP2 MSTORE SWAP1 PUSH1 0x40 MSTORE SWAP1 POP DUP1 PUSH1 0x40 MLOAD DUP1 PUSH1 0x40 ADD PUSH1 0x40 MSTORE DUP1 PUSH1 0x7 DUP2 MSTORE PUSH1 0x20 ADD PUSH32 0x3C2F746578743E00000000000000000000000000000000000000000000000000 DUP2 MSTORE POP PUSH2 0x29FE DUP6 PUSH2 0x2445 JUMP JUMPDEST PUSH1 0x40 MLOAD DUP1 PUSH1 0x40 ADD PUSH1 0x40 MSTORE DUP1 PUSH1 0x6 DUP2 MSTORE PUSH1 0x20 ADD PUSH32 0x3C2F7376673E0000000000000000000000000000000000000000000000000000 DUP2 MSTORE POP PUSH1 0x40 MLOAD PUSH1 0x20 ADD PUSH2 0x2A47 SWAP5 SWAP4 SWAP3 SWAP2 SWAP1 PUSH2 0x5879 JUMP JUMPDEST PUSH1 0x40 MLOAD PUSH1 0x20 DUP2 DUP4 SUB SUB DUP2 MSTORE SWAP1 PUSH1 0x40 MSTORE SWAP2 POP POP SWAP2 SWAP1 POP JUMP JUMPDEST PUSH1 0x0 PUSH32 0x780E9D6300000000000000000000000000000000000000000000000000000000 PUSH28 0xFFFFFFFFFFFFFFFFFFFFFFFFFFFFFFFFFFFFFFFFFFFFFFFFFFFFFFFF NOT AND DUP3 PUSH28 0xFFFFFFFFFFFFFFFFFFFFFFFFFFFFFFFFFFFFFFFFFFFFFFFFFFFFFFFF NOT AND EQ DUP1 PUSH2 0x2AD1 JUMPI POP PUSH2 0x2AD0 DUP3 PUSH2 0x2FBF JUMP JUMPDEST JUMPDEST SWAP1 POP SWAP2 SWAP1 POP JUMP JUMPDEST PUSH1 0x0 PUSH1 0x3 PUSH1 0x0 DUP4 DUP2 MSTORE PUSH1 0x20 ADD SWAP1 DUP2 MSTORE PUSH1 0x20 ADD PUSH1 0x0 KECCAK256 PUSH1 0x0 SWAP1 SLOAD SWAP1 PUSH2 0x100 EXP SWAP1 DIV PUSH20 0xFFFFFFFFFFFFFFFFFFFFFFFFFFFFFFFFFFFFFFFF AND SWAP1 POP SWAP2 SWAP1 POP JUMP JUMPDEST PUSH2 0x2B1F DUP3 DUP3 PUSH2 0x169F JUMP JUMPDEST PUSH2 0x2B62 JUMPI DUP1 DUP3 PUSH1 0x40 MLOAD PUSH32 0xE2517D3F00000000000000000000000000000000000000000000000000000000 DUP2 MSTORE PUSH1 0x4 ADD PUSH2 0x2B59 SWAP3 SWAP2 SWAP1 PUSH2 0x58B7 JUMP JUMPDEST PUSH1 0x40 MLOAD DUP1 SWAP2 SUB SWAP1 REVERT JUMPDEST POP POP JUMP JUMPDEST DUP1 DUP1 PUSH2 0x2B9F JUMPI POP PUSH1 0x0 PUSH20 0xFFFFFFFFFFFFFFFFFFFFFFFFFFFFFFFFFFFFFFFF AND DUP3 PUSH20 0xFFFFFFFFFFFFFFFFFFFFFFFFFFFFFFFFFFFFFFFF AND EQ ISZERO JUMPDEST ISZERO PUSH2 0x2CD3 JUMPI PUSH1 0x0 PUSH2 0x2BAF DUP5 PUSH2 0x1C84 JUMP JUMPDEST SWAP1 POP PUSH1 0x0 PUSH20 0xFFFFFFFFFFFFFFFFFFFFFFFFFFFFFFFFFFFFFFFF AND DUP4 PUSH20 0xFFFFFFFFFFFFFFFFFFFFFFFFFFFFFFFFFFFFFFFF AND EQ ISZERO DUP1 ISZERO PUSH2 0x2C1A JUMPI POP DUP3 PUSH20 0xFFFFFFFFFFFFFFFFFFFFFFFFFFFFFFFFFFFFFFFF AND DUP2 PUSH20 0xFFFFFFFFFFFFFFFFFFFFFFFFFFFFFFFFFFFFFFFF AND EQ ISZERO JUMPDEST DUP1 ISZERO PUSH2 0x2C2D JUMPI POP PUSH2 0x2C2B DUP2 DUP5 PUSH2 0x19E6 JUMP JUMPDEST ISZERO JUMPDEST ISZERO PUSH2 0x2C6F JUMPI DUP3 PUSH1 0x40 MLOAD PUSH32 0xA9FBF51F00000000000000000000000000000000000000000000000000000000 DUP2 MSTORE PUSH1 0x4 ADD PUSH2 0x2C66 SWAP2 SWAP1 PUSH2 0x3BCD JUMP JUMPDEST PUSH1 0x40 MLOAD DUP1 SWAP2 SUB SWAP1 REVERT JUMPDEST DUP2 ISZERO PUSH2 0x2CD1 JUMPI DUP4 DUP6 PUSH20 0xFFFFFFFFFFFFFFFFFFFFFFFFFFFFFFFFFFFFFFFF AND DUP3 PUSH20 0xFFFFFFFFFFFFFFFFFFFFFFFFFFFFFFFFFFFFFFFF AND PUSH32 0x8C5BE1E5EBEC7D5BD14F71427D1E84F3DD0314C0F7B2291E5B200AC8C7C3B925 PUSH1 0x40 MLOAD PUSH1 0x40 MLOAD DUP1 SWAP2 SUB SWAP1 LOG4 JUMPDEST POP JUMPDEST DUP4 PUSH1 0x5 PUSH1 0x0 DUP6 DUP2 MSTORE PUSH1 0x20 ADD SWAP1 DUP2 MSTORE PUSH1 0x20 ADD PUSH1 0x0 KECCAK256 PUSH1 0x0 PUSH2 0x100 EXP DUP2 SLOAD DUP2 PUSH20 0xFFFFFFFFFFFFFFFFFFFFFFFFFFFFFFFFFFFFFFFF MUL NOT AND SWAP1 DUP4 PUSH20 0xFFFFFFFFFFFFFFFFFFFFFFFFFFFFFFFFFFFFFFFF AND MUL OR SWAP1 SSTORE POP POP POP POP POP JUMP JUMPDEST PUSH1 0x0 DUP1 PUSH2 0x2D39 DUP6 DUP6 DUP6 PUSH2 0x30A1 JUMP JUMPDEST SWAP1 POP PUSH1 0x0 PUSH20 0xFFFFFFFFFFFFFFFFFFFFFFFFFFFFFFFFFFFFFFFF AND DUP2 PUSH20 0xFFFFFFFFFFFFFFFFFFFFFFFFFFFFFFFFFFFFFFFF AND SUB PUSH2 0x2D7D JUMPI PUSH2 0x2D78 DUP5 PUSH2 0x32BB JUMP JUMPDEST PUSH2 0x2DBC JUMP JUMPDEST DUP5 PUSH20 0xFFFFFFFFFFFFFFFFFFFFFFFFFFFFFFFFFFFFFFFF AND DUP2 PUSH20 0xFFFFFFFFFFFFFFFFFFFFFFFFFFFFFFFFFFFFFFFF AND EQ PUSH2 0x2DBB JUMPI PUSH2 0x2DBA DUP2 DUP6 PUSH2 0x3304 JUMP JUMPDEST JUMPDEST JUMPDEST PUSH1 0x0 PUSH20 0xFFFFFFFFFFFFFFFFFFFFFFFFFFFFFFFFFFFFFFFF AND DUP6 PUSH20 0xFFFFFFFFFFFFFFFFFFFFFFFFFFFFFFFFFFFFFFFF AND SUB PUSH2 0x2DFE JUMPI PUSH2 0x2DF9 DUP5 PUSH2 0x33EF JUMP JUMPDEST PUSH2 0x2E3D JUMP JUMPDEST DUP5 PUSH20 0xFFFFFFFFFFFFFFFFFFFFFFFFFFFFFFFFFFFFFFFF AND DUP2 PUSH20 0xFFFFFFFFFFFFFFFFFFFFFFFFFFFFFFFFFFFFFFFF AND EQ PUSH2 0x2E3C JUMPI PUSH2 0x2E3B DUP6 DUP6 PUSH2 0x34C0 JUMP JUMPDEST JUMPDEST JUMPDEST DUP1 SWAP2 POP POP SWAP4 SWAP3 POP POP POP JUMP JUMPDEST PUSH2 0x2E52 DUP4 DUP4 PUSH2 0x354B JUMP JUMPDEST PUSH2 0x2E67 PUSH2 0x2E5D PUSH2 0x1D5D JUMP JUMPDEST PUSH1 0x0 DUP6 DUP6 DUP6 PUSH2 0x2294 JUMP JUMPDEST POP POP POP JUMP JUMPDEST PUSH1 0x0 DUP1 PUSH1 0x0 SWAP1 POP PUSH27 0x184F03E93FF9F4DAA797ED6E38ED64BF6A1F010000000000000000 DUP4 LT PUSH2 0x2ECA JUMPI PUSH27 0x184F03E93FF9F4DAA797ED6E38ED64BF6A1F010000000000000000 DUP4 DUP2 PUSH2 0x2EC0 JUMPI PUSH2 0x2EBF PUSH2 0x55D1 JUMP JUMPDEST JUMPDEST DIV SWAP3 POP PUSH1 0x40 DUP2 ADD SWAP1 POP JUMPDEST PUSH14 0x4EE2D6D415B85ACEF8100000000 DUP4 LT PUSH2 0x2F07 JUMPI PUSH14 0x4EE2D6D415B85ACEF8100000000 DUP4 DUP2 PUSH2 0x2EFD JUMPI PUSH2 0x2EFC PUSH2 0x55D1 JUMP JUMPDEST JUMPDEST DIV SWAP3 POP PUSH1 0x20 DUP2 ADD SWAP1 POP JUMPDEST PUSH7 0x2386F26FC10000 DUP4 LT PUSH2 0x2F36 JUMPI PUSH7 0x2386F26FC10000 DUP4 DUP2 PUSH2 0x2F2C JUMPI PUSH2 0x2F2B PUSH2 0x55D1 JUMP JUMPDEST JUMPDEST DIV SWAP3 POP PUSH1 0x10 DUP2 ADD SWAP1 POP JUMPDEST PUSH4 0x5F5E100 DUP4 LT PUSH2 0x2F5F JUMPI PUSH4 0x5F5E100 DUP4 DUP2 PUSH2 0x2F55 JUMPI PUSH2 0x2F54 PUSH2 0x55D1 JUMP JUMPDEST JUMPDEST DIV SWAP3 POP PUSH1 0x8 DUP2 ADD SWAP1 POP JUMPDEST PUSH2 0x2710 DUP4 LT PUSH2 0x2F84 JUMPI PUSH2 0x2710 DUP4 DUP2 PUSH2 0x2F7A JUMPI PUSH2 0x2F79 PUSH2 0x55D1 JUMP JUMPDEST JUMPDEST DIV SWAP3 POP PUSH1 0x4 DUP2 ADD SWAP1 POP JUMPDEST PUSH1 0x64 DUP4 LT PUSH2 0x2FA7 JUMPI PUSH1 0x64 DUP4 DUP2 PUSH2 0x2F9D JUMPI PUSH2 0x2F9C PUSH2 0x55D1 JUMP JUMPDEST JUMPDEST DIV SWAP3 POP PUSH1 0x2 DUP2 ADD SWAP1 POP JUMPDEST PUSH1 0xA DUP4 LT PUSH2 0x2FB6 JUMPI PUSH1 0x1 DUP2 ADD SWAP1 POP JUMPDEST DUP1 SWAP2 POP POP SWAP2 SWAP1 POP JUMP JUMPDEST PUSH1 0x0 PUSH32 0x80AC58CD00000000000000000000000000000000000000000000000000000000 PUSH28 0xFFFFFFFFFFFFFFFFFFFFFFFFFFFFFFFFFFFFFFFFFFFFFFFFFFFFFFFF NOT AND DUP3 PUSH28 0xFFFFFFFFFFFFFFFFFFFFFFFFFFFFFFFFFFFFFFFFFFFFFFFFFFFFFFFF NOT AND EQ DUP1 PUSH2 0x308A JUMPI POP PUSH32 0x5B5E139F00000000000000000000000000000000000000000000000000000000 PUSH28 0xFFFFFFFFFFFFFFFFFFFFFFFFFFFFFFFFFFFFFFFFFFFFFFFFFFFFFFFF NOT AND DUP3 PUSH28 0xFFFFFFFFFFFFFFFFFFFFFFFFFFFFFFFFFFFFFFFFFFFFFFFFFFFFFFFF NOT AND EQ JUMPDEST DUP1 PUSH2 0x309A JUMPI POP PUSH2 0x3099 DUP3 PUSH2 0x3644 JUMP JUMPDEST JUMPDEST SWAP1 POP SWAP2 SWAP1 POP JUMP JUMPDEST PUSH1 0x0 DUP1 PUSH2 0x30AD DUP5 PUSH2 0x2AD8 JUMP JUMPDEST SWAP1 POP PUSH1 0x0 PUSH20 0xFFFFFFFFFFFFFFFFFFFFFFFFFFFFFFFFFFFFFFFF AND DUP4 PUSH20 0xFFFFFFFFFFFFFFFFFFFFFFFFFFFFFFFFFFFFFFFF AND EQ PUSH2 0x30EF JUMPI PUSH2 0x30EE DUP2 DUP5 DUP7 PUSH2 0x36BE JUMP JUMPDEST JUMPDEST PUSH1 0x0 PUSH20 0xFFFFFFFFFFFFFFFFFFFFFFFFFFFFFFFFFFFFFFFF AND DUP2 PUSH20 0xFFFFFFFFFFFFFFFFFFFFFFFFFFFFFFFFFFFFFFFF AND EQ PUSH2 0x3180 JUMPI PUSH2 0x3131 PUSH1 0x0 DUP6 PUSH1 0x0 DUP1 PUSH2 0x2B66 JUMP JUMPDEST PUSH1 0x1 PUSH1 0x4 PUSH1 0x0 DUP4 PUSH20 0xFFFFFFFFFFFFFFFFFFFFFFFFFFFFFFFFFFFFFFFF AND PUSH20 0xFFFFFFFFFFFFFFFFFFFFFFFFFFFFFFFFFFFFFFFF AND DUP2 MSTORE PUSH1 0x20 ADD SWAP1 DUP2 MSTORE PUSH1 0x20 ADD PUSH1 0x0 KECCAK256 PUSH1 0x0 DUP3 DUP3 SLOAD SUB SWAP3 POP POP DUP2 SWAP1 SSTORE POP JUMPDEST PUSH1 0x0 PUSH20 0xFFFFFFFFFFFFFFFFFFFFFFFFFFFFFFFFFFFFFFFF AND DUP6 PUSH20 0xFFFFFFFFFFFFFFFFFFFFFFFFFFFFFFFFFFFFFFFF AND EQ PUSH2 0x3203 JUMPI PUSH1 0x1 PUSH1 0x4 PUSH1 0x0 DUP8 PUSH20 0xFFFFFFFFFFFFFFFFFFFFFFFFFFFFFFFFFFFFFFFF AND PUSH20 0xFFFFFFFFFFFFFFFFFFFFFFFFFFFFFFFFFFFFFFFF AND DUP2 MSTORE PUSH1 0x20 ADD SWAP1 DUP2 MSTORE PUSH1 0x20 ADD PUSH1 0x0 KECCAK256 PUSH1 0x0 DUP3 DUP3 SLOAD ADD SWAP3 POP POP DUP2 SWAP1 SSTORE POP JUMPDEST DUP5 PUSH1 0x3 PUSH1 0x0 DUP7 DUP2 MSTORE PUSH1 0x20 ADD SWAP1 DUP2 MSTORE PUSH1 0x20 ADD PUSH1 0x0 KECCAK256 PUSH1 0x0 PUSH2 0x100 EXP DUP2 SLOAD DUP2 PUSH20 0xFFFFFFFFFFFFFFFFFFFFFFFFFFFFFFFFFFFFFFFF MUL NOT AND SWAP1 DUP4 PUSH20 0xFFFFFFFFFFFFFFFFFFFFFFFFFFFFFFFFFFFFFFFF AND MUL OR SWAP1 SSTORE POP DUP4 DUP6 PUSH20 0xFFFFFFFFFFFFFFFFFFFFFFFFFFFFFFFFFFFFFFFF AND DUP3 PUSH20 0xFFFFFFFFFFFFFFFFFFFFFFFFFFFFFFFFFFFFFFFF AND PUSH32 0xDDF252AD1BE2C89B69C2B068FC378DAA952BA7F163C4A11628F55A4DF523B3EF PUSH1 0x40 MLOAD PUSH1 0x40 MLOAD DUP1 SWAP2 SUB SWAP1 LOG4 DUP1 SWAP2 POP POP SWAP4 SWAP3 POP POP POP JUMP JUMPDEST PUSH1 0x9 DUP1 SLOAD SWAP1 POP PUSH1 0xA PUSH1 0x0 DUP4 DUP2 MSTORE PUSH1 0x20 ADD SWAP1 DUP2 MSTORE PUSH1 0x20 ADD PUSH1 0x0 KECCAK256 DUP2 SWAP1 SSTORE POP PUSH1 0x9 DUP2 SWAP1 DUP1 PUSH1 0x1 DUP2 SLOAD ADD DUP1 DUP3 SSTORE DUP1 SWAP2 POP POP PUSH1 0x1 SWAP1 SUB SWAP1 PUSH1 0x0 MSTORE PUSH1 0x20 PUSH1 0x0 KECCAK256 ADD PUSH1 0x0 SWAP1 SWAP2 SWAP1 SWAP2 SWAP1 SWAP2 POP SSTORE POP JUMP JUMPDEST PUSH1 0x0 PUSH2 0x330F DUP4 PUSH2 0x1532 JUMP JUMPDEST SWAP1 POP PUSH1 0x0 PUSH1 0x8 PUSH1 0x0 DUP5 DUP2 MSTORE PUSH1 0x20 ADD SWAP1 DUP2 MSTORE PUSH1 0x20 ADD PUSH1 0x0 KECCAK256 SLOAD SWAP1 POP PUSH1 0x0 PUSH1 0x7 PUSH1 0x0 DUP7 PUSH20 0xFFFFFFFFFFFFFFFFFFFFFFFFFFFFFFFFFFFFFFFF AND PUSH20 0xFFFFFFFFFFFFFFFFFFFFFFFFFFFFFFFFFFFFFFFF AND DUP2 MSTORE PUSH1 0x20 ADD SWAP1 DUP2 MSTORE PUSH1 0x20 ADD PUSH1 0x0 KECCAK256 SWAP1 POP DUP3 DUP3 EQ PUSH2 0x33BB JUMPI PUSH1 0x0 DUP2 PUSH1 0x0 DUP6 DUP2 MSTORE PUSH1 0x20 ADD SWAP1 DUP2 MSTORE PUSH1 0x20 ADD PUSH1 0x0 KECCAK256 SLOAD SWAP1 POP DUP1 DUP3 PUSH1 0x0 DUP6 DUP2 MSTORE PUSH1 0x20 ADD SWAP1 DUP2 MSTORE PUSH1 0x20 ADD PUSH1 0x0 KECCAK256 DUP2 SWAP1 SSTORE POP DUP3 PUSH1 0x8 PUSH1 0x0 DUP4 DUP2 MSTORE PUSH1 0x20 ADD SWAP1 DUP2 MSTORE PUSH1 0x20 ADD PUSH1 0x0 KECCAK256 DUP2 SWAP1 SSTORE POP POP JUMPDEST PUSH1 0x8 PUSH1 0x0 DUP6 DUP2 MSTORE PUSH1 0x20 ADD SWAP1 DUP2 MSTORE PUSH1 0x20 ADD PUSH1 0x0 KECCAK256 PUSH1 0x0 SWAP1 SSTORE DUP1 PUSH1 0x0 DUP5 DUP2 MSTORE PUSH1 0x20 ADD SWAP1 DUP2 MSTORE PUSH1 0x20 ADD PUSH1 0x0 KECCAK256 PUSH1 0x0 SWAP1 SSTORE POP POP POP POP POP JUMP JUMPDEST PUSH1 0x0 PUSH1 0x1 PUSH1 0x9 DUP1 SLOAD SWAP1 POP PUSH2 0x3403 SWAP2 SWAP1 PUSH2 0x58E0 JUMP JUMPDEST SWAP1 POP PUSH1 0x0 PUSH1 0xA PUSH1 0x0 DUP5 DUP2 MSTORE PUSH1 0x20 ADD SWAP1 DUP2 MSTORE PUSH1 0x20 ADD PUSH1 0x0 KECCAK256 SLOAD SWAP1 POP PUSH1 0x0 PUSH1 0x9 DUP4 DUP2 SLOAD DUP2 LT PUSH2 0x3433 JUMPI PUSH2 0x3432 PUSH2 0x4D4E JUMP JUMPDEST JUMPDEST SWAP1 PUSH1 0x0 MSTORE PUSH1 0x20 PUSH1 0x0 KECCAK256 ADD SLOAD SWAP1 POP DUP1 PUSH1 0x9 DUP4 DUP2 SLOAD DUP2 LT PUSH2 0x3455 JUMPI PUSH2 0x3454 PUSH2 0x4D4E JUMP JUMPDEST JUMPDEST SWAP1 PUSH1 0x0 MSTORE PUSH1 0x20 PUSH1 0x0 KECCAK256 ADD DUP2 SWAP1 SSTORE POP DUP2 PUSH1 0xA PUSH1 0x0 DUP4 DUP2 MSTORE PUSH1 0x20 ADD SWAP1 DUP2 MSTORE PUSH1 0x20 ADD PUSH1 0x0 KECCAK256 DUP2 SWAP1 SSTORE POP PUSH1 0xA PUSH1 0x0 DUP6 DUP2 MSTORE PUSH1 0x20 ADD SWAP1 DUP2 MSTORE PUSH1 0x20 ADD PUSH1 0x0 KECCAK256 PUSH1 0x0 SWAP1 SSTORE PUSH1 0x9 DUP1 SLOAD DUP1 PUSH2 0x34A4 JUMPI PUSH2 0x34A3 PUSH2 0x5914 JUMP JUMPDEST JUMPDEST PUSH1 0x1 SWAP1 SUB DUP2 DUP2 SWAP1 PUSH1 0x0 MSTORE PUSH1 0x20 PUSH1 0x0 KECCAK256 ADD PUSH1 0x0 SWAP1 SSTORE SWAP1 SSTORE POP POP POP POP JUMP JUMPDEST PUSH1 0x0 PUSH1 0x1 PUSH2 0x34CD DUP5 PUSH2 0x1532 JUMP JUMPDEST PUSH2 0x34D7 SWAP2 SWAP1 PUSH2 0x58E0 JUMP JUMPDEST SWAP1 POP DUP2 PUSH1 0x7 PUSH1 0x0 DUP6 PUSH20 0xFFFFFFFFFFFFFFFFFFFFFFFFFFFFFFFFFFFFFFFF AND PUSH20 0xFFFFFFFFFFFFFFFFFFFFFFFFFFFFFFFFFFFFFFFF AND DUP2 MSTORE PUSH1 0x20 ADD SWAP1 DUP2 MSTORE PUSH1 0x20 ADD PUSH1 0x0 KECCAK256 PUSH1 0x0 DUP4 DUP2 MSTORE PUSH1 0x20 ADD SWAP1 DUP2 MSTORE PUSH1 0x20 ADD PUSH1 0x0 KECCAK256 DUP2 SWAP1 SSTORE POP DUP1 PUSH1 0x8 PUSH1 0x0 DUP5 DUP2 MSTORE PUSH1 0x20 ADD SWAP1 DUP2 MSTORE PUSH1 0x20 ADD PUSH1 0x0 KECCAK256 DUP2 SWAP1 SSTORE POP POP POP POP JUMP JUMPDEST PUSH1 0x0 PUSH20 0xFFFFFFFFFFFFFFFFFFFFFFFFFFFFFFFFFFFFFFFF AND DUP3 PUSH20 0xFFFFFFFFFFFFFFFFFFFFFFFFFFFFFFFFFFFFFFFF AND SUB PUSH2 0x35BD JUMPI PUSH1 0x0 PUSH1 0x40 MLOAD PUSH32 0x64A0AE9200000000000000000000000000000000000000000000000000000000 DUP2 MSTORE PUSH1 0x4 ADD PUSH2 0x35B4 SWAP2 SWAP1 PUSH2 0x3BCD JUMP JUMPDEST PUSH1 0x40 MLOAD DUP1 SWAP2 SUB SWAP1 REVERT JUMPDEST PUSH1 0x0 PUSH2 0x35CB DUP4 DUP4 PUSH1 0x0 PUSH2 0x1D77 JUMP JUMPDEST SWAP1 POP PUSH1 0x0 PUSH20 0xFFFFFFFFFFFFFFFFFFFFFFFFFFFFFFFFFFFFFFFF AND DUP2 PUSH20 0xFFFFFFFFFFFFFFFFFFFFFFFFFFFFFFFFFFFFFFFF AND EQ PUSH2 0x363F JUMPI PUSH1 0x0 PUSH1 0x40 MLOAD PUSH32 0x73C6AC6E00000000000000000000000000000000000000000000000000000000 DUP2 MSTORE PUSH1 0x4 ADD PUSH2 0x3636 SWAP2 SWAP1 PUSH2 0x3BCD JUMP JUMPDEST PUSH1 0x40 MLOAD DUP1 SWAP2 SUB SWAP1 REVERT JUMPDEST POP POP POP JUMP JUMPDEST PUSH1 0x0 PUSH32 0x7965DB0B00000000000000000000000000000000000000000000000000000000 PUSH28 0xFFFFFFFFFFFFFFFFFFFFFFFFFFFFFFFFFFFFFFFFFFFFFFFFFFFFFFFF NOT AND DUP3 PUSH28 0xFFFFFFFFFFFFFFFFFFFFFFFFFFFFFFFFFFFFFFFFFFFFFFFFFFFFFFFF NOT AND EQ DUP1 PUSH2 0x36B7 JUMPI POP PUSH2 0x36B6 DUP3 PUSH2 0x3782 JUMP JUMPDEST JUMPDEST SWAP1 POP SWAP2 SWAP1 POP JUMP JUMPDEST PUSH2 0x36C9 DUP4 DUP4 DUP4 PUSH2 0x37EC JUMP JUMPDEST PUSH2 0x377D JUMPI PUSH1 0x0 PUSH20 0xFFFFFFFFFFFFFFFFFFFFFFFFFFFFFFFFFFFFFFFF AND DUP4 PUSH20 0xFFFFFFFFFFFFFFFFFFFFFFFFFFFFFFFFFFFFFFFF AND SUB PUSH2 0x373E JUMPI DUP1 PUSH1 0x40 MLOAD PUSH32 0x7E27328900000000000000000000000000000000000000000000000000000000 DUP2 MSTORE PUSH1 0x4 ADD PUSH2 0x3735 SWAP2 SWAP1 PUSH2 0x3C90 JUMP JUMPDEST PUSH1 0x40 MLOAD DUP1 SWAP2 SUB SWAP1 REVERT JUMPDEST DUP2 DUP2 PUSH1 0x40 MLOAD PUSH32 0x177E802F00000000000000000000000000000000000000000000000000000000 DUP2 MSTORE PUSH1 0x4 ADD PUSH2 0x3774 SWAP3 SWAP2 SWAP1 PUSH2 0x4A3E JUMP JUMPDEST PUSH1 0x40 MLOAD DUP1 SWAP2 SUB SWAP1 REVERT JUMPDEST POP POP POP JUMP JUMPDEST PUSH1 0x0 PUSH32 0x1FFC9A700000000000000000000000000000000000000000000000000000000 PUSH28 0xFFFFFFFFFFFFFFFFFFFFFFFFFFFFFFFFFFFFFFFFFFFFFFFFFFFFFFFF NOT AND DUP3 PUSH28 0xFFFFFFFFFFFFFFFFFFFFFFFFFFFFFFFFFFFFFFFFFFFFFFFFFFFFFFFF NOT AND EQ SWAP1 POP SWAP2 SWAP1 POP JUMP JUMPDEST PUSH1 0x0 DUP1 PUSH20 0xFFFFFFFFFFFFFFFFFFFFFFFFFFFFFFFFFFFFFFFF AND DUP4 PUSH20 0xFFFFFFFFFFFFFFFFFFFFFFFFFFFFFFFFFFFFFFFF AND EQ ISZERO DUP1 ISZERO PUSH2 0x38A4 JUMPI POP DUP3 PUSH20 0xFFFFFFFFFFFFFFFFFFFFFFFFFFFFFFFFFFFFFFFF AND DUP5 PUSH20 0xFFFFFFFFFFFFFFFFFFFFFFFFFFFFFFFFFFFFFFFF AND EQ DUP1 PUSH2 0x3865 JUMPI POP PUSH2 0x3864 DUP5 DUP5 PUSH2 0x19E6 JUMP JUMPDEST JUMPDEST DUP1 PUSH2 0x38A3 JUMPI POP DUP3 PUSH20 0xFFFFFFFFFFFFFFFFFFFFFFFFFFFFFFFFFFFFFFFF AND PUSH2 0x388B DUP4 PUSH2 0x1D0C JUMP JUMPDEST PUSH20 0xFFFFFFFFFFFFFFFFFFFFFFFFFFFFFFFFFFFFFFFF AND EQ JUMPDEST JUMPDEST SWAP1 POP SWAP4 SWAP3 POP POP POP JUMP JUMPDEST PUSH1 0x40 MLOAD DUP1 PUSH2 0x100 ADD PUSH1 0x40 MSTORE DUP1 PUSH1 0x0 DUP2 MSTORE PUSH1 0x20 ADD PUSH1 0x0 DUP2 MSTORE PUSH1 0x20 ADD PUSH1 0x60 DUP2 MSTORE PUSH1 0x20 ADD PUSH1 0x60 DUP2 MSTORE PUSH1 0x20 ADD PUSH1 0x60 DUP2 MSTORE PUSH1 0x20 ADD PUSH1 0x60 DUP2 MSTORE PUSH1 0x20 ADD PUSH1 0x0 ISZERO ISZERO DUP2 MSTORE PUSH1 0x20 ADD PUSH1 0x0 ISZERO ISZERO DUP2 MSTORE POP SWAP1 JUMP JUMPDEST PUSH1 0x40 MLOAD DUP1 PUSH2 0x120 ADD PUSH1 0x40 MSTORE DUP1 PUSH1 0x0 DUP2 MSTORE PUSH1 0x20 ADD PUSH1 0x0 DUP2 MSTORE PUSH1 0x20 ADD PUSH1 0x60 DUP2 MSTORE PUSH1 0x20 ADD PUSH1 0x60 DUP2 MSTORE PUSH1 0x20 ADD PUSH1 0x0 PUSH1 0xFF AND DUP2 MSTORE PUSH1 0x20 ADD PUSH1 0x60 DUP2 MSTORE PUSH1 0x20 ADD PUSH1 0x0 PUSH1 0x3 DUP2 GT ISZERO PUSH2 0x3943 JUMPI PUSH2 0x3942 PUSH2 0x46CE JUMP JUMPDEST JUMPDEST DUP2 MSTORE PUSH1 0x20 ADD PUSH1 0x60 DUP2 MSTORE PUSH1 0x20 ADD PUSH1 0x0 PUSH1 0x4 DUP2 GT ISZERO PUSH2 0x3963 JUMPI PUSH2 0x3962 PUSH2 0x46CE JUMP JUMPDEST JUMPDEST DUP2 MSTORE POP SWAP1 JUMP JUMPDEST PUSH1 0x40 MLOAD DUP1 PUSH1 0xE0 ADD PUSH1 0x40 MSTORE DUP1 PUSH1 0x0 DUP2 MSTORE PUSH1 0x20 ADD PUSH1 0x0 DUP2 MSTORE PUSH1 0x20 ADD PUSH1 0x60 DUP2 MSTORE PUSH1 0x20 ADD PUSH1 0x60 DUP2 MSTORE PUSH1 0x20 ADD PUSH1 0x60 DUP2 MSTORE PUSH1 0x20 ADD PUSH1 0x0 ISZERO ISZERO DUP2 MSTORE PUSH1 0x20 ADD PUSH1 0x60 DUP2 MSTORE POP SWAP1 JUMP JUMPDEST PUSH1 0x0 PUSH1 0x40 MLOAD SWAP1 POP SWAP1 JUMP JUMPDEST PUSH1 0x0 DUP1 REVERT JUMPDEST PUSH1 0x0 DUP1 REVERT JUMPDEST PUSH1 0x0 PUSH32 0xFFFFFFFF00000000000000000000000000000000000000000000000000000000 DUP3 AND SWAP1 POP SWAP2 SWAP1 POP JUMP JUMPDEST PUSH2 0x39F1 DUP2 PUSH2 0x39BC JUMP JUMPDEST DUP2 EQ PUSH2 0x39FC JUMPI PUSH1 0x0 DUP1 REVERT JUMPDEST POP JUMP JUMPDEST PUSH1 0x0 DUP2 CALLDATALOAD SWAP1 POP PUSH2 0x3A0E DUP2 PUSH2 0x39E8 JUMP JUMPDEST SWAP3 SWAP2 POP POP JUMP JUMPDEST PUSH1 0x0 PUSH1 0x20 DUP3 DUP5 SUB SLT ISZERO PUSH2 0x3A2A JUMPI PUSH2 0x3A29 PUSH2 0x39B2 JUMP JUMPDEST JUMPDEST PUSH1 0x0 PUSH2 0x3A38 DUP5 DUP3 DUP6 ADD PUSH2 0x39FF JUMP JUMPDEST SWAP2 POP POP SWAP3 SWAP2 POP POP JUMP JUMPDEST PUSH1 0x0 DUP2 ISZERO ISZERO SWAP1 POP SWAP2 SWAP1 POP JUMP JUMPDEST PUSH2 0x3A56 DUP2 PUSH2 0x3A41 JUMP JUMPDEST DUP3 MSTORE POP POP JUMP JUMPDEST PUSH1 0x0 PUSH1 0x20 DUP3 ADD SWAP1 POP PUSH2 0x3A71 PUSH1 0x0 DUP4 ADD DUP5 PUSH2 0x3A4D JUMP JUMPDEST SWAP3 SWAP2 POP POP JUMP JUMPDEST PUSH1 0x0 DUP2 MLOAD SWAP1 POP SWAP2 SWAP1 POP JUMP JUMPDEST PUSH1 0x0 DUP3 DUP3 MSTORE PUSH1 0x20 DUP3 ADD SWAP1 POP SWAP3 SWAP2 POP POP JUMP JUMPDEST PUSH1 0x0 JUMPDEST DUP4 DUP2 LT ISZERO PUSH2 0x3AB1 JUMPI DUP1 DUP3 ADD MLOAD DUP2 DUP5 ADD MSTORE PUSH1 0x20 DUP2 ADD SWAP1 POP PUSH2 0x3A96 JUMP JUMPDEST PUSH1 0x0 DUP5 DUP5 ADD MSTORE POP POP POP POP JUMP JUMPDEST PUSH1 0x0 PUSH1 0x1F NOT PUSH1 0x1F DUP4 ADD AND SWAP1 POP SWAP2 SWAP1 POP JUMP JUMPDEST PUSH1 0x0 PUSH2 0x3AD9 DUP3 PUSH2 0x3A77 JUMP JUMPDEST PUSH2 0x3AE3 DUP2 DUP6 PUSH2 0x3A82 JUMP JUMPDEST SWAP4 POP PUSH2 0x3AF3 DUP2 DUP6 PUSH1 0x20 DUP7 ADD PUSH2 0x3A93 JUMP JUMPDEST PUSH2 0x3AFC DUP2 PUSH2 0x3ABD JUMP JUMPDEST DUP5 ADD SWAP2 POP POP SWAP3 SWAP2 POP POP JUMP JUMPDEST PUSH1 0x0 PUSH1 0x20 DUP3 ADD SWAP1 POP DUP2 DUP2 SUB PUSH1 0x0 DUP4 ADD MSTORE PUSH2 0x3B21 DUP2 DUP5 PUSH2 0x3ACE JUMP JUMPDEST SWAP1 POP SWAP3 SWAP2 POP POP JUMP JUMPDEST PUSH1 0x0 DUP2 SWAP1 POP SWAP2 SWAP1 POP JUMP JUMPDEST PUSH2 0x3B3C DUP2 PUSH2 0x3B29 JUMP JUMPDEST DUP2 EQ PUSH2 0x3B47 JUMPI PUSH1 0x0 DUP1 REVERT JUMPDEST POP JUMP JUMPDEST PUSH1 0x0 DUP2 CALLDATALOAD SWAP1 POP PUSH2 0x3B59 DUP2 PUSH2 0x3B33 JUMP JUMPDEST SWAP3 SWAP2 POP POP JUMP JUMPDEST PUSH1 0x0 PUSH1 0x20 DUP3 DUP5 SUB SLT ISZERO PUSH2 0x3B75 JUMPI PUSH2 0x3B74 PUSH2 0x39B2 JUMP JUMPDEST JUMPDEST PUSH1 0x0 PUSH2 0x3B83 DUP5 DUP3 DUP6 ADD PUSH2 0x3B4A JUMP JUMPDEST SWAP2 POP POP SWAP3 SWAP2 POP POP JUMP JUMPDEST PUSH1 0x0 PUSH20 0xFFFFFFFFFFFFFFFFFFFFFFFFFFFFFFFFFFFFFFFF DUP3 AND SWAP1 POP SWAP2 SWAP1 POP JUMP JUMPDEST PUSH1 0x0 PUSH2 0x3BB7 DUP3 PUSH2 0x3B8C JUMP JUMPDEST SWAP1 POP SWAP2 SWAP1 POP JUMP JUMPDEST PUSH2 0x3BC7 DUP2 PUSH2 0x3BAC JUMP JUMPDEST DUP3 MSTORE POP POP JUMP JUMPDEST PUSH1 0x0 PUSH1 0x20 DUP3 ADD SWAP1 POP PUSH2 0x3BE2 PUSH1 0x0 DUP4 ADD DUP5 PUSH2 0x3BBE JUMP JUMPDEST SWAP3 SWAP2 POP POP JUMP JUMPDEST PUSH2 0x3BF1 DUP2 PUSH2 0x3BAC JUMP JUMPDEST DUP2 EQ PUSH2 0x3BFC JUMPI PUSH1 0x0 DUP1 REVERT JUMPDEST POP JUMP JUMPDEST PUSH1 0x0 DUP2 CALLDATALOAD SWAP1 POP PUSH2 0x3C0E DUP2 PUSH2 0x3BE8 JUMP JUMPDEST SWAP3 SWAP2 POP POP JUMP JUMPDEST PUSH1 0x0 PUSH1 0x20 DUP3 DUP5 SUB SLT ISZERO PUSH2 0x3C2A JUMPI PUSH2 0x3C29 PUSH2 0x39B2 JUMP JUMPDEST JUMPDEST PUSH1 0x0 PUSH2 0x3C38 DUP5 DUP3 DUP6 ADD PUSH2 0x3BFF JUMP JUMPDEST SWAP2 POP POP SWAP3 SWAP2 POP POP JUMP JUMPDEST PUSH1 0x0 DUP1 PUSH1 0x40 DUP4 DUP6 SUB SLT ISZERO PUSH2 0x3C58 JUMPI PUSH2 0x3C57 PUSH2 0x39B2 JUMP JUMPDEST JUMPDEST PUSH1 0x0 PUSH2 0x3C66 DUP6 DUP3 DUP7 ADD PUSH2 0x3BFF JUMP JUMPDEST SWAP3 POP POP PUSH1 0x20 PUSH2 0x3C77 DUP6 DUP3 DUP7 ADD PUSH2 0x3B4A JUMP JUMPDEST SWAP2 POP POP SWAP3 POP SWAP3 SWAP1 POP JUMP JUMPDEST PUSH2 0x3C8A DUP2 PUSH2 0x3B29 JUMP JUMPDEST DUP3 MSTORE POP POP JUMP JUMPDEST PUSH1 0x0 PUSH1 0x20 DUP3 ADD SWAP1 POP PUSH2 0x3CA5 PUSH1 0x0 DUP4 ADD DUP5 PUSH2 0x3C81 JUMP JUMPDEST SWAP3 SWAP2 POP POP JUMP JUMPDEST PUSH1 0x0 DUP1 PUSH1 0x0 PUSH1 0x60 DUP5 DUP7 SUB SLT ISZERO PUSH2 0x3CC4 JUMPI PUSH2 0x3CC3 PUSH2 0x39B2 JUMP JUMPDEST JUMPDEST PUSH1 0x0 PUSH2 0x3CD2 DUP7 DUP3 DUP8 ADD PUSH2 0x3BFF JUMP JUMPDEST SWAP4 POP POP PUSH1 0x20 PUSH2 0x3CE3 DUP7 DUP3 DUP8 ADD PUSH2 0x3BFF JUMP JUMPDEST SWAP3 POP POP PUSH1 0x40 PUSH2 0x3CF4 DUP7 DUP3 DUP8 ADD PUSH2 0x3B4A JUMP JUMPDEST SWAP2 POP POP SWAP3 POP SWAP3 POP SWAP3 JUMP JUMPDEST PUSH1 0x0 DUP2 SWAP1 POP SWAP2 SWAP1 POP JUMP JUMPDEST PUSH2 0x3D11 DUP2 PUSH2 0x3CFE JUMP JUMPDEST DUP2 EQ PUSH2 0x3D1C JUMPI PUSH1 0x0 DUP1 REVERT JUMPDEST POP JUMP JUMPDEST PUSH1 0x0 DUP2 CALLDATALOAD SWAP1 POP PUSH2 0x3D2E DUP2 PUSH2 0x3D08 JUMP JUMPDEST SWAP3 SWAP2 POP POP JUMP JUMPDEST PUSH1 0x0 PUSH1 0x20 DUP3 DUP5 SUB SLT ISZERO PUSH2 0x3D4A JUMPI PUSH2 0x3D49 PUSH2 0x39B2 JUMP JUMPDEST JUMPDEST PUSH1 0x0 PUSH2 0x3D58 DUP5 DUP3 DUP6 ADD PUSH2 0x3D1F JUMP JUMPDEST SWAP2 POP POP SWAP3 SWAP2 POP POP JUMP JUMPDEST PUSH2 0x3D6A DUP2 PUSH2 0x3CFE JUMP JUMPDEST DUP3 MSTORE POP POP JUMP JUMPDEST PUSH1 0x0 PUSH1 0x20 DUP3 ADD SWAP1 POP PUSH2 0x3D85 PUSH1 0x0 DUP4 ADD DUP5 PUSH2 0x3D61 JUMP JUMPDEST SWAP3 SWAP2 POP POP JUMP JUMPDEST PUSH1 0x0 DUP1 REVERT JUMPDEST PUSH1 0x0 DUP1 REVERT JUMPDEST PUSH1 0x0 DUP1 REVERT JUMPDEST PUSH1 0x0 DUP1 DUP4 PUSH1 0x1F DUP5 ADD SLT PUSH2 0x3DB0 JUMPI PUSH2 0x3DAF PUSH2 0x3D8B JUMP JUMPDEST JUMPDEST DUP3 CALLDATALOAD SWAP1 POP PUSH8 0xFFFFFFFFFFFFFFFF DUP2 GT ISZERO PUSH2 0x3DCD JUMPI PUSH2 0x3DCC PUSH2 0x3D90 JUMP JUMPDEST JUMPDEST PUSH1 0x20 DUP4 ADD SWAP2 POP DUP4 PUSH1 0x1 DUP3 MUL DUP4 ADD GT ISZERO PUSH2 0x3DE9 JUMPI PUSH2 0x3DE8 PUSH2 0x3D95 JUMP JUMPDEST JUMPDEST SWAP3 POP SWAP3 SWAP1 POP JUMP JUMPDEST PUSH2 0x3DF9 DUP2 PUSH2 0x3A41 JUMP JUMPDEST DUP2 EQ PUSH2 0x3E04 JUMPI PUSH1 0x0 DUP1 REVERT JUMPDEST POP JUMP JUMPDEST PUSH1 0x0 DUP2 CALLDATALOAD SWAP1 POP PUSH2 0x3E16 DUP2 PUSH2 0x3DF0 JUMP JUMPDEST SWAP3 SWAP2 POP POP JUMP JUMPDEST PUSH1 0x0 DUP1 PUSH1 0x0 DUP1 PUSH1 0x0 DUP1 PUSH1 0x0 PUSH1 0x80 DUP9 DUP11 SUB SLT ISZERO PUSH2 0x3E3B JUMPI PUSH2 0x3E3A PUSH2 0x39B2 JUMP JUMPDEST JUMPDEST PUSH1 0x0 DUP9 ADD CALLDATALOAD PUSH8 0xFFFFFFFFFFFFFFFF DUP2 GT ISZERO PUSH2 0x3E59 JUMPI PUSH2 0x3E58 PUSH2 0x39B7 JUMP JUMPDEST JUMPDEST PUSH2 0x3E65 DUP11 DUP3 DUP12 ADD PUSH2 0x3D9A JUMP JUMPDEST SWAP8 POP SWAP8 POP POP PUSH1 0x20 DUP9 ADD CALLDATALOAD PUSH8 0xFFFFFFFFFFFFFFFF DUP2 GT ISZERO PUSH2 0x3E88 JUMPI PUSH2 0x3E87 PUSH2 0x39B7 JUMP JUMPDEST JUMPDEST PUSH2 0x3E94 DUP11 DUP3 DUP12 ADD PUSH2 0x3D9A JUMP JUMPDEST SWAP6 POP SWAP6 POP POP PUSH1 0x40 DUP9 ADD CALLDATALOAD PUSH8 0xFFFFFFFFFFFFFFFF DUP2 GT ISZERO PUSH2 0x3EB7 JUMPI PUSH2 0x3EB6 PUSH2 0x39B7 JUMP JUMPDEST JUMPDEST PUSH2 0x3EC3 DUP11 DUP3 DUP12 ADD PUSH2 0x3D9A JUMP JUMPDEST SWAP4 POP SWAP4 POP POP PUSH1 0x60 PUSH2 0x3ED6 DUP11 DUP3 DUP12 ADD PUSH2 0x3E07 JUMP JUMPDEST SWAP2 POP POP SWAP3 SWAP6 SWAP9 SWAP2 SWAP5 SWAP8 POP SWAP3 SWAP6 POP JUMP JUMPDEST PUSH1 0x0 DUP1 PUSH1 0x40 DUP4 DUP6 SUB SLT ISZERO PUSH2 0x3EFC JUMPI PUSH2 0x3EFB PUSH2 0x39B2 JUMP JUMPDEST JUMPDEST PUSH1 0x0 PUSH2 0x3F0A DUP6 DUP3 DUP7 ADD PUSH2 0x3D1F JUMP JUMPDEST SWAP3 POP POP PUSH1 0x20 PUSH2 0x3F1B DUP6 DUP3 DUP7 ADD PUSH2 0x3BFF JUMP JUMPDEST SWAP2 POP POP SWAP3 POP SWAP3 SWAP1 POP JUMP JUMPDEST PUSH1 0x0 DUP1 DUP4 PUSH1 0x1F DUP5 ADD SLT PUSH2 0x3F3B JUMPI PUSH2 0x3F3A PUSH2 0x3D8B JUMP JUMPDEST JUMPDEST DUP3 CALLDATALOAD SWAP1 POP PUSH8 0xFFFFFFFFFFFFFFFF DUP2 GT ISZERO PUSH2 0x3F58 JUMPI PUSH2 0x3F57 PUSH2 0x3D90 JUMP JUMPDEST JUMPDEST PUSH1 0x20 DUP4 ADD SWAP2 POP DUP4 PUSH1 0x20 DUP3 MUL DUP4 ADD GT ISZERO PUSH2 0x3F74 JUMPI PUSH2 0x3F73 PUSH2 0x3D95 JUMP JUMPDEST JUMPDEST SWAP3 POP SWAP3 SWAP1 POP JUMP JUMPDEST PUSH1 0x0 PUSH1 0xFF DUP3 AND SWAP1 POP SWAP2 SWAP1 POP JUMP JUMPDEST PUSH2 0x3F91 DUP2 PUSH2 0x3F7B JUMP JUMPDEST DUP2 EQ PUSH2 0x3F9C JUMPI PUSH1 0x0 DUP1 REVERT JUMPDEST POP JUMP JUMPDEST PUSH1 0x0 DUP2 CALLDATALOAD SWAP1 POP PUSH2 0x3FAE DUP2 PUSH2 0x3F88 JUMP JUMPDEST SWAP3 SWAP2 POP POP JUMP JUMPDEST PUSH1 0x4 DUP2 LT PUSH2 0x3FC1 JUMPI PUSH1 0x0 DUP1 REVERT JUMPDEST POP JUMP JUMPDEST PUSH1 0x0 DUP2 CALLDATALOAD SWAP1 POP PUSH2 0x3FD3 DUP2 PUSH2 0x3FB4 JUMP JUMPDEST SWAP3 SWAP2 POP POP JUMP JUMPDEST PUSH1 0x5 DUP2 LT PUSH2 0x3FE6 JUMPI PUSH1 0x0 DUP1 REVERT JUMPDEST POP JUMP JUMPDEST PUSH1 0x0 DUP2 CALLDATALOAD SWAP1 POP PUSH2 0x3FF8 DUP2 PUSH2 0x3FD9 JUMP JUMPDEST SWAP3 SWAP2 POP POP JUMP JUMPDEST PUSH1 0x0 DUP1 PUSH1 0x0 DUP1 PUSH1 0x0 DUP1 PUSH1 0x0 DUP1 PUSH1 0x0 DUP1 PUSH1 0x0 PUSH1 0xE0 DUP13 DUP15 SUB SLT ISZERO PUSH2 0x4023 JUMPI PUSH2 0x4022 PUSH2 0x39B2 JUMP JUMPDEST JUMPDEST PUSH1 0x0 DUP13 ADD CALLDATALOAD PUSH8 0xFFFFFFFFFFFFFFFF DUP2 GT ISZERO PUSH2 0x4041 JUMPI PUSH2 0x4040 PUSH2 0x39B7 JUMP JUMPDEST JUMPDEST PUSH2 0x404D DUP15 DUP3 DUP16 ADD PUSH2 0x3F25 JUMP JUMPDEST SWAP12 POP SWAP12 POP POP PUSH1 0x20 DUP13 ADD CALLDATALOAD PUSH8 0xFFFFFFFFFFFFFFFF DUP2 GT ISZERO PUSH2 0x4070 JUMPI PUSH2 0x406F PUSH2 0x39B7 JUMP JUMPDEST JUMPDEST PUSH2 0x407C DUP15 DUP3 DUP16 ADD PUSH2 0x3F25 JUMP JUMPDEST SWAP10 POP SWAP10 POP POP PUSH1 0x40 PUSH2 0x408F DUP15 DUP3 DUP16 ADD PUSH2 0x3F9F JUMP JUMPDEST SWAP8 POP POP PUSH1 0x60 DUP13 ADD CALLDATALOAD PUSH8 0xFFFFFFFFFFFFFFFF DUP2 GT ISZERO PUSH2 0x40B0 JUMPI PUSH2 0x40AF PUSH2 0x39B7 JUMP JUMPDEST JUMPDEST PUSH2 0x40BC DUP15 DUP3 DUP16 ADD PUSH2 0x3D9A JUMP JUMPDEST SWAP7 POP SWAP7 POP POP PUSH1 0x80 PUSH2 0x40CF DUP15 DUP3 DUP16 ADD PUSH2 0x3FC4 JUMP JUMPDEST SWAP5 POP POP PUSH1 0xA0 DUP13 ADD CALLDATALOAD PUSH8 0xFFFFFFFFFFFFFFFF DUP2 GT ISZERO PUSH2 0x40F0 JUMPI PUSH2 0x40EF PUSH2 0x39B7 JUMP JUMPDEST JUMPDEST PUSH2 0x40FC DUP15 DUP3 DUP16 ADD PUSH2 0x3D9A JUMP JUMPDEST SWAP4 POP SWAP4 POP POP PUSH1 0xC0 PUSH2 0x410F DUP15 DUP3 DUP16 ADD PUSH2 0x3FE9 JUMP JUMPDEST SWAP2 POP POP SWAP3 SWAP6 SWAP9 SWAP12 POP SWAP3 SWAP6 SWAP9 SWAP12 SWAP1 SWAP4 SWAP7 SWAP10 POP JUMP JUMPDEST PUSH1 0x0 DUP1 PUSH1 0x0 DUP1 PUSH1 0x0 DUP1 PUSH1 0x60 DUP8 DUP10 SUB SLT ISZERO PUSH2 0x413F JUMPI PUSH2 0x413E PUSH2 0x39B2 JUMP JUMPDEST JUMPDEST PUSH1 0x0 DUP8 ADD CALLDATALOAD PUSH8 0xFFFFFFFFFFFFFFFF DUP2 GT ISZERO PUSH2 0x415D JUMPI PUSH2 0x415C PUSH2 0x39B7 JUMP JUMPDEST JUMPDEST PUSH2 0x4169 DUP10 DUP3 DUP11 ADD PUSH2 0x3D9A JUMP JUMPDEST SWAP7 POP SWAP7 POP POP PUSH1 0x20 DUP8 ADD CALLDATALOAD PUSH8 0xFFFFFFFFFFFFFFFF DUP2 GT ISZERO PUSH2 0x418C JUMPI PUSH2 0x418B PUSH2 0x39B7 JUMP JUMPDEST JUMPDEST PUSH2 0x4198 DUP10 DUP3 DUP11 ADD PUSH2 0x3D9A JUMP JUMPDEST SWAP5 POP SWAP5 POP POP PUSH1 0x40 DUP8 ADD CALLDATALOAD PUSH8 0xFFFFFFFFFFFFFFFF DUP2 GT ISZERO PUSH2 0x41BB JUMPI PUSH2 0x41BA PUSH2 0x39B7 JUMP JUMPDEST JUMPDEST PUSH2 0x41C7 DUP10 DUP3 DUP11 ADD PUSH2 0x3D9A JUMP JUMPDEST SWAP3 POP SWAP3 POP POP SWAP3 SWAP6 POP SWAP3 SWAP6 POP SWAP3 SWAP6 JUMP JUMPDEST PUSH2 0x41DF DUP2 PUSH2 0x3B29 JUMP JUMPDEST DUP3 MSTORE POP POP JUMP JUMPDEST PUSH1 0x0 DUP3 DUP3 MSTORE PUSH1 0x20 DUP3 ADD SWAP1 POP SWAP3 SWAP2 POP POP JUMP JUMPDEST PUSH1 0x0 PUSH2 0x4201 DUP3 PUSH2 0x3A77 JUMP JUMPDEST PUSH2 0x420B DUP2 DUP6 PUSH2 0x41E5 JUMP JUMPDEST SWAP4 POP PUSH2 0x421B DUP2 DUP6 PUSH1 0x20 DUP7 ADD PUSH2 0x3A93 JUMP JUMPDEST PUSH2 0x4224 DUP2 PUSH2 0x3ABD JUMP JUMPDEST DUP5 ADD SWAP2 POP POP SWAP3 SWAP2 POP POP JUMP JUMPDEST PUSH1 0x0 DUP2 MLOAD SWAP1 POP SWAP2 SWAP1 POP JUMP JUMPDEST PUSH1 0x0 DUP3 DUP3 MSTORE PUSH1 0x20 DUP3 ADD SWAP1 POP SWAP3 SWAP2 POP POP JUMP JUMPDEST PUSH1 0x0 DUP2 SWAP1 POP PUSH1 0x20 DUP3 ADD SWAP1 POP SWAP2 SWAP1 POP JUMP JUMPDEST PUSH1 0x0 PUSH2 0x4267 DUP4 DUP4 PUSH2 0x41D6 JUMP JUMPDEST PUSH1 0x20 DUP4 ADD SWAP1 POP SWAP3 SWAP2 POP POP JUMP JUMPDEST PUSH1 0x0 PUSH1 0x20 DUP3 ADD SWAP1 POP SWAP2 SWAP1 POP JUMP JUMPDEST PUSH1 0x0 PUSH2 0x428B DUP3 PUSH2 0x422F JUMP JUMPDEST PUSH2 0x4295 DUP2 DUP6 PUSH2 0x423A JUMP JUMPDEST SWAP4 POP PUSH2 0x42A0 DUP4 PUSH2 0x424B JUMP JUMPDEST DUP1 PUSH1 0x0 JUMPDEST DUP4 DUP2 LT ISZERO PUSH2 0x42D1 JUMPI DUP2 MLOAD PUSH2 0x42B8 DUP9 DUP3 PUSH2 0x425B JUMP JUMPDEST SWAP8 POP PUSH2 0x42C3 DUP4 PUSH2 0x4273 JUMP JUMPDEST SWAP3 POP POP PUSH1 0x1 DUP2 ADD SWAP1 POP PUSH2 0x42A4 JUMP JUMPDEST POP DUP6 SWAP4 POP POP POP POP SWAP3 SWAP2 POP POP JUMP JUMPDEST PUSH2 0x42E7 DUP2 PUSH2 0x3A41 JUMP JUMPDEST DUP3 MSTORE POP POP JUMP JUMPDEST PUSH1 0x0 PUSH2 0x100 DUP4 ADD PUSH1 0x0 DUP4 ADD MLOAD PUSH2 0x4306 PUSH1 0x0 DUP7 ADD DUP3 PUSH2 0x41D6 JUMP JUMPDEST POP PUSH1 0x20 DUP4 ADD MLOAD PUSH2 0x4319 PUSH1 0x20 DUP7 ADD DUP3 PUSH2 0x41D6 JUMP JUMPDEST POP PUSH1 0x40 DUP4 ADD MLOAD DUP5 DUP3 SUB PUSH1 0x40 DUP7 ADD MSTORE PUSH2 0x4331 DUP3 DUP3 PUSH2 0x41F6 JUMP JUMPDEST SWAP2 POP POP PUSH1 0x60 DUP4 ADD MLOAD DUP5 DUP3 SUB PUSH1 0x60 DUP7 ADD MSTORE PUSH2 0x434B DUP3 DUP3 PUSH2 0x41F6 JUMP JUMPDEST SWAP2 POP POP PUSH1 0x80 DUP4 ADD MLOAD DUP5 DUP3 SUB PUSH1 0x80 DUP7 ADD MSTORE PUSH2 0x4365 DUP3 DUP3 PUSH2 0x41F6 JUMP JUMPDEST SWAP2 POP POP PUSH1 0xA0 DUP4 ADD MLOAD DUP5 DUP3 SUB PUSH1 0xA0 DUP7 ADD MSTORE PUSH2 0x437F DUP3 DUP3 PUSH2 0x4280 JUMP JUMPDEST SWAP2 POP POP PUSH1 0xC0 DUP4 ADD MLOAD PUSH2 0x4394 PUSH1 0xC0 DUP7 ADD DUP3 PUSH2 0x42DE JUMP JUMPDEST POP PUSH1 0xE0 DUP4 ADD MLOAD PUSH2 0x43A7 PUSH1 0xE0 DUP7 ADD DUP3 PUSH2 0x42DE JUMP JUMPDEST POP DUP1 SWAP2 POP POP SWAP3 SWAP2 POP POP JUMP JUMPDEST PUSH1 0x0 PUSH1 0x20 DUP3 ADD SWAP1 POP DUP2 DUP2 SUB PUSH1 0x0 DUP4 ADD MSTORE PUSH2 0x43CC DUP2 DUP5 PUSH2 0x42ED JUMP JUMPDEST SWAP1 POP SWAP3 SWAP2 POP POP JUMP JUMPDEST PUSH1 0x0 DUP1 REVERT JUMPDEST PUSH32 0x4E487B7100000000000000000000000000000000000000000000000000000000 PUSH1 0x0 MSTORE PUSH1 0x41 PUSH1 0x4 MSTORE PUSH1 0x24 PUSH1 0x0 REVERT JUMPDEST PUSH2 0x4411 DUP3 PUSH2 0x3ABD JUMP JUMPDEST DUP2 ADD DUP2 DUP2 LT PUSH8 0xFFFFFFFFFFFFFFFF DUP3 GT OR ISZERO PUSH2 0x4430 JUMPI PUSH2 0x442F PUSH2 0x43D9 JUMP JUMPDEST JUMPDEST DUP1 PUSH1 0x40 MSTORE POP POP POP JUMP JUMPDEST PUSH1 0x0 PUSH2 0x4443 PUSH2 0x39A8 JUMP JUMPDEST SWAP1 POP PUSH2 0x444F DUP3 DUP3 PUSH2 0x4408 JUMP JUMPDEST SWAP2 SWAP1 POP JUMP JUMPDEST PUSH1 0x0 PUSH8 0xFFFFFFFFFFFFFFFF DUP3 GT ISZERO PUSH2 0x446F JUMPI PUSH2 0x446E PUSH2 0x43D9 JUMP JUMPDEST JUMPDEST PUSH2 0x4478 DUP3 PUSH2 0x3ABD JUMP JUMPDEST SWAP1 POP PUSH1 0x20 DUP2 ADD SWAP1 POP SWAP2 SWAP1 POP JUMP JUMPDEST DUP3 DUP2 DUP4 CALLDATACOPY PUSH1 0x0 DUP4 DUP4 ADD MSTORE POP POP POP JUMP JUMPDEST PUSH1 0x0 PUSH2 0x44A7 PUSH2 0x44A2 DUP5 PUSH2 0x4454 JUMP JUMPDEST PUSH2 0x4439 JUMP JUMPDEST SWAP1 POP DUP3 DUP2 MSTORE PUSH1 0x20 DUP2 ADD DUP5 DUP5 DUP5 ADD GT ISZERO PUSH2 0x44C3 JUMPI PUSH2 0x44C2 PUSH2 0x43D4 JUMP JUMPDEST JUMPDEST PUSH2 0x44CE DUP5 DUP3 DUP6 PUSH2 0x4485 JUMP JUMPDEST POP SWAP4 SWAP3 POP POP POP JUMP JUMPDEST PUSH1 0x0 DUP3 PUSH1 0x1F DUP4 ADD SLT PUSH2 0x44EB JUMPI PUSH2 0x44EA PUSH2 0x3D8B JUMP JUMPDEST JUMPDEST DUP2 CALLDATALOAD PUSH2 0x44FB DUP5 DUP3 PUSH1 0x20 DUP7 ADD PUSH2 0x4494 JUMP JUMPDEST SWAP2 POP POP SWAP3 SWAP2 POP POP JUMP JUMPDEST PUSH1 0x0 PUSH1 0x20 DUP3 DUP5 SUB SLT ISZERO PUSH2 0x451A JUMPI PUSH2 0x4519 PUSH2 0x39B2 JUMP JUMPDEST JUMPDEST PUSH1 0x0 DUP3 ADD CALLDATALOAD PUSH8 0xFFFFFFFFFFFFFFFF DUP2 GT ISZERO PUSH2 0x4538 JUMPI PUSH2 0x4537 PUSH2 0x39B7 JUMP JUMPDEST JUMPDEST PUSH2 0x4544 DUP5 DUP3 DUP6 ADD PUSH2 0x44D6 JUMP JUMPDEST SWAP2 POP POP SWAP3 SWAP2 POP POP JUMP JUMPDEST PUSH1 0x0 DUP1 PUSH1 0x40 DUP4 DUP6 SUB SLT ISZERO PUSH2 0x4564 JUMPI PUSH2 0x4563 PUSH2 0x39B2 JUMP JUMPDEST JUMPDEST PUSH1 0x0 PUSH2 0x4572 DUP6 DUP3 DUP7 ADD PUSH2 0x3BFF JUMP JUMPDEST SWAP3 POP POP PUSH1 0x20 PUSH2 0x4583 DUP6 DUP3 DUP7 ADD PUSH2 0x3E07 JUMP JUMPDEST SWAP2 POP POP SWAP3 POP SWAP3 SWAP1 POP JUMP JUMPDEST PUSH1 0x0 DUP1 PUSH1 0x0 DUP1 PUSH1 0x80 DUP6 DUP8 SUB SLT ISZERO PUSH2 0x45A7 JUMPI PUSH2 0x45A6 PUSH2 0x39B2 JUMP JUMPDEST JUMPDEST PUSH1 0x0 PUSH2 0x45B5 DUP8 DUP3 DUP9 ADD PUSH2 0x3BFF JUMP JUMPDEST SWAP5 POP POP PUSH1 0x20 PUSH2 0x45C6 DUP8 DUP3 DUP9 ADD PUSH2 0x3BFF JUMP JUMPDEST SWAP4 POP POP PUSH1 0x40 PUSH2 0x45D7 DUP8 DUP3 DUP9 ADD PUSH2 0x3B4A JUMP JUMPDEST SWAP3 POP POP PUSH1 0x60 DUP6 ADD CALLDATALOAD PUSH8 0xFFFFFFFFFFFFFFFF DUP2 GT ISZERO PUSH2 0x45F8 JUMPI PUSH2 0x45F7 PUSH2 0x39B7 JUMP JUMPDEST JUMPDEST PUSH2 0x4604 DUP8 DUP3 DUP9 ADD PUSH2 0x44D6 JUMP JUMPDEST SWAP2 POP POP SWAP3 SWAP6 SWAP2 SWAP5 POP SWAP3 POP JUMP JUMPDEST PUSH1 0x0 DUP2 MLOAD SWAP1 POP SWAP2 SWAP1 POP JUMP JUMPDEST PUSH1 0x0 DUP3 DUP3 MSTORE PUSH1 0x20 DUP3 ADD SWAP1 POP SWAP3 SWAP2 POP POP JUMP JUMPDEST PUSH1 0x0 DUP2 SWAP1 POP PUSH1 0x20 DUP3 ADD SWAP1 POP SWAP2 SWAP1 POP JUMP JUMPDEST PUSH2 0x4645 DUP2 PUSH2 0x3F7B JUMP JUMPDEST DUP3 MSTORE POP POP JUMP JUMPDEST PUSH1 0x0 PUSH2 0x4657 DUP4 DUP4 PUSH2 0x463C JUMP JUMPDEST PUSH1 0x20 DUP4 ADD SWAP1 POP SWAP3 SWAP2 POP POP JUMP JUMPDEST PUSH1 0x0 PUSH1 0x20 DUP3 ADD SWAP1 POP SWAP2 SWAP1 POP JUMP JUMPDEST PUSH1 0x0 PUSH2 0x467B DUP3 PUSH2 0x4610 JUMP JUMPDEST PUSH2 0x4685 DUP2 DUP6 PUSH2 0x461B JUMP JUMPDEST SWAP4 POP PUSH2 0x4690 DUP4 PUSH2 0x462C JUMP JUMPDEST DUP1 PUSH1 0x0 JUMPDEST DUP4 DUP2 LT ISZERO PUSH2 0x46C1 JUMPI DUP2 MLOAD PUSH2 0x46A8 DUP9 DUP3 PUSH2 0x464B JUMP JUMPDEST SWAP8 POP PUSH2 0x46B3 DUP4 PUSH2 0x4663 JUMP JUMPDEST SWAP3 POP POP PUSH1 0x1 DUP2 ADD SWAP1 POP PUSH2 0x4694 JUMP JUMPDEST POP DUP6 SWAP4 POP POP POP POP SWAP3 SWAP2 POP POP JUMP JUMPDEST PUSH32 0x4E487B7100000000000000000000000000000000000000000000000000000000 PUSH1 0x0 MSTORE PUSH1 0x21 PUSH1 0x4 MSTORE PUSH1 0x24 PUSH1 0x0 REVERT JUMPDEST PUSH1 0x4 DUP2 LT PUSH2 0x470E JUMPI PUSH2 0x470D PUSH2 0x46CE JUMP JUMPDEST JUMPDEST POP JUMP JUMPDEST PUSH1 0x0 DUP2 SWAP1 POP PUSH2 0x471F DUP3 PUSH2 0x46FD JUMP JUMPDEST SWAP2 SWAP1 POP JUMP JUMPDEST PUSH1 0x0 PUSH2 0x472F DUP3 PUSH2 0x4711 JUMP JUMPDEST SWAP1 POP SWAP2 SWAP1 POP JUMP JUMPDEST PUSH2 0x473F DUP2 PUSH2 0x4724 JUMP JUMPDEST DUP3 MSTORE POP POP JUMP JUMPDEST PUSH1 0x5 DUP2 LT PUSH2 0x4756 JUMPI PUSH2 0x4755 PUSH2 0x46CE JUMP JUMPDEST JUMPDEST POP JUMP JUMPDEST PUSH1 0x0 DUP2 SWAP1 POP PUSH2 0x4767 DUP3 PUSH2 0x4745 JUMP JUMPDEST SWAP2 SWAP1 POP JUMP JUMPDEST PUSH1 0x0 PUSH2 0x4777 DUP3 PUSH2 0x4759 JUMP JUMPDEST SWAP1 POP SWAP2 SWAP1 POP JUMP JUMPDEST PUSH2 0x4787 DUP2 PUSH2 0x476C JUMP JUMPDEST DUP3 MSTORE POP POP JUMP JUMPDEST PUSH1 0x0 PUSH2 0x120 DUP4 ADD PUSH1 0x0 DUP4 ADD MLOAD PUSH2 0x47A6 PUSH1 0x0 DUP7 ADD DUP3 PUSH2 0x41D6 JUMP JUMPDEST POP PUSH1 0x20 DUP4 ADD MLOAD PUSH2 0x47B9 PUSH1 0x20 DUP7 ADD DUP3 PUSH2 0x41D6 JUMP JUMPDEST POP PUSH1 0x40 DUP4 ADD MLOAD DUP5 DUP3 SUB PUSH1 0x40 DUP7 ADD MSTORE PUSH2 0x47D1 DUP3 DUP3 PUSH2 0x4670 JUMP JUMPDEST SWAP2 POP POP PUSH1 0x60 DUP4 ADD MLOAD DUP5 DUP3 SUB PUSH1 0x60 DUP7 ADD MSTORE PUSH2 0x47EB DUP3 DUP3 PUSH2 0x4670 JUMP JUMPDEST SWAP2 POP POP PUSH1 0x80 DUP4 ADD MLOAD PUSH2 0x4800 PUSH1 0x80 DUP7 ADD DUP3 PUSH2 0x463C JUMP JUMPDEST POP PUSH1 0xA0 DUP4 ADD MLOAD DUP5 DUP3 SUB PUSH1 0xA0 DUP7 ADD MSTORE PUSH2 0x4818 DUP3 DUP3 PUSH2 0x41F6 JUMP JUMPDEST SWAP2 POP POP PUSH1 0xC0 DUP4 ADD MLOAD PUSH2 0x482D PUSH1 0xC0 DUP7 ADD DUP3 PUSH2 0x4736 JUMP JUMPDEST POP PUSH1 0xE0 DUP4 ADD MLOAD DUP5 DUP3 SUB PUSH1 0xE0 DUP7 ADD MSTORE PUSH2 0x4845 DUP3 DUP3 PUSH2 0x41F6 JUMP JUMPDEST SWAP2 POP POP PUSH2 0x100 DUP4 ADD MLOAD PUSH2 0x485C PUSH2 0x100 DUP7 ADD DUP3 PUSH2 0x477E JUMP JUMPDEST POP DUP1 SWAP2 POP POP SWAP3 SWAP2 POP POP JUMP JUMPDEST PUSH1 0x0 PUSH1 0x20 DUP3 ADD SWAP1 POP DUP2 DUP2 SUB PUSH1 0x0 DUP4 ADD MSTORE PUSH2 0x4881 DUP2 DUP5 PUSH2 0x478D JUMP JUMPDEST SWAP1 POP SWAP3 SWAP2 POP POP JUMP JUMPDEST PUSH1 0x0 DUP1 PUSH1 0x40 DUP4 DUP6 SUB SLT ISZERO PUSH2 0x48A0 JUMPI PUSH2 0x489F PUSH2 0x39B2 JUMP JUMPDEST JUMPDEST PUSH1 0x0 PUSH2 0x48AE DUP6 DUP3 DUP7 ADD PUSH2 0x3BFF JUMP JUMPDEST SWAP3 POP POP PUSH1 0x20 PUSH2 0x48BF DUP6 DUP3 DUP7 ADD PUSH2 0x3BFF JUMP JUMPDEST SWAP2 POP POP SWAP3 POP SWAP3 SWAP1 POP JUMP JUMPDEST PUSH1 0x0 PUSH1 0xE0 DUP4 ADD PUSH1 0x0 DUP4 ADD MLOAD PUSH2 0x48E1 PUSH1 0x0 DUP7 ADD DUP3 PUSH2 0x41D6 JUMP JUMPDEST POP PUSH1 0x20 DUP4 ADD MLOAD PUSH2 0x48F4 PUSH1 0x20 DUP7 ADD DUP3 PUSH2 0x41D6 JUMP JUMPDEST POP PUSH1 0x40 DUP4 ADD MLOAD DUP5 DUP3 SUB PUSH1 0x40 DUP7 ADD MSTORE PUSH2 0x490C DUP3 DUP3 PUSH2 0x41F6 JUMP JUMPDEST SWAP2 POP POP PUSH1 0x60 DUP4 ADD MLOAD DUP5 DUP3 SUB PUSH1 0x60 DUP7 ADD MSTORE PUSH2 0x4926 DUP3 DUP3 PUSH2 0x41F6 JUMP JUMPDEST SWAP2 POP POP PUSH1 0x80 DUP4 ADD MLOAD DUP5 DUP3 SUB PUSH1 0x80 DUP7 ADD MSTORE PUSH2 0x4940 DUP3 DUP3 PUSH2 0x41F6 JUMP JUMPDEST SWAP2 POP POP PUSH1 0xA0 DUP4 ADD MLOAD PUSH2 0x4955 PUSH1 0xA0 DUP7 ADD DUP3 PUSH2 0x42DE JUMP JUMPDEST POP PUSH1 0xC0 DUP4 ADD MLOAD DUP5 DUP3 SUB PUSH1 0xC0 DUP7 ADD MSTORE PUSH2 0x496D DUP3 DUP3 PUSH2 0x4280 JUMP JUMPDEST SWAP2 POP POP DUP1 SWAP2 POP POP SWAP3 SWAP2 POP POP JUMP JUMPDEST PUSH1 0x0 PUSH1 0x20 DUP3 ADD SWAP1 POP DUP2 DUP2 SUB PUSH1 0x0 DUP4 ADD MSTORE PUSH2 0x4994 DUP2 DUP5 PUSH2 0x48C9 JUMP JUMPDEST SWAP1 POP SWAP3 SWAP2 POP POP JUMP JUMPDEST PUSH32 0x4E487B7100000000000000000000000000000000000000000000000000000000 PUSH1 0x0 MSTORE PUSH1 0x22 PUSH1 0x4 MSTORE PUSH1 0x24 PUSH1 0x0 REVERT JUMPDEST PUSH1 0x0 PUSH1 0x2 DUP3 DIV SWAP1 POP PUSH1 0x1 DUP3 AND DUP1 PUSH2 0x49E3 JUMPI PUSH1 0x7F DUP3 AND SWAP2 POP JUMPDEST PUSH1 0x20 DUP3 LT DUP2 SUB PUSH2 0x49F6 JUMPI PUSH2 0x49F5 PUSH2 0x499C JUMP JUMPDEST JUMPDEST POP SWAP2 SWAP1 POP JUMP JUMPDEST PUSH1 0x0 DUP2 MLOAD SWAP1 POP PUSH2 0x4A0B DUP2 PUSH2 0x3DF0 JUMP JUMPDEST SWAP3 SWAP2 POP POP JUMP JUMPDEST PUSH1 0x0 PUSH1 0x20 DUP3 DUP5 SUB SLT ISZERO PUSH2 0x4A27 JUMPI PUSH2 0x4A26 PUSH2 0x39B2 JUMP JUMPDEST JUMPDEST PUSH1 0x0 PUSH2 0x4A35 DUP5 DUP3 DUP6 ADD PUSH2 0x49FC JUMP JUMPDEST SWAP2 POP POP SWAP3 SWAP2 POP POP JUMP JUMPDEST PUSH1 0x0 PUSH1 0x40 DUP3 ADD SWAP1 POP PUSH2 0x4A53 PUSH1 0x0 DUP4 ADD DUP6 PUSH2 0x3BBE JUMP JUMPDEST PUSH2 0x4A60 PUSH1 0x20 DUP4 ADD DUP5 PUSH2 0x3C81 JUMP JUMPDEST SWAP4 SWAP3 POP POP POP JUMP JUMPDEST PUSH1 0x0 DUP2 MLOAD SWAP1 POP PUSH2 0x4A76 DUP2 PUSH2 0x3B33 JUMP JUMPDEST SWAP3 SWAP2 POP POP JUMP JUMPDEST PUSH1 0x0 PUSH1 0x20 DUP3 DUP5 SUB SLT ISZERO PUSH2 0x4A92 JUMPI PUSH2 0x4A91 PUSH2 0x39B2 JUMP JUMPDEST JUMPDEST PUSH1 0x0 PUSH2 0x4AA0 DUP5 DUP3 DUP6 ADD PUSH2 0x4A67 JUMP JUMPDEST SWAP2 POP POP SWAP3 SWAP2 POP POP JUMP JUMPDEST PUSH1 0x0 PUSH1 0x60 DUP3 ADD SWAP1 POP PUSH2 0x4ABE PUSH1 0x0 DUP4 ADD DUP7 PUSH2 0x3BBE JUMP JUMPDEST PUSH2 0x4ACB PUSH1 0x20 DUP4 ADD DUP6 PUSH2 0x3C81 JUMP JUMPDEST PUSH2 0x4AD8 PUSH1 0x40 DUP4 ADD DUP5 PUSH2 0x3BBE JUMP JUMPDEST SWAP5 SWAP4 POP POP POP POP JUMP JUMPDEST PUSH1 0x0 PUSH2 0x4AEC DUP4 DUP6 PUSH2 0x3A82 JUMP JUMPDEST SWAP4 POP PUSH2 0x4AF9 DUP4 DUP6 DUP5 PUSH2 0x4485 JUMP JUMPDEST PUSH2 0x4B02 DUP4 PUSH2 0x3ABD JUMP JUMPDEST DUP5 ADD SWAP1 POP SWAP4 SWAP3 POP POP POP JUMP JUMPDEST PUSH1 0x0 PUSH1 0xA0 DUP3 ADD SWAP1 POP PUSH2 0x4B22 PUSH1 0x0 DUP4 ADD DUP12 PUSH2 0x3BBE JUMP JUMPDEST DUP2 DUP2 SUB PUSH1 0x20 DUP4 ADD MSTORE PUSH2 0x4B35 DUP2 DUP10 DUP12 PUSH2 0x4AE0 JUMP JUMPDEST SWAP1 POP DUP2 DUP2 SUB PUSH1 0x40 DUP4 ADD MSTORE PUSH2 0x4B4A DUP2 DUP8 DUP10 PUSH2 0x4AE0 JUMP JUMPDEST SWAP1 POP DUP2 DUP2 SUB PUSH1 0x60 DUP4 ADD MSTORE PUSH2 0x4B5F DUP2 DUP6 DUP8 PUSH2 0x4AE0 JUMP JUMPDEST SWAP1 POP PUSH2 0x4B6E PUSH1 0x80 DUP4 ADD DUP5 PUSH2 0x3A4D JUMP JUMPDEST SWAP10 SWAP9 POP POP POP POP POP POP POP POP POP JUMP JUMPDEST PUSH32 0x4E487B7100000000000000000000000000000000000000000000000000000000 PUSH1 0x0 MSTORE PUSH1 0x11 PUSH1 0x4 MSTORE PUSH1 0x24 PUSH1 0x0 REVERT JUMPDEST PUSH1 0x0 PUSH2 0x4BB5 DUP3 PUSH2 0x3B29 JUMP JUMPDEST SWAP2 POP PUSH32 0xFFFFFFFFFFFFFFFFFFFFFFFFFFFFFFFFFFFFFFFFFFFFFFFFFFFFFFFFFFFFFFFF DUP3 SUB PUSH2 0x4BE7 JUMPI PUSH2 0x4BE6 PUSH2 0x4B7B JUMP JUMPDEST JUMPDEST PUSH1 0x1 DUP3 ADD SWAP1 POP SWAP2 SWAP1 POP JUMP JUMPDEST PUSH1 0x0 DUP3 DUP3 MSTORE PUSH1 0x20 DUP3 ADD SWAP1 POP SWAP3 SWAP2 POP POP JUMP JUMPDEST PUSH1 0x0 DUP2 SWAP1 POP SWAP2 SWAP1 POP JUMP JUMPDEST PUSH1 0x0 PUSH2 0x4C1C PUSH1 0x20 DUP5 ADD DUP5 PUSH2 0x3F9F JUMP JUMPDEST SWAP1 POP SWAP3 SWAP2 POP POP JUMP JUMPDEST PUSH1 0x0 PUSH1 0x20 DUP3 ADD SWAP1 POP SWAP2 SWAP1 POP JUMP JUMPDEST PUSH1 0x0 PUSH2 0x4C3D DUP4 DUP6 PUSH2 0x4BF2 JUMP JUMPDEST SWAP4 POP PUSH2 0x4C48 DUP3 PUSH2 0x4C03 JUMP JUMPDEST DUP1 PUSH1 0x0 JUMPDEST DUP6 DUP2 LT ISZERO PUSH2 0x4C81 JUMPI PUSH2 0x4C5E DUP3 DUP5 PUSH2 0x4C0D JUMP JUMPDEST PUSH2 0x4C68 DUP9 DUP3 PUSH2 0x464B JUMP JUMPDEST SWAP8 POP PUSH2 0x4C73 DUP4 PUSH2 0x4C24 JUMP JUMPDEST SWAP3 POP POP PUSH1 0x1 DUP2 ADD SWAP1 POP PUSH2 0x4C4C JUMP JUMPDEST POP DUP6 SWAP3 POP POP POP SWAP4 SWAP3 POP POP POP JUMP JUMPDEST PUSH2 0x4C97 DUP2 PUSH2 0x3F7B JUMP JUMPDEST DUP3 MSTORE POP POP JUMP JUMPDEST PUSH2 0x4CA6 DUP2 PUSH2 0x4724 JUMP JUMPDEST DUP3 MSTORE POP POP JUMP JUMPDEST PUSH2 0x4CB5 DUP2 PUSH2 0x476C JUMP JUMPDEST DUP3 MSTORE POP POP JUMP JUMPDEST PUSH1 0x0 PUSH1 0xE0 DUP3 ADD SWAP1 POP DUP2 DUP2 SUB PUSH1 0x0 DUP4 ADD MSTORE PUSH2 0x4CD6 DUP2 DUP14 DUP16 PUSH2 0x4C31 JUMP JUMPDEST SWAP1 POP DUP2 DUP2 SUB PUSH1 0x20 DUP4 ADD MSTORE PUSH2 0x4CEB DUP2 DUP12 DUP14 PUSH2 0x4C31 JUMP JUMPDEST SWAP1 POP PUSH2 0x4CFA PUSH1 0x40 DUP4 ADD DUP11 PUSH2 0x4C8E JUMP JUMPDEST DUP2 DUP2 SUB PUSH1 0x60 DUP4 ADD MSTORE PUSH2 0x4D0D DUP2 DUP9 DUP11 PUSH2 0x4AE0 JUMP JUMPDEST SWAP1 POP PUSH2 0x4D1C PUSH1 0x80 DUP4 ADD DUP8 PUSH2 0x4C9D JUMP JUMPDEST DUP2 DUP2 SUB PUSH1 0xA0 DUP4 ADD MSTORE PUSH2 0x4D2F DUP2 DUP6 DUP8 PUSH2 0x4AE0 JUMP JUMPDEST SWAP1 POP PUSH2 0x4D3E PUSH1 0xC0 DUP4 ADD DUP5 PUSH2 0x4CAC JUMP JUMPDEST SWAP13 SWAP12 POP POP POP POP POP POP POP POP POP POP POP POP JUMP JUMPDEST PUSH32 0x4E487B7100000000000000000000000000000000000000000000000000000000 PUSH1 0x0 MSTORE PUSH1 0x32 PUSH1 0x4 MSTORE PUSH1 0x24 PUSH1 0x0 REVERT JUMPDEST PUSH1 0x0 PUSH1 0xC0 DUP3 ADD SWAP1 POP PUSH2 0x4D92 PUSH1 0x0 DUP4 ADD DUP13 PUSH2 0x3BBE JUMP JUMPDEST DUP2 DUP2 SUB PUSH1 0x20 DUP4 ADD MSTORE PUSH2 0x4DA5 DUP2 DUP11 DUP13 PUSH2 0x4AE0 JUMP JUMPDEST SWAP1 POP DUP2 DUP2 SUB PUSH1 0x40 DUP4 ADD MSTORE PUSH2 0x4DBA DUP2 DUP9 DUP11 PUSH2 0x4AE0 JUMP JUMPDEST SWAP1 POP DUP2 DUP2 SUB PUSH1 0x60 DUP4 ADD MSTORE PUSH2 0x4DCF DUP2 DUP7 DUP9 PUSH2 0x4AE0 JUMP JUMPDEST SWAP1 POP PUSH2 0x4DDE PUSH1 0x80 DUP4 ADD DUP6 PUSH2 0x3A4D JUMP JUMPDEST PUSH2 0x4DEB PUSH1 0xA0 DUP4 ADD DUP5 PUSH2 0x3A4D JUMP JUMPDEST SWAP11 SWAP10 POP POP POP POP POP POP POP POP POP POP JUMP JUMPDEST PUSH1 0x0 DUP1 REVERT JUMPDEST PUSH1 0x0 DUP1 REVERT JUMPDEST PUSH1 0x0 PUSH8 0xFFFFFFFFFFFFFFFF DUP3 GT ISZERO PUSH2 0x4E1E JUMPI PUSH2 0x4E1D PUSH2 0x43D9 JUMP JUMPDEST JUMPDEST PUSH2 0x4E27 DUP3 PUSH2 0x3ABD JUMP JUMPDEST SWAP1 POP PUSH1 0x20 DUP2 ADD SWAP1 POP SWAP2 SWAP1 POP JUMP JUMPDEST PUSH1 0x0 PUSH2 0x4E47 PUSH2 0x4E42 DUP5 PUSH2 0x4E03 JUMP JUMPDEST PUSH2 0x4439 JUMP JUMPDEST SWAP1 POP DUP3 DUP2 MSTORE PUSH1 0x20 DUP2 ADD DUP5 DUP5 DUP5 ADD GT ISZERO PUSH2 0x4E63 JUMPI PUSH2 0x4E62 PUSH2 0x43D4 JUMP JUMPDEST JUMPDEST PUSH2 0x4E6E DUP5 DUP3 DUP6 PUSH2 0x3A93 JUMP JUMPDEST POP SWAP4 SWAP3 POP POP POP JUMP JUMPDEST PUSH1 0x0 DUP3 PUSH1 0x1F DUP4 ADD SLT PUSH2 0x4E8B JUMPI PUSH2 0x4E8A PUSH2 0x3D8B JUMP JUMPDEST JUMPDEST DUP2 MLOAD PUSH2 0x4E9B DUP5 DUP3 PUSH1 0x20 DUP7 ADD PUSH2 0x4E34 JUMP JUMPDEST SWAP2 POP POP SWAP3 SWAP2 POP POP JUMP JUMPDEST PUSH1 0x0 PUSH8 0xFFFFFFFFFFFFFFFF DUP3 GT ISZERO PUSH2 0x4EBF JUMPI PUSH2 0x4EBE PUSH2 0x43D9 JUMP JUMPDEST JUMPDEST PUSH1 0x20 DUP3 MUL SWAP1 POP PUSH1 0x20 DUP2 ADD SWAP1 POP SWAP2 SWAP1 POP JUMP JUMPDEST PUSH1 0x0 PUSH2 0x4EE3 PUSH2 0x4EDE DUP5 PUSH2 0x4EA4 JUMP JUMPDEST PUSH2 0x4439 JUMP JUMPDEST SWAP1 POP DUP1 DUP4 DUP3 MSTORE PUSH1 0x20 DUP3 ADD SWAP1 POP PUSH1 0x20 DUP5 MUL DUP4 ADD DUP6 DUP2 GT ISZERO PUSH2 0x4F06 JUMPI PUSH2 0x4F05 PUSH2 0x3D95 JUMP JUMPDEST JUMPDEST DUP4 JUMPDEST DUP2 DUP2 LT ISZERO PUSH2 0x4F2F JUMPI DUP1 PUSH2 0x4F1B DUP9 DUP3 PUSH2 0x4A67 JUMP JUMPDEST DUP5 MSTORE PUSH1 0x20 DUP5 ADD SWAP4 POP POP PUSH1 0x20 DUP2 ADD SWAP1 POP PUSH2 0x4F08 JUMP JUMPDEST POP POP POP SWAP4 SWAP3 POP POP POP JUMP JUMPDEST PUSH1 0x0 DUP3 PUSH1 0x1F DUP4 ADD SLT PUSH2 0x4F4E JUMPI PUSH2 0x4F4D PUSH2 0x3D8B JUMP JUMPDEST JUMPDEST DUP2 MLOAD PUSH2 0x4F5E DUP5 DUP3 PUSH1 0x20 DUP7 ADD PUSH2 0x4ED0 JUMP JUMPDEST SWAP2 POP POP SWAP3 SWAP2 POP POP JUMP JUMPDEST PUSH1 0x0 PUSH2 0x100 DUP3 DUP5 SUB SLT ISZERO PUSH2 0x4F7E JUMPI PUSH2 0x4F7D PUSH2 0x4DF9 JUMP JUMPDEST JUMPDEST PUSH2 0x4F89 PUSH2 0x100 PUSH2 0x4439 JUMP JUMPDEST SWAP1 POP PUSH1 0x0 PUSH2 0x4F99 DUP5 DUP3 DUP6 ADD PUSH2 0x4A67 JUMP JUMPDEST PUSH1 0x0 DUP4 ADD MSTORE POP PUSH1 0x20 PUSH2 0x4FAD DUP5 DUP3 DUP6 ADD PUSH2 0x4A67 JUMP JUMPDEST PUSH1 0x20 DUP4 ADD MSTORE POP PUSH1 0x40 DUP3 ADD MLOAD PUSH8 0xFFFFFFFFFFFFFFFF DUP2 GT ISZERO PUSH2 0x4FD1 JUMPI PUSH2 0x4FD0 PUSH2 0x4DFE JUMP JUMPDEST JUMPDEST PUSH2 0x4FDD DUP5 DUP3 DUP6 ADD PUSH2 0x4E76 JUMP JUMPDEST PUSH1 0x40 DUP4 ADD MSTORE POP PUSH1 0x60 DUP3 ADD MLOAD PUSH8 0xFFFFFFFFFFFFFFFF DUP2 GT ISZERO PUSH2 0x5001 JUMPI PUSH2 0x5000 PUSH2 0x4DFE JUMP JUMPDEST JUMPDEST PUSH2 0x500D DUP5 DUP3 DUP6 ADD PUSH2 0x4E76 JUMP JUMPDEST PUSH1 0x60 DUP4 ADD MSTORE POP PUSH1 0x80 DUP3 ADD MLOAD PUSH8 0xFFFFFFFFFFFFFFFF DUP2 GT ISZERO PUSH2 0x5031 JUMPI PUSH2 0x5030 PUSH2 0x4DFE JUMP JUMPDEST JUMPDEST PUSH2 0x503D DUP5 DUP3 DUP6 ADD PUSH2 0x4E76 JUMP JUMPDEST PUSH1 0x80 DUP4 ADD MSTORE POP PUSH1 0xA0 DUP3 ADD MLOAD PUSH8 0xFFFFFFFFFFFFFFFF DUP2 GT ISZERO PUSH2 0x5061 JUMPI PUSH2 0x5060 PUSH2 0x4DFE JUMP JUMPDEST JUMPDEST PUSH2 0x506D DUP5 DUP3 DUP6 ADD PUSH2 0x4F39 JUMP JUMPDEST PUSH1 0xA0 DUP4 ADD MSTORE POP PUSH1 0xC0 PUSH2 0x5081 DUP5 DUP3 DUP6 ADD PUSH2 0x49FC JUMP JUMPDEST PUSH1 0xC0 DUP4 ADD MSTORE POP PUSH1 0xE0 PUSH2 0x5095 DUP5 DUP3 DUP6 ADD PUSH2 0x49FC JUMP JUMPDEST PUSH1 0xE0 DUP4 ADD MSTORE POP SWAP3 SWAP2 POP POP JUMP JUMPDEST PUSH1 0x0 PUSH1 0x20 DUP3 DUP5 SUB SLT ISZERO PUSH2 0x50B7 JUMPI PUSH2 0x50B6 PUSH2 0x39B2 JUMP JUMPDEST JUMPDEST PUSH1 0x0 DUP3 ADD MLOAD PUSH8 0xFFFFFFFFFFFFFFFF DUP2 GT ISZERO PUSH2 0x50D5 JUMPI PUSH2 0x50D4 PUSH2 0x39B7 JUMP JUMPDEST JUMPDEST PUSH2 0x50E1 DUP5 DUP3 DUP6 ADD PUSH2 0x4F67 JUMP JUMPDEST SWAP2 POP POP SWAP3 SWAP2 POP POP JUMP JUMPDEST PUSH1 0x0 PUSH8 0xFFFFFFFFFFFFFFFF DUP3 GT ISZERO PUSH2 0x5105 JUMPI PUSH2 0x5104 PUSH2 0x43D9 JUMP JUMPDEST JUMPDEST PUSH1 0x20 DUP3 MUL SWAP1 POP PUSH1 0x20 DUP2 ADD SWAP1 POP SWAP2 SWAP1 POP JUMP JUMPDEST PUSH1 0x0 DUP2 MLOAD SWAP1 POP PUSH2 0x5125 DUP2 PUSH2 0x3F88 JUMP JUMPDEST SWAP3 SWAP2 POP POP JUMP JUMPDEST PUSH1 0x0 PUSH2 0x513E PUSH2 0x5139 DUP5 PUSH2 0x50EA JUMP JUMPDEST PUSH2 0x4439 JUMP JUMPDEST SWAP1 POP DUP1 DUP4 DUP3 MSTORE PUSH1 0x20 DUP3 ADD SWAP1 POP PUSH1 0x20 DUP5 MUL DUP4 ADD DUP6 DUP2 GT ISZERO PUSH2 0x5161 JUMPI PUSH2 0x5160 PUSH2 0x3D95 JUMP JUMPDEST JUMPDEST DUP4 JUMPDEST DUP2 DUP2 LT ISZERO PUSH2 0x518A JUMPI DUP1 PUSH2 0x5176 DUP9 DUP3 PUSH2 0x5116 JUMP JUMPDEST DUP5 MSTORE PUSH1 0x20 DUP5 ADD SWAP4 POP POP PUSH1 0x20 DUP2 ADD SWAP1 POP PUSH2 0x5163 JUMP JUMPDEST POP POP POP SWAP4 SWAP3 POP POP POP JUMP JUMPDEST PUSH1 0x0 DUP3 PUSH1 0x1F DUP4 ADD SLT PUSH2 0x51A9 JUMPI PUSH2 0x51A8 PUSH2 0x3D8B JUMP JUMPDEST JUMPDEST DUP2 MLOAD PUSH2 0x51B9 DUP5 DUP3 PUSH1 0x20 DUP7 ADD PUSH2 0x512B JUMP JUMPDEST SWAP2 POP POP SWAP3 SWAP2 POP POP JUMP JUMPDEST PUSH1 0x0 DUP2 MLOAD SWAP1 POP PUSH2 0x51D1 DUP2 PUSH2 0x3FB4 JUMP JUMPDEST SWAP3 SWAP2 POP POP JUMP JUMPDEST PUSH1 0x0 DUP2 MLOAD SWAP1 POP PUSH2 0x51E6 DUP2 PUSH2 0x3FD9 JUMP JUMPDEST SWAP3 SWAP2 POP POP JUMP JUMPDEST PUSH1 0x0 PUSH2 0x120 DUP3 DUP5 SUB SLT ISZERO PUSH2 0x5203 JUMPI PUSH2 0x5202 PUSH2 0x4DF9 JUMP JUMPDEST JUMPDEST PUSH2 0x520E PUSH2 0x120 PUSH2 0x4439 JUMP JUMPDEST SWAP1 POP PUSH1 0x0 PUSH2 0x521E DUP5 DUP3 DUP6 ADD PUSH2 0x4A67 JUMP JUMPDEST PUSH1 0x0 DUP4 ADD MSTORE POP PUSH1 0x20 PUSH2 0x5232 DUP5 DUP3 DUP6 ADD PUSH2 0x4A67 JUMP JUMPDEST PUSH1 0x20 DUP4 ADD MSTORE POP PUSH1 0x40 DUP3 ADD MLOAD PUSH8 0xFFFFFFFFFFFFFFFF DUP2 GT ISZERO PUSH2 0x5256 JUMPI PUSH2 0x5255 PUSH2 0x4DFE JUMP JUMPDEST JUMPDEST PUSH2 0x5262 DUP5 DUP3 DUP6 ADD PUSH2 0x5194 JUMP JUMPDEST PUSH1 0x40 DUP4 ADD MSTORE POP PUSH1 0x60 DUP3 ADD MLOAD PUSH8 0xFFFFFFFFFFFFFFFF DUP2 GT ISZERO PUSH2 0x5286 JUMPI PUSH2 0x5285 PUSH2 0x4DFE JUMP JUMPDEST JUMPDEST PUSH2 0x5292 DUP5 DUP3 DUP6 ADD PUSH2 0x5194 JUMP JUMPDEST PUSH1 0x60 DUP4 ADD MSTORE POP PUSH1 0x80 PUSH2 0x52A6 DUP5 DUP3 DUP6 ADD PUSH2 0x5116 JUMP JUMPDEST PUSH1 0x80 DUP4 ADD MSTORE POP PUSH1 0xA0 DUP3 ADD MLOAD PUSH8 0xFFFFFFFFFFFFFFFF DUP2 GT ISZERO PUSH2 0x52CA JUMPI PUSH2 0x52C9 PUSH2 0x4DFE JUMP JUMPDEST JUMPDEST PUSH2 0x52D6 DUP5 DUP3 DUP6 ADD PUSH2 0x4E76 JUMP JUMPDEST PUSH1 0xA0 DUP4 ADD MSTORE POP PUSH1 0xC0 PUSH2 0x52EA DUP5 DUP3 DUP6 ADD PUSH2 0x51C2 JUMP JUMPDEST PUSH1 0xC0 DUP4 ADD MSTORE POP PUSH1 0xE0 DUP3 ADD MLOAD PUSH8 0xFFFFFFFFFFFFFFFF DUP2 GT ISZERO PUSH2 0x530E JUMPI PUSH2 0x530D PUSH2 0x4DFE JUMP JUMPDEST JUMPDEST PUSH2 0x531A DUP5 DUP3 DUP6 ADD PUSH2 0x4E76 JUMP JUMPDEST PUSH1 0xE0 DUP4 ADD MSTORE POP PUSH2 0x100 PUSH2 0x532F DUP5 DUP3 DUP6 ADD PUSH2 0x51D7 JUMP JUMPDEST PUSH2 0x100 DUP4 ADD MSTORE POP SWAP3 SWAP2 POP POP JUMP JUMPDEST PUSH1 0x0 PUSH1 0x20 DUP3 DUP5 SUB SLT ISZERO PUSH2 0x5352 JUMPI PUSH2 0x5351 PUSH2 0x39B2 JUMP JUMPDEST JUMPDEST PUSH1 0x0 DUP3 ADD MLOAD PUSH8 0xFFFFFFFFFFFFFFFF DUP2 GT ISZERO PUSH2 0x5370 JUMPI PUSH2 0x536F PUSH2 0x39B7 JUMP JUMPDEST JUMPDEST PUSH2 0x537C DUP5 DUP3 DUP6 ADD PUSH2 0x51EC JUMP JUMPDEST SWAP2 POP POP SWAP3 SWAP2 POP POP JUMP JUMPDEST PUSH1 0x0 DUP2 SWAP1 POP SWAP3 SWAP2 POP POP JUMP JUMPDEST PUSH1 0x0 PUSH2 0x539B DUP3 PUSH2 0x3A77 JUMP JUMPDEST PUSH2 0x53A5 DUP2 DUP6 PUSH2 0x5385 JUMP JUMPDEST SWAP4 POP PUSH2 0x53B5 DUP2 DUP6 PUSH1 0x20 DUP7 ADD PUSH2 0x3A93 JUMP JUMPDEST DUP1 DUP5 ADD SWAP2 POP POP SWAP3 SWAP2 POP POP JUMP JUMPDEST PUSH1 0x0 PUSH2 0x53CD DUP3 DUP9 PUSH2 0x5390 JUMP JUMPDEST SWAP2 POP PUSH2 0x53D9 DUP3 DUP8 PUSH2 0x5390 JUMP JUMPDEST SWAP2 POP PUSH2 0x53E5 DUP3 DUP7 PUSH2 0x5390 JUMP JUMPDEST SWAP2 POP PUSH2 0x53F1 DUP3 DUP6 PUSH2 0x5390 JUMP JUMPDEST SWAP2 POP PUSH2 0x53FD DUP3 DUP5 PUSH2 0x5390 JUMP JUMPDEST SWAP2 POP DUP2 SWAP1 POP SWAP7 SWAP6 POP POP POP POP POP POP JUMP JUMPDEST PUSH1 0x0 PUSH2 0x5418 DUP3 DUP6 PUSH2 0x5390 JUMP JUMPDEST SWAP2 POP PUSH2 0x5424 DUP3 DUP5 PUSH2 0x5390 JUMP JUMPDEST SWAP2 POP DUP2 SWAP1 POP SWAP4 SWAP3 POP POP POP JUMP JUMPDEST PUSH1 0x0 PUSH1 0xE0 DUP3 DUP5 SUB SLT ISZERO PUSH2 0x5446 JUMPI PUSH2 0x5445 PUSH2 0x4DF9 JUMP JUMPDEST JUMPDEST PUSH2 0x5450 PUSH1 0xE0 PUSH2 0x4439 JUMP JUMPDEST SWAP1 POP PUSH1 0x0 PUSH2 0x5460 DUP5 DUP3 DUP6 ADD PUSH2 0x4A67 JUMP JUMPDEST PUSH1 0x0 DUP4 ADD MSTORE POP PUSH1 0x20 PUSH2 0x5474 DUP5 DUP3 DUP6 ADD PUSH2 0x4A67 JUMP JUMPDEST PUSH1 0x20 DUP4 ADD MSTORE POP PUSH1 0x40 DUP3 ADD MLOAD PUSH8 0xFFFFFFFFFFFFFFFF DUP2 GT ISZERO PUSH2 0x5498 JUMPI PUSH2 0x5497 PUSH2 0x4DFE JUMP JUMPDEST JUMPDEST PUSH2 0x54A4 DUP5 DUP3 DUP6 ADD PUSH2 0x4E76 JUMP JUMPDEST PUSH1 0x40 DUP4 ADD MSTORE POP PUSH1 0x60 DUP3 ADD MLOAD PUSH8 0xFFFFFFFFFFFFFFFF DUP2 GT ISZERO PUSH2 0x54C8 JUMPI PUSH2 0x54C7 PUSH2 0x4DFE JUMP JUMPDEST JUMPDEST PUSH2 0x54D4 DUP5 DUP3 DUP6 ADD PUSH2 0x4E76 JUMP JUMPDEST PUSH1 0x60 DUP4 ADD MSTORE POP PUSH1 0x80 DUP3 ADD MLOAD PUSH8 0xFFFFFFFFFFFFFFFF DUP2 GT ISZERO PUSH2 0x54F8 JUMPI PUSH2 0x54F7 PUSH2 0x4DFE JUMP JUMPDEST JUMPDEST PUSH2 0x5504 DUP5 DUP3 DUP6 ADD PUSH2 0x4E76 JUMP JUMPDEST PUSH1 0x80 DUP4 ADD MSTORE POP PUSH1 0xA0 PUSH2 0x5518 DUP5 DUP3 DUP6 ADD PUSH2 0x49FC JUMP JUMPDEST PUSH1 0xA0 DUP4 ADD MSTORE POP PUSH1 0xC0 DUP3 ADD MLOAD PUSH8 0xFFFFFFFFFFFFFFFF DUP2 GT ISZERO PUSH2 0x553C JUMPI PUSH2 0x553B PUSH2 0x4DFE JUMP JUMPDEST JUMPDEST PUSH2 0x5548 DUP5 DUP3 DUP6 ADD PUSH2 0x4F39 JUMP JUMPDEST PUSH1 0xC0 DUP4 ADD MSTORE POP SWAP3 SWAP2 POP POP JUMP JUMPDEST PUSH1 0x0 PUSH1 0x20 DUP3 DUP5 SUB SLT ISZERO PUSH2 0x556A JUMPI PUSH2 0x5569 PUSH2 0x39B2 JUMP JUMPDEST JUMPDEST PUSH1 0x0 DUP3 ADD MLOAD PUSH8 0xFFFFFFFFFFFFFFFF DUP2 GT ISZERO PUSH2 0x5588 JUMPI PUSH2 0x5587 PUSH2 0x39B7 JUMP JUMPDEST JUMPDEST PUSH2 0x5594 DUP5 DUP3 DUP6 ADD PUSH2 0x5430 JUMP JUMPDEST SWAP2 POP POP SWAP3 SWAP2 POP POP JUMP JUMPDEST PUSH1 0x0 PUSH2 0x55A8 DUP3 PUSH2 0x3B29 JUMP JUMPDEST SWAP2 POP PUSH2 0x55B3 DUP4 PUSH2 0x3B29 JUMP JUMPDEST SWAP3 POP DUP3 DUP3 ADD SWAP1 POP DUP1 DUP3 GT ISZERO PUSH2 0x55CB JUMPI PUSH2 0x55CA PUSH2 0x4B7B JUMP JUMPDEST JUMPDEST SWAP3 SWAP2 POP POP JUMP JUMPDEST PUSH32 0x4E487B7100000000000000000000000000000000000000000000000000000000 PUSH1 0x0 MSTORE PUSH1 0x12 PUSH1 0x4 MSTORE PUSH1 0x24 PUSH1 0x0 REVERT JUMPDEST PUSH1 0x0 PUSH2 0x560B DUP3 PUSH2 0x3B29 JUMP JUMPDEST SWAP2 POP PUSH2 0x5616 DUP4 PUSH2 0x3B29 JUMP JUMPDEST SWAP3 POP DUP3 PUSH2 0x5626 JUMPI PUSH2 0x5625 PUSH2 0x55D1 JUMP JUMPDEST JUMPDEST DUP3 DUP3 DIV SWAP1 POP SWAP3 SWAP2 POP POP JUMP JUMPDEST PUSH1 0x0 PUSH2 0x563C DUP3 PUSH2 0x3B29 JUMP JUMPDEST SWAP2 POP PUSH2 0x5647 DUP4 PUSH2 0x3B29 JUMP JUMPDEST SWAP3 POP DUP3 DUP3 MUL PUSH2 0x5655 DUP2 PUSH2 0x3B29 JUMP JUMPDEST SWAP2 POP DUP3 DUP3 DIV DUP5 EQ DUP4 ISZERO OR PUSH2 0x566C JUMPI PUSH2 0x566B PUSH2 0x4B7B JUMP JUMPDEST JUMPDEST POP SWAP3 SWAP2 POP POP JUMP JUMPDEST PUSH1 0x0 DUP2 MLOAD SWAP1 POP SWAP2 SWAP1 POP JUMP JUMPDEST PUSH1 0x0 DUP3 DUP3 MSTORE PUSH1 0x20 DUP3 ADD SWAP1 POP SWAP3 SWAP2 POP POP JUMP JUMPDEST PUSH1 0x0 PUSH2 0x569A DUP3 PUSH2 0x5673 JUMP JUMPDEST PUSH2 0x56A4 DUP2 DUP6 PUSH2 0x567E JUMP JUMPDEST SWAP4 POP PUSH2 0x56B4 DUP2 DUP6 PUSH1 0x20 DUP7 ADD PUSH2 0x3A93 JUMP JUMPDEST PUSH2 0x56BD DUP2 PUSH2 0x3ABD JUMP JUMPDEST DUP5 ADD SWAP2 POP POP SWAP3 SWAP2 POP POP JUMP JUMPDEST PUSH1 0x0 PUSH1 0x80 DUP3 ADD SWAP1 POP PUSH2 0x56DD PUSH1 0x0 DUP4 ADD DUP8 PUSH2 0x3BBE JUMP JUMPDEST PUSH2 0x56EA PUSH1 0x20 DUP4 ADD DUP7 PUSH2 0x3BBE JUMP JUMPDEST PUSH2 0x56F7 PUSH1 0x40 DUP4 ADD DUP6 PUSH2 0x3C81 JUMP JUMPDEST DUP2 DUP2 SUB PUSH1 0x60 DUP4 ADD MSTORE PUSH2 0x5709 DUP2 DUP5 PUSH2 0x568F JUMP JUMPDEST SWAP1 POP SWAP6 SWAP5 POP POP POP POP POP JUMP JUMPDEST PUSH1 0x0 DUP2 MLOAD SWAP1 POP PUSH2 0x5723 DUP2 PUSH2 0x39E8 JUMP JUMPDEST SWAP3 SWAP2 POP POP JUMP JUMPDEST PUSH1 0x0 PUSH1 0x20 DUP3 DUP5 SUB SLT ISZERO PUSH2 0x573F JUMPI PUSH2 0x573E PUSH2 0x39B2 JUMP JUMPDEST JUMPDEST PUSH1 0x0 PUSH2 0x574D DUP5 DUP3 DUP6 ADD PUSH2 0x5714 JUMP JUMPDEST SWAP2 POP POP SWAP3 SWAP2 POP POP JUMP JUMPDEST PUSH1 0x0 DUP2 PUSH1 0xF8 SHL SWAP1 POP SWAP2 SWAP1 POP JUMP JUMPDEST PUSH1 0x0 PUSH2 0x576E DUP3 PUSH2 0x5756 JUMP JUMPDEST SWAP1 POP SWAP2 SWAP1 POP JUMP JUMPDEST PUSH2 0x5786 PUSH2 0x5781 DUP3 PUSH2 0x3F7B JUMP JUMPDEST PUSH2 0x5763 JUMP JUMPDEST DUP3 MSTORE POP POP JUMP JUMPDEST PUSH1 0x0 PUSH2 0x5798 DUP3 DUP10 PUSH2 0x5390 JUMP JUMPDEST SWAP2 POP PUSH2 0x57A4 DUP3 DUP9 PUSH2 0x5390 JUMP JUMPDEST SWAP2 POP PUSH2 0x57B0 DUP3 DUP8 PUSH2 0x5390 JUMP JUMPDEST SWAP2 POP PUSH2 0x57BC DUP3 DUP7 PUSH2 0x5775 JUMP JUMPDEST PUSH1 0x1 DUP3 ADD SWAP2 POP PUSH2 0x57CC DUP3 DUP6 PUSH2 0x5390 JUMP JUMPDEST SWAP2 POP PUSH2 0x57D8 DUP3 DUP5 PUSH2 0x5775 JUMP JUMPDEST PUSH1 0x1 DUP3 ADD SWAP2 POP DUP2 SWAP1 POP SWAP8 SWAP7 POP POP POP POP POP POP POP JUMP JUMPDEST PUSH2 0x57FD PUSH2 0x57F8 DUP3 PUSH2 0x4724 JUMP JUMPDEST PUSH2 0x5763 JUMP JUMPDEST DUP3 MSTORE POP POP JUMP JUMPDEST PUSH1 0x0 PUSH2 0x580F DUP3 DUP12 PUSH2 0x5390 JUMP JUMPDEST SWAP2 POP PUSH2 0x581B DUP3 DUP11 PUSH2 0x5390 JUMP JUMPDEST SWAP2 POP PUSH2 0x5827 DUP3 DUP10 PUSH2 0x5390 JUMP JUMPDEST SWAP2 POP PUSH2 0x5833 DUP3 DUP9 PUSH2 0x5390 JUMP JUMPDEST SWAP2 POP PUSH2 0x583F DUP3 DUP8 PUSH2 0x5390 JUMP JUMPDEST SWAP2 POP PUSH2 0x584B DUP3 DUP7 PUSH2 0x5390 JUMP JUMPDEST SWAP2 POP PUSH2 0x5857 DUP3 DUP6 PUSH2 0x57EC JUMP JUMPDEST PUSH1 0x1 DUP3 ADD SWAP2 POP PUSH2 0x5867 DUP3 DUP5 PUSH2 0x5390 JUMP JUMPDEST SWAP2 POP DUP2 SWAP1 POP SWAP10 SWAP9 POP POP POP POP POP POP POP POP POP JUMP JUMPDEST PUSH1 0x0 PUSH2 0x5885 DUP3 DUP8 PUSH2 0x5390 JUMP JUMPDEST SWAP2 POP PUSH2 0x5891 DUP3 DUP7 PUSH2 0x5390 JUMP JUMPDEST SWAP2 POP PUSH2 0x589D DUP3 DUP6 PUSH2 0x5390 JUMP JUMPDEST SWAP2 POP PUSH2 0x58A9 DUP3 DUP5 PUSH2 0x5390 JUMP JUMPDEST SWAP2 POP DUP2 SWAP1 POP SWAP6 SWAP5 POP POP POP POP POP JUMP JUMPDEST PUSH1 0x0 PUSH1 0x40 DUP3 ADD SWAP1 POP PUSH2 0x58CC PUSH1 0x0 DUP4 ADD DUP6 PUSH2 0x3BBE JUMP JUMPDEST PUSH2 0x58D9 PUSH1 0x20 DUP4 ADD DUP5 PUSH2 0x3D61 JUMP JUMPDEST SWAP4 SWAP3 POP POP POP JUMP JUMPDEST PUSH1 0x0 PUSH2 0x58EB DUP3 PUSH2 0x3B29 JUMP JUMPDEST SWAP2 POP PUSH2 0x58F6 DUP4 PUSH2 0x3B29 JUMP JUMPDEST SWAP3 POP DUP3 DUP3 SUB SWAP1 POP DUP2 DUP2 GT ISZERO PUSH2 0x590E JUMPI PUSH2 0x590D PUSH2 0x4B7B JUMP JUMPDEST JUMPDEST SWAP3 SWAP2 POP POP JUMP JUMPDEST PUSH32 0x4E487B7100000000000000000000000000000000000000000000000000000000 PUSH1 0x0 MSTORE PUSH1 0x31 PUSH1 0x4 MSTORE PUSH1 0x24 PUSH1 0x0 REVERT INVALID 0x22 PUSH30 0x5D2C22696D616765223A2022646174613A696D6167652F7376672B786D6C EXTCODESIZE PUSH3 0x617365 CALLDATASIZE CALLVALUE 0x2C EXTCODECOPY PUSH20 0x76672077696474683D2238303022206865696768 PUSH21 0x3D22383030222076696577426F783D223020302038 ADDRESS ADDRESS KECCAK256 CODESIZE ADDRESS ADDRESS 0x22 KECCAK256 PUSH25 0x6D6C6E733D22687474703A2F2F7777772E77332E6F72672F32 ADDRESS ADDRESS ADDRESS 0x2F PUSH20 0x7667223E227D2C7B2274726169745F7479706522 GASPRICE KECCAK256 0x22 PUSH14 0x61696E436F6C6F72222C2276616C PUSH22 0x65223A20223C6C696E652078313D2233333022207931 RETURNDATASIZE 0x22 CALLER ADDRESS ADDRESS 0x22 KECCAK256 PUSH25 0x323D22343730222079323D2233383022207374726F6B653D22 0x23 CODESIZE PUSH2 0x3666 CALLER ADDRESS 0x22 KECCAK256 PUSH20 0x74726F6B652D77696474683D2233222F3E227D2C PUSH28 0x2274726169745F74797065223A2022776569676874496E4772616D73 0x22 0x2C 0x22 PUSH23 0x616C7565223A20223C706F6C79676F6E20706F696E7473 RETURNDATASIZE 0x22 CALLVALUE ADDRESS ADDRESS 0x2C ORIGIN CALLDATALOAD ADDRESS KECCAK256 CALLVALUE CALLDATACOPY ADDRESS 0x2C CALLER ADDRESS ADDRESS KECCAK256 CALLVALUE CALLDATACOPY ADDRESS 0x2C CALLER CODESIZE ADDRESS KECCAK256 CALLVALUE ADDRESS ADDRESS 0x2C CALLVALUE CALLER ADDRESS KECCAK256 CALLER CALLER ADDRESS 0x2C CALLER CODESIZE ADDRESS KECCAK256 CALLER CALLER ADDRESS 0x2C CALLER ADDRESS ADDRESS 0x22 KECCAK256 PUSH7 0x696C6C3D227768 PUSH10 0x746522207374726F6B65 RETURNDATASIZE 0x22 0x23 CODESIZE PUSH2 0x3666 CALLER ADDRESS 0x22 KECCAK256 PUSH20 0x74726F6B652D77696474683D2235222F3E222C20 0x22 PUSH2 0x7474 PUSH19 0x696275746573223A205B7B2274726169745F74 PUSH26 0x7065223A20224A6577656C65724E616D65222C2276616C756522 GASPRICE KECCAK256 0x22 EXTCODECOPY PUSH21 0x65787420783D223530252220793D22363030222066 PUSH16 0x6E742D73697A653D2234302220666F6E PUSH21 0x2D66616D696C793D22417269616C2C2073616E732D PUSH20 0x657269662220666F6E742D7765696768743D2262 PUSH16 0x6C64222066696C6C3D22236434616633 CALLDATACOPY 0x22 KECCAK256 PUSH21 0x6578742D616E63686F723D226D6964646C65223E3C PUSH19 0x65637420783D22302220793D22302220776964 PUSH21 0x683D2238303022206865696768743D223830302220 PUSH7 0x696C6C3D222366 CODESIZE PUSH7 0x39666122207374 PUSH19 0x6F6B653D222364346166333722207374726F6B PUSH6 0x2D7769647468 RETURNDATASIZE 0x22 BALANCE ADDRESS 0x22 KECCAK256 PUSH19 0x783D223230222072793D223230222F3E3C7265 PUSH4 0x7420783D 0x22 ORIGIN ADDRESS ADDRESS 0x22 KECCAK256 PUSH26 0x3D22363530222077696474683D2234303022206865696768743D 0x22 CODESIZE ADDRESS 0x22 KECCAK256 PUSH7 0x696C6C3D227768 PUSH10 0x746522207374726F6B65 RETURNDATASIZE 0x22 0x23 CALLER CALLER CALLER 0x22 KECCAK256 PUSH20 0x74726F6B652D77696474683D2233222072783D22 BALANCE ADDRESS 0x22 KECCAK256 PUSH19 0x793D223130222F3E3C6C696E652078313D2234 ADDRESS ADDRESS 0x22 KECCAK256 PUSH26 0x313D22323530222078323D22343030222079323D223433302220 PUSH20 0x74726F6B653D222338613666333022207374726F PUSH12 0x652D77696474683D2233222F RETURNDATACOPY COINBASE TIMESTAMP NUMBER PREVRANDAO GASLIMIT CHAINID SELFBALANCE BASEFEE BLOBHASH BLOBBASEFEE 0x4B 0x4C 0x4D 0x4E 0x4F POP MLOAD MSTORE MSTORE8 SLOAD SSTORE JUMP JUMPI PC MSIZE GAS PUSH2 0x6263 PUSH5 0x6566676869 PUSH11 0x6B6C6D6E6F707172737475 PUSH23 0x7778797A303132333435363738392B2F227D2C7B227472 PUSH2 0x6974 PUSH0 PUSH21 0x797065223A20226D61696E4D6174657269616C222C 0x22 PUSH23 0x616C7565223A20223C656C6C697073652063783D223430 ADDRESS 0x22 KECCAK256 PUSH4 0x793D2234 ORIGIN ADDRESS 0x22 KECCAK256 PUSH19 0x783D22313830222072793D2231303022206669 PUSH13 0x6C3D226E6F6E6522207374726F PUSH12 0x653D22236434616633372220 PUSH20 0x74726F6B652D77696474683D223230222F3E3C65 PUSH13 0x6C697073652063783D22343030 0x22 KECCAK256 PUSH4 0x793D2234 ORIGIN ADDRESS 0x22 KECCAK256 PUSH19 0x783D22313430222072793D223830222066696C PUSH13 0x3D226E6F6E6522207374726F6B PUSH6 0x3D2223663866 CODECOPY PUSH7 0x6122207374726F PUSH12 0x652D77696474683D22323022 0x2F RETURNDATACOPY EXTCODECOPY PUSH13 0x696E652078313D223437302220 PUSH26 0x313D22333030222078323D22333330222079323D223338302220 PUSH20 0x74726F6B653D222338613666333022207374726F PUSH12 0x652D77696474683D2233222F RETURNDATACOPY EXTCODECOPY PUSH21 0x65787420783D223530252220793D22313230222066 PUSH16 0x6E742D73697A653D2235302220666F6E PUSH21 0x2D66616D696C793D22417269616C2C2073616E732D PUSH20 0x657269662220666F6E742D7765696768743D2262 PUSH16 0x6C64222066696C6C3D22233333332220 PUSH21 0x6578742D616E63686F723D226D6964646C65223E3C PUSH21 0x65787420783D223530252220793D22373030222066 PUSH16 0x6E742D73697A653D2233302220666F6E PUSH21 0x2D66616D696C793D22417269616C2C2073616E732D PUSH20 0x65726966222066696C6C3D222333333322207465 PUSH25 0x742D616E63686F723D226D6964646C65223E7B226E616D6522 GASPRICE KECCAK256 0x22 SELFBALANCE PUSH16 0x6C64436861696E204365727469666963 PUSH2 0x7465 KECCAK256 0x4E CHAINID SLOAD KECCAK256 0x23 0x22 PUSH30 0x2C7B2274726169745F74797065223A202243657274696669636174654C65 PUSH23 0x656C222C2276616C7565223A2022227D2C7B2274726169 PUSH21 0x5F74797065223A20226D61696E47656D53746F6E65 PUSH20 0x222C2276616C7565223A2022A264697066735822 SLT KECCAK256 DUP5 PREVRANDAO SGT 0xCA PUSH25 0x203A3216AE5DB9260ADEBF732DC21320232B8BE7116442CCD7 0x28 SWAP9 PUSH5 0x736F6C6343 STOP ADDMOD SHR STOP CALLER "},"methodIdentifiers":{"Base64Encode(bytes)":"832cc77e","DEFAULT_ADMIN_ROLE()":"a217fddf","FALSE()":"4ff7986e","TRUE()":"5994d984","activateJeweler(address)":"29acc209","admin()":"f851a440","approve(address,uint256)":"095ea7b3","balanceOf(address)":"70a08231","createCertificate(uint8[],uint8[],uint8,string,uint8,string,uint8)":"41cc7c73","createCustomer(string,string,string)":"55b059e8","createJeweler(string,string,string)":"55ed5fe8","desactivateJeweler(address)":"081ba2d5","getApproved(uint256)":"081812fc","getCustomerCount()":"2027d746","getJewelerCount()":"8c271777","getOneCertificate(uint256)":"bab859a5","getOneCustomer(address)":"ee7bf0ee","getOneJeweler(address)":"57a00ccf","getRoleAdmin(bytes32)":"248a9ca3","grantRole(bytes32,address)":"2f2ff15d","hasRole(bytes32,address)":"91d14854","isApprovedForAll(address,address)":"e985e9c5","name()":"06fdde03","ownerOf(uint256)":"6352211e","renounceRole(bytes32,address)":"36568abe","revokeRole(bytes32,address)":"d547741f","safeMint(address)":"40d097c3","safeTransferFrom(address,address,uint256)":"42842e0e","safeTransferFrom(address,address,uint256,bytes)":"b88d4fde","setApprovalForAll(address,bool)":"a22cb465","supportsInterface(bytes4)":"01ffc9a7","symbol()":"95d89b41","tokenByIndex(uint256)":"4f6ccce7","tokenOfOwnerByIndex(address,uint256)":"2f745c59","tokenURI(uint256)":"c87b56dd","totalSupply()":"18160ddd","transferFrom(address,address,uint256)":"23b872dd","updateCertificate()":"899f9d0d","updateCustomer(string,string,string,bool)":"f2e0bc58","updateJeweler(string,string,string,bool)":"2b3dd38b"}}}}}