{"contracts/GoldChain.sol":{"GoldChain":{"abi":[{"inputs":[{"internalType":"contract IDataStorage","name":"_dataStorage","type":"address"}],"stateMutability":"nonpayable","type":"constructor"},{"inputs":[],"name":"AccessControlBadConfirmation","type":"error"},{"inputs":[{"internalType":"address","name":"account","type":"address"},{"internalType":"bytes32","name":"neededRole","type":"bytes32"}],"name":"AccessControlUnauthorizedAccount","type":"error"},{"inputs":[],"name":"CustomerIsAlreadyRegistered","type":"error"},{"inputs":[],"name":"CustomerNotExists","type":"error"},{"inputs":[],"name":"JewelerIsAlreadyRegistered","type":"error"},{"inputs":[],"name":"JewelerNotExists","type":"error"},{"anonymous":false,"inputs":[{"indexed":true,"internalType":"bytes32","name":"role","type":"bytes32"},{"indexed":true,"internalType":"bytes32","name":"previousAdminRole","type":"bytes32"},{"indexed":true,"internalType":"bytes32","name":"newAdminRole","type":"bytes32"}],"name":"RoleAdminChanged","type":"event"},{"anonymous":false,"inputs":[{"indexed":true,"internalType":"bytes32","name":"role","type":"bytes32"},{"indexed":true,"internalType":"address","name":"account","type":"address"},{"indexed":true,"internalType":"address","name":"sender","type":"address"}],"name":"RoleGranted","type":"event"},{"anonymous":false,"inputs":[{"indexed":true,"internalType":"bytes32","name":"role","type":"bytes32"},{"indexed":true,"internalType":"address","name":"account","type":"address"},{"indexed":true,"internalType":"address","name":"sender","type":"address"}],"name":"RoleRevoked","type":"event"},{"anonymous":false,"inputs":[{"indexed":false,"internalType":"address","name":"jewelerAddress","type":"address"},{"indexed":false,"internalType":"uint256","name":"timestamp","type":"uint256"},{"indexed":false,"internalType":"uint256","name":"certificateId","type":"uint256"}],"name":"certificateCreated","type":"event"},{"anonymous":false,"inputs":[{"indexed":false,"internalType":"address","name":"customerAddress","type":"address"},{"indexed":false,"internalType":"uint256","name":"timestamp","type":"uint256"}],"name":"customerCreated","type":"event"},{"anonymous":false,"inputs":[{"indexed":false,"internalType":"address","name":"customerAddress","type":"address"},{"indexed":false,"internalType":"uint256","name":"timestamp","type":"uint256"}],"name":"customerUpdated","type":"event"},{"anonymous":false,"inputs":[{"indexed":false,"internalType":"address","name":"jewelerAddress","type":"address"},{"indexed":false,"internalType":"uint256","name":"timestamp","type":"uint256"}],"name":"jewelerCreated","type":"event"},{"anonymous":false,"inputs":[{"indexed":false,"internalType":"address","name":"jewelerAddress","type":"address"},{"indexed":false,"internalType":"uint256","name":"timestamp","type":"uint256"}],"name":"jewelerUpdated","type":"event"},{"inputs":[],"name":"ADMIN","outputs":[{"internalType":"bytes32","name":"","type":"bytes32"}],"stateMutability":"view","type":"function"},{"inputs":[],"name":"CERTIFICATOR_ROLE","outputs":[{"internalType":"bytes32","name":"","type":"bytes32"}],"stateMutability":"view","type":"function"},{"inputs":[],"name":"CUSTOMERS_ROLE","outputs":[{"internalType":"bytes32","name":"","type":"bytes32"}],"stateMutability":"view","type":"function"},{"inputs":[],"name":"DEFAULT_ADMIN_ROLE","outputs":[{"internalType":"bytes32","name":"","type":"bytes32"}],"stateMutability":"view","type":"function"},{"inputs":[],"name":"FALSE","outputs":[{"internalType":"bool","name":"","type":"bool"}],"stateMutability":"view","type":"function"},{"inputs":[],"name":"JEWELERS_ROLE","outputs":[{"internalType":"bytes32","name":"","type":"bytes32"}],"stateMutability":"view","type":"function"},{"inputs":[],"name":"TRUE","outputs":[{"internalType":"bool","name":"","type":"bool"}],"stateMutability":"view","type":"function"},{"inputs":[{"internalType":"address","name":"_jewelerAddress","type":"address"}],"name":"activateJeweler","outputs":[{"internalType":"bool","name":"","type":"bool"}],"stateMutability":"nonpayable","type":"function"},{"inputs":[],"name":"admin","outputs":[{"internalType":"address","name":"","type":"address"}],"stateMutability":"view","type":"function"},{"inputs":[{"internalType":"uint8[]","name":"_materials","type":"uint8[]"},{"internalType":"uint8[]","name":"_gemStones","type":"uint8[]"},{"internalType":"uint8","name":"_weightInGrams","type":"uint8"},{"internalType":"string","name":"_mainColor","type":"string"},{"internalType":"enum IDataStorage.CertificateLevel","name":"_level","type":"uint8"},{"internalType":"string","name":"_JewelerName","type":"string"},{"internalType":"enum IDataStorage.CertificateStatus","name":"_status","type":"uint8"}],"name":"createCertificate","outputs":[{"internalType":"bool","name":"","type":"bool"}],"stateMutability":"nonpayable","type":"function"},{"inputs":[{"internalType":"string","name":"_name","type":"string"},{"internalType":"string","name":"_email","type":"string"}],"name":"createCustomer","outputs":[{"internalType":"bool","name":"","type":"bool"}],"stateMutability":"nonpayable","type":"function"},{"inputs":[{"internalType":"string","name":"_name","type":"string"},{"internalType":"string","name":"_email","type":"string"},{"internalType":"string","name":"_location","type":"string"}],"name":"createJeweler","outputs":[{"internalType":"bool","name":"","type":"bool"}],"stateMutability":"nonpayable","type":"function"},{"inputs":[{"internalType":"address","name":"_jewelerAddress","type":"address"}],"name":"desactivateJeweler","outputs":[{"internalType":"bool","name":"","type":"bool"}],"stateMutability":"nonpayable","type":"function"},{"inputs":[],"name":"getCustomerCount","outputs":[{"internalType":"uint256","name":"","type":"uint256"}],"stateMutability":"view","type":"function"},{"inputs":[],"name":"getJewelerCount","outputs":[{"internalType":"uint256","name":"","type":"uint256"}],"stateMutability":"view","type":"function"},{"inputs":[{"internalType":"address","name":"_customerAddress","type":"address"}],"name":"getOneCustomer","outputs":[{"components":[{"internalType":"uint256","name":"created_at","type":"uint256"},{"internalType":"uint256","name":"updated_at","type":"uint256"},{"internalType":"string","name":"name","type":"string"},{"internalType":"string","name":"email","type":"string"},{"internalType":"bool","name":"visible","type":"bool"},{"internalType":"uint256[]","name":"OwnedCertificateIds","type":"uint256[]"}],"internalType":"struct IDataStorage.Customer","name":"","type":"tuple"}],"stateMutability":"view","type":"function"},{"inputs":[{"internalType":"address","name":"_jewelerAddress","type":"address"}],"name":"getOneJeweler","outputs":[{"components":[{"internalType":"uint256","name":"created_at","type":"uint256"},{"internalType":"uint256","name":"updated_at","type":"uint256"},{"internalType":"string","name":"name","type":"string"},{"internalType":"string","name":"email","type":"string"},{"internalType":"string","name":"location","type":"string"},{"internalType":"uint256[]","name":"CreatedCertificateIds","type":"uint256[]"},{"internalType":"bool","name":"available","type":"bool"},{"internalType":"bool","name":"visible","type":"bool"}],"internalType":"struct IDataStorage.Jeweler","name":"","type":"tuple"}],"stateMutability":"view","type":"function"},{"inputs":[{"internalType":"bytes32","name":"role","type":"bytes32"}],"name":"getRoleAdmin","outputs":[{"internalType":"bytes32","name":"","type":"bytes32"}],"stateMutability":"view","type":"function"},{"inputs":[{"internalType":"bytes32","name":"role","type":"bytes32"},{"internalType":"address","name":"account","type":"address"}],"name":"grantRole","outputs":[],"stateMutability":"nonpayable","type":"function"},{"inputs":[{"internalType":"bytes32","name":"role","type":"bytes32"},{"internalType":"address","name":"account","type":"address"}],"name":"hasRole","outputs":[{"internalType":"bool","name":"","type":"bool"}],"stateMutability":"view","type":"function"},{"inputs":[{"internalType":"bytes32","name":"role","type":"bytes32"},{"internalType":"address","name":"callerConfirmation","type":"address"}],"name":"renounceRole","outputs":[],"stateMutability":"nonpayable","type":"function"},{"inputs":[{"internalType":"bytes32","name":"role","type":"bytes32"},{"internalType":"address","name":"account","type":"address"}],"name":"revokeRole","outputs":[],"stateMutability":"nonpayable","type":"function"},{"inputs":[{"internalType":"bytes4","name":"interfaceId","type":"bytes4"}],"name":"supportsInterface","outputs":[{"internalType":"bool","name":"","type":"bool"}],"stateMutability":"view","type":"function"},{"inputs":[],"name":"transertCertificate","outputs":[{"internalType":"bool","name":"","type":"bool"}],"stateMutability":"nonpayable","type":"function"},{"inputs":[],"name":"updateCertificate","outputs":[{"internalType":"bool","name":"","type":"bool"}],"stateMutability":"nonpayable","type":"function"},{"inputs":[{"internalType":"string","name":"_name","type":"string"},{"internalType":"string","name":"_email","type":"string"},{"internalType":"bool","name":"_visible","type":"bool"}],"name":"updateCustomer","outputs":[{"internalType":"bool","name":"","type":"bool"}],"stateMutability":"nonpayable","type":"function"},{"inputs":[{"internalType":"string","name":"_name","type":"string"},{"internalType":"string","name":"_email","type":"string"},{"internalType":"string","name":"_location","type":"string"},{"internalType":"bool","name":"_visible","type":"bool"}],"name":"updateJeweler","outputs":[{"internalType":"bool","name":"","type":"bool"}],"stateMutability":"nonpayable","type":"function"}],"evm":{"bytecode":{"linkReferences":{},"object":"608060405234801561001057600080fd5b50604051612eef380380612eef833981810160405281019061003291906102e3565b6100456000801b336100ff60201b60201c565b506100767fdf8b4c520ffe197c5343c6f5aec59570151ef9a492f2c624fd45ddde6135ec42336100ff60201b60201c565b5033600260006101000a81548173ffffffffffffffffffffffffffffffffffffffff021916908373ffffffffffffffffffffffffffffffffffffffff16021790555080600160006101000a81548173ffffffffffffffffffffffffffffffffffffffff021916908373ffffffffffffffffffffffffffffffffffffffff16021790555050610310565b600061011183836101fc60201b60201c565b6101f157600160008085815260200190815260200160002060000160008473ffffffffffffffffffffffffffffffffffffffff1673ffffffffffffffffffffffffffffffffffffffff16815260200190815260200160002060006101000a81548160ff02191690831515021790555061018e61026660201b60201c565b73ffffffffffffffffffffffffffffffffffffffff168273ffffffffffffffffffffffffffffffffffffffff16847f2f8788117e7eff1d82e926ec794901d17c78024a50270940304540a733656f0d60405160405180910390a4600190506101f6565b600090505b92915050565b600080600084815260200190815260200160002060000160008373ffffffffffffffffffffffffffffffffffffffff1673ffffffffffffffffffffffffffffffffffffffff16815260200190815260200160002060009054906101000a900460ff16905092915050565b600033905090565b600080fd5b600073ffffffffffffffffffffffffffffffffffffffff82169050919050565b600061029e82610273565b9050919050565b60006102b082610293565b9050919050565b6102c0816102a5565b81146102cb57600080fd5b50565b6000815190506102dd816102b7565b92915050565b6000602082840312156102f9576102f861026e565b5b6000610307848285016102ce565b91505092915050565b612bd08061031f6000396000f3fe608060405234801561001057600080fd5b50600436106101a95760003560e01c806355ed5fe8116100f9578063a1e5a38a11610097578063c43fe7c411610071578063c43fe7c414610510578063d547741f14610540578063ee7bf0ee1461055c578063f851a4401461058c576101a9565b8063a1e5a38a146104a4578063a217fddf146104c2578063c21d034f146104e0576101a9565b8063899f9d0d116100d3578063899f9d0d1461041a5780638c2717771461043857806391d1485414610456578063934b4af214610486576101a9565b806355ed5fe81461039c57806357a00ccf146103cc5780635994d984146103fc576101a9565b806329acc209116101665780632f2ff15d116101405780632f2ff15d1461031657806336568abe1461033257806341cc7c731461034e5780634ff7986e1461037e576101a9565b806329acc209146102985780632a0acc6a146102c85780632b3dd38b146102e6576101a9565b806301ffc9a7146101ae578063081ba2d5146101de5780630cdb5cb51461020e5780632027d7461461022c57806322f537ce1461024a578063248a9ca314610268575b600080fd5b6101c860048036038101906101c39190611816565b6105aa565b6040516101d5919061185e565b60405180910390f35b6101f860048036038101906101f391906118d7565b610624565b604051610205919061185e565b60405180910390f35b6102166106f9565b604051610223919061191d565b60405180910390f35b61023461071d565b6040516102419190611951565b60405180910390f35b6102526107b5565b60405161025f919061191d565b60405180910390f35b610282600480360381019061027d9190611998565b6107d9565b60405161028f919061191d565b60405180910390f35b6102b260048036038101906102ad91906118d7565b6107f8565b6040516102bf919061185e565b60405180910390f35b6102d06108cd565b6040516102dd919061191d565b60405180910390f35b61030060048036038101906102fb9190611a56565b6108f1565b60405161030d919061185e565b60405180910390f35b610330600480360381019061032b9190611b1f565b610af1565b005b61034c60048036038101906103479190611b1f565b610b13565b005b61036860048036038101906103639190611c38565b610b8e565b604051610375919061185e565b60405180910390f35b610386610c81565b604051610393919061185e565b60405180910390f35b6103b660048036038101906103b19190611d5c565b610c86565b6040516103c3919061185e565b60405180910390f35b6103e660048036038101906103e191906118d7565b610e0c565b6040516103f39190612032565b60405180910390f35b610404610ebc565b604051610411919061185e565b60405180910390f35b610422610ec1565b60405161042f919061185e565b60405180910390f35b610440610eca565b60405161044d9190611951565b60405180910390f35b610470600480360381019061046b9190611b1f565b610f62565b60405161047d919061185e565b60405180910390f35b61048e610fcc565b60405161049b919061191d565b60405180910390f35b6104ac610ff0565b6040516104b9919061185e565b60405180910390f35b6104ca610ff9565b6040516104d7919061191d565b60405180910390f35b6104fa60048036038101906104f59190612054565b611000565b604051610507919061185e565b60405180910390f35b61052a600480360381019061052591906120e9565b6111fa565b604051610537919061185e565b60405180910390f35b61055a60048036038101906105559190611b1f565b611377565b005b610576600480360381019061057191906118d7565b611399565b6040516105839190612201565b60405180910390f35b610594611449565b6040516105a19190612232565b60405180910390f35b60007f7965db0b000000000000000000000000000000000000000000000000000000007bffffffffffffffffffffffffffffffffffffffffffffffffffffffff1916827bffffffffffffffffffffffffffffffffffffffffffffffffffffffff1916148061061d575061061c8261146f565b5b9050919050565b60007fdf8b4c520ffe197c5343c6f5aec59570151ef9a492f2c624fd45ddde6135ec42610650816114d9565b600160009054906101000a900473ffffffffffffffffffffffffffffffffffffffff1673ffffffffffffffffffffffffffffffffffffffff1663081ba2d5846040518263ffffffff1660e01b81526004016106ab9190612232565b6020604051808303816000875af11580156106ca573d6000803e3d6000fd5b505050506040513d601f19601f820116820180604052508101906106ee9190612262565b506001915050919050565b7f61e6a4bb6bca8aa1f17c71895c1ab1bf9c06c812442a0a16aad9f0837c23ca7981565b6000600160009054906101000a900473ffffffffffffffffffffffffffffffffffffffff1673ffffffffffffffffffffffffffffffffffffffff16632027d7466040518163ffffffff1660e01b8152600401602060405180830381865afa15801561078c573d6000803e3d6000fd5b505050506040513d601f19601f820116820180604052508101906107b091906122bb565b905090565b7faf6786efc154b345802554f1dea27e60ea4c3393b6b38eb8438e22c20e088bd281565b6000806000838152602001908152602001600020600101549050919050565b60007fdf8b4c520ffe197c5343c6f5aec59570151ef9a492f2c624fd45ddde6135ec42610824816114d9565b600160009054906101000a900473ffffffffffffffffffffffffffffffffffffffff1673ffffffffffffffffffffffffffffffffffffffff166329acc209846040518263ffffffff1660e01b815260040161087f9190612232565b6020604051808303816000875af115801561089e573d6000803e3d6000fd5b505050506040513d601f19601f820116820180604052508101906108c29190612262565b506001915050919050565b7fdf8b4c520ffe197c5343c6f5aec59570151ef9a492f2c624fd45ddde6135ec4281565b60007f61e6a4bb6bca8aa1f17c71895c1ab1bf9c06c812442a0a16aad9f0837c23ca7961091d816114d9565b6000600160009054906101000a900473ffffffffffffffffffffffffffffffffffffffff1673ffffffffffffffffffffffffffffffffffffffff166357a00ccf336040518263ffffffff1660e01b815260040161097a9190612232565b600060405180830381865afa158015610997573d6000803e3d6000fd5b505050506040513d6000823e3d601f19601f820116820180604052508101906109c09190612610565b60000151036109fb576040517f1d65442900000000000000000000000000000000000000000000000000000000815260040160405180910390fd5b600160009054906101000a900473ffffffffffffffffffffffffffffffffffffffff1673ffffffffffffffffffffffffffffffffffffffff1663a735e5de338b8b8b8b8b8b8b6040518963ffffffff1660e01b8152600401610a649897969594939291906126a6565b6020604051808303816000875af1158015610a83573d6000803e3d6000fd5b505050506040513d601f19601f82011682018060405250810190610aa79190612262565b507fc21195a7f73acb0112d9942f6c5c02acc3d8d2c74ab81a6c28f4f492dac933b83342604051610ad9929190612714565b60405180910390a16001915050979650505050505050565b610afa826107d9565b610b03816114d9565b610b0d83836114ed565b50505050565b610b1b6115de565b73ffffffffffffffffffffffffffffffffffffffff168173ffffffffffffffffffffffffffffffffffffffff1614610b7f576040517f6697b23200000000000000000000000000000000000000000000000000000000815260040160405180910390fd5b610b8982826115e6565b505050565b60007f61e6a4bb6bca8aa1f17c71895c1ab1bf9c06c812442a0a16aad9f0837c23ca79610bba816114d9565b600160009054906101000a900473ffffffffffffffffffffffffffffffffffffffff1673ffffffffffffffffffffffffffffffffffffffff166364df69e78e8e8e8e8e8e8e8e8e8e8e6040518c63ffffffff1660e01b8152600401610c299b9a999897969594939291906128ce565b6020604051808303816000875af1158015610c48573d6000803e3d6000fd5b505050506040513d601f19601f82011682018060405250810190610c6c9190612262565b5060019150509b9a5050505050505050505050565b600081565b6000610cb27f61e6a4bb6bca8aa1f17c71895c1ab1bf9c06c812442a0a16aad9f0837c23ca7933610f62565b15610ce9576040517f9e5ae09300000000000000000000000000000000000000000000000000000000815260040160405180910390fd5b610d137f61e6a4bb6bca8aa1f17c71895c1ab1bf9c06c812442a0a16aad9f0837c23ca79336114ed565b50600160009054906101000a900473ffffffffffffffffffffffffffffffffffffffff1673ffffffffffffffffffffffffffffffffffffffff16637208ca1933898989898989600060016040518a63ffffffff1660e01b8152600401610d8199989796959493929190612961565b6020604051808303816000875af1158015610da0573d6000803e3d6000fd5b505050506040513d601f19601f82011682018060405250810190610dc49190612262565b507fa12abd8201760a4e094635a878d94e4e31ee41204057e1ba4081b4c8ba7df8a83342604051610df6929190612714565b60405180910390a1600190509695505050505050565b610e14611729565b600160009054906101000a900473ffffffffffffffffffffffffffffffffffffffff1673ffffffffffffffffffffffffffffffffffffffff166357a00ccf836040518263ffffffff1660e01b8152600401610e6f9190612232565b600060405180830381865afa158015610e8c573d6000803e3d6000fd5b505050506040513d6000823e3d601f19601f82011682018060405250810190610eb59190612610565b9050919050565b600181565b60006001905090565b6000600160009054906101000a900473ffffffffffffffffffffffffffffffffffffffff1673ffffffffffffffffffffffffffffffffffffffff16638c2717776040518163ffffffff1660e01b8152600401602060405180830381865afa158015610f39573d6000803e3d6000fd5b505050506040513d601f19601f82011682018060405250810190610f5d91906122bb565b905090565b600080600084815260200190815260200160002060000160008373ffffffffffffffffffffffffffffffffffffffff1673ffffffffffffffffffffffffffffffffffffffff16815260200190815260200160002060009054906101000a900460ff16905092915050565b7f8c6ae1b8cac4c99ac9b51ba2b44ec85e94139863fa8d7f1ab8f7e39763b3db4e81565b60006001905090565b6000801b81565b60007faf6786efc154b345802554f1dea27e60ea4c3393b6b38eb8438e22c20e088bd261102c816114d9565b6000600160009054906101000a900473ffffffffffffffffffffffffffffffffffffffff1673ffffffffffffffffffffffffffffffffffffffff1663ee7bf0ee336040518263ffffffff1660e01b81526004016110899190612232565b600060405180830381865afa1580156110a6573d6000803e3d6000fd5b505050506040513d6000823e3d601f19601f820116820180604052508101906110cf9190612ad1565b600001510361110a576040517f4a46a71500000000000000000000000000000000000000000000000000000000815260040160405180910390fd5b600160009054906101000a900473ffffffffffffffffffffffffffffffffffffffff1673ffffffffffffffffffffffffffffffffffffffff1663c5128e053389898989896040518763ffffffff1660e01b815260040161116f96959493929190612b1a565b6020604051808303816000875af115801561118e573d6000803e3d6000fd5b505050506040513d601f19601f820116820180604052508101906111b29190612262565b507f3e981d6fd4c5bd91ef3f68ca28a36322130d52221ab7319ae700e4c417dcc8e333426040516111e4929190612714565b60405180910390a1600191505095945050505050565b60006112267faf6786efc154b345802554f1dea27e60ea4c3393b6b38eb8438e22c20e088bd233610f62565b1561125d576040517f937df23900000000000000000000000000000000000000000000000000000000815260040160405180910390fd5b6112877faf6786efc154b345802554f1dea27e60ea4c3393b6b38eb8438e22c20e088bd2336114ed565b50600160009054906101000a900473ffffffffffffffffffffffffffffffffffffffff1673ffffffffffffffffffffffffffffffffffffffff166378e4d305338787878760016040518763ffffffff1660e01b81526004016112ee96959493929190612b1a565b6020604051808303816000875af115801561130d573d6000803e3d6000fd5b505050506040513d601f19601f820116820180604052508101906113319190612262565b507f9355f2ba77852e61793679ff03cf26231b8175fdfb97dc47490f1b151e6ab0d43342604051611363929190612714565b60405180910390a160019050949350505050565b611380826107d9565b611389816114d9565b61139383836115e6565b50505050565b6113a1611772565b600160009054906101000a900473ffffffffffffffffffffffffffffffffffffffff1673ffffffffffffffffffffffffffffffffffffffff1663ee7bf0ee836040518263ffffffff1660e01b81526004016113fc9190612232565b600060405180830381865afa158015611419573d6000803e3d6000fd5b505050506040513d6000823e3d601f19601f820116820180604052508101906114429190612ad1565b9050919050565b600260009054906101000a900473ffffffffffffffffffffffffffffffffffffffff1681565b60007f01ffc9a7000000000000000000000000000000000000000000000000000000007bffffffffffffffffffffffffffffffffffffffffffffffffffffffff1916827bffffffffffffffffffffffffffffffffffffffffffffffffffffffff1916149050919050565b6114ea816114e56115de565b6116d8565b50565b60006114f98383610f62565b6115d357600160008085815260200190815260200160002060000160008473ffffffffffffffffffffffffffffffffffffffff1673ffffffffffffffffffffffffffffffffffffffff16815260200190815260200160002060006101000a81548160ff0219169083151502179055506115706115de565b73ffffffffffffffffffffffffffffffffffffffff168273ffffffffffffffffffffffffffffffffffffffff16847f2f8788117e7eff1d82e926ec794901d17c78024a50270940304540a733656f0d60405160405180910390a4600190506115d8565b600090505b92915050565b600033905090565b60006115f28383610f62565b156116cd57600080600085815260200190815260200160002060000160008473ffffffffffffffffffffffffffffffffffffffff1673ffffffffffffffffffffffffffffffffffffffff16815260200190815260200160002060006101000a81548160ff02191690831515021790555061166a6115de565b73ffffffffffffffffffffffffffffffffffffffff168273ffffffffffffffffffffffffffffffffffffffff16847ff6391f5c32d9c69d2a47ea670b442974b53935d1edc7fd64eb21e047a839171b60405160405180910390a4600190506116d2565b600090505b92915050565b6116e28282610f62565b6117255780826040517fe2517d3f00000000000000000000000000000000000000000000000000000000815260040161171c929190612b71565b60405180910390fd5b5050565b6040518061010001604052806000815260200160008152602001606081526020016060815260200160608152602001606081526020016000151581526020016000151581525090565b6040518060c0016040528060008152602001600081526020016060815260200160608152602001600015158152602001606081525090565b6000604051905090565b600080fd5b600080fd5b60007fffffffff0000000000000000000000000000000000000000000000000000000082169050919050565b6117f3816117be565b81146117fe57600080fd5b50565b600081359050611810816117ea565b92915050565b60006020828403121561182c5761182b6117b4565b5b600061183a84828501611801565b91505092915050565b60008115159050919050565b61185881611843565b82525050565b6000602082019050611873600083018461184f565b92915050565b600073ffffffffffffffffffffffffffffffffffffffff82169050919050565b60006118a482611879565b9050919050565b6118b481611899565b81146118bf57600080fd5b50565b6000813590506118d1816118ab565b92915050565b6000602082840312156118ed576118ec6117b4565b5b60006118fb848285016118c2565b91505092915050565b6000819050919050565b61191781611904565b82525050565b6000602082019050611932600083018461190e565b92915050565b6000819050919050565b61194b81611938565b82525050565b60006020820190506119666000830184611942565b92915050565b61197581611904565b811461198057600080fd5b50565b6000813590506119928161196c565b92915050565b6000602082840312156119ae576119ad6117b4565b5b60006119bc84828501611983565b91505092915050565b600080fd5b600080fd5b600080fd5b60008083601f8401126119ea576119e96119c5565b5b8235905067ffffffffffffffff811115611a0757611a066119ca565b5b602083019150836001820283011115611a2357611a226119cf565b5b9250929050565b611a3381611843565b8114611a3e57600080fd5b50565b600081359050611a5081611a2a565b92915050565b60008060008060008060006080888a031215611a7557611a746117b4565b5b600088013567ffffffffffffffff811115611a9357611a926117b9565b5b611a9f8a828b016119d4565b9750975050602088013567ffffffffffffffff811115611ac257611ac16117b9565b5b611ace8a828b016119d4565b9550955050604088013567ffffffffffffffff811115611af157611af06117b9565b5b611afd8a828b016119d4565b93509350506060611b108a828b01611a41565b91505092959891949750929550565b60008060408385031215611b3657611b356117b4565b5b6000611b4485828601611983565b9250506020611b55858286016118c2565b9150509250929050565b60008083601f840112611b7557611b746119c5565b5b8235905067ffffffffffffffff811115611b9257611b916119ca565b5b602083019150836020820283011115611bae57611bad6119cf565b5b9250929050565b600060ff82169050919050565b611bcb81611bb5565b8114611bd657600080fd5b50565b600081359050611be881611bc2565b92915050565b60048110611bfb57600080fd5b50565b600081359050611c0d81611bee565b92915050565b60058110611c2057600080fd5b50565b600081359050611c3281611c13565b92915050565b600080600080600080600080600080600060e08c8e031215611c5d57611c5c6117b4565b5b60008c013567ffffffffffffffff811115611c7b57611c7a6117b9565b5b611c878e828f01611b5f565b9b509b505060208c013567ffffffffffffffff811115611caa57611ca96117b9565b5b611cb68e828f01611b5f565b99509950506040611cc98e828f01611bd9565b97505060608c013567ffffffffffffffff811115611cea57611ce96117b9565b5b611cf68e828f016119d4565b96509650506080611d098e828f01611bfe565b94505060a08c013567ffffffffffffffff811115611d2a57611d296117b9565b5b611d368e828f016119d4565b935093505060c0611d498e828f01611c23565b9150509295989b509295989b9093969950565b60008060008060008060608789031215611d7957611d786117b4565b5b600087013567ffffffffffffffff811115611d9757611d966117b9565b5b611da389828a016119d4565b9650965050602087013567ffffffffffffffff811115611dc657611dc56117b9565b5b611dd289828a016119d4565b9450945050604087013567ffffffffffffffff811115611df557611df46117b9565b5b611e0189828a016119d4565b92509250509295509295509295565b611e1981611938565b82525050565b600081519050919050565b600082825260208201905092915050565b60005b83811015611e59578082015181840152602081019050611e3e565b60008484015250505050565b6000601f19601f8301169050919050565b6000611e8182611e1f565b611e8b8185611e2a565b9350611e9b818560208601611e3b565b611ea481611e65565b840191505092915050565b600081519050919050565b600082825260208201905092915050565b6000819050602082019050919050565b6000611ee78383611e10565b60208301905092915050565b6000602082019050919050565b6000611f0b82611eaf565b611f158185611eba565b9350611f2083611ecb565b8060005b83811015611f51578151611f388882611edb565b9750611f4383611ef3565b925050600181019050611f24565b5085935050505092915050565b611f6781611843565b82525050565b600061010083016000830151611f866000860182611e10565b506020830151611f996020860182611e10565b5060408301518482036040860152611fb18282611e76565b91505060608301518482036060860152611fcb8282611e76565b91505060808301518482036080860152611fe58282611e76565b91505060a083015184820360a0860152611fff8282611f00565b91505060c083015161201460c0860182611f5e565b5060e083015161202760e0860182611f5e565b508091505092915050565b6000602082019050818103600083015261204c8184611f6d565b905092915050565b6000806000806000606086880312156120705761206f6117b4565b5b600086013567ffffffffffffffff81111561208e5761208d6117b9565b5b61209a888289016119d4565b9550955050602086013567ffffffffffffffff8111156120bd576120bc6117b9565b5b6120c9888289016119d4565b935093505060406120dc88828901611a41565b9150509295509295909350565b60008060008060408587031215612103576121026117b4565b5b600085013567ffffffffffffffff811115612121576121206117b9565b5b61212d878288016119d4565b9450945050602085013567ffffffffffffffff8111156121505761214f6117b9565b5b61215c878288016119d4565b925092505092959194509250565b600060c0830160008301516121826000860182611e10565b5060208301516121956020860182611e10565b50604083015184820360408601526121ad8282611e76565b915050606083015184820360608601526121c78282611e76565b91505060808301516121dc6080860182611f5e565b5060a083015184820360a08601526121f48282611f00565b9150508091505092915050565b6000602082019050818103600083015261221b818461216a565b905092915050565b61222c81611899565b82525050565b60006020820190506122476000830184612223565b92915050565b60008151905061225c81611a2a565b92915050565b600060208284031215612278576122776117b4565b5b60006122868482850161224d565b91505092915050565b61229881611938565b81146122a357600080fd5b50565b6000815190506122b58161228f565b92915050565b6000602082840312156122d1576122d06117b4565b5b60006122df848285016122a6565b91505092915050565b600080fd5b7f4e487b7100000000000000000000000000000000000000000000000000000000600052604160045260246000fd5b61232582611e65565b810181811067ffffffffffffffff82111715612344576123436122ed565b5b80604052505050565b60006123576117aa565b9050612363828261231c565b919050565b600080fd5b600080fd5b600067ffffffffffffffff82111561238d5761238c6122ed565b5b61239682611e65565b9050602081019050919050565b60006123b66123b184612372565b61234d565b9050828152602081018484840111156123d2576123d161236d565b5b6123dd848285611e3b565b509392505050565b600082601f8301126123fa576123f96119c5565b5b815161240a8482602086016123a3565b91505092915050565b600067ffffffffffffffff82111561242e5761242d6122ed565b5b602082029050602081019050919050565b600061245261244d84612413565b61234d565b90508083825260208201905060208402830185811115612475576124746119cf565b5b835b8181101561249e578061248a88826122a6565b845260208401935050602081019050612477565b5050509392505050565b600082601f8301126124bd576124bc6119c5565b5b81516124cd84826020860161243f565b91505092915050565b600061010082840312156124ed576124ec6122e8565b5b6124f861010061234d565b90506000612508848285016122a6565b600083015250602061251c848285016122a6565b602083015250604082015167ffffffffffffffff8111156125405761253f612368565b5b61254c848285016123e5565b604083015250606082015167ffffffffffffffff8111156125705761256f612368565b5b61257c848285016123e5565b606083015250608082015167ffffffffffffffff8111156125a05761259f612368565b5b6125ac848285016123e5565b60808301525060a082015167ffffffffffffffff8111156125d0576125cf612368565b5b6125dc848285016124a8565b60a08301525060c06125f08482850161224d565b60c08301525060e06126048482850161224d565b60e08301525092915050565b600060208284031215612626576126256117b4565b5b600082015167ffffffffffffffff811115612644576126436117b9565b5b612650848285016124d6565b91505092915050565b600082825260208201905092915050565b82818337600083830152505050565b60006126858385612659565b935061269283858461266a565b61269b83611e65565b840190509392505050565b600060a0820190506126bb600083018b612223565b81810360208301526126ce81898b612679565b905081810360408301526126e3818789612679565b905081810360608301526126f8818587612679565b9050612707608083018461184f565b9998505050505050505050565b60006040820190506127296000830185612223565b6127366020830184611942565b9392505050565b600082825260208201905092915050565b6000819050919050565b61276181611bb5565b82525050565b60006127738383612758565b60208301905092915050565b600061278e6020840184611bd9565b905092915050565b6000602082019050919050565b60006127af838561273d565b93506127ba8261274e565b8060005b858110156127f3576127d0828461277f565b6127da8882612767565b97506127e583612796565b9250506001810190506127be565b5085925050509392505050565b61280981611bb5565b82525050565b7f4e487b7100000000000000000000000000000000000000000000000000000000600052602160045260246000fd5b6004811061284f5761284e61280f565b5b50565b60008190506128608261283e565b919050565b600061287082612852565b9050919050565b61288081612865565b82525050565b600581106128975761289661280f565b5b50565b60008190506128a882612886565b919050565b60006128b88261289a565b9050919050565b6128c8816128ad565b82525050565b600060e08201905081810360008301526128e9818d8f6127a3565b905081810360208301526128fe818b8d6127a3565b905061290d604083018a612800565b818103606083015261292081888a612679565b905061292f6080830187612877565b81810360a0830152612942818587612679565b905061295160c08301846128bf565b9c9b505050505050505050505050565b600060c082019050612976600083018c612223565b8181036020830152612989818a8c612679565b9050818103604083015261299e81888a612679565b905081810360608301526129b3818688612679565b90506129c2608083018561184f565b6129cf60a083018461184f565b9a9950505050505050505050565b600060c082840312156129f3576129f26122e8565b5b6129fd60c061234d565b90506000612a0d848285016122a6565b6000830152506020612a21848285016122a6565b602083015250604082015167ffffffffffffffff811115612a4557612a44612368565b5b612a51848285016123e5565b604083015250606082015167ffffffffffffffff811115612a7557612a74612368565b5b612a81848285016123e5565b6060830152506080612a958482850161224d565b60808301525060a082015167ffffffffffffffff811115612ab957612ab8612368565b5b612ac5848285016124a8565b60a08301525092915050565b600060208284031215612ae757612ae66117b4565b5b600082015167ffffffffffffffff811115612b0557612b046117b9565b5b612b11848285016129dd565b91505092915050565b6000608082019050612b2f6000830189612223565b8181036020830152612b42818789612679565b90508181036040830152612b57818587612679565b9050612b66606083018461184f565b979650505050505050565b6000604082019050612b866000830185612223565b612b93602083018461190e565b939250505056fea26469706673582212200758081f4eb96273c26f0d6ad684880e13f8f4c0bfae8ac7ea89176edf771cf964736f6c634300081c0033","opcodes":"PUSH1 0x80 PUSH1 0x40 MSTORE CALLVALUE DUP1 ISZERO PUSH2 0x10 JUMPI PUSH1 0x0 DUP1 REVERT JUMPDEST POP PUSH1 0x40 MLOAD PUSH2 0x2EEF CODESIZE SUB DUP1 PUSH2 0x2EEF DUP4 CODECOPY DUP2 DUP2 ADD PUSH1 0x40 MSTORE DUP2 ADD SWAP1 PUSH2 0x32 SWAP2 SWAP1 PUSH2 0x2E3 JUMP JUMPDEST PUSH2 0x45 PUSH1 0x0 DUP1 SHL CALLER PUSH2 0xFF PUSH1 0x20 SHL PUSH1 0x20 SHR JUMP JUMPDEST POP PUSH2 0x76 PUSH32 0xDF8B4C520FFE197C5343C6F5AEC59570151EF9A492F2C624FD45DDDE6135EC42 CALLER PUSH2 0xFF PUSH1 0x20 SHL PUSH1 0x20 SHR JUMP JUMPDEST POP CALLER PUSH1 0x2 PUSH1 0x0 PUSH2 0x100 EXP DUP2 SLOAD DUP2 PUSH20 0xFFFFFFFFFFFFFFFFFFFFFFFFFFFFFFFFFFFFFFFF MUL NOT AND SWAP1 DUP4 PUSH20 0xFFFFFFFFFFFFFFFFFFFFFFFFFFFFFFFFFFFFFFFF AND MUL OR SWAP1 SSTORE POP DUP1 PUSH1 0x1 PUSH1 0x0 PUSH2 0x100 EXP DUP2 SLOAD DUP2 PUSH20 0xFFFFFFFFFFFFFFFFFFFFFFFFFFFFFFFFFFFFFFFF MUL NOT AND SWAP1 DUP4 PUSH20 0xFFFFFFFFFFFFFFFFFFFFFFFFFFFFFFFFFFFFFFFF AND MUL OR SWAP1 SSTORE POP POP PUSH2 0x310 JUMP JUMPDEST PUSH1 0x0 PUSH2 0x111 DUP4 DUP4 PUSH2 0x1FC PUSH1 0x20 SHL PUSH1 0x20 SHR JUMP JUMPDEST PUSH2 0x1F1 JUMPI PUSH1 0x1 PUSH1 0x0 DUP1 DUP6 DUP2 MSTORE PUSH1 0x20 ADD SWAP1 DUP2 MSTORE PUSH1 0x20 ADD PUSH1 0x0 KECCAK256 PUSH1 0x0 ADD PUSH1 0x0 DUP5 PUSH20 0xFFFFFFFFFFFFFFFFFFFFFFFFFFFFFFFFFFFFFFFF AND PUSH20 0xFFFFFFFFFFFFFFFFFFFFFFFFFFFFFFFFFFFFFFFF AND DUP2 MSTORE PUSH1 0x20 ADD SWAP1 DUP2 MSTORE PUSH1 0x20 ADD PUSH1 0x0 KECCAK256 PUSH1 0x0 PUSH2 0x100 EXP DUP2 SLOAD DUP2 PUSH1 0xFF MUL NOT AND SWAP1 DUP4 ISZERO ISZERO MUL OR SWAP1 SSTORE POP PUSH2 0x18E PUSH2 0x266 PUSH1 0x20 SHL PUSH1 0x20 SHR JUMP JUMPDEST PUSH20 0xFFFFFFFFFFFFFFFFFFFFFFFFFFFFFFFFFFFFFFFF AND DUP3 PUSH20 0xFFFFFFFFFFFFFFFFFFFFFFFFFFFFFFFFFFFFFFFF AND DUP5 PUSH32 0x2F8788117E7EFF1D82E926EC794901D17C78024A50270940304540A733656F0D PUSH1 0x40 MLOAD PUSH1 0x40 MLOAD DUP1 SWAP2 SUB SWAP1 LOG4 PUSH1 0x1 SWAP1 POP PUSH2 0x1F6 JUMP JUMPDEST PUSH1 0x0 SWAP1 POP JUMPDEST SWAP3 SWAP2 POP POP JUMP JUMPDEST PUSH1 0x0 DUP1 PUSH1 0x0 DUP5 DUP2 MSTORE PUSH1 0x20 ADD SWAP1 DUP2 MSTORE PUSH1 0x20 ADD PUSH1 0x0 KECCAK256 PUSH1 0x0 ADD PUSH1 0x0 DUP4 PUSH20 0xFFFFFFFFFFFFFFFFFFFFFFFFFFFFFFFFFFFFFFFF AND PUSH20 0xFFFFFFFFFFFFFFFFFFFFFFFFFFFFFFFFFFFFFFFF AND DUP2 MSTORE PUSH1 0x20 ADD SWAP1 DUP2 MSTORE PUSH1 0x20 ADD PUSH1 0x0 KECCAK256 PUSH1 0x0 SWAP1 SLOAD SWAP1 PUSH2 0x100 EXP SWAP1 DIV PUSH1 0xFF AND SWAP1 POP SWAP3 SWAP2 POP POP JUMP JUMPDEST PUSH1 0x0 CALLER SWAP1 POP SWAP1 JUMP JUMPDEST PUSH1 0x0 DUP1 REVERT JUMPDEST PUSH1 0x0 PUSH20 0xFFFFFFFFFFFFFFFFFFFFFFFFFFFFFFFFFFFFFFFF DUP3 AND SWAP1 POP SWAP2 SWAP1 POP JUMP JUMPDEST PUSH1 0x0 PUSH2 0x29E DUP3 PUSH2 0x273 JUMP JUMPDEST SWAP1 POP SWAP2 SWAP1 POP JUMP JUMPDEST PUSH1 0x0 PUSH2 0x2B0 DUP3 PUSH2 0x293 JUMP JUMPDEST SWAP1 POP SWAP2 SWAP1 POP JUMP JUMPDEST PUSH2 0x2C0 DUP2 PUSH2 0x2A5 JUMP JUMPDEST DUP2 EQ PUSH2 0x2CB JUMPI PUSH1 0x0 DUP1 REVERT JUMPDEST POP JUMP JUMPDEST PUSH1 0x0 DUP2 MLOAD SWAP1 POP PUSH2 0x2DD DUP2 PUSH2 0x2B7 JUMP JUMPDEST SWAP3 SWAP2 POP POP JUMP JUMPDEST PUSH1 0x0 PUSH1 0x20 DUP3 DUP5 SUB SLT ISZERO PUSH2 0x2F9 JUMPI PUSH2 0x2F8 PUSH2 0x26E JUMP JUMPDEST JUMPDEST PUSH1 0x0 PUSH2 0x307 DUP5 DUP3 DUP6 ADD PUSH2 0x2CE JUMP JUMPDEST SWAP2 POP POP SWAP3 SWAP2 POP POP JUMP JUMPDEST PUSH2 0x2BD0 DUP1 PUSH2 0x31F PUSH1 0x0 CODECOPY PUSH1 0x0 RETURN INVALID PUSH1 0x80 PUSH1 0x40 MSTORE CALLVALUE DUP1 ISZERO PUSH2 0x10 JUMPI PUSH1 0x0 DUP1 REVERT JUMPDEST POP PUSH1 0x4 CALLDATASIZE LT PUSH2 0x1A9 JUMPI PUSH1 0x0 CALLDATALOAD PUSH1 0xE0 SHR DUP1 PUSH4 0x55ED5FE8 GT PUSH2 0xF9 JUMPI DUP1 PUSH4 0xA1E5A38A GT PUSH2 0x97 JUMPI DUP1 PUSH4 0xC43FE7C4 GT PUSH2 0x71 JUMPI DUP1 PUSH4 0xC43FE7C4 EQ PUSH2 0x510 JUMPI DUP1 PUSH4 0xD547741F EQ PUSH2 0x540 JUMPI DUP1 PUSH4 0xEE7BF0EE EQ PUSH2 0x55C JUMPI DUP1 PUSH4 0xF851A440 EQ PUSH2 0x58C JUMPI PUSH2 0x1A9 JUMP JUMPDEST DUP1 PUSH4 0xA1E5A38A EQ PUSH2 0x4A4 JUMPI DUP1 PUSH4 0xA217FDDF EQ PUSH2 0x4C2 JUMPI DUP1 PUSH4 0xC21D034F EQ PUSH2 0x4E0 JUMPI PUSH2 0x1A9 JUMP JUMPDEST DUP1 PUSH4 0x899F9D0D GT PUSH2 0xD3 JUMPI DUP1 PUSH4 0x899F9D0D EQ PUSH2 0x41A JUMPI DUP1 PUSH4 0x8C271777 EQ PUSH2 0x438 JUMPI DUP1 PUSH4 0x91D14854 EQ PUSH2 0x456 JUMPI DUP1 PUSH4 0x934B4AF2 EQ PUSH2 0x486 JUMPI PUSH2 0x1A9 JUMP JUMPDEST DUP1 PUSH4 0x55ED5FE8 EQ PUSH2 0x39C JUMPI DUP1 PUSH4 0x57A00CCF EQ PUSH2 0x3CC JUMPI DUP1 PUSH4 0x5994D984 EQ PUSH2 0x3FC JUMPI PUSH2 0x1A9 JUMP JUMPDEST DUP1 PUSH4 0x29ACC209 GT PUSH2 0x166 JUMPI DUP1 PUSH4 0x2F2FF15D GT PUSH2 0x140 JUMPI DUP1 PUSH4 0x2F2FF15D EQ PUSH2 0x316 JUMPI DUP1 PUSH4 0x36568ABE EQ PUSH2 0x332 JUMPI DUP1 PUSH4 0x41CC7C73 EQ PUSH2 0x34E JUMPI DUP1 PUSH4 0x4FF7986E EQ PUSH2 0x37E JUMPI PUSH2 0x1A9 JUMP JUMPDEST DUP1 PUSH4 0x29ACC209 EQ PUSH2 0x298 JUMPI DUP1 PUSH4 0x2A0ACC6A EQ PUSH2 0x2C8 JUMPI DUP1 PUSH4 0x2B3DD38B EQ PUSH2 0x2E6 JUMPI PUSH2 0x1A9 JUMP JUMPDEST DUP1 PUSH4 0x1FFC9A7 EQ PUSH2 0x1AE JUMPI DUP1 PUSH4 0x81BA2D5 EQ PUSH2 0x1DE JUMPI DUP1 PUSH4 0xCDB5CB5 EQ PUSH2 0x20E JUMPI DUP1 PUSH4 0x2027D746 EQ PUSH2 0x22C JUMPI DUP1 PUSH4 0x22F537CE EQ PUSH2 0x24A JUMPI DUP1 PUSH4 0x248A9CA3 EQ PUSH2 0x268 JUMPI JUMPDEST PUSH1 0x0 DUP1 REVERT JUMPDEST PUSH2 0x1C8 PUSH1 0x4 DUP1 CALLDATASIZE SUB DUP2 ADD SWAP1 PUSH2 0x1C3 SWAP2 SWAP1 PUSH2 0x1816 JUMP JUMPDEST PUSH2 0x5AA JUMP JUMPDEST PUSH1 0x40 MLOAD PUSH2 0x1D5 SWAP2 SWAP1 PUSH2 0x185E JUMP JUMPDEST PUSH1 0x40 MLOAD DUP1 SWAP2 SUB SWAP1 RETURN JUMPDEST PUSH2 0x1F8 PUSH1 0x4 DUP1 CALLDATASIZE SUB DUP2 ADD SWAP1 PUSH2 0x1F3 SWAP2 SWAP1 PUSH2 0x18D7 JUMP JUMPDEST PUSH2 0x624 JUMP JUMPDEST PUSH1 0x40 MLOAD PUSH2 0x205 SWAP2 SWAP1 PUSH2 0x185E JUMP JUMPDEST PUSH1 0x40 MLOAD DUP1 SWAP2 SUB SWAP1 RETURN JUMPDEST PUSH2 0x216 PUSH2 0x6F9 JUMP JUMPDEST PUSH1 0x40 MLOAD PUSH2 0x223 SWAP2 SWAP1 PUSH2 0x191D JUMP JUMPDEST PUSH1 0x40 MLOAD DUP1 SWAP2 SUB SWAP1 RETURN JUMPDEST PUSH2 0x234 PUSH2 0x71D JUMP JUMPDEST PUSH1 0x40 MLOAD PUSH2 0x241 SWAP2 SWAP1 PUSH2 0x1951 JUMP JUMPDEST PUSH1 0x40 MLOAD DUP1 SWAP2 SUB SWAP1 RETURN JUMPDEST PUSH2 0x252 PUSH2 0x7B5 JUMP JUMPDEST PUSH1 0x40 MLOAD PUSH2 0x25F SWAP2 SWAP1 PUSH2 0x191D JUMP JUMPDEST PUSH1 0x40 MLOAD DUP1 SWAP2 SUB SWAP1 RETURN JUMPDEST PUSH2 0x282 PUSH1 0x4 DUP1 CALLDATASIZE SUB DUP2 ADD SWAP1 PUSH2 0x27D SWAP2 SWAP1 PUSH2 0x1998 JUMP JUMPDEST PUSH2 0x7D9 JUMP JUMPDEST PUSH1 0x40 MLOAD PUSH2 0x28F SWAP2 SWAP1 PUSH2 0x191D JUMP JUMPDEST PUSH1 0x40 MLOAD DUP1 SWAP2 SUB SWAP1 RETURN JUMPDEST PUSH2 0x2B2 PUSH1 0x4 DUP1 CALLDATASIZE SUB DUP2 ADD SWAP1 PUSH2 0x2AD SWAP2 SWAP1 PUSH2 0x18D7 JUMP JUMPDEST PUSH2 0x7F8 JUMP JUMPDEST PUSH1 0x40 MLOAD PUSH2 0x2BF SWAP2 SWAP1 PUSH2 0x185E JUMP JUMPDEST PUSH1 0x40 MLOAD DUP1 SWAP2 SUB SWAP1 RETURN JUMPDEST PUSH2 0x2D0 PUSH2 0x8CD JUMP JUMPDEST PUSH1 0x40 MLOAD PUSH2 0x2DD SWAP2 SWAP1 PUSH2 0x191D JUMP JUMPDEST PUSH1 0x40 MLOAD DUP1 SWAP2 SUB SWAP1 RETURN JUMPDEST PUSH2 0x300 PUSH1 0x4 DUP1 CALLDATASIZE SUB DUP2 ADD SWAP1 PUSH2 0x2FB SWAP2 SWAP1 PUSH2 0x1A56 JUMP JUMPDEST PUSH2 0x8F1 JUMP JUMPDEST PUSH1 0x40 MLOAD PUSH2 0x30D SWAP2 SWAP1 PUSH2 0x185E JUMP JUMPDEST PUSH1 0x40 MLOAD DUP1 SWAP2 SUB SWAP1 RETURN JUMPDEST PUSH2 0x330 PUSH1 0x4 DUP1 CALLDATASIZE SUB DUP2 ADD SWAP1 PUSH2 0x32B SWAP2 SWAP1 PUSH2 0x1B1F JUMP JUMPDEST PUSH2 0xAF1 JUMP JUMPDEST STOP JUMPDEST PUSH2 0x34C PUSH1 0x4 DUP1 CALLDATASIZE SUB DUP2 ADD SWAP1 PUSH2 0x347 SWAP2 SWAP1 PUSH2 0x1B1F JUMP JUMPDEST PUSH2 0xB13 JUMP JUMPDEST STOP JUMPDEST PUSH2 0x368 PUSH1 0x4 DUP1 CALLDATASIZE SUB DUP2 ADD SWAP1 PUSH2 0x363 SWAP2 SWAP1 PUSH2 0x1C38 JUMP JUMPDEST PUSH2 0xB8E JUMP JUMPDEST PUSH1 0x40 MLOAD PUSH2 0x375 SWAP2 SWAP1 PUSH2 0x185E JUMP JUMPDEST PUSH1 0x40 MLOAD DUP1 SWAP2 SUB SWAP1 RETURN JUMPDEST PUSH2 0x386 PUSH2 0xC81 JUMP JUMPDEST PUSH1 0x40 MLOAD PUSH2 0x393 SWAP2 SWAP1 PUSH2 0x185E JUMP JUMPDEST PUSH1 0x40 MLOAD DUP1 SWAP2 SUB SWAP1 RETURN JUMPDEST PUSH2 0x3B6 PUSH1 0x4 DUP1 CALLDATASIZE SUB DUP2 ADD SWAP1 PUSH2 0x3B1 SWAP2 SWAP1 PUSH2 0x1D5C JUMP JUMPDEST PUSH2 0xC86 JUMP JUMPDEST PUSH1 0x40 MLOAD PUSH2 0x3C3 SWAP2 SWAP1 PUSH2 0x185E JUMP JUMPDEST PUSH1 0x40 MLOAD DUP1 SWAP2 SUB SWAP1 RETURN JUMPDEST PUSH2 0x3E6 PUSH1 0x4 DUP1 CALLDATASIZE SUB DUP2 ADD SWAP1 PUSH2 0x3E1 SWAP2 SWAP1 PUSH2 0x18D7 JUMP JUMPDEST PUSH2 0xE0C JUMP JUMPDEST PUSH1 0x40 MLOAD PUSH2 0x3F3 SWAP2 SWAP1 PUSH2 0x2032 JUMP JUMPDEST PUSH1 0x40 MLOAD DUP1 SWAP2 SUB SWAP1 RETURN JUMPDEST PUSH2 0x404 PUSH2 0xEBC JUMP JUMPDEST PUSH1 0x40 MLOAD PUSH2 0x411 SWAP2 SWAP1 PUSH2 0x185E JUMP JUMPDEST PUSH1 0x40 MLOAD DUP1 SWAP2 SUB SWAP1 RETURN JUMPDEST PUSH2 0x422 PUSH2 0xEC1 JUMP JUMPDEST PUSH1 0x40 MLOAD PUSH2 0x42F SWAP2 SWAP1 PUSH2 0x185E JUMP JUMPDEST PUSH1 0x40 MLOAD DUP1 SWAP2 SUB SWAP1 RETURN JUMPDEST PUSH2 0x440 PUSH2 0xECA JUMP JUMPDEST PUSH1 0x40 MLOAD PUSH2 0x44D SWAP2 SWAP1 PUSH2 0x1951 JUMP JUMPDEST PUSH1 0x40 MLOAD DUP1 SWAP2 SUB SWAP1 RETURN JUMPDEST PUSH2 0x470 PUSH1 0x4 DUP1 CALLDATASIZE SUB DUP2 ADD SWAP1 PUSH2 0x46B SWAP2 SWAP1 PUSH2 0x1B1F JUMP JUMPDEST PUSH2 0xF62 JUMP JUMPDEST PUSH1 0x40 MLOAD PUSH2 0x47D SWAP2 SWAP1 PUSH2 0x185E JUMP JUMPDEST PUSH1 0x40 MLOAD DUP1 SWAP2 SUB SWAP1 RETURN JUMPDEST PUSH2 0x48E PUSH2 0xFCC JUMP JUMPDEST PUSH1 0x40 MLOAD PUSH2 0x49B SWAP2 SWAP1 PUSH2 0x191D JUMP JUMPDEST PUSH1 0x40 MLOAD DUP1 SWAP2 SUB SWAP1 RETURN JUMPDEST PUSH2 0x4AC PUSH2 0xFF0 JUMP JUMPDEST PUSH1 0x40 MLOAD PUSH2 0x4B9 SWAP2 SWAP1 PUSH2 0x185E JUMP JUMPDEST PUSH1 0x40 MLOAD DUP1 SWAP2 SUB SWAP1 RETURN JUMPDEST PUSH2 0x4CA PUSH2 0xFF9 JUMP JUMPDEST PUSH1 0x40 MLOAD PUSH2 0x4D7 SWAP2 SWAP1 PUSH2 0x191D JUMP JUMPDEST PUSH1 0x40 MLOAD DUP1 SWAP2 SUB SWAP1 RETURN JUMPDEST PUSH2 0x4FA PUSH1 0x4 DUP1 CALLDATASIZE SUB DUP2 ADD SWAP1 PUSH2 0x4F5 SWAP2 SWAP1 PUSH2 0x2054 JUMP JUMPDEST PUSH2 0x1000 JUMP JUMPDEST PUSH1 0x40 MLOAD PUSH2 0x507 SWAP2 SWAP1 PUSH2 0x185E JUMP JUMPDEST PUSH1 0x40 MLOAD DUP1 SWAP2 SUB SWAP1 RETURN JUMPDEST PUSH2 0x52A PUSH1 0x4 DUP1 CALLDATASIZE SUB DUP2 ADD SWAP1 PUSH2 0x525 SWAP2 SWAP1 PUSH2 0x20E9 JUMP JUMPDEST PUSH2 0x11FA JUMP JUMPDEST PUSH1 0x40 MLOAD PUSH2 0x537 SWAP2 SWAP1 PUSH2 0x185E JUMP JUMPDEST PUSH1 0x40 MLOAD DUP1 SWAP2 SUB SWAP1 RETURN JUMPDEST PUSH2 0x55A PUSH1 0x4 DUP1 CALLDATASIZE SUB DUP2 ADD SWAP1 PUSH2 0x555 SWAP2 SWAP1 PUSH2 0x1B1F JUMP JUMPDEST PUSH2 0x1377 JUMP JUMPDEST STOP JUMPDEST PUSH2 0x576 PUSH1 0x4 DUP1 CALLDATASIZE SUB DUP2 ADD SWAP1 PUSH2 0x571 SWAP2 SWAP1 PUSH2 0x18D7 JUMP JUMPDEST PUSH2 0x1399 JUMP JUMPDEST PUSH1 0x40 MLOAD PUSH2 0x583 SWAP2 SWAP1 PUSH2 0x2201 JUMP JUMPDEST PUSH1 0x40 MLOAD DUP1 SWAP2 SUB SWAP1 RETURN JUMPDEST PUSH2 0x594 PUSH2 0x1449 JUMP JUMPDEST PUSH1 0x40 MLOAD PUSH2 0x5A1 SWAP2 SWAP1 PUSH2 0x2232 JUMP JUMPDEST PUSH1 0x40 MLOAD DUP1 SWAP2 SUB SWAP1 RETURN JUMPDEST PUSH1 0x0 PUSH32 0x7965DB0B00000000000000000000000000000000000000000000000000000000 PUSH28 0xFFFFFFFFFFFFFFFFFFFFFFFFFFFFFFFFFFFFFFFFFFFFFFFFFFFFFFFF NOT AND DUP3 PUSH28 0xFFFFFFFFFFFFFFFFFFFFFFFFFFFFFFFFFFFFFFFFFFFFFFFFFFFFFFFF NOT AND EQ DUP1 PUSH2 0x61D JUMPI POP PUSH2 0x61C DUP3 PUSH2 0x146F JUMP JUMPDEST JUMPDEST SWAP1 POP SWAP2 SWAP1 POP JUMP JUMPDEST PUSH1 0x0 PUSH32 0xDF8B4C520FFE197C5343C6F5AEC59570151EF9A492F2C624FD45DDDE6135EC42 PUSH2 0x650 DUP2 PUSH2 0x14D9 JUMP JUMPDEST PUSH1 0x1 PUSH1 0x0 SWAP1 SLOAD SWAP1 PUSH2 0x100 EXP SWAP1 DIV PUSH20 0xFFFFFFFFFFFFFFFFFFFFFFFFFFFFFFFFFFFFFFFF AND PUSH20 0xFFFFFFFFFFFFFFFFFFFFFFFFFFFFFFFFFFFFFFFF AND PUSH4 0x81BA2D5 DUP5 PUSH1 0x40 MLOAD DUP3 PUSH4 0xFFFFFFFF AND PUSH1 0xE0 SHL DUP2 MSTORE PUSH1 0x4 ADD PUSH2 0x6AB SWAP2 SWAP1 PUSH2 0x2232 JUMP JUMPDEST PUSH1 0x20 PUSH1 0x40 MLOAD DUP1 DUP4 SUB DUP2 PUSH1 0x0 DUP8 GAS CALL ISZERO DUP1 ISZERO PUSH2 0x6CA JUMPI RETURNDATASIZE PUSH1 0x0 DUP1 RETURNDATACOPY RETURNDATASIZE PUSH1 0x0 REVERT JUMPDEST POP POP POP POP PUSH1 0x40 MLOAD RETURNDATASIZE PUSH1 0x1F NOT PUSH1 0x1F DUP3 ADD AND DUP3 ADD DUP1 PUSH1 0x40 MSTORE POP DUP2 ADD SWAP1 PUSH2 0x6EE SWAP2 SWAP1 PUSH2 0x2262 JUMP JUMPDEST POP PUSH1 0x1 SWAP2 POP POP SWAP2 SWAP1 POP JUMP JUMPDEST PUSH32 0x61E6A4BB6BCA8AA1F17C71895C1AB1BF9C06C812442A0A16AAD9F0837C23CA79 DUP2 JUMP JUMPDEST PUSH1 0x0 PUSH1 0x1 PUSH1 0x0 SWAP1 SLOAD SWAP1 PUSH2 0x100 EXP SWAP1 DIV PUSH20 0xFFFFFFFFFFFFFFFFFFFFFFFFFFFFFFFFFFFFFFFF AND PUSH20 0xFFFFFFFFFFFFFFFFFFFFFFFFFFFFFFFFFFFFFFFF AND PUSH4 0x2027D746 PUSH1 0x40 MLOAD DUP2 PUSH4 0xFFFFFFFF AND PUSH1 0xE0 SHL DUP2 MSTORE PUSH1 0x4 ADD PUSH1 0x20 PUSH1 0x40 MLOAD DUP1 DUP4 SUB DUP2 DUP7 GAS STATICCALL ISZERO DUP1 ISZERO PUSH2 0x78C JUMPI RETURNDATASIZE PUSH1 0x0 DUP1 RETURNDATACOPY RETURNDATASIZE PUSH1 0x0 REVERT JUMPDEST POP POP POP POP PUSH1 0x40 MLOAD RETURNDATASIZE PUSH1 0x1F NOT PUSH1 0x1F DUP3 ADD AND DUP3 ADD DUP1 PUSH1 0x40 MSTORE POP DUP2 ADD SWAP1 PUSH2 0x7B0 SWAP2 SWAP1 PUSH2 0x22BB JUMP JUMPDEST SWAP1 POP SWAP1 JUMP JUMPDEST PUSH32 0xAF6786EFC154B345802554F1DEA27E60EA4C3393B6B38EB8438E22C20E088BD2 DUP2 JUMP JUMPDEST PUSH1 0x0 DUP1 PUSH1 0x0 DUP4 DUP2 MSTORE PUSH1 0x20 ADD SWAP1 DUP2 MSTORE PUSH1 0x20 ADD PUSH1 0x0 KECCAK256 PUSH1 0x1 ADD SLOAD SWAP1 POP SWAP2 SWAP1 POP JUMP JUMPDEST PUSH1 0x0 PUSH32 0xDF8B4C520FFE197C5343C6F5AEC59570151EF9A492F2C624FD45DDDE6135EC42 PUSH2 0x824 DUP2 PUSH2 0x14D9 JUMP JUMPDEST PUSH1 0x1 PUSH1 0x0 SWAP1 SLOAD SWAP1 PUSH2 0x100 EXP SWAP1 DIV PUSH20 0xFFFFFFFFFFFFFFFFFFFFFFFFFFFFFFFFFFFFFFFF AND PUSH20 0xFFFFFFFFFFFFFFFFFFFFFFFFFFFFFFFFFFFFFFFF AND PUSH4 0x29ACC209 DUP5 PUSH1 0x40 MLOAD DUP3 PUSH4 0xFFFFFFFF AND PUSH1 0xE0 SHL DUP2 MSTORE PUSH1 0x4 ADD PUSH2 0x87F SWAP2 SWAP1 PUSH2 0x2232 JUMP JUMPDEST PUSH1 0x20 PUSH1 0x40 MLOAD DUP1 DUP4 SUB DUP2 PUSH1 0x0 DUP8 GAS CALL ISZERO DUP1 ISZERO PUSH2 0x89E JUMPI RETURNDATASIZE PUSH1 0x0 DUP1 RETURNDATACOPY RETURNDATASIZE PUSH1 0x0 REVERT JUMPDEST POP POP POP POP PUSH1 0x40 MLOAD RETURNDATASIZE PUSH1 0x1F NOT PUSH1 0x1F DUP3 ADD AND DUP3 ADD DUP1 PUSH1 0x40 MSTORE POP DUP2 ADD SWAP1 PUSH2 0x8C2 SWAP2 SWAP1 PUSH2 0x2262 JUMP JUMPDEST POP PUSH1 0x1 SWAP2 POP POP SWAP2 SWAP1 POP JUMP JUMPDEST PUSH32 0xDF8B4C520FFE197C5343C6F5AEC59570151EF9A492F2C624FD45DDDE6135EC42 DUP2 JUMP JUMPDEST PUSH1 0x0 PUSH32 0x61E6A4BB6BCA8AA1F17C71895C1AB1BF9C06C812442A0A16AAD9F0837C23CA79 PUSH2 0x91D DUP2 PUSH2 0x14D9 JUMP JUMPDEST PUSH1 0x0 PUSH1 0x1 PUSH1 0x0 SWAP1 SLOAD SWAP1 PUSH2 0x100 EXP SWAP1 DIV PUSH20 0xFFFFFFFFFFFFFFFFFFFFFFFFFFFFFFFFFFFFFFFF AND PUSH20 0xFFFFFFFFFFFFFFFFFFFFFFFFFFFFFFFFFFFFFFFF AND PUSH4 0x57A00CCF CALLER PUSH1 0x40 MLOAD DUP3 PUSH4 0xFFFFFFFF AND PUSH1 0xE0 SHL DUP2 MSTORE PUSH1 0x4 ADD PUSH2 0x97A SWAP2 SWAP1 PUSH2 0x2232 JUMP JUMPDEST PUSH1 0x0 PUSH1 0x40 MLOAD DUP1 DUP4 SUB DUP2 DUP7 GAS STATICCALL ISZERO DUP1 ISZERO PUSH2 0x997 JUMPI RETURNDATASIZE PUSH1 0x0 DUP1 RETURNDATACOPY RETURNDATASIZE PUSH1 0x0 REVERT JUMPDEST POP POP POP POP PUSH1 0x40 MLOAD RETURNDATASIZE PUSH1 0x0 DUP3 RETURNDATACOPY RETURNDATASIZE PUSH1 0x1F NOT PUSH1 0x1F DUP3 ADD AND DUP3 ADD DUP1 PUSH1 0x40 MSTORE POP DUP2 ADD SWAP1 PUSH2 0x9C0 SWAP2 SWAP1 PUSH2 0x2610 JUMP JUMPDEST PUSH1 0x0 ADD MLOAD SUB PUSH2 0x9FB JUMPI PUSH1 0x40 MLOAD PUSH32 0x1D65442900000000000000000000000000000000000000000000000000000000 DUP2 MSTORE PUSH1 0x4 ADD PUSH1 0x40 MLOAD DUP1 SWAP2 SUB SWAP1 REVERT JUMPDEST PUSH1 0x1 PUSH1 0x0 SWAP1 SLOAD SWAP1 PUSH2 0x100 EXP SWAP1 DIV PUSH20 0xFFFFFFFFFFFFFFFFFFFFFFFFFFFFFFFFFFFFFFFF AND PUSH20 0xFFFFFFFFFFFFFFFFFFFFFFFFFFFFFFFFFFFFFFFF AND PUSH4 0xA735E5DE CALLER DUP12 DUP12 DUP12 DUP12 DUP12 DUP12 DUP12 PUSH1 0x40 MLOAD DUP10 PUSH4 0xFFFFFFFF AND PUSH1 0xE0 SHL DUP2 MSTORE PUSH1 0x4 ADD PUSH2 0xA64 SWAP9 SWAP8 SWAP7 SWAP6 SWAP5 SWAP4 SWAP3 SWAP2 SWAP1 PUSH2 0x26A6 JUMP JUMPDEST PUSH1 0x20 PUSH1 0x40 MLOAD DUP1 DUP4 SUB DUP2 PUSH1 0x0 DUP8 GAS CALL ISZERO DUP1 ISZERO PUSH2 0xA83 JUMPI RETURNDATASIZE PUSH1 0x0 DUP1 RETURNDATACOPY RETURNDATASIZE PUSH1 0x0 REVERT JUMPDEST POP POP POP POP PUSH1 0x40 MLOAD RETURNDATASIZE PUSH1 0x1F NOT PUSH1 0x1F DUP3 ADD AND DUP3 ADD DUP1 PUSH1 0x40 MSTORE POP DUP2 ADD SWAP1 PUSH2 0xAA7 SWAP2 SWAP1 PUSH2 0x2262 JUMP JUMPDEST POP PUSH32 0xC21195A7F73ACB0112D9942F6C5C02ACC3D8D2C74AB81A6C28F4F492DAC933B8 CALLER TIMESTAMP PUSH1 0x40 MLOAD PUSH2 0xAD9 SWAP3 SWAP2 SWAP1 PUSH2 0x2714 JUMP JUMPDEST PUSH1 0x40 MLOAD DUP1 SWAP2 SUB SWAP1 LOG1 PUSH1 0x1 SWAP2 POP POP SWAP8 SWAP7 POP POP POP POP POP POP POP JUMP JUMPDEST PUSH2 0xAFA DUP3 PUSH2 0x7D9 JUMP JUMPDEST PUSH2 0xB03 DUP2 PUSH2 0x14D9 JUMP JUMPDEST PUSH2 0xB0D DUP4 DUP4 PUSH2 0x14ED JUMP JUMPDEST POP POP POP POP JUMP JUMPDEST PUSH2 0xB1B PUSH2 0x15DE JUMP JUMPDEST PUSH20 0xFFFFFFFFFFFFFFFFFFFFFFFFFFFFFFFFFFFFFFFF AND DUP2 PUSH20 0xFFFFFFFFFFFFFFFFFFFFFFFFFFFFFFFFFFFFFFFF AND EQ PUSH2 0xB7F JUMPI PUSH1 0x40 MLOAD PUSH32 0x6697B23200000000000000000000000000000000000000000000000000000000 DUP2 MSTORE PUSH1 0x4 ADD PUSH1 0x40 MLOAD DUP1 SWAP2 SUB SWAP1 REVERT JUMPDEST PUSH2 0xB89 DUP3 DUP3 PUSH2 0x15E6 JUMP JUMPDEST POP POP POP JUMP JUMPDEST PUSH1 0x0 PUSH32 0x61E6A4BB6BCA8AA1F17C71895C1AB1BF9C06C812442A0A16AAD9F0837C23CA79 PUSH2 0xBBA DUP2 PUSH2 0x14D9 JUMP JUMPDEST PUSH1 0x1 PUSH1 0x0 SWAP1 SLOAD SWAP1 PUSH2 0x100 EXP SWAP1 DIV PUSH20 0xFFFFFFFFFFFFFFFFFFFFFFFFFFFFFFFFFFFFFFFF AND PUSH20 0xFFFFFFFFFFFFFFFFFFFFFFFFFFFFFFFFFFFFFFFF AND PUSH4 0x64DF69E7 DUP15 DUP15 DUP15 DUP15 DUP15 DUP15 DUP15 DUP15 DUP15 DUP15 DUP15 PUSH1 0x40 MLOAD DUP13 PUSH4 0xFFFFFFFF AND PUSH1 0xE0 SHL DUP2 MSTORE PUSH1 0x4 ADD PUSH2 0xC29 SWAP12 SWAP11 SWAP10 SWAP9 SWAP8 SWAP7 SWAP6 SWAP5 SWAP4 SWAP3 SWAP2 SWAP1 PUSH2 0x28CE JUMP JUMPDEST PUSH1 0x20 PUSH1 0x40 MLOAD DUP1 DUP4 SUB DUP2 PUSH1 0x0 DUP8 GAS CALL ISZERO DUP1 ISZERO PUSH2 0xC48 JUMPI RETURNDATASIZE PUSH1 0x0 DUP1 RETURNDATACOPY RETURNDATASIZE PUSH1 0x0 REVERT JUMPDEST POP POP POP POP PUSH1 0x40 MLOAD RETURNDATASIZE PUSH1 0x1F NOT PUSH1 0x1F DUP3 ADD AND DUP3 ADD DUP1 PUSH1 0x40 MSTORE POP DUP2 ADD SWAP1 PUSH2 0xC6C SWAP2 SWAP1 PUSH2 0x2262 JUMP JUMPDEST POP PUSH1 0x1 SWAP2 POP POP SWAP12 SWAP11 POP POP POP POP POP POP POP POP POP POP POP JUMP JUMPDEST PUSH1 0x0 DUP2 JUMP JUMPDEST PUSH1 0x0 PUSH2 0xCB2 PUSH32 0x61E6A4BB6BCA8AA1F17C71895C1AB1BF9C06C812442A0A16AAD9F0837C23CA79 CALLER PUSH2 0xF62 JUMP JUMPDEST ISZERO PUSH2 0xCE9 JUMPI PUSH1 0x40 MLOAD PUSH32 0x9E5AE09300000000000000000000000000000000000000000000000000000000 DUP2 MSTORE PUSH1 0x4 ADD PUSH1 0x40 MLOAD DUP1 SWAP2 SUB SWAP1 REVERT JUMPDEST PUSH2 0xD13 PUSH32 0x61E6A4BB6BCA8AA1F17C71895C1AB1BF9C06C812442A0A16AAD9F0837C23CA79 CALLER PUSH2 0x14ED JUMP JUMPDEST POP PUSH1 0x1 PUSH1 0x0 SWAP1 SLOAD SWAP1 PUSH2 0x100 EXP SWAP1 DIV PUSH20 0xFFFFFFFFFFFFFFFFFFFFFFFFFFFFFFFFFFFFFFFF AND PUSH20 0xFFFFFFFFFFFFFFFFFFFFFFFFFFFFFFFFFFFFFFFF AND PUSH4 0x7208CA19 CALLER DUP10 DUP10 DUP10 DUP10 DUP10 DUP10 PUSH1 0x0 PUSH1 0x1 PUSH1 0x40 MLOAD DUP11 PUSH4 0xFFFFFFFF AND PUSH1 0xE0 SHL DUP2 MSTORE PUSH1 0x4 ADD PUSH2 0xD81 SWAP10 SWAP9 SWAP8 SWAP7 SWAP6 SWAP5 SWAP4 SWAP3 SWAP2 SWAP1 PUSH2 0x2961 JUMP JUMPDEST PUSH1 0x20 PUSH1 0x40 MLOAD DUP1 DUP4 SUB DUP2 PUSH1 0x0 DUP8 GAS CALL ISZERO DUP1 ISZERO PUSH2 0xDA0 JUMPI RETURNDATASIZE PUSH1 0x0 DUP1 RETURNDATACOPY RETURNDATASIZE PUSH1 0x0 REVERT JUMPDEST POP POP POP POP PUSH1 0x40 MLOAD RETURNDATASIZE PUSH1 0x1F NOT PUSH1 0x1F DUP3 ADD AND DUP3 ADD DUP1 PUSH1 0x40 MSTORE POP DUP2 ADD SWAP1 PUSH2 0xDC4 SWAP2 SWAP1 PUSH2 0x2262 JUMP JUMPDEST POP PUSH32 0xA12ABD8201760A4E094635A878D94E4E31EE41204057E1BA4081B4C8BA7DF8A8 CALLER TIMESTAMP PUSH1 0x40 MLOAD PUSH2 0xDF6 SWAP3 SWAP2 SWAP1 PUSH2 0x2714 JUMP JUMPDEST PUSH1 0x40 MLOAD DUP1 SWAP2 SUB SWAP1 LOG1 PUSH1 0x1 SWAP1 POP SWAP7 SWAP6 POP POP POP POP POP POP JUMP JUMPDEST PUSH2 0xE14 PUSH2 0x1729 JUMP JUMPDEST PUSH1 0x1 PUSH1 0x0 SWAP1 SLOAD SWAP1 PUSH2 0x100 EXP SWAP1 DIV PUSH20 0xFFFFFFFFFFFFFFFFFFFFFFFFFFFFFFFFFFFFFFFF AND PUSH20 0xFFFFFFFFFFFFFFFFFFFFFFFFFFFFFFFFFFFFFFFF AND PUSH4 0x57A00CCF DUP4 PUSH1 0x40 MLOAD DUP3 PUSH4 0xFFFFFFFF AND PUSH1 0xE0 SHL DUP2 MSTORE PUSH1 0x4 ADD PUSH2 0xE6F SWAP2 SWAP1 PUSH2 0x2232 JUMP JUMPDEST PUSH1 0x0 PUSH1 0x40 MLOAD DUP1 DUP4 SUB DUP2 DUP7 GAS STATICCALL ISZERO DUP1 ISZERO PUSH2 0xE8C JUMPI RETURNDATASIZE PUSH1 0x0 DUP1 RETURNDATACOPY RETURNDATASIZE PUSH1 0x0 REVERT JUMPDEST POP POP POP POP PUSH1 0x40 MLOAD RETURNDATASIZE PUSH1 0x0 DUP3 RETURNDATACOPY RETURNDATASIZE PUSH1 0x1F NOT PUSH1 0x1F DUP3 ADD AND DUP3 ADD DUP1 PUSH1 0x40 MSTORE POP DUP2 ADD SWAP1 PUSH2 0xEB5 SWAP2 SWAP1 PUSH2 0x2610 JUMP JUMPDEST SWAP1 POP SWAP2 SWAP1 POP JUMP JUMPDEST PUSH1 0x1 DUP2 JUMP JUMPDEST PUSH1 0x0 PUSH1 0x1 SWAP1 POP SWAP1 JUMP JUMPDEST PUSH1 0x0 PUSH1 0x1 PUSH1 0x0 SWAP1 SLOAD SWAP1 PUSH2 0x100 EXP SWAP1 DIV PUSH20 0xFFFFFFFFFFFFFFFFFFFFFFFFFFFFFFFFFFFFFFFF AND PUSH20 0xFFFFFFFFFFFFFFFFFFFFFFFFFFFFFFFFFFFFFFFF AND PUSH4 0x8C271777 PUSH1 0x40 MLOAD DUP2 PUSH4 0xFFFFFFFF AND PUSH1 0xE0 SHL DUP2 MSTORE PUSH1 0x4 ADD PUSH1 0x20 PUSH1 0x40 MLOAD DUP1 DUP4 SUB DUP2 DUP7 GAS STATICCALL ISZERO DUP1 ISZERO PUSH2 0xF39 JUMPI RETURNDATASIZE PUSH1 0x0 DUP1 RETURNDATACOPY RETURNDATASIZE PUSH1 0x0 REVERT JUMPDEST POP POP POP POP PUSH1 0x40 MLOAD RETURNDATASIZE PUSH1 0x1F NOT PUSH1 0x1F DUP3 ADD AND DUP3 ADD DUP1 PUSH1 0x40 MSTORE POP DUP2 ADD SWAP1 PUSH2 0xF5D SWAP2 SWAP1 PUSH2 0x22BB JUMP JUMPDEST SWAP1 POP SWAP1 JUMP JUMPDEST PUSH1 0x0 DUP1 PUSH1 0x0 DUP5 DUP2 MSTORE PUSH1 0x20 ADD SWAP1 DUP2 MSTORE PUSH1 0x20 ADD PUSH1 0x0 KECCAK256 PUSH1 0x0 ADD PUSH1 0x0 DUP4 PUSH20 0xFFFFFFFFFFFFFFFFFFFFFFFFFFFFFFFFFFFFFFFF AND PUSH20 0xFFFFFFFFFFFFFFFFFFFFFFFFFFFFFFFFFFFFFFFF AND DUP2 MSTORE PUSH1 0x20 ADD SWAP1 DUP2 MSTORE PUSH1 0x20 ADD PUSH1 0x0 KECCAK256 PUSH1 0x0 SWAP1 SLOAD SWAP1 PUSH2 0x100 EXP SWAP1 DIV PUSH1 0xFF AND SWAP1 POP SWAP3 SWAP2 POP POP JUMP JUMPDEST PUSH32 0x8C6AE1B8CAC4C99AC9B51BA2B44EC85E94139863FA8D7F1AB8F7E39763B3DB4E DUP2 JUMP JUMPDEST PUSH1 0x0 PUSH1 0x1 SWAP1 POP SWAP1 JUMP JUMPDEST PUSH1 0x0 DUP1 SHL DUP2 JUMP JUMPDEST PUSH1 0x0 PUSH32 0xAF6786EFC154B345802554F1DEA27E60EA4C3393B6B38EB8438E22C20E088BD2 PUSH2 0x102C DUP2 PUSH2 0x14D9 JUMP JUMPDEST PUSH1 0x0 PUSH1 0x1 PUSH1 0x0 SWAP1 SLOAD SWAP1 PUSH2 0x100 EXP SWAP1 DIV PUSH20 0xFFFFFFFFFFFFFFFFFFFFFFFFFFFFFFFFFFFFFFFF AND PUSH20 0xFFFFFFFFFFFFFFFFFFFFFFFFFFFFFFFFFFFFFFFF AND PUSH4 0xEE7BF0EE CALLER PUSH1 0x40 MLOAD DUP3 PUSH4 0xFFFFFFFF AND PUSH1 0xE0 SHL DUP2 MSTORE PUSH1 0x4 ADD PUSH2 0x1089 SWAP2 SWAP1 PUSH2 0x2232 JUMP JUMPDEST PUSH1 0x0 PUSH1 0x40 MLOAD DUP1 DUP4 SUB DUP2 DUP7 GAS STATICCALL ISZERO DUP1 ISZERO PUSH2 0x10A6 JUMPI RETURNDATASIZE PUSH1 0x0 DUP1 RETURNDATACOPY RETURNDATASIZE PUSH1 0x0 REVERT JUMPDEST POP POP POP POP PUSH1 0x40 MLOAD RETURNDATASIZE PUSH1 0x0 DUP3 RETURNDATACOPY RETURNDATASIZE PUSH1 0x1F NOT PUSH1 0x1F DUP3 ADD AND DUP3 ADD DUP1 PUSH1 0x40 MSTORE POP DUP2 ADD SWAP1 PUSH2 0x10CF SWAP2 SWAP1 PUSH2 0x2AD1 JUMP JUMPDEST PUSH1 0x0 ADD MLOAD SUB PUSH2 0x110A JUMPI PUSH1 0x40 MLOAD PUSH32 0x4A46A71500000000000000000000000000000000000000000000000000000000 DUP2 MSTORE PUSH1 0x4 ADD PUSH1 0x40 MLOAD DUP1 SWAP2 SUB SWAP1 REVERT JUMPDEST PUSH1 0x1 PUSH1 0x0 SWAP1 SLOAD SWAP1 PUSH2 0x100 EXP SWAP1 DIV PUSH20 0xFFFFFFFFFFFFFFFFFFFFFFFFFFFFFFFFFFFFFFFF AND PUSH20 0xFFFFFFFFFFFFFFFFFFFFFFFFFFFFFFFFFFFFFFFF AND PUSH4 0xC5128E05 CALLER DUP10 DUP10 DUP10 DUP10 DUP10 PUSH1 0x40 MLOAD DUP8 PUSH4 0xFFFFFFFF AND PUSH1 0xE0 SHL DUP2 MSTORE PUSH1 0x4 ADD PUSH2 0x116F SWAP7 SWAP6 SWAP5 SWAP4 SWAP3 SWAP2 SWAP1 PUSH2 0x2B1A JUMP JUMPDEST PUSH1 0x20 PUSH1 0x40 MLOAD DUP1 DUP4 SUB DUP2 PUSH1 0x0 DUP8 GAS CALL ISZERO DUP1 ISZERO PUSH2 0x118E JUMPI RETURNDATASIZE PUSH1 0x0 DUP1 RETURNDATACOPY RETURNDATASIZE PUSH1 0x0 REVERT JUMPDEST POP POP POP POP PUSH1 0x40 MLOAD RETURNDATASIZE PUSH1 0x1F NOT PUSH1 0x1F DUP3 ADD AND DUP3 ADD DUP1 PUSH1 0x40 MSTORE POP DUP2 ADD SWAP1 PUSH2 0x11B2 SWAP2 SWAP1 PUSH2 0x2262 JUMP JUMPDEST POP PUSH32 0x3E981D6FD4C5BD91EF3F68CA28A36322130D52221AB7319AE700E4C417DCC8E3 CALLER TIMESTAMP PUSH1 0x40 MLOAD PUSH2 0x11E4 SWAP3 SWAP2 SWAP1 PUSH2 0x2714 JUMP JUMPDEST PUSH1 0x40 MLOAD DUP1 SWAP2 SUB SWAP1 LOG1 PUSH1 0x1 SWAP2 POP POP SWAP6 SWAP5 POP POP POP POP POP JUMP JUMPDEST PUSH1 0x0 PUSH2 0x1226 PUSH32 0xAF6786EFC154B345802554F1DEA27E60EA4C3393B6B38EB8438E22C20E088BD2 CALLER PUSH2 0xF62 JUMP JUMPDEST ISZERO PUSH2 0x125D JUMPI PUSH1 0x40 MLOAD PUSH32 0x937DF23900000000000000000000000000000000000000000000000000000000 DUP2 MSTORE PUSH1 0x4 ADD PUSH1 0x40 MLOAD DUP1 SWAP2 SUB SWAP1 REVERT JUMPDEST PUSH2 0x1287 PUSH32 0xAF6786EFC154B345802554F1DEA27E60EA4C3393B6B38EB8438E22C20E088BD2 CALLER PUSH2 0x14ED JUMP JUMPDEST POP PUSH1 0x1 PUSH1 0x0 SWAP1 SLOAD SWAP1 PUSH2 0x100 EXP SWAP1 DIV PUSH20 0xFFFFFFFFFFFFFFFFFFFFFFFFFFFFFFFFFFFFFFFF AND PUSH20 0xFFFFFFFFFFFFFFFFFFFFFFFFFFFFFFFFFFFFFFFF AND PUSH4 0x78E4D305 CALLER DUP8 DUP8 DUP8 DUP8 PUSH1 0x1 PUSH1 0x40 MLOAD DUP8 PUSH4 0xFFFFFFFF AND PUSH1 0xE0 SHL DUP2 MSTORE PUSH1 0x4 ADD PUSH2 0x12EE SWAP7 SWAP6 SWAP5 SWAP4 SWAP3 SWAP2 SWAP1 PUSH2 0x2B1A JUMP JUMPDEST PUSH1 0x20 PUSH1 0x40 MLOAD DUP1 DUP4 SUB DUP2 PUSH1 0x0 DUP8 GAS CALL ISZERO DUP1 ISZERO PUSH2 0x130D JUMPI RETURNDATASIZE PUSH1 0x0 DUP1 RETURNDATACOPY RETURNDATASIZE PUSH1 0x0 REVERT JUMPDEST POP POP POP POP PUSH1 0x40 MLOAD RETURNDATASIZE PUSH1 0x1F NOT PUSH1 0x1F DUP3 ADD AND DUP3 ADD DUP1 PUSH1 0x40 MSTORE POP DUP2 ADD SWAP1 PUSH2 0x1331 SWAP2 SWAP1 PUSH2 0x2262 JUMP JUMPDEST POP PUSH32 0x9355F2BA77852E61793679FF03CF26231B8175FDFB97DC47490F1B151E6AB0D4 CALLER TIMESTAMP PUSH1 0x40 MLOAD PUSH2 0x1363 SWAP3 SWAP2 SWAP1 PUSH2 0x2714 JUMP JUMPDEST PUSH1 0x40 MLOAD DUP1 SWAP2 SUB SWAP1 LOG1 PUSH1 0x1 SWAP1 POP SWAP5 SWAP4 POP POP POP POP JUMP JUMPDEST PUSH2 0x1380 DUP3 PUSH2 0x7D9 JUMP JUMPDEST PUSH2 0x1389 DUP2 PUSH2 0x14D9 JUMP JUMPDEST PUSH2 0x1393 DUP4 DUP4 PUSH2 0x15E6 JUMP JUMPDEST POP POP POP POP JUMP JUMPDEST PUSH2 0x13A1 PUSH2 0x1772 JUMP JUMPDEST PUSH1 0x1 PUSH1 0x0 SWAP1 SLOAD SWAP1 PUSH2 0x100 EXP SWAP1 DIV PUSH20 0xFFFFFFFFFFFFFFFFFFFFFFFFFFFFFFFFFFFFFFFF AND PUSH20 0xFFFFFFFFFFFFFFFFFFFFFFFFFFFFFFFFFFFFFFFF AND PUSH4 0xEE7BF0EE DUP4 PUSH1 0x40 MLOAD DUP3 PUSH4 0xFFFFFFFF AND PUSH1 0xE0 SHL DUP2 MSTORE PUSH1 0x4 ADD PUSH2 0x13FC SWAP2 SWAP1 PUSH2 0x2232 JUMP JUMPDEST PUSH1 0x0 PUSH1 0x40 MLOAD DUP1 DUP4 SUB DUP2 DUP7 GAS STATICCALL ISZERO DUP1 ISZERO PUSH2 0x1419 JUMPI RETURNDATASIZE PUSH1 0x0 DUP1 RETURNDATACOPY RETURNDATASIZE PUSH1 0x0 REVERT JUMPDEST POP POP POP POP PUSH1 0x40 MLOAD RETURNDATASIZE PUSH1 0x0 DUP3 RETURNDATACOPY RETURNDATASIZE PUSH1 0x1F NOT PUSH1 0x1F DUP3 ADD AND DUP3 ADD DUP1 PUSH1 0x40 MSTORE POP DUP2 ADD SWAP1 PUSH2 0x1442 SWAP2 SWAP1 PUSH2 0x2AD1 JUMP JUMPDEST SWAP1 POP SWAP2 SWAP1 POP JUMP JUMPDEST PUSH1 0x2 PUSH1 0x0 SWAP1 SLOAD SWAP1 PUSH2 0x100 EXP SWAP1 DIV PUSH20 0xFFFFFFFFFFFFFFFFFFFFFFFFFFFFFFFFFFFFFFFF AND DUP2 JUMP JUMPDEST PUSH1 0x0 PUSH32 0x1FFC9A700000000000000000000000000000000000000000000000000000000 PUSH28 0xFFFFFFFFFFFFFFFFFFFFFFFFFFFFFFFFFFFFFFFFFFFFFFFFFFFFFFFF NOT AND DUP3 PUSH28 0xFFFFFFFFFFFFFFFFFFFFFFFFFFFFFFFFFFFFFFFFFFFFFFFFFFFFFFFF NOT AND EQ SWAP1 POP SWAP2 SWAP1 POP JUMP JUMPDEST PUSH2 0x14EA DUP2 PUSH2 0x14E5 PUSH2 0x15DE JUMP JUMPDEST PUSH2 0x16D8 JUMP JUMPDEST POP JUMP JUMPDEST PUSH1 0x0 PUSH2 0x14F9 DUP4 DUP4 PUSH2 0xF62 JUMP JUMPDEST PUSH2 0x15D3 JUMPI PUSH1 0x1 PUSH1 0x0 DUP1 DUP6 DUP2 MSTORE PUSH1 0x20 ADD SWAP1 DUP2 MSTORE PUSH1 0x20 ADD PUSH1 0x0 KECCAK256 PUSH1 0x0 ADD PUSH1 0x0 DUP5 PUSH20 0xFFFFFFFFFFFFFFFFFFFFFFFFFFFFFFFFFFFFFFFF AND PUSH20 0xFFFFFFFFFFFFFFFFFFFFFFFFFFFFFFFFFFFFFFFF AND DUP2 MSTORE PUSH1 0x20 ADD SWAP1 DUP2 MSTORE PUSH1 0x20 ADD PUSH1 0x0 KECCAK256 PUSH1 0x0 PUSH2 0x100 EXP DUP2 SLOAD DUP2 PUSH1 0xFF MUL NOT AND SWAP1 DUP4 ISZERO ISZERO MUL OR SWAP1 SSTORE POP PUSH2 0x1570 PUSH2 0x15DE JUMP JUMPDEST PUSH20 0xFFFFFFFFFFFFFFFFFFFFFFFFFFFFFFFFFFFFFFFF AND DUP3 PUSH20 0xFFFFFFFFFFFFFFFFFFFFFFFFFFFFFFFFFFFFFFFF AND DUP5 PUSH32 0x2F8788117E7EFF1D82E926EC794901D17C78024A50270940304540A733656F0D PUSH1 0x40 MLOAD PUSH1 0x40 MLOAD DUP1 SWAP2 SUB SWAP1 LOG4 PUSH1 0x1 SWAP1 POP PUSH2 0x15D8 JUMP JUMPDEST PUSH1 0x0 SWAP1 POP JUMPDEST SWAP3 SWAP2 POP POP JUMP JUMPDEST PUSH1 0x0 CALLER SWAP1 POP SWAP1 JUMP JUMPDEST PUSH1 0x0 PUSH2 0x15F2 DUP4 DUP4 PUSH2 0xF62 JUMP JUMPDEST ISZERO PUSH2 0x16CD JUMPI PUSH1 0x0 DUP1 PUSH1 0x0 DUP6 DUP2 MSTORE PUSH1 0x20 ADD SWAP1 DUP2 MSTORE PUSH1 0x20 ADD PUSH1 0x0 KECCAK256 PUSH1 0x0 ADD PUSH1 0x0 DUP5 PUSH20 0xFFFFFFFFFFFFFFFFFFFFFFFFFFFFFFFFFFFFFFFF AND PUSH20 0xFFFFFFFFFFFFFFFFFFFFFFFFFFFFFFFFFFFFFFFF AND DUP2 MSTORE PUSH1 0x20 ADD SWAP1 DUP2 MSTORE PUSH1 0x20 ADD PUSH1 0x0 KECCAK256 PUSH1 0x0 PUSH2 0x100 EXP DUP2 SLOAD DUP2 PUSH1 0xFF MUL NOT AND SWAP1 DUP4 ISZERO ISZERO MUL OR SWAP1 SSTORE POP PUSH2 0x166A PUSH2 0x15DE JUMP JUMPDEST PUSH20 0xFFFFFFFFFFFFFFFFFFFFFFFFFFFFFFFFFFFFFFFF AND DUP3 PUSH20 0xFFFFFFFFFFFFFFFFFFFFFFFFFFFFFFFFFFFFFFFF AND DUP5 PUSH32 0xF6391F5C32D9C69D2A47EA670B442974B53935D1EDC7FD64EB21E047A839171B PUSH1 0x40 MLOAD PUSH1 0x40 MLOAD DUP1 SWAP2 SUB SWAP1 LOG4 PUSH1 0x1 SWAP1 POP PUSH2 0x16D2 JUMP JUMPDEST PUSH1 0x0 SWAP1 POP JUMPDEST SWAP3 SWAP2 POP POP JUMP JUMPDEST PUSH2 0x16E2 DUP3 DUP3 PUSH2 0xF62 JUMP JUMPDEST PUSH2 0x1725 JUMPI DUP1 DUP3 PUSH1 0x40 MLOAD PUSH32 0xE2517D3F00000000000000000000000000000000000000000000000000000000 DUP2 MSTORE PUSH1 0x4 ADD PUSH2 0x171C SWAP3 SWAP2 SWAP1 PUSH2 0x2B71 JUMP JUMPDEST PUSH1 0x40 MLOAD DUP1 SWAP2 SUB SWAP1 REVERT JUMPDEST POP POP JUMP JUMPDEST PUSH1 0x40 MLOAD DUP1 PUSH2 0x100 ADD PUSH1 0x40 MSTORE DUP1 PUSH1 0x0 DUP2 MSTORE PUSH1 0x20 ADD PUSH1 0x0 DUP2 MSTORE PUSH1 0x20 ADD PUSH1 0x60 DUP2 MSTORE PUSH1 0x20 ADD PUSH1 0x60 DUP2 MSTORE PUSH1 0x20 ADD PUSH1 0x60 DUP2 MSTORE PUSH1 0x20 ADD PUSH1 0x60 DUP2 MSTORE PUSH1 0x20 ADD PUSH1 0x0 ISZERO ISZERO DUP2 MSTORE PUSH1 0x20 ADD PUSH1 0x0 ISZERO ISZERO DUP2 MSTORE POP SWAP1 JUMP JUMPDEST PUSH1 0x40 MLOAD DUP1 PUSH1 0xC0 ADD PUSH1 0x40 MSTORE DUP1 PUSH1 0x0 DUP2 MSTORE PUSH1 0x20 ADD PUSH1 0x0 DUP2 MSTORE PUSH1 0x20 ADD PUSH1 0x60 DUP2 MSTORE PUSH1 0x20 ADD PUSH1 0x60 DUP2 MSTORE PUSH1 0x20 ADD PUSH1 0x0 ISZERO ISZERO DUP2 MSTORE PUSH1 0x20 ADD PUSH1 0x60 DUP2 MSTORE POP SWAP1 JUMP JUMPDEST PUSH1 0x0 PUSH1 0x40 MLOAD SWAP1 POP SWAP1 JUMP JUMPDEST PUSH1 0x0 DUP1 REVERT JUMPDEST PUSH1 0x0 DUP1 REVERT JUMPDEST PUSH1 0x0 PUSH32 0xFFFFFFFF00000000000000000000000000000000000000000000000000000000 DUP3 AND SWAP1 POP SWAP2 SWAP1 POP JUMP JUMPDEST PUSH2 0x17F3 DUP2 PUSH2 0x17BE JUMP JUMPDEST DUP2 EQ PUSH2 0x17FE JUMPI PUSH1 0x0 DUP1 REVERT JUMPDEST POP JUMP JUMPDEST PUSH1 0x0 DUP2 CALLDATALOAD SWAP1 POP PUSH2 0x1810 DUP2 PUSH2 0x17EA JUMP JUMPDEST SWAP3 SWAP2 POP POP JUMP JUMPDEST PUSH1 0x0 PUSH1 0x20 DUP3 DUP5 SUB SLT ISZERO PUSH2 0x182C JUMPI PUSH2 0x182B PUSH2 0x17B4 JUMP JUMPDEST JUMPDEST PUSH1 0x0 PUSH2 0x183A DUP5 DUP3 DUP6 ADD PUSH2 0x1801 JUMP JUMPDEST SWAP2 POP POP SWAP3 SWAP2 POP POP JUMP JUMPDEST PUSH1 0x0 DUP2 ISZERO ISZERO SWAP1 POP SWAP2 SWAP1 POP JUMP JUMPDEST PUSH2 0x1858 DUP2 PUSH2 0x1843 JUMP JUMPDEST DUP3 MSTORE POP POP JUMP JUMPDEST PUSH1 0x0 PUSH1 0x20 DUP3 ADD SWAP1 POP PUSH2 0x1873 PUSH1 0x0 DUP4 ADD DUP5 PUSH2 0x184F JUMP JUMPDEST SWAP3 SWAP2 POP POP JUMP JUMPDEST PUSH1 0x0 PUSH20 0xFFFFFFFFFFFFFFFFFFFFFFFFFFFFFFFFFFFFFFFF DUP3 AND SWAP1 POP SWAP2 SWAP1 POP JUMP JUMPDEST PUSH1 0x0 PUSH2 0x18A4 DUP3 PUSH2 0x1879 JUMP JUMPDEST SWAP1 POP SWAP2 SWAP1 POP JUMP JUMPDEST PUSH2 0x18B4 DUP2 PUSH2 0x1899 JUMP JUMPDEST DUP2 EQ PUSH2 0x18BF JUMPI PUSH1 0x0 DUP1 REVERT JUMPDEST POP JUMP JUMPDEST PUSH1 0x0 DUP2 CALLDATALOAD SWAP1 POP PUSH2 0x18D1 DUP2 PUSH2 0x18AB JUMP JUMPDEST SWAP3 SWAP2 POP POP JUMP JUMPDEST PUSH1 0x0 PUSH1 0x20 DUP3 DUP5 SUB SLT ISZERO PUSH2 0x18ED JUMPI PUSH2 0x18EC PUSH2 0x17B4 JUMP JUMPDEST JUMPDEST PUSH1 0x0 PUSH2 0x18FB DUP5 DUP3 DUP6 ADD PUSH2 0x18C2 JUMP JUMPDEST SWAP2 POP POP SWAP3 SWAP2 POP POP JUMP JUMPDEST PUSH1 0x0 DUP2 SWAP1 POP SWAP2 SWAP1 POP JUMP JUMPDEST PUSH2 0x1917 DUP2 PUSH2 0x1904 JUMP JUMPDEST DUP3 MSTORE POP POP JUMP JUMPDEST PUSH1 0x0 PUSH1 0x20 DUP3 ADD SWAP1 POP PUSH2 0x1932 PUSH1 0x0 DUP4 ADD DUP5 PUSH2 0x190E JUMP JUMPDEST SWAP3 SWAP2 POP POP JUMP JUMPDEST PUSH1 0x0 DUP2 SWAP1 POP SWAP2 SWAP1 POP JUMP JUMPDEST PUSH2 0x194B DUP2 PUSH2 0x1938 JUMP JUMPDEST DUP3 MSTORE POP POP JUMP JUMPDEST PUSH1 0x0 PUSH1 0x20 DUP3 ADD SWAP1 POP PUSH2 0x1966 PUSH1 0x0 DUP4 ADD DUP5 PUSH2 0x1942 JUMP JUMPDEST SWAP3 SWAP2 POP POP JUMP JUMPDEST PUSH2 0x1975 DUP2 PUSH2 0x1904 JUMP JUMPDEST DUP2 EQ PUSH2 0x1980 JUMPI PUSH1 0x0 DUP1 REVERT JUMPDEST POP JUMP JUMPDEST PUSH1 0x0 DUP2 CALLDATALOAD SWAP1 POP PUSH2 0x1992 DUP2 PUSH2 0x196C JUMP JUMPDEST SWAP3 SWAP2 POP POP JUMP JUMPDEST PUSH1 0x0 PUSH1 0x20 DUP3 DUP5 SUB SLT ISZERO PUSH2 0x19AE JUMPI PUSH2 0x19AD PUSH2 0x17B4 JUMP JUMPDEST JUMPDEST PUSH1 0x0 PUSH2 0x19BC DUP5 DUP3 DUP6 ADD PUSH2 0x1983 JUMP JUMPDEST SWAP2 POP POP SWAP3 SWAP2 POP POP JUMP JUMPDEST PUSH1 0x0 DUP1 REVERT JUMPDEST PUSH1 0x0 DUP1 REVERT JUMPDEST PUSH1 0x0 DUP1 REVERT JUMPDEST PUSH1 0x0 DUP1 DUP4 PUSH1 0x1F DUP5 ADD SLT PUSH2 0x19EA JUMPI PUSH2 0x19E9 PUSH2 0x19C5 JUMP JUMPDEST JUMPDEST DUP3 CALLDATALOAD SWAP1 POP PUSH8 0xFFFFFFFFFFFFFFFF DUP2 GT ISZERO PUSH2 0x1A07 JUMPI PUSH2 0x1A06 PUSH2 0x19CA JUMP JUMPDEST JUMPDEST PUSH1 0x20 DUP4 ADD SWAP2 POP DUP4 PUSH1 0x1 DUP3 MUL DUP4 ADD GT ISZERO PUSH2 0x1A23 JUMPI PUSH2 0x1A22 PUSH2 0x19CF JUMP JUMPDEST JUMPDEST SWAP3 POP SWAP3 SWAP1 POP JUMP JUMPDEST PUSH2 0x1A33 DUP2 PUSH2 0x1843 JUMP JUMPDEST DUP2 EQ PUSH2 0x1A3E JUMPI PUSH1 0x0 DUP1 REVERT JUMPDEST POP JUMP JUMPDEST PUSH1 0x0 DUP2 CALLDATALOAD SWAP1 POP PUSH2 0x1A50 DUP2 PUSH2 0x1A2A JUMP JUMPDEST SWAP3 SWAP2 POP POP JUMP JUMPDEST PUSH1 0x0 DUP1 PUSH1 0x0 DUP1 PUSH1 0x0 DUP1 PUSH1 0x0 PUSH1 0x80 DUP9 DUP11 SUB SLT ISZERO PUSH2 0x1A75 JUMPI PUSH2 0x1A74 PUSH2 0x17B4 JUMP JUMPDEST JUMPDEST PUSH1 0x0 DUP9 ADD CALLDATALOAD PUSH8 0xFFFFFFFFFFFFFFFF DUP2 GT ISZERO PUSH2 0x1A93 JUMPI PUSH2 0x1A92 PUSH2 0x17B9 JUMP JUMPDEST JUMPDEST PUSH2 0x1A9F DUP11 DUP3 DUP12 ADD PUSH2 0x19D4 JUMP JUMPDEST SWAP8 POP SWAP8 POP POP PUSH1 0x20 DUP9 ADD CALLDATALOAD PUSH8 0xFFFFFFFFFFFFFFFF DUP2 GT ISZERO PUSH2 0x1AC2 JUMPI PUSH2 0x1AC1 PUSH2 0x17B9 JUMP JUMPDEST JUMPDEST PUSH2 0x1ACE DUP11 DUP3 DUP12 ADD PUSH2 0x19D4 JUMP JUMPDEST SWAP6 POP SWAP6 POP POP PUSH1 0x40 DUP9 ADD CALLDATALOAD PUSH8 0xFFFFFFFFFFFFFFFF DUP2 GT ISZERO PUSH2 0x1AF1 JUMPI PUSH2 0x1AF0 PUSH2 0x17B9 JUMP JUMPDEST JUMPDEST PUSH2 0x1AFD DUP11 DUP3 DUP12 ADD PUSH2 0x19D4 JUMP JUMPDEST SWAP4 POP SWAP4 POP POP PUSH1 0x60 PUSH2 0x1B10 DUP11 DUP3 DUP12 ADD PUSH2 0x1A41 JUMP JUMPDEST SWAP2 POP POP SWAP3 SWAP6 SWAP9 SWAP2 SWAP5 SWAP8 POP SWAP3 SWAP6 POP JUMP JUMPDEST PUSH1 0x0 DUP1 PUSH1 0x40 DUP4 DUP6 SUB SLT ISZERO PUSH2 0x1B36 JUMPI PUSH2 0x1B35 PUSH2 0x17B4 JUMP JUMPDEST JUMPDEST PUSH1 0x0 PUSH2 0x1B44 DUP6 DUP3 DUP7 ADD PUSH2 0x1983 JUMP JUMPDEST SWAP3 POP POP PUSH1 0x20 PUSH2 0x1B55 DUP6 DUP3 DUP7 ADD PUSH2 0x18C2 JUMP JUMPDEST SWAP2 POP POP SWAP3 POP SWAP3 SWAP1 POP JUMP JUMPDEST PUSH1 0x0 DUP1 DUP4 PUSH1 0x1F DUP5 ADD SLT PUSH2 0x1B75 JUMPI PUSH2 0x1B74 PUSH2 0x19C5 JUMP JUMPDEST JUMPDEST DUP3 CALLDATALOAD SWAP1 POP PUSH8 0xFFFFFFFFFFFFFFFF DUP2 GT ISZERO PUSH2 0x1B92 JUMPI PUSH2 0x1B91 PUSH2 0x19CA JUMP JUMPDEST JUMPDEST PUSH1 0x20 DUP4 ADD SWAP2 POP DUP4 PUSH1 0x20 DUP3 MUL DUP4 ADD GT ISZERO PUSH2 0x1BAE JUMPI PUSH2 0x1BAD PUSH2 0x19CF JUMP JUMPDEST JUMPDEST SWAP3 POP SWAP3 SWAP1 POP JUMP JUMPDEST PUSH1 0x0 PUSH1 0xFF DUP3 AND SWAP1 POP SWAP2 SWAP1 POP JUMP JUMPDEST PUSH2 0x1BCB DUP2 PUSH2 0x1BB5 JUMP JUMPDEST DUP2 EQ PUSH2 0x1BD6 JUMPI PUSH1 0x0 DUP1 REVERT JUMPDEST POP JUMP JUMPDEST PUSH1 0x0 DUP2 CALLDATALOAD SWAP1 POP PUSH2 0x1BE8 DUP2 PUSH2 0x1BC2 JUMP JUMPDEST SWAP3 SWAP2 POP POP JUMP JUMPDEST PUSH1 0x4 DUP2 LT PUSH2 0x1BFB JUMPI PUSH1 0x0 DUP1 REVERT JUMPDEST POP JUMP JUMPDEST PUSH1 0x0 DUP2 CALLDATALOAD SWAP1 POP PUSH2 0x1C0D DUP2 PUSH2 0x1BEE JUMP JUMPDEST SWAP3 SWAP2 POP POP JUMP JUMPDEST PUSH1 0x5 DUP2 LT PUSH2 0x1C20 JUMPI PUSH1 0x0 DUP1 REVERT JUMPDEST POP JUMP JUMPDEST PUSH1 0x0 DUP2 CALLDATALOAD SWAP1 POP PUSH2 0x1C32 DUP2 PUSH2 0x1C13 JUMP JUMPDEST SWAP3 SWAP2 POP POP JUMP JUMPDEST PUSH1 0x0 DUP1 PUSH1 0x0 DUP1 PUSH1 0x0 DUP1 PUSH1 0x0 DUP1 PUSH1 0x0 DUP1 PUSH1 0x0 PUSH1 0xE0 DUP13 DUP15 SUB SLT ISZERO PUSH2 0x1C5D JUMPI PUSH2 0x1C5C PUSH2 0x17B4 JUMP JUMPDEST JUMPDEST PUSH1 0x0 DUP13 ADD CALLDATALOAD PUSH8 0xFFFFFFFFFFFFFFFF DUP2 GT ISZERO PUSH2 0x1C7B JUMPI PUSH2 0x1C7A PUSH2 0x17B9 JUMP JUMPDEST JUMPDEST PUSH2 0x1C87 DUP15 DUP3 DUP16 ADD PUSH2 0x1B5F JUMP JUMPDEST SWAP12 POP SWAP12 POP POP PUSH1 0x20 DUP13 ADD CALLDATALOAD PUSH8 0xFFFFFFFFFFFFFFFF DUP2 GT ISZERO PUSH2 0x1CAA JUMPI PUSH2 0x1CA9 PUSH2 0x17B9 JUMP JUMPDEST JUMPDEST PUSH2 0x1CB6 DUP15 DUP3 DUP16 ADD PUSH2 0x1B5F JUMP JUMPDEST SWAP10 POP SWAP10 POP POP PUSH1 0x40 PUSH2 0x1CC9 DUP15 DUP3 DUP16 ADD PUSH2 0x1BD9 JUMP JUMPDEST SWAP8 POP POP PUSH1 0x60 DUP13 ADD CALLDATALOAD PUSH8 0xFFFFFFFFFFFFFFFF DUP2 GT ISZERO PUSH2 0x1CEA JUMPI PUSH2 0x1CE9 PUSH2 0x17B9 JUMP JUMPDEST JUMPDEST PUSH2 0x1CF6 DUP15 DUP3 DUP16 ADD PUSH2 0x19D4 JUMP JUMPDEST SWAP7 POP SWAP7 POP POP PUSH1 0x80 PUSH2 0x1D09 DUP15 DUP3 DUP16 ADD PUSH2 0x1BFE JUMP JUMPDEST SWAP5 POP POP PUSH1 0xA0 DUP13 ADD CALLDATALOAD PUSH8 0xFFFFFFFFFFFFFFFF DUP2 GT ISZERO PUSH2 0x1D2A JUMPI PUSH2 0x1D29 PUSH2 0x17B9 JUMP JUMPDEST JUMPDEST PUSH2 0x1D36 DUP15 DUP3 DUP16 ADD PUSH2 0x19D4 JUMP JUMPDEST SWAP4 POP SWAP4 POP POP PUSH1 0xC0 PUSH2 0x1D49 DUP15 DUP3 DUP16 ADD PUSH2 0x1C23 JUMP JUMPDEST SWAP2 POP POP SWAP3 SWAP6 SWAP9 SWAP12 POP SWAP3 SWAP6 SWAP9 SWAP12 SWAP1 SWAP4 SWAP7 SWAP10 POP JUMP JUMPDEST PUSH1 0x0 DUP1 PUSH1 0x0 DUP1 PUSH1 0x0 DUP1 PUSH1 0x60 DUP8 DUP10 SUB SLT ISZERO PUSH2 0x1D79 JUMPI PUSH2 0x1D78 PUSH2 0x17B4 JUMP JUMPDEST JUMPDEST PUSH1 0x0 DUP8 ADD CALLDATALOAD PUSH8 0xFFFFFFFFFFFFFFFF DUP2 GT ISZERO PUSH2 0x1D97 JUMPI PUSH2 0x1D96 PUSH2 0x17B9 JUMP JUMPDEST JUMPDEST PUSH2 0x1DA3 DUP10 DUP3 DUP11 ADD PUSH2 0x19D4 JUMP JUMPDEST SWAP7 POP SWAP7 POP POP PUSH1 0x20 DUP8 ADD CALLDATALOAD PUSH8 0xFFFFFFFFFFFFFFFF DUP2 GT ISZERO PUSH2 0x1DC6 JUMPI PUSH2 0x1DC5 PUSH2 0x17B9 JUMP JUMPDEST JUMPDEST PUSH2 0x1DD2 DUP10 DUP3 DUP11 ADD PUSH2 0x19D4 JUMP JUMPDEST SWAP5 POP SWAP5 POP POP PUSH1 0x40 DUP8 ADD CALLDATALOAD PUSH8 0xFFFFFFFFFFFFFFFF DUP2 GT ISZERO PUSH2 0x1DF5 JUMPI PUSH2 0x1DF4 PUSH2 0x17B9 JUMP JUMPDEST JUMPDEST PUSH2 0x1E01 DUP10 DUP3 DUP11 ADD PUSH2 0x19D4 JUMP JUMPDEST SWAP3 POP SWAP3 POP POP SWAP3 SWAP6 POP SWAP3 SWAP6 POP SWAP3 SWAP6 JUMP JUMPDEST PUSH2 0x1E19 DUP2 PUSH2 0x1938 JUMP JUMPDEST DUP3 MSTORE POP POP JUMP JUMPDEST PUSH1 0x0 DUP2 MLOAD SWAP1 POP SWAP2 SWAP1 POP JUMP JUMPDEST PUSH1 0x0 DUP3 DUP3 MSTORE PUSH1 0x20 DUP3 ADD SWAP1 POP SWAP3 SWAP2 POP POP JUMP JUMPDEST PUSH1 0x0 JUMPDEST DUP4 DUP2 LT ISZERO PUSH2 0x1E59 JUMPI DUP1 DUP3 ADD MLOAD DUP2 DUP5 ADD MSTORE PUSH1 0x20 DUP2 ADD SWAP1 POP PUSH2 0x1E3E JUMP JUMPDEST PUSH1 0x0 DUP5 DUP5 ADD MSTORE POP POP POP POP JUMP JUMPDEST PUSH1 0x0 PUSH1 0x1F NOT PUSH1 0x1F DUP4 ADD AND SWAP1 POP SWAP2 SWAP1 POP JUMP JUMPDEST PUSH1 0x0 PUSH2 0x1E81 DUP3 PUSH2 0x1E1F JUMP JUMPDEST PUSH2 0x1E8B DUP2 DUP6 PUSH2 0x1E2A JUMP JUMPDEST SWAP4 POP PUSH2 0x1E9B DUP2 DUP6 PUSH1 0x20 DUP7 ADD PUSH2 0x1E3B JUMP JUMPDEST PUSH2 0x1EA4 DUP2 PUSH2 0x1E65 JUMP JUMPDEST DUP5 ADD SWAP2 POP POP SWAP3 SWAP2 POP POP JUMP JUMPDEST PUSH1 0x0 DUP2 MLOAD SWAP1 POP SWAP2 SWAP1 POP JUMP JUMPDEST PUSH1 0x0 DUP3 DUP3 MSTORE PUSH1 0x20 DUP3 ADD SWAP1 POP SWAP3 SWAP2 POP POP JUMP JUMPDEST PUSH1 0x0 DUP2 SWAP1 POP PUSH1 0x20 DUP3 ADD SWAP1 POP SWAP2 SWAP1 POP JUMP JUMPDEST PUSH1 0x0 PUSH2 0x1EE7 DUP4 DUP4 PUSH2 0x1E10 JUMP JUMPDEST PUSH1 0x20 DUP4 ADD SWAP1 POP SWAP3 SWAP2 POP POP JUMP JUMPDEST PUSH1 0x0 PUSH1 0x20 DUP3 ADD SWAP1 POP SWAP2 SWAP1 POP JUMP JUMPDEST PUSH1 0x0 PUSH2 0x1F0B DUP3 PUSH2 0x1EAF JUMP JUMPDEST PUSH2 0x1F15 DUP2 DUP6 PUSH2 0x1EBA JUMP JUMPDEST SWAP4 POP PUSH2 0x1F20 DUP4 PUSH2 0x1ECB JUMP JUMPDEST DUP1 PUSH1 0x0 JUMPDEST DUP4 DUP2 LT ISZERO PUSH2 0x1F51 JUMPI DUP2 MLOAD PUSH2 0x1F38 DUP9 DUP3 PUSH2 0x1EDB JUMP JUMPDEST SWAP8 POP PUSH2 0x1F43 DUP4 PUSH2 0x1EF3 JUMP JUMPDEST SWAP3 POP POP PUSH1 0x1 DUP2 ADD SWAP1 POP PUSH2 0x1F24 JUMP JUMPDEST POP DUP6 SWAP4 POP POP POP POP SWAP3 SWAP2 POP POP JUMP JUMPDEST PUSH2 0x1F67 DUP2 PUSH2 0x1843 JUMP JUMPDEST DUP3 MSTORE POP POP JUMP JUMPDEST PUSH1 0x0 PUSH2 0x100 DUP4 ADD PUSH1 0x0 DUP4 ADD MLOAD PUSH2 0x1F86 PUSH1 0x0 DUP7 ADD DUP3 PUSH2 0x1E10 JUMP JUMPDEST POP PUSH1 0x20 DUP4 ADD MLOAD PUSH2 0x1F99 PUSH1 0x20 DUP7 ADD DUP3 PUSH2 0x1E10 JUMP JUMPDEST POP PUSH1 0x40 DUP4 ADD MLOAD DUP5 DUP3 SUB PUSH1 0x40 DUP7 ADD MSTORE PUSH2 0x1FB1 DUP3 DUP3 PUSH2 0x1E76 JUMP JUMPDEST SWAP2 POP POP PUSH1 0x60 DUP4 ADD MLOAD DUP5 DUP3 SUB PUSH1 0x60 DUP7 ADD MSTORE PUSH2 0x1FCB DUP3 DUP3 PUSH2 0x1E76 JUMP JUMPDEST SWAP2 POP POP PUSH1 0x80 DUP4 ADD MLOAD DUP5 DUP3 SUB PUSH1 0x80 DUP7 ADD MSTORE PUSH2 0x1FE5 DUP3 DUP3 PUSH2 0x1E76 JUMP JUMPDEST SWAP2 POP POP PUSH1 0xA0 DUP4 ADD MLOAD DUP5 DUP3 SUB PUSH1 0xA0 DUP7 ADD MSTORE PUSH2 0x1FFF DUP3 DUP3 PUSH2 0x1F00 JUMP JUMPDEST SWAP2 POP POP PUSH1 0xC0 DUP4 ADD MLOAD PUSH2 0x2014 PUSH1 0xC0 DUP7 ADD DUP3 PUSH2 0x1F5E JUMP JUMPDEST POP PUSH1 0xE0 DUP4 ADD MLOAD PUSH2 0x2027 PUSH1 0xE0 DUP7 ADD DUP3 PUSH2 0x1F5E JUMP JUMPDEST POP DUP1 SWAP2 POP POP SWAP3 SWAP2 POP POP JUMP JUMPDEST PUSH1 0x0 PUSH1 0x20 DUP3 ADD SWAP1 POP DUP2 DUP2 SUB PUSH1 0x0 DUP4 ADD MSTORE PUSH2 0x204C DUP2 DUP5 PUSH2 0x1F6D JUMP JUMPDEST SWAP1 POP SWAP3 SWAP2 POP POP JUMP JUMPDEST PUSH1 0x0 DUP1 PUSH1 0x0 DUP1 PUSH1 0x0 PUSH1 0x60 DUP7 DUP9 SUB SLT ISZERO PUSH2 0x2070 JUMPI PUSH2 0x206F PUSH2 0x17B4 JUMP JUMPDEST JUMPDEST PUSH1 0x0 DUP7 ADD CALLDATALOAD PUSH8 0xFFFFFFFFFFFFFFFF DUP2 GT ISZERO PUSH2 0x208E JUMPI PUSH2 0x208D PUSH2 0x17B9 JUMP JUMPDEST JUMPDEST PUSH2 0x209A DUP9 DUP3 DUP10 ADD PUSH2 0x19D4 JUMP JUMPDEST SWAP6 POP SWAP6 POP POP PUSH1 0x20 DUP7 ADD CALLDATALOAD PUSH8 0xFFFFFFFFFFFFFFFF DUP2 GT ISZERO PUSH2 0x20BD JUMPI PUSH2 0x20BC PUSH2 0x17B9 JUMP JUMPDEST JUMPDEST PUSH2 0x20C9 DUP9 DUP3 DUP10 ADD PUSH2 0x19D4 JUMP JUMPDEST SWAP4 POP SWAP4 POP POP PUSH1 0x40 PUSH2 0x20DC DUP9 DUP3 DUP10 ADD PUSH2 0x1A41 JUMP JUMPDEST SWAP2 POP POP SWAP3 SWAP6 POP SWAP3 SWAP6 SWAP1 SWAP4 POP JUMP JUMPDEST PUSH1 0x0 DUP1 PUSH1 0x0 DUP1 PUSH1 0x40 DUP6 DUP8 SUB SLT ISZERO PUSH2 0x2103 JUMPI PUSH2 0x2102 PUSH2 0x17B4 JUMP JUMPDEST JUMPDEST PUSH1 0x0 DUP6 ADD CALLDATALOAD PUSH8 0xFFFFFFFFFFFFFFFF DUP2 GT ISZERO PUSH2 0x2121 JUMPI PUSH2 0x2120 PUSH2 0x17B9 JUMP JUMPDEST JUMPDEST PUSH2 0x212D DUP8 DUP3 DUP9 ADD PUSH2 0x19D4 JUMP JUMPDEST SWAP5 POP SWAP5 POP POP PUSH1 0x20 DUP6 ADD CALLDATALOAD PUSH8 0xFFFFFFFFFFFFFFFF DUP2 GT ISZERO PUSH2 0x2150 JUMPI PUSH2 0x214F PUSH2 0x17B9 JUMP JUMPDEST JUMPDEST PUSH2 0x215C DUP8 DUP3 DUP9 ADD PUSH2 0x19D4 JUMP JUMPDEST SWAP3 POP SWAP3 POP POP SWAP3 SWAP6 SWAP2 SWAP5 POP SWAP3 POP JUMP JUMPDEST PUSH1 0x0 PUSH1 0xC0 DUP4 ADD PUSH1 0x0 DUP4 ADD MLOAD PUSH2 0x2182 PUSH1 0x0 DUP7 ADD DUP3 PUSH2 0x1E10 JUMP JUMPDEST POP PUSH1 0x20 DUP4 ADD MLOAD PUSH2 0x2195 PUSH1 0x20 DUP7 ADD DUP3 PUSH2 0x1E10 JUMP JUMPDEST POP PUSH1 0x40 DUP4 ADD MLOAD DUP5 DUP3 SUB PUSH1 0x40 DUP7 ADD MSTORE PUSH2 0x21AD DUP3 DUP3 PUSH2 0x1E76 JUMP JUMPDEST SWAP2 POP POP PUSH1 0x60 DUP4 ADD MLOAD DUP5 DUP3 SUB PUSH1 0x60 DUP7 ADD MSTORE PUSH2 0x21C7 DUP3 DUP3 PUSH2 0x1E76 JUMP JUMPDEST SWAP2 POP POP PUSH1 0x80 DUP4 ADD MLOAD PUSH2 0x21DC PUSH1 0x80 DUP7 ADD DUP3 PUSH2 0x1F5E JUMP JUMPDEST POP PUSH1 0xA0 DUP4 ADD MLOAD DUP5 DUP3 SUB PUSH1 0xA0 DUP7 ADD MSTORE PUSH2 0x21F4 DUP3 DUP3 PUSH2 0x1F00 JUMP JUMPDEST SWAP2 POP POP DUP1 SWAP2 POP POP SWAP3 SWAP2 POP POP JUMP JUMPDEST PUSH1 0x0 PUSH1 0x20 DUP3 ADD SWAP1 POP DUP2 DUP2 SUB PUSH1 0x0 DUP4 ADD MSTORE PUSH2 0x221B DUP2 DUP5 PUSH2 0x216A JUMP JUMPDEST SWAP1 POP SWAP3 SWAP2 POP POP JUMP JUMPDEST PUSH2 0x222C DUP2 PUSH2 0x1899 JUMP JUMPDEST DUP3 MSTORE POP POP JUMP JUMPDEST PUSH1 0x0 PUSH1 0x20 DUP3 ADD SWAP1 POP PUSH2 0x2247 PUSH1 0x0 DUP4 ADD DUP5 PUSH2 0x2223 JUMP JUMPDEST SWAP3 SWAP2 POP POP JUMP JUMPDEST PUSH1 0x0 DUP2 MLOAD SWAP1 POP PUSH2 0x225C DUP2 PUSH2 0x1A2A JUMP JUMPDEST SWAP3 SWAP2 POP POP JUMP JUMPDEST PUSH1 0x0 PUSH1 0x20 DUP3 DUP5 SUB SLT ISZERO PUSH2 0x2278 JUMPI PUSH2 0x2277 PUSH2 0x17B4 JUMP JUMPDEST JUMPDEST PUSH1 0x0 PUSH2 0x2286 DUP5 DUP3 DUP6 ADD PUSH2 0x224D JUMP JUMPDEST SWAP2 POP POP SWAP3 SWAP2 POP POP JUMP JUMPDEST PUSH2 0x2298 DUP2 PUSH2 0x1938 JUMP JUMPDEST DUP2 EQ PUSH2 0x22A3 JUMPI PUSH1 0x0 DUP1 REVERT JUMPDEST POP JUMP JUMPDEST PUSH1 0x0 DUP2 MLOAD SWAP1 POP PUSH2 0x22B5 DUP2 PUSH2 0x228F JUMP JUMPDEST SWAP3 SWAP2 POP POP JUMP JUMPDEST PUSH1 0x0 PUSH1 0x20 DUP3 DUP5 SUB SLT ISZERO PUSH2 0x22D1 JUMPI PUSH2 0x22D0 PUSH2 0x17B4 JUMP JUMPDEST JUMPDEST PUSH1 0x0 PUSH2 0x22DF DUP5 DUP3 DUP6 ADD PUSH2 0x22A6 JUMP JUMPDEST SWAP2 POP POP SWAP3 SWAP2 POP POP JUMP JUMPDEST PUSH1 0x0 DUP1 REVERT JUMPDEST PUSH32 0x4E487B7100000000000000000000000000000000000000000000000000000000 PUSH1 0x0 MSTORE PUSH1 0x41 PUSH1 0x4 MSTORE PUSH1 0x24 PUSH1 0x0 REVERT JUMPDEST PUSH2 0x2325 DUP3 PUSH2 0x1E65 JUMP JUMPDEST DUP2 ADD DUP2 DUP2 LT PUSH8 0xFFFFFFFFFFFFFFFF DUP3 GT OR ISZERO PUSH2 0x2344 JUMPI PUSH2 0x2343 PUSH2 0x22ED JUMP JUMPDEST JUMPDEST DUP1 PUSH1 0x40 MSTORE POP POP POP JUMP JUMPDEST PUSH1 0x0 PUSH2 0x2357 PUSH2 0x17AA JUMP JUMPDEST SWAP1 POP PUSH2 0x2363 DUP3 DUP3 PUSH2 0x231C JUMP JUMPDEST SWAP2 SWAP1 POP JUMP JUMPDEST PUSH1 0x0 DUP1 REVERT JUMPDEST PUSH1 0x0 DUP1 REVERT JUMPDEST PUSH1 0x0 PUSH8 0xFFFFFFFFFFFFFFFF DUP3 GT ISZERO PUSH2 0x238D JUMPI PUSH2 0x238C PUSH2 0x22ED JUMP JUMPDEST JUMPDEST PUSH2 0x2396 DUP3 PUSH2 0x1E65 JUMP JUMPDEST SWAP1 POP PUSH1 0x20 DUP2 ADD SWAP1 POP SWAP2 SWAP1 POP JUMP JUMPDEST PUSH1 0x0 PUSH2 0x23B6 PUSH2 0x23B1 DUP5 PUSH2 0x2372 JUMP JUMPDEST PUSH2 0x234D JUMP JUMPDEST SWAP1 POP DUP3 DUP2 MSTORE PUSH1 0x20 DUP2 ADD DUP5 DUP5 DUP5 ADD GT ISZERO PUSH2 0x23D2 JUMPI PUSH2 0x23D1 PUSH2 0x236D JUMP JUMPDEST JUMPDEST PUSH2 0x23DD DUP5 DUP3 DUP6 PUSH2 0x1E3B JUMP JUMPDEST POP SWAP4 SWAP3 POP POP POP JUMP JUMPDEST PUSH1 0x0 DUP3 PUSH1 0x1F DUP4 ADD SLT PUSH2 0x23FA JUMPI PUSH2 0x23F9 PUSH2 0x19C5 JUMP JUMPDEST JUMPDEST DUP2 MLOAD PUSH2 0x240A DUP5 DUP3 PUSH1 0x20 DUP7 ADD PUSH2 0x23A3 JUMP JUMPDEST SWAP2 POP POP SWAP3 SWAP2 POP POP JUMP JUMPDEST PUSH1 0x0 PUSH8 0xFFFFFFFFFFFFFFFF DUP3 GT ISZERO PUSH2 0x242E JUMPI PUSH2 0x242D PUSH2 0x22ED JUMP JUMPDEST JUMPDEST PUSH1 0x20 DUP3 MUL SWAP1 POP PUSH1 0x20 DUP2 ADD SWAP1 POP SWAP2 SWAP1 POP JUMP JUMPDEST PUSH1 0x0 PUSH2 0x2452 PUSH2 0x244D DUP5 PUSH2 0x2413 JUMP JUMPDEST PUSH2 0x234D JUMP JUMPDEST SWAP1 POP DUP1 DUP4 DUP3 MSTORE PUSH1 0x20 DUP3 ADD SWAP1 POP PUSH1 0x20 DUP5 MUL DUP4 ADD DUP6 DUP2 GT ISZERO PUSH2 0x2475 JUMPI PUSH2 0x2474 PUSH2 0x19CF JUMP JUMPDEST JUMPDEST DUP4 JUMPDEST DUP2 DUP2 LT ISZERO PUSH2 0x249E JUMPI DUP1 PUSH2 0x248A DUP9 DUP3 PUSH2 0x22A6 JUMP JUMPDEST DUP5 MSTORE PUSH1 0x20 DUP5 ADD SWAP4 POP POP PUSH1 0x20 DUP2 ADD SWAP1 POP PUSH2 0x2477 JUMP JUMPDEST POP POP POP SWAP4 SWAP3 POP POP POP JUMP JUMPDEST PUSH1 0x0 DUP3 PUSH1 0x1F DUP4 ADD SLT PUSH2 0x24BD JUMPI PUSH2 0x24BC PUSH2 0x19C5 JUMP JUMPDEST JUMPDEST DUP2 MLOAD PUSH2 0x24CD DUP5 DUP3 PUSH1 0x20 DUP7 ADD PUSH2 0x243F JUMP JUMPDEST SWAP2 POP POP SWAP3 SWAP2 POP POP JUMP JUMPDEST PUSH1 0x0 PUSH2 0x100 DUP3 DUP5 SUB SLT ISZERO PUSH2 0x24ED JUMPI PUSH2 0x24EC PUSH2 0x22E8 JUMP JUMPDEST JUMPDEST PUSH2 0x24F8 PUSH2 0x100 PUSH2 0x234D JUMP JUMPDEST SWAP1 POP PUSH1 0x0 PUSH2 0x2508 DUP5 DUP3 DUP6 ADD PUSH2 0x22A6 JUMP JUMPDEST PUSH1 0x0 DUP4 ADD MSTORE POP PUSH1 0x20 PUSH2 0x251C DUP5 DUP3 DUP6 ADD PUSH2 0x22A6 JUMP JUMPDEST PUSH1 0x20 DUP4 ADD MSTORE POP PUSH1 0x40 DUP3 ADD MLOAD PUSH8 0xFFFFFFFFFFFFFFFF DUP2 GT ISZERO PUSH2 0x2540 JUMPI PUSH2 0x253F PUSH2 0x2368 JUMP JUMPDEST JUMPDEST PUSH2 0x254C DUP5 DUP3 DUP6 ADD PUSH2 0x23E5 JUMP JUMPDEST PUSH1 0x40 DUP4 ADD MSTORE POP PUSH1 0x60 DUP3 ADD MLOAD PUSH8 0xFFFFFFFFFFFFFFFF DUP2 GT ISZERO PUSH2 0x2570 JUMPI PUSH2 0x256F PUSH2 0x2368 JUMP JUMPDEST JUMPDEST PUSH2 0x257C DUP5 DUP3 DUP6 ADD PUSH2 0x23E5 JUMP JUMPDEST PUSH1 0x60 DUP4 ADD MSTORE POP PUSH1 0x80 DUP3 ADD MLOAD PUSH8 0xFFFFFFFFFFFFFFFF DUP2 GT ISZERO PUSH2 0x25A0 JUMPI PUSH2 0x259F PUSH2 0x2368 JUMP JUMPDEST JUMPDEST PUSH2 0x25AC DUP5 DUP3 DUP6 ADD PUSH2 0x23E5 JUMP JUMPDEST PUSH1 0x80 DUP4 ADD MSTORE POP PUSH1 0xA0 DUP3 ADD MLOAD PUSH8 0xFFFFFFFFFFFFFFFF DUP2 GT ISZERO PUSH2 0x25D0 JUMPI PUSH2 0x25CF PUSH2 0x2368 JUMP JUMPDEST JUMPDEST PUSH2 0x25DC DUP5 DUP3 DUP6 ADD PUSH2 0x24A8 JUMP JUMPDEST PUSH1 0xA0 DUP4 ADD MSTORE POP PUSH1 0xC0 PUSH2 0x25F0 DUP5 DUP3 DUP6 ADD PUSH2 0x224D JUMP JUMPDEST PUSH1 0xC0 DUP4 ADD MSTORE POP PUSH1 0xE0 PUSH2 0x2604 DUP5 DUP3 DUP6 ADD PUSH2 0x224D JUMP JUMPDEST PUSH1 0xE0 DUP4 ADD MSTORE POP SWAP3 SWAP2 POP POP JUMP JUMPDEST PUSH1 0x0 PUSH1 0x20 DUP3 DUP5 SUB SLT ISZERO PUSH2 0x2626 JUMPI PUSH2 0x2625 PUSH2 0x17B4 JUMP JUMPDEST JUMPDEST PUSH1 0x0 DUP3 ADD MLOAD PUSH8 0xFFFFFFFFFFFFFFFF DUP2 GT ISZERO PUSH2 0x2644 JUMPI PUSH2 0x2643 PUSH2 0x17B9 JUMP JUMPDEST JUMPDEST PUSH2 0x2650 DUP5 DUP3 DUP6 ADD PUSH2 0x24D6 JUMP JUMPDEST SWAP2 POP POP SWAP3 SWAP2 POP POP JUMP JUMPDEST PUSH1 0x0 DUP3 DUP3 MSTORE PUSH1 0x20 DUP3 ADD SWAP1 POP SWAP3 SWAP2 POP POP JUMP JUMPDEST DUP3 DUP2 DUP4 CALLDATACOPY PUSH1 0x0 DUP4 DUP4 ADD MSTORE POP POP POP JUMP JUMPDEST PUSH1 0x0 PUSH2 0x2685 DUP4 DUP6 PUSH2 0x2659 JUMP JUMPDEST SWAP4 POP PUSH2 0x2692 DUP4 DUP6 DUP5 PUSH2 0x266A JUMP JUMPDEST PUSH2 0x269B DUP4 PUSH2 0x1E65 JUMP JUMPDEST DUP5 ADD SWAP1 POP SWAP4 SWAP3 POP POP POP JUMP JUMPDEST PUSH1 0x0 PUSH1 0xA0 DUP3 ADD SWAP1 POP PUSH2 0x26BB PUSH1 0x0 DUP4 ADD DUP12 PUSH2 0x2223 JUMP JUMPDEST DUP2 DUP2 SUB PUSH1 0x20 DUP4 ADD MSTORE PUSH2 0x26CE DUP2 DUP10 DUP12 PUSH2 0x2679 JUMP JUMPDEST SWAP1 POP DUP2 DUP2 SUB PUSH1 0x40 DUP4 ADD MSTORE PUSH2 0x26E3 DUP2 DUP8 DUP10 PUSH2 0x2679 JUMP JUMPDEST SWAP1 POP DUP2 DUP2 SUB PUSH1 0x60 DUP4 ADD MSTORE PUSH2 0x26F8 DUP2 DUP6 DUP8 PUSH2 0x2679 JUMP JUMPDEST SWAP1 POP PUSH2 0x2707 PUSH1 0x80 DUP4 ADD DUP5 PUSH2 0x184F JUMP JUMPDEST SWAP10 SWAP9 POP POP POP POP POP POP POP POP POP JUMP JUMPDEST PUSH1 0x0 PUSH1 0x40 DUP3 ADD SWAP1 POP PUSH2 0x2729 PUSH1 0x0 DUP4 ADD DUP6 PUSH2 0x2223 JUMP JUMPDEST PUSH2 0x2736 PUSH1 0x20 DUP4 ADD DUP5 PUSH2 0x1942 JUMP JUMPDEST SWAP4 SWAP3 POP POP POP JUMP JUMPDEST PUSH1 0x0 DUP3 DUP3 MSTORE PUSH1 0x20 DUP3 ADD SWAP1 POP SWAP3 SWAP2 POP POP JUMP JUMPDEST PUSH1 0x0 DUP2 SWAP1 POP SWAP2 SWAP1 POP JUMP JUMPDEST PUSH2 0x2761 DUP2 PUSH2 0x1BB5 JUMP JUMPDEST DUP3 MSTORE POP POP JUMP JUMPDEST PUSH1 0x0 PUSH2 0x2773 DUP4 DUP4 PUSH2 0x2758 JUMP JUMPDEST PUSH1 0x20 DUP4 ADD SWAP1 POP SWAP3 SWAP2 POP POP JUMP JUMPDEST PUSH1 0x0 PUSH2 0x278E PUSH1 0x20 DUP5 ADD DUP5 PUSH2 0x1BD9 JUMP JUMPDEST SWAP1 POP SWAP3 SWAP2 POP POP JUMP JUMPDEST PUSH1 0x0 PUSH1 0x20 DUP3 ADD SWAP1 POP SWAP2 SWAP1 POP JUMP JUMPDEST PUSH1 0x0 PUSH2 0x27AF DUP4 DUP6 PUSH2 0x273D JUMP JUMPDEST SWAP4 POP PUSH2 0x27BA DUP3 PUSH2 0x274E JUMP JUMPDEST DUP1 PUSH1 0x0 JUMPDEST DUP6 DUP2 LT ISZERO PUSH2 0x27F3 JUMPI PUSH2 0x27D0 DUP3 DUP5 PUSH2 0x277F JUMP JUMPDEST PUSH2 0x27DA DUP9 DUP3 PUSH2 0x2767 JUMP JUMPDEST SWAP8 POP PUSH2 0x27E5 DUP4 PUSH2 0x2796 JUMP JUMPDEST SWAP3 POP POP PUSH1 0x1 DUP2 ADD SWAP1 POP PUSH2 0x27BE JUMP JUMPDEST POP DUP6 SWAP3 POP POP POP SWAP4 SWAP3 POP POP POP JUMP JUMPDEST PUSH2 0x2809 DUP2 PUSH2 0x1BB5 JUMP JUMPDEST DUP3 MSTORE POP POP JUMP JUMPDEST PUSH32 0x4E487B7100000000000000000000000000000000000000000000000000000000 PUSH1 0x0 MSTORE PUSH1 0x21 PUSH1 0x4 MSTORE PUSH1 0x24 PUSH1 0x0 REVERT JUMPDEST PUSH1 0x4 DUP2 LT PUSH2 0x284F JUMPI PUSH2 0x284E PUSH2 0x280F JUMP JUMPDEST JUMPDEST POP JUMP JUMPDEST PUSH1 0x0 DUP2 SWAP1 POP PUSH2 0x2860 DUP3 PUSH2 0x283E JUMP JUMPDEST SWAP2 SWAP1 POP JUMP JUMPDEST PUSH1 0x0 PUSH2 0x2870 DUP3 PUSH2 0x2852 JUMP JUMPDEST SWAP1 POP SWAP2 SWAP1 POP JUMP JUMPDEST PUSH2 0x2880 DUP2 PUSH2 0x2865 JUMP JUMPDEST DUP3 MSTORE POP POP JUMP JUMPDEST PUSH1 0x5 DUP2 LT PUSH2 0x2897 JUMPI PUSH2 0x2896 PUSH2 0x280F JUMP JUMPDEST JUMPDEST POP JUMP JUMPDEST PUSH1 0x0 DUP2 SWAP1 POP PUSH2 0x28A8 DUP3 PUSH2 0x2886 JUMP JUMPDEST SWAP2 SWAP1 POP JUMP JUMPDEST PUSH1 0x0 PUSH2 0x28B8 DUP3 PUSH2 0x289A JUMP JUMPDEST SWAP1 POP SWAP2 SWAP1 POP JUMP JUMPDEST PUSH2 0x28C8 DUP2 PUSH2 0x28AD JUMP JUMPDEST DUP3 MSTORE POP POP JUMP JUMPDEST PUSH1 0x0 PUSH1 0xE0 DUP3 ADD SWAP1 POP DUP2 DUP2 SUB PUSH1 0x0 DUP4 ADD MSTORE PUSH2 0x28E9 DUP2 DUP14 DUP16 PUSH2 0x27A3 JUMP JUMPDEST SWAP1 POP DUP2 DUP2 SUB PUSH1 0x20 DUP4 ADD MSTORE PUSH2 0x28FE DUP2 DUP12 DUP14 PUSH2 0x27A3 JUMP JUMPDEST SWAP1 POP PUSH2 0x290D PUSH1 0x40 DUP4 ADD DUP11 PUSH2 0x2800 JUMP JUMPDEST DUP2 DUP2 SUB PUSH1 0x60 DUP4 ADD MSTORE PUSH2 0x2920 DUP2 DUP9 DUP11 PUSH2 0x2679 JUMP JUMPDEST SWAP1 POP PUSH2 0x292F PUSH1 0x80 DUP4 ADD DUP8 PUSH2 0x2877 JUMP JUMPDEST DUP2 DUP2 SUB PUSH1 0xA0 DUP4 ADD MSTORE PUSH2 0x2942 DUP2 DUP6 DUP8 PUSH2 0x2679 JUMP JUMPDEST SWAP1 POP PUSH2 0x2951 PUSH1 0xC0 DUP4 ADD DUP5 PUSH2 0x28BF JUMP JUMPDEST SWAP13 SWAP12 POP POP POP POP POP POP POP POP POP POP POP POP JUMP JUMPDEST PUSH1 0x0 PUSH1 0xC0 DUP3 ADD SWAP1 POP PUSH2 0x2976 PUSH1 0x0 DUP4 ADD DUP13 PUSH2 0x2223 JUMP JUMPDEST DUP2 DUP2 SUB PUSH1 0x20 DUP4 ADD MSTORE PUSH2 0x2989 DUP2 DUP11 DUP13 PUSH2 0x2679 JUMP JUMPDEST SWAP1 POP DUP2 DUP2 SUB PUSH1 0x40 DUP4 ADD MSTORE PUSH2 0x299E DUP2 DUP9 DUP11 PUSH2 0x2679 JUMP JUMPDEST SWAP1 POP DUP2 DUP2 SUB PUSH1 0x60 DUP4 ADD MSTORE PUSH2 0x29B3 DUP2 DUP7 DUP9 PUSH2 0x2679 JUMP JUMPDEST SWAP1 POP PUSH2 0x29C2 PUSH1 0x80 DUP4 ADD DUP6 PUSH2 0x184F JUMP JUMPDEST PUSH2 0x29CF PUSH1 0xA0 DUP4 ADD DUP5 PUSH2 0x184F JUMP JUMPDEST SWAP11 SWAP10 POP POP POP POP POP POP POP POP POP POP JUMP JUMPDEST PUSH1 0x0 PUSH1 0xC0 DUP3 DUP5 SUB SLT ISZERO PUSH2 0x29F3 JUMPI PUSH2 0x29F2 PUSH2 0x22E8 JUMP JUMPDEST JUMPDEST PUSH2 0x29FD PUSH1 0xC0 PUSH2 0x234D JUMP JUMPDEST SWAP1 POP PUSH1 0x0 PUSH2 0x2A0D DUP5 DUP3 DUP6 ADD PUSH2 0x22A6 JUMP JUMPDEST PUSH1 0x0 DUP4 ADD MSTORE POP PUSH1 0x20 PUSH2 0x2A21 DUP5 DUP3 DUP6 ADD PUSH2 0x22A6 JUMP JUMPDEST PUSH1 0x20 DUP4 ADD MSTORE POP PUSH1 0x40 DUP3 ADD MLOAD PUSH8 0xFFFFFFFFFFFFFFFF DUP2 GT ISZERO PUSH2 0x2A45 JUMPI PUSH2 0x2A44 PUSH2 0x2368 JUMP JUMPDEST JUMPDEST PUSH2 0x2A51 DUP5 DUP3 DUP6 ADD PUSH2 0x23E5 JUMP JUMPDEST PUSH1 0x40 DUP4 ADD MSTORE POP PUSH1 0x60 DUP3 ADD MLOAD PUSH8 0xFFFFFFFFFFFFFFFF DUP2 GT ISZERO PUSH2 0x2A75 JUMPI PUSH2 0x2A74 PUSH2 0x2368 JUMP JUMPDEST JUMPDEST PUSH2 0x2A81 DUP5 DUP3 DUP6 ADD PUSH2 0x23E5 JUMP JUMPDEST PUSH1 0x60 DUP4 ADD MSTORE POP PUSH1 0x80 PUSH2 0x2A95 DUP5 DUP3 DUP6 ADD PUSH2 0x224D JUMP JUMPDEST PUSH1 0x80 DUP4 ADD MSTORE POP PUSH1 0xA0 DUP3 ADD MLOAD PUSH8 0xFFFFFFFFFFFFFFFF DUP2 GT ISZERO PUSH2 0x2AB9 JUMPI PUSH2 0x2AB8 PUSH2 0x2368 JUMP JUMPDEST JUMPDEST PUSH2 0x2AC5 DUP5 DUP3 DUP6 ADD PUSH2 0x24A8 JUMP JUMPDEST PUSH1 0xA0 DUP4 ADD MSTORE POP SWAP3 SWAP2 POP POP JUMP JUMPDEST PUSH1 0x0 PUSH1 0x20 DUP3 DUP5 SUB SLT ISZERO PUSH2 0x2AE7 JUMPI PUSH2 0x2AE6 PUSH2 0x17B4 JUMP JUMPDEST JUMPDEST PUSH1 0x0 DUP3 ADD MLOAD PUSH8 0xFFFFFFFFFFFFFFFF DUP2 GT ISZERO PUSH2 0x2B05 JUMPI PUSH2 0x2B04 PUSH2 0x17B9 JUMP JUMPDEST JUMPDEST PUSH2 0x2B11 DUP5 DUP3 DUP6 ADD PUSH2 0x29DD JUMP JUMPDEST SWAP2 POP POP SWAP3 SWAP2 POP POP JUMP JUMPDEST PUSH1 0x0 PUSH1 0x80 DUP3 ADD SWAP1 POP PUSH2 0x2B2F PUSH1 0x0 DUP4 ADD DUP10 PUSH2 0x2223 JUMP JUMPDEST DUP2 DUP2 SUB PUSH1 0x20 DUP4 ADD MSTORE PUSH2 0x2B42 DUP2 DUP8 DUP10 PUSH2 0x2679 JUMP JUMPDEST SWAP1 POP DUP2 DUP2 SUB PUSH1 0x40 DUP4 ADD MSTORE PUSH2 0x2B57 DUP2 DUP6 DUP8 PUSH2 0x2679 JUMP JUMPDEST SWAP1 POP PUSH2 0x2B66 PUSH1 0x60 DUP4 ADD DUP5 PUSH2 0x184F JUMP JUMPDEST SWAP8 SWAP7 POP POP POP POP POP POP POP JUMP JUMPDEST PUSH1 0x0 PUSH1 0x40 DUP3 ADD SWAP1 POP PUSH2 0x2B86 PUSH1 0x0 DUP4 ADD DUP6 PUSH2 0x2223 JUMP JUMPDEST PUSH2 0x2B93 PUSH1 0x20 DUP4 ADD DUP5 PUSH2 0x190E JUMP JUMPDEST SWAP4 SWAP3 POP POP POP JUMP INVALID LOG2 PUSH5 0x6970667358 0x22 SLT KECCAK256 SMOD PC ADDMOD 0x1F 0x4E 0xB9 PUSH3 0x73C26F 0xD PUSH11 0xD684880E13F8F4C0BFAE8A 0xC7 0xEA DUP10 OR PUSH15 0xDF771CF964736F6C634300081C0033 "},"methodIdentifiers":{"ADMIN()":"2a0acc6a","CERTIFICATOR_ROLE()":"934b4af2","CUSTOMERS_ROLE()":"22f537ce","DEFAULT_ADMIN_ROLE()":"a217fddf","FALSE()":"4ff7986e","JEWELERS_ROLE()":"0cdb5cb5","TRUE()":"5994d984","activateJeweler(address)":"29acc209","admin()":"f851a440","createCertificate(uint8[],uint8[],uint8,string,uint8,string,uint8)":"41cc7c73","createCustomer(string,string)":"c43fe7c4","createJeweler(string,string,string)":"55ed5fe8","desactivateJeweler(address)":"081ba2d5","getCustomerCount()":"2027d746","getJewelerCount()":"8c271777","getOneCustomer(address)":"ee7bf0ee","getOneJeweler(address)":"57a00ccf","getRoleAdmin(bytes32)":"248a9ca3","grantRole(bytes32,address)":"2f2ff15d","hasRole(bytes32,address)":"91d14854","renounceRole(bytes32,address)":"36568abe","revokeRole(bytes32,address)":"d547741f","supportsInterface(bytes4)":"01ffc9a7","transertCertificate()":"a1e5a38a","updateCertificate()":"899f9d0d","updateCustomer(string,string,bool)":"c21d034f","updateJeweler(string,string,string,bool)":"2b3dd38b"}}}}}