{"contracts/GoldChain.sol":{"GoldChain":{"abi":[{"inputs":[{"internalType":"contract IDataStorage","name":"_dataStorage","type":"address"}],"stateMutability":"nonpayable","type":"constructor"},{"inputs":[],"name":"AccessControlBadConfirmation","type":"error"},{"inputs":[{"internalType":"address","name":"account","type":"address"},{"internalType":"bytes32","name":"neededRole","type":"bytes32"}],"name":"AccessControlUnauthorizedAccount","type":"error"},{"inputs":[],"name":"CustomerIsAlreadyRegistered","type":"error"},{"inputs":[],"name":"CustomerNotExists","type":"error"},{"inputs":[],"name":"ERC721EnumerableForbiddenBatchMint","type":"error"},{"inputs":[{"internalType":"address","name":"sender","type":"address"},{"internalType":"uint256","name":"tokenId","type":"uint256"},{"internalType":"address","name":"owner","type":"address"}],"name":"ERC721IncorrectOwner","type":"error"},{"inputs":[{"internalType":"address","name":"operator","type":"address"},{"internalType":"uint256","name":"tokenId","type":"uint256"}],"name":"ERC721InsufficientApproval","type":"error"},{"inputs":[{"internalType":"address","name":"approver","type":"address"}],"name":"ERC721InvalidApprover","type":"error"},{"inputs":[{"internalType":"address","name":"operator","type":"address"}],"name":"ERC721InvalidOperator","type":"error"},{"inputs":[{"internalType":"address","name":"owner","type":"address"}],"name":"ERC721InvalidOwner","type":"error"},{"inputs":[{"internalType":"address","name":"receiver","type":"address"}],"name":"ERC721InvalidReceiver","type":"error"},{"inputs":[{"internalType":"address","name":"sender","type":"address"}],"name":"ERC721InvalidSender","type":"error"},{"inputs":[{"internalType":"uint256","name":"tokenId","type":"uint256"}],"name":"ERC721NonexistentToken","type":"error"},{"inputs":[{"internalType":"address","name":"owner","type":"address"},{"internalType":"uint256","name":"index","type":"uint256"}],"name":"ERC721OutOfBoundsIndex","type":"error"},{"inputs":[],"name":"JewelerIsAlreadyRegistered","type":"error"},{"inputs":[],"name":"JewelerNotExists","type":"error"},{"anonymous":false,"inputs":[{"indexed":true,"internalType":"address","name":"owner","type":"address"},{"indexed":true,"internalType":"address","name":"approved","type":"address"},{"indexed":true,"internalType":"uint256","name":"tokenId","type":"uint256"}],"name":"Approval","type":"event"},{"anonymous":false,"inputs":[{"indexed":true,"internalType":"address","name":"owner","type":"address"},{"indexed":true,"internalType":"address","name":"operator","type":"address"},{"indexed":false,"internalType":"bool","name":"approved","type":"bool"}],"name":"ApprovalForAll","type":"event"},{"anonymous":false,"inputs":[{"indexed":true,"internalType":"bytes32","name":"role","type":"bytes32"},{"indexed":true,"internalType":"bytes32","name":"previousAdminRole","type":"bytes32"},{"indexed":true,"internalType":"bytes32","name":"newAdminRole","type":"bytes32"}],"name":"RoleAdminChanged","type":"event"},{"anonymous":false,"inputs":[{"indexed":true,"internalType":"bytes32","name":"role","type":"bytes32"},{"indexed":true,"internalType":"address","name":"account","type":"address"},{"indexed":true,"internalType":"address","name":"sender","type":"address"}],"name":"RoleGranted","type":"event"},{"anonymous":false,"inputs":[{"indexed":true,"internalType":"bytes32","name":"role","type":"bytes32"},{"indexed":true,"internalType":"address","name":"account","type":"address"},{"indexed":true,"internalType":"address","name":"sender","type":"address"}],"name":"RoleRevoked","type":"event"},{"anonymous":false,"inputs":[{"indexed":true,"internalType":"address","name":"from","type":"address"},{"indexed":true,"internalType":"address","name":"to","type":"address"},{"indexed":true,"internalType":"uint256","name":"tokenId","type":"uint256"}],"name":"Transfer","type":"event"},{"anonymous":false,"inputs":[{"indexed":false,"internalType":"address","name":"jewelerAddress","type":"address"},{"indexed":false,"internalType":"uint256","name":"timestamp","type":"uint256"},{"indexed":false,"internalType":"uint256","name":"certificateId","type":"uint256"}],"name":"certificateCreated","type":"event"},{"anonymous":false,"inputs":[{"indexed":false,"internalType":"address","name":"customerAddress","type":"address"},{"indexed":false,"internalType":"uint256","name":"timestamp","type":"uint256"}],"name":"customerCreated","type":"event"},{"anonymous":false,"inputs":[{"indexed":false,"internalType":"address","name":"customerAddress","type":"address"},{"indexed":false,"internalType":"uint256","name":"timestamp","type":"uint256"}],"name":"customerUpdated","type":"event"},{"anonymous":false,"inputs":[{"indexed":false,"internalType":"address","name":"jewelerAddress","type":"address"},{"indexed":false,"internalType":"uint256","name":"timestamp","type":"uint256"}],"name":"jewelerActivated","type":"event"},{"anonymous":false,"inputs":[{"indexed":false,"internalType":"address","name":"jewelerAddress","type":"address"},{"indexed":false,"internalType":"uint256","name":"timestamp","type":"uint256"}],"name":"jewelerCreated","type":"event"},{"anonymous":false,"inputs":[{"indexed":false,"internalType":"address","name":"jewelerAddress","type":"address"},{"indexed":false,"internalType":"uint256","name":"timestamp","type":"uint256"}],"name":"jewelerDesactivated","type":"event"},{"anonymous":false,"inputs":[{"indexed":false,"internalType":"address","name":"jewelerAddress","type":"address"},{"indexed":false,"internalType":"uint256","name":"timestamp","type":"uint256"}],"name":"jewelerUpdated","type":"event"},{"inputs":[],"name":"ADMIN","outputs":[{"internalType":"bytes32","name":"","type":"bytes32"}],"stateMutability":"view","type":"function"},{"inputs":[],"name":"CERTIFICATOR_ROLE","outputs":[{"internalType":"bytes32","name":"","type":"bytes32"}],"stateMutability":"view","type":"function"},{"inputs":[],"name":"CUSTOMERS_ROLE","outputs":[{"internalType":"bytes32","name":"","type":"bytes32"}],"stateMutability":"view","type":"function"},{"inputs":[],"name":"DEFAULT_ADMIN_ROLE","outputs":[{"internalType":"bytes32","name":"","type":"bytes32"}],"stateMutability":"view","type":"function"},{"inputs":[],"name":"FALSE","outputs":[{"internalType":"bool","name":"","type":"bool"}],"stateMutability":"view","type":"function"},{"inputs":[],"name":"JEWELERS_ROLE","outputs":[{"internalType":"bytes32","name":"","type":"bytes32"}],"stateMutability":"view","type":"function"},{"inputs":[],"name":"TRUE","outputs":[{"internalType":"bool","name":"","type":"bool"}],"stateMutability":"view","type":"function"},{"inputs":[{"internalType":"address","name":"_jewelerAddress","type":"address"}],"name":"activateJeweler","outputs":[{"internalType":"bool","name":"","type":"bool"}],"stateMutability":"nonpayable","type":"function"},{"inputs":[],"name":"admin","outputs":[{"internalType":"address","name":"","type":"address"}],"stateMutability":"view","type":"function"},{"inputs":[{"internalType":"address","name":"to","type":"address"},{"internalType":"uint256","name":"tokenId","type":"uint256"}],"name":"approve","outputs":[],"stateMutability":"nonpayable","type":"function"},{"inputs":[{"internalType":"address","name":"owner","type":"address"}],"name":"balanceOf","outputs":[{"internalType":"uint256","name":"","type":"uint256"}],"stateMutability":"view","type":"function"},{"inputs":[{"internalType":"uint8[]","name":"_materials","type":"uint8[]"},{"internalType":"uint8[]","name":"_gemStones","type":"uint8[]"},{"internalType":"uint8","name":"_weightInGrams","type":"uint8"},{"internalType":"string","name":"_mainColor","type":"string"},{"internalType":"enum IDataStorage.CertificateLevel","name":"_level","type":"uint8"},{"internalType":"string","name":"_JewelerName","type":"string"},{"internalType":"enum IDataStorage.CertificateStatus","name":"_status","type":"uint8"}],"name":"createCertificate","outputs":[{"internalType":"bool","name":"","type":"bool"}],"stateMutability":"nonpayable","type":"function"},{"inputs":[{"internalType":"string","name":"_name","type":"string"},{"internalType":"string","name":"_email","type":"string"},{"internalType":"string","name":"_location","type":"string"}],"name":"createCustomer","outputs":[{"internalType":"bool","name":"","type":"bool"}],"stateMutability":"nonpayable","type":"function"},{"inputs":[{"internalType":"string","name":"_name","type":"string"},{"internalType":"string","name":"_email","type":"string"},{"internalType":"string","name":"_location","type":"string"}],"name":"createJeweler","outputs":[{"internalType":"bool","name":"","type":"bool"}],"stateMutability":"nonpayable","type":"function"},{"inputs":[{"internalType":"address","name":"_jewelerAddress","type":"address"}],"name":"desactivateJeweler","outputs":[{"internalType":"bool","name":"","type":"bool"}],"stateMutability":"nonpayable","type":"function"},{"inputs":[{"internalType":"uint256","name":"tokenId","type":"uint256"}],"name":"getApproved","outputs":[{"internalType":"address","name":"","type":"address"}],"stateMutability":"view","type":"function"},{"inputs":[],"name":"getCustomerCount","outputs":[{"internalType":"uint256","name":"","type":"uint256"}],"stateMutability":"view","type":"function"},{"inputs":[],"name":"getJewelerCount","outputs":[{"internalType":"uint256","name":"","type":"uint256"}],"stateMutability":"view","type":"function"},{"inputs":[{"internalType":"address","name":"_customerAddress","type":"address"}],"name":"getOneCustomer","outputs":[{"components":[{"internalType":"uint256","name":"created_at","type":"uint256"},{"internalType":"uint256","name":"updated_at","type":"uint256"},{"internalType":"string","name":"name","type":"string"},{"internalType":"string","name":"email","type":"string"},{"internalType":"string","name":"location","type":"string"},{"internalType":"bool","name":"visible","type":"bool"},{"internalType":"uint256[]","name":"OwnedCertificateIds","type":"uint256[]"}],"internalType":"struct IDataStorage.Customer","name":"","type":"tuple"}],"stateMutability":"view","type":"function"},{"inputs":[{"internalType":"address","name":"_jewelerAddress","type":"address"}],"name":"getOneJeweler","outputs":[{"components":[{"internalType":"uint256","name":"created_at","type":"uint256"},{"internalType":"uint256","name":"updated_at","type":"uint256"},{"internalType":"string","name":"name","type":"string"},{"internalType":"string","name":"email","type":"string"},{"internalType":"string","name":"location","type":"string"},{"internalType":"uint256[]","name":"CreatedCertificateIds","type":"uint256[]"},{"internalType":"bool","name":"available","type":"bool"},{"internalType":"bool","name":"visible","type":"bool"}],"internalType":"struct IDataStorage.Jeweler","name":"","type":"tuple"}],"stateMutability":"view","type":"function"},{"inputs":[{"internalType":"bytes32","name":"role","type":"bytes32"}],"name":"getRoleAdmin","outputs":[{"internalType":"bytes32","name":"","type":"bytes32"}],"stateMutability":"view","type":"function"},{"inputs":[{"internalType":"bytes32","name":"role","type":"bytes32"},{"internalType":"address","name":"account","type":"address"}],"name":"grantRole","outputs":[],"stateMutability":"nonpayable","type":"function"},{"inputs":[{"internalType":"bytes32","name":"role","type":"bytes32"},{"internalType":"address","name":"account","type":"address"}],"name":"hasRole","outputs":[{"internalType":"bool","name":"","type":"bool"}],"stateMutability":"view","type":"function"},{"inputs":[{"internalType":"address","name":"owner","type":"address"},{"internalType":"address","name":"operator","type":"address"}],"name":"isApprovedForAll","outputs":[{"internalType":"bool","name":"","type":"bool"}],"stateMutability":"view","type":"function"},{"inputs":[],"name":"name","outputs":[{"internalType":"string","name":"","type":"string"}],"stateMutability":"view","type":"function"},{"inputs":[{"internalType":"uint256","name":"tokenId","type":"uint256"}],"name":"ownerOf","outputs":[{"internalType":"address","name":"","type":"address"}],"stateMutability":"view","type":"function"},{"inputs":[{"internalType":"bytes32","name":"role","type":"bytes32"},{"internalType":"address","name":"callerConfirmation","type":"address"}],"name":"renounceRole","outputs":[],"stateMutability":"nonpayable","type":"function"},{"inputs":[{"internalType":"bytes32","name":"role","type":"bytes32"},{"internalType":"address","name":"account","type":"address"}],"name":"revokeRole","outputs":[],"stateMutability":"nonpayable","type":"function"},{"inputs":[{"internalType":"address","name":"to","type":"address"}],"name":"safeMint","outputs":[{"internalType":"uint256","name":"","type":"uint256"}],"stateMutability":"nonpayable","type":"function"},{"inputs":[{"internalType":"address","name":"from","type":"address"},{"internalType":"address","name":"to","type":"address"},{"internalType":"uint256","name":"tokenId","type":"uint256"}],"name":"safeTransferFrom","outputs":[],"stateMutability":"nonpayable","type":"function"},{"inputs":[{"internalType":"address","name":"from","type":"address"},{"internalType":"address","name":"to","type":"address"},{"internalType":"uint256","name":"tokenId","type":"uint256"},{"internalType":"bytes","name":"data","type":"bytes"}],"name":"safeTransferFrom","outputs":[],"stateMutability":"nonpayable","type":"function"},{"inputs":[{"internalType":"address","name":"operator","type":"address"},{"internalType":"bool","name":"approved","type":"bool"}],"name":"setApprovalForAll","outputs":[],"stateMutability":"nonpayable","type":"function"},{"inputs":[{"internalType":"bytes4","name":"interfaceId","type":"bytes4"}],"name":"supportsInterface","outputs":[{"internalType":"bool","name":"","type":"bool"}],"stateMutability":"view","type":"function"},{"inputs":[],"name":"symbol","outputs":[{"internalType":"string","name":"","type":"string"}],"stateMutability":"view","type":"function"},{"inputs":[{"internalType":"uint256","name":"index","type":"uint256"}],"name":"tokenByIndex","outputs":[{"internalType":"uint256","name":"","type":"uint256"}],"stateMutability":"view","type":"function"},{"inputs":[{"internalType":"address","name":"owner","type":"address"},{"internalType":"uint256","name":"index","type":"uint256"}],"name":"tokenOfOwnerByIndex","outputs":[{"internalType":"uint256","name":"","type":"uint256"}],"stateMutability":"view","type":"function"},{"inputs":[{"internalType":"uint256","name":"tokenId","type":"uint256"}],"name":"tokenURI","outputs":[{"internalType":"string","name":"","type":"string"}],"stateMutability":"pure","type":"function"},{"inputs":[],"name":"totalSupply","outputs":[{"internalType":"uint256","name":"","type":"uint256"}],"stateMutability":"view","type":"function"},{"inputs":[{"internalType":"address","name":"_to","type":"address"},{"internalType":"uint256","name":"_tokenId","type":"uint256"}],"name":"transertCertificate","outputs":[{"internalType":"bool","name":"","type":"bool"}],"stateMutability":"nonpayable","type":"function"},{"inputs":[{"internalType":"address","name":"from","type":"address"},{"internalType":"address","name":"to","type":"address"},{"internalType":"uint256","name":"tokenId","type":"uint256"}],"name":"transferFrom","outputs":[],"stateMutability":"nonpayable","type":"function"},{"inputs":[],"name":"updateCertificate","outputs":[{"internalType":"bool","name":"","type":"bool"}],"stateMutability":"nonpayable","type":"function"},{"inputs":[{"internalType":"string","name":"_name","type":"string"},{"internalType":"string","name":"_email","type":"string"},{"internalType":"string","name":"_location","type":"string"},{"internalType":"bool","name":"_visible","type":"bool"}],"name":"updateCustomer","outputs":[{"internalType":"bool","name":"","type":"bool"}],"stateMutability":"nonpayable","type":"function"},{"inputs":[{"internalType":"string","name":"_name","type":"string"},{"internalType":"string","name":"_email","type":"string"},{"internalType":"string","name":"_location","type":"string"},{"internalType":"bool","name":"_visible","type":"bool"}],"name":"updateJeweler","outputs":[{"internalType":"bool","name":"","type":"bool"}],"stateMutability":"nonpayable","type":"function"}],"evm":{"bytecode":{"linkReferences":{},"object":"608060405234801561001057600080fd5b5060405161648e38038061648e83398181016040528101906100329190610371565b6040518060400160405280600f81526020017f476f6c64436861696e45524337323100000000000000000000000000000000008152506040518060400160405280600281526020017f474300000000000000000000000000000000000000000000000000000000000081525081600190816100ad91906105ee565b5080600290816100bd91906105ee565b5050506100d36000801b3361018d60201b60201c565b506101047fdf8b4c520ffe197c5343c6f5aec59570151ef9a492f2c624fd45ddde6135ec423361018d60201b60201c565b5033600d60006101000a81548173ffffffffffffffffffffffffffffffffffffffff021916908373ffffffffffffffffffffffffffffffffffffffff16021790555080600c60006101000a81548173ffffffffffffffffffffffffffffffffffffffff021916908373ffffffffffffffffffffffffffffffffffffffff160217905550506106c0565b600061019f838361028a60201b60201c565b61027f57600160008085815260200190815260200160002060000160008473ffffffffffffffffffffffffffffffffffffffff1673ffffffffffffffffffffffffffffffffffffffff16815260200190815260200160002060006101000a81548160ff02191690831515021790555061021c6102f460201b60201c565b73ffffffffffffffffffffffffffffffffffffffff168273ffffffffffffffffffffffffffffffffffffffff16847f2f8788117e7eff1d82e926ec794901d17c78024a50270940304540a733656f0d60405160405180910390a460019050610284565b600090505b92915050565b600080600084815260200190815260200160002060000160008373ffffffffffffffffffffffffffffffffffffffff1673ffffffffffffffffffffffffffffffffffffffff16815260200190815260200160002060009054906101000a900460ff16905092915050565b600033905090565b600080fd5b600073ffffffffffffffffffffffffffffffffffffffff82169050919050565b600061032c82610301565b9050919050565b600061033e82610321565b9050919050565b61034e81610333565b811461035957600080fd5b50565b60008151905061036b81610345565b92915050565b600060208284031215610387576103866102fc565b5b60006103958482850161035c565b91505092915050565b600081519050919050565b7f4e487b7100000000000000000000000000000000000000000000000000000000600052604160045260246000fd5b7f4e487b7100000000000000000000000000000000000000000000000000000000600052602260045260246000fd5b6000600282049050600182168061041f57607f821691505b602082108103610432576104316103d8565b5b50919050565b60008190508160005260206000209050919050565b60006020601f8301049050919050565b600082821b905092915050565b60006008830261049a7fffffffffffffffffffffffffffffffffffffffffffffffffffffffffffffffff8261045d565b6104a4868361045d565b95508019841693508086168417925050509392505050565b6000819050919050565b6000819050919050565b60006104eb6104e66104e1846104bc565b6104c6565b6104bc565b9050919050565b6000819050919050565b610505836104d0565b610519610511826104f2565b84845461046a565b825550505050565b600090565b61052e610521565b6105398184846104fc565b505050565b5b8181101561055d57610552600082610526565b60018101905061053f565b5050565b601f8211156105a25761057381610438565b61057c8461044d565b8101602085101561058b578190505b61059f6105978561044d565b83018261053e565b50505b505050565b600082821c905092915050565b60006105c5600019846008026105a7565b1980831691505092915050565b60006105de83836105b4565b9150826002028217905092915050565b6105f78261039e565b67ffffffffffffffff8111156106105761060f6103a9565b5b61061a8254610407565b610625828285610561565b600060209050601f8311600181146106585760008415610646578287015190505b61065085826105d2565b8655506106b8565b601f19841661066686610438565b60005b8281101561068e57848901518255600182019150602085019450602081019050610669565b868310156106ab57848901516106a7601f8916826105b4565b8355505b6001600288020188555050505b505050505050565b615dbf806106cf6000396000f3fe608060405234801561001057600080fd5b50600436106102695760003560e01c80634ff7986e1161015157806395d89b41116100c3578063c87b56dd11610087578063c87b56dd146107e8578063d547741f14610818578063e985e9c514610834578063ee7bf0ee14610864578063f2e0bc5814610894578063f851a440146108c457610269565b806395d89b4114610744578063a217fddf14610762578063a22cb46514610780578063a5ddd2881461079c578063b88d4fde146107cc57610269565b80636352211e116101155780636352211e1461065a57806370a082311461068a578063899f9d0d146106ba5780638c271777146106d857806391d14854146106f6578063934b4af21461072657610269565b80634ff7986e1461058e57806355b059e8146105ac57806355ed5fe8146105dc57806357a00ccf1461060c5780635994d9841461063c57610269565b8063248a9ca3116101ea5780632f745c59116101ae5780632f745c591461049657806336568abe146104c657806340d097c3146104e257806341cc7c731461051257806342842e0e146105425780634f6ccce71461055e57610269565b8063248a9ca3146103cc57806329acc209146103fc5780632a0acc6a1461042c5780632b3dd38b1461044a5780632f2ff15d1461047a57610269565b80630cdb5cb5116102315780630cdb5cb51461033857806318160ddd146103565780632027d7461461037457806322f537ce1461039257806323b872dd146103b057610269565b806301ffc9a71461026e57806306fdde031461029e578063081812fc146102bc578063081ba2d5146102ec578063095ea7b31461031c575b600080fd5b61028860048036038101906102839190613d0b565b6108e2565b6040516102959190613d53565b60405180910390f35b6102a66108f4565b6040516102b39190613dfe565b60405180910390f35b6102d660048036038101906102d19190613e56565b610986565b6040516102e39190613ec4565b60405180910390f35b61030660048036038101906103019190613f0b565b6109a2565b6040516103139190613d53565b60405180910390f35b61033660048036038101906103319190613f38565b610ab0565b005b610340610ac6565b60405161034d9190613f91565b60405180910390f35b61035e610aea565b60405161036b9190613fbb565b60405180910390f35b61037c610af7565b6040516103899190613fbb565b60405180910390f35b61039a610b8f565b6040516103a79190613f91565b60405180910390f35b6103ca60048036038101906103c59190613fd6565b610bb3565b005b6103e660048036038101906103e19190614055565b610cb5565b6040516103f39190613f91565b60405180910390f35b61041660048036038101906104119190613f0b565b610cd4565b6040516104239190613d53565b60405180910390f35b610434610de2565b6040516104419190613f91565b60405180910390f35b610464600480360381019061045f9190614113565b610e06565b6040516104719190613d53565b60405180910390f35b610494600480360381019061048f91906141dc565b611006565b005b6104b060048036038101906104ab9190613f38565b611028565b6040516104bd9190613fbb565b60405180910390f35b6104e060048036038101906104db91906141dc565b6110d1565b005b6104fc60048036038101906104f79190613f0b565b61114c565b6040516105099190613fbb565b60405180910390f35b61052c600480360381019061052791906142f5565b61117b565b6040516105399190613d53565b60405180910390f35b61055c60048036038101906105579190613fd6565b61127a565b005b61057860048036038101906105739190613e56565b61129a565b6040516105859190613fbb565b60405180910390f35b610596611310565b6040516105a39190613d53565b60405180910390f35b6105c660048036038101906105c19190614419565b611315565b6040516105d39190613d53565b60405180910390f35b6105f660048036038101906105f19190614419565b611498565b6040516106039190613d53565b60405180910390f35b61062660048036038101906106219190613f0b565b61161e565b60405161063391906146a9565b60405180910390f35b6106446116ce565b6040516106519190613d53565b60405180910390f35b610674600480360381019061066f9190613e56565b6116d3565b6040516106819190613ec4565b60405180910390f35b6106a4600480360381019061069f9190613f0b565b6116e5565b6040516106b19190613fbb565b60405180910390f35b6106c261179f565b6040516106cf9190613d53565b60405180910390f35b6106e06117a8565b6040516106ed9190613fbb565b60405180910390f35b610710600480360381019061070b91906141dc565b611840565b60405161071d9190613d53565b60405180910390f35b61072e6118aa565b60405161073b9190613f91565b60405180910390f35b61074c6118ce565b6040516107599190613dfe565b60405180910390f35b61076a611960565b6040516107779190613f91565b60405180910390f35b61079a600480360381019061079591906146cb565b611967565b005b6107b660048036038101906107b19190613f38565b61197d565b6040516107c39190613d53565b60405180910390f35b6107e660048036038101906107e1919061483b565b611994565b005b61080260048036038101906107fd9190613e56565b6119b9565b60405161080f9190613dfe565b60405180910390f35b610832600480360381019061082d91906141dc565b611ab5565b005b61084e600480360381019061084991906148be565b611ad7565b60405161085b9190613d53565b60405180910390f35b61087e60048036038101906108799190613f0b565b611b6b565b60405161088b91906149af565b60405180910390f35b6108ae60048036038101906108a99190614113565b611c1b565b6040516108bb9190613d53565b60405180910390f35b6108cc611e1b565b6040516108d99190613ec4565b60405180910390f35b60006108ed82611e41565b9050919050565b60606001805461090390614a00565b80601f016020809104026020016040519081016040528092919081815260200182805461092f90614a00565b801561097c5780601f106109515761010080835404028352916020019161097c565b820191906000526020600020905b81548152906001019060200180831161095f57829003601f168201915b5050505050905090565b600061099182611e53565b5061099b82611edb565b9050919050565b60007fdf8b4c520ffe197c5343c6f5aec59570151ef9a492f2c624fd45ddde6135ec426109ce81611f18565b600c60009054906101000a900473ffffffffffffffffffffffffffffffffffffffff1673ffffffffffffffffffffffffffffffffffffffff1663081ba2d5846040518263ffffffff1660e01b8152600401610a299190613ec4565b6020604051808303816000875af1158015610a48573d6000803e3d6000fd5b505050506040513d601f19601f82011682018060405250810190610a6c9190614a46565b507f188d8ca5695483231734d1734924f73ab34848f997f2de827c8f73033b4614ae8342604051610a9e929190614a73565b60405180910390a16001915050919050565b610ac28282610abd611f2c565b611f34565b5050565b7f61e6a4bb6bca8aa1f17c71895c1ab1bf9c06c812442a0a16aad9f0837c23ca7981565b6000600980549050905090565b6000600c60009054906101000a900473ffffffffffffffffffffffffffffffffffffffff1673ffffffffffffffffffffffffffffffffffffffff16632027d7466040518163ffffffff1660e01b8152600401602060405180830381865afa158015610b66573d6000803e3d6000fd5b505050506040513d601f19601f82011682018060405250810190610b8a9190614ab1565b905090565b7faf6786efc154b345802554f1dea27e60ea4c3393b6b38eb8438e22c20e088bd281565b600073ffffffffffffffffffffffffffffffffffffffff168273ffffffffffffffffffffffffffffffffffffffff1603610c255760006040517f64a0ae92000000000000000000000000000000000000000000000000000000008152600401610c1c9190613ec4565b60405180910390fd5b6000610c398383610c34611f2c565b611f46565b90508373ffffffffffffffffffffffffffffffffffffffff168173ffffffffffffffffffffffffffffffffffffffff1614610caf578382826040517f64283d7b000000000000000000000000000000000000000000000000000000008152600401610ca693929190614ade565b60405180910390fd5b50505050565b6000806000838152602001908152602001600020600101549050919050565b60007fdf8b4c520ffe197c5343c6f5aec59570151ef9a492f2c624fd45ddde6135ec42610d0081611f18565b600c60009054906101000a900473ffffffffffffffffffffffffffffffffffffffff1673ffffffffffffffffffffffffffffffffffffffff166329acc209846040518263ffffffff1660e01b8152600401610d5b9190613ec4565b6020604051808303816000875af1158015610d7a573d6000803e3d6000fd5b505050506040513d601f19601f82011682018060405250810190610d9e9190614a46565b507f449422d37ad477a115e35ded9d4971e6ed3594f45df1408f1eb2320a8bc5c2b88342604051610dd0929190614a73565b60405180910390a16001915050919050565b7fdf8b4c520ffe197c5343c6f5aec59570151ef9a492f2c624fd45ddde6135ec4281565b60007f61e6a4bb6bca8aa1f17c71895c1ab1bf9c06c812442a0a16aad9f0837c23ca79610e3281611f18565b6000600c60009054906101000a900473ffffffffffffffffffffffffffffffffffffffff1673ffffffffffffffffffffffffffffffffffffffff166357a00ccf336040518263ffffffff1660e01b8152600401610e8f9190613ec4565b600060405180830381865afa158015610eac573d6000803e3d6000fd5b505050506040513d6000823e3d601f19601f82011682018060405250810190610ed59190614dbd565b6000015103610f10576040517f1d65442900000000000000000000000000000000000000000000000000000000815260040160405180910390fd5b600c60009054906101000a900473ffffffffffffffffffffffffffffffffffffffff1673ffffffffffffffffffffffffffffffffffffffff1663a735e5de338b8b8b8b8b8b8b6040518963ffffffff1660e01b8152600401610f79989796959493929190614e33565b6020604051808303816000875af1158015610f98573d6000803e3d6000fd5b505050506040513d601f19601f82011682018060405250810190610fbc9190614a46565b507fc21195a7f73acb0112d9942f6c5c02acc3d8d2c74ab81a6c28f4f492dac933b83342604051610fee929190614a73565b60405180910390a16001915050979650505050505050565b61100f82610cb5565b61101881611f18565b6110228383611f5c565b50505050565b6000611033836116e5565b82106110785782826040517fa57d13dc00000000000000000000000000000000000000000000000000000000815260040161106f929190614a73565b60405180910390fd5b600760008473ffffffffffffffffffffffffffffffffffffffff1673ffffffffffffffffffffffffffffffffffffffff168152602001908152602001600020600083815260200190815260200160002054905092915050565b6110d9611f2c565b73ffffffffffffffffffffffffffffffffffffffff168173ffffffffffffffffffffffffffffffffffffffff161461113d576040517f6697b23200000000000000000000000000000000000000000000000000000000815260040160405180910390fd5b611147828261204d565b505050565b600080600b600081548092919061116290614ed0565b919050559050611172838261213f565b80915050919050565b60007f61e6a4bb6bca8aa1f17c71895c1ab1bf9c06c812442a0a16aad9f0837c23ca796111a781611f18565b600c60009054906101000a900473ffffffffffffffffffffffffffffffffffffffff1673ffffffffffffffffffffffffffffffffffffffff166364df69e78e8e8e8e8e8e8e8e8e8e8e6040518c63ffffffff1660e01b81526004016112169b9a999897969594939291906150a9565b6020604051808303816000875af1158015611235573d6000803e3d6000fd5b505050506040513d601f19601f820116820180604052508101906112599190614a46565b5061126633600b5461213f565b60019150509b9a5050505050505050505050565b61129583838360405180602001604052806000815250611994565b505050565b60006112a4610aea565b82106112ea576000826040517fa57d13dc0000000000000000000000000000000000000000000000000000000081526004016112e1929190614a73565b60405180910390fd5b600982815481106112fe576112fd61513c565b5b90600052602060002001549050919050565b600081565b60006113417faf6786efc154b345802554f1dea27e60ea4c3393b6b38eb8438e22c20e088bd233611840565b15611378576040517f937df23900000000000000000000000000000000000000000000000000000000815260040160405180910390fd5b6113a27faf6786efc154b345802554f1dea27e60ea4c3393b6b38eb8438e22c20e088bd233611f5c565b50600c60009054906101000a900473ffffffffffffffffffffffffffffffffffffffff1673ffffffffffffffffffffffffffffffffffffffff16630f6a35403389898989898960016040518963ffffffff1660e01b815260040161140d989796959493929190614e33565b6020604051808303816000875af115801561142c573d6000803e3d6000fd5b505050506040513d601f19601f820116820180604052508101906114509190614a46565b507f9355f2ba77852e61793679ff03cf26231b8175fdfb97dc47490f1b151e6ab0d43342604051611482929190614a73565b60405180910390a1600190509695505050505050565b60006114c47f61e6a4bb6bca8aa1f17c71895c1ab1bf9c06c812442a0a16aad9f0837c23ca7933611840565b156114fb576040517f9e5ae09300000000000000000000000000000000000000000000000000000000815260040160405180910390fd5b6115257f61e6a4bb6bca8aa1f17c71895c1ab1bf9c06c812442a0a16aad9f0837c23ca7933611f5c565b50600c60009054906101000a900473ffffffffffffffffffffffffffffffffffffffff1673ffffffffffffffffffffffffffffffffffffffff16637208ca1933898989898989600060016040518a63ffffffff1660e01b81526004016115939998979695949392919061516b565b6020604051808303816000875af11580156115b2573d6000803e3d6000fd5b505050506040513d601f19601f820116820180604052508101906115d69190614a46565b507fa12abd8201760a4e094635a878d94e4e31ee41204057e1ba4081b4c8ba7df8a83342604051611608929190614a73565b60405180910390a1600190509695505050505050565b611626613c17565b600c60009054906101000a900473ffffffffffffffffffffffffffffffffffffffff1673ffffffffffffffffffffffffffffffffffffffff166357a00ccf836040518263ffffffff1660e01b81526004016116819190613ec4565b600060405180830381865afa15801561169e573d6000803e3d6000fd5b505050506040513d6000823e3d601f19601f820116820180604052508101906116c79190614dbd565b9050919050565b600181565b60006116de82611e53565b9050919050565b60008073ffffffffffffffffffffffffffffffffffffffff168273ffffffffffffffffffffffffffffffffffffffff16036117585760006040517f89c62b6400000000000000000000000000000000000000000000000000000000815260040161174f9190613ec4565b60405180910390fd5b600460008373ffffffffffffffffffffffffffffffffffffffff1673ffffffffffffffffffffffffffffffffffffffff168152602001908152602001600020549050919050565b60006001905090565b6000600c60009054906101000a900473ffffffffffffffffffffffffffffffffffffffff1673ffffffffffffffffffffffffffffffffffffffff16638c2717776040518163ffffffff1660e01b8152600401602060405180830381865afa158015611817573d6000803e3d6000fd5b505050506040513d601f19601f8201168201806040525081019061183b9190614ab1565b905090565b600080600084815260200190815260200160002060000160008373ffffffffffffffffffffffffffffffffffffffff1673ffffffffffffffffffffffffffffffffffffffff16815260200190815260200160002060009054906101000a900460ff16905092915050565b7f8c6ae1b8cac4c99ac9b51ba2b44ec85e94139863fa8d7f1ab8f7e39763b3db4e81565b6060600280546118dd90614a00565b80601f016020809104026020016040519081016040528092919081815260200182805461190990614a00565b80156119565780601f1061192b57610100808354040283529160200191611956565b820191906000526020600020905b81548152906001019060200180831161193957829003601f168201915b5050505050905090565b6000801b81565b611979611972611f2c565b838361215d565b5050565b600061198a3384846122cc565b6001905092915050565b61199f848484610bb3565b6119b36119aa611f2c565b85858585612439565b50505050565b60606040518060400160405280601d81526020017f646174613a6170706c69636174696f6e2f6a736f6e3b6261736536342c000000815250611a8e604051806060016040528060258152602001615d0a60259139611a16856125ea565b611a1f866126b8565b611a30611a2b886128dc565b612c31565b6040518060400160405280600281526020017f227d000000000000000000000000000000000000000000000000000000000000815250604051602001611a7a959493929190615223565b604051602081830303815290604052612c31565b604051602001611a9f92919061526e565b6040516020818303038152906040529050919050565b611abe82610cb5565b611ac781611f18565b611ad1838361204d565b50505050565b6000600660008473ffffffffffffffffffffffffffffffffffffffff1673ffffffffffffffffffffffffffffffffffffffff16815260200190815260200160002060008373ffffffffffffffffffffffffffffffffffffffff1673ffffffffffffffffffffffffffffffffffffffff16815260200190815260200160002060009054906101000a900460ff16905092915050565b611b73613c60565b600c60009054906101000a900473ffffffffffffffffffffffffffffffffffffffff1673ffffffffffffffffffffffffffffffffffffffff1663ee7bf0ee836040518263ffffffff1660e01b8152600401611bce9190613ec4565b600060405180830381865afa158015611beb573d6000803e3d6000fd5b505050506040513d6000823e3d601f19601f82011682018060405250810190611c1491906153b6565b9050919050565b60007faf6786efc154b345802554f1dea27e60ea4c3393b6b38eb8438e22c20e088bd2611c4781611f18565b6000600c60009054906101000a900473ffffffffffffffffffffffffffffffffffffffff1673ffffffffffffffffffffffffffffffffffffffff1663ee7bf0ee336040518263ffffffff1660e01b8152600401611ca49190613ec4565b600060405180830381865afa158015611cc1573d6000803e3d6000fd5b505050506040513d6000823e3d601f19601f82011682018060405250810190611cea91906153b6565b6000015103611d25576040517f4a46a71500000000000000000000000000000000000000000000000000000000815260040160405180910390fd5b600c60009054906101000a900473ffffffffffffffffffffffffffffffffffffffff1673ffffffffffffffffffffffffffffffffffffffff1663dfd49f25338b8b8b8b8b8b8b6040518963ffffffff1660e01b8152600401611d8e989796959493929190614e33565b6020604051808303816000875af1158015611dad573d6000803e3d6000fd5b505050506040513d601f19601f82011682018060405250810190611dd19190614a46565b507f3e981d6fd4c5bd91ef3f68ca28a36322130d52221ab7319ae700e4c417dcc8e33342604051611e03929190614a73565b60405180910390a16001915050979650505050505050565b600d60009054906101000a900473ffffffffffffffffffffffffffffffffffffffff1681565b6000611e4c82612dc8565b9050919050565b600080611e5f83612e42565b9050600073ffffffffffffffffffffffffffffffffffffffff168173ffffffffffffffffffffffffffffffffffffffff1603611ed257826040517f7e273289000000000000000000000000000000000000000000000000000000008152600401611ec99190613fbb565b60405180910390fd5b80915050919050565b60006005600083815260200190815260200160002060009054906101000a900473ffffffffffffffffffffffffffffffffffffffff169050919050565b611f2981611f24611f2c565b612e7f565b50565b600033905090565b611f418383836001612ed0565b505050565b6000611f53848484613095565b90509392505050565b6000611f688383611840565b61204257600160008085815260200190815260200160002060000160008473ffffffffffffffffffffffffffffffffffffffff1673ffffffffffffffffffffffffffffffffffffffff16815260200190815260200160002060006101000a81548160ff021916908315150217905550611fdf611f2c565b73ffffffffffffffffffffffffffffffffffffffff168273ffffffffffffffffffffffffffffffffffffffff16847f2f8788117e7eff1d82e926ec794901d17c78024a50270940304540a733656f0d60405160405180910390a460019050612047565b600090505b92915050565b60006120598383611840565b1561213457600080600085815260200190815260200160002060000160008473ffffffffffffffffffffffffffffffffffffffff1673ffffffffffffffffffffffffffffffffffffffff16815260200190815260200160002060006101000a81548160ff0219169083151502179055506120d1611f2c565b73ffffffffffffffffffffffffffffffffffffffff168273ffffffffffffffffffffffffffffffffffffffff16847ff6391f5c32d9c69d2a47ea670b442974b53935d1edc7fd64eb21e047a839171b60405160405180910390a460019050612139565b600090505b92915050565b6121598282604051806020016040528060008152506131b2565b5050565b600073ffffffffffffffffffffffffffffffffffffffff168273ffffffffffffffffffffffffffffffffffffffff16036121ce57816040517f5b08ba180000000000000000000000000000000000000000000000000000000081526004016121c59190613ec4565b60405180910390fd5b80600660008573ffffffffffffffffffffffffffffffffffffffff1673ffffffffffffffffffffffffffffffffffffffff16815260200190815260200160002060008473ffffffffffffffffffffffffffffffffffffffff1673ffffffffffffffffffffffffffffffffffffffff16815260200190815260200160002060006101000a81548160ff0219169083151502179055508173ffffffffffffffffffffffffffffffffffffffff168373ffffffffffffffffffffffffffffffffffffffff167f17307eab39ab6107e8899845ad3d59bd9653f200f220920489ca2b5937696c31836040516122bf9190613d53565b60405180910390a3505050565b600073ffffffffffffffffffffffffffffffffffffffff168273ffffffffffffffffffffffffffffffffffffffff160361233e5760006040517f64a0ae920000000000000000000000000000000000000000000000000000000081526004016123359190613ec4565b60405180910390fd5b600061234c83836000611f46565b9050600073ffffffffffffffffffffffffffffffffffffffff168173ffffffffffffffffffffffffffffffffffffffff16036123bf57816040517f7e2732890000000000000000000000000000000000000000000000000000000081526004016123b69190613fbb565b60405180910390fd5b8373ffffffffffffffffffffffffffffffffffffffff168173ffffffffffffffffffffffffffffffffffffffff1614612433578382826040517f64283d7b00000000000000000000000000000000000000000000000000000000815260040161242a93929190614ade565b60405180910390fd5b50505050565b60008373ffffffffffffffffffffffffffffffffffffffff163b11156125e3578273ffffffffffffffffffffffffffffffffffffffff1663150b7a02868685856040518563ffffffff1660e01b81526004016124989493929190615454565b6020604051808303816000875af19250505080156124d457506040513d601f19601f820116820180604052508101906124d191906154b5565b60015b612558573d8060008114612504576040519150601f19603f3d011682016040523d82523d6000602084013e612509565b606091505b50600081510361255057836040517f64a0ae920000000000000000000000000000000000000000000000000000000081526004016125479190613ec4565b60405180910390fd5b805181602001fd5b63150b7a0260e01b7bffffffffffffffffffffffffffffffffffffffffffffffffffffffff1916817bffffffffffffffffffffffffffffffffffffffffffffffffffffffff1916146125e157836040517f64a0ae920000000000000000000000000000000000000000000000000000000081526004016125d89190613ec4565b60405180910390fd5b505b5050505050565b6060600060016125f9846131d6565b01905060008167ffffffffffffffff81111561261857612617614710565b5b6040519080825280601f01601f19166020018201604052801561264a5781602001600182028036833780820191505090505b509050600082602001820190505b6001156126ad578080600190039150507f3031323334353637383961626364656600000000000000000000000000000000600a86061a8153600a85816126a1576126a06154e2565b5b04945060008503612658575b819350505050919050565b606060006040518060600160405280603981526020016158df603991396040518060400160405280600981526020017f42696a6f757469657200000000000000000000000000000000000000000000008152506040518060600160405280602b8152602001615afa602b91396040518060400160405280600681526020017f4f722032346300000000000000000000000000000000000000000000000000008152506040518060600160405280602c8152602001615d5e602c91396040518060400160405280600781526020017f4469616d616e74000000000000000000000000000000000000000000000000008152506040516020016127be96959493929190615511565b6040516020818303038152906040529050806040518060600160405280602c8152602001615841602c91396127f7600861ffff166125ea565b6040518060600160405280602881526020016157cc602891396040518060400160405280600481526020017f50696e6b000000000000000000000000000000000000000000000000000000008152506040518060600160405280602f8152602001615d2f602f91396040518060400160405280600781526020017f515220436f64650000000000000000000000000000000000000000000000000081525060405180606001604052806028815260200161574d602891396040516020016128c5989796959493929190615569565b604051602081830303815290604052915050919050565b606060006040516020016040516020818303038152906040529050604051806080016040528060578152602001615775605791396040518060a00160405280606e8152602001615994606e91396040518060a0016040528060798152602001615c2b607991396040518060400160405280601781526020017f43657274696669636174204e46542064652042696a6f750000000000000000008152506040518060400160405280600781526020017f3c2f746578743e000000000000000000000000000000000000000000000000008152506040516020016129c2959493929190615223565b6040516020818303038152906040529050806040518060800160405280605d8152602001615b25605d91396040518060800160405280605c8152602001615b82605c91396040518060a001604052806072815260200161586d607291396040518060800160405280604d8152602001615a6d604d9139604051602001612a4c959493929190615223565b6040516020818303038152906040529050806040518060800160405280604d81526020016157f4604d91396040518060800160405280604d8152602001615bde604d91396040518060a00160405280607c8152602001615918607c91396040518060400160405280600981526020017f476f6c64436861696e0000000000000000000000000000000000000000000000815250604051602001612af3959493929190615223565b6040516020818303038152906040529050806040518060400160405280600781526020017f3c2f746578743e000000000000000000000000000000000000000000000000008152506040518060a00160405280606b8152602001615a02606b91396040518060a0016040528060668152602001615ca460669139604051602001612b8094939291906155db565b6040516020818303038152906040529050806040518060400160405280600781526020017f3c2f746578743e00000000000000000000000000000000000000000000000000815250612bd1856125ea565b6040518060400160405280600681526020017f3c2f7376673e0000000000000000000000000000000000000000000000000000815250604051602001612c1a94939291906155db565b604051602081830303815290604052915050919050565b606060008251905060008103612c595760405180602001604052806000815250915050612dc3565b60006003600283612c6a9190615619565b612c74919061564d565b6004612c80919061567e565b90506000602082612c919190615619565b67ffffffffffffffff811115612caa57612ca9614710565b5b6040519080825280601f01601f191660200182016040528015612cdc5781602001600182028036833780820191505090505b5090506000604051806060016040528060408152602001615aba604091399050600181016020830160005b86811015612d805760038101905062ffffff818a015116603f8160121c168401518060081b905060ff603f83600c1c1686015116810190508060081b905060ff603f8360061c1686015116810190508060081b905060ff603f831686015116810190508060e01b90508084526004840193505050612d07565b506003860660018114612d9a5760028114612daa57612db5565b613d3d60f01b6002830352612db5565b603d60f81b60018303525b508484525050819450505050505b919050565b60007f780e9d63000000000000000000000000000000000000000000000000000000007bffffffffffffffffffffffffffffffffffffffffffffffffffffffff1916827bffffffffffffffffffffffffffffffffffffffffffffffffffffffff19161480612e3b5750612e3a82613329565b5b9050919050565b60006003600083815260200190815260200160002060009054906101000a900473ffffffffffffffffffffffffffffffffffffffff169050919050565b612e898282611840565b612ecc5780826040517fe2517d3f000000000000000000000000000000000000000000000000000000008152600401612ec39291906156c0565b60405180910390fd5b5050565b8080612f095750600073ffffffffffffffffffffffffffffffffffffffff168273ffffffffffffffffffffffffffffffffffffffff1614155b1561303d576000612f1984611e53565b9050600073ffffffffffffffffffffffffffffffffffffffff168373ffffffffffffffffffffffffffffffffffffffff1614158015612f8457508273ffffffffffffffffffffffffffffffffffffffff168173ffffffffffffffffffffffffffffffffffffffff1614155b8015612f975750612f958184611ad7565b155b15612fd957826040517fa9fbf51f000000000000000000000000000000000000000000000000000000008152600401612fd09190613ec4565b60405180910390fd5b811561303b57838573ffffffffffffffffffffffffffffffffffffffff168273ffffffffffffffffffffffffffffffffffffffff167f8c5be1e5ebec7d5bd14f71427d1e84f3dd0314c0f7b2291e5b200ac8c7c3b92560405160405180910390a45b505b836005600085815260200190815260200160002060006101000a81548173ffffffffffffffffffffffffffffffffffffffff021916908373ffffffffffffffffffffffffffffffffffffffff16021790555050505050565b6000806130a385858561340b565b9050600073ffffffffffffffffffffffffffffffffffffffff168173ffffffffffffffffffffffffffffffffffffffff16036130e7576130e284613625565b613126565b8473ffffffffffffffffffffffffffffffffffffffff168173ffffffffffffffffffffffffffffffffffffffff161461312557613124818561366e565b5b5b600073ffffffffffffffffffffffffffffffffffffffff168573ffffffffffffffffffffffffffffffffffffffff16036131685761316384613759565b6131a7565b8473ffffffffffffffffffffffffffffffffffffffff168173ffffffffffffffffffffffffffffffffffffffff16146131a6576131a5858561382a565b5b5b809150509392505050565b6131bc83836138b5565b6131d16131c7611f2c565b6000858585612439565b505050565b600080600090507a184f03e93ff9f4daa797ed6e38ed64bf6a1f0100000000000000008310613234577a184f03e93ff9f4daa797ed6e38ed64bf6a1f010000000000000000838161322a576132296154e2565b5b0492506040810190505b6d04ee2d6d415b85acef81000000008310613271576d04ee2d6d415b85acef81000000008381613267576132666154e2565b5b0492506020810190505b662386f26fc1000083106132a057662386f26fc100008381613296576132956154e2565b5b0492506010810190505b6305f5e10083106132c9576305f5e10083816132bf576132be6154e2565b5b0492506008810190505b61271083106132ee5761271083816132e4576132e36154e2565b5b0492506004810190505b606483106133115760648381613307576133066154e2565b5b0492506002810190505b600a8310613320576001810190505b80915050919050565b60007f80ac58cd000000000000000000000000000000000000000000000000000000007bffffffffffffffffffffffffffffffffffffffffffffffffffffffff1916827bffffffffffffffffffffffffffffffffffffffffffffffffffffffff191614806133f457507f5b5e139f000000000000000000000000000000000000000000000000000000007bffffffffffffffffffffffffffffffffffffffffffffffffffffffff1916827bffffffffffffffffffffffffffffffffffffffffffffffffffffffff1916145b806134045750613403826139ae565b5b9050919050565b60008061341784612e42565b9050600073ffffffffffffffffffffffffffffffffffffffff168373ffffffffffffffffffffffffffffffffffffffff161461345957613458818486613a28565b5b600073ffffffffffffffffffffffffffffffffffffffff168173ffffffffffffffffffffffffffffffffffffffff16146134ea5761349b600085600080612ed0565b6001600460008373ffffffffffffffffffffffffffffffffffffffff1673ffffffffffffffffffffffffffffffffffffffff168152602001908152602001600020600082825403925050819055505b600073ffffffffffffffffffffffffffffffffffffffff168573ffffffffffffffffffffffffffffffffffffffff161461356d576001600460008773ffffffffffffffffffffffffffffffffffffffff1673ffffffffffffffffffffffffffffffffffffffff168152602001908152602001600020600082825401925050819055505b846003600086815260200190815260200160002060006101000a81548173ffffffffffffffffffffffffffffffffffffffff021916908373ffffffffffffffffffffffffffffffffffffffff160217905550838573ffffffffffffffffffffffffffffffffffffffff168273ffffffffffffffffffffffffffffffffffffffff167fddf252ad1be2c89b69c2b068fc378daa952ba7f163c4a11628f55a4df523b3ef60405160405180910390a4809150509392505050565b600980549050600a600083815260200190815260200160002081905550600981908060018154018082558091505060019003906000526020600020016000909190919091505550565b6000613679836116e5565b90506000600860008481526020019081526020016000205490506000600760008673ffffffffffffffffffffffffffffffffffffffff1673ffffffffffffffffffffffffffffffffffffffff16815260200190815260200160002090508282146137255760008160008581526020019081526020016000205490508082600085815260200190815260200160002081905550826008600083815260200190815260200160002081905550505b6008600085815260200190815260200160002060009055806000848152602001908152602001600020600090555050505050565b6000600160098054905061376d91906156e9565b90506000600a600084815260200190815260200160002054905060006009838154811061379d5761379c61513c565b5b9060005260206000200154905080600983815481106137bf576137be61513c565b5b906000526020600020018190555081600a600083815260200190815260200160002081905550600a600085815260200190815260200160002060009055600980548061380e5761380d61571d565b5b6001900381819060005260206000200160009055905550505050565b60006001613837846116e5565b61384191906156e9565b905081600760008573ffffffffffffffffffffffffffffffffffffffff1673ffffffffffffffffffffffffffffffffffffffff168152602001908152602001600020600083815260200190815260200160002081905550806008600084815260200190815260200160002081905550505050565b600073ffffffffffffffffffffffffffffffffffffffff168273ffffffffffffffffffffffffffffffffffffffff16036139275760006040517f64a0ae9200000000000000000000000000000000000000000000000000000000815260040161391e9190613ec4565b60405180910390fd5b600061393583836000611f46565b9050600073ffffffffffffffffffffffffffffffffffffffff168173ffffffffffffffffffffffffffffffffffffffff16146139a95760006040517f73c6ac6e0000000000000000000000000000000000000000000000000000000081526004016139a09190613ec4565b60405180910390fd5b505050565b60007f7965db0b000000000000000000000000000000000000000000000000000000007bffffffffffffffffffffffffffffffffffffffffffffffffffffffff1916827bffffffffffffffffffffffffffffffffffffffffffffffffffffffff19161480613a215750613a2082613aec565b5b9050919050565b613a33838383613b56565b613ae757600073ffffffffffffffffffffffffffffffffffffffff168373ffffffffffffffffffffffffffffffffffffffff1603613aa857806040517f7e273289000000000000000000000000000000000000000000000000000000008152600401613a9f9190613fbb565b60405180910390fd5b81816040517f177e802f000000000000000000000000000000000000000000000000000000008152600401613ade929190614a73565b60405180910390fd5b505050565b60007f01ffc9a7000000000000000000000000000000000000000000000000000000007bffffffffffffffffffffffffffffffffffffffffffffffffffffffff1916827bffffffffffffffffffffffffffffffffffffffffffffffffffffffff1916149050919050565b60008073ffffffffffffffffffffffffffffffffffffffff168373ffffffffffffffffffffffffffffffffffffffff1614158015613c0e57508273ffffffffffffffffffffffffffffffffffffffff168473ffffffffffffffffffffffffffffffffffffffff161480613bcf5750613bce8484611ad7565b5b80613c0d57508273ffffffffffffffffffffffffffffffffffffffff16613bf583611edb565b73ffffffffffffffffffffffffffffffffffffffff16145b5b90509392505050565b6040518061010001604052806000815260200160008152602001606081526020016060815260200160608152602001606081526020016000151581526020016000151581525090565b6040518060e001604052806000815260200160008152602001606081526020016060815260200160608152602001600015158152602001606081525090565b6000604051905090565b600080fd5b600080fd5b60007fffffffff0000000000000000000000000000000000000000000000000000000082169050919050565b613ce881613cb3565b8114613cf357600080fd5b50565b600081359050613d0581613cdf565b92915050565b600060208284031215613d2157613d20613ca9565b5b6000613d2f84828501613cf6565b91505092915050565b60008115159050919050565b613d4d81613d38565b82525050565b6000602082019050613d686000830184613d44565b92915050565b600081519050919050565b600082825260208201905092915050565b60005b83811015613da8578082015181840152602081019050613d8d565b60008484015250505050565b6000601f19601f8301169050919050565b6000613dd082613d6e565b613dda8185613d79565b9350613dea818560208601613d8a565b613df381613db4565b840191505092915050565b60006020820190508181036000830152613e188184613dc5565b905092915050565b6000819050919050565b613e3381613e20565b8114613e3e57600080fd5b50565b600081359050613e5081613e2a565b92915050565b600060208284031215613e6c57613e6b613ca9565b5b6000613e7a84828501613e41565b91505092915050565b600073ffffffffffffffffffffffffffffffffffffffff82169050919050565b6000613eae82613e83565b9050919050565b613ebe81613ea3565b82525050565b6000602082019050613ed96000830184613eb5565b92915050565b613ee881613ea3565b8114613ef357600080fd5b50565b600081359050613f0581613edf565b92915050565b600060208284031215613f2157613f20613ca9565b5b6000613f2f84828501613ef6565b91505092915050565b60008060408385031215613f4f57613f4e613ca9565b5b6000613f5d85828601613ef6565b9250506020613f6e85828601613e41565b9150509250929050565b6000819050919050565b613f8b81613f78565b82525050565b6000602082019050613fa66000830184613f82565b92915050565b613fb581613e20565b82525050565b6000602082019050613fd06000830184613fac565b92915050565b600080600060608486031215613fef57613fee613ca9565b5b6000613ffd86828701613ef6565b935050602061400e86828701613ef6565b925050604061401f86828701613e41565b9150509250925092565b61403281613f78565b811461403d57600080fd5b50565b60008135905061404f81614029565b92915050565b60006020828403121561406b5761406a613ca9565b5b600061407984828501614040565b91505092915050565b600080fd5b600080fd5b600080fd5b60008083601f8401126140a7576140a6614082565b5b8235905067ffffffffffffffff8111156140c4576140c3614087565b5b6020830191508360018202830111156140e0576140df61408c565b5b9250929050565b6140f081613d38565b81146140fb57600080fd5b50565b60008135905061410d816140e7565b92915050565b60008060008060008060006080888a03121561413257614131613ca9565b5b600088013567ffffffffffffffff8111156141505761414f613cae565b5b61415c8a828b01614091565b9750975050602088013567ffffffffffffffff81111561417f5761417e613cae565b5b61418b8a828b01614091565b9550955050604088013567ffffffffffffffff8111156141ae576141ad613cae565b5b6141ba8a828b01614091565b935093505060606141cd8a828b016140fe565b91505092959891949750929550565b600080604083850312156141f3576141f2613ca9565b5b600061420185828601614040565b925050602061421285828601613ef6565b9150509250929050565b60008083601f84011261423257614231614082565b5b8235905067ffffffffffffffff81111561424f5761424e614087565b5b60208301915083602082028301111561426b5761426a61408c565b5b9250929050565b600060ff82169050919050565b61428881614272565b811461429357600080fd5b50565b6000813590506142a58161427f565b92915050565b600481106142b857600080fd5b50565b6000813590506142ca816142ab565b92915050565b600581106142dd57600080fd5b50565b6000813590506142ef816142d0565b92915050565b600080600080600080600080600080600060e08c8e03121561431a57614319613ca9565b5b60008c013567ffffffffffffffff81111561433857614337613cae565b5b6143448e828f0161421c565b9b509b505060208c013567ffffffffffffffff81111561436757614366613cae565b5b6143738e828f0161421c565b995099505060406143868e828f01614296565b97505060608c013567ffffffffffffffff8111156143a7576143a6613cae565b5b6143b38e828f01614091565b965096505060806143c68e828f016142bb565b94505060a08c013567ffffffffffffffff8111156143e7576143e6613cae565b5b6143f38e828f01614091565b935093505060c06144068e828f016142e0565b9150509295989b509295989b9093969950565b6000806000806000806060878903121561443657614435613ca9565b5b600087013567ffffffffffffffff81111561445457614453613cae565b5b61446089828a01614091565b9650965050602087013567ffffffffffffffff81111561448357614482613cae565b5b61448f89828a01614091565b9450945050604087013567ffffffffffffffff8111156144b2576144b1613cae565b5b6144be89828a01614091565b92509250509295509295509295565b6144d681613e20565b82525050565b600082825260208201905092915050565b60006144f882613d6e565b61450281856144dc565b9350614512818560208601613d8a565b61451b81613db4565b840191505092915050565b600081519050919050565b600082825260208201905092915050565b6000819050602082019050919050565b600061455e83836144cd565b60208301905092915050565b6000602082019050919050565b600061458282614526565b61458c8185614531565b935061459783614542565b8060005b838110156145c85781516145af8882614552565b97506145ba8361456a565b92505060018101905061459b565b5085935050505092915050565b6145de81613d38565b82525050565b6000610100830160008301516145fd60008601826144cd565b50602083015161461060208601826144cd565b506040830151848203604086015261462882826144ed565b9150506060830151848203606086015261464282826144ed565b9150506080830151848203608086015261465c82826144ed565b91505060a083015184820360a08601526146768282614577565b91505060c083015161468b60c08601826145d5565b5060e083015161469e60e08601826145d5565b508091505092915050565b600060208201905081810360008301526146c381846145e4565b905092915050565b600080604083850312156146e2576146e1613ca9565b5b60006146f085828601613ef6565b9250506020614701858286016140fe565b9150509250929050565b600080fd5b7f4e487b7100000000000000000000000000000000000000000000000000000000600052604160045260246000fd5b61474882613db4565b810181811067ffffffffffffffff8211171561476757614766614710565b5b80604052505050565b600061477a613c9f565b9050614786828261473f565b919050565b600067ffffffffffffffff8211156147a6576147a5614710565b5b6147af82613db4565b9050602081019050919050565b82818337600083830152505050565b60006147de6147d98461478b565b614770565b9050828152602081018484840111156147fa576147f961470b565b5b6148058482856147bc565b509392505050565b600082601f83011261482257614821614082565b5b81356148328482602086016147cb565b91505092915050565b6000806000806080858703121561485557614854613ca9565b5b600061486387828801613ef6565b945050602061487487828801613ef6565b935050604061488587828801613e41565b925050606085013567ffffffffffffffff8111156148a6576148a5613cae565b5b6148b28782880161480d565b91505092959194509250565b600080604083850312156148d5576148d4613ca9565b5b60006148e385828601613ef6565b92505060206148f485828601613ef6565b9150509250929050565b600060e08301600083015161491660008601826144cd565b50602083015161492960208601826144cd565b506040830151848203604086015261494182826144ed565b9150506060830151848203606086015261495b82826144ed565b9150506080830151848203608086015261497582826144ed565b91505060a083015161498a60a08601826145d5565b5060c083015184820360c08601526149a28282614577565b9150508091505092915050565b600060208201905081810360008301526149c981846148fe565b905092915050565b7f4e487b7100000000000000000000000000000000000000000000000000000000600052602260045260246000fd5b60006002820490506001821680614a1857607f821691505b602082108103614a2b57614a2a6149d1565b5b50919050565b600081519050614a40816140e7565b92915050565b600060208284031215614a5c57614a5b613ca9565b5b6000614a6a84828501614a31565b91505092915050565b6000604082019050614a886000830185613eb5565b614a956020830184613fac565b9392505050565b600081519050614aab81613e2a565b92915050565b600060208284031215614ac757614ac6613ca9565b5b6000614ad584828501614a9c565b91505092915050565b6000606082019050614af36000830186613eb5565b614b006020830185613fac565b614b0d6040830184613eb5565b949350505050565b600080fd5b600080fd5b600067ffffffffffffffff821115614b3a57614b39614710565b5b614b4382613db4565b9050602081019050919050565b6000614b63614b5e84614b1f565b614770565b905082815260208101848484011115614b7f57614b7e61470b565b5b614b8a848285613d8a565b509392505050565b600082601f830112614ba757614ba6614082565b5b8151614bb7848260208601614b50565b91505092915050565b600067ffffffffffffffff821115614bdb57614bda614710565b5b602082029050602081019050919050565b6000614bff614bfa84614bc0565b614770565b90508083825260208201905060208402830185811115614c2257614c2161408c565b5b835b81811015614c4b5780614c378882614a9c565b845260208401935050602081019050614c24565b5050509392505050565b600082601f830112614c6a57614c69614082565b5b8151614c7a848260208601614bec565b91505092915050565b60006101008284031215614c9a57614c99614b15565b5b614ca5610100614770565b90506000614cb584828501614a9c565b6000830152506020614cc984828501614a9c565b602083015250604082015167ffffffffffffffff811115614ced57614cec614b1a565b5b614cf984828501614b92565b604083015250606082015167ffffffffffffffff811115614d1d57614d1c614b1a565b5b614d2984828501614b92565b606083015250608082015167ffffffffffffffff811115614d4d57614d4c614b1a565b5b614d5984828501614b92565b60808301525060a082015167ffffffffffffffff811115614d7d57614d7c614b1a565b5b614d8984828501614c55565b60a08301525060c0614d9d84828501614a31565b60c08301525060e0614db184828501614a31565b60e08301525092915050565b600060208284031215614dd357614dd2613ca9565b5b600082015167ffffffffffffffff811115614df157614df0613cae565b5b614dfd84828501614c83565b91505092915050565b6000614e128385613d79565b9350614e1f8385846147bc565b614e2883613db4565b840190509392505050565b600060a082019050614e48600083018b613eb5565b8181036020830152614e5b81898b614e06565b90508181036040830152614e70818789614e06565b90508181036060830152614e85818587614e06565b9050614e946080830184613d44565b9998505050505050505050565b7f4e487b7100000000000000000000000000000000000000000000000000000000600052601160045260246000fd5b6000614edb82613e20565b91507fffffffffffffffffffffffffffffffffffffffffffffffffffffffffffffffff8203614f0d57614f0c614ea1565b5b600182019050919050565b600082825260208201905092915050565b6000819050919050565b614f3c81614272565b82525050565b6000614f4e8383614f33565b60208301905092915050565b6000614f696020840184614296565b905092915050565b6000602082019050919050565b6000614f8a8385614f18565b9350614f9582614f29565b8060005b85811015614fce57614fab8284614f5a565b614fb58882614f42565b9750614fc083614f71565b925050600181019050614f99565b5085925050509392505050565b614fe481614272565b82525050565b7f4e487b7100000000000000000000000000000000000000000000000000000000600052602160045260246000fd5b6004811061502a57615029614fea565b5b50565b600081905061503b82615019565b919050565b600061504b8261502d565b9050919050565b61505b81615040565b82525050565b6005811061507257615071614fea565b5b50565b600081905061508382615061565b919050565b600061509382615075565b9050919050565b6150a381615088565b82525050565b600060e08201905081810360008301526150c4818d8f614f7e565b905081810360208301526150d9818b8d614f7e565b90506150e8604083018a614fdb565b81810360608301526150fb81888a614e06565b905061510a6080830187615052565b81810360a083015261511d818587614e06565b905061512c60c083018461509a565b9c9b505050505050505050505050565b7f4e487b7100000000000000000000000000000000000000000000000000000000600052603260045260246000fd5b600060c082019050615180600083018c613eb5565b8181036020830152615193818a8c614e06565b905081810360408301526151a881888a614e06565b905081810360608301526151bd818688614e06565b90506151cc6080830185613d44565b6151d960a0830184613d44565b9a9950505050505050505050565b600081905092915050565b60006151fd82613d6e565b61520781856151e7565b9350615217818560208601613d8a565b80840191505092915050565b600061522f82886151f2565b915061523b82876151f2565b915061524782866151f2565b915061525382856151f2565b915061525f82846151f2565b91508190509695505050505050565b600061527a82856151f2565b915061528682846151f2565b91508190509392505050565b600060e082840312156152a8576152a7614b15565b5b6152b260e0614770565b905060006152c284828501614a9c565b60008301525060206152d684828501614a9c565b602083015250604082015167ffffffffffffffff8111156152fa576152f9614b1a565b5b61530684828501614b92565b604083015250606082015167ffffffffffffffff81111561532a57615329614b1a565b5b61533684828501614b92565b606083015250608082015167ffffffffffffffff81111561535a57615359614b1a565b5b61536684828501614b92565b60808301525060a061537a84828501614a31565b60a08301525060c082015167ffffffffffffffff81111561539e5761539d614b1a565b5b6153aa84828501614c55565b60c08301525092915050565b6000602082840312156153cc576153cb613ca9565b5b600082015167ffffffffffffffff8111156153ea576153e9613cae565b5b6153f684828501615292565b91505092915050565b600081519050919050565b600082825260208201905092915050565b6000615426826153ff565b615430818561540a565b9350615440818560208601613d8a565b61544981613db4565b840191505092915050565b60006080820190506154696000830187613eb5565b6154766020830186613eb5565b6154836040830185613fac565b8181036060830152615495818461541b565b905095945050505050565b6000815190506154af81613cdf565b92915050565b6000602082840312156154cb576154ca613ca9565b5b60006154d9848285016154a0565b91505092915050565b7f4e487b7100000000000000000000000000000000000000000000000000000000600052601260045260246000fd5b600061551d82896151f2565b915061552982886151f2565b915061553582876151f2565b915061554182866151f2565b915061554d82856151f2565b915061555982846151f2565b9150819050979650505050505050565b6000615575828b6151f2565b9150615581828a6151f2565b915061558d82896151f2565b915061559982886151f2565b91506155a582876151f2565b91506155b182866151f2565b91506155bd82856151f2565b91506155c982846151f2565b91508190509998505050505050505050565b60006155e782876151f2565b91506155f382866151f2565b91506155ff82856151f2565b915061560b82846151f2565b915081905095945050505050565b600061562482613e20565b915061562f83613e20565b925082820190508082111561564757615646614ea1565b5b92915050565b600061565882613e20565b915061566383613e20565b925082615673576156726154e2565b5b828204905092915050565b600061568982613e20565b915061569483613e20565b92508282026156a281613e20565b915082820484148315176156b9576156b8614ea1565b5b5092915050565b60006040820190506156d56000830185613eb5565b6156e26020830184613f82565b9392505050565b60006156f482613e20565b91506156ff83613e20565b925082820390508181111561571757615716614ea1565b5b92915050565b7f4e487b7100000000000000000000000000000000000000000000000000000000600052603160045260246000fdfe227d5d2c22696d616765223a2022646174613a696d6167652f7376672b786d6c3b6261736536342c3c7376672077696474683d2238303022206865696768743d22383030222076696577426f783d2230203020383030203830302220786d6c6e733d22687474703a2f2f7777772e77332e6f72672f323030302f737667223e227d2c7b2274726169745f74797065223a20226d61696e436f6c6f72222c2276616c7565223a20223c6c696e652078313d22333330222079313d22333030222078323d22343730222079323d2233383022207374726f6b653d222338613666333022207374726f6b652d77696474683d2233222f3e227d2c7b2274726169745f74797065223a2022776569676874496e4772616d73222c2276616c7565223a20223c706f6c79676f6e20706f696e74733d223430302c323530203437302c333030203437302c333830203430302c343330203333302c333830203333302c333030222066696c6c3d22776869746522207374726f6b653d222338613666333022207374726f6b652d77696474683d2235222f3e222c202261747472696275746573223a205b7b2274726169745f74797065223a20224a6577656c65724e616d65222c2276616c7565223a20223c7465787420783d223530252220793d223630302220666f6e742d73697a653d2234302220666f6e742d66616d696c793d22417269616c2c2073616e732d73657269662220666f6e742d7765696768743d22626f6c64222066696c6c3d22236434616633372220746578742d616e63686f723d226d6964646c65223e3c7265637420783d22302220793d2230222077696474683d2238303022206865696768743d22383030222066696c6c3d222366386639666122207374726f6b653d222364346166333722207374726f6b652d77696474683d223130222072783d223230222072793d223230222f3e3c7265637420783d223230302220793d22363530222077696474683d2234303022206865696768743d223830222066696c6c3d22776869746522207374726f6b653d222333333322207374726f6b652d77696474683d2233222072783d223130222072793d223130222f3e3c6c696e652078313d22343030222079313d22323530222078323d22343030222079323d2234333022207374726f6b653d222338613666333022207374726f6b652d77696474683d2233222f3e4142434445464748494a4b4c4d4e4f505152535455565758595a6162636465666768696a6b6c6d6e6f707172737475767778797a303132333435363738392b2f227d2c7b2274726169745f74797065223a20226d61696e4d6174657269616c222c2276616c7565223a20223c656c6c697073652063783d22343030222063793d22343230222072783d22313830222072793d22313030222066696c6c3d226e6f6e6522207374726f6b653d222364346166333722207374726f6b652d77696474683d223230222f3e3c656c6c697073652063783d22343030222063793d22343230222072783d22313430222072793d223830222066696c6c3d226e6f6e6522207374726f6b653d222366386639666122207374726f6b652d77696474683d223230222f3e3c6c696e652078313d22343730222079313d22333030222078323d22333330222079323d2233383022207374726f6b653d222338613666333022207374726f6b652d77696474683d2233222f3e3c7465787420783d223530252220793d223132302220666f6e742d73697a653d2235302220666f6e742d66616d696c793d22417269616c2c2073616e732d73657269662220666f6e742d7765696768743d22626f6c64222066696c6c3d22233333332220746578742d616e63686f723d226d6964646c65223e3c7465787420783d223530252220793d223730302220666f6e742d73697a653d2233302220666f6e742d66616d696c793d22417269616c2c2073616e732d7365726966222066696c6c3d22233333332220746578742d616e63686f723d226d6964646c65223e7b226e616d65223a2022476f6c64436861696e204365727469666963617465204e46542023227d2c7b2274726169745f74797065223a202243657274696669636174654c6576656c222c2276616c7565223a2022227d2c7b2274726169745f74797065223a20226d61696e47656d53746f6e6573222c2276616c7565223a2022a26469706673582212209ae8f6f816b23c585d7f7af20b392b711d2b64e6e28ad6469c023f0bf0a40e2b64736f6c634300081c0033","opcodes":"PUSH1 0x80 PUSH1 0x40 MSTORE CALLVALUE DUP1 ISZERO PUSH2 0x10 JUMPI PUSH1 0x0 DUP1 REVERT JUMPDEST POP PUSH1 0x40 MLOAD PUSH2 0x648E CODESIZE SUB DUP1 PUSH2 0x648E DUP4 CODECOPY DUP2 DUP2 ADD PUSH1 0x40 MSTORE DUP2 ADD SWAP1 PUSH2 0x32 SWAP2 SWAP1 PUSH2 0x371 JUMP JUMPDEST PUSH1 0x40 MLOAD DUP1 PUSH1 0x40 ADD PUSH1 0x40 MSTORE DUP1 PUSH1 0xF DUP2 MSTORE PUSH1 0x20 ADD PUSH32 0x476F6C64436861696E4552433732310000000000000000000000000000000000 DUP2 MSTORE POP PUSH1 0x40 MLOAD DUP1 PUSH1 0x40 ADD PUSH1 0x40 MSTORE DUP1 PUSH1 0x2 DUP2 MSTORE PUSH1 0x20 ADD PUSH32 0x4743000000000000000000000000000000000000000000000000000000000000 DUP2 MSTORE POP DUP2 PUSH1 0x1 SWAP1 DUP2 PUSH2 0xAD SWAP2 SWAP1 PUSH2 0x5EE JUMP JUMPDEST POP DUP1 PUSH1 0x2 SWAP1 DUP2 PUSH2 0xBD SWAP2 SWAP1 PUSH2 0x5EE JUMP JUMPDEST POP POP POP PUSH2 0xD3 PUSH1 0x0 DUP1 SHL CALLER PUSH2 0x18D PUSH1 0x20 SHL PUSH1 0x20 SHR JUMP JUMPDEST POP PUSH2 0x104 PUSH32 0xDF8B4C520FFE197C5343C6F5AEC59570151EF9A492F2C624FD45DDDE6135EC42 CALLER PUSH2 0x18D PUSH1 0x20 SHL PUSH1 0x20 SHR JUMP JUMPDEST POP CALLER PUSH1 0xD PUSH1 0x0 PUSH2 0x100 EXP DUP2 SLOAD DUP2 PUSH20 0xFFFFFFFFFFFFFFFFFFFFFFFFFFFFFFFFFFFFFFFF MUL NOT AND SWAP1 DUP4 PUSH20 0xFFFFFFFFFFFFFFFFFFFFFFFFFFFFFFFFFFFFFFFF AND MUL OR SWAP1 SSTORE POP DUP1 PUSH1 0xC PUSH1 0x0 PUSH2 0x100 EXP DUP2 SLOAD DUP2 PUSH20 0xFFFFFFFFFFFFFFFFFFFFFFFFFFFFFFFFFFFFFFFF MUL NOT AND SWAP1 DUP4 PUSH20 0xFFFFFFFFFFFFFFFFFFFFFFFFFFFFFFFFFFFFFFFF AND MUL OR SWAP1 SSTORE POP POP PUSH2 0x6C0 JUMP JUMPDEST PUSH1 0x0 PUSH2 0x19F DUP4 DUP4 PUSH2 0x28A PUSH1 0x20 SHL PUSH1 0x20 SHR JUMP JUMPDEST PUSH2 0x27F JUMPI PUSH1 0x1 PUSH1 0x0 DUP1 DUP6 DUP2 MSTORE PUSH1 0x20 ADD SWAP1 DUP2 MSTORE PUSH1 0x20 ADD PUSH1 0x0 KECCAK256 PUSH1 0x0 ADD PUSH1 0x0 DUP5 PUSH20 0xFFFFFFFFFFFFFFFFFFFFFFFFFFFFFFFFFFFFFFFF AND PUSH20 0xFFFFFFFFFFFFFFFFFFFFFFFFFFFFFFFFFFFFFFFF AND DUP2 MSTORE PUSH1 0x20 ADD SWAP1 DUP2 MSTORE PUSH1 0x20 ADD PUSH1 0x0 KECCAK256 PUSH1 0x0 PUSH2 0x100 EXP DUP2 SLOAD DUP2 PUSH1 0xFF MUL NOT AND SWAP1 DUP4 ISZERO ISZERO MUL OR SWAP1 SSTORE POP PUSH2 0x21C PUSH2 0x2F4 PUSH1 0x20 SHL PUSH1 0x20 SHR JUMP JUMPDEST PUSH20 0xFFFFFFFFFFFFFFFFFFFFFFFFFFFFFFFFFFFFFFFF AND DUP3 PUSH20 0xFFFFFFFFFFFFFFFFFFFFFFFFFFFFFFFFFFFFFFFF AND DUP5 PUSH32 0x2F8788117E7EFF1D82E926EC794901D17C78024A50270940304540A733656F0D PUSH1 0x40 MLOAD PUSH1 0x40 MLOAD DUP1 SWAP2 SUB SWAP1 LOG4 PUSH1 0x1 SWAP1 POP PUSH2 0x284 JUMP JUMPDEST PUSH1 0x0 SWAP1 POP JUMPDEST SWAP3 SWAP2 POP POP JUMP JUMPDEST PUSH1 0x0 DUP1 PUSH1 0x0 DUP5 DUP2 MSTORE PUSH1 0x20 ADD SWAP1 DUP2 MSTORE PUSH1 0x20 ADD PUSH1 0x0 KECCAK256 PUSH1 0x0 ADD PUSH1 0x0 DUP4 PUSH20 0xFFFFFFFFFFFFFFFFFFFFFFFFFFFFFFFFFFFFFFFF AND PUSH20 0xFFFFFFFFFFFFFFFFFFFFFFFFFFFFFFFFFFFFFFFF AND DUP2 MSTORE PUSH1 0x20 ADD SWAP1 DUP2 MSTORE PUSH1 0x20 ADD PUSH1 0x0 KECCAK256 PUSH1 0x0 SWAP1 SLOAD SWAP1 PUSH2 0x100 EXP SWAP1 DIV PUSH1 0xFF AND SWAP1 POP SWAP3 SWAP2 POP POP JUMP JUMPDEST PUSH1 0x0 CALLER SWAP1 POP SWAP1 JUMP JUMPDEST PUSH1 0x0 DUP1 REVERT JUMPDEST PUSH1 0x0 PUSH20 0xFFFFFFFFFFFFFFFFFFFFFFFFFFFFFFFFFFFFFFFF DUP3 AND SWAP1 POP SWAP2 SWAP1 POP JUMP JUMPDEST PUSH1 0x0 PUSH2 0x32C DUP3 PUSH2 0x301 JUMP JUMPDEST SWAP1 POP SWAP2 SWAP1 POP JUMP JUMPDEST PUSH1 0x0 PUSH2 0x33E DUP3 PUSH2 0x321 JUMP JUMPDEST SWAP1 POP SWAP2 SWAP1 POP JUMP JUMPDEST PUSH2 0x34E DUP2 PUSH2 0x333 JUMP JUMPDEST DUP2 EQ PUSH2 0x359 JUMPI PUSH1 0x0 DUP1 REVERT JUMPDEST POP JUMP JUMPDEST PUSH1 0x0 DUP2 MLOAD SWAP1 POP PUSH2 0x36B DUP2 PUSH2 0x345 JUMP JUMPDEST SWAP3 SWAP2 POP POP JUMP JUMPDEST PUSH1 0x0 PUSH1 0x20 DUP3 DUP5 SUB SLT ISZERO PUSH2 0x387 JUMPI PUSH2 0x386 PUSH2 0x2FC JUMP JUMPDEST JUMPDEST PUSH1 0x0 PUSH2 0x395 DUP5 DUP3 DUP6 ADD PUSH2 0x35C JUMP JUMPDEST SWAP2 POP POP SWAP3 SWAP2 POP POP JUMP JUMPDEST PUSH1 0x0 DUP2 MLOAD SWAP1 POP SWAP2 SWAP1 POP JUMP JUMPDEST PUSH32 0x4E487B7100000000000000000000000000000000000000000000000000000000 PUSH1 0x0 MSTORE PUSH1 0x41 PUSH1 0x4 MSTORE PUSH1 0x24 PUSH1 0x0 REVERT JUMPDEST PUSH32 0x4E487B7100000000000000000000000000000000000000000000000000000000 PUSH1 0x0 MSTORE PUSH1 0x22 PUSH1 0x4 MSTORE PUSH1 0x24 PUSH1 0x0 REVERT JUMPDEST PUSH1 0x0 PUSH1 0x2 DUP3 DIV SWAP1 POP PUSH1 0x1 DUP3 AND DUP1 PUSH2 0x41F JUMPI PUSH1 0x7F DUP3 AND SWAP2 POP JUMPDEST PUSH1 0x20 DUP3 LT DUP2 SUB PUSH2 0x432 JUMPI PUSH2 0x431 PUSH2 0x3D8 JUMP JUMPDEST JUMPDEST POP SWAP2 SWAP1 POP JUMP JUMPDEST PUSH1 0x0 DUP2 SWAP1 POP DUP2 PUSH1 0x0 MSTORE PUSH1 0x20 PUSH1 0x0 KECCAK256 SWAP1 POP SWAP2 SWAP1 POP JUMP JUMPDEST PUSH1 0x0 PUSH1 0x20 PUSH1 0x1F DUP4 ADD DIV SWAP1 POP SWAP2 SWAP1 POP JUMP JUMPDEST PUSH1 0x0 DUP3 DUP3 SHL SWAP1 POP SWAP3 SWAP2 POP POP JUMP JUMPDEST PUSH1 0x0 PUSH1 0x8 DUP4 MUL PUSH2 0x49A PUSH32 0xFFFFFFFFFFFFFFFFFFFFFFFFFFFFFFFFFFFFFFFFFFFFFFFFFFFFFFFFFFFFFFFF DUP3 PUSH2 0x45D JUMP JUMPDEST PUSH2 0x4A4 DUP7 DUP4 PUSH2 0x45D JUMP JUMPDEST SWAP6 POP DUP1 NOT DUP5 AND SWAP4 POP DUP1 DUP7 AND DUP5 OR SWAP3 POP POP POP SWAP4 SWAP3 POP POP POP JUMP JUMPDEST PUSH1 0x0 DUP2 SWAP1 POP SWAP2 SWAP1 POP JUMP JUMPDEST PUSH1 0x0 DUP2 SWAP1 POP SWAP2 SWAP1 POP JUMP JUMPDEST PUSH1 0x0 PUSH2 0x4EB PUSH2 0x4E6 PUSH2 0x4E1 DUP5 PUSH2 0x4BC JUMP JUMPDEST PUSH2 0x4C6 JUMP JUMPDEST PUSH2 0x4BC JUMP JUMPDEST SWAP1 POP SWAP2 SWAP1 POP JUMP JUMPDEST PUSH1 0x0 DUP2 SWAP1 POP SWAP2 SWAP1 POP JUMP JUMPDEST PUSH2 0x505 DUP4 PUSH2 0x4D0 JUMP JUMPDEST PUSH2 0x519 PUSH2 0x511 DUP3 PUSH2 0x4F2 JUMP JUMPDEST DUP5 DUP5 SLOAD PUSH2 0x46A JUMP JUMPDEST DUP3 SSTORE POP POP POP POP JUMP JUMPDEST PUSH1 0x0 SWAP1 JUMP JUMPDEST PUSH2 0x52E PUSH2 0x521 JUMP JUMPDEST PUSH2 0x539 DUP2 DUP5 DUP5 PUSH2 0x4FC JUMP JUMPDEST POP POP POP JUMP JUMPDEST JUMPDEST DUP2 DUP2 LT ISZERO PUSH2 0x55D JUMPI PUSH2 0x552 PUSH1 0x0 DUP3 PUSH2 0x526 JUMP JUMPDEST PUSH1 0x1 DUP2 ADD SWAP1 POP PUSH2 0x53F JUMP JUMPDEST POP POP JUMP JUMPDEST PUSH1 0x1F DUP3 GT ISZERO PUSH2 0x5A2 JUMPI PUSH2 0x573 DUP2 PUSH2 0x438 JUMP JUMPDEST PUSH2 0x57C DUP5 PUSH2 0x44D JUMP JUMPDEST DUP2 ADD PUSH1 0x20 DUP6 LT ISZERO PUSH2 0x58B JUMPI DUP2 SWAP1 POP JUMPDEST PUSH2 0x59F PUSH2 0x597 DUP6 PUSH2 0x44D JUMP JUMPDEST DUP4 ADD DUP3 PUSH2 0x53E JUMP JUMPDEST POP POP JUMPDEST POP POP POP JUMP JUMPDEST PUSH1 0x0 DUP3 DUP3 SHR SWAP1 POP SWAP3 SWAP2 POP POP JUMP JUMPDEST PUSH1 0x0 PUSH2 0x5C5 PUSH1 0x0 NOT DUP5 PUSH1 0x8 MUL PUSH2 0x5A7 JUMP JUMPDEST NOT DUP1 DUP4 AND SWAP2 POP POP SWAP3 SWAP2 POP POP JUMP JUMPDEST PUSH1 0x0 PUSH2 0x5DE DUP4 DUP4 PUSH2 0x5B4 JUMP JUMPDEST SWAP2 POP DUP3 PUSH1 0x2 MUL DUP3 OR SWAP1 POP SWAP3 SWAP2 POP POP JUMP JUMPDEST PUSH2 0x5F7 DUP3 PUSH2 0x39E JUMP JUMPDEST PUSH8 0xFFFFFFFFFFFFFFFF DUP2 GT ISZERO PUSH2 0x610 JUMPI PUSH2 0x60F PUSH2 0x3A9 JUMP JUMPDEST JUMPDEST PUSH2 0x61A DUP3 SLOAD PUSH2 0x407 JUMP JUMPDEST PUSH2 0x625 DUP3 DUP3 DUP6 PUSH2 0x561 JUMP JUMPDEST PUSH1 0x0 PUSH1 0x20 SWAP1 POP PUSH1 0x1F DUP4 GT PUSH1 0x1 DUP2 EQ PUSH2 0x658 JUMPI PUSH1 0x0 DUP5 ISZERO PUSH2 0x646 JUMPI DUP3 DUP8 ADD MLOAD SWAP1 POP JUMPDEST PUSH2 0x650 DUP6 DUP3 PUSH2 0x5D2 JUMP JUMPDEST DUP7 SSTORE POP PUSH2 0x6B8 JUMP JUMPDEST PUSH1 0x1F NOT DUP5 AND PUSH2 0x666 DUP7 PUSH2 0x438 JUMP JUMPDEST PUSH1 0x0 JUMPDEST DUP3 DUP2 LT ISZERO PUSH2 0x68E JUMPI DUP5 DUP10 ADD MLOAD DUP3 SSTORE PUSH1 0x1 DUP3 ADD SWAP2 POP PUSH1 0x20 DUP6 ADD SWAP5 POP PUSH1 0x20 DUP2 ADD SWAP1 POP PUSH2 0x669 JUMP JUMPDEST DUP7 DUP4 LT ISZERO PUSH2 0x6AB JUMPI DUP5 DUP10 ADD MLOAD PUSH2 0x6A7 PUSH1 0x1F DUP10 AND DUP3 PUSH2 0x5B4 JUMP JUMPDEST DUP4 SSTORE POP JUMPDEST PUSH1 0x1 PUSH1 0x2 DUP9 MUL ADD DUP9 SSTORE POP POP POP JUMPDEST POP POP POP POP POP POP JUMP JUMPDEST PUSH2 0x5DBF DUP1 PUSH2 0x6CF PUSH1 0x0 CODECOPY PUSH1 0x0 RETURN INVALID PUSH1 0x80 PUSH1 0x40 MSTORE CALLVALUE DUP1 ISZERO PUSH2 0x10 JUMPI PUSH1 0x0 DUP1 REVERT JUMPDEST POP PUSH1 0x4 CALLDATASIZE LT PUSH2 0x269 JUMPI PUSH1 0x0 CALLDATALOAD PUSH1 0xE0 SHR DUP1 PUSH4 0x4FF7986E GT PUSH2 0x151 JUMPI DUP1 PUSH4 0x95D89B41 GT PUSH2 0xC3 JUMPI DUP1 PUSH4 0xC87B56DD GT PUSH2 0x87 JUMPI DUP1 PUSH4 0xC87B56DD EQ PUSH2 0x7E8 JUMPI DUP1 PUSH4 0xD547741F EQ PUSH2 0x818 JUMPI DUP1 PUSH4 0xE985E9C5 EQ PUSH2 0x834 JUMPI DUP1 PUSH4 0xEE7BF0EE EQ PUSH2 0x864 JUMPI DUP1 PUSH4 0xF2E0BC58 EQ PUSH2 0x894 JUMPI DUP1 PUSH4 0xF851A440 EQ PUSH2 0x8C4 JUMPI PUSH2 0x269 JUMP JUMPDEST DUP1 PUSH4 0x95D89B41 EQ PUSH2 0x744 JUMPI DUP1 PUSH4 0xA217FDDF EQ PUSH2 0x762 JUMPI DUP1 PUSH4 0xA22CB465 EQ PUSH2 0x780 JUMPI DUP1 PUSH4 0xA5DDD288 EQ PUSH2 0x79C JUMPI DUP1 PUSH4 0xB88D4FDE EQ PUSH2 0x7CC JUMPI PUSH2 0x269 JUMP JUMPDEST DUP1 PUSH4 0x6352211E GT PUSH2 0x115 JUMPI DUP1 PUSH4 0x6352211E EQ PUSH2 0x65A JUMPI DUP1 PUSH4 0x70A08231 EQ PUSH2 0x68A JUMPI DUP1 PUSH4 0x899F9D0D EQ PUSH2 0x6BA JUMPI DUP1 PUSH4 0x8C271777 EQ PUSH2 0x6D8 JUMPI DUP1 PUSH4 0x91D14854 EQ PUSH2 0x6F6 JUMPI DUP1 PUSH4 0x934B4AF2 EQ PUSH2 0x726 JUMPI PUSH2 0x269 JUMP JUMPDEST DUP1 PUSH4 0x4FF7986E EQ PUSH2 0x58E JUMPI DUP1 PUSH4 0x55B059E8 EQ PUSH2 0x5AC JUMPI DUP1 PUSH4 0x55ED5FE8 EQ PUSH2 0x5DC JUMPI DUP1 PUSH4 0x57A00CCF EQ PUSH2 0x60C JUMPI DUP1 PUSH4 0x5994D984 EQ PUSH2 0x63C JUMPI PUSH2 0x269 JUMP JUMPDEST DUP1 PUSH4 0x248A9CA3 GT PUSH2 0x1EA JUMPI DUP1 PUSH4 0x2F745C59 GT PUSH2 0x1AE JUMPI DUP1 PUSH4 0x2F745C59 EQ PUSH2 0x496 JUMPI DUP1 PUSH4 0x36568ABE EQ PUSH2 0x4C6 JUMPI DUP1 PUSH4 0x40D097C3 EQ PUSH2 0x4E2 JUMPI DUP1 PUSH4 0x41CC7C73 EQ PUSH2 0x512 JUMPI DUP1 PUSH4 0x42842E0E EQ PUSH2 0x542 JUMPI DUP1 PUSH4 0x4F6CCCE7 EQ PUSH2 0x55E JUMPI PUSH2 0x269 JUMP JUMPDEST DUP1 PUSH4 0x248A9CA3 EQ PUSH2 0x3CC JUMPI DUP1 PUSH4 0x29ACC209 EQ PUSH2 0x3FC JUMPI DUP1 PUSH4 0x2A0ACC6A EQ PUSH2 0x42C JUMPI DUP1 PUSH4 0x2B3DD38B EQ PUSH2 0x44A JUMPI DUP1 PUSH4 0x2F2FF15D EQ PUSH2 0x47A JUMPI PUSH2 0x269 JUMP JUMPDEST DUP1 PUSH4 0xCDB5CB5 GT PUSH2 0x231 JUMPI DUP1 PUSH4 0xCDB5CB5 EQ PUSH2 0x338 JUMPI DUP1 PUSH4 0x18160DDD EQ PUSH2 0x356 JUMPI DUP1 PUSH4 0x2027D746 EQ PUSH2 0x374 JUMPI DUP1 PUSH4 0x22F537CE EQ PUSH2 0x392 JUMPI DUP1 PUSH4 0x23B872DD EQ PUSH2 0x3B0 JUMPI PUSH2 0x269 JUMP JUMPDEST DUP1 PUSH4 0x1FFC9A7 EQ PUSH2 0x26E JUMPI DUP1 PUSH4 0x6FDDE03 EQ PUSH2 0x29E JUMPI DUP1 PUSH4 0x81812FC EQ PUSH2 0x2BC JUMPI DUP1 PUSH4 0x81BA2D5 EQ PUSH2 0x2EC JUMPI DUP1 PUSH4 0x95EA7B3 EQ PUSH2 0x31C JUMPI JUMPDEST PUSH1 0x0 DUP1 REVERT JUMPDEST PUSH2 0x288 PUSH1 0x4 DUP1 CALLDATASIZE SUB DUP2 ADD SWAP1 PUSH2 0x283 SWAP2 SWAP1 PUSH2 0x3D0B JUMP JUMPDEST PUSH2 0x8E2 JUMP JUMPDEST PUSH1 0x40 MLOAD PUSH2 0x295 SWAP2 SWAP1 PUSH2 0x3D53 JUMP JUMPDEST PUSH1 0x40 MLOAD DUP1 SWAP2 SUB SWAP1 RETURN JUMPDEST PUSH2 0x2A6 PUSH2 0x8F4 JUMP JUMPDEST PUSH1 0x40 MLOAD PUSH2 0x2B3 SWAP2 SWAP1 PUSH2 0x3DFE JUMP JUMPDEST PUSH1 0x40 MLOAD DUP1 SWAP2 SUB SWAP1 RETURN JUMPDEST PUSH2 0x2D6 PUSH1 0x4 DUP1 CALLDATASIZE SUB DUP2 ADD SWAP1 PUSH2 0x2D1 SWAP2 SWAP1 PUSH2 0x3E56 JUMP JUMPDEST PUSH2 0x986 JUMP JUMPDEST PUSH1 0x40 MLOAD PUSH2 0x2E3 SWAP2 SWAP1 PUSH2 0x3EC4 JUMP JUMPDEST PUSH1 0x40 MLOAD DUP1 SWAP2 SUB SWAP1 RETURN JUMPDEST PUSH2 0x306 PUSH1 0x4 DUP1 CALLDATASIZE SUB DUP2 ADD SWAP1 PUSH2 0x301 SWAP2 SWAP1 PUSH2 0x3F0B JUMP JUMPDEST PUSH2 0x9A2 JUMP JUMPDEST PUSH1 0x40 MLOAD PUSH2 0x313 SWAP2 SWAP1 PUSH2 0x3D53 JUMP JUMPDEST PUSH1 0x40 MLOAD DUP1 SWAP2 SUB SWAP1 RETURN JUMPDEST PUSH2 0x336 PUSH1 0x4 DUP1 CALLDATASIZE SUB DUP2 ADD SWAP1 PUSH2 0x331 SWAP2 SWAP1 PUSH2 0x3F38 JUMP JUMPDEST PUSH2 0xAB0 JUMP JUMPDEST STOP JUMPDEST PUSH2 0x340 PUSH2 0xAC6 JUMP JUMPDEST PUSH1 0x40 MLOAD PUSH2 0x34D SWAP2 SWAP1 PUSH2 0x3F91 JUMP JUMPDEST PUSH1 0x40 MLOAD DUP1 SWAP2 SUB SWAP1 RETURN JUMPDEST PUSH2 0x35E PUSH2 0xAEA JUMP JUMPDEST PUSH1 0x40 MLOAD PUSH2 0x36B SWAP2 SWAP1 PUSH2 0x3FBB JUMP JUMPDEST PUSH1 0x40 MLOAD DUP1 SWAP2 SUB SWAP1 RETURN JUMPDEST PUSH2 0x37C PUSH2 0xAF7 JUMP JUMPDEST PUSH1 0x40 MLOAD PUSH2 0x389 SWAP2 SWAP1 PUSH2 0x3FBB JUMP JUMPDEST PUSH1 0x40 MLOAD DUP1 SWAP2 SUB SWAP1 RETURN JUMPDEST PUSH2 0x39A PUSH2 0xB8F JUMP JUMPDEST PUSH1 0x40 MLOAD PUSH2 0x3A7 SWAP2 SWAP1 PUSH2 0x3F91 JUMP JUMPDEST PUSH1 0x40 MLOAD DUP1 SWAP2 SUB SWAP1 RETURN JUMPDEST PUSH2 0x3CA PUSH1 0x4 DUP1 CALLDATASIZE SUB DUP2 ADD SWAP1 PUSH2 0x3C5 SWAP2 SWAP1 PUSH2 0x3FD6 JUMP JUMPDEST PUSH2 0xBB3 JUMP JUMPDEST STOP JUMPDEST PUSH2 0x3E6 PUSH1 0x4 DUP1 CALLDATASIZE SUB DUP2 ADD SWAP1 PUSH2 0x3E1 SWAP2 SWAP1 PUSH2 0x4055 JUMP JUMPDEST PUSH2 0xCB5 JUMP JUMPDEST PUSH1 0x40 MLOAD PUSH2 0x3F3 SWAP2 SWAP1 PUSH2 0x3F91 JUMP JUMPDEST PUSH1 0x40 MLOAD DUP1 SWAP2 SUB SWAP1 RETURN JUMPDEST PUSH2 0x416 PUSH1 0x4 DUP1 CALLDATASIZE SUB DUP2 ADD SWAP1 PUSH2 0x411 SWAP2 SWAP1 PUSH2 0x3F0B JUMP JUMPDEST PUSH2 0xCD4 JUMP JUMPDEST PUSH1 0x40 MLOAD PUSH2 0x423 SWAP2 SWAP1 PUSH2 0x3D53 JUMP JUMPDEST PUSH1 0x40 MLOAD DUP1 SWAP2 SUB SWAP1 RETURN JUMPDEST PUSH2 0x434 PUSH2 0xDE2 JUMP JUMPDEST PUSH1 0x40 MLOAD PUSH2 0x441 SWAP2 SWAP1 PUSH2 0x3F91 JUMP JUMPDEST PUSH1 0x40 MLOAD DUP1 SWAP2 SUB SWAP1 RETURN JUMPDEST PUSH2 0x464 PUSH1 0x4 DUP1 CALLDATASIZE SUB DUP2 ADD SWAP1 PUSH2 0x45F SWAP2 SWAP1 PUSH2 0x4113 JUMP JUMPDEST PUSH2 0xE06 JUMP JUMPDEST PUSH1 0x40 MLOAD PUSH2 0x471 SWAP2 SWAP1 PUSH2 0x3D53 JUMP JUMPDEST PUSH1 0x40 MLOAD DUP1 SWAP2 SUB SWAP1 RETURN JUMPDEST PUSH2 0x494 PUSH1 0x4 DUP1 CALLDATASIZE SUB DUP2 ADD SWAP1 PUSH2 0x48F SWAP2 SWAP1 PUSH2 0x41DC JUMP JUMPDEST PUSH2 0x1006 JUMP JUMPDEST STOP JUMPDEST PUSH2 0x4B0 PUSH1 0x4 DUP1 CALLDATASIZE SUB DUP2 ADD SWAP1 PUSH2 0x4AB SWAP2 SWAP1 PUSH2 0x3F38 JUMP JUMPDEST PUSH2 0x1028 JUMP JUMPDEST PUSH1 0x40 MLOAD PUSH2 0x4BD SWAP2 SWAP1 PUSH2 0x3FBB JUMP JUMPDEST PUSH1 0x40 MLOAD DUP1 SWAP2 SUB SWAP1 RETURN JUMPDEST PUSH2 0x4E0 PUSH1 0x4 DUP1 CALLDATASIZE SUB DUP2 ADD SWAP1 PUSH2 0x4DB SWAP2 SWAP1 PUSH2 0x41DC JUMP JUMPDEST PUSH2 0x10D1 JUMP JUMPDEST STOP JUMPDEST PUSH2 0x4FC PUSH1 0x4 DUP1 CALLDATASIZE SUB DUP2 ADD SWAP1 PUSH2 0x4F7 SWAP2 SWAP1 PUSH2 0x3F0B JUMP JUMPDEST PUSH2 0x114C JUMP JUMPDEST PUSH1 0x40 MLOAD PUSH2 0x509 SWAP2 SWAP1 PUSH2 0x3FBB JUMP JUMPDEST PUSH1 0x40 MLOAD DUP1 SWAP2 SUB SWAP1 RETURN JUMPDEST PUSH2 0x52C PUSH1 0x4 DUP1 CALLDATASIZE SUB DUP2 ADD SWAP1 PUSH2 0x527 SWAP2 SWAP1 PUSH2 0x42F5 JUMP JUMPDEST PUSH2 0x117B JUMP JUMPDEST PUSH1 0x40 MLOAD PUSH2 0x539 SWAP2 SWAP1 PUSH2 0x3D53 JUMP JUMPDEST PUSH1 0x40 MLOAD DUP1 SWAP2 SUB SWAP1 RETURN JUMPDEST PUSH2 0x55C PUSH1 0x4 DUP1 CALLDATASIZE SUB DUP2 ADD SWAP1 PUSH2 0x557 SWAP2 SWAP1 PUSH2 0x3FD6 JUMP JUMPDEST PUSH2 0x127A JUMP JUMPDEST STOP JUMPDEST PUSH2 0x578 PUSH1 0x4 DUP1 CALLDATASIZE SUB DUP2 ADD SWAP1 PUSH2 0x573 SWAP2 SWAP1 PUSH2 0x3E56 JUMP JUMPDEST PUSH2 0x129A JUMP JUMPDEST PUSH1 0x40 MLOAD PUSH2 0x585 SWAP2 SWAP1 PUSH2 0x3FBB JUMP JUMPDEST PUSH1 0x40 MLOAD DUP1 SWAP2 SUB SWAP1 RETURN JUMPDEST PUSH2 0x596 PUSH2 0x1310 JUMP JUMPDEST PUSH1 0x40 MLOAD PUSH2 0x5A3 SWAP2 SWAP1 PUSH2 0x3D53 JUMP JUMPDEST PUSH1 0x40 MLOAD DUP1 SWAP2 SUB SWAP1 RETURN JUMPDEST PUSH2 0x5C6 PUSH1 0x4 DUP1 CALLDATASIZE SUB DUP2 ADD SWAP1 PUSH2 0x5C1 SWAP2 SWAP1 PUSH2 0x4419 JUMP JUMPDEST PUSH2 0x1315 JUMP JUMPDEST PUSH1 0x40 MLOAD PUSH2 0x5D3 SWAP2 SWAP1 PUSH2 0x3D53 JUMP JUMPDEST PUSH1 0x40 MLOAD DUP1 SWAP2 SUB SWAP1 RETURN JUMPDEST PUSH2 0x5F6 PUSH1 0x4 DUP1 CALLDATASIZE SUB DUP2 ADD SWAP1 PUSH2 0x5F1 SWAP2 SWAP1 PUSH2 0x4419 JUMP JUMPDEST PUSH2 0x1498 JUMP JUMPDEST PUSH1 0x40 MLOAD PUSH2 0x603 SWAP2 SWAP1 PUSH2 0x3D53 JUMP JUMPDEST PUSH1 0x40 MLOAD DUP1 SWAP2 SUB SWAP1 RETURN JUMPDEST PUSH2 0x626 PUSH1 0x4 DUP1 CALLDATASIZE SUB DUP2 ADD SWAP1 PUSH2 0x621 SWAP2 SWAP1 PUSH2 0x3F0B JUMP JUMPDEST PUSH2 0x161E JUMP JUMPDEST PUSH1 0x40 MLOAD PUSH2 0x633 SWAP2 SWAP1 PUSH2 0x46A9 JUMP JUMPDEST PUSH1 0x40 MLOAD DUP1 SWAP2 SUB SWAP1 RETURN JUMPDEST PUSH2 0x644 PUSH2 0x16CE JUMP JUMPDEST PUSH1 0x40 MLOAD PUSH2 0x651 SWAP2 SWAP1 PUSH2 0x3D53 JUMP JUMPDEST PUSH1 0x40 MLOAD DUP1 SWAP2 SUB SWAP1 RETURN JUMPDEST PUSH2 0x674 PUSH1 0x4 DUP1 CALLDATASIZE SUB DUP2 ADD SWAP1 PUSH2 0x66F SWAP2 SWAP1 PUSH2 0x3E56 JUMP JUMPDEST PUSH2 0x16D3 JUMP JUMPDEST PUSH1 0x40 MLOAD PUSH2 0x681 SWAP2 SWAP1 PUSH2 0x3EC4 JUMP JUMPDEST PUSH1 0x40 MLOAD DUP1 SWAP2 SUB SWAP1 RETURN JUMPDEST PUSH2 0x6A4 PUSH1 0x4 DUP1 CALLDATASIZE SUB DUP2 ADD SWAP1 PUSH2 0x69F SWAP2 SWAP1 PUSH2 0x3F0B JUMP JUMPDEST PUSH2 0x16E5 JUMP JUMPDEST PUSH1 0x40 MLOAD PUSH2 0x6B1 SWAP2 SWAP1 PUSH2 0x3FBB JUMP JUMPDEST PUSH1 0x40 MLOAD DUP1 SWAP2 SUB SWAP1 RETURN JUMPDEST PUSH2 0x6C2 PUSH2 0x179F JUMP JUMPDEST PUSH1 0x40 MLOAD PUSH2 0x6CF SWAP2 SWAP1 PUSH2 0x3D53 JUMP JUMPDEST PUSH1 0x40 MLOAD DUP1 SWAP2 SUB SWAP1 RETURN JUMPDEST PUSH2 0x6E0 PUSH2 0x17A8 JUMP JUMPDEST PUSH1 0x40 MLOAD PUSH2 0x6ED SWAP2 SWAP1 PUSH2 0x3FBB JUMP JUMPDEST PUSH1 0x40 MLOAD DUP1 SWAP2 SUB SWAP1 RETURN JUMPDEST PUSH2 0x710 PUSH1 0x4 DUP1 CALLDATASIZE SUB DUP2 ADD SWAP1 PUSH2 0x70B SWAP2 SWAP1 PUSH2 0x41DC JUMP JUMPDEST PUSH2 0x1840 JUMP JUMPDEST PUSH1 0x40 MLOAD PUSH2 0x71D SWAP2 SWAP1 PUSH2 0x3D53 JUMP JUMPDEST PUSH1 0x40 MLOAD DUP1 SWAP2 SUB SWAP1 RETURN JUMPDEST PUSH2 0x72E PUSH2 0x18AA JUMP JUMPDEST PUSH1 0x40 MLOAD PUSH2 0x73B SWAP2 SWAP1 PUSH2 0x3F91 JUMP JUMPDEST PUSH1 0x40 MLOAD DUP1 SWAP2 SUB SWAP1 RETURN JUMPDEST PUSH2 0x74C PUSH2 0x18CE JUMP JUMPDEST PUSH1 0x40 MLOAD PUSH2 0x759 SWAP2 SWAP1 PUSH2 0x3DFE JUMP JUMPDEST PUSH1 0x40 MLOAD DUP1 SWAP2 SUB SWAP1 RETURN JUMPDEST PUSH2 0x76A PUSH2 0x1960 JUMP JUMPDEST PUSH1 0x40 MLOAD PUSH2 0x777 SWAP2 SWAP1 PUSH2 0x3F91 JUMP JUMPDEST PUSH1 0x40 MLOAD DUP1 SWAP2 SUB SWAP1 RETURN JUMPDEST PUSH2 0x79A PUSH1 0x4 DUP1 CALLDATASIZE SUB DUP2 ADD SWAP1 PUSH2 0x795 SWAP2 SWAP1 PUSH2 0x46CB JUMP JUMPDEST PUSH2 0x1967 JUMP JUMPDEST STOP JUMPDEST PUSH2 0x7B6 PUSH1 0x4 DUP1 CALLDATASIZE SUB DUP2 ADD SWAP1 PUSH2 0x7B1 SWAP2 SWAP1 PUSH2 0x3F38 JUMP JUMPDEST PUSH2 0x197D JUMP JUMPDEST PUSH1 0x40 MLOAD PUSH2 0x7C3 SWAP2 SWAP1 PUSH2 0x3D53 JUMP JUMPDEST PUSH1 0x40 MLOAD DUP1 SWAP2 SUB SWAP1 RETURN JUMPDEST PUSH2 0x7E6 PUSH1 0x4 DUP1 CALLDATASIZE SUB DUP2 ADD SWAP1 PUSH2 0x7E1 SWAP2 SWAP1 PUSH2 0x483B JUMP JUMPDEST PUSH2 0x1994 JUMP JUMPDEST STOP JUMPDEST PUSH2 0x802 PUSH1 0x4 DUP1 CALLDATASIZE SUB DUP2 ADD SWAP1 PUSH2 0x7FD SWAP2 SWAP1 PUSH2 0x3E56 JUMP JUMPDEST PUSH2 0x19B9 JUMP JUMPDEST PUSH1 0x40 MLOAD PUSH2 0x80F SWAP2 SWAP1 PUSH2 0x3DFE JUMP JUMPDEST PUSH1 0x40 MLOAD DUP1 SWAP2 SUB SWAP1 RETURN JUMPDEST PUSH2 0x832 PUSH1 0x4 DUP1 CALLDATASIZE SUB DUP2 ADD SWAP1 PUSH2 0x82D SWAP2 SWAP1 PUSH2 0x41DC JUMP JUMPDEST PUSH2 0x1AB5 JUMP JUMPDEST STOP JUMPDEST PUSH2 0x84E PUSH1 0x4 DUP1 CALLDATASIZE SUB DUP2 ADD SWAP1 PUSH2 0x849 SWAP2 SWAP1 PUSH2 0x48BE JUMP JUMPDEST PUSH2 0x1AD7 JUMP JUMPDEST PUSH1 0x40 MLOAD PUSH2 0x85B SWAP2 SWAP1 PUSH2 0x3D53 JUMP JUMPDEST PUSH1 0x40 MLOAD DUP1 SWAP2 SUB SWAP1 RETURN JUMPDEST PUSH2 0x87E PUSH1 0x4 DUP1 CALLDATASIZE SUB DUP2 ADD SWAP1 PUSH2 0x879 SWAP2 SWAP1 PUSH2 0x3F0B JUMP JUMPDEST PUSH2 0x1B6B JUMP JUMPDEST PUSH1 0x40 MLOAD PUSH2 0x88B SWAP2 SWAP1 PUSH2 0x49AF JUMP JUMPDEST PUSH1 0x40 MLOAD DUP1 SWAP2 SUB SWAP1 RETURN JUMPDEST PUSH2 0x8AE PUSH1 0x4 DUP1 CALLDATASIZE SUB DUP2 ADD SWAP1 PUSH2 0x8A9 SWAP2 SWAP1 PUSH2 0x4113 JUMP JUMPDEST PUSH2 0x1C1B JUMP JUMPDEST PUSH1 0x40 MLOAD PUSH2 0x8BB SWAP2 SWAP1 PUSH2 0x3D53 JUMP JUMPDEST PUSH1 0x40 MLOAD DUP1 SWAP2 SUB SWAP1 RETURN JUMPDEST PUSH2 0x8CC PUSH2 0x1E1B JUMP JUMPDEST PUSH1 0x40 MLOAD PUSH2 0x8D9 SWAP2 SWAP1 PUSH2 0x3EC4 JUMP JUMPDEST PUSH1 0x40 MLOAD DUP1 SWAP2 SUB SWAP1 RETURN JUMPDEST PUSH1 0x0 PUSH2 0x8ED DUP3 PUSH2 0x1E41 JUMP JUMPDEST SWAP1 POP SWAP2 SWAP1 POP JUMP JUMPDEST PUSH1 0x60 PUSH1 0x1 DUP1 SLOAD PUSH2 0x903 SWAP1 PUSH2 0x4A00 JUMP JUMPDEST DUP1 PUSH1 0x1F ADD PUSH1 0x20 DUP1 SWAP2 DIV MUL PUSH1 0x20 ADD PUSH1 0x40 MLOAD SWAP1 DUP2 ADD PUSH1 0x40 MSTORE DUP1 SWAP3 SWAP2 SWAP1 DUP2 DUP2 MSTORE PUSH1 0x20 ADD DUP3 DUP1 SLOAD PUSH2 0x92F SWAP1 PUSH2 0x4A00 JUMP JUMPDEST DUP1 ISZERO PUSH2 0x97C JUMPI DUP1 PUSH1 0x1F LT PUSH2 0x951 JUMPI PUSH2 0x100 DUP1 DUP4 SLOAD DIV MUL DUP4 MSTORE SWAP2 PUSH1 0x20 ADD SWAP2 PUSH2 0x97C JUMP JUMPDEST DUP3 ADD SWAP2 SWAP1 PUSH1 0x0 MSTORE PUSH1 0x20 PUSH1 0x0 KECCAK256 SWAP1 JUMPDEST DUP2 SLOAD DUP2 MSTORE SWAP1 PUSH1 0x1 ADD SWAP1 PUSH1 0x20 ADD DUP1 DUP4 GT PUSH2 0x95F JUMPI DUP3 SWAP1 SUB PUSH1 0x1F AND DUP3 ADD SWAP2 JUMPDEST POP POP POP POP POP SWAP1 POP SWAP1 JUMP JUMPDEST PUSH1 0x0 PUSH2 0x991 DUP3 PUSH2 0x1E53 JUMP JUMPDEST POP PUSH2 0x99B DUP3 PUSH2 0x1EDB JUMP JUMPDEST SWAP1 POP SWAP2 SWAP1 POP JUMP JUMPDEST PUSH1 0x0 PUSH32 0xDF8B4C520FFE197C5343C6F5AEC59570151EF9A492F2C624FD45DDDE6135EC42 PUSH2 0x9CE DUP2 PUSH2 0x1F18 JUMP JUMPDEST PUSH1 0xC PUSH1 0x0 SWAP1 SLOAD SWAP1 PUSH2 0x100 EXP SWAP1 DIV PUSH20 0xFFFFFFFFFFFFFFFFFFFFFFFFFFFFFFFFFFFFFFFF AND PUSH20 0xFFFFFFFFFFFFFFFFFFFFFFFFFFFFFFFFFFFFFFFF AND PUSH4 0x81BA2D5 DUP5 PUSH1 0x40 MLOAD DUP3 PUSH4 0xFFFFFFFF AND PUSH1 0xE0 SHL DUP2 MSTORE PUSH1 0x4 ADD PUSH2 0xA29 SWAP2 SWAP1 PUSH2 0x3EC4 JUMP JUMPDEST PUSH1 0x20 PUSH1 0x40 MLOAD DUP1 DUP4 SUB DUP2 PUSH1 0x0 DUP8 GAS CALL ISZERO DUP1 ISZERO PUSH2 0xA48 JUMPI RETURNDATASIZE PUSH1 0x0 DUP1 RETURNDATACOPY RETURNDATASIZE PUSH1 0x0 REVERT JUMPDEST POP POP POP POP PUSH1 0x40 MLOAD RETURNDATASIZE PUSH1 0x1F NOT PUSH1 0x1F DUP3 ADD AND DUP3 ADD DUP1 PUSH1 0x40 MSTORE POP DUP2 ADD SWAP1 PUSH2 0xA6C SWAP2 SWAP1 PUSH2 0x4A46 JUMP JUMPDEST POP PUSH32 0x188D8CA5695483231734D1734924F73AB34848F997F2DE827C8F73033B4614AE DUP4 TIMESTAMP PUSH1 0x40 MLOAD PUSH2 0xA9E SWAP3 SWAP2 SWAP1 PUSH2 0x4A73 JUMP JUMPDEST PUSH1 0x40 MLOAD DUP1 SWAP2 SUB SWAP1 LOG1 PUSH1 0x1 SWAP2 POP POP SWAP2 SWAP1 POP JUMP JUMPDEST PUSH2 0xAC2 DUP3 DUP3 PUSH2 0xABD PUSH2 0x1F2C JUMP JUMPDEST PUSH2 0x1F34 JUMP JUMPDEST POP POP JUMP JUMPDEST PUSH32 0x61E6A4BB6BCA8AA1F17C71895C1AB1BF9C06C812442A0A16AAD9F0837C23CA79 DUP2 JUMP JUMPDEST PUSH1 0x0 PUSH1 0x9 DUP1 SLOAD SWAP1 POP SWAP1 POP SWAP1 JUMP JUMPDEST PUSH1 0x0 PUSH1 0xC PUSH1 0x0 SWAP1 SLOAD SWAP1 PUSH2 0x100 EXP SWAP1 DIV PUSH20 0xFFFFFFFFFFFFFFFFFFFFFFFFFFFFFFFFFFFFFFFF AND PUSH20 0xFFFFFFFFFFFFFFFFFFFFFFFFFFFFFFFFFFFFFFFF AND PUSH4 0x2027D746 PUSH1 0x40 MLOAD DUP2 PUSH4 0xFFFFFFFF AND PUSH1 0xE0 SHL DUP2 MSTORE PUSH1 0x4 ADD PUSH1 0x20 PUSH1 0x40 MLOAD DUP1 DUP4 SUB DUP2 DUP7 GAS STATICCALL ISZERO DUP1 ISZERO PUSH2 0xB66 JUMPI RETURNDATASIZE PUSH1 0x0 DUP1 RETURNDATACOPY RETURNDATASIZE PUSH1 0x0 REVERT JUMPDEST POP POP POP POP PUSH1 0x40 MLOAD RETURNDATASIZE PUSH1 0x1F NOT PUSH1 0x1F DUP3 ADD AND DUP3 ADD DUP1 PUSH1 0x40 MSTORE POP DUP2 ADD SWAP1 PUSH2 0xB8A SWAP2 SWAP1 PUSH2 0x4AB1 JUMP JUMPDEST SWAP1 POP SWAP1 JUMP JUMPDEST PUSH32 0xAF6786EFC154B345802554F1DEA27E60EA4C3393B6B38EB8438E22C20E088BD2 DUP2 JUMP JUMPDEST PUSH1 0x0 PUSH20 0xFFFFFFFFFFFFFFFFFFFFFFFFFFFFFFFFFFFFFFFF AND DUP3 PUSH20 0xFFFFFFFFFFFFFFFFFFFFFFFFFFFFFFFFFFFFFFFF AND SUB PUSH2 0xC25 JUMPI PUSH1 0x0 PUSH1 0x40 MLOAD PUSH32 0x64A0AE9200000000000000000000000000000000000000000000000000000000 DUP2 MSTORE PUSH1 0x4 ADD PUSH2 0xC1C SWAP2 SWAP1 PUSH2 0x3EC4 JUMP JUMPDEST PUSH1 0x40 MLOAD DUP1 SWAP2 SUB SWAP1 REVERT JUMPDEST PUSH1 0x0 PUSH2 0xC39 DUP4 DUP4 PUSH2 0xC34 PUSH2 0x1F2C JUMP JUMPDEST PUSH2 0x1F46 JUMP JUMPDEST SWAP1 POP DUP4 PUSH20 0xFFFFFFFFFFFFFFFFFFFFFFFFFFFFFFFFFFFFFFFF AND DUP2 PUSH20 0xFFFFFFFFFFFFFFFFFFFFFFFFFFFFFFFFFFFFFFFF AND EQ PUSH2 0xCAF JUMPI DUP4 DUP3 DUP3 PUSH1 0x40 MLOAD PUSH32 0x64283D7B00000000000000000000000000000000000000000000000000000000 DUP2 MSTORE PUSH1 0x4 ADD PUSH2 0xCA6 SWAP4 SWAP3 SWAP2 SWAP1 PUSH2 0x4ADE JUMP JUMPDEST PUSH1 0x40 MLOAD DUP1 SWAP2 SUB SWAP1 REVERT JUMPDEST POP POP POP POP JUMP JUMPDEST PUSH1 0x0 DUP1 PUSH1 0x0 DUP4 DUP2 MSTORE PUSH1 0x20 ADD SWAP1 DUP2 MSTORE PUSH1 0x20 ADD PUSH1 0x0 KECCAK256 PUSH1 0x1 ADD SLOAD SWAP1 POP SWAP2 SWAP1 POP JUMP JUMPDEST PUSH1 0x0 PUSH32 0xDF8B4C520FFE197C5343C6F5AEC59570151EF9A492F2C624FD45DDDE6135EC42 PUSH2 0xD00 DUP2 PUSH2 0x1F18 JUMP JUMPDEST PUSH1 0xC PUSH1 0x0 SWAP1 SLOAD SWAP1 PUSH2 0x100 EXP SWAP1 DIV PUSH20 0xFFFFFFFFFFFFFFFFFFFFFFFFFFFFFFFFFFFFFFFF AND PUSH20 0xFFFFFFFFFFFFFFFFFFFFFFFFFFFFFFFFFFFFFFFF AND PUSH4 0x29ACC209 DUP5 PUSH1 0x40 MLOAD DUP3 PUSH4 0xFFFFFFFF AND PUSH1 0xE0 SHL DUP2 MSTORE PUSH1 0x4 ADD PUSH2 0xD5B SWAP2 SWAP1 PUSH2 0x3EC4 JUMP JUMPDEST PUSH1 0x20 PUSH1 0x40 MLOAD DUP1 DUP4 SUB DUP2 PUSH1 0x0 DUP8 GAS CALL ISZERO DUP1 ISZERO PUSH2 0xD7A JUMPI RETURNDATASIZE PUSH1 0x0 DUP1 RETURNDATACOPY RETURNDATASIZE PUSH1 0x0 REVERT JUMPDEST POP POP POP POP PUSH1 0x40 MLOAD RETURNDATASIZE PUSH1 0x1F NOT PUSH1 0x1F DUP3 ADD AND DUP3 ADD DUP1 PUSH1 0x40 MSTORE POP DUP2 ADD SWAP1 PUSH2 0xD9E SWAP2 SWAP1 PUSH2 0x4A46 JUMP JUMPDEST POP PUSH32 0x449422D37AD477A115E35DED9D4971E6ED3594F45DF1408F1EB2320A8BC5C2B8 DUP4 TIMESTAMP PUSH1 0x40 MLOAD PUSH2 0xDD0 SWAP3 SWAP2 SWAP1 PUSH2 0x4A73 JUMP JUMPDEST PUSH1 0x40 MLOAD DUP1 SWAP2 SUB SWAP1 LOG1 PUSH1 0x1 SWAP2 POP POP SWAP2 SWAP1 POP JUMP JUMPDEST PUSH32 0xDF8B4C520FFE197C5343C6F5AEC59570151EF9A492F2C624FD45DDDE6135EC42 DUP2 JUMP JUMPDEST PUSH1 0x0 PUSH32 0x61E6A4BB6BCA8AA1F17C71895C1AB1BF9C06C812442A0A16AAD9F0837C23CA79 PUSH2 0xE32 DUP2 PUSH2 0x1F18 JUMP JUMPDEST PUSH1 0x0 PUSH1 0xC PUSH1 0x0 SWAP1 SLOAD SWAP1 PUSH2 0x100 EXP SWAP1 DIV PUSH20 0xFFFFFFFFFFFFFFFFFFFFFFFFFFFFFFFFFFFFFFFF AND PUSH20 0xFFFFFFFFFFFFFFFFFFFFFFFFFFFFFFFFFFFFFFFF AND PUSH4 0x57A00CCF CALLER PUSH1 0x40 MLOAD DUP3 PUSH4 0xFFFFFFFF AND PUSH1 0xE0 SHL DUP2 MSTORE PUSH1 0x4 ADD PUSH2 0xE8F SWAP2 SWAP1 PUSH2 0x3EC4 JUMP JUMPDEST PUSH1 0x0 PUSH1 0x40 MLOAD DUP1 DUP4 SUB DUP2 DUP7 GAS STATICCALL ISZERO DUP1 ISZERO PUSH2 0xEAC JUMPI RETURNDATASIZE PUSH1 0x0 DUP1 RETURNDATACOPY RETURNDATASIZE PUSH1 0x0 REVERT JUMPDEST POP POP POP POP PUSH1 0x40 MLOAD RETURNDATASIZE PUSH1 0x0 DUP3 RETURNDATACOPY RETURNDATASIZE PUSH1 0x1F NOT PUSH1 0x1F DUP3 ADD AND DUP3 ADD DUP1 PUSH1 0x40 MSTORE POP DUP2 ADD SWAP1 PUSH2 0xED5 SWAP2 SWAP1 PUSH2 0x4DBD JUMP JUMPDEST PUSH1 0x0 ADD MLOAD SUB PUSH2 0xF10 JUMPI PUSH1 0x40 MLOAD PUSH32 0x1D65442900000000000000000000000000000000000000000000000000000000 DUP2 MSTORE PUSH1 0x4 ADD PUSH1 0x40 MLOAD DUP1 SWAP2 SUB SWAP1 REVERT JUMPDEST PUSH1 0xC PUSH1 0x0 SWAP1 SLOAD SWAP1 PUSH2 0x100 EXP SWAP1 DIV PUSH20 0xFFFFFFFFFFFFFFFFFFFFFFFFFFFFFFFFFFFFFFFF AND PUSH20 0xFFFFFFFFFFFFFFFFFFFFFFFFFFFFFFFFFFFFFFFF AND PUSH4 0xA735E5DE CALLER DUP12 DUP12 DUP12 DUP12 DUP12 DUP12 DUP12 PUSH1 0x40 MLOAD DUP10 PUSH4 0xFFFFFFFF AND PUSH1 0xE0 SHL DUP2 MSTORE PUSH1 0x4 ADD PUSH2 0xF79 SWAP9 SWAP8 SWAP7 SWAP6 SWAP5 SWAP4 SWAP3 SWAP2 SWAP1 PUSH2 0x4E33 JUMP JUMPDEST PUSH1 0x20 PUSH1 0x40 MLOAD DUP1 DUP4 SUB DUP2 PUSH1 0x0 DUP8 GAS CALL ISZERO DUP1 ISZERO PUSH2 0xF98 JUMPI RETURNDATASIZE PUSH1 0x0 DUP1 RETURNDATACOPY RETURNDATASIZE PUSH1 0x0 REVERT JUMPDEST POP POP POP POP PUSH1 0x40 MLOAD RETURNDATASIZE PUSH1 0x1F NOT PUSH1 0x1F DUP3 ADD AND DUP3 ADD DUP1 PUSH1 0x40 MSTORE POP DUP2 ADD SWAP1 PUSH2 0xFBC SWAP2 SWAP1 PUSH2 0x4A46 JUMP JUMPDEST POP PUSH32 0xC21195A7F73ACB0112D9942F6C5C02ACC3D8D2C74AB81A6C28F4F492DAC933B8 CALLER TIMESTAMP PUSH1 0x40 MLOAD PUSH2 0xFEE SWAP3 SWAP2 SWAP1 PUSH2 0x4A73 JUMP JUMPDEST PUSH1 0x40 MLOAD DUP1 SWAP2 SUB SWAP1 LOG1 PUSH1 0x1 SWAP2 POP POP SWAP8 SWAP7 POP POP POP POP POP POP POP JUMP JUMPDEST PUSH2 0x100F DUP3 PUSH2 0xCB5 JUMP JUMPDEST PUSH2 0x1018 DUP2 PUSH2 0x1F18 JUMP JUMPDEST PUSH2 0x1022 DUP4 DUP4 PUSH2 0x1F5C JUMP JUMPDEST POP POP POP POP JUMP JUMPDEST PUSH1 0x0 PUSH2 0x1033 DUP4 PUSH2 0x16E5 JUMP JUMPDEST DUP3 LT PUSH2 0x1078 JUMPI DUP3 DUP3 PUSH1 0x40 MLOAD PUSH32 0xA57D13DC00000000000000000000000000000000000000000000000000000000 DUP2 MSTORE PUSH1 0x4 ADD PUSH2 0x106F SWAP3 SWAP2 SWAP1 PUSH2 0x4A73 JUMP JUMPDEST PUSH1 0x40 MLOAD DUP1 SWAP2 SUB SWAP1 REVERT JUMPDEST PUSH1 0x7 PUSH1 0x0 DUP5 PUSH20 0xFFFFFFFFFFFFFFFFFFFFFFFFFFFFFFFFFFFFFFFF AND PUSH20 0xFFFFFFFFFFFFFFFFFFFFFFFFFFFFFFFFFFFFFFFF AND DUP2 MSTORE PUSH1 0x20 ADD SWAP1 DUP2 MSTORE PUSH1 0x20 ADD PUSH1 0x0 KECCAK256 PUSH1 0x0 DUP4 DUP2 MSTORE PUSH1 0x20 ADD SWAP1 DUP2 MSTORE PUSH1 0x20 ADD PUSH1 0x0 KECCAK256 SLOAD SWAP1 POP SWAP3 SWAP2 POP POP JUMP JUMPDEST PUSH2 0x10D9 PUSH2 0x1F2C JUMP JUMPDEST PUSH20 0xFFFFFFFFFFFFFFFFFFFFFFFFFFFFFFFFFFFFFFFF AND DUP2 PUSH20 0xFFFFFFFFFFFFFFFFFFFFFFFFFFFFFFFFFFFFFFFF AND EQ PUSH2 0x113D JUMPI PUSH1 0x40 MLOAD PUSH32 0x6697B23200000000000000000000000000000000000000000000000000000000 DUP2 MSTORE PUSH1 0x4 ADD PUSH1 0x40 MLOAD DUP1 SWAP2 SUB SWAP1 REVERT JUMPDEST PUSH2 0x1147 DUP3 DUP3 PUSH2 0x204D JUMP JUMPDEST POP POP POP JUMP JUMPDEST PUSH1 0x0 DUP1 PUSH1 0xB PUSH1 0x0 DUP2 SLOAD DUP1 SWAP3 SWAP2 SWAP1 PUSH2 0x1162 SWAP1 PUSH2 0x4ED0 JUMP JUMPDEST SWAP2 SWAP1 POP SSTORE SWAP1 POP PUSH2 0x1172 DUP4 DUP3 PUSH2 0x213F JUMP JUMPDEST DUP1 SWAP2 POP POP SWAP2 SWAP1 POP JUMP JUMPDEST PUSH1 0x0 PUSH32 0x61E6A4BB6BCA8AA1F17C71895C1AB1BF9C06C812442A0A16AAD9F0837C23CA79 PUSH2 0x11A7 DUP2 PUSH2 0x1F18 JUMP JUMPDEST PUSH1 0xC PUSH1 0x0 SWAP1 SLOAD SWAP1 PUSH2 0x100 EXP SWAP1 DIV PUSH20 0xFFFFFFFFFFFFFFFFFFFFFFFFFFFFFFFFFFFFFFFF AND PUSH20 0xFFFFFFFFFFFFFFFFFFFFFFFFFFFFFFFFFFFFFFFF AND PUSH4 0x64DF69E7 DUP15 DUP15 DUP15 DUP15 DUP15 DUP15 DUP15 DUP15 DUP15 DUP15 DUP15 PUSH1 0x40 MLOAD DUP13 PUSH4 0xFFFFFFFF AND PUSH1 0xE0 SHL DUP2 MSTORE PUSH1 0x4 ADD PUSH2 0x1216 SWAP12 SWAP11 SWAP10 SWAP9 SWAP8 SWAP7 SWAP6 SWAP5 SWAP4 SWAP3 SWAP2 SWAP1 PUSH2 0x50A9 JUMP JUMPDEST PUSH1 0x20 PUSH1 0x40 MLOAD DUP1 DUP4 SUB DUP2 PUSH1 0x0 DUP8 GAS CALL ISZERO DUP1 ISZERO PUSH2 0x1235 JUMPI RETURNDATASIZE PUSH1 0x0 DUP1 RETURNDATACOPY RETURNDATASIZE PUSH1 0x0 REVERT JUMPDEST POP POP POP POP PUSH1 0x40 MLOAD RETURNDATASIZE PUSH1 0x1F NOT PUSH1 0x1F DUP3 ADD AND DUP3 ADD DUP1 PUSH1 0x40 MSTORE POP DUP2 ADD SWAP1 PUSH2 0x1259 SWAP2 SWAP1 PUSH2 0x4A46 JUMP JUMPDEST POP PUSH2 0x1266 CALLER PUSH1 0xB SLOAD PUSH2 0x213F JUMP JUMPDEST PUSH1 0x1 SWAP2 POP POP SWAP12 SWAP11 POP POP POP POP POP POP POP POP POP POP POP JUMP JUMPDEST PUSH2 0x1295 DUP4 DUP4 DUP4 PUSH1 0x40 MLOAD DUP1 PUSH1 0x20 ADD PUSH1 0x40 MSTORE DUP1 PUSH1 0x0 DUP2 MSTORE POP PUSH2 0x1994 JUMP JUMPDEST POP POP POP JUMP JUMPDEST PUSH1 0x0 PUSH2 0x12A4 PUSH2 0xAEA JUMP JUMPDEST DUP3 LT PUSH2 0x12EA JUMPI PUSH1 0x0 DUP3 PUSH1 0x40 MLOAD PUSH32 0xA57D13DC00000000000000000000000000000000000000000000000000000000 DUP2 MSTORE PUSH1 0x4 ADD PUSH2 0x12E1 SWAP3 SWAP2 SWAP1 PUSH2 0x4A73 JUMP JUMPDEST PUSH1 0x40 MLOAD DUP1 SWAP2 SUB SWAP1 REVERT JUMPDEST PUSH1 0x9 DUP3 DUP2 SLOAD DUP2 LT PUSH2 0x12FE JUMPI PUSH2 0x12FD PUSH2 0x513C JUMP JUMPDEST JUMPDEST SWAP1 PUSH1 0x0 MSTORE PUSH1 0x20 PUSH1 0x0 KECCAK256 ADD SLOAD SWAP1 POP SWAP2 SWAP1 POP JUMP JUMPDEST PUSH1 0x0 DUP2 JUMP JUMPDEST PUSH1 0x0 PUSH2 0x1341 PUSH32 0xAF6786EFC154B345802554F1DEA27E60EA4C3393B6B38EB8438E22C20E088BD2 CALLER PUSH2 0x1840 JUMP JUMPDEST ISZERO PUSH2 0x1378 JUMPI PUSH1 0x40 MLOAD PUSH32 0x937DF23900000000000000000000000000000000000000000000000000000000 DUP2 MSTORE PUSH1 0x4 ADD PUSH1 0x40 MLOAD DUP1 SWAP2 SUB SWAP1 REVERT JUMPDEST PUSH2 0x13A2 PUSH32 0xAF6786EFC154B345802554F1DEA27E60EA4C3393B6B38EB8438E22C20E088BD2 CALLER PUSH2 0x1F5C JUMP JUMPDEST POP PUSH1 0xC PUSH1 0x0 SWAP1 SLOAD SWAP1 PUSH2 0x100 EXP SWAP1 DIV PUSH20 0xFFFFFFFFFFFFFFFFFFFFFFFFFFFFFFFFFFFFFFFF AND PUSH20 0xFFFFFFFFFFFFFFFFFFFFFFFFFFFFFFFFFFFFFFFF AND PUSH4 0xF6A3540 CALLER DUP10 DUP10 DUP10 DUP10 DUP10 DUP10 PUSH1 0x1 PUSH1 0x40 MLOAD DUP10 PUSH4 0xFFFFFFFF AND PUSH1 0xE0 SHL DUP2 MSTORE PUSH1 0x4 ADD PUSH2 0x140D SWAP9 SWAP8 SWAP7 SWAP6 SWAP5 SWAP4 SWAP3 SWAP2 SWAP1 PUSH2 0x4E33 JUMP JUMPDEST PUSH1 0x20 PUSH1 0x40 MLOAD DUP1 DUP4 SUB DUP2 PUSH1 0x0 DUP8 GAS CALL ISZERO DUP1 ISZERO PUSH2 0x142C JUMPI RETURNDATASIZE PUSH1 0x0 DUP1 RETURNDATACOPY RETURNDATASIZE PUSH1 0x0 REVERT JUMPDEST POP POP POP POP PUSH1 0x40 MLOAD RETURNDATASIZE PUSH1 0x1F NOT PUSH1 0x1F DUP3 ADD AND DUP3 ADD DUP1 PUSH1 0x40 MSTORE POP DUP2 ADD SWAP1 PUSH2 0x1450 SWAP2 SWAP1 PUSH2 0x4A46 JUMP JUMPDEST POP PUSH32 0x9355F2BA77852E61793679FF03CF26231B8175FDFB97DC47490F1B151E6AB0D4 CALLER TIMESTAMP PUSH1 0x40 MLOAD PUSH2 0x1482 SWAP3 SWAP2 SWAP1 PUSH2 0x4A73 JUMP JUMPDEST PUSH1 0x40 MLOAD DUP1 SWAP2 SUB SWAP1 LOG1 PUSH1 0x1 SWAP1 POP SWAP7 SWAP6 POP POP POP POP POP POP JUMP JUMPDEST PUSH1 0x0 PUSH2 0x14C4 PUSH32 0x61E6A4BB6BCA8AA1F17C71895C1AB1BF9C06C812442A0A16AAD9F0837C23CA79 CALLER PUSH2 0x1840 JUMP JUMPDEST ISZERO PUSH2 0x14FB JUMPI PUSH1 0x40 MLOAD PUSH32 0x9E5AE09300000000000000000000000000000000000000000000000000000000 DUP2 MSTORE PUSH1 0x4 ADD PUSH1 0x40 MLOAD DUP1 SWAP2 SUB SWAP1 REVERT JUMPDEST PUSH2 0x1525 PUSH32 0x61E6A4BB6BCA8AA1F17C71895C1AB1BF9C06C812442A0A16AAD9F0837C23CA79 CALLER PUSH2 0x1F5C JUMP JUMPDEST POP PUSH1 0xC PUSH1 0x0 SWAP1 SLOAD SWAP1 PUSH2 0x100 EXP SWAP1 DIV PUSH20 0xFFFFFFFFFFFFFFFFFFFFFFFFFFFFFFFFFFFFFFFF AND PUSH20 0xFFFFFFFFFFFFFFFFFFFFFFFFFFFFFFFFFFFFFFFF AND PUSH4 0x7208CA19 CALLER DUP10 DUP10 DUP10 DUP10 DUP10 DUP10 PUSH1 0x0 PUSH1 0x1 PUSH1 0x40 MLOAD DUP11 PUSH4 0xFFFFFFFF AND PUSH1 0xE0 SHL DUP2 MSTORE PUSH1 0x4 ADD PUSH2 0x1593 SWAP10 SWAP9 SWAP8 SWAP7 SWAP6 SWAP5 SWAP4 SWAP3 SWAP2 SWAP1 PUSH2 0x516B JUMP JUMPDEST PUSH1 0x20 PUSH1 0x40 MLOAD DUP1 DUP4 SUB DUP2 PUSH1 0x0 DUP8 GAS CALL ISZERO DUP1 ISZERO PUSH2 0x15B2 JUMPI RETURNDATASIZE PUSH1 0x0 DUP1 RETURNDATACOPY RETURNDATASIZE PUSH1 0x0 REVERT JUMPDEST POP POP POP POP PUSH1 0x40 MLOAD RETURNDATASIZE PUSH1 0x1F NOT PUSH1 0x1F DUP3 ADD AND DUP3 ADD DUP1 PUSH1 0x40 MSTORE POP DUP2 ADD SWAP1 PUSH2 0x15D6 SWAP2 SWAP1 PUSH2 0x4A46 JUMP JUMPDEST POP PUSH32 0xA12ABD8201760A4E094635A878D94E4E31EE41204057E1BA4081B4C8BA7DF8A8 CALLER TIMESTAMP PUSH1 0x40 MLOAD PUSH2 0x1608 SWAP3 SWAP2 SWAP1 PUSH2 0x4A73 JUMP JUMPDEST PUSH1 0x40 MLOAD DUP1 SWAP2 SUB SWAP1 LOG1 PUSH1 0x1 SWAP1 POP SWAP7 SWAP6 POP POP POP POP POP POP JUMP JUMPDEST PUSH2 0x1626 PUSH2 0x3C17 JUMP JUMPDEST PUSH1 0xC PUSH1 0x0 SWAP1 SLOAD SWAP1 PUSH2 0x100 EXP SWAP1 DIV PUSH20 0xFFFFFFFFFFFFFFFFFFFFFFFFFFFFFFFFFFFFFFFF AND PUSH20 0xFFFFFFFFFFFFFFFFFFFFFFFFFFFFFFFFFFFFFFFF AND PUSH4 0x57A00CCF DUP4 PUSH1 0x40 MLOAD DUP3 PUSH4 0xFFFFFFFF AND PUSH1 0xE0 SHL DUP2 MSTORE PUSH1 0x4 ADD PUSH2 0x1681 SWAP2 SWAP1 PUSH2 0x3EC4 JUMP JUMPDEST PUSH1 0x0 PUSH1 0x40 MLOAD DUP1 DUP4 SUB DUP2 DUP7 GAS STATICCALL ISZERO DUP1 ISZERO PUSH2 0x169E JUMPI RETURNDATASIZE PUSH1 0x0 DUP1 RETURNDATACOPY RETURNDATASIZE PUSH1 0x0 REVERT JUMPDEST POP POP POP POP PUSH1 0x40 MLOAD RETURNDATASIZE PUSH1 0x0 DUP3 RETURNDATACOPY RETURNDATASIZE PUSH1 0x1F NOT PUSH1 0x1F DUP3 ADD AND DUP3 ADD DUP1 PUSH1 0x40 MSTORE POP DUP2 ADD SWAP1 PUSH2 0x16C7 SWAP2 SWAP1 PUSH2 0x4DBD JUMP JUMPDEST SWAP1 POP SWAP2 SWAP1 POP JUMP JUMPDEST PUSH1 0x1 DUP2 JUMP JUMPDEST PUSH1 0x0 PUSH2 0x16DE DUP3 PUSH2 0x1E53 JUMP JUMPDEST SWAP1 POP SWAP2 SWAP1 POP JUMP JUMPDEST PUSH1 0x0 DUP1 PUSH20 0xFFFFFFFFFFFFFFFFFFFFFFFFFFFFFFFFFFFFFFFF AND DUP3 PUSH20 0xFFFFFFFFFFFFFFFFFFFFFFFFFFFFFFFFFFFFFFFF AND SUB PUSH2 0x1758 JUMPI PUSH1 0x0 PUSH1 0x40 MLOAD PUSH32 0x89C62B6400000000000000000000000000000000000000000000000000000000 DUP2 MSTORE PUSH1 0x4 ADD PUSH2 0x174F SWAP2 SWAP1 PUSH2 0x3EC4 JUMP JUMPDEST PUSH1 0x40 MLOAD DUP1 SWAP2 SUB SWAP1 REVERT JUMPDEST PUSH1 0x4 PUSH1 0x0 DUP4 PUSH20 0xFFFFFFFFFFFFFFFFFFFFFFFFFFFFFFFFFFFFFFFF AND PUSH20 0xFFFFFFFFFFFFFFFFFFFFFFFFFFFFFFFFFFFFFFFF AND DUP2 MSTORE PUSH1 0x20 ADD SWAP1 DUP2 MSTORE PUSH1 0x20 ADD PUSH1 0x0 KECCAK256 SLOAD SWAP1 POP SWAP2 SWAP1 POP JUMP JUMPDEST PUSH1 0x0 PUSH1 0x1 SWAP1 POP SWAP1 JUMP JUMPDEST PUSH1 0x0 PUSH1 0xC PUSH1 0x0 SWAP1 SLOAD SWAP1 PUSH2 0x100 EXP SWAP1 DIV PUSH20 0xFFFFFFFFFFFFFFFFFFFFFFFFFFFFFFFFFFFFFFFF AND PUSH20 0xFFFFFFFFFFFFFFFFFFFFFFFFFFFFFFFFFFFFFFFF AND PUSH4 0x8C271777 PUSH1 0x40 MLOAD DUP2 PUSH4 0xFFFFFFFF AND PUSH1 0xE0 SHL DUP2 MSTORE PUSH1 0x4 ADD PUSH1 0x20 PUSH1 0x40 MLOAD DUP1 DUP4 SUB DUP2 DUP7 GAS STATICCALL ISZERO DUP1 ISZERO PUSH2 0x1817 JUMPI RETURNDATASIZE PUSH1 0x0 DUP1 RETURNDATACOPY RETURNDATASIZE PUSH1 0x0 REVERT JUMPDEST POP POP POP POP PUSH1 0x40 MLOAD RETURNDATASIZE PUSH1 0x1F NOT PUSH1 0x1F DUP3 ADD AND DUP3 ADD DUP1 PUSH1 0x40 MSTORE POP DUP2 ADD SWAP1 PUSH2 0x183B SWAP2 SWAP1 PUSH2 0x4AB1 JUMP JUMPDEST SWAP1 POP SWAP1 JUMP JUMPDEST PUSH1 0x0 DUP1 PUSH1 0x0 DUP5 DUP2 MSTORE PUSH1 0x20 ADD SWAP1 DUP2 MSTORE PUSH1 0x20 ADD PUSH1 0x0 KECCAK256 PUSH1 0x0 ADD PUSH1 0x0 DUP4 PUSH20 0xFFFFFFFFFFFFFFFFFFFFFFFFFFFFFFFFFFFFFFFF AND PUSH20 0xFFFFFFFFFFFFFFFFFFFFFFFFFFFFFFFFFFFFFFFF AND DUP2 MSTORE PUSH1 0x20 ADD SWAP1 DUP2 MSTORE PUSH1 0x20 ADD PUSH1 0x0 KECCAK256 PUSH1 0x0 SWAP1 SLOAD SWAP1 PUSH2 0x100 EXP SWAP1 DIV PUSH1 0xFF AND SWAP1 POP SWAP3 SWAP2 POP POP JUMP JUMPDEST PUSH32 0x8C6AE1B8CAC4C99AC9B51BA2B44EC85E94139863FA8D7F1AB8F7E39763B3DB4E DUP2 JUMP JUMPDEST PUSH1 0x60 PUSH1 0x2 DUP1 SLOAD PUSH2 0x18DD SWAP1 PUSH2 0x4A00 JUMP JUMPDEST DUP1 PUSH1 0x1F ADD PUSH1 0x20 DUP1 SWAP2 DIV MUL PUSH1 0x20 ADD PUSH1 0x40 MLOAD SWAP1 DUP2 ADD PUSH1 0x40 MSTORE DUP1 SWAP3 SWAP2 SWAP1 DUP2 DUP2 MSTORE PUSH1 0x20 ADD DUP3 DUP1 SLOAD PUSH2 0x1909 SWAP1 PUSH2 0x4A00 JUMP JUMPDEST DUP1 ISZERO PUSH2 0x1956 JUMPI DUP1 PUSH1 0x1F LT PUSH2 0x192B JUMPI PUSH2 0x100 DUP1 DUP4 SLOAD DIV MUL DUP4 MSTORE SWAP2 PUSH1 0x20 ADD SWAP2 PUSH2 0x1956 JUMP JUMPDEST DUP3 ADD SWAP2 SWAP1 PUSH1 0x0 MSTORE PUSH1 0x20 PUSH1 0x0 KECCAK256 SWAP1 JUMPDEST DUP2 SLOAD DUP2 MSTORE SWAP1 PUSH1 0x1 ADD SWAP1 PUSH1 0x20 ADD DUP1 DUP4 GT PUSH2 0x1939 JUMPI DUP3 SWAP1 SUB PUSH1 0x1F AND DUP3 ADD SWAP2 JUMPDEST POP POP POP POP POP SWAP1 POP SWAP1 JUMP JUMPDEST PUSH1 0x0 DUP1 SHL DUP2 JUMP JUMPDEST PUSH2 0x1979 PUSH2 0x1972 PUSH2 0x1F2C JUMP JUMPDEST DUP4 DUP4 PUSH2 0x215D JUMP JUMPDEST POP POP JUMP JUMPDEST PUSH1 0x0 PUSH2 0x198A CALLER DUP5 DUP5 PUSH2 0x22CC JUMP JUMPDEST PUSH1 0x1 SWAP1 POP SWAP3 SWAP2 POP POP JUMP JUMPDEST PUSH2 0x199F DUP5 DUP5 DUP5 PUSH2 0xBB3 JUMP JUMPDEST PUSH2 0x19B3 PUSH2 0x19AA PUSH2 0x1F2C JUMP JUMPDEST DUP6 DUP6 DUP6 DUP6 PUSH2 0x2439 JUMP JUMPDEST POP POP POP POP JUMP JUMPDEST PUSH1 0x60 PUSH1 0x40 MLOAD DUP1 PUSH1 0x40 ADD PUSH1 0x40 MSTORE DUP1 PUSH1 0x1D DUP2 MSTORE PUSH1 0x20 ADD PUSH32 0x646174613A6170706C69636174696F6E2F6A736F6E3B6261736536342C000000 DUP2 MSTORE POP PUSH2 0x1A8E PUSH1 0x40 MLOAD DUP1 PUSH1 0x60 ADD PUSH1 0x40 MSTORE DUP1 PUSH1 0x25 DUP2 MSTORE PUSH1 0x20 ADD PUSH2 0x5D0A PUSH1 0x25 SWAP2 CODECOPY PUSH2 0x1A16 DUP6 PUSH2 0x25EA JUMP JUMPDEST PUSH2 0x1A1F DUP7 PUSH2 0x26B8 JUMP JUMPDEST PUSH2 0x1A30 PUSH2 0x1A2B DUP9 PUSH2 0x28DC JUMP JUMPDEST PUSH2 0x2C31 JUMP JUMPDEST PUSH1 0x40 MLOAD DUP1 PUSH1 0x40 ADD PUSH1 0x40 MSTORE DUP1 PUSH1 0x2 DUP2 MSTORE PUSH1 0x20 ADD PUSH32 0x227D000000000000000000000000000000000000000000000000000000000000 DUP2 MSTORE POP PUSH1 0x40 MLOAD PUSH1 0x20 ADD PUSH2 0x1A7A SWAP6 SWAP5 SWAP4 SWAP3 SWAP2 SWAP1 PUSH2 0x5223 JUMP JUMPDEST PUSH1 0x40 MLOAD PUSH1 0x20 DUP2 DUP4 SUB SUB DUP2 MSTORE SWAP1 PUSH1 0x40 MSTORE PUSH2 0x2C31 JUMP JUMPDEST PUSH1 0x40 MLOAD PUSH1 0x20 ADD PUSH2 0x1A9F SWAP3 SWAP2 SWAP1 PUSH2 0x526E JUMP JUMPDEST PUSH1 0x40 MLOAD PUSH1 0x20 DUP2 DUP4 SUB SUB DUP2 MSTORE SWAP1 PUSH1 0x40 MSTORE SWAP1 POP SWAP2 SWAP1 POP JUMP JUMPDEST PUSH2 0x1ABE DUP3 PUSH2 0xCB5 JUMP JUMPDEST PUSH2 0x1AC7 DUP2 PUSH2 0x1F18 JUMP JUMPDEST PUSH2 0x1AD1 DUP4 DUP4 PUSH2 0x204D JUMP JUMPDEST POP POP POP POP JUMP JUMPDEST PUSH1 0x0 PUSH1 0x6 PUSH1 0x0 DUP5 PUSH20 0xFFFFFFFFFFFFFFFFFFFFFFFFFFFFFFFFFFFFFFFF AND PUSH20 0xFFFFFFFFFFFFFFFFFFFFFFFFFFFFFFFFFFFFFFFF AND DUP2 MSTORE PUSH1 0x20 ADD SWAP1 DUP2 MSTORE PUSH1 0x20 ADD PUSH1 0x0 KECCAK256 PUSH1 0x0 DUP4 PUSH20 0xFFFFFFFFFFFFFFFFFFFFFFFFFFFFFFFFFFFFFFFF AND PUSH20 0xFFFFFFFFFFFFFFFFFFFFFFFFFFFFFFFFFFFFFFFF AND DUP2 MSTORE PUSH1 0x20 ADD SWAP1 DUP2 MSTORE PUSH1 0x20 ADD PUSH1 0x0 KECCAK256 PUSH1 0x0 SWAP1 SLOAD SWAP1 PUSH2 0x100 EXP SWAP1 DIV PUSH1 0xFF AND SWAP1 POP SWAP3 SWAP2 POP POP JUMP JUMPDEST PUSH2 0x1B73 PUSH2 0x3C60 JUMP JUMPDEST PUSH1 0xC PUSH1 0x0 SWAP1 SLOAD SWAP1 PUSH2 0x100 EXP SWAP1 DIV PUSH20 0xFFFFFFFFFFFFFFFFFFFFFFFFFFFFFFFFFFFFFFFF AND PUSH20 0xFFFFFFFFFFFFFFFFFFFFFFFFFFFFFFFFFFFFFFFF AND PUSH4 0xEE7BF0EE DUP4 PUSH1 0x40 MLOAD DUP3 PUSH4 0xFFFFFFFF AND PUSH1 0xE0 SHL DUP2 MSTORE PUSH1 0x4 ADD PUSH2 0x1BCE SWAP2 SWAP1 PUSH2 0x3EC4 JUMP JUMPDEST PUSH1 0x0 PUSH1 0x40 MLOAD DUP1 DUP4 SUB DUP2 DUP7 GAS STATICCALL ISZERO DUP1 ISZERO PUSH2 0x1BEB JUMPI RETURNDATASIZE PUSH1 0x0 DUP1 RETURNDATACOPY RETURNDATASIZE PUSH1 0x0 REVERT JUMPDEST POP POP POP POP PUSH1 0x40 MLOAD RETURNDATASIZE PUSH1 0x0 DUP3 RETURNDATACOPY RETURNDATASIZE PUSH1 0x1F NOT PUSH1 0x1F DUP3 ADD AND DUP3 ADD DUP1 PUSH1 0x40 MSTORE POP DUP2 ADD SWAP1 PUSH2 0x1C14 SWAP2 SWAP1 PUSH2 0x53B6 JUMP JUMPDEST SWAP1 POP SWAP2 SWAP1 POP JUMP JUMPDEST PUSH1 0x0 PUSH32 0xAF6786EFC154B345802554F1DEA27E60EA4C3393B6B38EB8438E22C20E088BD2 PUSH2 0x1C47 DUP2 PUSH2 0x1F18 JUMP JUMPDEST PUSH1 0x0 PUSH1 0xC PUSH1 0x0 SWAP1 SLOAD SWAP1 PUSH2 0x100 EXP SWAP1 DIV PUSH20 0xFFFFFFFFFFFFFFFFFFFFFFFFFFFFFFFFFFFFFFFF AND PUSH20 0xFFFFFFFFFFFFFFFFFFFFFFFFFFFFFFFFFFFFFFFF AND PUSH4 0xEE7BF0EE CALLER PUSH1 0x40 MLOAD DUP3 PUSH4 0xFFFFFFFF AND PUSH1 0xE0 SHL DUP2 MSTORE PUSH1 0x4 ADD PUSH2 0x1CA4 SWAP2 SWAP1 PUSH2 0x3EC4 JUMP JUMPDEST PUSH1 0x0 PUSH1 0x40 MLOAD DUP1 DUP4 SUB DUP2 DUP7 GAS STATICCALL ISZERO DUP1 ISZERO PUSH2 0x1CC1 JUMPI RETURNDATASIZE PUSH1 0x0 DUP1 RETURNDATACOPY RETURNDATASIZE PUSH1 0x0 REVERT JUMPDEST POP POP POP POP PUSH1 0x40 MLOAD RETURNDATASIZE PUSH1 0x0 DUP3 RETURNDATACOPY RETURNDATASIZE PUSH1 0x1F NOT PUSH1 0x1F DUP3 ADD AND DUP3 ADD DUP1 PUSH1 0x40 MSTORE POP DUP2 ADD SWAP1 PUSH2 0x1CEA SWAP2 SWAP1 PUSH2 0x53B6 JUMP JUMPDEST PUSH1 0x0 ADD MLOAD SUB PUSH2 0x1D25 JUMPI PUSH1 0x40 MLOAD PUSH32 0x4A46A71500000000000000000000000000000000000000000000000000000000 DUP2 MSTORE PUSH1 0x4 ADD PUSH1 0x40 MLOAD DUP1 SWAP2 SUB SWAP1 REVERT JUMPDEST PUSH1 0xC PUSH1 0x0 SWAP1 SLOAD SWAP1 PUSH2 0x100 EXP SWAP1 DIV PUSH20 0xFFFFFFFFFFFFFFFFFFFFFFFFFFFFFFFFFFFFFFFF AND PUSH20 0xFFFFFFFFFFFFFFFFFFFFFFFFFFFFFFFFFFFFFFFF AND PUSH4 0xDFD49F25 CALLER DUP12 DUP12 DUP12 DUP12 DUP12 DUP12 DUP12 PUSH1 0x40 MLOAD DUP10 PUSH4 0xFFFFFFFF AND PUSH1 0xE0 SHL DUP2 MSTORE PUSH1 0x4 ADD PUSH2 0x1D8E SWAP9 SWAP8 SWAP7 SWAP6 SWAP5 SWAP4 SWAP3 SWAP2 SWAP1 PUSH2 0x4E33 JUMP JUMPDEST PUSH1 0x20 PUSH1 0x40 MLOAD DUP1 DUP4 SUB DUP2 PUSH1 0x0 DUP8 GAS CALL ISZERO DUP1 ISZERO PUSH2 0x1DAD JUMPI RETURNDATASIZE PUSH1 0x0 DUP1 RETURNDATACOPY RETURNDATASIZE PUSH1 0x0 REVERT JUMPDEST POP POP POP POP PUSH1 0x40 MLOAD RETURNDATASIZE PUSH1 0x1F NOT PUSH1 0x1F DUP3 ADD AND DUP3 ADD DUP1 PUSH1 0x40 MSTORE POP DUP2 ADD SWAP1 PUSH2 0x1DD1 SWAP2 SWAP1 PUSH2 0x4A46 JUMP JUMPDEST POP PUSH32 0x3E981D6FD4C5BD91EF3F68CA28A36322130D52221AB7319AE700E4C417DCC8E3 CALLER TIMESTAMP PUSH1 0x40 MLOAD PUSH2 0x1E03 SWAP3 SWAP2 SWAP1 PUSH2 0x4A73 JUMP JUMPDEST PUSH1 0x40 MLOAD DUP1 SWAP2 SUB SWAP1 LOG1 PUSH1 0x1 SWAP2 POP POP SWAP8 SWAP7 POP POP POP POP POP POP POP JUMP JUMPDEST PUSH1 0xD PUSH1 0x0 SWAP1 SLOAD SWAP1 PUSH2 0x100 EXP SWAP1 DIV PUSH20 0xFFFFFFFFFFFFFFFFFFFFFFFFFFFFFFFFFFFFFFFF AND DUP2 JUMP JUMPDEST PUSH1 0x0 PUSH2 0x1E4C DUP3 PUSH2 0x2DC8 JUMP JUMPDEST SWAP1 POP SWAP2 SWAP1 POP JUMP JUMPDEST PUSH1 0x0 DUP1 PUSH2 0x1E5F DUP4 PUSH2 0x2E42 JUMP JUMPDEST SWAP1 POP PUSH1 0x0 PUSH20 0xFFFFFFFFFFFFFFFFFFFFFFFFFFFFFFFFFFFFFFFF AND DUP2 PUSH20 0xFFFFFFFFFFFFFFFFFFFFFFFFFFFFFFFFFFFFFFFF AND SUB PUSH2 0x1ED2 JUMPI DUP3 PUSH1 0x40 MLOAD PUSH32 0x7E27328900000000000000000000000000000000000000000000000000000000 DUP2 MSTORE PUSH1 0x4 ADD PUSH2 0x1EC9 SWAP2 SWAP1 PUSH2 0x3FBB JUMP JUMPDEST PUSH1 0x40 MLOAD DUP1 SWAP2 SUB SWAP1 REVERT JUMPDEST DUP1 SWAP2 POP POP SWAP2 SWAP1 POP JUMP JUMPDEST PUSH1 0x0 PUSH1 0x5 PUSH1 0x0 DUP4 DUP2 MSTORE PUSH1 0x20 ADD SWAP1 DUP2 MSTORE PUSH1 0x20 ADD PUSH1 0x0 KECCAK256 PUSH1 0x0 SWAP1 SLOAD SWAP1 PUSH2 0x100 EXP SWAP1 DIV PUSH20 0xFFFFFFFFFFFFFFFFFFFFFFFFFFFFFFFFFFFFFFFF AND SWAP1 POP SWAP2 SWAP1 POP JUMP JUMPDEST PUSH2 0x1F29 DUP2 PUSH2 0x1F24 PUSH2 0x1F2C JUMP JUMPDEST PUSH2 0x2E7F JUMP JUMPDEST POP JUMP JUMPDEST PUSH1 0x0 CALLER SWAP1 POP SWAP1 JUMP JUMPDEST PUSH2 0x1F41 DUP4 DUP4 DUP4 PUSH1 0x1 PUSH2 0x2ED0 JUMP JUMPDEST POP POP POP JUMP JUMPDEST PUSH1 0x0 PUSH2 0x1F53 DUP5 DUP5 DUP5 PUSH2 0x3095 JUMP JUMPDEST SWAP1 POP SWAP4 SWAP3 POP POP POP JUMP JUMPDEST PUSH1 0x0 PUSH2 0x1F68 DUP4 DUP4 PUSH2 0x1840 JUMP JUMPDEST PUSH2 0x2042 JUMPI PUSH1 0x1 PUSH1 0x0 DUP1 DUP6 DUP2 MSTORE PUSH1 0x20 ADD SWAP1 DUP2 MSTORE PUSH1 0x20 ADD PUSH1 0x0 KECCAK256 PUSH1 0x0 ADD PUSH1 0x0 DUP5 PUSH20 0xFFFFFFFFFFFFFFFFFFFFFFFFFFFFFFFFFFFFFFFF AND PUSH20 0xFFFFFFFFFFFFFFFFFFFFFFFFFFFFFFFFFFFFFFFF AND DUP2 MSTORE PUSH1 0x20 ADD SWAP1 DUP2 MSTORE PUSH1 0x20 ADD PUSH1 0x0 KECCAK256 PUSH1 0x0 PUSH2 0x100 EXP DUP2 SLOAD DUP2 PUSH1 0xFF MUL NOT AND SWAP1 DUP4 ISZERO ISZERO MUL OR SWAP1 SSTORE POP PUSH2 0x1FDF PUSH2 0x1F2C JUMP JUMPDEST PUSH20 0xFFFFFFFFFFFFFFFFFFFFFFFFFFFFFFFFFFFFFFFF AND DUP3 PUSH20 0xFFFFFFFFFFFFFFFFFFFFFFFFFFFFFFFFFFFFFFFF AND DUP5 PUSH32 0x2F8788117E7EFF1D82E926EC794901D17C78024A50270940304540A733656F0D PUSH1 0x40 MLOAD PUSH1 0x40 MLOAD DUP1 SWAP2 SUB SWAP1 LOG4 PUSH1 0x1 SWAP1 POP PUSH2 0x2047 JUMP JUMPDEST PUSH1 0x0 SWAP1 POP JUMPDEST SWAP3 SWAP2 POP POP JUMP JUMPDEST PUSH1 0x0 PUSH2 0x2059 DUP4 DUP4 PUSH2 0x1840 JUMP JUMPDEST ISZERO PUSH2 0x2134 JUMPI PUSH1 0x0 DUP1 PUSH1 0x0 DUP6 DUP2 MSTORE PUSH1 0x20 ADD SWAP1 DUP2 MSTORE PUSH1 0x20 ADD PUSH1 0x0 KECCAK256 PUSH1 0x0 ADD PUSH1 0x0 DUP5 PUSH20 0xFFFFFFFFFFFFFFFFFFFFFFFFFFFFFFFFFFFFFFFF AND PUSH20 0xFFFFFFFFFFFFFFFFFFFFFFFFFFFFFFFFFFFFFFFF AND DUP2 MSTORE PUSH1 0x20 ADD SWAP1 DUP2 MSTORE PUSH1 0x20 ADD PUSH1 0x0 KECCAK256 PUSH1 0x0 PUSH2 0x100 EXP DUP2 SLOAD DUP2 PUSH1 0xFF MUL NOT AND SWAP1 DUP4 ISZERO ISZERO MUL OR SWAP1 SSTORE POP PUSH2 0x20D1 PUSH2 0x1F2C JUMP JUMPDEST PUSH20 0xFFFFFFFFFFFFFFFFFFFFFFFFFFFFFFFFFFFFFFFF AND DUP3 PUSH20 0xFFFFFFFFFFFFFFFFFFFFFFFFFFFFFFFFFFFFFFFF AND DUP5 PUSH32 0xF6391F5C32D9C69D2A47EA670B442974B53935D1EDC7FD64EB21E047A839171B PUSH1 0x40 MLOAD PUSH1 0x40 MLOAD DUP1 SWAP2 SUB SWAP1 LOG4 PUSH1 0x1 SWAP1 POP PUSH2 0x2139 JUMP JUMPDEST PUSH1 0x0 SWAP1 POP JUMPDEST SWAP3 SWAP2 POP POP JUMP JUMPDEST PUSH2 0x2159 DUP3 DUP3 PUSH1 0x40 MLOAD DUP1 PUSH1 0x20 ADD PUSH1 0x40 MSTORE DUP1 PUSH1 0x0 DUP2 MSTORE POP PUSH2 0x31B2 JUMP JUMPDEST POP POP JUMP JUMPDEST PUSH1 0x0 PUSH20 0xFFFFFFFFFFFFFFFFFFFFFFFFFFFFFFFFFFFFFFFF AND DUP3 PUSH20 0xFFFFFFFFFFFFFFFFFFFFFFFFFFFFFFFFFFFFFFFF AND SUB PUSH2 0x21CE JUMPI DUP2 PUSH1 0x40 MLOAD PUSH32 0x5B08BA1800000000000000000000000000000000000000000000000000000000 DUP2 MSTORE PUSH1 0x4 ADD PUSH2 0x21C5 SWAP2 SWAP1 PUSH2 0x3EC4 JUMP JUMPDEST PUSH1 0x40 MLOAD DUP1 SWAP2 SUB SWAP1 REVERT JUMPDEST DUP1 PUSH1 0x6 PUSH1 0x0 DUP6 PUSH20 0xFFFFFFFFFFFFFFFFFFFFFFFFFFFFFFFFFFFFFFFF AND PUSH20 0xFFFFFFFFFFFFFFFFFFFFFFFFFFFFFFFFFFFFFFFF AND DUP2 MSTORE PUSH1 0x20 ADD SWAP1 DUP2 MSTORE PUSH1 0x20 ADD PUSH1 0x0 KECCAK256 PUSH1 0x0 DUP5 PUSH20 0xFFFFFFFFFFFFFFFFFFFFFFFFFFFFFFFFFFFFFFFF AND PUSH20 0xFFFFFFFFFFFFFFFFFFFFFFFFFFFFFFFFFFFFFFFF AND DUP2 MSTORE PUSH1 0x20 ADD SWAP1 DUP2 MSTORE PUSH1 0x20 ADD PUSH1 0x0 KECCAK256 PUSH1 0x0 PUSH2 0x100 EXP DUP2 SLOAD DUP2 PUSH1 0xFF MUL NOT AND SWAP1 DUP4 ISZERO ISZERO MUL OR SWAP1 SSTORE POP DUP2 PUSH20 0xFFFFFFFFFFFFFFFFFFFFFFFFFFFFFFFFFFFFFFFF AND DUP4 PUSH20 0xFFFFFFFFFFFFFFFFFFFFFFFFFFFFFFFFFFFFFFFF AND PUSH32 0x17307EAB39AB6107E8899845AD3D59BD9653F200F220920489CA2B5937696C31 DUP4 PUSH1 0x40 MLOAD PUSH2 0x22BF SWAP2 SWAP1 PUSH2 0x3D53 JUMP JUMPDEST PUSH1 0x40 MLOAD DUP1 SWAP2 SUB SWAP1 LOG3 POP POP POP JUMP JUMPDEST PUSH1 0x0 PUSH20 0xFFFFFFFFFFFFFFFFFFFFFFFFFFFFFFFFFFFFFFFF AND DUP3 PUSH20 0xFFFFFFFFFFFFFFFFFFFFFFFFFFFFFFFFFFFFFFFF AND SUB PUSH2 0x233E JUMPI PUSH1 0x0 PUSH1 0x40 MLOAD PUSH32 0x64A0AE9200000000000000000000000000000000000000000000000000000000 DUP2 MSTORE PUSH1 0x4 ADD PUSH2 0x2335 SWAP2 SWAP1 PUSH2 0x3EC4 JUMP JUMPDEST PUSH1 0x40 MLOAD DUP1 SWAP2 SUB SWAP1 REVERT JUMPDEST PUSH1 0x0 PUSH2 0x234C DUP4 DUP4 PUSH1 0x0 PUSH2 0x1F46 JUMP JUMPDEST SWAP1 POP PUSH1 0x0 PUSH20 0xFFFFFFFFFFFFFFFFFFFFFFFFFFFFFFFFFFFFFFFF AND DUP2 PUSH20 0xFFFFFFFFFFFFFFFFFFFFFFFFFFFFFFFFFFFFFFFF AND SUB PUSH2 0x23BF JUMPI DUP2 PUSH1 0x40 MLOAD PUSH32 0x7E27328900000000000000000000000000000000000000000000000000000000 DUP2 MSTORE PUSH1 0x4 ADD PUSH2 0x23B6 SWAP2 SWAP1 PUSH2 0x3FBB JUMP JUMPDEST PUSH1 0x40 MLOAD DUP1 SWAP2 SUB SWAP1 REVERT JUMPDEST DUP4 PUSH20 0xFFFFFFFFFFFFFFFFFFFFFFFFFFFFFFFFFFFFFFFF AND DUP2 PUSH20 0xFFFFFFFFFFFFFFFFFFFFFFFFFFFFFFFFFFFFFFFF AND EQ PUSH2 0x2433 JUMPI DUP4 DUP3 DUP3 PUSH1 0x40 MLOAD PUSH32 0x64283D7B00000000000000000000000000000000000000000000000000000000 DUP2 MSTORE PUSH1 0x4 ADD PUSH2 0x242A SWAP4 SWAP3 SWAP2 SWAP1 PUSH2 0x4ADE JUMP JUMPDEST PUSH1 0x40 MLOAD DUP1 SWAP2 SUB SWAP1 REVERT JUMPDEST POP POP POP POP JUMP JUMPDEST PUSH1 0x0 DUP4 PUSH20 0xFFFFFFFFFFFFFFFFFFFFFFFFFFFFFFFFFFFFFFFF AND EXTCODESIZE GT ISZERO PUSH2 0x25E3 JUMPI DUP3 PUSH20 0xFFFFFFFFFFFFFFFFFFFFFFFFFFFFFFFFFFFFFFFF AND PUSH4 0x150B7A02 DUP7 DUP7 DUP6 DUP6 PUSH1 0x40 MLOAD DUP6 PUSH4 0xFFFFFFFF AND PUSH1 0xE0 SHL DUP2 MSTORE PUSH1 0x4 ADD PUSH2 0x2498 SWAP5 SWAP4 SWAP3 SWAP2 SWAP1 PUSH2 0x5454 JUMP JUMPDEST PUSH1 0x20 PUSH1 0x40 MLOAD DUP1 DUP4 SUB DUP2 PUSH1 0x0 DUP8 GAS CALL SWAP3 POP POP POP DUP1 ISZERO PUSH2 0x24D4 JUMPI POP PUSH1 0x40 MLOAD RETURNDATASIZE PUSH1 0x1F NOT PUSH1 0x1F DUP3 ADD AND DUP3 ADD DUP1 PUSH1 0x40 MSTORE POP DUP2 ADD SWAP1 PUSH2 0x24D1 SWAP2 SWAP1 PUSH2 0x54B5 JUMP JUMPDEST PUSH1 0x1 JUMPDEST PUSH2 0x2558 JUMPI RETURNDATASIZE DUP1 PUSH1 0x0 DUP2 EQ PUSH2 0x2504 JUMPI PUSH1 0x40 MLOAD SWAP2 POP PUSH1 0x1F NOT PUSH1 0x3F RETURNDATASIZE ADD AND DUP3 ADD PUSH1 0x40 MSTORE RETURNDATASIZE DUP3 MSTORE RETURNDATASIZE PUSH1 0x0 PUSH1 0x20 DUP5 ADD RETURNDATACOPY PUSH2 0x2509 JUMP JUMPDEST PUSH1 0x60 SWAP2 POP JUMPDEST POP PUSH1 0x0 DUP2 MLOAD SUB PUSH2 0x2550 JUMPI DUP4 PUSH1 0x40 MLOAD PUSH32 0x64A0AE9200000000000000000000000000000000000000000000000000000000 DUP2 MSTORE PUSH1 0x4 ADD PUSH2 0x2547 SWAP2 SWAP1 PUSH2 0x3EC4 JUMP JUMPDEST PUSH1 0x40 MLOAD DUP1 SWAP2 SUB SWAP1 REVERT JUMPDEST DUP1 MLOAD DUP2 PUSH1 0x20 ADD REVERT JUMPDEST PUSH4 0x150B7A02 PUSH1 0xE0 SHL PUSH28 0xFFFFFFFFFFFFFFFFFFFFFFFFFFFFFFFFFFFFFFFFFFFFFFFFFFFFFFFF NOT AND DUP2 PUSH28 0xFFFFFFFFFFFFFFFFFFFFFFFFFFFFFFFFFFFFFFFFFFFFFFFFFFFFFFFF NOT AND EQ PUSH2 0x25E1 JUMPI DUP4 PUSH1 0x40 MLOAD PUSH32 0x64A0AE9200000000000000000000000000000000000000000000000000000000 DUP2 MSTORE PUSH1 0x4 ADD PUSH2 0x25D8 SWAP2 SWAP1 PUSH2 0x3EC4 JUMP JUMPDEST PUSH1 0x40 MLOAD DUP1 SWAP2 SUB SWAP1 REVERT JUMPDEST POP JUMPDEST POP POP POP POP POP JUMP JUMPDEST PUSH1 0x60 PUSH1 0x0 PUSH1 0x1 PUSH2 0x25F9 DUP5 PUSH2 0x31D6 JUMP JUMPDEST ADD SWAP1 POP PUSH1 0x0 DUP2 PUSH8 0xFFFFFFFFFFFFFFFF DUP2 GT ISZERO PUSH2 0x2618 JUMPI PUSH2 0x2617 PUSH2 0x4710 JUMP JUMPDEST JUMPDEST PUSH1 0x40 MLOAD SWAP1 DUP1 DUP3 MSTORE DUP1 PUSH1 0x1F ADD PUSH1 0x1F NOT AND PUSH1 0x20 ADD DUP3 ADD PUSH1 0x40 MSTORE DUP1 ISZERO PUSH2 0x264A JUMPI DUP2 PUSH1 0x20 ADD PUSH1 0x1 DUP3 MUL DUP1 CALLDATASIZE DUP4 CALLDATACOPY DUP1 DUP3 ADD SWAP2 POP POP SWAP1 POP JUMPDEST POP SWAP1 POP PUSH1 0x0 DUP3 PUSH1 0x20 ADD DUP3 ADD SWAP1 POP JUMPDEST PUSH1 0x1 ISZERO PUSH2 0x26AD JUMPI DUP1 DUP1 PUSH1 0x1 SWAP1 SUB SWAP2 POP POP PUSH32 0x3031323334353637383961626364656600000000000000000000000000000000 PUSH1 0xA DUP7 MOD BYTE DUP2 MSTORE8 PUSH1 0xA DUP6 DUP2 PUSH2 0x26A1 JUMPI PUSH2 0x26A0 PUSH2 0x54E2 JUMP JUMPDEST JUMPDEST DIV SWAP5 POP PUSH1 0x0 DUP6 SUB PUSH2 0x2658 JUMPI JUMPDEST DUP2 SWAP4 POP POP POP POP SWAP2 SWAP1 POP JUMP JUMPDEST PUSH1 0x60 PUSH1 0x0 PUSH1 0x40 MLOAD DUP1 PUSH1 0x60 ADD PUSH1 0x40 MSTORE DUP1 PUSH1 0x39 DUP2 MSTORE PUSH1 0x20 ADD PUSH2 0x58DF PUSH1 0x39 SWAP2 CODECOPY PUSH1 0x40 MLOAD DUP1 PUSH1 0x40 ADD PUSH1 0x40 MSTORE DUP1 PUSH1 0x9 DUP2 MSTORE PUSH1 0x20 ADD PUSH32 0x42696A6F75746965720000000000000000000000000000000000000000000000 DUP2 MSTORE POP PUSH1 0x40 MLOAD DUP1 PUSH1 0x60 ADD PUSH1 0x40 MSTORE DUP1 PUSH1 0x2B DUP2 MSTORE PUSH1 0x20 ADD PUSH2 0x5AFA PUSH1 0x2B SWAP2 CODECOPY PUSH1 0x40 MLOAD DUP1 PUSH1 0x40 ADD PUSH1 0x40 MSTORE DUP1 PUSH1 0x6 DUP2 MSTORE PUSH1 0x20 ADD PUSH32 0x4F72203234630000000000000000000000000000000000000000000000000000 DUP2 MSTORE POP PUSH1 0x40 MLOAD DUP1 PUSH1 0x60 ADD PUSH1 0x40 MSTORE DUP1 PUSH1 0x2C DUP2 MSTORE PUSH1 0x20 ADD PUSH2 0x5D5E PUSH1 0x2C SWAP2 CODECOPY PUSH1 0x40 MLOAD DUP1 PUSH1 0x40 ADD PUSH1 0x40 MSTORE DUP1 PUSH1 0x7 DUP2 MSTORE PUSH1 0x20 ADD PUSH32 0x4469616D616E7400000000000000000000000000000000000000000000000000 DUP2 MSTORE POP PUSH1 0x40 MLOAD PUSH1 0x20 ADD PUSH2 0x27BE SWAP7 SWAP6 SWAP5 SWAP4 SWAP3 SWAP2 SWAP1 PUSH2 0x5511 JUMP JUMPDEST PUSH1 0x40 MLOAD PUSH1 0x20 DUP2 DUP4 SUB SUB DUP2 MSTORE SWAP1 PUSH1 0x40 MSTORE SWAP1 POP DUP1 PUSH1 0x40 MLOAD DUP1 PUSH1 0x60 ADD PUSH1 0x40 MSTORE DUP1 PUSH1 0x2C DUP2 MSTORE PUSH1 0x20 ADD PUSH2 0x5841 PUSH1 0x2C SWAP2 CODECOPY PUSH2 0x27F7 PUSH1 0x8 PUSH2 0xFFFF AND PUSH2 0x25EA JUMP JUMPDEST PUSH1 0x40 MLOAD DUP1 PUSH1 0x60 ADD PUSH1 0x40 MSTORE DUP1 PUSH1 0x28 DUP2 MSTORE PUSH1 0x20 ADD PUSH2 0x57CC PUSH1 0x28 SWAP2 CODECOPY PUSH1 0x40 MLOAD DUP1 PUSH1 0x40 ADD PUSH1 0x40 MSTORE DUP1 PUSH1 0x4 DUP2 MSTORE PUSH1 0x20 ADD PUSH32 0x50696E6B00000000000000000000000000000000000000000000000000000000 DUP2 MSTORE POP PUSH1 0x40 MLOAD DUP1 PUSH1 0x60 ADD PUSH1 0x40 MSTORE DUP1 PUSH1 0x2F DUP2 MSTORE PUSH1 0x20 ADD PUSH2 0x5D2F PUSH1 0x2F SWAP2 CODECOPY PUSH1 0x40 MLOAD DUP1 PUSH1 0x40 ADD PUSH1 0x40 MSTORE DUP1 PUSH1 0x7 DUP2 MSTORE PUSH1 0x20 ADD PUSH32 0x515220436F646500000000000000000000000000000000000000000000000000 DUP2 MSTORE POP PUSH1 0x40 MLOAD DUP1 PUSH1 0x60 ADD PUSH1 0x40 MSTORE DUP1 PUSH1 0x28 DUP2 MSTORE PUSH1 0x20 ADD PUSH2 0x574D PUSH1 0x28 SWAP2 CODECOPY PUSH1 0x40 MLOAD PUSH1 0x20 ADD PUSH2 0x28C5 SWAP9 SWAP8 SWAP7 SWAP6 SWAP5 SWAP4 SWAP3 SWAP2 SWAP1 PUSH2 0x5569 JUMP JUMPDEST PUSH1 0x40 MLOAD PUSH1 0x20 DUP2 DUP4 SUB SUB DUP2 MSTORE SWAP1 PUSH1 0x40 MSTORE SWAP2 POP POP SWAP2 SWAP1 POP JUMP JUMPDEST PUSH1 0x60 PUSH1 0x0 PUSH1 0x40 MLOAD PUSH1 0x20 ADD PUSH1 0x40 MLOAD PUSH1 0x20 DUP2 DUP4 SUB SUB DUP2 MSTORE SWAP1 PUSH1 0x40 MSTORE SWAP1 POP PUSH1 0x40 MLOAD DUP1 PUSH1 0x80 ADD PUSH1 0x40 MSTORE DUP1 PUSH1 0x57 DUP2 MSTORE PUSH1 0x20 ADD PUSH2 0x5775 PUSH1 0x57 SWAP2 CODECOPY PUSH1 0x40 MLOAD DUP1 PUSH1 0xA0 ADD PUSH1 0x40 MSTORE DUP1 PUSH1 0x6E DUP2 MSTORE PUSH1 0x20 ADD PUSH2 0x5994 PUSH1 0x6E SWAP2 CODECOPY PUSH1 0x40 MLOAD DUP1 PUSH1 0xA0 ADD PUSH1 0x40 MSTORE DUP1 PUSH1 0x79 DUP2 MSTORE PUSH1 0x20 ADD PUSH2 0x5C2B PUSH1 0x79 SWAP2 CODECOPY PUSH1 0x40 MLOAD DUP1 PUSH1 0x40 ADD PUSH1 0x40 MSTORE DUP1 PUSH1 0x17 DUP2 MSTORE PUSH1 0x20 ADD PUSH32 0x43657274696669636174204E46542064652042696A6F75000000000000000000 DUP2 MSTORE POP PUSH1 0x40 MLOAD DUP1 PUSH1 0x40 ADD PUSH1 0x40 MSTORE DUP1 PUSH1 0x7 DUP2 MSTORE PUSH1 0x20 ADD PUSH32 0x3C2F746578743E00000000000000000000000000000000000000000000000000 DUP2 MSTORE POP PUSH1 0x40 MLOAD PUSH1 0x20 ADD PUSH2 0x29C2 SWAP6 SWAP5 SWAP4 SWAP3 SWAP2 SWAP1 PUSH2 0x5223 JUMP JUMPDEST PUSH1 0x40 MLOAD PUSH1 0x20 DUP2 DUP4 SUB SUB DUP2 MSTORE SWAP1 PUSH1 0x40 MSTORE SWAP1 POP DUP1 PUSH1 0x40 MLOAD DUP1 PUSH1 0x80 ADD PUSH1 0x40 MSTORE DUP1 PUSH1 0x5D DUP2 MSTORE PUSH1 0x20 ADD PUSH2 0x5B25 PUSH1 0x5D SWAP2 CODECOPY PUSH1 0x40 MLOAD DUP1 PUSH1 0x80 ADD PUSH1 0x40 MSTORE DUP1 PUSH1 0x5C DUP2 MSTORE PUSH1 0x20 ADD PUSH2 0x5B82 PUSH1 0x5C SWAP2 CODECOPY PUSH1 0x40 MLOAD DUP1 PUSH1 0xA0 ADD PUSH1 0x40 MSTORE DUP1 PUSH1 0x72 DUP2 MSTORE PUSH1 0x20 ADD PUSH2 0x586D PUSH1 0x72 SWAP2 CODECOPY PUSH1 0x40 MLOAD DUP1 PUSH1 0x80 ADD PUSH1 0x40 MSTORE DUP1 PUSH1 0x4D DUP2 MSTORE PUSH1 0x20 ADD PUSH2 0x5A6D PUSH1 0x4D SWAP2 CODECOPY PUSH1 0x40 MLOAD PUSH1 0x20 ADD PUSH2 0x2A4C SWAP6 SWAP5 SWAP4 SWAP3 SWAP2 SWAP1 PUSH2 0x5223 JUMP JUMPDEST PUSH1 0x40 MLOAD PUSH1 0x20 DUP2 DUP4 SUB SUB DUP2 MSTORE SWAP1 PUSH1 0x40 MSTORE SWAP1 POP DUP1 PUSH1 0x40 MLOAD DUP1 PUSH1 0x80 ADD PUSH1 0x40 MSTORE DUP1 PUSH1 0x4D DUP2 MSTORE PUSH1 0x20 ADD PUSH2 0x57F4 PUSH1 0x4D SWAP2 CODECOPY PUSH1 0x40 MLOAD DUP1 PUSH1 0x80 ADD PUSH1 0x40 MSTORE DUP1 PUSH1 0x4D DUP2 MSTORE PUSH1 0x20 ADD PUSH2 0x5BDE PUSH1 0x4D SWAP2 CODECOPY PUSH1 0x40 MLOAD DUP1 PUSH1 0xA0 ADD PUSH1 0x40 MSTORE DUP1 PUSH1 0x7C DUP2 MSTORE PUSH1 0x20 ADD PUSH2 0x5918 PUSH1 0x7C SWAP2 CODECOPY PUSH1 0x40 MLOAD DUP1 PUSH1 0x40 ADD PUSH1 0x40 MSTORE DUP1 PUSH1 0x9 DUP2 MSTORE PUSH1 0x20 ADD PUSH32 0x476F6C64436861696E0000000000000000000000000000000000000000000000 DUP2 MSTORE POP PUSH1 0x40 MLOAD PUSH1 0x20 ADD PUSH2 0x2AF3 SWAP6 SWAP5 SWAP4 SWAP3 SWAP2 SWAP1 PUSH2 0x5223 JUMP JUMPDEST PUSH1 0x40 MLOAD PUSH1 0x20 DUP2 DUP4 SUB SUB DUP2 MSTORE SWAP1 PUSH1 0x40 MSTORE SWAP1 POP DUP1 PUSH1 0x40 MLOAD DUP1 PUSH1 0x40 ADD PUSH1 0x40 MSTORE DUP1 PUSH1 0x7 DUP2 MSTORE PUSH1 0x20 ADD PUSH32 0x3C2F746578743E00000000000000000000000000000000000000000000000000 DUP2 MSTORE POP PUSH1 0x40 MLOAD DUP1 PUSH1 0xA0 ADD PUSH1 0x40 MSTORE DUP1 PUSH1 0x6B DUP2 MSTORE PUSH1 0x20 ADD PUSH2 0x5A02 PUSH1 0x6B SWAP2 CODECOPY PUSH1 0x40 MLOAD DUP1 PUSH1 0xA0 ADD PUSH1 0x40 MSTORE DUP1 PUSH1 0x66 DUP2 MSTORE PUSH1 0x20 ADD PUSH2 0x5CA4 PUSH1 0x66 SWAP2 CODECOPY PUSH1 0x40 MLOAD PUSH1 0x20 ADD PUSH2 0x2B80 SWAP5 SWAP4 SWAP3 SWAP2 SWAP1 PUSH2 0x55DB JUMP JUMPDEST PUSH1 0x40 MLOAD PUSH1 0x20 DUP2 DUP4 SUB SUB DUP2 MSTORE SWAP1 PUSH1 0x40 MSTORE SWAP1 POP DUP1 PUSH1 0x40 MLOAD DUP1 PUSH1 0x40 ADD PUSH1 0x40 MSTORE DUP1 PUSH1 0x7 DUP2 MSTORE PUSH1 0x20 ADD PUSH32 0x3C2F746578743E00000000000000000000000000000000000000000000000000 DUP2 MSTORE POP PUSH2 0x2BD1 DUP6 PUSH2 0x25EA JUMP JUMPDEST PUSH1 0x40 MLOAD DUP1 PUSH1 0x40 ADD PUSH1 0x40 MSTORE DUP1 PUSH1 0x6 DUP2 MSTORE PUSH1 0x20 ADD PUSH32 0x3C2F7376673E0000000000000000000000000000000000000000000000000000 DUP2 MSTORE POP PUSH1 0x40 MLOAD PUSH1 0x20 ADD PUSH2 0x2C1A SWAP5 SWAP4 SWAP3 SWAP2 SWAP1 PUSH2 0x55DB JUMP JUMPDEST PUSH1 0x40 MLOAD PUSH1 0x20 DUP2 DUP4 SUB SUB DUP2 MSTORE SWAP1 PUSH1 0x40 MSTORE SWAP2 POP POP SWAP2 SWAP1 POP JUMP JUMPDEST PUSH1 0x60 PUSH1 0x0 DUP3 MLOAD SWAP1 POP PUSH1 0x0 DUP2 SUB PUSH2 0x2C59 JUMPI PUSH1 0x40 MLOAD DUP1 PUSH1 0x20 ADD PUSH1 0x40 MSTORE DUP1 PUSH1 0x0 DUP2 MSTORE POP SWAP2 POP POP PUSH2 0x2DC3 JUMP JUMPDEST PUSH1 0x0 PUSH1 0x3 PUSH1 0x2 DUP4 PUSH2 0x2C6A SWAP2 SWAP1 PUSH2 0x5619 JUMP JUMPDEST PUSH2 0x2C74 SWAP2 SWAP1 PUSH2 0x564D JUMP JUMPDEST PUSH1 0x4 PUSH2 0x2C80 SWAP2 SWAP1 PUSH2 0x567E JUMP JUMPDEST SWAP1 POP PUSH1 0x0 PUSH1 0x20 DUP3 PUSH2 0x2C91 SWAP2 SWAP1 PUSH2 0x5619 JUMP JUMPDEST PUSH8 0xFFFFFFFFFFFFFFFF DUP2 GT ISZERO PUSH2 0x2CAA JUMPI PUSH2 0x2CA9 PUSH2 0x4710 JUMP JUMPDEST JUMPDEST PUSH1 0x40 MLOAD SWAP1 DUP1 DUP3 MSTORE DUP1 PUSH1 0x1F ADD PUSH1 0x1F NOT AND PUSH1 0x20 ADD DUP3 ADD PUSH1 0x40 MSTORE DUP1 ISZERO PUSH2 0x2CDC JUMPI DUP2 PUSH1 0x20 ADD PUSH1 0x1 DUP3 MUL DUP1 CALLDATASIZE DUP4 CALLDATACOPY DUP1 DUP3 ADD SWAP2 POP POP SWAP1 POP JUMPDEST POP SWAP1 POP PUSH1 0x0 PUSH1 0x40 MLOAD DUP1 PUSH1 0x60 ADD PUSH1 0x40 MSTORE DUP1 PUSH1 0x40 DUP2 MSTORE PUSH1 0x20 ADD PUSH2 0x5ABA PUSH1 0x40 SWAP2 CODECOPY SWAP1 POP PUSH1 0x1 DUP2 ADD PUSH1 0x20 DUP4 ADD PUSH1 0x0 JUMPDEST DUP7 DUP2 LT ISZERO PUSH2 0x2D80 JUMPI PUSH1 0x3 DUP2 ADD SWAP1 POP PUSH3 0xFFFFFF DUP2 DUP11 ADD MLOAD AND PUSH1 0x3F DUP2 PUSH1 0x12 SHR AND DUP5 ADD MLOAD DUP1 PUSH1 0x8 SHL SWAP1 POP PUSH1 0xFF PUSH1 0x3F DUP4 PUSH1 0xC SHR AND DUP7 ADD MLOAD AND DUP2 ADD SWAP1 POP DUP1 PUSH1 0x8 SHL SWAP1 POP PUSH1 0xFF PUSH1 0x3F DUP4 PUSH1 0x6 SHR AND DUP7 ADD MLOAD AND DUP2 ADD SWAP1 POP DUP1 PUSH1 0x8 SHL SWAP1 POP PUSH1 0xFF PUSH1 0x3F DUP4 AND DUP7 ADD MLOAD AND DUP2 ADD SWAP1 POP DUP1 PUSH1 0xE0 SHL SWAP1 POP DUP1 DUP5 MSTORE PUSH1 0x4 DUP5 ADD SWAP4 POP POP POP PUSH2 0x2D07 JUMP JUMPDEST POP PUSH1 0x3 DUP7 MOD PUSH1 0x1 DUP2 EQ PUSH2 0x2D9A JUMPI PUSH1 0x2 DUP2 EQ PUSH2 0x2DAA JUMPI PUSH2 0x2DB5 JUMP JUMPDEST PUSH2 0x3D3D PUSH1 0xF0 SHL PUSH1 0x2 DUP4 SUB MSTORE PUSH2 0x2DB5 JUMP JUMPDEST PUSH1 0x3D PUSH1 0xF8 SHL PUSH1 0x1 DUP4 SUB MSTORE JUMPDEST POP DUP5 DUP5 MSTORE POP POP DUP2 SWAP5 POP POP POP POP POP JUMPDEST SWAP2 SWAP1 POP JUMP JUMPDEST PUSH1 0x0 PUSH32 0x780E9D6300000000000000000000000000000000000000000000000000000000 PUSH28 0xFFFFFFFFFFFFFFFFFFFFFFFFFFFFFFFFFFFFFFFFFFFFFFFFFFFFFFFF NOT AND DUP3 PUSH28 0xFFFFFFFFFFFFFFFFFFFFFFFFFFFFFFFFFFFFFFFFFFFFFFFFFFFFFFFF NOT AND EQ DUP1 PUSH2 0x2E3B JUMPI POP PUSH2 0x2E3A DUP3 PUSH2 0x3329 JUMP JUMPDEST JUMPDEST SWAP1 POP SWAP2 SWAP1 POP JUMP JUMPDEST PUSH1 0x0 PUSH1 0x3 PUSH1 0x0 DUP4 DUP2 MSTORE PUSH1 0x20 ADD SWAP1 DUP2 MSTORE PUSH1 0x20 ADD PUSH1 0x0 KECCAK256 PUSH1 0x0 SWAP1 SLOAD SWAP1 PUSH2 0x100 EXP SWAP1 DIV PUSH20 0xFFFFFFFFFFFFFFFFFFFFFFFFFFFFFFFFFFFFFFFF AND SWAP1 POP SWAP2 SWAP1 POP JUMP JUMPDEST PUSH2 0x2E89 DUP3 DUP3 PUSH2 0x1840 JUMP JUMPDEST PUSH2 0x2ECC JUMPI DUP1 DUP3 PUSH1 0x40 MLOAD PUSH32 0xE2517D3F00000000000000000000000000000000000000000000000000000000 DUP2 MSTORE PUSH1 0x4 ADD PUSH2 0x2EC3 SWAP3 SWAP2 SWAP1 PUSH2 0x56C0 JUMP JUMPDEST PUSH1 0x40 MLOAD DUP1 SWAP2 SUB SWAP1 REVERT JUMPDEST POP POP JUMP JUMPDEST DUP1 DUP1 PUSH2 0x2F09 JUMPI POP PUSH1 0x0 PUSH20 0xFFFFFFFFFFFFFFFFFFFFFFFFFFFFFFFFFFFFFFFF AND DUP3 PUSH20 0xFFFFFFFFFFFFFFFFFFFFFFFFFFFFFFFFFFFFFFFF AND EQ ISZERO JUMPDEST ISZERO PUSH2 0x303D JUMPI PUSH1 0x0 PUSH2 0x2F19 DUP5 PUSH2 0x1E53 JUMP JUMPDEST SWAP1 POP PUSH1 0x0 PUSH20 0xFFFFFFFFFFFFFFFFFFFFFFFFFFFFFFFFFFFFFFFF AND DUP4 PUSH20 0xFFFFFFFFFFFFFFFFFFFFFFFFFFFFFFFFFFFFFFFF AND EQ ISZERO DUP1 ISZERO PUSH2 0x2F84 JUMPI POP DUP3 PUSH20 0xFFFFFFFFFFFFFFFFFFFFFFFFFFFFFFFFFFFFFFFF AND DUP2 PUSH20 0xFFFFFFFFFFFFFFFFFFFFFFFFFFFFFFFFFFFFFFFF AND EQ ISZERO JUMPDEST DUP1 ISZERO PUSH2 0x2F97 JUMPI POP PUSH2 0x2F95 DUP2 DUP5 PUSH2 0x1AD7 JUMP JUMPDEST ISZERO JUMPDEST ISZERO PUSH2 0x2FD9 JUMPI DUP3 PUSH1 0x40 MLOAD PUSH32 0xA9FBF51F00000000000000000000000000000000000000000000000000000000 DUP2 MSTORE PUSH1 0x4 ADD PUSH2 0x2FD0 SWAP2 SWAP1 PUSH2 0x3EC4 JUMP JUMPDEST PUSH1 0x40 MLOAD DUP1 SWAP2 SUB SWAP1 REVERT JUMPDEST DUP2 ISZERO PUSH2 0x303B JUMPI DUP4 DUP6 PUSH20 0xFFFFFFFFFFFFFFFFFFFFFFFFFFFFFFFFFFFFFFFF AND DUP3 PUSH20 0xFFFFFFFFFFFFFFFFFFFFFFFFFFFFFFFFFFFFFFFF AND PUSH32 0x8C5BE1E5EBEC7D5BD14F71427D1E84F3DD0314C0F7B2291E5B200AC8C7C3B925 PUSH1 0x40 MLOAD PUSH1 0x40 MLOAD DUP1 SWAP2 SUB SWAP1 LOG4 JUMPDEST POP JUMPDEST DUP4 PUSH1 0x5 PUSH1 0x0 DUP6 DUP2 MSTORE PUSH1 0x20 ADD SWAP1 DUP2 MSTORE PUSH1 0x20 ADD PUSH1 0x0 KECCAK256 PUSH1 0x0 PUSH2 0x100 EXP DUP2 SLOAD DUP2 PUSH20 0xFFFFFFFFFFFFFFFFFFFFFFFFFFFFFFFFFFFFFFFF MUL NOT AND SWAP1 DUP4 PUSH20 0xFFFFFFFFFFFFFFFFFFFFFFFFFFFFFFFFFFFFFFFF AND MUL OR SWAP1 SSTORE POP POP POP POP POP JUMP JUMPDEST PUSH1 0x0 DUP1 PUSH2 0x30A3 DUP6 DUP6 DUP6 PUSH2 0x340B JUMP JUMPDEST SWAP1 POP PUSH1 0x0 PUSH20 0xFFFFFFFFFFFFFFFFFFFFFFFFFFFFFFFFFFFFFFFF AND DUP2 PUSH20 0xFFFFFFFFFFFFFFFFFFFFFFFFFFFFFFFFFFFFFFFF AND SUB PUSH2 0x30E7 JUMPI PUSH2 0x30E2 DUP5 PUSH2 0x3625 JUMP JUMPDEST PUSH2 0x3126 JUMP JUMPDEST DUP5 PUSH20 0xFFFFFFFFFFFFFFFFFFFFFFFFFFFFFFFFFFFFFFFF AND DUP2 PUSH20 0xFFFFFFFFFFFFFFFFFFFFFFFFFFFFFFFFFFFFFFFF AND EQ PUSH2 0x3125 JUMPI PUSH2 0x3124 DUP2 DUP6 PUSH2 0x366E JUMP JUMPDEST JUMPDEST JUMPDEST PUSH1 0x0 PUSH20 0xFFFFFFFFFFFFFFFFFFFFFFFFFFFFFFFFFFFFFFFF AND DUP6 PUSH20 0xFFFFFFFFFFFFFFFFFFFFFFFFFFFFFFFFFFFFFFFF AND SUB PUSH2 0x3168 JUMPI PUSH2 0x3163 DUP5 PUSH2 0x3759 JUMP JUMPDEST PUSH2 0x31A7 JUMP JUMPDEST DUP5 PUSH20 0xFFFFFFFFFFFFFFFFFFFFFFFFFFFFFFFFFFFFFFFF AND DUP2 PUSH20 0xFFFFFFFFFFFFFFFFFFFFFFFFFFFFFFFFFFFFFFFF AND EQ PUSH2 0x31A6 JUMPI PUSH2 0x31A5 DUP6 DUP6 PUSH2 0x382A JUMP JUMPDEST JUMPDEST JUMPDEST DUP1 SWAP2 POP POP SWAP4 SWAP3 POP POP POP JUMP JUMPDEST PUSH2 0x31BC DUP4 DUP4 PUSH2 0x38B5 JUMP JUMPDEST PUSH2 0x31D1 PUSH2 0x31C7 PUSH2 0x1F2C JUMP JUMPDEST PUSH1 0x0 DUP6 DUP6 DUP6 PUSH2 0x2439 JUMP JUMPDEST POP POP POP JUMP JUMPDEST PUSH1 0x0 DUP1 PUSH1 0x0 SWAP1 POP PUSH27 0x184F03E93FF9F4DAA797ED6E38ED64BF6A1F010000000000000000 DUP4 LT PUSH2 0x3234 JUMPI PUSH27 0x184F03E93FF9F4DAA797ED6E38ED64BF6A1F010000000000000000 DUP4 DUP2 PUSH2 0x322A JUMPI PUSH2 0x3229 PUSH2 0x54E2 JUMP JUMPDEST JUMPDEST DIV SWAP3 POP PUSH1 0x40 DUP2 ADD SWAP1 POP JUMPDEST PUSH14 0x4EE2D6D415B85ACEF8100000000 DUP4 LT PUSH2 0x3271 JUMPI PUSH14 0x4EE2D6D415B85ACEF8100000000 DUP4 DUP2 PUSH2 0x3267 JUMPI PUSH2 0x3266 PUSH2 0x54E2 JUMP JUMPDEST JUMPDEST DIV SWAP3 POP PUSH1 0x20 DUP2 ADD SWAP1 POP JUMPDEST PUSH7 0x2386F26FC10000 DUP4 LT PUSH2 0x32A0 JUMPI PUSH7 0x2386F26FC10000 DUP4 DUP2 PUSH2 0x3296 JUMPI PUSH2 0x3295 PUSH2 0x54E2 JUMP JUMPDEST JUMPDEST DIV SWAP3 POP PUSH1 0x10 DUP2 ADD SWAP1 POP JUMPDEST PUSH4 0x5F5E100 DUP4 LT PUSH2 0x32C9 JUMPI PUSH4 0x5F5E100 DUP4 DUP2 PUSH2 0x32BF JUMPI PUSH2 0x32BE PUSH2 0x54E2 JUMP JUMPDEST JUMPDEST DIV SWAP3 POP PUSH1 0x8 DUP2 ADD SWAP1 POP JUMPDEST PUSH2 0x2710 DUP4 LT PUSH2 0x32EE JUMPI PUSH2 0x2710 DUP4 DUP2 PUSH2 0x32E4 JUMPI PUSH2 0x32E3 PUSH2 0x54E2 JUMP JUMPDEST JUMPDEST DIV SWAP3 POP PUSH1 0x4 DUP2 ADD SWAP1 POP JUMPDEST PUSH1 0x64 DUP4 LT PUSH2 0x3311 JUMPI PUSH1 0x64 DUP4 DUP2 PUSH2 0x3307 JUMPI PUSH2 0x3306 PUSH2 0x54E2 JUMP JUMPDEST JUMPDEST DIV SWAP3 POP PUSH1 0x2 DUP2 ADD SWAP1 POP JUMPDEST PUSH1 0xA DUP4 LT PUSH2 0x3320 JUMPI PUSH1 0x1 DUP2 ADD SWAP1 POP JUMPDEST DUP1 SWAP2 POP POP SWAP2 SWAP1 POP JUMP JUMPDEST PUSH1 0x0 PUSH32 0x80AC58CD00000000000000000000000000000000000000000000000000000000 PUSH28 0xFFFFFFFFFFFFFFFFFFFFFFFFFFFFFFFFFFFFFFFFFFFFFFFFFFFFFFFF NOT AND DUP3 PUSH28 0xFFFFFFFFFFFFFFFFFFFFFFFFFFFFFFFFFFFFFFFFFFFFFFFFFFFFFFFF NOT AND EQ DUP1 PUSH2 0x33F4 JUMPI POP PUSH32 0x5B5E139F00000000000000000000000000000000000000000000000000000000 PUSH28 0xFFFFFFFFFFFFFFFFFFFFFFFFFFFFFFFFFFFFFFFFFFFFFFFFFFFFFFFF NOT AND DUP3 PUSH28 0xFFFFFFFFFFFFFFFFFFFFFFFFFFFFFFFFFFFFFFFFFFFFFFFFFFFFFFFF NOT AND EQ JUMPDEST DUP1 PUSH2 0x3404 JUMPI POP PUSH2 0x3403 DUP3 PUSH2 0x39AE JUMP JUMPDEST JUMPDEST SWAP1 POP SWAP2 SWAP1 POP JUMP JUMPDEST PUSH1 0x0 DUP1 PUSH2 0x3417 DUP5 PUSH2 0x2E42 JUMP JUMPDEST SWAP1 POP PUSH1 0x0 PUSH20 0xFFFFFFFFFFFFFFFFFFFFFFFFFFFFFFFFFFFFFFFF AND DUP4 PUSH20 0xFFFFFFFFFFFFFFFFFFFFFFFFFFFFFFFFFFFFFFFF AND EQ PUSH2 0x3459 JUMPI PUSH2 0x3458 DUP2 DUP5 DUP7 PUSH2 0x3A28 JUMP JUMPDEST JUMPDEST PUSH1 0x0 PUSH20 0xFFFFFFFFFFFFFFFFFFFFFFFFFFFFFFFFFFFFFFFF AND DUP2 PUSH20 0xFFFFFFFFFFFFFFFFFFFFFFFFFFFFFFFFFFFFFFFF AND EQ PUSH2 0x34EA JUMPI PUSH2 0x349B PUSH1 0x0 DUP6 PUSH1 0x0 DUP1 PUSH2 0x2ED0 JUMP JUMPDEST PUSH1 0x1 PUSH1 0x4 PUSH1 0x0 DUP4 PUSH20 0xFFFFFFFFFFFFFFFFFFFFFFFFFFFFFFFFFFFFFFFF AND PUSH20 0xFFFFFFFFFFFFFFFFFFFFFFFFFFFFFFFFFFFFFFFF AND DUP2 MSTORE PUSH1 0x20 ADD SWAP1 DUP2 MSTORE PUSH1 0x20 ADD PUSH1 0x0 KECCAK256 PUSH1 0x0 DUP3 DUP3 SLOAD SUB SWAP3 POP POP DUP2 SWAP1 SSTORE POP JUMPDEST PUSH1 0x0 PUSH20 0xFFFFFFFFFFFFFFFFFFFFFFFFFFFFFFFFFFFFFFFF AND DUP6 PUSH20 0xFFFFFFFFFFFFFFFFFFFFFFFFFFFFFFFFFFFFFFFF AND EQ PUSH2 0x356D JUMPI PUSH1 0x1 PUSH1 0x4 PUSH1 0x0 DUP8 PUSH20 0xFFFFFFFFFFFFFFFFFFFFFFFFFFFFFFFFFFFFFFFF AND PUSH20 0xFFFFFFFFFFFFFFFFFFFFFFFFFFFFFFFFFFFFFFFF AND DUP2 MSTORE PUSH1 0x20 ADD SWAP1 DUP2 MSTORE PUSH1 0x20 ADD PUSH1 0x0 KECCAK256 PUSH1 0x0 DUP3 DUP3 SLOAD ADD SWAP3 POP POP DUP2 SWAP1 SSTORE POP JUMPDEST DUP5 PUSH1 0x3 PUSH1 0x0 DUP7 DUP2 MSTORE PUSH1 0x20 ADD SWAP1 DUP2 MSTORE PUSH1 0x20 ADD PUSH1 0x0 KECCAK256 PUSH1 0x0 PUSH2 0x100 EXP DUP2 SLOAD DUP2 PUSH20 0xFFFFFFFFFFFFFFFFFFFFFFFFFFFFFFFFFFFFFFFF MUL NOT AND SWAP1 DUP4 PUSH20 0xFFFFFFFFFFFFFFFFFFFFFFFFFFFFFFFFFFFFFFFF AND MUL OR SWAP1 SSTORE POP DUP4 DUP6 PUSH20 0xFFFFFFFFFFFFFFFFFFFFFFFFFFFFFFFFFFFFFFFF AND DUP3 PUSH20 0xFFFFFFFFFFFFFFFFFFFFFFFFFFFFFFFFFFFFFFFF AND PUSH32 0xDDF252AD1BE2C89B69C2B068FC378DAA952BA7F163C4A11628F55A4DF523B3EF PUSH1 0x40 MLOAD PUSH1 0x40 MLOAD DUP1 SWAP2 SUB SWAP1 LOG4 DUP1 SWAP2 POP POP SWAP4 SWAP3 POP POP POP JUMP JUMPDEST PUSH1 0x9 DUP1 SLOAD SWAP1 POP PUSH1 0xA PUSH1 0x0 DUP4 DUP2 MSTORE PUSH1 0x20 ADD SWAP1 DUP2 MSTORE PUSH1 0x20 ADD PUSH1 0x0 KECCAK256 DUP2 SWAP1 SSTORE POP PUSH1 0x9 DUP2 SWAP1 DUP1 PUSH1 0x1 DUP2 SLOAD ADD DUP1 DUP3 SSTORE DUP1 SWAP2 POP POP PUSH1 0x1 SWAP1 SUB SWAP1 PUSH1 0x0 MSTORE PUSH1 0x20 PUSH1 0x0 KECCAK256 ADD PUSH1 0x0 SWAP1 SWAP2 SWAP1 SWAP2 SWAP1 SWAP2 POP SSTORE POP JUMP JUMPDEST PUSH1 0x0 PUSH2 0x3679 DUP4 PUSH2 0x16E5 JUMP JUMPDEST SWAP1 POP PUSH1 0x0 PUSH1 0x8 PUSH1 0x0 DUP5 DUP2 MSTORE PUSH1 0x20 ADD SWAP1 DUP2 MSTORE PUSH1 0x20 ADD PUSH1 0x0 KECCAK256 SLOAD SWAP1 POP PUSH1 0x0 PUSH1 0x7 PUSH1 0x0 DUP7 PUSH20 0xFFFFFFFFFFFFFFFFFFFFFFFFFFFFFFFFFFFFFFFF AND PUSH20 0xFFFFFFFFFFFFFFFFFFFFFFFFFFFFFFFFFFFFFFFF AND DUP2 MSTORE PUSH1 0x20 ADD SWAP1 DUP2 MSTORE PUSH1 0x20 ADD PUSH1 0x0 KECCAK256 SWAP1 POP DUP3 DUP3 EQ PUSH2 0x3725 JUMPI PUSH1 0x0 DUP2 PUSH1 0x0 DUP6 DUP2 MSTORE PUSH1 0x20 ADD SWAP1 DUP2 MSTORE PUSH1 0x20 ADD PUSH1 0x0 KECCAK256 SLOAD SWAP1 POP DUP1 DUP3 PUSH1 0x0 DUP6 DUP2 MSTORE PUSH1 0x20 ADD SWAP1 DUP2 MSTORE PUSH1 0x20 ADD PUSH1 0x0 KECCAK256 DUP2 SWAP1 SSTORE POP DUP3 PUSH1 0x8 PUSH1 0x0 DUP4 DUP2 MSTORE PUSH1 0x20 ADD SWAP1 DUP2 MSTORE PUSH1 0x20 ADD PUSH1 0x0 KECCAK256 DUP2 SWAP1 SSTORE POP POP JUMPDEST PUSH1 0x8 PUSH1 0x0 DUP6 DUP2 MSTORE PUSH1 0x20 ADD SWAP1 DUP2 MSTORE PUSH1 0x20 ADD PUSH1 0x0 KECCAK256 PUSH1 0x0 SWAP1 SSTORE DUP1 PUSH1 0x0 DUP5 DUP2 MSTORE PUSH1 0x20 ADD SWAP1 DUP2 MSTORE PUSH1 0x20 ADD PUSH1 0x0 KECCAK256 PUSH1 0x0 SWAP1 SSTORE POP POP POP POP POP JUMP JUMPDEST PUSH1 0x0 PUSH1 0x1 PUSH1 0x9 DUP1 SLOAD SWAP1 POP PUSH2 0x376D SWAP2 SWAP1 PUSH2 0x56E9 JUMP JUMPDEST SWAP1 POP PUSH1 0x0 PUSH1 0xA PUSH1 0x0 DUP5 DUP2 MSTORE PUSH1 0x20 ADD SWAP1 DUP2 MSTORE PUSH1 0x20 ADD PUSH1 0x0 KECCAK256 SLOAD SWAP1 POP PUSH1 0x0 PUSH1 0x9 DUP4 DUP2 SLOAD DUP2 LT PUSH2 0x379D JUMPI PUSH2 0x379C PUSH2 0x513C JUMP JUMPDEST JUMPDEST SWAP1 PUSH1 0x0 MSTORE PUSH1 0x20 PUSH1 0x0 KECCAK256 ADD SLOAD SWAP1 POP DUP1 PUSH1 0x9 DUP4 DUP2 SLOAD DUP2 LT PUSH2 0x37BF JUMPI PUSH2 0x37BE PUSH2 0x513C JUMP JUMPDEST JUMPDEST SWAP1 PUSH1 0x0 MSTORE PUSH1 0x20 PUSH1 0x0 KECCAK256 ADD DUP2 SWAP1 SSTORE POP DUP2 PUSH1 0xA PUSH1 0x0 DUP4 DUP2 MSTORE PUSH1 0x20 ADD SWAP1 DUP2 MSTORE PUSH1 0x20 ADD PUSH1 0x0 KECCAK256 DUP2 SWAP1 SSTORE POP PUSH1 0xA PUSH1 0x0 DUP6 DUP2 MSTORE PUSH1 0x20 ADD SWAP1 DUP2 MSTORE PUSH1 0x20 ADD PUSH1 0x0 KECCAK256 PUSH1 0x0 SWAP1 SSTORE PUSH1 0x9 DUP1 SLOAD DUP1 PUSH2 0x380E JUMPI PUSH2 0x380D PUSH2 0x571D JUMP JUMPDEST JUMPDEST PUSH1 0x1 SWAP1 SUB DUP2 DUP2 SWAP1 PUSH1 0x0 MSTORE PUSH1 0x20 PUSH1 0x0 KECCAK256 ADD PUSH1 0x0 SWAP1 SSTORE SWAP1 SSTORE POP POP POP POP JUMP JUMPDEST PUSH1 0x0 PUSH1 0x1 PUSH2 0x3837 DUP5 PUSH2 0x16E5 JUMP JUMPDEST PUSH2 0x3841 SWAP2 SWAP1 PUSH2 0x56E9 JUMP JUMPDEST SWAP1 POP DUP2 PUSH1 0x7 PUSH1 0x0 DUP6 PUSH20 0xFFFFFFFFFFFFFFFFFFFFFFFFFFFFFFFFFFFFFFFF AND PUSH20 0xFFFFFFFFFFFFFFFFFFFFFFFFFFFFFFFFFFFFFFFF AND DUP2 MSTORE PUSH1 0x20 ADD SWAP1 DUP2 MSTORE PUSH1 0x20 ADD PUSH1 0x0 KECCAK256 PUSH1 0x0 DUP4 DUP2 MSTORE PUSH1 0x20 ADD SWAP1 DUP2 MSTORE PUSH1 0x20 ADD PUSH1 0x0 KECCAK256 DUP2 SWAP1 SSTORE POP DUP1 PUSH1 0x8 PUSH1 0x0 DUP5 DUP2 MSTORE PUSH1 0x20 ADD SWAP1 DUP2 MSTORE PUSH1 0x20 ADD PUSH1 0x0 KECCAK256 DUP2 SWAP1 SSTORE POP POP POP POP JUMP JUMPDEST PUSH1 0x0 PUSH20 0xFFFFFFFFFFFFFFFFFFFFFFFFFFFFFFFFFFFFFFFF AND DUP3 PUSH20 0xFFFFFFFFFFFFFFFFFFFFFFFFFFFFFFFFFFFFFFFF AND SUB PUSH2 0x3927 JUMPI PUSH1 0x0 PUSH1 0x40 MLOAD PUSH32 0x64A0AE9200000000000000000000000000000000000000000000000000000000 DUP2 MSTORE PUSH1 0x4 ADD PUSH2 0x391E SWAP2 SWAP1 PUSH2 0x3EC4 JUMP JUMPDEST PUSH1 0x40 MLOAD DUP1 SWAP2 SUB SWAP1 REVERT JUMPDEST PUSH1 0x0 PUSH2 0x3935 DUP4 DUP4 PUSH1 0x0 PUSH2 0x1F46 JUMP JUMPDEST SWAP1 POP PUSH1 0x0 PUSH20 0xFFFFFFFFFFFFFFFFFFFFFFFFFFFFFFFFFFFFFFFF AND DUP2 PUSH20 0xFFFFFFFFFFFFFFFFFFFFFFFFFFFFFFFFFFFFFFFF AND EQ PUSH2 0x39A9 JUMPI PUSH1 0x0 PUSH1 0x40 MLOAD PUSH32 0x73C6AC6E00000000000000000000000000000000000000000000000000000000 DUP2 MSTORE PUSH1 0x4 ADD PUSH2 0x39A0 SWAP2 SWAP1 PUSH2 0x3EC4 JUMP JUMPDEST PUSH1 0x40 MLOAD DUP1 SWAP2 SUB SWAP1 REVERT JUMPDEST POP POP POP JUMP JUMPDEST PUSH1 0x0 PUSH32 0x7965DB0B00000000000000000000000000000000000000000000000000000000 PUSH28 0xFFFFFFFFFFFFFFFFFFFFFFFFFFFFFFFFFFFFFFFFFFFFFFFFFFFFFFFF NOT AND DUP3 PUSH28 0xFFFFFFFFFFFFFFFFFFFFFFFFFFFFFFFFFFFFFFFFFFFFFFFFFFFFFFFF NOT AND EQ DUP1 PUSH2 0x3A21 JUMPI POP PUSH2 0x3A20 DUP3 PUSH2 0x3AEC JUMP JUMPDEST JUMPDEST SWAP1 POP SWAP2 SWAP1 POP JUMP JUMPDEST PUSH2 0x3A33 DUP4 DUP4 DUP4 PUSH2 0x3B56 JUMP JUMPDEST PUSH2 0x3AE7 JUMPI PUSH1 0x0 PUSH20 0xFFFFFFFFFFFFFFFFFFFFFFFFFFFFFFFFFFFFFFFF AND DUP4 PUSH20 0xFFFFFFFFFFFFFFFFFFFFFFFFFFFFFFFFFFFFFFFF AND SUB PUSH2 0x3AA8 JUMPI DUP1 PUSH1 0x40 MLOAD PUSH32 0x7E27328900000000000000000000000000000000000000000000000000000000 DUP2 MSTORE PUSH1 0x4 ADD PUSH2 0x3A9F SWAP2 SWAP1 PUSH2 0x3FBB JUMP JUMPDEST PUSH1 0x40 MLOAD DUP1 SWAP2 SUB SWAP1 REVERT JUMPDEST DUP2 DUP2 PUSH1 0x40 MLOAD PUSH32 0x177E802F00000000000000000000000000000000000000000000000000000000 DUP2 MSTORE PUSH1 0x4 ADD PUSH2 0x3ADE SWAP3 SWAP2 SWAP1 PUSH2 0x4A73 JUMP JUMPDEST PUSH1 0x40 MLOAD DUP1 SWAP2 SUB SWAP1 REVERT JUMPDEST POP POP POP JUMP JUMPDEST PUSH1 0x0 PUSH32 0x1FFC9A700000000000000000000000000000000000000000000000000000000 PUSH28 0xFFFFFFFFFFFFFFFFFFFFFFFFFFFFFFFFFFFFFFFFFFFFFFFFFFFFFFFF NOT AND DUP3 PUSH28 0xFFFFFFFFFFFFFFFFFFFFFFFFFFFFFFFFFFFFFFFFFFFFFFFFFFFFFFFF NOT AND EQ SWAP1 POP SWAP2 SWAP1 POP JUMP JUMPDEST PUSH1 0x0 DUP1 PUSH20 0xFFFFFFFFFFFFFFFFFFFFFFFFFFFFFFFFFFFFFFFF AND DUP4 PUSH20 0xFFFFFFFFFFFFFFFFFFFFFFFFFFFFFFFFFFFFFFFF AND EQ ISZERO DUP1 ISZERO PUSH2 0x3C0E JUMPI POP DUP3 PUSH20 0xFFFFFFFFFFFFFFFFFFFFFFFFFFFFFFFFFFFFFFFF AND DUP5 PUSH20 0xFFFFFFFFFFFFFFFFFFFFFFFFFFFFFFFFFFFFFFFF AND EQ DUP1 PUSH2 0x3BCF JUMPI POP PUSH2 0x3BCE DUP5 DUP5 PUSH2 0x1AD7 JUMP JUMPDEST JUMPDEST DUP1 PUSH2 0x3C0D JUMPI POP DUP3 PUSH20 0xFFFFFFFFFFFFFFFFFFFFFFFFFFFFFFFFFFFFFFFF AND PUSH2 0x3BF5 DUP4 PUSH2 0x1EDB JUMP JUMPDEST PUSH20 0xFFFFFFFFFFFFFFFFFFFFFFFFFFFFFFFFFFFFFFFF AND EQ JUMPDEST JUMPDEST SWAP1 POP SWAP4 SWAP3 POP POP POP JUMP JUMPDEST PUSH1 0x40 MLOAD DUP1 PUSH2 0x100 ADD PUSH1 0x40 MSTORE DUP1 PUSH1 0x0 DUP2 MSTORE PUSH1 0x20 ADD PUSH1 0x0 DUP2 MSTORE PUSH1 0x20 ADD PUSH1 0x60 DUP2 MSTORE PUSH1 0x20 ADD PUSH1 0x60 DUP2 MSTORE PUSH1 0x20 ADD PUSH1 0x60 DUP2 MSTORE PUSH1 0x20 ADD PUSH1 0x60 DUP2 MSTORE PUSH1 0x20 ADD PUSH1 0x0 ISZERO ISZERO DUP2 MSTORE PUSH1 0x20 ADD PUSH1 0x0 ISZERO ISZERO DUP2 MSTORE POP SWAP1 JUMP JUMPDEST PUSH1 0x40 MLOAD DUP1 PUSH1 0xE0 ADD PUSH1 0x40 MSTORE DUP1 PUSH1 0x0 DUP2 MSTORE PUSH1 0x20 ADD PUSH1 0x0 DUP2 MSTORE PUSH1 0x20 ADD PUSH1 0x60 DUP2 MSTORE PUSH1 0x20 ADD PUSH1 0x60 DUP2 MSTORE PUSH1 0x20 ADD PUSH1 0x60 DUP2 MSTORE PUSH1 0x20 ADD PUSH1 0x0 ISZERO ISZERO DUP2 MSTORE PUSH1 0x20 ADD PUSH1 0x60 DUP2 MSTORE POP SWAP1 JUMP JUMPDEST PUSH1 0x0 PUSH1 0x40 MLOAD SWAP1 POP SWAP1 JUMP JUMPDEST PUSH1 0x0 DUP1 REVERT JUMPDEST PUSH1 0x0 DUP1 REVERT JUMPDEST PUSH1 0x0 PUSH32 0xFFFFFFFF00000000000000000000000000000000000000000000000000000000 DUP3 AND SWAP1 POP SWAP2 SWAP1 POP JUMP JUMPDEST PUSH2 0x3CE8 DUP2 PUSH2 0x3CB3 JUMP JUMPDEST DUP2 EQ PUSH2 0x3CF3 JUMPI PUSH1 0x0 DUP1 REVERT JUMPDEST POP JUMP JUMPDEST PUSH1 0x0 DUP2 CALLDATALOAD SWAP1 POP PUSH2 0x3D05 DUP2 PUSH2 0x3CDF JUMP JUMPDEST SWAP3 SWAP2 POP POP JUMP JUMPDEST PUSH1 0x0 PUSH1 0x20 DUP3 DUP5 SUB SLT ISZERO PUSH2 0x3D21 JUMPI PUSH2 0x3D20 PUSH2 0x3CA9 JUMP JUMPDEST JUMPDEST PUSH1 0x0 PUSH2 0x3D2F DUP5 DUP3 DUP6 ADD PUSH2 0x3CF6 JUMP JUMPDEST SWAP2 POP POP SWAP3 SWAP2 POP POP JUMP JUMPDEST PUSH1 0x0 DUP2 ISZERO ISZERO SWAP1 POP SWAP2 SWAP1 POP JUMP JUMPDEST PUSH2 0x3D4D DUP2 PUSH2 0x3D38 JUMP JUMPDEST DUP3 MSTORE POP POP JUMP JUMPDEST PUSH1 0x0 PUSH1 0x20 DUP3 ADD SWAP1 POP PUSH2 0x3D68 PUSH1 0x0 DUP4 ADD DUP5 PUSH2 0x3D44 JUMP JUMPDEST SWAP3 SWAP2 POP POP JUMP JUMPDEST PUSH1 0x0 DUP2 MLOAD SWAP1 POP SWAP2 SWAP1 POP JUMP JUMPDEST PUSH1 0x0 DUP3 DUP3 MSTORE PUSH1 0x20 DUP3 ADD SWAP1 POP SWAP3 SWAP2 POP POP JUMP JUMPDEST PUSH1 0x0 JUMPDEST DUP4 DUP2 LT ISZERO PUSH2 0x3DA8 JUMPI DUP1 DUP3 ADD MLOAD DUP2 DUP5 ADD MSTORE PUSH1 0x20 DUP2 ADD SWAP1 POP PUSH2 0x3D8D JUMP JUMPDEST PUSH1 0x0 DUP5 DUP5 ADD MSTORE POP POP POP POP JUMP JUMPDEST PUSH1 0x0 PUSH1 0x1F NOT PUSH1 0x1F DUP4 ADD AND SWAP1 POP SWAP2 SWAP1 POP JUMP JUMPDEST PUSH1 0x0 PUSH2 0x3DD0 DUP3 PUSH2 0x3D6E JUMP JUMPDEST PUSH2 0x3DDA DUP2 DUP6 PUSH2 0x3D79 JUMP JUMPDEST SWAP4 POP PUSH2 0x3DEA DUP2 DUP6 PUSH1 0x20 DUP7 ADD PUSH2 0x3D8A JUMP JUMPDEST PUSH2 0x3DF3 DUP2 PUSH2 0x3DB4 JUMP JUMPDEST DUP5 ADD SWAP2 POP POP SWAP3 SWAP2 POP POP JUMP JUMPDEST PUSH1 0x0 PUSH1 0x20 DUP3 ADD SWAP1 POP DUP2 DUP2 SUB PUSH1 0x0 DUP4 ADD MSTORE PUSH2 0x3E18 DUP2 DUP5 PUSH2 0x3DC5 JUMP JUMPDEST SWAP1 POP SWAP3 SWAP2 POP POP JUMP JUMPDEST PUSH1 0x0 DUP2 SWAP1 POP SWAP2 SWAP1 POP JUMP JUMPDEST PUSH2 0x3E33 DUP2 PUSH2 0x3E20 JUMP JUMPDEST DUP2 EQ PUSH2 0x3E3E JUMPI PUSH1 0x0 DUP1 REVERT JUMPDEST POP JUMP JUMPDEST PUSH1 0x0 DUP2 CALLDATALOAD SWAP1 POP PUSH2 0x3E50 DUP2 PUSH2 0x3E2A JUMP JUMPDEST SWAP3 SWAP2 POP POP JUMP JUMPDEST PUSH1 0x0 PUSH1 0x20 DUP3 DUP5 SUB SLT ISZERO PUSH2 0x3E6C JUMPI PUSH2 0x3E6B PUSH2 0x3CA9 JUMP JUMPDEST JUMPDEST PUSH1 0x0 PUSH2 0x3E7A DUP5 DUP3 DUP6 ADD PUSH2 0x3E41 JUMP JUMPDEST SWAP2 POP POP SWAP3 SWAP2 POP POP JUMP JUMPDEST PUSH1 0x0 PUSH20 0xFFFFFFFFFFFFFFFFFFFFFFFFFFFFFFFFFFFFFFFF DUP3 AND SWAP1 POP SWAP2 SWAP1 POP JUMP JUMPDEST PUSH1 0x0 PUSH2 0x3EAE DUP3 PUSH2 0x3E83 JUMP JUMPDEST SWAP1 POP SWAP2 SWAP1 POP JUMP JUMPDEST PUSH2 0x3EBE DUP2 PUSH2 0x3EA3 JUMP JUMPDEST DUP3 MSTORE POP POP JUMP JUMPDEST PUSH1 0x0 PUSH1 0x20 DUP3 ADD SWAP1 POP PUSH2 0x3ED9 PUSH1 0x0 DUP4 ADD DUP5 PUSH2 0x3EB5 JUMP JUMPDEST SWAP3 SWAP2 POP POP JUMP JUMPDEST PUSH2 0x3EE8 DUP2 PUSH2 0x3EA3 JUMP JUMPDEST DUP2 EQ PUSH2 0x3EF3 JUMPI PUSH1 0x0 DUP1 REVERT JUMPDEST POP JUMP JUMPDEST PUSH1 0x0 DUP2 CALLDATALOAD SWAP1 POP PUSH2 0x3F05 DUP2 PUSH2 0x3EDF JUMP JUMPDEST SWAP3 SWAP2 POP POP JUMP JUMPDEST PUSH1 0x0 PUSH1 0x20 DUP3 DUP5 SUB SLT ISZERO PUSH2 0x3F21 JUMPI PUSH2 0x3F20 PUSH2 0x3CA9 JUMP JUMPDEST JUMPDEST PUSH1 0x0 PUSH2 0x3F2F DUP5 DUP3 DUP6 ADD PUSH2 0x3EF6 JUMP JUMPDEST SWAP2 POP POP SWAP3 SWAP2 POP POP JUMP JUMPDEST PUSH1 0x0 DUP1 PUSH1 0x40 DUP4 DUP6 SUB SLT ISZERO PUSH2 0x3F4F JUMPI PUSH2 0x3F4E PUSH2 0x3CA9 JUMP JUMPDEST JUMPDEST PUSH1 0x0 PUSH2 0x3F5D DUP6 DUP3 DUP7 ADD PUSH2 0x3EF6 JUMP JUMPDEST SWAP3 POP POP PUSH1 0x20 PUSH2 0x3F6E DUP6 DUP3 DUP7 ADD PUSH2 0x3E41 JUMP JUMPDEST SWAP2 POP POP SWAP3 POP SWAP3 SWAP1 POP JUMP JUMPDEST PUSH1 0x0 DUP2 SWAP1 POP SWAP2 SWAP1 POP JUMP JUMPDEST PUSH2 0x3F8B DUP2 PUSH2 0x3F78 JUMP JUMPDEST DUP3 MSTORE POP POP JUMP JUMPDEST PUSH1 0x0 PUSH1 0x20 DUP3 ADD SWAP1 POP PUSH2 0x3FA6 PUSH1 0x0 DUP4 ADD DUP5 PUSH2 0x3F82 JUMP JUMPDEST SWAP3 SWAP2 POP POP JUMP JUMPDEST PUSH2 0x3FB5 DUP2 PUSH2 0x3E20 JUMP JUMPDEST DUP3 MSTORE POP POP JUMP JUMPDEST PUSH1 0x0 PUSH1 0x20 DUP3 ADD SWAP1 POP PUSH2 0x3FD0 PUSH1 0x0 DUP4 ADD DUP5 PUSH2 0x3FAC JUMP JUMPDEST SWAP3 SWAP2 POP POP JUMP JUMPDEST PUSH1 0x0 DUP1 PUSH1 0x0 PUSH1 0x60 DUP5 DUP7 SUB SLT ISZERO PUSH2 0x3FEF JUMPI PUSH2 0x3FEE PUSH2 0x3CA9 JUMP JUMPDEST JUMPDEST PUSH1 0x0 PUSH2 0x3FFD DUP7 DUP3 DUP8 ADD PUSH2 0x3EF6 JUMP JUMPDEST SWAP4 POP POP PUSH1 0x20 PUSH2 0x400E DUP7 DUP3 DUP8 ADD PUSH2 0x3EF6 JUMP JUMPDEST SWAP3 POP POP PUSH1 0x40 PUSH2 0x401F DUP7 DUP3 DUP8 ADD PUSH2 0x3E41 JUMP JUMPDEST SWAP2 POP POP SWAP3 POP SWAP3 POP SWAP3 JUMP JUMPDEST PUSH2 0x4032 DUP2 PUSH2 0x3F78 JUMP JUMPDEST DUP2 EQ PUSH2 0x403D JUMPI PUSH1 0x0 DUP1 REVERT JUMPDEST POP JUMP JUMPDEST PUSH1 0x0 DUP2 CALLDATALOAD SWAP1 POP PUSH2 0x404F DUP2 PUSH2 0x4029 JUMP JUMPDEST SWAP3 SWAP2 POP POP JUMP JUMPDEST PUSH1 0x0 PUSH1 0x20 DUP3 DUP5 SUB SLT ISZERO PUSH2 0x406B JUMPI PUSH2 0x406A PUSH2 0x3CA9 JUMP JUMPDEST JUMPDEST PUSH1 0x0 PUSH2 0x4079 DUP5 DUP3 DUP6 ADD PUSH2 0x4040 JUMP JUMPDEST SWAP2 POP POP SWAP3 SWAP2 POP POP JUMP JUMPDEST PUSH1 0x0 DUP1 REVERT JUMPDEST PUSH1 0x0 DUP1 REVERT JUMPDEST PUSH1 0x0 DUP1 REVERT JUMPDEST PUSH1 0x0 DUP1 DUP4 PUSH1 0x1F DUP5 ADD SLT PUSH2 0x40A7 JUMPI PUSH2 0x40A6 PUSH2 0x4082 JUMP JUMPDEST JUMPDEST DUP3 CALLDATALOAD SWAP1 POP PUSH8 0xFFFFFFFFFFFFFFFF DUP2 GT ISZERO PUSH2 0x40C4 JUMPI PUSH2 0x40C3 PUSH2 0x4087 JUMP JUMPDEST JUMPDEST PUSH1 0x20 DUP4 ADD SWAP2 POP DUP4 PUSH1 0x1 DUP3 MUL DUP4 ADD GT ISZERO PUSH2 0x40E0 JUMPI PUSH2 0x40DF PUSH2 0x408C JUMP JUMPDEST JUMPDEST SWAP3 POP SWAP3 SWAP1 POP JUMP JUMPDEST PUSH2 0x40F0 DUP2 PUSH2 0x3D38 JUMP JUMPDEST DUP2 EQ PUSH2 0x40FB JUMPI PUSH1 0x0 DUP1 REVERT JUMPDEST POP JUMP JUMPDEST PUSH1 0x0 DUP2 CALLDATALOAD SWAP1 POP PUSH2 0x410D DUP2 PUSH2 0x40E7 JUMP JUMPDEST SWAP3 SWAP2 POP POP JUMP JUMPDEST PUSH1 0x0 DUP1 PUSH1 0x0 DUP1 PUSH1 0x0 DUP1 PUSH1 0x0 PUSH1 0x80 DUP9 DUP11 SUB SLT ISZERO PUSH2 0x4132 JUMPI PUSH2 0x4131 PUSH2 0x3CA9 JUMP JUMPDEST JUMPDEST PUSH1 0x0 DUP9 ADD CALLDATALOAD PUSH8 0xFFFFFFFFFFFFFFFF DUP2 GT ISZERO PUSH2 0x4150 JUMPI PUSH2 0x414F PUSH2 0x3CAE JUMP JUMPDEST JUMPDEST PUSH2 0x415C DUP11 DUP3 DUP12 ADD PUSH2 0x4091 JUMP JUMPDEST SWAP8 POP SWAP8 POP POP PUSH1 0x20 DUP9 ADD CALLDATALOAD PUSH8 0xFFFFFFFFFFFFFFFF DUP2 GT ISZERO PUSH2 0x417F JUMPI PUSH2 0x417E PUSH2 0x3CAE JUMP JUMPDEST JUMPDEST PUSH2 0x418B DUP11 DUP3 DUP12 ADD PUSH2 0x4091 JUMP JUMPDEST SWAP6 POP SWAP6 POP POP PUSH1 0x40 DUP9 ADD CALLDATALOAD PUSH8 0xFFFFFFFFFFFFFFFF DUP2 GT ISZERO PUSH2 0x41AE JUMPI PUSH2 0x41AD PUSH2 0x3CAE JUMP JUMPDEST JUMPDEST PUSH2 0x41BA DUP11 DUP3 DUP12 ADD PUSH2 0x4091 JUMP JUMPDEST SWAP4 POP SWAP4 POP POP PUSH1 0x60 PUSH2 0x41CD DUP11 DUP3 DUP12 ADD PUSH2 0x40FE JUMP JUMPDEST SWAP2 POP POP SWAP3 SWAP6 SWAP9 SWAP2 SWAP5 SWAP8 POP SWAP3 SWAP6 POP JUMP JUMPDEST PUSH1 0x0 DUP1 PUSH1 0x40 DUP4 DUP6 SUB SLT ISZERO PUSH2 0x41F3 JUMPI PUSH2 0x41F2 PUSH2 0x3CA9 JUMP JUMPDEST JUMPDEST PUSH1 0x0 PUSH2 0x4201 DUP6 DUP3 DUP7 ADD PUSH2 0x4040 JUMP JUMPDEST SWAP3 POP POP PUSH1 0x20 PUSH2 0x4212 DUP6 DUP3 DUP7 ADD PUSH2 0x3EF6 JUMP JUMPDEST SWAP2 POP POP SWAP3 POP SWAP3 SWAP1 POP JUMP JUMPDEST PUSH1 0x0 DUP1 DUP4 PUSH1 0x1F DUP5 ADD SLT PUSH2 0x4232 JUMPI PUSH2 0x4231 PUSH2 0x4082 JUMP JUMPDEST JUMPDEST DUP3 CALLDATALOAD SWAP1 POP PUSH8 0xFFFFFFFFFFFFFFFF DUP2 GT ISZERO PUSH2 0x424F JUMPI PUSH2 0x424E PUSH2 0x4087 JUMP JUMPDEST JUMPDEST PUSH1 0x20 DUP4 ADD SWAP2 POP DUP4 PUSH1 0x20 DUP3 MUL DUP4 ADD GT ISZERO PUSH2 0x426B JUMPI PUSH2 0x426A PUSH2 0x408C JUMP JUMPDEST JUMPDEST SWAP3 POP SWAP3 SWAP1 POP JUMP JUMPDEST PUSH1 0x0 PUSH1 0xFF DUP3 AND SWAP1 POP SWAP2 SWAP1 POP JUMP JUMPDEST PUSH2 0x4288 DUP2 PUSH2 0x4272 JUMP JUMPDEST DUP2 EQ PUSH2 0x4293 JUMPI PUSH1 0x0 DUP1 REVERT JUMPDEST POP JUMP JUMPDEST PUSH1 0x0 DUP2 CALLDATALOAD SWAP1 POP PUSH2 0x42A5 DUP2 PUSH2 0x427F JUMP JUMPDEST SWAP3 SWAP2 POP POP JUMP JUMPDEST PUSH1 0x4 DUP2 LT PUSH2 0x42B8 JUMPI PUSH1 0x0 DUP1 REVERT JUMPDEST POP JUMP JUMPDEST PUSH1 0x0 DUP2 CALLDATALOAD SWAP1 POP PUSH2 0x42CA DUP2 PUSH2 0x42AB JUMP JUMPDEST SWAP3 SWAP2 POP POP JUMP JUMPDEST PUSH1 0x5 DUP2 LT PUSH2 0x42DD JUMPI PUSH1 0x0 DUP1 REVERT JUMPDEST POP JUMP JUMPDEST PUSH1 0x0 DUP2 CALLDATALOAD SWAP1 POP PUSH2 0x42EF DUP2 PUSH2 0x42D0 JUMP JUMPDEST SWAP3 SWAP2 POP POP JUMP JUMPDEST PUSH1 0x0 DUP1 PUSH1 0x0 DUP1 PUSH1 0x0 DUP1 PUSH1 0x0 DUP1 PUSH1 0x0 DUP1 PUSH1 0x0 PUSH1 0xE0 DUP13 DUP15 SUB SLT ISZERO PUSH2 0x431A JUMPI PUSH2 0x4319 PUSH2 0x3CA9 JUMP JUMPDEST JUMPDEST PUSH1 0x0 DUP13 ADD CALLDATALOAD PUSH8 0xFFFFFFFFFFFFFFFF DUP2 GT ISZERO PUSH2 0x4338 JUMPI PUSH2 0x4337 PUSH2 0x3CAE JUMP JUMPDEST JUMPDEST PUSH2 0x4344 DUP15 DUP3 DUP16 ADD PUSH2 0x421C JUMP JUMPDEST SWAP12 POP SWAP12 POP POP PUSH1 0x20 DUP13 ADD CALLDATALOAD PUSH8 0xFFFFFFFFFFFFFFFF DUP2 GT ISZERO PUSH2 0x4367 JUMPI PUSH2 0x4366 PUSH2 0x3CAE JUMP JUMPDEST JUMPDEST PUSH2 0x4373 DUP15 DUP3 DUP16 ADD PUSH2 0x421C JUMP JUMPDEST SWAP10 POP SWAP10 POP POP PUSH1 0x40 PUSH2 0x4386 DUP15 DUP3 DUP16 ADD PUSH2 0x4296 JUMP JUMPDEST SWAP8 POP POP PUSH1 0x60 DUP13 ADD CALLDATALOAD PUSH8 0xFFFFFFFFFFFFFFFF DUP2 GT ISZERO PUSH2 0x43A7 JUMPI PUSH2 0x43A6 PUSH2 0x3CAE JUMP JUMPDEST JUMPDEST PUSH2 0x43B3 DUP15 DUP3 DUP16 ADD PUSH2 0x4091 JUMP JUMPDEST SWAP7 POP SWAP7 POP POP PUSH1 0x80 PUSH2 0x43C6 DUP15 DUP3 DUP16 ADD PUSH2 0x42BB JUMP JUMPDEST SWAP5 POP POP PUSH1 0xA0 DUP13 ADD CALLDATALOAD PUSH8 0xFFFFFFFFFFFFFFFF DUP2 GT ISZERO PUSH2 0x43E7 JUMPI PUSH2 0x43E6 PUSH2 0x3CAE JUMP JUMPDEST JUMPDEST PUSH2 0x43F3 DUP15 DUP3 DUP16 ADD PUSH2 0x4091 JUMP JUMPDEST SWAP4 POP SWAP4 POP POP PUSH1 0xC0 PUSH2 0x4406 DUP15 DUP3 DUP16 ADD PUSH2 0x42E0 JUMP JUMPDEST SWAP2 POP POP SWAP3 SWAP6 SWAP9 SWAP12 POP SWAP3 SWAP6 SWAP9 SWAP12 SWAP1 SWAP4 SWAP7 SWAP10 POP JUMP JUMPDEST PUSH1 0x0 DUP1 PUSH1 0x0 DUP1 PUSH1 0x0 DUP1 PUSH1 0x60 DUP8 DUP10 SUB SLT ISZERO PUSH2 0x4436 JUMPI PUSH2 0x4435 PUSH2 0x3CA9 JUMP JUMPDEST JUMPDEST PUSH1 0x0 DUP8 ADD CALLDATALOAD PUSH8 0xFFFFFFFFFFFFFFFF DUP2 GT ISZERO PUSH2 0x4454 JUMPI PUSH2 0x4453 PUSH2 0x3CAE JUMP JUMPDEST JUMPDEST PUSH2 0x4460 DUP10 DUP3 DUP11 ADD PUSH2 0x4091 JUMP JUMPDEST SWAP7 POP SWAP7 POP POP PUSH1 0x20 DUP8 ADD CALLDATALOAD PUSH8 0xFFFFFFFFFFFFFFFF DUP2 GT ISZERO PUSH2 0x4483 JUMPI PUSH2 0x4482 PUSH2 0x3CAE JUMP JUMPDEST JUMPDEST PUSH2 0x448F DUP10 DUP3 DUP11 ADD PUSH2 0x4091 JUMP JUMPDEST SWAP5 POP SWAP5 POP POP PUSH1 0x40 DUP8 ADD CALLDATALOAD PUSH8 0xFFFFFFFFFFFFFFFF DUP2 GT ISZERO PUSH2 0x44B2 JUMPI PUSH2 0x44B1 PUSH2 0x3CAE JUMP JUMPDEST JUMPDEST PUSH2 0x44BE DUP10 DUP3 DUP11 ADD PUSH2 0x4091 JUMP JUMPDEST SWAP3 POP SWAP3 POP POP SWAP3 SWAP6 POP SWAP3 SWAP6 POP SWAP3 SWAP6 JUMP JUMPDEST PUSH2 0x44D6 DUP2 PUSH2 0x3E20 JUMP JUMPDEST DUP3 MSTORE POP POP JUMP JUMPDEST PUSH1 0x0 DUP3 DUP3 MSTORE PUSH1 0x20 DUP3 ADD SWAP1 POP SWAP3 SWAP2 POP POP JUMP JUMPDEST PUSH1 0x0 PUSH2 0x44F8 DUP3 PUSH2 0x3D6E JUMP JUMPDEST PUSH2 0x4502 DUP2 DUP6 PUSH2 0x44DC JUMP JUMPDEST SWAP4 POP PUSH2 0x4512 DUP2 DUP6 PUSH1 0x20 DUP7 ADD PUSH2 0x3D8A JUMP JUMPDEST PUSH2 0x451B DUP2 PUSH2 0x3DB4 JUMP JUMPDEST DUP5 ADD SWAP2 POP POP SWAP3 SWAP2 POP POP JUMP JUMPDEST PUSH1 0x0 DUP2 MLOAD SWAP1 POP SWAP2 SWAP1 POP JUMP JUMPDEST PUSH1 0x0 DUP3 DUP3 MSTORE PUSH1 0x20 DUP3 ADD SWAP1 POP SWAP3 SWAP2 POP POP JUMP JUMPDEST PUSH1 0x0 DUP2 SWAP1 POP PUSH1 0x20 DUP3 ADD SWAP1 POP SWAP2 SWAP1 POP JUMP JUMPDEST PUSH1 0x0 PUSH2 0x455E DUP4 DUP4 PUSH2 0x44CD JUMP JUMPDEST PUSH1 0x20 DUP4 ADD SWAP1 POP SWAP3 SWAP2 POP POP JUMP JUMPDEST PUSH1 0x0 PUSH1 0x20 DUP3 ADD SWAP1 POP SWAP2 SWAP1 POP JUMP JUMPDEST PUSH1 0x0 PUSH2 0x4582 DUP3 PUSH2 0x4526 JUMP JUMPDEST PUSH2 0x458C DUP2 DUP6 PUSH2 0x4531 JUMP JUMPDEST SWAP4 POP PUSH2 0x4597 DUP4 PUSH2 0x4542 JUMP JUMPDEST DUP1 PUSH1 0x0 JUMPDEST DUP4 DUP2 LT ISZERO PUSH2 0x45C8 JUMPI DUP2 MLOAD PUSH2 0x45AF DUP9 DUP3 PUSH2 0x4552 JUMP JUMPDEST SWAP8 POP PUSH2 0x45BA DUP4 PUSH2 0x456A JUMP JUMPDEST SWAP3 POP POP PUSH1 0x1 DUP2 ADD SWAP1 POP PUSH2 0x459B JUMP JUMPDEST POP DUP6 SWAP4 POP POP POP POP SWAP3 SWAP2 POP POP JUMP JUMPDEST PUSH2 0x45DE DUP2 PUSH2 0x3D38 JUMP JUMPDEST DUP3 MSTORE POP POP JUMP JUMPDEST PUSH1 0x0 PUSH2 0x100 DUP4 ADD PUSH1 0x0 DUP4 ADD MLOAD PUSH2 0x45FD PUSH1 0x0 DUP7 ADD DUP3 PUSH2 0x44CD JUMP JUMPDEST POP PUSH1 0x20 DUP4 ADD MLOAD PUSH2 0x4610 PUSH1 0x20 DUP7 ADD DUP3 PUSH2 0x44CD JUMP JUMPDEST POP PUSH1 0x40 DUP4 ADD MLOAD DUP5 DUP3 SUB PUSH1 0x40 DUP7 ADD MSTORE PUSH2 0x4628 DUP3 DUP3 PUSH2 0x44ED JUMP JUMPDEST SWAP2 POP POP PUSH1 0x60 DUP4 ADD MLOAD DUP5 DUP3 SUB PUSH1 0x60 DUP7 ADD MSTORE PUSH2 0x4642 DUP3 DUP3 PUSH2 0x44ED JUMP JUMPDEST SWAP2 POP POP PUSH1 0x80 DUP4 ADD MLOAD DUP5 DUP3 SUB PUSH1 0x80 DUP7 ADD MSTORE PUSH2 0x465C DUP3 DUP3 PUSH2 0x44ED JUMP JUMPDEST SWAP2 POP POP PUSH1 0xA0 DUP4 ADD MLOAD DUP5 DUP3 SUB PUSH1 0xA0 DUP7 ADD MSTORE PUSH2 0x4676 DUP3 DUP3 PUSH2 0x4577 JUMP JUMPDEST SWAP2 POP POP PUSH1 0xC0 DUP4 ADD MLOAD PUSH2 0x468B PUSH1 0xC0 DUP7 ADD DUP3 PUSH2 0x45D5 JUMP JUMPDEST POP PUSH1 0xE0 DUP4 ADD MLOAD PUSH2 0x469E PUSH1 0xE0 DUP7 ADD DUP3 PUSH2 0x45D5 JUMP JUMPDEST POP DUP1 SWAP2 POP POP SWAP3 SWAP2 POP POP JUMP JUMPDEST PUSH1 0x0 PUSH1 0x20 DUP3 ADD SWAP1 POP DUP2 DUP2 SUB PUSH1 0x0 DUP4 ADD MSTORE PUSH2 0x46C3 DUP2 DUP5 PUSH2 0x45E4 JUMP JUMPDEST SWAP1 POP SWAP3 SWAP2 POP POP JUMP JUMPDEST PUSH1 0x0 DUP1 PUSH1 0x40 DUP4 DUP6 SUB SLT ISZERO PUSH2 0x46E2 JUMPI PUSH2 0x46E1 PUSH2 0x3CA9 JUMP JUMPDEST JUMPDEST PUSH1 0x0 PUSH2 0x46F0 DUP6 DUP3 DUP7 ADD PUSH2 0x3EF6 JUMP JUMPDEST SWAP3 POP POP PUSH1 0x20 PUSH2 0x4701 DUP6 DUP3 DUP7 ADD PUSH2 0x40FE JUMP JUMPDEST SWAP2 POP POP SWAP3 POP SWAP3 SWAP1 POP JUMP JUMPDEST PUSH1 0x0 DUP1 REVERT JUMPDEST PUSH32 0x4E487B7100000000000000000000000000000000000000000000000000000000 PUSH1 0x0 MSTORE PUSH1 0x41 PUSH1 0x4 MSTORE PUSH1 0x24 PUSH1 0x0 REVERT JUMPDEST PUSH2 0x4748 DUP3 PUSH2 0x3DB4 JUMP JUMPDEST DUP2 ADD DUP2 DUP2 LT PUSH8 0xFFFFFFFFFFFFFFFF DUP3 GT OR ISZERO PUSH2 0x4767 JUMPI PUSH2 0x4766 PUSH2 0x4710 JUMP JUMPDEST JUMPDEST DUP1 PUSH1 0x40 MSTORE POP POP POP JUMP JUMPDEST PUSH1 0x0 PUSH2 0x477A PUSH2 0x3C9F JUMP JUMPDEST SWAP1 POP PUSH2 0x4786 DUP3 DUP3 PUSH2 0x473F JUMP JUMPDEST SWAP2 SWAP1 POP JUMP JUMPDEST PUSH1 0x0 PUSH8 0xFFFFFFFFFFFFFFFF DUP3 GT ISZERO PUSH2 0x47A6 JUMPI PUSH2 0x47A5 PUSH2 0x4710 JUMP JUMPDEST JUMPDEST PUSH2 0x47AF DUP3 PUSH2 0x3DB4 JUMP JUMPDEST SWAP1 POP PUSH1 0x20 DUP2 ADD SWAP1 POP SWAP2 SWAP1 POP JUMP JUMPDEST DUP3 DUP2 DUP4 CALLDATACOPY PUSH1 0x0 DUP4 DUP4 ADD MSTORE POP POP POP JUMP JUMPDEST PUSH1 0x0 PUSH2 0x47DE PUSH2 0x47D9 DUP5 PUSH2 0x478B JUMP JUMPDEST PUSH2 0x4770 JUMP JUMPDEST SWAP1 POP DUP3 DUP2 MSTORE PUSH1 0x20 DUP2 ADD DUP5 DUP5 DUP5 ADD GT ISZERO PUSH2 0x47FA JUMPI PUSH2 0x47F9 PUSH2 0x470B JUMP JUMPDEST JUMPDEST PUSH2 0x4805 DUP5 DUP3 DUP6 PUSH2 0x47BC JUMP JUMPDEST POP SWAP4 SWAP3 POP POP POP JUMP JUMPDEST PUSH1 0x0 DUP3 PUSH1 0x1F DUP4 ADD SLT PUSH2 0x4822 JUMPI PUSH2 0x4821 PUSH2 0x4082 JUMP JUMPDEST JUMPDEST DUP2 CALLDATALOAD PUSH2 0x4832 DUP5 DUP3 PUSH1 0x20 DUP7 ADD PUSH2 0x47CB JUMP JUMPDEST SWAP2 POP POP SWAP3 SWAP2 POP POP JUMP JUMPDEST PUSH1 0x0 DUP1 PUSH1 0x0 DUP1 PUSH1 0x80 DUP6 DUP8 SUB SLT ISZERO PUSH2 0x4855 JUMPI PUSH2 0x4854 PUSH2 0x3CA9 JUMP JUMPDEST JUMPDEST PUSH1 0x0 PUSH2 0x4863 DUP8 DUP3 DUP9 ADD PUSH2 0x3EF6 JUMP JUMPDEST SWAP5 POP POP PUSH1 0x20 PUSH2 0x4874 DUP8 DUP3 DUP9 ADD PUSH2 0x3EF6 JUMP JUMPDEST SWAP4 POP POP PUSH1 0x40 PUSH2 0x4885 DUP8 DUP3 DUP9 ADD PUSH2 0x3E41 JUMP JUMPDEST SWAP3 POP POP PUSH1 0x60 DUP6 ADD CALLDATALOAD PUSH8 0xFFFFFFFFFFFFFFFF DUP2 GT ISZERO PUSH2 0x48A6 JUMPI PUSH2 0x48A5 PUSH2 0x3CAE JUMP JUMPDEST JUMPDEST PUSH2 0x48B2 DUP8 DUP3 DUP9 ADD PUSH2 0x480D JUMP JUMPDEST SWAP2 POP POP SWAP3 SWAP6 SWAP2 SWAP5 POP SWAP3 POP JUMP JUMPDEST PUSH1 0x0 DUP1 PUSH1 0x40 DUP4 DUP6 SUB SLT ISZERO PUSH2 0x48D5 JUMPI PUSH2 0x48D4 PUSH2 0x3CA9 JUMP JUMPDEST JUMPDEST PUSH1 0x0 PUSH2 0x48E3 DUP6 DUP3 DUP7 ADD PUSH2 0x3EF6 JUMP JUMPDEST SWAP3 POP POP PUSH1 0x20 PUSH2 0x48F4 DUP6 DUP3 DUP7 ADD PUSH2 0x3EF6 JUMP JUMPDEST SWAP2 POP POP SWAP3 POP SWAP3 SWAP1 POP JUMP JUMPDEST PUSH1 0x0 PUSH1 0xE0 DUP4 ADD PUSH1 0x0 DUP4 ADD MLOAD PUSH2 0x4916 PUSH1 0x0 DUP7 ADD DUP3 PUSH2 0x44CD JUMP JUMPDEST POP PUSH1 0x20 DUP4 ADD MLOAD PUSH2 0x4929 PUSH1 0x20 DUP7 ADD DUP3 PUSH2 0x44CD JUMP JUMPDEST POP PUSH1 0x40 DUP4 ADD MLOAD DUP5 DUP3 SUB PUSH1 0x40 DUP7 ADD MSTORE PUSH2 0x4941 DUP3 DUP3 PUSH2 0x44ED JUMP JUMPDEST SWAP2 POP POP PUSH1 0x60 DUP4 ADD MLOAD DUP5 DUP3 SUB PUSH1 0x60 DUP7 ADD MSTORE PUSH2 0x495B DUP3 DUP3 PUSH2 0x44ED JUMP JUMPDEST SWAP2 POP POP PUSH1 0x80 DUP4 ADD MLOAD DUP5 DUP3 SUB PUSH1 0x80 DUP7 ADD MSTORE PUSH2 0x4975 DUP3 DUP3 PUSH2 0x44ED JUMP JUMPDEST SWAP2 POP POP PUSH1 0xA0 DUP4 ADD MLOAD PUSH2 0x498A PUSH1 0xA0 DUP7 ADD DUP3 PUSH2 0x45D5 JUMP JUMPDEST POP PUSH1 0xC0 DUP4 ADD MLOAD DUP5 DUP3 SUB PUSH1 0xC0 DUP7 ADD MSTORE PUSH2 0x49A2 DUP3 DUP3 PUSH2 0x4577 JUMP JUMPDEST SWAP2 POP POP DUP1 SWAP2 POP POP SWAP3 SWAP2 POP POP JUMP JUMPDEST PUSH1 0x0 PUSH1 0x20 DUP3 ADD SWAP1 POP DUP2 DUP2 SUB PUSH1 0x0 DUP4 ADD MSTORE PUSH2 0x49C9 DUP2 DUP5 PUSH2 0x48FE JUMP JUMPDEST SWAP1 POP SWAP3 SWAP2 POP POP JUMP JUMPDEST PUSH32 0x4E487B7100000000000000000000000000000000000000000000000000000000 PUSH1 0x0 MSTORE PUSH1 0x22 PUSH1 0x4 MSTORE PUSH1 0x24 PUSH1 0x0 REVERT JUMPDEST PUSH1 0x0 PUSH1 0x2 DUP3 DIV SWAP1 POP PUSH1 0x1 DUP3 AND DUP1 PUSH2 0x4A18 JUMPI PUSH1 0x7F DUP3 AND SWAP2 POP JUMPDEST PUSH1 0x20 DUP3 LT DUP2 SUB PUSH2 0x4A2B JUMPI PUSH2 0x4A2A PUSH2 0x49D1 JUMP JUMPDEST JUMPDEST POP SWAP2 SWAP1 POP JUMP JUMPDEST PUSH1 0x0 DUP2 MLOAD SWAP1 POP PUSH2 0x4A40 DUP2 PUSH2 0x40E7 JUMP JUMPDEST SWAP3 SWAP2 POP POP JUMP JUMPDEST PUSH1 0x0 PUSH1 0x20 DUP3 DUP5 SUB SLT ISZERO PUSH2 0x4A5C JUMPI PUSH2 0x4A5B PUSH2 0x3CA9 JUMP JUMPDEST JUMPDEST PUSH1 0x0 PUSH2 0x4A6A DUP5 DUP3 DUP6 ADD PUSH2 0x4A31 JUMP JUMPDEST SWAP2 POP POP SWAP3 SWAP2 POP POP JUMP JUMPDEST PUSH1 0x0 PUSH1 0x40 DUP3 ADD SWAP1 POP PUSH2 0x4A88 PUSH1 0x0 DUP4 ADD DUP6 PUSH2 0x3EB5 JUMP JUMPDEST PUSH2 0x4A95 PUSH1 0x20 DUP4 ADD DUP5 PUSH2 0x3FAC JUMP JUMPDEST SWAP4 SWAP3 POP POP POP JUMP JUMPDEST PUSH1 0x0 DUP2 MLOAD SWAP1 POP PUSH2 0x4AAB DUP2 PUSH2 0x3E2A JUMP JUMPDEST SWAP3 SWAP2 POP POP JUMP JUMPDEST PUSH1 0x0 PUSH1 0x20 DUP3 DUP5 SUB SLT ISZERO PUSH2 0x4AC7 JUMPI PUSH2 0x4AC6 PUSH2 0x3CA9 JUMP JUMPDEST JUMPDEST PUSH1 0x0 PUSH2 0x4AD5 DUP5 DUP3 DUP6 ADD PUSH2 0x4A9C JUMP JUMPDEST SWAP2 POP POP SWAP3 SWAP2 POP POP JUMP JUMPDEST PUSH1 0x0 PUSH1 0x60 DUP3 ADD SWAP1 POP PUSH2 0x4AF3 PUSH1 0x0 DUP4 ADD DUP7 PUSH2 0x3EB5 JUMP JUMPDEST PUSH2 0x4B00 PUSH1 0x20 DUP4 ADD DUP6 PUSH2 0x3FAC JUMP JUMPDEST PUSH2 0x4B0D PUSH1 0x40 DUP4 ADD DUP5 PUSH2 0x3EB5 JUMP JUMPDEST SWAP5 SWAP4 POP POP POP POP JUMP JUMPDEST PUSH1 0x0 DUP1 REVERT JUMPDEST PUSH1 0x0 DUP1 REVERT JUMPDEST PUSH1 0x0 PUSH8 0xFFFFFFFFFFFFFFFF DUP3 GT ISZERO PUSH2 0x4B3A JUMPI PUSH2 0x4B39 PUSH2 0x4710 JUMP JUMPDEST JUMPDEST PUSH2 0x4B43 DUP3 PUSH2 0x3DB4 JUMP JUMPDEST SWAP1 POP PUSH1 0x20 DUP2 ADD SWAP1 POP SWAP2 SWAP1 POP JUMP JUMPDEST PUSH1 0x0 PUSH2 0x4B63 PUSH2 0x4B5E DUP5 PUSH2 0x4B1F JUMP JUMPDEST PUSH2 0x4770 JUMP JUMPDEST SWAP1 POP DUP3 DUP2 MSTORE PUSH1 0x20 DUP2 ADD DUP5 DUP5 DUP5 ADD GT ISZERO PUSH2 0x4B7F JUMPI PUSH2 0x4B7E PUSH2 0x470B JUMP JUMPDEST JUMPDEST PUSH2 0x4B8A DUP5 DUP3 DUP6 PUSH2 0x3D8A JUMP JUMPDEST POP SWAP4 SWAP3 POP POP POP JUMP JUMPDEST PUSH1 0x0 DUP3 PUSH1 0x1F DUP4 ADD SLT PUSH2 0x4BA7 JUMPI PUSH2 0x4BA6 PUSH2 0x4082 JUMP JUMPDEST JUMPDEST DUP2 MLOAD PUSH2 0x4BB7 DUP5 DUP3 PUSH1 0x20 DUP7 ADD PUSH2 0x4B50 JUMP JUMPDEST SWAP2 POP POP SWAP3 SWAP2 POP POP JUMP JUMPDEST PUSH1 0x0 PUSH8 0xFFFFFFFFFFFFFFFF DUP3 GT ISZERO PUSH2 0x4BDB JUMPI PUSH2 0x4BDA PUSH2 0x4710 JUMP JUMPDEST JUMPDEST PUSH1 0x20 DUP3 MUL SWAP1 POP PUSH1 0x20 DUP2 ADD SWAP1 POP SWAP2 SWAP1 POP JUMP JUMPDEST PUSH1 0x0 PUSH2 0x4BFF PUSH2 0x4BFA DUP5 PUSH2 0x4BC0 JUMP JUMPDEST PUSH2 0x4770 JUMP JUMPDEST SWAP1 POP DUP1 DUP4 DUP3 MSTORE PUSH1 0x20 DUP3 ADD SWAP1 POP PUSH1 0x20 DUP5 MUL DUP4 ADD DUP6 DUP2 GT ISZERO PUSH2 0x4C22 JUMPI PUSH2 0x4C21 PUSH2 0x408C JUMP JUMPDEST JUMPDEST DUP4 JUMPDEST DUP2 DUP2 LT ISZERO PUSH2 0x4C4B JUMPI DUP1 PUSH2 0x4C37 DUP9 DUP3 PUSH2 0x4A9C JUMP JUMPDEST DUP5 MSTORE PUSH1 0x20 DUP5 ADD SWAP4 POP POP PUSH1 0x20 DUP2 ADD SWAP1 POP PUSH2 0x4C24 JUMP JUMPDEST POP POP POP SWAP4 SWAP3 POP POP POP JUMP JUMPDEST PUSH1 0x0 DUP3 PUSH1 0x1F DUP4 ADD SLT PUSH2 0x4C6A JUMPI PUSH2 0x4C69 PUSH2 0x4082 JUMP JUMPDEST JUMPDEST DUP2 MLOAD PUSH2 0x4C7A DUP5 DUP3 PUSH1 0x20 DUP7 ADD PUSH2 0x4BEC JUMP JUMPDEST SWAP2 POP POP SWAP3 SWAP2 POP POP JUMP JUMPDEST PUSH1 0x0 PUSH2 0x100 DUP3 DUP5 SUB SLT ISZERO PUSH2 0x4C9A JUMPI PUSH2 0x4C99 PUSH2 0x4B15 JUMP JUMPDEST JUMPDEST PUSH2 0x4CA5 PUSH2 0x100 PUSH2 0x4770 JUMP JUMPDEST SWAP1 POP PUSH1 0x0 PUSH2 0x4CB5 DUP5 DUP3 DUP6 ADD PUSH2 0x4A9C JUMP JUMPDEST PUSH1 0x0 DUP4 ADD MSTORE POP PUSH1 0x20 PUSH2 0x4CC9 DUP5 DUP3 DUP6 ADD PUSH2 0x4A9C JUMP JUMPDEST PUSH1 0x20 DUP4 ADD MSTORE POP PUSH1 0x40 DUP3 ADD MLOAD PUSH8 0xFFFFFFFFFFFFFFFF DUP2 GT ISZERO PUSH2 0x4CED JUMPI PUSH2 0x4CEC PUSH2 0x4B1A JUMP JUMPDEST JUMPDEST PUSH2 0x4CF9 DUP5 DUP3 DUP6 ADD PUSH2 0x4B92 JUMP JUMPDEST PUSH1 0x40 DUP4 ADD MSTORE POP PUSH1 0x60 DUP3 ADD MLOAD PUSH8 0xFFFFFFFFFFFFFFFF DUP2 GT ISZERO PUSH2 0x4D1D JUMPI PUSH2 0x4D1C PUSH2 0x4B1A JUMP JUMPDEST JUMPDEST PUSH2 0x4D29 DUP5 DUP3 DUP6 ADD PUSH2 0x4B92 JUMP JUMPDEST PUSH1 0x60 DUP4 ADD MSTORE POP PUSH1 0x80 DUP3 ADD MLOAD PUSH8 0xFFFFFFFFFFFFFFFF DUP2 GT ISZERO PUSH2 0x4D4D JUMPI PUSH2 0x4D4C PUSH2 0x4B1A JUMP JUMPDEST JUMPDEST PUSH2 0x4D59 DUP5 DUP3 DUP6 ADD PUSH2 0x4B92 JUMP JUMPDEST PUSH1 0x80 DUP4 ADD MSTORE POP PUSH1 0xA0 DUP3 ADD MLOAD PUSH8 0xFFFFFFFFFFFFFFFF DUP2 GT ISZERO PUSH2 0x4D7D JUMPI PUSH2 0x4D7C PUSH2 0x4B1A JUMP JUMPDEST JUMPDEST PUSH2 0x4D89 DUP5 DUP3 DUP6 ADD PUSH2 0x4C55 JUMP JUMPDEST PUSH1 0xA0 DUP4 ADD MSTORE POP PUSH1 0xC0 PUSH2 0x4D9D DUP5 DUP3 DUP6 ADD PUSH2 0x4A31 JUMP JUMPDEST PUSH1 0xC0 DUP4 ADD MSTORE POP PUSH1 0xE0 PUSH2 0x4DB1 DUP5 DUP3 DUP6 ADD PUSH2 0x4A31 JUMP JUMPDEST PUSH1 0xE0 DUP4 ADD MSTORE POP SWAP3 SWAP2 POP POP JUMP JUMPDEST PUSH1 0x0 PUSH1 0x20 DUP3 DUP5 SUB SLT ISZERO PUSH2 0x4DD3 JUMPI PUSH2 0x4DD2 PUSH2 0x3CA9 JUMP JUMPDEST JUMPDEST PUSH1 0x0 DUP3 ADD MLOAD PUSH8 0xFFFFFFFFFFFFFFFF DUP2 GT ISZERO PUSH2 0x4DF1 JUMPI PUSH2 0x4DF0 PUSH2 0x3CAE JUMP JUMPDEST JUMPDEST PUSH2 0x4DFD DUP5 DUP3 DUP6 ADD PUSH2 0x4C83 JUMP JUMPDEST SWAP2 POP POP SWAP3 SWAP2 POP POP JUMP JUMPDEST PUSH1 0x0 PUSH2 0x4E12 DUP4 DUP6 PUSH2 0x3D79 JUMP JUMPDEST SWAP4 POP PUSH2 0x4E1F DUP4 DUP6 DUP5 PUSH2 0x47BC JUMP JUMPDEST PUSH2 0x4E28 DUP4 PUSH2 0x3DB4 JUMP JUMPDEST DUP5 ADD SWAP1 POP SWAP4 SWAP3 POP POP POP JUMP JUMPDEST PUSH1 0x0 PUSH1 0xA0 DUP3 ADD SWAP1 POP PUSH2 0x4E48 PUSH1 0x0 DUP4 ADD DUP12 PUSH2 0x3EB5 JUMP JUMPDEST DUP2 DUP2 SUB PUSH1 0x20 DUP4 ADD MSTORE PUSH2 0x4E5B DUP2 DUP10 DUP12 PUSH2 0x4E06 JUMP JUMPDEST SWAP1 POP DUP2 DUP2 SUB PUSH1 0x40 DUP4 ADD MSTORE PUSH2 0x4E70 DUP2 DUP8 DUP10 PUSH2 0x4E06 JUMP JUMPDEST SWAP1 POP DUP2 DUP2 SUB PUSH1 0x60 DUP4 ADD MSTORE PUSH2 0x4E85 DUP2 DUP6 DUP8 PUSH2 0x4E06 JUMP JUMPDEST SWAP1 POP PUSH2 0x4E94 PUSH1 0x80 DUP4 ADD DUP5 PUSH2 0x3D44 JUMP JUMPDEST SWAP10 SWAP9 POP POP POP POP POP POP POP POP POP JUMP JUMPDEST PUSH32 0x4E487B7100000000000000000000000000000000000000000000000000000000 PUSH1 0x0 MSTORE PUSH1 0x11 PUSH1 0x4 MSTORE PUSH1 0x24 PUSH1 0x0 REVERT JUMPDEST PUSH1 0x0 PUSH2 0x4EDB DUP3 PUSH2 0x3E20 JUMP JUMPDEST SWAP2 POP PUSH32 0xFFFFFFFFFFFFFFFFFFFFFFFFFFFFFFFFFFFFFFFFFFFFFFFFFFFFFFFFFFFFFFFF DUP3 SUB PUSH2 0x4F0D JUMPI PUSH2 0x4F0C PUSH2 0x4EA1 JUMP JUMPDEST JUMPDEST PUSH1 0x1 DUP3 ADD SWAP1 POP SWAP2 SWAP1 POP JUMP JUMPDEST PUSH1 0x0 DUP3 DUP3 MSTORE PUSH1 0x20 DUP3 ADD SWAP1 POP SWAP3 SWAP2 POP POP JUMP JUMPDEST PUSH1 0x0 DUP2 SWAP1 POP SWAP2 SWAP1 POP JUMP JUMPDEST PUSH2 0x4F3C DUP2 PUSH2 0x4272 JUMP JUMPDEST DUP3 MSTORE POP POP JUMP JUMPDEST PUSH1 0x0 PUSH2 0x4F4E DUP4 DUP4 PUSH2 0x4F33 JUMP JUMPDEST PUSH1 0x20 DUP4 ADD SWAP1 POP SWAP3 SWAP2 POP POP JUMP JUMPDEST PUSH1 0x0 PUSH2 0x4F69 PUSH1 0x20 DUP5 ADD DUP5 PUSH2 0x4296 JUMP JUMPDEST SWAP1 POP SWAP3 SWAP2 POP POP JUMP JUMPDEST PUSH1 0x0 PUSH1 0x20 DUP3 ADD SWAP1 POP SWAP2 SWAP1 POP JUMP JUMPDEST PUSH1 0x0 PUSH2 0x4F8A DUP4 DUP6 PUSH2 0x4F18 JUMP JUMPDEST SWAP4 POP PUSH2 0x4F95 DUP3 PUSH2 0x4F29 JUMP JUMPDEST DUP1 PUSH1 0x0 JUMPDEST DUP6 DUP2 LT ISZERO PUSH2 0x4FCE JUMPI PUSH2 0x4FAB DUP3 DUP5 PUSH2 0x4F5A JUMP JUMPDEST PUSH2 0x4FB5 DUP9 DUP3 PUSH2 0x4F42 JUMP JUMPDEST SWAP8 POP PUSH2 0x4FC0 DUP4 PUSH2 0x4F71 JUMP JUMPDEST SWAP3 POP POP PUSH1 0x1 DUP2 ADD SWAP1 POP PUSH2 0x4F99 JUMP JUMPDEST POP DUP6 SWAP3 POP POP POP SWAP4 SWAP3 POP POP POP JUMP JUMPDEST PUSH2 0x4FE4 DUP2 PUSH2 0x4272 JUMP JUMPDEST DUP3 MSTORE POP POP JUMP JUMPDEST PUSH32 0x4E487B7100000000000000000000000000000000000000000000000000000000 PUSH1 0x0 MSTORE PUSH1 0x21 PUSH1 0x4 MSTORE PUSH1 0x24 PUSH1 0x0 REVERT JUMPDEST PUSH1 0x4 DUP2 LT PUSH2 0x502A JUMPI PUSH2 0x5029 PUSH2 0x4FEA JUMP JUMPDEST JUMPDEST POP JUMP JUMPDEST PUSH1 0x0 DUP2 SWAP1 POP PUSH2 0x503B DUP3 PUSH2 0x5019 JUMP JUMPDEST SWAP2 SWAP1 POP JUMP JUMPDEST PUSH1 0x0 PUSH2 0x504B DUP3 PUSH2 0x502D JUMP JUMPDEST SWAP1 POP SWAP2 SWAP1 POP JUMP JUMPDEST PUSH2 0x505B DUP2 PUSH2 0x5040 JUMP JUMPDEST DUP3 MSTORE POP POP JUMP JUMPDEST PUSH1 0x5 DUP2 LT PUSH2 0x5072 JUMPI PUSH2 0x5071 PUSH2 0x4FEA JUMP JUMPDEST JUMPDEST POP JUMP JUMPDEST PUSH1 0x0 DUP2 SWAP1 POP PUSH2 0x5083 DUP3 PUSH2 0x5061 JUMP JUMPDEST SWAP2 SWAP1 POP JUMP JUMPDEST PUSH1 0x0 PUSH2 0x5093 DUP3 PUSH2 0x5075 JUMP JUMPDEST SWAP1 POP SWAP2 SWAP1 POP JUMP JUMPDEST PUSH2 0x50A3 DUP2 PUSH2 0x5088 JUMP JUMPDEST DUP3 MSTORE POP POP JUMP JUMPDEST PUSH1 0x0 PUSH1 0xE0 DUP3 ADD SWAP1 POP DUP2 DUP2 SUB PUSH1 0x0 DUP4 ADD MSTORE PUSH2 0x50C4 DUP2 DUP14 DUP16 PUSH2 0x4F7E JUMP JUMPDEST SWAP1 POP DUP2 DUP2 SUB PUSH1 0x20 DUP4 ADD MSTORE PUSH2 0x50D9 DUP2 DUP12 DUP14 PUSH2 0x4F7E JUMP JUMPDEST SWAP1 POP PUSH2 0x50E8 PUSH1 0x40 DUP4 ADD DUP11 PUSH2 0x4FDB JUMP JUMPDEST DUP2 DUP2 SUB PUSH1 0x60 DUP4 ADD MSTORE PUSH2 0x50FB DUP2 DUP9 DUP11 PUSH2 0x4E06 JUMP JUMPDEST SWAP1 POP PUSH2 0x510A PUSH1 0x80 DUP4 ADD DUP8 PUSH2 0x5052 JUMP JUMPDEST DUP2 DUP2 SUB PUSH1 0xA0 DUP4 ADD MSTORE PUSH2 0x511D DUP2 DUP6 DUP8 PUSH2 0x4E06 JUMP JUMPDEST SWAP1 POP PUSH2 0x512C PUSH1 0xC0 DUP4 ADD DUP5 PUSH2 0x509A JUMP JUMPDEST SWAP13 SWAP12 POP POP POP POP POP POP POP POP POP POP POP POP JUMP JUMPDEST PUSH32 0x4E487B7100000000000000000000000000000000000000000000000000000000 PUSH1 0x0 MSTORE PUSH1 0x32 PUSH1 0x4 MSTORE PUSH1 0x24 PUSH1 0x0 REVERT JUMPDEST PUSH1 0x0 PUSH1 0xC0 DUP3 ADD SWAP1 POP PUSH2 0x5180 PUSH1 0x0 DUP4 ADD DUP13 PUSH2 0x3EB5 JUMP JUMPDEST DUP2 DUP2 SUB PUSH1 0x20 DUP4 ADD MSTORE PUSH2 0x5193 DUP2 DUP11 DUP13 PUSH2 0x4E06 JUMP JUMPDEST SWAP1 POP DUP2 DUP2 SUB PUSH1 0x40 DUP4 ADD MSTORE PUSH2 0x51A8 DUP2 DUP9 DUP11 PUSH2 0x4E06 JUMP JUMPDEST SWAP1 POP DUP2 DUP2 SUB PUSH1 0x60 DUP4 ADD MSTORE PUSH2 0x51BD DUP2 DUP7 DUP9 PUSH2 0x4E06 JUMP JUMPDEST SWAP1 POP PUSH2 0x51CC PUSH1 0x80 DUP4 ADD DUP6 PUSH2 0x3D44 JUMP JUMPDEST PUSH2 0x51D9 PUSH1 0xA0 DUP4 ADD DUP5 PUSH2 0x3D44 JUMP JUMPDEST SWAP11 SWAP10 POP POP POP POP POP POP POP POP POP POP JUMP JUMPDEST PUSH1 0x0 DUP2 SWAP1 POP SWAP3 SWAP2 POP POP JUMP JUMPDEST PUSH1 0x0 PUSH2 0x51FD DUP3 PUSH2 0x3D6E JUMP JUMPDEST PUSH2 0x5207 DUP2 DUP6 PUSH2 0x51E7 JUMP JUMPDEST SWAP4 POP PUSH2 0x5217 DUP2 DUP6 PUSH1 0x20 DUP7 ADD PUSH2 0x3D8A JUMP JUMPDEST DUP1 DUP5 ADD SWAP2 POP POP SWAP3 SWAP2 POP POP JUMP JUMPDEST PUSH1 0x0 PUSH2 0x522F DUP3 DUP9 PUSH2 0x51F2 JUMP JUMPDEST SWAP2 POP PUSH2 0x523B DUP3 DUP8 PUSH2 0x51F2 JUMP JUMPDEST SWAP2 POP PUSH2 0x5247 DUP3 DUP7 PUSH2 0x51F2 JUMP JUMPDEST SWAP2 POP PUSH2 0x5253 DUP3 DUP6 PUSH2 0x51F2 JUMP JUMPDEST SWAP2 POP PUSH2 0x525F DUP3 DUP5 PUSH2 0x51F2 JUMP JUMPDEST SWAP2 POP DUP2 SWAP1 POP SWAP7 SWAP6 POP POP POP POP POP POP JUMP JUMPDEST PUSH1 0x0 PUSH2 0x527A DUP3 DUP6 PUSH2 0x51F2 JUMP JUMPDEST SWAP2 POP PUSH2 0x5286 DUP3 DUP5 PUSH2 0x51F2 JUMP JUMPDEST SWAP2 POP DUP2 SWAP1 POP SWAP4 SWAP3 POP POP POP JUMP JUMPDEST PUSH1 0x0 PUSH1 0xE0 DUP3 DUP5 SUB SLT ISZERO PUSH2 0x52A8 JUMPI PUSH2 0x52A7 PUSH2 0x4B15 JUMP JUMPDEST JUMPDEST PUSH2 0x52B2 PUSH1 0xE0 PUSH2 0x4770 JUMP JUMPDEST SWAP1 POP PUSH1 0x0 PUSH2 0x52C2 DUP5 DUP3 DUP6 ADD PUSH2 0x4A9C JUMP JUMPDEST PUSH1 0x0 DUP4 ADD MSTORE POP PUSH1 0x20 PUSH2 0x52D6 DUP5 DUP3 DUP6 ADD PUSH2 0x4A9C JUMP JUMPDEST PUSH1 0x20 DUP4 ADD MSTORE POP PUSH1 0x40 DUP3 ADD MLOAD PUSH8 0xFFFFFFFFFFFFFFFF DUP2 GT ISZERO PUSH2 0x52FA JUMPI PUSH2 0x52F9 PUSH2 0x4B1A JUMP JUMPDEST JUMPDEST PUSH2 0x5306 DUP5 DUP3 DUP6 ADD PUSH2 0x4B92 JUMP JUMPDEST PUSH1 0x40 DUP4 ADD MSTORE POP PUSH1 0x60 DUP3 ADD MLOAD PUSH8 0xFFFFFFFFFFFFFFFF DUP2 GT ISZERO PUSH2 0x532A JUMPI PUSH2 0x5329 PUSH2 0x4B1A JUMP JUMPDEST JUMPDEST PUSH2 0x5336 DUP5 DUP3 DUP6 ADD PUSH2 0x4B92 JUMP JUMPDEST PUSH1 0x60 DUP4 ADD MSTORE POP PUSH1 0x80 DUP3 ADD MLOAD PUSH8 0xFFFFFFFFFFFFFFFF DUP2 GT ISZERO PUSH2 0x535A JUMPI PUSH2 0x5359 PUSH2 0x4B1A JUMP JUMPDEST JUMPDEST PUSH2 0x5366 DUP5 DUP3 DUP6 ADD PUSH2 0x4B92 JUMP JUMPDEST PUSH1 0x80 DUP4 ADD MSTORE POP PUSH1 0xA0 PUSH2 0x537A DUP5 DUP3 DUP6 ADD PUSH2 0x4A31 JUMP JUMPDEST PUSH1 0xA0 DUP4 ADD MSTORE POP PUSH1 0xC0 DUP3 ADD MLOAD PUSH8 0xFFFFFFFFFFFFFFFF DUP2 GT ISZERO PUSH2 0x539E JUMPI PUSH2 0x539D PUSH2 0x4B1A JUMP JUMPDEST JUMPDEST PUSH2 0x53AA DUP5 DUP3 DUP6 ADD PUSH2 0x4C55 JUMP JUMPDEST PUSH1 0xC0 DUP4 ADD MSTORE POP SWAP3 SWAP2 POP POP JUMP JUMPDEST PUSH1 0x0 PUSH1 0x20 DUP3 DUP5 SUB SLT ISZERO PUSH2 0x53CC JUMPI PUSH2 0x53CB PUSH2 0x3CA9 JUMP JUMPDEST JUMPDEST PUSH1 0x0 DUP3 ADD MLOAD PUSH8 0xFFFFFFFFFFFFFFFF DUP2 GT ISZERO PUSH2 0x53EA JUMPI PUSH2 0x53E9 PUSH2 0x3CAE JUMP JUMPDEST JUMPDEST PUSH2 0x53F6 DUP5 DUP3 DUP6 ADD PUSH2 0x5292 JUMP JUMPDEST SWAP2 POP POP SWAP3 SWAP2 POP POP JUMP JUMPDEST PUSH1 0x0 DUP2 MLOAD SWAP1 POP SWAP2 SWAP1 POP JUMP JUMPDEST PUSH1 0x0 DUP3 DUP3 MSTORE PUSH1 0x20 DUP3 ADD SWAP1 POP SWAP3 SWAP2 POP POP JUMP JUMPDEST PUSH1 0x0 PUSH2 0x5426 DUP3 PUSH2 0x53FF JUMP JUMPDEST PUSH2 0x5430 DUP2 DUP6 PUSH2 0x540A JUMP JUMPDEST SWAP4 POP PUSH2 0x5440 DUP2 DUP6 PUSH1 0x20 DUP7 ADD PUSH2 0x3D8A JUMP JUMPDEST PUSH2 0x5449 DUP2 PUSH2 0x3DB4 JUMP JUMPDEST DUP5 ADD SWAP2 POP POP SWAP3 SWAP2 POP POP JUMP JUMPDEST PUSH1 0x0 PUSH1 0x80 DUP3 ADD SWAP1 POP PUSH2 0x5469 PUSH1 0x0 DUP4 ADD DUP8 PUSH2 0x3EB5 JUMP JUMPDEST PUSH2 0x5476 PUSH1 0x20 DUP4 ADD DUP7 PUSH2 0x3EB5 JUMP JUMPDEST PUSH2 0x5483 PUSH1 0x40 DUP4 ADD DUP6 PUSH2 0x3FAC JUMP JUMPDEST DUP2 DUP2 SUB PUSH1 0x60 DUP4 ADD MSTORE PUSH2 0x5495 DUP2 DUP5 PUSH2 0x541B JUMP JUMPDEST SWAP1 POP SWAP6 SWAP5 POP POP POP POP POP JUMP JUMPDEST PUSH1 0x0 DUP2 MLOAD SWAP1 POP PUSH2 0x54AF DUP2 PUSH2 0x3CDF JUMP JUMPDEST SWAP3 SWAP2 POP POP JUMP JUMPDEST PUSH1 0x0 PUSH1 0x20 DUP3 DUP5 SUB SLT ISZERO PUSH2 0x54CB JUMPI PUSH2 0x54CA PUSH2 0x3CA9 JUMP JUMPDEST JUMPDEST PUSH1 0x0 PUSH2 0x54D9 DUP5 DUP3 DUP6 ADD PUSH2 0x54A0 JUMP JUMPDEST SWAP2 POP POP SWAP3 SWAP2 POP POP JUMP JUMPDEST PUSH32 0x4E487B7100000000000000000000000000000000000000000000000000000000 PUSH1 0x0 MSTORE PUSH1 0x12 PUSH1 0x4 MSTORE PUSH1 0x24 PUSH1 0x0 REVERT JUMPDEST PUSH1 0x0 PUSH2 0x551D DUP3 DUP10 PUSH2 0x51F2 JUMP JUMPDEST SWAP2 POP PUSH2 0x5529 DUP3 DUP9 PUSH2 0x51F2 JUMP JUMPDEST SWAP2 POP PUSH2 0x5535 DUP3 DUP8 PUSH2 0x51F2 JUMP JUMPDEST SWAP2 POP PUSH2 0x5541 DUP3 DUP7 PUSH2 0x51F2 JUMP JUMPDEST SWAP2 POP PUSH2 0x554D DUP3 DUP6 PUSH2 0x51F2 JUMP JUMPDEST SWAP2 POP PUSH2 0x5559 DUP3 DUP5 PUSH2 0x51F2 JUMP JUMPDEST SWAP2 POP DUP2 SWAP1 POP SWAP8 SWAP7 POP POP POP POP POP POP POP JUMP JUMPDEST PUSH1 0x0 PUSH2 0x5575 DUP3 DUP12 PUSH2 0x51F2 JUMP JUMPDEST SWAP2 POP PUSH2 0x5581 DUP3 DUP11 PUSH2 0x51F2 JUMP JUMPDEST SWAP2 POP PUSH2 0x558D DUP3 DUP10 PUSH2 0x51F2 JUMP JUMPDEST SWAP2 POP PUSH2 0x5599 DUP3 DUP9 PUSH2 0x51F2 JUMP JUMPDEST SWAP2 POP PUSH2 0x55A5 DUP3 DUP8 PUSH2 0x51F2 JUMP JUMPDEST SWAP2 POP PUSH2 0x55B1 DUP3 DUP7 PUSH2 0x51F2 JUMP JUMPDEST SWAP2 POP PUSH2 0x55BD DUP3 DUP6 PUSH2 0x51F2 JUMP JUMPDEST SWAP2 POP PUSH2 0x55C9 DUP3 DUP5 PUSH2 0x51F2 JUMP JUMPDEST SWAP2 POP DUP2 SWAP1 POP SWAP10 SWAP9 POP POP POP POP POP POP POP POP POP JUMP JUMPDEST PUSH1 0x0 PUSH2 0x55E7 DUP3 DUP8 PUSH2 0x51F2 JUMP JUMPDEST SWAP2 POP PUSH2 0x55F3 DUP3 DUP7 PUSH2 0x51F2 JUMP JUMPDEST SWAP2 POP PUSH2 0x55FF DUP3 DUP6 PUSH2 0x51F2 JUMP JUMPDEST SWAP2 POP PUSH2 0x560B DUP3 DUP5 PUSH2 0x51F2 JUMP JUMPDEST SWAP2 POP DUP2 SWAP1 POP SWAP6 SWAP5 POP POP POP POP POP JUMP JUMPDEST PUSH1 0x0 PUSH2 0x5624 DUP3 PUSH2 0x3E20 JUMP JUMPDEST SWAP2 POP PUSH2 0x562F DUP4 PUSH2 0x3E20 JUMP JUMPDEST SWAP3 POP DUP3 DUP3 ADD SWAP1 POP DUP1 DUP3 GT ISZERO PUSH2 0x5647 JUMPI PUSH2 0x5646 PUSH2 0x4EA1 JUMP JUMPDEST JUMPDEST SWAP3 SWAP2 POP POP JUMP JUMPDEST PUSH1 0x0 PUSH2 0x5658 DUP3 PUSH2 0x3E20 JUMP JUMPDEST SWAP2 POP PUSH2 0x5663 DUP4 PUSH2 0x3E20 JUMP JUMPDEST SWAP3 POP DUP3 PUSH2 0x5673 JUMPI PUSH2 0x5672 PUSH2 0x54E2 JUMP JUMPDEST JUMPDEST DUP3 DUP3 DIV SWAP1 POP SWAP3 SWAP2 POP POP JUMP JUMPDEST PUSH1 0x0 PUSH2 0x5689 DUP3 PUSH2 0x3E20 JUMP JUMPDEST SWAP2 POP PUSH2 0x5694 DUP4 PUSH2 0x3E20 JUMP JUMPDEST SWAP3 POP DUP3 DUP3 MUL PUSH2 0x56A2 DUP2 PUSH2 0x3E20 JUMP JUMPDEST SWAP2 POP DUP3 DUP3 DIV DUP5 EQ DUP4 ISZERO OR PUSH2 0x56B9 JUMPI PUSH2 0x56B8 PUSH2 0x4EA1 JUMP JUMPDEST JUMPDEST POP SWAP3 SWAP2 POP POP JUMP JUMPDEST PUSH1 0x0 PUSH1 0x40 DUP3 ADD SWAP1 POP PUSH2 0x56D5 PUSH1 0x0 DUP4 ADD DUP6 PUSH2 0x3EB5 JUMP JUMPDEST PUSH2 0x56E2 PUSH1 0x20 DUP4 ADD DUP5 PUSH2 0x3F82 JUMP JUMPDEST SWAP4 SWAP3 POP POP POP JUMP JUMPDEST PUSH1 0x0 PUSH2 0x56F4 DUP3 PUSH2 0x3E20 JUMP JUMPDEST SWAP2 POP PUSH2 0x56FF DUP4 PUSH2 0x3E20 JUMP JUMPDEST SWAP3 POP DUP3 DUP3 SUB SWAP1 POP DUP2 DUP2 GT ISZERO PUSH2 0x5717 JUMPI PUSH2 0x5716 PUSH2 0x4EA1 JUMP JUMPDEST JUMPDEST SWAP3 SWAP2 POP POP JUMP JUMPDEST PUSH32 0x4E487B7100000000000000000000000000000000000000000000000000000000 PUSH1 0x0 MSTORE PUSH1 0x31 PUSH1 0x4 MSTORE PUSH1 0x24 PUSH1 0x0 REVERT INVALID 0x22 PUSH30 0x5D2C22696D616765223A2022646174613A696D6167652F7376672B786D6C EXTCODESIZE PUSH3 0x617365 CALLDATASIZE CALLVALUE 0x2C EXTCODECOPY PUSH20 0x76672077696474683D2238303022206865696768 PUSH21 0x3D22383030222076696577426F783D223020302038 ADDRESS ADDRESS KECCAK256 CODESIZE ADDRESS ADDRESS 0x22 KECCAK256 PUSH25 0x6D6C6E733D22687474703A2F2F7777772E77332E6F72672F32 ADDRESS ADDRESS ADDRESS 0x2F PUSH20 0x7667223E227D2C7B2274726169745F7479706522 GASPRICE KECCAK256 0x22 PUSH14 0x61696E436F6C6F72222C2276616C PUSH22 0x65223A20223C6C696E652078313D2233333022207931 RETURNDATASIZE 0x22 CALLER ADDRESS ADDRESS 0x22 KECCAK256 PUSH25 0x323D22343730222079323D2233383022207374726F6B653D22 0x23 CODESIZE PUSH2 0x3666 CALLER ADDRESS 0x22 KECCAK256 PUSH20 0x74726F6B652D77696474683D2233222F3E227D2C PUSH28 0x2274726169745F74797065223A2022776569676874496E4772616D73 0x22 0x2C 0x22 PUSH23 0x616C7565223A20223C706F6C79676F6E20706F696E7473 RETURNDATASIZE 0x22 CALLVALUE ADDRESS ADDRESS 0x2C ORIGIN CALLDATALOAD ADDRESS KECCAK256 CALLVALUE CALLDATACOPY ADDRESS 0x2C CALLER ADDRESS ADDRESS KECCAK256 CALLVALUE CALLDATACOPY ADDRESS 0x2C CALLER CODESIZE ADDRESS KECCAK256 CALLVALUE ADDRESS ADDRESS 0x2C CALLVALUE CALLER ADDRESS KECCAK256 CALLER CALLER ADDRESS 0x2C CALLER CODESIZE ADDRESS KECCAK256 CALLER CALLER ADDRESS 0x2C CALLER ADDRESS ADDRESS 0x22 KECCAK256 PUSH7 0x696C6C3D227768 PUSH10 0x746522207374726F6B65 RETURNDATASIZE 0x22 0x23 CODESIZE PUSH2 0x3666 CALLER ADDRESS 0x22 KECCAK256 PUSH20 0x74726F6B652D77696474683D2235222F3E222C20 0x22 PUSH2 0x7474 PUSH19 0x696275746573223A205B7B2274726169745F74 PUSH26 0x7065223A20224A6577656C65724E616D65222C2276616C756522 GASPRICE KECCAK256 0x22 EXTCODECOPY PUSH21 0x65787420783D223530252220793D22363030222066 PUSH16 0x6E742D73697A653D2234302220666F6E PUSH21 0x2D66616D696C793D22417269616C2C2073616E732D PUSH20 0x657269662220666F6E742D7765696768743D2262 PUSH16 0x6C64222066696C6C3D22236434616633 CALLDATACOPY 0x22 KECCAK256 PUSH21 0x6578742D616E63686F723D226D6964646C65223E3C PUSH19 0x65637420783D22302220793D22302220776964 PUSH21 0x683D2238303022206865696768743D223830302220 PUSH7 0x696C6C3D222366 CODESIZE PUSH7 0x39666122207374 PUSH19 0x6F6B653D222364346166333722207374726F6B PUSH6 0x2D7769647468 RETURNDATASIZE 0x22 BALANCE ADDRESS 0x22 KECCAK256 PUSH19 0x783D223230222072793D223230222F3E3C7265 PUSH4 0x7420783D 0x22 ORIGIN ADDRESS ADDRESS 0x22 KECCAK256 PUSH26 0x3D22363530222077696474683D2234303022206865696768743D 0x22 CODESIZE ADDRESS 0x22 KECCAK256 PUSH7 0x696C6C3D227768 PUSH10 0x746522207374726F6B65 RETURNDATASIZE 0x22 0x23 CALLER CALLER CALLER 0x22 KECCAK256 PUSH20 0x74726F6B652D77696474683D2233222072783D22 BALANCE ADDRESS 0x22 KECCAK256 PUSH19 0x793D223130222F3E3C6C696E652078313D2234 ADDRESS ADDRESS 0x22 KECCAK256 PUSH26 0x313D22323530222078323D22343030222079323D223433302220 PUSH20 0x74726F6B653D222338613666333022207374726F PUSH12 0x652D77696474683D2233222F RETURNDATACOPY COINBASE TIMESTAMP NUMBER PREVRANDAO GASLIMIT CHAINID SELFBALANCE BASEFEE BLOBHASH BLOBBASEFEE 0x4B 0x4C 0x4D 0x4E 0x4F POP MLOAD MSTORE MSTORE8 SLOAD SSTORE JUMP JUMPI PC MSIZE GAS PUSH2 0x6263 PUSH5 0x6566676869 PUSH11 0x6B6C6D6E6F707172737475 PUSH23 0x7778797A303132333435363738392B2F227D2C7B227472 PUSH2 0x6974 PUSH0 PUSH21 0x797065223A20226D61696E4D6174657269616C222C 0x22 PUSH23 0x616C7565223A20223C656C6C697073652063783D223430 ADDRESS 0x22 KECCAK256 PUSH4 0x793D2234 ORIGIN ADDRESS 0x22 KECCAK256 PUSH19 0x783D22313830222072793D2231303022206669 PUSH13 0x6C3D226E6F6E6522207374726F PUSH12 0x653D22236434616633372220 PUSH20 0x74726F6B652D77696474683D223230222F3E3C65 PUSH13 0x6C697073652063783D22343030 0x22 KECCAK256 PUSH4 0x793D2234 ORIGIN ADDRESS 0x22 KECCAK256 PUSH19 0x783D22313430222072793D223830222066696C PUSH13 0x3D226E6F6E6522207374726F6B PUSH6 0x3D2223663866 CODECOPY PUSH7 0x6122207374726F PUSH12 0x652D77696474683D22323022 0x2F RETURNDATACOPY EXTCODECOPY PUSH13 0x696E652078313D223437302220 PUSH26 0x313D22333030222078323D22333330222079323D223338302220 PUSH20 0x74726F6B653D222338613666333022207374726F PUSH12 0x652D77696474683D2233222F RETURNDATACOPY EXTCODECOPY PUSH21 0x65787420783D223530252220793D22313230222066 PUSH16 0x6E742D73697A653D2235302220666F6E PUSH21 0x2D66616D696C793D22417269616C2C2073616E732D PUSH20 0x657269662220666F6E742D7765696768743D2262 PUSH16 0x6C64222066696C6C3D22233333332220 PUSH21 0x6578742D616E63686F723D226D6964646C65223E3C PUSH21 0x65787420783D223530252220793D22373030222066 PUSH16 0x6E742D73697A653D2233302220666F6E PUSH21 0x2D66616D696C793D22417269616C2C2073616E732D PUSH20 0x65726966222066696C6C3D222333333322207465 PUSH25 0x742D616E63686F723D226D6964646C65223E7B226E616D6522 GASPRICE KECCAK256 0x22 SELFBALANCE PUSH16 0x6C64436861696E204365727469666963 PUSH2 0x7465 KECCAK256 0x4E CHAINID SLOAD KECCAK256 0x23 0x22 PUSH30 0x2C7B2274726169745F74797065223A202243657274696669636174654C65 PUSH23 0x656C222C2276616C7565223A2022227D2C7B2274726169 PUSH21 0x5F74797065223A20226D61696E47656D53746F6E65 PUSH20 0x222C2276616C7565223A2022A264697066735822 SLT KECCAK256 SWAP11 0xE8 0xF6 0xF8 AND 0xB2 EXTCODECOPY PC TSTORE PUSH32 0x7AF20B392B711D2B64E6E28AD6469C023F0BF0A40E2B64736F6C634300081C00 CALLER "},"methodIdentifiers":{"ADMIN()":"2a0acc6a","CERTIFICATOR_ROLE()":"934b4af2","CUSTOMERS_ROLE()":"22f537ce","DEFAULT_ADMIN_ROLE()":"a217fddf","FALSE()":"4ff7986e","JEWELERS_ROLE()":"0cdb5cb5","TRUE()":"5994d984","activateJeweler(address)":"29acc209","admin()":"f851a440","approve(address,uint256)":"095ea7b3","balanceOf(address)":"70a08231","createCertificate(uint8[],uint8[],uint8,string,uint8,string,uint8)":"41cc7c73","createCustomer(string,string,string)":"55b059e8","createJeweler(string,string,string)":"55ed5fe8","desactivateJeweler(address)":"081ba2d5","getApproved(uint256)":"081812fc","getCustomerCount()":"2027d746","getJewelerCount()":"8c271777","getOneCustomer(address)":"ee7bf0ee","getOneJeweler(address)":"57a00ccf","getRoleAdmin(bytes32)":"248a9ca3","grantRole(bytes32,address)":"2f2ff15d","hasRole(bytes32,address)":"91d14854","isApprovedForAll(address,address)":"e985e9c5","name()":"06fdde03","ownerOf(uint256)":"6352211e","renounceRole(bytes32,address)":"36568abe","revokeRole(bytes32,address)":"d547741f","safeMint(address)":"40d097c3","safeTransferFrom(address,address,uint256)":"42842e0e","safeTransferFrom(address,address,uint256,bytes)":"b88d4fde","setApprovalForAll(address,bool)":"a22cb465","supportsInterface(bytes4)":"01ffc9a7","symbol()":"95d89b41","tokenByIndex(uint256)":"4f6ccce7","tokenOfOwnerByIndex(address,uint256)":"2f745c59","tokenURI(uint256)":"c87b56dd","totalSupply()":"18160ddd","transertCertificate(address,uint256)":"a5ddd288","transferFrom(address,address,uint256)":"23b872dd","updateCertificate()":"899f9d0d","updateCustomer(string,string,string,bool)":"f2e0bc58","updateJeweler(string,string,string,bool)":"2b3dd38b"}}}}}