{
  "_format": "hh-sol-artifact-1",
  "contractName": "GoldChainERC721",
  "sourceName": "contracts/NFTGoldChain.sol",
  "abi": [
    {
      "inputs": [],
      "stateMutability": "nonpayable",
      "type": "constructor"
    },
    {
      "inputs": [],
      "name": "ERC721EnumerableForbiddenBatchMint",
      "type": "error"
    },
    {
      "inputs": [
        {
          "internalType": "address",
          "name": "sender",
          "type": "address"
        },
        {
          "internalType": "uint256",
          "name": "tokenId",
          "type": "uint256"
        },
        {
          "internalType": "address",
          "name": "owner",
          "type": "address"
        }
      ],
      "name": "ERC721IncorrectOwner",
      "type": "error"
    },
    {
      "inputs": [
        {
          "internalType": "address",
          "name": "operator",
          "type": "address"
        },
        {
          "internalType": "uint256",
          "name": "tokenId",
          "type": "uint256"
        }
      ],
      "name": "ERC721InsufficientApproval",
      "type": "error"
    },
    {
      "inputs": [
        {
          "internalType": "address",
          "name": "approver",
          "type": "address"
        }
      ],
      "name": "ERC721InvalidApprover",
      "type": "error"
    },
    {
      "inputs": [
        {
          "internalType": "address",
          "name": "operator",
          "type": "address"
        }
      ],
      "name": "ERC721InvalidOperator",
      "type": "error"
    },
    {
      "inputs": [
        {
          "internalType": "address",
          "name": "owner",
          "type": "address"
        }
      ],
      "name": "ERC721InvalidOwner",
      "type": "error"
    },
    {
      "inputs": [
        {
          "internalType": "address",
          "name": "receiver",
          "type": "address"
        }
      ],
      "name": "ERC721InvalidReceiver",
      "type": "error"
    },
    {
      "inputs": [
        {
          "internalType": "address",
          "name": "sender",
          "type": "address"
        }
      ],
      "name": "ERC721InvalidSender",
      "type": "error"
    },
    {
      "inputs": [
        {
          "internalType": "uint256",
          "name": "tokenId",
          "type": "uint256"
        }
      ],
      "name": "ERC721NonexistentToken",
      "type": "error"
    },
    {
      "inputs": [
        {
          "internalType": "address",
          "name": "owner",
          "type": "address"
        },
        {
          "internalType": "uint256",
          "name": "index",
          "type": "uint256"
        }
      ],
      "name": "ERC721OutOfBoundsIndex",
      "type": "error"
    },
    {
      "anonymous": false,
      "inputs": [
        {
          "indexed": true,
          "internalType": "address",
          "name": "owner",
          "type": "address"
        },
        {
          "indexed": true,
          "internalType": "address",
          "name": "approved",
          "type": "address"
        },
        {
          "indexed": true,
          "internalType": "uint256",
          "name": "tokenId",
          "type": "uint256"
        }
      ],
      "name": "Approval",
      "type": "event"
    },
    {
      "anonymous": false,
      "inputs": [
        {
          "indexed": true,
          "internalType": "address",
          "name": "owner",
          "type": "address"
        },
        {
          "indexed": true,
          "internalType": "address",
          "name": "operator",
          "type": "address"
        },
        {
          "indexed": false,
          "internalType": "bool",
          "name": "approved",
          "type": "bool"
        }
      ],
      "name": "ApprovalForAll",
      "type": "event"
    },
    {
      "anonymous": false,
      "inputs": [
        {
          "indexed": true,
          "internalType": "address",
          "name": "from",
          "type": "address"
        },
        {
          "indexed": true,
          "internalType": "address",
          "name": "to",
          "type": "address"
        },
        {
          "indexed": true,
          "internalType": "uint256",
          "name": "tokenId",
          "type": "uint256"
        }
      ],
      "name": "Transfer",
      "type": "event"
    },
    {
      "inputs": [
        {
          "internalType": "bytes",
          "name": "data",
          "type": "bytes"
        }
      ],
      "name": "Base64Encode",
      "outputs": [
        {
          "internalType": "string",
          "name": "",
          "type": "string"
        }
      ],
      "stateMutability": "pure",
      "type": "function"
    },
    {
      "inputs": [
        {
          "internalType": "address",
          "name": "to",
          "type": "address"
        },
        {
          "internalType": "uint256",
          "name": "tokenId",
          "type": "uint256"
        }
      ],
      "name": "approve",
      "outputs": [],
      "stateMutability": "nonpayable",
      "type": "function"
    },
    {
      "inputs": [
        {
          "internalType": "address",
          "name": "owner",
          "type": "address"
        }
      ],
      "name": "balanceOf",
      "outputs": [
        {
          "internalType": "uint256",
          "name": "",
          "type": "uint256"
        }
      ],
      "stateMutability": "view",
      "type": "function"
    },
    {
      "inputs": [
        {
          "internalType": "uint256",
          "name": "tokenId",
          "type": "uint256"
        }
      ],
      "name": "getApproved",
      "outputs": [
        {
          "internalType": "address",
          "name": "",
          "type": "address"
        }
      ],
      "stateMutability": "view",
      "type": "function"
    },
    {
      "inputs": [
        {
          "internalType": "address",
          "name": "owner",
          "type": "address"
        },
        {
          "internalType": "address",
          "name": "operator",
          "type": "address"
        }
      ],
      "name": "isApprovedForAll",
      "outputs": [
        {
          "internalType": "bool",
          "name": "",
          "type": "bool"
        }
      ],
      "stateMutability": "view",
      "type": "function"
    },
    {
      "inputs": [],
      "name": "name",
      "outputs": [
        {
          "internalType": "string",
          "name": "",
          "type": "string"
        }
      ],
      "stateMutability": "view",
      "type": "function"
    },
    {
      "inputs": [
        {
          "internalType": "uint256",
          "name": "tokenId",
          "type": "uint256"
        }
      ],
      "name": "ownerOf",
      "outputs": [
        {
          "internalType": "address",
          "name": "",
          "type": "address"
        }
      ],
      "stateMutability": "view",
      "type": "function"
    },
    {
      "inputs": [
        {
          "internalType": "address",
          "name": "to",
          "type": "address"
        }
      ],
      "name": "safeMint",
      "outputs": [
        {
          "internalType": "uint256",
          "name": "",
          "type": "uint256"
        }
      ],
      "stateMutability": "nonpayable",
      "type": "function"
    },
    {
      "inputs": [
        {
          "internalType": "address",
          "name": "from",
          "type": "address"
        },
        {
          "internalType": "address",
          "name": "to",
          "type": "address"
        },
        {
          "internalType": "uint256",
          "name": "tokenId",
          "type": "uint256"
        }
      ],
      "name": "safeTransferFrom",
      "outputs": [],
      "stateMutability": "nonpayable",
      "type": "function"
    },
    {
      "inputs": [
        {
          "internalType": "address",
          "name": "from",
          "type": "address"
        },
        {
          "internalType": "address",
          "name": "to",
          "type": "address"
        },
        {
          "internalType": "uint256",
          "name": "tokenId",
          "type": "uint256"
        },
        {
          "internalType": "bytes",
          "name": "data",
          "type": "bytes"
        }
      ],
      "name": "safeTransferFrom",
      "outputs": [],
      "stateMutability": "nonpayable",
      "type": "function"
    },
    {
      "inputs": [
        {
          "internalType": "address",
          "name": "operator",
          "type": "address"
        },
        {
          "internalType": "bool",
          "name": "approved",
          "type": "bool"
        }
      ],
      "name": "setApprovalForAll",
      "outputs": [],
      "stateMutability": "nonpayable",
      "type": "function"
    },
    {
      "inputs": [
        {
          "internalType": "bytes4",
          "name": "interfaceId",
          "type": "bytes4"
        }
      ],
      "name": "supportsInterface",
      "outputs": [
        {
          "internalType": "bool",
          "name": "",
          "type": "bool"
        }
      ],
      "stateMutability": "view",
      "type": "function"
    },
    {
      "inputs": [],
      "name": "symbol",
      "outputs": [
        {
          "internalType": "string",
          "name": "",
          "type": "string"
        }
      ],
      "stateMutability": "view",
      "type": "function"
    },
    {
      "inputs": [
        {
          "internalType": "uint256",
          "name": "index",
          "type": "uint256"
        }
      ],
      "name": "tokenByIndex",
      "outputs": [
        {
          "internalType": "uint256",
          "name": "",
          "type": "uint256"
        }
      ],
      "stateMutability": "view",
      "type": "function"
    },
    {
      "inputs": [
        {
          "internalType": "address",
          "name": "owner",
          "type": "address"
        },
        {
          "internalType": "uint256",
          "name": "index",
          "type": "uint256"
        }
      ],
      "name": "tokenOfOwnerByIndex",
      "outputs": [
        {
          "internalType": "uint256",
          "name": "",
          "type": "uint256"
        }
      ],
      "stateMutability": "view",
      "type": "function"
    },
    {
      "inputs": [
        {
          "internalType": "uint256",
          "name": "tokenId",
          "type": "uint256"
        }
      ],
      "name": "tokenURI",
      "outputs": [
        {
          "internalType": "string",
          "name": "",
          "type": "string"
        }
      ],
      "stateMutability": "view",
      "type": "function"
    },
    {
      "inputs": [],
      "name": "totalSupply",
      "outputs": [
        {
          "internalType": "uint256",
          "name": "",
          "type": "uint256"
        }
      ],
      "stateMutability": "view",
      "type": "function"
    },
    {
      "inputs": [
        {
          "internalType": "address",
          "name": "from",
          "type": "address"
        },
        {
          "internalType": "address",
          "name": "to",
          "type": "address"
        },
        {
          "internalType": "uint256",
          "name": "tokenId",
          "type": "uint256"
        }
      ],
      "name": "transferFrom",
      "outputs": [],
      "stateMutability": "nonpayable",
      "type": "function"
    }
  ],
  "bytecode": "0x608060405234801561001057600080fd5b506040518060400160405280600f81526020017f476f6c64436861696e45524337323100000000000000000000000000000000008152506040518060400160405280600281526020017f4743000000000000000000000000000000000000000000000000000000000000815250816000908161008c91906102f4565b50806001908161009c91906102f4565b5050506103c6565b600081519050919050565b7f4e487b7100000000000000000000000000000000000000000000000000000000600052604160045260246000fd5b7f4e487b7100000000000000000000000000000000000000000000000000000000600052602260045260246000fd5b6000600282049050600182168061012557607f821691505b602082108103610138576101376100de565b5b50919050565b60008190508160005260206000209050919050565b60006020601f8301049050919050565b600082821b905092915050565b6000600883026101a07fffffffffffffffffffffffffffffffffffffffffffffffffffffffffffffffff82610163565b6101aa8683610163565b95508019841693508086168417925050509392505050565b6000819050919050565b6000819050919050565b60006101f16101ec6101e7846101c2565b6101cc565b6101c2565b9050919050565b6000819050919050565b61020b836101d6565b61021f610217826101f8565b848454610170565b825550505050565b600090565b610234610227565b61023f818484610202565b505050565b5b818110156102635761025860008261022c565b600181019050610245565b5050565b601f8211156102a8576102798161013e565b61028284610153565b81016020851015610291578190505b6102a561029d85610153565b830182610244565b50505b505050565b600082821c905092915050565b60006102cb600019846008026102ad565b1980831691505092915050565b60006102e483836102ba565b9150826002028217905092915050565b6102fd826100a4565b67ffffffffffffffff811115610316576103156100af565b5b610320825461010d565b61032b828285610267565b600060209050601f83116001811461035e576000841561034c578287015190505b61035685826102d8565b8655506103be565b601f19841661036c8661013e565b60005b828110156103945784890151825560018201915060208501945060208101905061036f565b868310156103b157848901516103ad601f8916826102ba565b8355505b6001600288020188555050505b505050505050565b612582806103d56000396000f3fe608060405234801561001057600080fd5b50600436106101165760003560e01c80634f6ccce7116100a257806395d89b411161007157806395d89b411461032b578063a22cb46514610349578063b88d4fde14610365578063c87b56dd14610381578063e985e9c5146103b157610116565b80634f6ccce71461026b5780636352211e1461029b57806370a08231146102cb578063832cc77e146102fb57610116565b806318160ddd116100e957806318160ddd146101b557806323b872dd146101d35780632f745c59146101ef57806340d097c31461021f57806342842e0e1461024f57610116565b806301ffc9a71461011b57806306fdde031461014b578063081812fc14610169578063095ea7b314610199575b600080fd5b61013560048036038101906101309190611bf3565b6103e1565b6040516101429190611c3b565b60405180910390f35b6101536103f3565b6040516101609190611ce6565b60405180910390f35b610183600480360381019061017e9190611d3e565b610485565b6040516101909190611dac565b60405180910390f35b6101b360048036038101906101ae9190611df3565b6104a1565b005b6101bd6104b7565b6040516101ca9190611e42565b60405180910390f35b6101ed60048036038101906101e89190611e5d565b6104c4565b005b61020960048036038101906102049190611df3565b6105c6565b6040516102169190611e42565b60405180910390f35b61023960048036038101906102349190611eb0565b61066f565b6040516102469190611e42565b60405180910390f35b61026960048036038101906102649190611e5d565b61069e565b005b61028560048036038101906102809190611d3e565b6106be565b6040516102929190611e42565b60405180910390f35b6102b560048036038101906102b09190611d3e565b610734565b6040516102c29190611dac565b60405180910390f35b6102e560048036038101906102e09190611eb0565b610746565b6040516102f29190611e42565b60405180910390f35b61031560048036038101906103109190612012565b610800565b6040516103229190611ce6565b60405180910390f35b610333610812565b6040516103409190611ce6565b60405180910390f35b610363600480360381019061035e9190612087565b6108a4565b005b61037f600480360381019061037a91906120c7565b6108ba565b005b61039b60048036038101906103969190611d3e565b6108df565b6040516103a89190611ce6565b60405180910390f35b6103cb60048036038101906103c6919061214a565b6108f8565b6040516103d89190611c3b565b60405180910390f35b60006103ec8261098c565b9050919050565b606060008054610402906121b9565b80601f016020809104026020016040519081016040528092919081815260200182805461042e906121b9565b801561047b5780601f106104505761010080835404028352916020019161047b565b820191906000526020600020905b81548152906001019060200180831161045e57829003601f168201915b5050505050905090565b600061049082610a06565b5061049a82610a8e565b9050919050565b6104b382826104ae610acb565b610ad3565b5050565b6000600880549050905090565b600073ffffffffffffffffffffffffffffffffffffffff168273ffffffffffffffffffffffffffffffffffffffff16036105365760006040517f64a0ae9200000000000000000000000000000000000000000000000000000000815260040161052d9190611dac565b60405180910390fd5b600061054a8383610545610acb565b610ae5565b90508373ffffffffffffffffffffffffffffffffffffffff168173ffffffffffffffffffffffffffffffffffffffff16146105c0578382826040517f64283d7b0000000000000000000000000000000000000000000000000000000081526004016105b7939291906121ea565b60405180910390fd5b50505050565b60006105d183610746565b82106106165782826040517fa57d13dc00000000000000000000000000000000000000000000000000000000815260040161060d929190612221565b60405180910390fd5b600660008473ffffffffffffffffffffffffffffffffffffffff1673ffffffffffffffffffffffffffffffffffffffff168152602001908152602001600020600083815260200190815260200160002054905092915050565b600080600a600081548092919061068590612279565b9190505590506106958382610afb565b80915050919050565b6106b9838383604051806020016040528060008152506108ba565b505050565b60006106c86104b7565b821061070e576000826040517fa57d13dc000000000000000000000000000000000000000000000000000000008152600401610705929190612221565b60405180910390fd5b60088281548110610722576107216122c1565b5b90600052602060002001549050919050565b600061073f82610a06565b9050919050565b60008073ffffffffffffffffffffffffffffffffffffffff168273ffffffffffffffffffffffffffffffffffffffff16036107b95760006040517f89c62b640000000000000000000000000000000000000000000000000000000081526004016107b09190611dac565b60405180910390fd5b600360008373ffffffffffffffffffffffffffffffffffffffff1673ffffffffffffffffffffffffffffffffffffffff168152602001908152602001600020549050919050565b606061080b82610b19565b9050919050565b606060018054610821906121b9565b80601f016020809104026020016040519081016040528092919081815260200182805461084d906121b9565b801561089a5780601f1061086f5761010080835404028352916020019161089a565b820191906000526020600020905b81548152906001019060200180831161087d57829003601f168201915b5050505050905090565b6108b66108af610acb565b8383610cb0565b5050565b6108c58484846104c4565b6108d96108d0610acb565b85858585610e1f565b50505050565b6060604051806020016040528060008152509050919050565b6000600560008473ffffffffffffffffffffffffffffffffffffffff1673ffffffffffffffffffffffffffffffffffffffff16815260200190815260200160002060008373ffffffffffffffffffffffffffffffffffffffff1673ffffffffffffffffffffffffffffffffffffffff16815260200190815260200160002060009054906101000a900460ff16905092915050565b60007f780e9d63000000000000000000000000000000000000000000000000000000007bffffffffffffffffffffffffffffffffffffffffffffffffffffffff1916827bffffffffffffffffffffffffffffffffffffffffffffffffffffffff191614806109ff57506109fe82610fd0565b5b9050919050565b600080610a12836110b2565b9050600073ffffffffffffffffffffffffffffffffffffffff168173ffffffffffffffffffffffffffffffffffffffff1603610a8557826040517f7e273289000000000000000000000000000000000000000000000000000000008152600401610a7c9190611e42565b60405180910390fd5b80915050919050565b60006004600083815260200190815260200160002060009054906101000a900473ffffffffffffffffffffffffffffffffffffffff169050919050565b600033905090565b610ae083838360016110ef565b505050565b6000610af28484846112b4565b90509392505050565b610b158282604051806020016040528060008152506113d1565b5050565b606060008251905060008103610b415760405180602001604052806000815250915050610cab565b60006003600283610b5291906122f0565b610b5c9190612353565b6004610b689190612384565b90506000602082610b7991906122f0565b67ffffffffffffffff811115610b9257610b91611ee7565b5b6040519080825280601f01601f191660200182016040528015610bc45781602001600182028036833780820191505090505b509050600060405180606001604052806040815260200161250d604091399050600181016020830160005b86811015610c685760038101905062ffffff818a015116603f8160121c168401518060081b905060ff603f83600c1c1686015116810190508060081b905060ff603f8360061c1686015116810190508060081b905060ff603f831686015116810190508060e01b90508084526004840193505050610bef565b506003860660018114610c825760028114610c9257610c9d565b613d3d60f01b6002830352610c9d565b603d60f81b60018303525b508484525050819450505050505b919050565b600073ffffffffffffffffffffffffffffffffffffffff168273ffffffffffffffffffffffffffffffffffffffff1603610d2157816040517f5b08ba18000000000000000000000000000000000000000000000000000000008152600401610d189190611dac565b60405180910390fd5b80600560008573ffffffffffffffffffffffffffffffffffffffff1673ffffffffffffffffffffffffffffffffffffffff16815260200190815260200160002060008473ffffffffffffffffffffffffffffffffffffffff1673ffffffffffffffffffffffffffffffffffffffff16815260200190815260200160002060006101000a81548160ff0219169083151502179055508173ffffffffffffffffffffffffffffffffffffffff168373ffffffffffffffffffffffffffffffffffffffff167f17307eab39ab6107e8899845ad3d59bd9653f200f220920489ca2b5937696c3183604051610e129190611c3b565b60405180910390a3505050565b60008373ffffffffffffffffffffffffffffffffffffffff163b1115610fc9578273ffffffffffffffffffffffffffffffffffffffff1663150b7a02868685856040518563ffffffff1660e01b8152600401610e7e949392919061241b565b6020604051808303816000875af1925050508015610eba57506040513d601f19601f82011682018060405250810190610eb7919061247c565b60015b610f3e573d8060008114610eea576040519150601f19603f3d011682016040523d82523d6000602084013e610eef565b606091505b506000815103610f3657836040517f64a0ae92000000000000000000000000000000000000000000000000000000008152600401610f2d9190611dac565b60405180910390fd5b805181602001fd5b63150b7a0260e01b7bffffffffffffffffffffffffffffffffffffffffffffffffffffffff1916817bffffffffffffffffffffffffffffffffffffffffffffffffffffffff191614610fc757836040517f64a0ae92000000000000000000000000000000000000000000000000000000008152600401610fbe9190611dac565b60405180910390fd5b505b5050505050565b60007f80ac58cd000000000000000000000000000000000000000000000000000000007bffffffffffffffffffffffffffffffffffffffffffffffffffffffff1916827bffffffffffffffffffffffffffffffffffffffffffffffffffffffff1916148061109b57507f5b5e139f000000000000000000000000000000000000000000000000000000007bffffffffffffffffffffffffffffffffffffffffffffffffffffffff1916827bffffffffffffffffffffffffffffffffffffffffffffffffffffffff1916145b806110ab57506110aa826113f5565b5b9050919050565b60006002600083815260200190815260200160002060009054906101000a900473ffffffffffffffffffffffffffffffffffffffff169050919050565b80806111285750600073ffffffffffffffffffffffffffffffffffffffff168273ffffffffffffffffffffffffffffffffffffffff1614155b1561125c57600061113884610a06565b9050600073ffffffffffffffffffffffffffffffffffffffff168373ffffffffffffffffffffffffffffffffffffffff16141580156111a357508273ffffffffffffffffffffffffffffffffffffffff168173ffffffffffffffffffffffffffffffffffffffff1614155b80156111b657506111b481846108f8565b155b156111f857826040517fa9fbf51f0000000000000000000000000000000000000000000000000000000081526004016111ef9190611dac565b60405180910390fd5b811561125a57838573ffffffffffffffffffffffffffffffffffffffff168273ffffffffffffffffffffffffffffffffffffffff167f8c5be1e5ebec7d5bd14f71427d1e84f3dd0314c0f7b2291e5b200ac8c7c3b92560405160405180910390a45b505b836004600085815260200190815260200160002060006101000a81548173ffffffffffffffffffffffffffffffffffffffff021916908373ffffffffffffffffffffffffffffffffffffffff16021790555050505050565b6000806112c285858561145f565b9050600073ffffffffffffffffffffffffffffffffffffffff168173ffffffffffffffffffffffffffffffffffffffff16036113065761130184611679565b611345565b8473ffffffffffffffffffffffffffffffffffffffff168173ffffffffffffffffffffffffffffffffffffffff16146113445761134381856116c2565b5b5b600073ffffffffffffffffffffffffffffffffffffffff168573ffffffffffffffffffffffffffffffffffffffff160361138757611382846117ad565b6113c6565b8473ffffffffffffffffffffffffffffffffffffffff168173ffffffffffffffffffffffffffffffffffffffff16146113c5576113c4858561187e565b5b5b809150509392505050565b6113db8383611909565b6113f06113e6610acb565b6000858585610e1f565b505050565b60007f01ffc9a7000000000000000000000000000000000000000000000000000000007bffffffffffffffffffffffffffffffffffffffffffffffffffffffff1916827bffffffffffffffffffffffffffffffffffffffffffffffffffffffff1916149050919050565b60008061146b846110b2565b9050600073ffffffffffffffffffffffffffffffffffffffff168373ffffffffffffffffffffffffffffffffffffffff16146114ad576114ac818486611a02565b5b600073ffffffffffffffffffffffffffffffffffffffff168173ffffffffffffffffffffffffffffffffffffffff161461153e576114ef6000856000806110ef565b6001600360008373ffffffffffffffffffffffffffffffffffffffff1673ffffffffffffffffffffffffffffffffffffffff168152602001908152602001600020600082825403925050819055505b600073ffffffffffffffffffffffffffffffffffffffff168573ffffffffffffffffffffffffffffffffffffffff16146115c1576001600360008773ffffffffffffffffffffffffffffffffffffffff1673ffffffffffffffffffffffffffffffffffffffff168152602001908152602001600020600082825401925050819055505b846002600086815260200190815260200160002060006101000a81548173ffffffffffffffffffffffffffffffffffffffff021916908373ffffffffffffffffffffffffffffffffffffffff160217905550838573ffffffffffffffffffffffffffffffffffffffff168273ffffffffffffffffffffffffffffffffffffffff167fddf252ad1be2c89b69c2b068fc378daa952ba7f163c4a11628f55a4df523b3ef60405160405180910390a4809150509392505050565b6008805490506009600083815260200190815260200160002081905550600881908060018154018082558091505060019003906000526020600020016000909190919091505550565b60006116cd83610746565b90506000600760008481526020019081526020016000205490506000600660008673ffffffffffffffffffffffffffffffffffffffff1673ffffffffffffffffffffffffffffffffffffffff16815260200190815260200160002090508282146117795760008160008581526020019081526020016000205490508082600085815260200190815260200160002081905550826007600083815260200190815260200160002081905550505b6007600085815260200190815260200160002060009055806000848152602001908152602001600020600090555050505050565b600060016008805490506117c191906124a9565b90506000600960008481526020019081526020016000205490506000600883815481106117f1576117f06122c1565b5b906000526020600020015490508060088381548110611813576118126122c1565b5b906000526020600020018190555081600960008381526020019081526020016000208190555060096000858152602001908152602001600020600090556008805480611862576118616124dd565b5b6001900381819060005260206000200160009055905550505050565b6000600161188b84610746565b61189591906124a9565b905081600660008573ffffffffffffffffffffffffffffffffffffffff1673ffffffffffffffffffffffffffffffffffffffff168152602001908152602001600020600083815260200190815260200160002081905550806007600084815260200190815260200160002081905550505050565b600073ffffffffffffffffffffffffffffffffffffffff168273ffffffffffffffffffffffffffffffffffffffff160361197b5760006040517f64a0ae920000000000000000000000000000000000000000000000000000000081526004016119729190611dac565b60405180910390fd5b600061198983836000610ae5565b9050600073ffffffffffffffffffffffffffffffffffffffff168173ffffffffffffffffffffffffffffffffffffffff16146119fd5760006040517f73c6ac6e0000000000000000000000000000000000000000000000000000000081526004016119f49190611dac565b60405180910390fd5b505050565b611a0d838383611ac6565b611ac157600073ffffffffffffffffffffffffffffffffffffffff168373ffffffffffffffffffffffffffffffffffffffff1603611a8257806040517f7e273289000000000000000000000000000000000000000000000000000000008152600401611a799190611e42565b60405180910390fd5b81816040517f177e802f000000000000000000000000000000000000000000000000000000008152600401611ab8929190612221565b60405180910390fd5b505050565b60008073ffffffffffffffffffffffffffffffffffffffff168373ffffffffffffffffffffffffffffffffffffffff1614158015611b7e57508273ffffffffffffffffffffffffffffffffffffffff168473ffffffffffffffffffffffffffffffffffffffff161480611b3f5750611b3e84846108f8565b5b80611b7d57508273ffffffffffffffffffffffffffffffffffffffff16611b6583610a8e565b73ffffffffffffffffffffffffffffffffffffffff16145b5b90509392505050565b6000604051905090565b600080fd5b600080fd5b60007fffffffff0000000000000000000000000000000000000000000000000000000082169050919050565b611bd081611b9b565b8114611bdb57600080fd5b50565b600081359050611bed81611bc7565b92915050565b600060208284031215611c0957611c08611b91565b5b6000611c1784828501611bde565b91505092915050565b60008115159050919050565b611c3581611c20565b82525050565b6000602082019050611c506000830184611c2c565b92915050565b600081519050919050565b600082825260208201905092915050565b60005b83811015611c90578082015181840152602081019050611c75565b60008484015250505050565b6000601f19601f8301169050919050565b6000611cb882611c56565b611cc28185611c61565b9350611cd2818560208601611c72565b611cdb81611c9c565b840191505092915050565b60006020820190508181036000830152611d008184611cad565b905092915050565b6000819050919050565b611d1b81611d08565b8114611d2657600080fd5b50565b600081359050611d3881611d12565b92915050565b600060208284031215611d5457611d53611b91565b5b6000611d6284828501611d29565b91505092915050565b600073ffffffffffffffffffffffffffffffffffffffff82169050919050565b6000611d9682611d6b565b9050919050565b611da681611d8b565b82525050565b6000602082019050611dc16000830184611d9d565b92915050565b611dd081611d8b565b8114611ddb57600080fd5b50565b600081359050611ded81611dc7565b92915050565b60008060408385031215611e0a57611e09611b91565b5b6000611e1885828601611dde565b9250506020611e2985828601611d29565b9150509250929050565b611e3c81611d08565b82525050565b6000602082019050611e576000830184611e33565b92915050565b600080600060608486031215611e7657611e75611b91565b5b6000611e8486828701611dde565b9350506020611e9586828701611dde565b9250506040611ea686828701611d29565b9150509250925092565b600060208284031215611ec657611ec5611b91565b5b6000611ed484828501611dde565b91505092915050565b600080fd5b600080fd5b7f4e487b7100000000000000000000000000000000000000000000000000000000600052604160045260246000fd5b611f1f82611c9c565b810181811067ffffffffffffffff82111715611f3e57611f3d611ee7565b5b80604052505050565b6000611f51611b87565b9050611f5d8282611f16565b919050565b600067ffffffffffffffff821115611f7d57611f7c611ee7565b5b611f8682611c9c565b9050602081019050919050565b82818337600083830152505050565b6000611fb5611fb084611f62565b611f47565b905082815260208101848484011115611fd157611fd0611ee2565b5b611fdc848285611f93565b509392505050565b600082601f830112611ff957611ff8611edd565b5b8135612009848260208601611fa2565b91505092915050565b60006020828403121561202857612027611b91565b5b600082013567ffffffffffffffff81111561204657612045611b96565b5b61205284828501611fe4565b91505092915050565b61206481611c20565b811461206f57600080fd5b50565b6000813590506120818161205b565b92915050565b6000806040838503121561209e5761209d611b91565b5b60006120ac85828601611dde565b92505060206120bd85828601612072565b9150509250929050565b600080600080608085870312156120e1576120e0611b91565b5b60006120ef87828801611dde565b945050602061210087828801611dde565b935050604061211187828801611d29565b925050606085013567ffffffffffffffff81111561213257612131611b96565b5b61213e87828801611fe4565b91505092959194509250565b6000806040838503121561216157612160611b91565b5b600061216f85828601611dde565b925050602061218085828601611dde565b9150509250929050565b7f4e487b7100000000000000000000000000000000000000000000000000000000600052602260045260246000fd5b600060028204905060018216806121d157607f821691505b6020821081036121e4576121e361218a565b5b50919050565b60006060820190506121ff6000830186611d9d565b61220c6020830185611e33565b6122196040830184611d9d565b949350505050565b60006040820190506122366000830185611d9d565b6122436020830184611e33565b9392505050565b7f4e487b7100000000000000000000000000000000000000000000000000000000600052601160045260246000fd5b600061228482611d08565b91507fffffffffffffffffffffffffffffffffffffffffffffffffffffffffffffffff82036122b6576122b561224a565b5b600182019050919050565b7f4e487b7100000000000000000000000000000000000000000000000000000000600052603260045260246000fd5b60006122fb82611d08565b915061230683611d08565b925082820190508082111561231e5761231d61224a565b5b92915050565b7f4e487b7100000000000000000000000000000000000000000000000000000000600052601260045260246000fd5b600061235e82611d08565b915061236983611d08565b92508261237957612378612324565b5b828204905092915050565b600061238f82611d08565b915061239a83611d08565b92508282026123a881611d08565b915082820484148315176123bf576123be61224a565b5b5092915050565b600081519050919050565b600082825260208201905092915050565b60006123ed826123c6565b6123f781856123d1565b9350612407818560208601611c72565b61241081611c9c565b840191505092915050565b60006080820190506124306000830187611d9d565b61243d6020830186611d9d565b61244a6040830185611e33565b818103606083015261245c81846123e2565b905095945050505050565b60008151905061247681611bc7565b92915050565b60006020828403121561249257612491611b91565b5b60006124a084828501612467565b91505092915050565b60006124b482611d08565b91506124bf83611d08565b92508282039050818111156124d7576124d661224a565b5b92915050565b7f4e487b7100000000000000000000000000000000000000000000000000000000600052603160045260246000fdfe4142434445464748494a4b4c4d4e4f505152535455565758595a6162636465666768696a6b6c6d6e6f707172737475767778797a303132333435363738392b2fa264697066735822122075eccbbcb3943d46622683b3411641bbe742bde74b20ee49556b183cf967a7fb64736f6c634300081c0033",
  "linkReferences": {},
  "deployedLinkReferences": {}
}