{
  "_format": "hh-sol-artifact-1",
  "contractName": "GoldChain",
  "sourceName": "contracts/GoldChain.sol",
  "abi": [
    {
      "inputs": [
        {
          "internalType": "contract IDataStorage",
          "name": "_dataStorage",
          "type": "address"
        }
      ],
      "stateMutability": "nonpayable",
      "type": "constructor"
    },
    {
      "inputs": [],
      "name": "AccessControlBadConfirmation",
      "type": "error"
    },
    {
      "inputs": [
        {
          "internalType": "address",
          "name": "account",
          "type": "address"
        },
        {
          "internalType": "bytes32",
          "name": "neededRole",
          "type": "bytes32"
        }
      ],
      "name": "AccessControlUnauthorizedAccount",
      "type": "error"
    },
    {
      "inputs": [],
      "name": "CustomerIsAlreadyRegistered",
      "type": "error"
    },
    {
      "inputs": [],
      "name": "CustomerNotExists",
      "type": "error"
    },
    {
      "inputs": [],
      "name": "ERC721EnumerableForbiddenBatchMint",
      "type": "error"
    },
    {
      "inputs": [
        {
          "internalType": "address",
          "name": "sender",
          "type": "address"
        },
        {
          "internalType": "uint256",
          "name": "tokenId",
          "type": "uint256"
        },
        {
          "internalType": "address",
          "name": "owner",
          "type": "address"
        }
      ],
      "name": "ERC721IncorrectOwner",
      "type": "error"
    },
    {
      "inputs": [
        {
          "internalType": "address",
          "name": "operator",
          "type": "address"
        },
        {
          "internalType": "uint256",
          "name": "tokenId",
          "type": "uint256"
        }
      ],
      "name": "ERC721InsufficientApproval",
      "type": "error"
    },
    {
      "inputs": [
        {
          "internalType": "address",
          "name": "approver",
          "type": "address"
        }
      ],
      "name": "ERC721InvalidApprover",
      "type": "error"
    },
    {
      "inputs": [
        {
          "internalType": "address",
          "name": "operator",
          "type": "address"
        }
      ],
      "name": "ERC721InvalidOperator",
      "type": "error"
    },
    {
      "inputs": [
        {
          "internalType": "address",
          "name": "owner",
          "type": "address"
        }
      ],
      "name": "ERC721InvalidOwner",
      "type": "error"
    },
    {
      "inputs": [
        {
          "internalType": "address",
          "name": "receiver",
          "type": "address"
        }
      ],
      "name": "ERC721InvalidReceiver",
      "type": "error"
    },
    {
      "inputs": [
        {
          "internalType": "address",
          "name": "sender",
          "type": "address"
        }
      ],
      "name": "ERC721InvalidSender",
      "type": "error"
    },
    {
      "inputs": [
        {
          "internalType": "uint256",
          "name": "tokenId",
          "type": "uint256"
        }
      ],
      "name": "ERC721NonexistentToken",
      "type": "error"
    },
    {
      "inputs": [
        {
          "internalType": "address",
          "name": "owner",
          "type": "address"
        },
        {
          "internalType": "uint256",
          "name": "index",
          "type": "uint256"
        }
      ],
      "name": "ERC721OutOfBoundsIndex",
      "type": "error"
    },
    {
      "inputs": [],
      "name": "JewelerIsAlreadyRegistered",
      "type": "error"
    },
    {
      "inputs": [],
      "name": "JewelerNotExists",
      "type": "error"
    },
    {
      "inputs": [],
      "name": "TokenDoesNotExist",
      "type": "error"
    },
    {
      "anonymous": false,
      "inputs": [
        {
          "indexed": true,
          "internalType": "address",
          "name": "owner",
          "type": "address"
        },
        {
          "indexed": true,
          "internalType": "address",
          "name": "approved",
          "type": "address"
        },
        {
          "indexed": true,
          "internalType": "uint256",
          "name": "tokenId",
          "type": "uint256"
        }
      ],
      "name": "Approval",
      "type": "event"
    },
    {
      "anonymous": false,
      "inputs": [
        {
          "indexed": true,
          "internalType": "address",
          "name": "owner",
          "type": "address"
        },
        {
          "indexed": true,
          "internalType": "address",
          "name": "operator",
          "type": "address"
        },
        {
          "indexed": false,
          "internalType": "bool",
          "name": "approved",
          "type": "bool"
        }
      ],
      "name": "ApprovalForAll",
      "type": "event"
    },
    {
      "anonymous": false,
      "inputs": [
        {
          "indexed": true,
          "internalType": "bytes32",
          "name": "role",
          "type": "bytes32"
        },
        {
          "indexed": true,
          "internalType": "bytes32",
          "name": "previousAdminRole",
          "type": "bytes32"
        },
        {
          "indexed": true,
          "internalType": "bytes32",
          "name": "newAdminRole",
          "type": "bytes32"
        }
      ],
      "name": "RoleAdminChanged",
      "type": "event"
    },
    {
      "anonymous": false,
      "inputs": [
        {
          "indexed": true,
          "internalType": "bytes32",
          "name": "role",
          "type": "bytes32"
        },
        {
          "indexed": true,
          "internalType": "address",
          "name": "account",
          "type": "address"
        },
        {
          "indexed": true,
          "internalType": "address",
          "name": "sender",
          "type": "address"
        }
      ],
      "name": "RoleGranted",
      "type": "event"
    },
    {
      "anonymous": false,
      "inputs": [
        {
          "indexed": true,
          "internalType": "bytes32",
          "name": "role",
          "type": "bytes32"
        },
        {
          "indexed": true,
          "internalType": "address",
          "name": "account",
          "type": "address"
        },
        {
          "indexed": true,
          "internalType": "address",
          "name": "sender",
          "type": "address"
        }
      ],
      "name": "RoleRevoked",
      "type": "event"
    },
    {
      "anonymous": false,
      "inputs": [
        {
          "indexed": true,
          "internalType": "address",
          "name": "from",
          "type": "address"
        },
        {
          "indexed": true,
          "internalType": "address",
          "name": "to",
          "type": "address"
        },
        {
          "indexed": true,
          "internalType": "uint256",
          "name": "tokenId",
          "type": "uint256"
        }
      ],
      "name": "Transfer",
      "type": "event"
    },
    {
      "anonymous": false,
      "inputs": [
        {
          "indexed": false,
          "internalType": "address",
          "name": "jewelerAddress",
          "type": "address"
        },
        {
          "indexed": false,
          "internalType": "uint256",
          "name": "timestamp",
          "type": "uint256"
        },
        {
          "indexed": false,
          "internalType": "uint256",
          "name": "certificateId",
          "type": "uint256"
        }
      ],
      "name": "certificateCreated",
      "type": "event"
    },
    {
      "anonymous": false,
      "inputs": [
        {
          "indexed": false,
          "internalType": "address",
          "name": "customerAddress",
          "type": "address"
        },
        {
          "indexed": false,
          "internalType": "uint256",
          "name": "timestamp",
          "type": "uint256"
        }
      ],
      "name": "customerCreated",
      "type": "event"
    },
    {
      "anonymous": false,
      "inputs": [
        {
          "indexed": false,
          "internalType": "address",
          "name": "customerAddress",
          "type": "address"
        },
        {
          "indexed": false,
          "internalType": "uint256",
          "name": "timestamp",
          "type": "uint256"
        }
      ],
      "name": "customerUpdated",
      "type": "event"
    },
    {
      "anonymous": false,
      "inputs": [
        {
          "indexed": false,
          "internalType": "address",
          "name": "jewelerAddress",
          "type": "address"
        },
        {
          "indexed": false,
          "internalType": "uint256",
          "name": "timestamp",
          "type": "uint256"
        }
      ],
      "name": "jewelerActivated",
      "type": "event"
    },
    {
      "anonymous": false,
      "inputs": [
        {
          "indexed": false,
          "internalType": "address",
          "name": "jewelerAddress",
          "type": "address"
        },
        {
          "indexed": false,
          "internalType": "uint256",
          "name": "timestamp",
          "type": "uint256"
        }
      ],
      "name": "jewelerCreated",
      "type": "event"
    },
    {
      "anonymous": false,
      "inputs": [
        {
          "indexed": false,
          "internalType": "address",
          "name": "jewelerAddress",
          "type": "address"
        },
        {
          "indexed": false,
          "internalType": "uint256",
          "name": "timestamp",
          "type": "uint256"
        }
      ],
      "name": "jewelerDesactivated",
      "type": "event"
    },
    {
      "anonymous": false,
      "inputs": [
        {
          "indexed": false,
          "internalType": "address",
          "name": "jewelerAddress",
          "type": "address"
        },
        {
          "indexed": false,
          "internalType": "uint256",
          "name": "timestamp",
          "type": "uint256"
        }
      ],
      "name": "jewelerUpdated",
      "type": "event"
    },
    {
      "inputs": [
        {
          "internalType": "bytes",
          "name": "data",
          "type": "bytes"
        }
      ],
      "name": "Base64Encode",
      "outputs": [
        {
          "internalType": "string",
          "name": "",
          "type": "string"
        }
      ],
      "stateMutability": "pure",
      "type": "function"
    },
    {
      "inputs": [],
      "name": "DEFAULT_ADMIN_ROLE",
      "outputs": [
        {
          "internalType": "bytes32",
          "name": "",
          "type": "bytes32"
        }
      ],
      "stateMutability": "view",
      "type": "function"
    },
    {
      "inputs": [],
      "name": "FALSE",
      "outputs": [
        {
          "internalType": "bool",
          "name": "",
          "type": "bool"
        }
      ],
      "stateMutability": "view",
      "type": "function"
    },
    {
      "inputs": [],
      "name": "TRUE",
      "outputs": [
        {
          "internalType": "bool",
          "name": "",
          "type": "bool"
        }
      ],
      "stateMutability": "view",
      "type": "function"
    },
    {
      "inputs": [
        {
          "internalType": "address",
          "name": "_jewelerAddress",
          "type": "address"
        }
      ],
      "name": "activateJeweler",
      "outputs": [
        {
          "internalType": "bool",
          "name": "",
          "type": "bool"
        }
      ],
      "stateMutability": "nonpayable",
      "type": "function"
    },
    {
      "inputs": [],
      "name": "admin",
      "outputs": [
        {
          "internalType": "address",
          "name": "",
          "type": "address"
        }
      ],
      "stateMutability": "view",
      "type": "function"
    },
    {
      "inputs": [
        {
          "internalType": "address",
          "name": "to",
          "type": "address"
        },
        {
          "internalType": "uint256",
          "name": "tokenId",
          "type": "uint256"
        }
      ],
      "name": "approve",
      "outputs": [],
      "stateMutability": "nonpayable",
      "type": "function"
    },
    {
      "inputs": [
        {
          "internalType": "address",
          "name": "owner",
          "type": "address"
        }
      ],
      "name": "balanceOf",
      "outputs": [
        {
          "internalType": "uint256",
          "name": "",
          "type": "uint256"
        }
      ],
      "stateMutability": "view",
      "type": "function"
    },
    {
      "inputs": [
        {
          "internalType": "uint8[]",
          "name": "_materials",
          "type": "uint8[]"
        },
        {
          "internalType": "uint8[]",
          "name": "_gemStones",
          "type": "uint8[]"
        },
        {
          "internalType": "uint8",
          "name": "_weightInGrams",
          "type": "uint8"
        },
        {
          "internalType": "string",
          "name": "_mainColor",
          "type": "string"
        },
        {
          "internalType": "enum IDataStorage.CertificateLevel",
          "name": "_level",
          "type": "uint8"
        },
        {
          "internalType": "string",
          "name": "_JewelerName",
          "type": "string"
        },
        {
          "internalType": "enum IDataStorage.CertificateStatus",
          "name": "_status",
          "type": "uint8"
        }
      ],
      "name": "createCertificate",
      "outputs": [
        {
          "internalType": "bool",
          "name": "",
          "type": "bool"
        }
      ],
      "stateMutability": "nonpayable",
      "type": "function"
    },
    {
      "inputs": [
        {
          "internalType": "string",
          "name": "_name",
          "type": "string"
        },
        {
          "internalType": "string",
          "name": "_email",
          "type": "string"
        },
        {
          "internalType": "string",
          "name": "_location",
          "type": "string"
        }
      ],
      "name": "createCustomer",
      "outputs": [
        {
          "internalType": "bool",
          "name": "",
          "type": "bool"
        }
      ],
      "stateMutability": "nonpayable",
      "type": "function"
    },
    {
      "inputs": [
        {
          "internalType": "string",
          "name": "_name",
          "type": "string"
        },
        {
          "internalType": "string",
          "name": "_email",
          "type": "string"
        },
        {
          "internalType": "string",
          "name": "_location",
          "type": "string"
        }
      ],
      "name": "createJeweler",
      "outputs": [
        {
          "internalType": "bool",
          "name": "",
          "type": "bool"
        }
      ],
      "stateMutability": "nonpayable",
      "type": "function"
    },
    {
      "inputs": [
        {
          "internalType": "address",
          "name": "_jewelerAddress",
          "type": "address"
        }
      ],
      "name": "desactivateJeweler",
      "outputs": [
        {
          "internalType": "bool",
          "name": "",
          "type": "bool"
        }
      ],
      "stateMutability": "nonpayable",
      "type": "function"
    },
    {
      "inputs": [
        {
          "internalType": "uint256",
          "name": "tokenId",
          "type": "uint256"
        }
      ],
      "name": "getApproved",
      "outputs": [
        {
          "internalType": "address",
          "name": "",
          "type": "address"
        }
      ],
      "stateMutability": "view",
      "type": "function"
    },
    {
      "inputs": [],
      "name": "getCustomerCount",
      "outputs": [
        {
          "internalType": "uint256",
          "name": "",
          "type": "uint256"
        }
      ],
      "stateMutability": "view",
      "type": "function"
    },
    {
      "inputs": [],
      "name": "getJewelerCount",
      "outputs": [
        {
          "internalType": "uint256",
          "name": "",
          "type": "uint256"
        }
      ],
      "stateMutability": "view",
      "type": "function"
    },
    {
      "inputs": [
        {
          "internalType": "uint256",
          "name": "_certificateId",
          "type": "uint256"
        }
      ],
      "name": "getOneCertificate",
      "outputs": [
        {
          "components": [
            {
              "internalType": "uint256",
              "name": "creationDate",
              "type": "uint256"
            },
            {
              "internalType": "uint256",
              "name": "updated_at",
              "type": "uint256"
            },
            {
              "internalType": "uint8[]",
              "name": "materials",
              "type": "uint8[]"
            },
            {
              "internalType": "uint8[]",
              "name": "gemStones",
              "type": "uint8[]"
            },
            {
              "internalType": "uint8",
              "name": "weightInGrams",
              "type": "uint8"
            },
            {
              "internalType": "string",
              "name": "mainColor",
              "type": "string"
            },
            {
              "internalType": "enum IDataStorage.CertificateLevel",
              "name": "level",
              "type": "uint8"
            },
            {
              "internalType": "string",
              "name": "JewelerName",
              "type": "string"
            },
            {
              "internalType": "enum IDataStorage.CertificateStatus",
              "name": "status",
              "type": "uint8"
            }
          ],
          "internalType": "struct IDataStorage.Certificate",
          "name": "",
          "type": "tuple"
        }
      ],
      "stateMutability": "view",
      "type": "function"
    },
    {
      "inputs": [
        {
          "internalType": "address",
          "name": "_customerAddress",
          "type": "address"
        }
      ],
      "name": "getOneCustomer",
      "outputs": [
        {
          "components": [
            {
              "internalType": "uint256",
              "name": "created_at",
              "type": "uint256"
            },
            {
              "internalType": "uint256",
              "name": "updated_at",
              "type": "uint256"
            },
            {
              "internalType": "string",
              "name": "name",
              "type": "string"
            },
            {
              "internalType": "string",
              "name": "email",
              "type": "string"
            },
            {
              "internalType": "string",
              "name": "location",
              "type": "string"
            },
            {
              "internalType": "bool",
              "name": "visible",
              "type": "bool"
            },
            {
              "internalType": "uint256[]",
              "name": "OwnedCertificateIds",
              "type": "uint256[]"
            }
          ],
          "internalType": "struct IDataStorage.Customer",
          "name": "",
          "type": "tuple"
        }
      ],
      "stateMutability": "view",
      "type": "function"
    },
    {
      "inputs": [
        {
          "internalType": "address",
          "name": "_jewelerAddress",
          "type": "address"
        }
      ],
      "name": "getOneJeweler",
      "outputs": [
        {
          "components": [
            {
              "internalType": "uint256",
              "name": "created_at",
              "type": "uint256"
            },
            {
              "internalType": "uint256",
              "name": "updated_at",
              "type": "uint256"
            },
            {
              "internalType": "string",
              "name": "name",
              "type": "string"
            },
            {
              "internalType": "string",
              "name": "email",
              "type": "string"
            },
            {
              "internalType": "string",
              "name": "location",
              "type": "string"
            },
            {
              "internalType": "uint256[]",
              "name": "CreatedCertificateIds",
              "type": "uint256[]"
            },
            {
              "internalType": "bool",
              "name": "available",
              "type": "bool"
            },
            {
              "internalType": "bool",
              "name": "visible",
              "type": "bool"
            }
          ],
          "internalType": "struct IDataStorage.Jeweler",
          "name": "",
          "type": "tuple"
        }
      ],
      "stateMutability": "view",
      "type": "function"
    },
    {
      "inputs": [
        {
          "internalType": "bytes32",
          "name": "role",
          "type": "bytes32"
        }
      ],
      "name": "getRoleAdmin",
      "outputs": [
        {
          "internalType": "bytes32",
          "name": "",
          "type": "bytes32"
        }
      ],
      "stateMutability": "view",
      "type": "function"
    },
    {
      "inputs": [
        {
          "internalType": "bytes32",
          "name": "role",
          "type": "bytes32"
        },
        {
          "internalType": "address",
          "name": "account",
          "type": "address"
        }
      ],
      "name": "grantRole",
      "outputs": [],
      "stateMutability": "nonpayable",
      "type": "function"
    },
    {
      "inputs": [
        {
          "internalType": "bytes32",
          "name": "role",
          "type": "bytes32"
        },
        {
          "internalType": "address",
          "name": "account",
          "type": "address"
        }
      ],
      "name": "hasRole",
      "outputs": [
        {
          "internalType": "bool",
          "name": "",
          "type": "bool"
        }
      ],
      "stateMutability": "view",
      "type": "function"
    },
    {
      "inputs": [
        {
          "internalType": "address",
          "name": "owner",
          "type": "address"
        },
        {
          "internalType": "address",
          "name": "operator",
          "type": "address"
        }
      ],
      "name": "isApprovedForAll",
      "outputs": [
        {
          "internalType": "bool",
          "name": "",
          "type": "bool"
        }
      ],
      "stateMutability": "view",
      "type": "function"
    },
    {
      "inputs": [],
      "name": "name",
      "outputs": [
        {
          "internalType": "string",
          "name": "",
          "type": "string"
        }
      ],
      "stateMutability": "view",
      "type": "function"
    },
    {
      "inputs": [
        {
          "internalType": "uint256",
          "name": "tokenId",
          "type": "uint256"
        }
      ],
      "name": "ownerOf",
      "outputs": [
        {
          "internalType": "address",
          "name": "",
          "type": "address"
        }
      ],
      "stateMutability": "view",
      "type": "function"
    },
    {
      "inputs": [
        {
          "internalType": "bytes32",
          "name": "role",
          "type": "bytes32"
        },
        {
          "internalType": "address",
          "name": "callerConfirmation",
          "type": "address"
        }
      ],
      "name": "renounceRole",
      "outputs": [],
      "stateMutability": "nonpayable",
      "type": "function"
    },
    {
      "inputs": [
        {
          "internalType": "bytes32",
          "name": "role",
          "type": "bytes32"
        },
        {
          "internalType": "address",
          "name": "account",
          "type": "address"
        }
      ],
      "name": "revokeRole",
      "outputs": [],
      "stateMutability": "nonpayable",
      "type": "function"
    },
    {
      "inputs": [
        {
          "internalType": "address",
          "name": "to",
          "type": "address"
        }
      ],
      "name": "safeMint",
      "outputs": [
        {
          "internalType": "uint256",
          "name": "",
          "type": "uint256"
        }
      ],
      "stateMutability": "nonpayable",
      "type": "function"
    },
    {
      "inputs": [
        {
          "internalType": "address",
          "name": "from",
          "type": "address"
        },
        {
          "internalType": "address",
          "name": "to",
          "type": "address"
        },
        {
          "internalType": "uint256",
          "name": "tokenId",
          "type": "uint256"
        }
      ],
      "name": "safeTransferFrom",
      "outputs": [],
      "stateMutability": "nonpayable",
      "type": "function"
    },
    {
      "inputs": [
        {
          "internalType": "address",
          "name": "from",
          "type": "address"
        },
        {
          "internalType": "address",
          "name": "to",
          "type": "address"
        },
        {
          "internalType": "uint256",
          "name": "tokenId",
          "type": "uint256"
        },
        {
          "internalType": "bytes",
          "name": "data",
          "type": "bytes"
        }
      ],
      "name": "safeTransferFrom",
      "outputs": [],
      "stateMutability": "nonpayable",
      "type": "function"
    },
    {
      "inputs": [
        {
          "internalType": "address",
          "name": "operator",
          "type": "address"
        },
        {
          "internalType": "bool",
          "name": "approved",
          "type": "bool"
        }
      ],
      "name": "setApprovalForAll",
      "outputs": [],
      "stateMutability": "nonpayable",
      "type": "function"
    },
    {
      "inputs": [
        {
          "internalType": "bytes4",
          "name": "interfaceId",
          "type": "bytes4"
        }
      ],
      "name": "supportsInterface",
      "outputs": [
        {
          "internalType": "bool",
          "name": "",
          "type": "bool"
        }
      ],
      "stateMutability": "view",
      "type": "function"
    },
    {
      "inputs": [],
      "name": "symbol",
      "outputs": [
        {
          "internalType": "string",
          "name": "",
          "type": "string"
        }
      ],
      "stateMutability": "view",
      "type": "function"
    },
    {
      "inputs": [
        {
          "internalType": "uint256",
          "name": "index",
          "type": "uint256"
        }
      ],
      "name": "tokenByIndex",
      "outputs": [
        {
          "internalType": "uint256",
          "name": "",
          "type": "uint256"
        }
      ],
      "stateMutability": "view",
      "type": "function"
    },
    {
      "inputs": [
        {
          "internalType": "address",
          "name": "owner",
          "type": "address"
        },
        {
          "internalType": "uint256",
          "name": "index",
          "type": "uint256"
        }
      ],
      "name": "tokenOfOwnerByIndex",
      "outputs": [
        {
          "internalType": "uint256",
          "name": "",
          "type": "uint256"
        }
      ],
      "stateMutability": "view",
      "type": "function"
    },
    {
      "inputs": [
        {
          "internalType": "uint256",
          "name": "tokenId",
          "type": "uint256"
        }
      ],
      "name": "tokenURI",
      "outputs": [
        {
          "internalType": "string",
          "name": "",
          "type": "string"
        }
      ],
      "stateMutability": "view",
      "type": "function"
    },
    {
      "inputs": [],
      "name": "totalSupply",
      "outputs": [
        {
          "internalType": "uint256",
          "name": "",
          "type": "uint256"
        }
      ],
      "stateMutability": "view",
      "type": "function"
    },
    {
      "inputs": [
        {
          "internalType": "address",
          "name": "from",
          "type": "address"
        },
        {
          "internalType": "address",
          "name": "to",
          "type": "address"
        },
        {
          "internalType": "uint256",
          "name": "tokenId",
          "type": "uint256"
        }
      ],
      "name": "transferFrom",
      "outputs": [],
      "stateMutability": "nonpayable",
      "type": "function"
    },
    {
      "inputs": [],
      "name": "updateCertificate",
      "outputs": [
        {
          "internalType": "bool",
          "name": "",
          "type": "bool"
        }
      ],
      "stateMutability": "nonpayable",
      "type": "function"
    },
    {
      "inputs": [
        {
          "internalType": "string",
          "name": "_name",
          "type": "string"
        },
        {
          "internalType": "string",
          "name": "_email",
          "type": "string"
        },
        {
          "internalType": "string",
          "name": "_location",
          "type": "string"
        },
        {
          "internalType": "bool",
          "name": "_visible",
          "type": "bool"
        }
      ],
      "name": "updateCustomer",
      "outputs": [
        {
          "internalType": "bool",
          "name": "",
          "type": "bool"
        }
      ],
      "stateMutability": "nonpayable",
      "type": "function"
    },
    {
      "inputs": [
        {
          "internalType": "string",
          "name": "_name",
          "type": "string"
        },
        {
          "internalType": "string",
          "name": "_email",
          "type": "string"
        },
        {
          "internalType": "string",
          "name": "_location",
          "type": "string"
        },
        {
          "internalType": "bool",
          "name": "_visible",
          "type": "bool"
        }
      ],
      "name": "updateJeweler",
      "outputs": [
        {
          "internalType": "bool",
          "name": "",
          "type": "bool"
        }
      ],
      "stateMutability": "nonpayable",
      "type": "function"
    }
  ],
  "bytecode": "0x608060405234801561001057600080fd5b5060405161668338038061668383398181016040528101906100329190610371565b6040518060400160405280600f81526020017f476f6c64436861696e45524337323100000000000000000000000000000000008152506040518060400160405280600281526020017f474300000000000000000000000000000000000000000000000000000000000081525081600190816100ad91906105ee565b5080600290816100bd91906105ee565b5050506100d36000801b3361018d60201b60201c565b506101047fdf8b4c520ffe197c5343c6f5aec59570151ef9a492f2c624fd45ddde6135ec423361018d60201b60201c565b5033600d60006101000a81548173ffffffffffffffffffffffffffffffffffffffff021916908373ffffffffffffffffffffffffffffffffffffffff16021790555080600c60006101000a81548173ffffffffffffffffffffffffffffffffffffffff021916908373ffffffffffffffffffffffffffffffffffffffff160217905550506106c0565b600061019f838361028a60201b60201c565b61027f57600160008085815260200190815260200160002060000160008473ffffffffffffffffffffffffffffffffffffffff1673ffffffffffffffffffffffffffffffffffffffff16815260200190815260200160002060006101000a81548160ff02191690831515021790555061021c6102f460201b60201c565b73ffffffffffffffffffffffffffffffffffffffff168273ffffffffffffffffffffffffffffffffffffffff16847f2f8788117e7eff1d82e926ec794901d17c78024a50270940304540a733656f0d60405160405180910390a460019050610284565b600090505b92915050565b600080600084815260200190815260200160002060000160008373ffffffffffffffffffffffffffffffffffffffff1673ffffffffffffffffffffffffffffffffffffffff16815260200190815260200160002060009054906101000a900460ff16905092915050565b600033905090565b600080fd5b600073ffffffffffffffffffffffffffffffffffffffff82169050919050565b600061032c82610301565b9050919050565b600061033e82610321565b9050919050565b61034e81610333565b811461035957600080fd5b50565b60008151905061036b81610345565b92915050565b600060208284031215610387576103866102fc565b5b60006103958482850161035c565b91505092915050565b600081519050919050565b7f4e487b7100000000000000000000000000000000000000000000000000000000600052604160045260246000fd5b7f4e487b7100000000000000000000000000000000000000000000000000000000600052602260045260246000fd5b6000600282049050600182168061041f57607f821691505b602082108103610432576104316103d8565b5b50919050565b60008190508160005260206000209050919050565b60006020601f8301049050919050565b600082821b905092915050565b60006008830261049a7fffffffffffffffffffffffffffffffffffffffffffffffffffffffffffffffff8261045d565b6104a4868361045d565b95508019841693508086168417925050509392505050565b6000819050919050565b6000819050919050565b60006104eb6104e66104e1846104bc565b6104c6565b6104bc565b9050919050565b6000819050919050565b610505836104d0565b610519610511826104f2565b84845461046a565b825550505050565b600090565b61052e610521565b6105398184846104fc565b505050565b5b8181101561055d57610552600082610526565b60018101905061053f565b5050565b601f8211156105a25761057381610438565b61057c8461044d565b8101602085101561058b578190505b61059f6105978561044d565b83018261053e565b50505b505050565b600082821c905092915050565b60006105c5600019846008026105a7565b1980831691505092915050565b60006105de83836105b4565b9150826002028217905092915050565b6105f78261039e565b67ffffffffffffffff8111156106105761060f6103a9565b5b61061a8254610407565b610625828285610561565b600060209050601f8311600181146106585760008415610646578287015190505b61065085826105d2565b8655506106b8565b601f19841661066686610438565b60005b8281101561068e57848901518255600182019150602085019450602081019050610669565b868310156106ab57848901516106a7601f8916826105b4565b8355505b6001600288020188555050505b505050505050565b615fb4806106cf6000396000f3fe608060405234801561001057600080fd5b50600436106102485760003560e01c806355ed5fe81161013b578063a217fddf116100b8578063d547741f1161007c578063d547741f146107af578063e985e9c5146107cb578063ee7bf0ee146107fb578063f2e0bc581461082b578063f851a4401461085b57610248565b8063a217fddf146106f9578063a22cb46514610717578063b88d4fde14610733578063bab859a51461074f578063c87b56dd1461077f57610248565b8063832cc77e116100ff578063832cc77e1461063f578063899f9d0d1461066f5780638c2717771461068d57806391d14854146106ab57806395d89b41146106db57610248565b806355ed5fe81461056157806357a00ccf146105915780635994d984146105c15780636352211e146105df57806370a082311461060f57610248565b80632b3dd38b116101c957806341cc7c731161018d57806341cc7c731461049757806342842e0e146104c75780634f6ccce7146104e35780634ff7986e1461051357806355b059e81461053157610248565b80632b3dd38b146103cf5780632f2ff15d146103ff5780632f745c591461041b57806336568abe1461044b57806340d097c31461046757610248565b806318160ddd1161021057806318160ddd146103175780632027d7461461033557806323b872dd14610353578063248a9ca31461036f57806329acc2091461039f57610248565b806301ffc9a71461024d57806306fdde031461027d578063081812fc1461029b578063081ba2d5146102cb578063095ea7b3146102fb575b600080fd5b61026760048036038101906102629190613a12565b610879565b6040516102749190613a5a565b60405180910390f35b61028561088b565b6040516102929190613b05565b60405180910390f35b6102b560048036038101906102b09190613b5d565b61091d565b6040516102c29190613bcb565b60405180910390f35b6102e560048036038101906102e09190613c12565b610939565b6040516102f29190613a5a565b60405180910390f35b61031560048036038101906103109190613c3f565b610a47565b005b61031f610a5d565b60405161032c9190613c8e565b60405180910390f35b61033d610a6a565b60405161034a9190613c8e565b60405180910390f35b61036d60048036038101906103689190613ca9565b610b02565b005b61038960048036038101906103849190613d32565b610c04565b6040516103969190613d6e565b60405180910390f35b6103b960048036038101906103b49190613c12565b610c23565b6040516103c69190613a5a565b60405180910390f35b6103e960048036038101906103e49190613e1a565b610d31565b6040516103f69190613a5a565b60405180910390f35b61041960048036038101906104149190613ee3565b610e53565b005b61043560048036038101906104309190613c3f565b610e75565b6040516104429190613c8e565b60405180910390f35b61046560048036038101906104609190613ee3565b610f1e565b005b610481600480360381019061047c9190613c12565b610f99565b60405161048e9190613c8e565b60405180910390f35b6104b160048036038101906104ac9190613ffc565b610fc8565b6040516104be9190613a5a565b60405180910390f35b6104e160048036038101906104dc9190613ca9565b6110c5565b005b6104fd60048036038101906104f89190613b5d565b6110e5565b60405161050a9190613c8e565b60405180910390f35b61051b61115b565b6040516105289190613a5a565b60405180910390f35b61054b60048036038101906105469190614120565b611160565b6040516105589190613a5a565b60405180910390f35b61057b60048036038101906105769190614120565b6112e3565b6040516105889190613a5a565b60405180910390f35b6105ab60048036038101906105a69190613c12565b611469565b6040516105b891906143b0565b60405180910390f35b6105c9611519565b6040516105d69190613a5a565b60405180910390f35b6105f960048036038101906105f49190613b5d565b61151e565b6040516106069190613bcb565b60405180910390f35b61062960048036038101906106249190613c12565b611530565b6040516106369190613c8e565b60405180910390f35b61065960048036038101906106549190614502565b6115ea565b6040516106669190613b05565b60405180910390f35b6106776115fc565b6040516106849190613a5a565b60405180910390f35b610695611605565b6040516106a29190613c8e565b60405180910390f35b6106c560048036038101906106c09190613ee3565b61169d565b6040516106d29190613a5a565b60405180910390f35b6106e3611707565b6040516106f09190613b05565b60405180910390f35b610701611799565b60405161070e9190613d6e565b60405180910390f35b610731600480360381019061072c919061454b565b6117a0565b005b61074d6004803603810190610748919061458b565b6117b6565b005b61076960048036038101906107649190613b5d565b6117db565b6040516107769190614865565b60405180910390f35b61079960048036038101906107949190613b5d565b61188b565b6040516107a69190613b05565b60405180910390f35b6107c960048036038101906107c49190613ee3565b6119c2565b005b6107e560048036038101906107e09190614887565b6119e4565b6040516107f29190613a5a565b60405180910390f35b61081560048036038101906108109190613c12565b611a78565b6040516108229190614978565b60405180910390f35b61084560048036038101906108409190613e1a565b611b28565b6040516108529190613a5a565b60405180910390f35b610863611c4a565b6040516108709190613bcb565b60405180910390f35b600061088482611c70565b9050919050565b60606001805461089a906149c9565b80601f01602080910402602001604051908101604052809291908181526020018280546108c6906149c9565b80156109135780601f106108e857610100808354040283529160200191610913565b820191906000526020600020905b8154815290600101906020018083116108f657829003601f168201915b5050505050905090565b600061092882611c82565b5061093282611d0a565b9050919050565b60007fdf8b4c520ffe197c5343c6f5aec59570151ef9a492f2c624fd45ddde6135ec4261096581611d47565b600c60009054906101000a900473ffffffffffffffffffffffffffffffffffffffff1673ffffffffffffffffffffffffffffffffffffffff1663081ba2d5846040518263ffffffff1660e01b81526004016109c09190613bcb565b6020604051808303816000875af11580156109df573d6000803e3d6000fd5b505050506040513d601f19601f82011682018060405250810190610a039190614a0f565b507f188d8ca5695483231734d1734924f73ab34848f997f2de827c8f73033b4614ae8342604051610a35929190614a3c565b60405180910390a16001915050919050565b610a598282610a54611d5b565b611d63565b5050565b6000600980549050905090565b6000600c60009054906101000a900473ffffffffffffffffffffffffffffffffffffffff1673ffffffffffffffffffffffffffffffffffffffff16632027d7466040518163ffffffff1660e01b8152600401602060405180830381865afa158015610ad9573d6000803e3d6000fd5b505050506040513d601f19601f82011682018060405250810190610afd9190614a7a565b905090565b600073ffffffffffffffffffffffffffffffffffffffff168273ffffffffffffffffffffffffffffffffffffffff1603610b745760006040517f64a0ae92000000000000000000000000000000000000000000000000000000008152600401610b6b9190613bcb565b60405180910390fd5b6000610b888383610b83611d5b565b611d75565b90508373ffffffffffffffffffffffffffffffffffffffff168173ffffffffffffffffffffffffffffffffffffffff1614610bfe578382826040517f64283d7b000000000000000000000000000000000000000000000000000000008152600401610bf593929190614aa7565b60405180910390fd5b50505050565b6000806000838152602001908152602001600020600101549050919050565b60007fdf8b4c520ffe197c5343c6f5aec59570151ef9a492f2c624fd45ddde6135ec42610c4f81611d47565b600c60009054906101000a900473ffffffffffffffffffffffffffffffffffffffff1673ffffffffffffffffffffffffffffffffffffffff166329acc209846040518263ffffffff1660e01b8152600401610caa9190613bcb565b6020604051808303816000875af1158015610cc9573d6000803e3d6000fd5b505050506040513d601f19601f82011682018060405250810190610ced9190614a0f565b507f449422d37ad477a115e35ded9d4971e6ed3594f45df1408f1eb2320a8bc5c2b88342604051610d1f929190614a3c565b60405180910390a16001915050919050565b60007f61e6a4bb6bca8aa1f17c71895c1ab1bf9c06c812442a0a16aad9f0837c23ca79610d5d81611d47565b600c60009054906101000a900473ffffffffffffffffffffffffffffffffffffffff1673ffffffffffffffffffffffffffffffffffffffff1663a735e5de338b8b8b8b8b8b8b6040518963ffffffff1660e01b8152600401610dc6989796959493929190614b0b565b6020604051808303816000875af1158015610de5573d6000803e3d6000fd5b505050506040513d601f19601f82011682018060405250810190610e099190614a0f565b507fc21195a7f73acb0112d9942f6c5c02acc3d8d2c74ab81a6c28f4f492dac933b83342604051610e3b929190614a3c565b60405180910390a16001915050979650505050505050565b610e5c82610c04565b610e6581611d47565b610e6f8383611d8b565b50505050565b6000610e8083611530565b8210610ec55782826040517fa57d13dc000000000000000000000000000000000000000000000000000000008152600401610ebc929190614a3c565b60405180910390fd5b600760008473ffffffffffffffffffffffffffffffffffffffff1673ffffffffffffffffffffffffffffffffffffffff168152602001908152602001600020600083815260200190815260200160002054905092915050565b610f26611d5b565b73ffffffffffffffffffffffffffffffffffffffff168173ffffffffffffffffffffffffffffffffffffffff1614610f8a576040517f6697b23200000000000000000000000000000000000000000000000000000000815260040160405180910390fd5b610f948282611e7c565b505050565b600080600b6000815480929190610faf90614ba8565b919050559050610fbf8382611f6e565b80915050919050565b60007f61e6a4bb6bca8aa1f17c71895c1ab1bf9c06c812442a0a16aad9f0837c23ca79610ff481611d47565b600c60009054906101000a900473ffffffffffffffffffffffffffffffffffffffff1673ffffffffffffffffffffffffffffffffffffffff166364df69e78e8e8e8e8e8e8e8e8e8e8e6040518c63ffffffff1660e01b81526004016110639b9a99989796959493929190614cb9565b6020604051808303816000875af1158015611082573d6000803e3d6000fd5b505050506040513d601f19601f820116820180604052508101906110a69190614a0f565b506110b033610f99565b5060019150509b9a5050505050505050505050565b6110e0838383604051806020016040528060008152506117b6565b505050565b60006110ef610a5d565b8210611135576000826040517fa57d13dc00000000000000000000000000000000000000000000000000000000815260040161112c929190614a3c565b60405180910390fd5b6009828154811061114957611148614d4c565b5b90600052602060002001549050919050565b600081565b600061118c7faf6786efc154b345802554f1dea27e60ea4c3393b6b38eb8438e22c20e088bd23361169d565b156111c3576040517f937df23900000000000000000000000000000000000000000000000000000000815260040160405180910390fd5b6111ed7faf6786efc154b345802554f1dea27e60ea4c3393b6b38eb8438e22c20e088bd233611d8b565b50600c60009054906101000a900473ffffffffffffffffffffffffffffffffffffffff1673ffffffffffffffffffffffffffffffffffffffff16630f6a35403389898989898960016040518963ffffffff1660e01b8152600401611258989796959493929190614b0b565b6020604051808303816000875af1158015611277573d6000803e3d6000fd5b505050506040513d601f19601f8201168201806040525081019061129b9190614a0f565b507f9355f2ba77852e61793679ff03cf26231b8175fdfb97dc47490f1b151e6ab0d433426040516112cd929190614a3c565b60405180910390a1600190509695505050505050565b600061130f7f61e6a4bb6bca8aa1f17c71895c1ab1bf9c06c812442a0a16aad9f0837c23ca793361169d565b15611346576040517f9e5ae09300000000000000000000000000000000000000000000000000000000815260040160405180910390fd5b6113707f61e6a4bb6bca8aa1f17c71895c1ab1bf9c06c812442a0a16aad9f0837c23ca7933611d8b565b50600c60009054906101000a900473ffffffffffffffffffffffffffffffffffffffff1673ffffffffffffffffffffffffffffffffffffffff16637208ca1933898989898989600060016040518a63ffffffff1660e01b81526004016113de99989796959493929190614d7b565b6020604051808303816000875af11580156113fd573d6000803e3d6000fd5b505050506040513d601f19601f820116820180604052508101906114219190614a0f565b507fa12abd8201760a4e094635a878d94e4e31ee41204057e1ba4081b4c8ba7df8a83342604051611453929190614a3c565b60405180910390a1600190509695505050505050565b6114716138ab565b600c60009054906101000a900473ffffffffffffffffffffffffffffffffffffffff1673ffffffffffffffffffffffffffffffffffffffff166357a00ccf836040518263ffffffff1660e01b81526004016114cc9190613bcb565b600060405180830381865afa1580156114e9573d6000803e3d6000fd5b505050506040513d6000823e3d601f19601f82011682018060405250810190611512919061509f565b9050919050565b600181565b600061152982611c82565b9050919050565b60008073ffffffffffffffffffffffffffffffffffffffff168273ffffffffffffffffffffffffffffffffffffffff16036115a35760006040517f89c62b6400000000000000000000000000000000000000000000000000000000815260040161159a9190613bcb565b60405180910390fd5b600460008373ffffffffffffffffffffffffffffffffffffffff1673ffffffffffffffffffffffffffffffffffffffff168152602001908152602001600020549050919050565b60606115f582611f8c565b9050919050565b60006001905090565b6000600c60009054906101000a900473ffffffffffffffffffffffffffffffffffffffff1673ffffffffffffffffffffffffffffffffffffffff16638c2717776040518163ffffffff1660e01b8152600401602060405180830381865afa158015611674573d6000803e3d6000fd5b505050506040513d601f19601f820116820180604052508101906116989190614a7a565b905090565b600080600084815260200190815260200160002060000160008373ffffffffffffffffffffffffffffffffffffffff1673ffffffffffffffffffffffffffffffffffffffff16815260200190815260200160002060009054906101000a900460ff16905092915050565b606060028054611716906149c9565b80601f0160208091040260200160405190810160405280929190818152602001828054611742906149c9565b801561178f5780601f106117645761010080835404028352916020019161178f565b820191906000526020600020905b81548152906001019060200180831161177257829003601f168201915b5050505050905090565b6000801b81565b6117b26117ab611d5b565b8383612123565b5050565b6117c1848484610b02565b6117d56117cc611d5b565b85858585612292565b50505050565b6117e36138f4565b600c60009054906101000a900473ffffffffffffffffffffffffffffffffffffffff1673ffffffffffffffffffffffffffffffffffffffff1663bab859a5836040518263ffffffff1660e01b815260040161183e9190613c8e565b600060405180830381865afa15801561185b573d6000803e3d6000fd5b505050506040513d6000823e3d601f19601f82011682018060405250810190611884919061533a565b9050919050565b6060600b5482106118c8576040517fceea21b600000000000000000000000000000000000000000000000000000000815260040160405180910390fd5b6040518060400160405280601d81526020017f646174613a6170706c69636174696f6e2f6a736f6e3b6261736536342c00000081525061199b604051806060016040528060258152602001615eff6025913961192385612443565b61192c86612511565b61193d6119388861271e565b611f8c565b6040518060400160405280600281526020017f227d0000000000000000000000000000000000000000000000000000000000008152506040516020016119879594939291906153bf565b604051602081830303815290604052611f8c565b6040516020016119ac92919061540a565b6040516020818303038152906040529050919050565b6119cb82610c04565b6119d481611d47565b6119de8383611e7c565b50505050565b6000600660008473ffffffffffffffffffffffffffffffffffffffff1673ffffffffffffffffffffffffffffffffffffffff16815260200190815260200160002060008373ffffffffffffffffffffffffffffffffffffffff1673ffffffffffffffffffffffffffffffffffffffff16815260200190815260200160002060009054906101000a900460ff16905092915050565b611a80613967565b600c60009054906101000a900473ffffffffffffffffffffffffffffffffffffffff1673ffffffffffffffffffffffffffffffffffffffff1663ee7bf0ee836040518263ffffffff1660e01b8152600401611adb9190613bcb565b600060405180830381865afa158015611af8573d6000803e3d6000fd5b505050506040513d6000823e3d601f19601f82011682018060405250810190611b219190615552565b9050919050565b60007faf6786efc154b345802554f1dea27e60ea4c3393b6b38eb8438e22c20e088bd2611b5481611d47565b600c60009054906101000a900473ffffffffffffffffffffffffffffffffffffffff1673ffffffffffffffffffffffffffffffffffffffff1663dfd49f25338b8b8b8b8b8b8b6040518963ffffffff1660e01b8152600401611bbd989796959493929190614b0b565b6020604051808303816000875af1158015611bdc573d6000803e3d6000fd5b505050506040513d601f19601f82011682018060405250810190611c009190614a0f565b507f3e981d6fd4c5bd91ef3f68ca28a36322130d52221ab7319ae700e4c417dcc8e33342604051611c32929190614a3c565b60405180910390a16001915050979650505050505050565b600d60009054906101000a900473ffffffffffffffffffffffffffffffffffffffff1681565b6000611c7b82612a5c565b9050919050565b600080611c8e83612ad6565b9050600073ffffffffffffffffffffffffffffffffffffffff168173ffffffffffffffffffffffffffffffffffffffff1603611d0157826040517f7e273289000000000000000000000000000000000000000000000000000000008152600401611cf89190613c8e565b60405180910390fd5b80915050919050565b60006005600083815260200190815260200160002060009054906101000a900473ffffffffffffffffffffffffffffffffffffffff169050919050565b611d5881611d53611d5b565b612b13565b50565b600033905090565b611d708383836001612b64565b505050565b6000611d82848484612d29565b90509392505050565b6000611d97838361169d565b611e7157600160008085815260200190815260200160002060000160008473ffffffffffffffffffffffffffffffffffffffff1673ffffffffffffffffffffffffffffffffffffffff16815260200190815260200160002060006101000a81548160ff021916908315150217905550611e0e611d5b565b73ffffffffffffffffffffffffffffffffffffffff168273ffffffffffffffffffffffffffffffffffffffff16847f2f8788117e7eff1d82e926ec794901d17c78024a50270940304540a733656f0d60405160405180910390a460019050611e76565b600090505b92915050565b6000611e88838361169d565b15611f6357600080600085815260200190815260200160002060000160008473ffffffffffffffffffffffffffffffffffffffff1673ffffffffffffffffffffffffffffffffffffffff16815260200190815260200160002060006101000a81548160ff021916908315150217905550611f00611d5b565b73ffffffffffffffffffffffffffffffffffffffff168273ffffffffffffffffffffffffffffffffffffffff16847ff6391f5c32d9c69d2a47ea670b442974b53935d1edc7fd64eb21e047a839171b60405160405180910390a460019050611f68565b600090505b92915050565b611f88828260405180602001604052806000815250612e46565b5050565b606060008251905060008103611fb4576040518060200160405280600081525091505061211e565b60006003600283611fc5919061559b565b611fcf91906155fe565b6004611fdb919061562f565b90506000602082611fec919061559b565b67ffffffffffffffff811115612005576120046143d7565b5b6040519080825280601f01601f1916602001820160405280156120375781602001600182028036833780820191505090505b5090506000604051806060016040528060408152602001615caf604091399050600181016020830160005b868110156120db5760038101905062ffffff818a015116603f8160121c168401518060081b905060ff603f83600c1c1686015116810190508060081b905060ff603f8360061c1686015116810190508060081b905060ff603f831686015116810190508060e01b90508084526004840193505050612062565b5060038606600181146120f5576002811461210557612110565b613d3d60f01b6002830352612110565b603d60f81b60018303525b508484525050819450505050505b919050565b600073ffffffffffffffffffffffffffffffffffffffff168273ffffffffffffffffffffffffffffffffffffffff160361219457816040517f5b08ba1800000000000000000000000000000000000000000000000000000000815260040161218b9190613bcb565b60405180910390fd5b80600660008573ffffffffffffffffffffffffffffffffffffffff1673ffffffffffffffffffffffffffffffffffffffff16815260200190815260200160002060008473ffffffffffffffffffffffffffffffffffffffff1673ffffffffffffffffffffffffffffffffffffffff16815260200190815260200160002060006101000a81548160ff0219169083151502179055508173ffffffffffffffffffffffffffffffffffffffff168373ffffffffffffffffffffffffffffffffffffffff167f17307eab39ab6107e8899845ad3d59bd9653f200f220920489ca2b5937696c31836040516122859190613a5a565b60405180910390a3505050565b60008373ffffffffffffffffffffffffffffffffffffffff163b111561243c578273ffffffffffffffffffffffffffffffffffffffff1663150b7a02868685856040518563ffffffff1660e01b81526004016122f194939291906156c6565b6020604051808303816000875af192505050801561232d57506040513d601f19601f8201168201806040525081019061232a9190615727565b60015b6123b1573d806000811461235d576040519150601f19603f3d011682016040523d82523d6000602084013e612362565b606091505b5060008151036123a957836040517f64a0ae920000000000000000000000000000000000000000000000000000000081526004016123a09190613bcb565b60405180910390fd5b805181602001fd5b63150b7a0260e01b7bffffffffffffffffffffffffffffffffffffffffffffffffffffffff1916817bffffffffffffffffffffffffffffffffffffffffffffffffffffffff19161461243a57836040517f64a0ae920000000000000000000000000000000000000000000000000000000081526004016124319190613bcb565b60405180910390fd5b505b5050505050565b60606000600161245284612e6a565b01905060008167ffffffffffffffff811115612471576124706143d7565b5b6040519080825280601f01601f1916602001820160405280156124a35781602001600182028036833780820191505090505b509050600082602001820190505b600115612506578080600190039150507f3031323334353637383961626364656600000000000000000000000000000000600a86061a8153600a85816124fa576124f96155cf565b5b049450600085036124b1575b819350505050919050565b60606000600c60009054906101000a900473ffffffffffffffffffffffffffffffffffffffff1673ffffffffffffffffffffffffffffffffffffffff1663bab859a5846040518263ffffffff1660e01b81526004016125709190613c8e565b600060405180830381865afa15801561258d573d6000803e3d6000fd5b505050506040513d6000823e3d601f19601f820116820180604052508101906125b6919061533a565b90506000604051806060016040528060398152602001615ad4603991398260e001516040518060600160405280602b8152602001615cef602b9139846040015160008151811061260957612608614d4c565b5b60200260200101516040518060600160405280602c8152602001615f53602c9139866060015160008151811061264257612641614d4c565b5b602002602001015160405160200161265f9695949392919061578a565b6040516020818303038152906040529050806040518060600160405280602c8152602001615a36602c913961269a846080015160ff16612443565b6040518060600160405280602881526020016159c1602891398560a001516040518060600160405280602f8152602001615f24602f91398760c0015160405180606001604052806028815260200161594260289139604051602001612706989796959493929190615801565b60405160208183030381529060405292505050919050565b6060600060405180608001604052806057815260200161596a605791396040518060a00160405280606e8152602001615b89606e91396040518060a0016040528060798152602001615e20607991396040518060400160405280601781526020017f43657274696669636174204e46542064652042696a6f750000000000000000008152506040518060400160405280600781526020017f3c2f746578743e000000000000000000000000000000000000000000000000008152506040516020016127ed9594939291906153bf565b6040516020818303038152906040529050806040518060800160405280605d8152602001615d1a605d91396040518060800160405280605c8152602001615d77605c91396040518060a0016040528060728152602001615a62607291396040518060800160405280604d8152602001615c62604d91396040516020016128779594939291906153bf565b6040516020818303038152906040529050806040518060800160405280604d81526020016159e9604d91396040518060800160405280604d8152602001615dd3604d91396040518060a00160405280607c8152602001615b0d607c91396040518060400160405280600981526020017f476f6c64436861696e000000000000000000000000000000000000000000000081525060405160200161291e9594939291906153bf565b6040516020818303038152906040529050806040518060400160405280600781526020017f3c2f746578743e000000000000000000000000000000000000000000000000008152506040518060a00160405280606b8152602001615bf7606b91396040518060a0016040528060668152602001615e99606691396040516020016129ab9493929190615877565b6040516020818303038152906040529050806040518060400160405280600781526020017f3c2f746578743e000000000000000000000000000000000000000000000000008152506129fc85612443565b6040518060400160405280600681526020017f3c2f7376673e0000000000000000000000000000000000000000000000000000815250604051602001612a459493929190615877565b604051602081830303815290604052915050919050565b60007f780e9d63000000000000000000000000000000000000000000000000000000007bffffffffffffffffffffffffffffffffffffffffffffffffffffffff1916827bffffffffffffffffffffffffffffffffffffffffffffffffffffffff19161480612acf5750612ace82612fbd565b5b9050919050565b60006003600083815260200190815260200160002060009054906101000a900473ffffffffffffffffffffffffffffffffffffffff169050919050565b612b1d828261169d565b612b605780826040517fe2517d3f000000000000000000000000000000000000000000000000000000008152600401612b579291906158b5565b60405180910390fd5b5050565b8080612b9d5750600073ffffffffffffffffffffffffffffffffffffffff168273ffffffffffffffffffffffffffffffffffffffff1614155b15612cd1576000612bad84611c82565b9050600073ffffffffffffffffffffffffffffffffffffffff168373ffffffffffffffffffffffffffffffffffffffff1614158015612c1857508273ffffffffffffffffffffffffffffffffffffffff168173ffffffffffffffffffffffffffffffffffffffff1614155b8015612c2b5750612c2981846119e4565b155b15612c6d57826040517fa9fbf51f000000000000000000000000000000000000000000000000000000008152600401612c649190613bcb565b60405180910390fd5b8115612ccf57838573ffffffffffffffffffffffffffffffffffffffff168273ffffffffffffffffffffffffffffffffffffffff167f8c5be1e5ebec7d5bd14f71427d1e84f3dd0314c0f7b2291e5b200ac8c7c3b92560405160405180910390a45b505b836005600085815260200190815260200160002060006101000a81548173ffffffffffffffffffffffffffffffffffffffff021916908373ffffffffffffffffffffffffffffffffffffffff16021790555050505050565b600080612d3785858561309f565b9050600073ffffffffffffffffffffffffffffffffffffffff168173ffffffffffffffffffffffffffffffffffffffff1603612d7b57612d76846132b9565b612dba565b8473ffffffffffffffffffffffffffffffffffffffff168173ffffffffffffffffffffffffffffffffffffffff1614612db957612db88185613302565b5b5b600073ffffffffffffffffffffffffffffffffffffffff168573ffffffffffffffffffffffffffffffffffffffff1603612dfc57612df7846133ed565b612e3b565b8473ffffffffffffffffffffffffffffffffffffffff168173ffffffffffffffffffffffffffffffffffffffff1614612e3a57612e3985856134be565b5b5b809150509392505050565b612e508383613549565b612e65612e5b611d5b565b6000858585612292565b505050565b600080600090507a184f03e93ff9f4daa797ed6e38ed64bf6a1f0100000000000000008310612ec8577a184f03e93ff9f4daa797ed6e38ed64bf6a1f0100000000000000008381612ebe57612ebd6155cf565b5b0492506040810190505b6d04ee2d6d415b85acef81000000008310612f05576d04ee2d6d415b85acef81000000008381612efb57612efa6155cf565b5b0492506020810190505b662386f26fc100008310612f3457662386f26fc100008381612f2a57612f296155cf565b5b0492506010810190505b6305f5e1008310612f5d576305f5e1008381612f5357612f526155cf565b5b0492506008810190505b6127108310612f82576127108381612f7857612f776155cf565b5b0492506004810190505b60648310612fa55760648381612f9b57612f9a6155cf565b5b0492506002810190505b600a8310612fb4576001810190505b80915050919050565b60007f80ac58cd000000000000000000000000000000000000000000000000000000007bffffffffffffffffffffffffffffffffffffffffffffffffffffffff1916827bffffffffffffffffffffffffffffffffffffffffffffffffffffffff1916148061308857507f5b5e139f000000000000000000000000000000000000000000000000000000007bffffffffffffffffffffffffffffffffffffffffffffffffffffffff1916827bffffffffffffffffffffffffffffffffffffffffffffffffffffffff1916145b80613098575061309782613642565b5b9050919050565b6000806130ab84612ad6565b9050600073ffffffffffffffffffffffffffffffffffffffff168373ffffffffffffffffffffffffffffffffffffffff16146130ed576130ec8184866136bc565b5b600073ffffffffffffffffffffffffffffffffffffffff168173ffffffffffffffffffffffffffffffffffffffff161461317e5761312f600085600080612b64565b6001600460008373ffffffffffffffffffffffffffffffffffffffff1673ffffffffffffffffffffffffffffffffffffffff168152602001908152602001600020600082825403925050819055505b600073ffffffffffffffffffffffffffffffffffffffff168573ffffffffffffffffffffffffffffffffffffffff1614613201576001600460008773ffffffffffffffffffffffffffffffffffffffff1673ffffffffffffffffffffffffffffffffffffffff168152602001908152602001600020600082825401925050819055505b846003600086815260200190815260200160002060006101000a81548173ffffffffffffffffffffffffffffffffffffffff021916908373ffffffffffffffffffffffffffffffffffffffff160217905550838573ffffffffffffffffffffffffffffffffffffffff168273ffffffffffffffffffffffffffffffffffffffff167fddf252ad1be2c89b69c2b068fc378daa952ba7f163c4a11628f55a4df523b3ef60405160405180910390a4809150509392505050565b600980549050600a600083815260200190815260200160002081905550600981908060018154018082558091505060019003906000526020600020016000909190919091505550565b600061330d83611530565b90506000600860008481526020019081526020016000205490506000600760008673ffffffffffffffffffffffffffffffffffffffff1673ffffffffffffffffffffffffffffffffffffffff16815260200190815260200160002090508282146133b95760008160008581526020019081526020016000205490508082600085815260200190815260200160002081905550826008600083815260200190815260200160002081905550505b6008600085815260200190815260200160002060009055806000848152602001908152602001600020600090555050505050565b6000600160098054905061340191906158de565b90506000600a600084815260200190815260200160002054905060006009838154811061343157613430614d4c565b5b90600052602060002001549050806009838154811061345357613452614d4c565b5b906000526020600020018190555081600a600083815260200190815260200160002081905550600a60008581526020019081526020016000206000905560098054806134a2576134a1615912565b5b6001900381819060005260206000200160009055905550505050565b600060016134cb84611530565b6134d591906158de565b905081600760008573ffffffffffffffffffffffffffffffffffffffff1673ffffffffffffffffffffffffffffffffffffffff168152602001908152602001600020600083815260200190815260200160002081905550806008600084815260200190815260200160002081905550505050565b600073ffffffffffffffffffffffffffffffffffffffff168273ffffffffffffffffffffffffffffffffffffffff16036135bb5760006040517f64a0ae920000000000000000000000000000000000000000000000000000000081526004016135b29190613bcb565b60405180910390fd5b60006135c983836000611d75565b9050600073ffffffffffffffffffffffffffffffffffffffff168173ffffffffffffffffffffffffffffffffffffffff161461363d5760006040517f73c6ac6e0000000000000000000000000000000000000000000000000000000081526004016136349190613bcb565b60405180910390fd5b505050565b60007f7965db0b000000000000000000000000000000000000000000000000000000007bffffffffffffffffffffffffffffffffffffffffffffffffffffffff1916827bffffffffffffffffffffffffffffffffffffffffffffffffffffffff191614806136b557506136b482613780565b5b9050919050565b6136c78383836137ea565b61377b57600073ffffffffffffffffffffffffffffffffffffffff168373ffffffffffffffffffffffffffffffffffffffff160361373c57806040517f7e2732890000000000000000000000000000000000000000000000000000000081526004016137339190613c8e565b60405180910390fd5b81816040517f177e802f000000000000000000000000000000000000000000000000000000008152600401613772929190614a3c565b60405180910390fd5b505050565b60007f01ffc9a7000000000000000000000000000000000000000000000000000000007bffffffffffffffffffffffffffffffffffffffffffffffffffffffff1916827bffffffffffffffffffffffffffffffffffffffffffffffffffffffff1916149050919050565b60008073ffffffffffffffffffffffffffffffffffffffff168373ffffffffffffffffffffffffffffffffffffffff16141580156138a257508273ffffffffffffffffffffffffffffffffffffffff168473ffffffffffffffffffffffffffffffffffffffff161480613863575061386284846119e4565b5b806138a157508273ffffffffffffffffffffffffffffffffffffffff1661388983611d0a565b73ffffffffffffffffffffffffffffffffffffffff16145b5b90509392505050565b6040518061010001604052806000815260200160008152602001606081526020016060815260200160608152602001606081526020016000151581526020016000151581525090565b60405180610120016040528060008152602001600081526020016060815260200160608152602001600060ff1681526020016060815260200160006003811115613941576139406146cc565b5b81526020016060815260200160006004811115613961576139606146cc565b5b81525090565b6040518060e001604052806000815260200160008152602001606081526020016060815260200160608152602001600015158152602001606081525090565b6000604051905090565b600080fd5b600080fd5b60007fffffffff0000000000000000000000000000000000000000000000000000000082169050919050565b6139ef816139ba565b81146139fa57600080fd5b50565b600081359050613a0c816139e6565b92915050565b600060208284031215613a2857613a276139b0565b5b6000613a36848285016139fd565b91505092915050565b60008115159050919050565b613a5481613a3f565b82525050565b6000602082019050613a6f6000830184613a4b565b92915050565b600081519050919050565b600082825260208201905092915050565b60005b83811015613aaf578082015181840152602081019050613a94565b60008484015250505050565b6000601f19601f8301169050919050565b6000613ad782613a75565b613ae18185613a80565b9350613af1818560208601613a91565b613afa81613abb565b840191505092915050565b60006020820190508181036000830152613b1f8184613acc565b905092915050565b6000819050919050565b613b3a81613b27565b8114613b4557600080fd5b50565b600081359050613b5781613b31565b92915050565b600060208284031215613b7357613b726139b0565b5b6000613b8184828501613b48565b91505092915050565b600073ffffffffffffffffffffffffffffffffffffffff82169050919050565b6000613bb582613b8a565b9050919050565b613bc581613baa565b82525050565b6000602082019050613be06000830184613bbc565b92915050565b613bef81613baa565b8114613bfa57600080fd5b50565b600081359050613c0c81613be6565b92915050565b600060208284031215613c2857613c276139b0565b5b6000613c3684828501613bfd565b91505092915050565b60008060408385031215613c5657613c556139b0565b5b6000613c6485828601613bfd565b9250506020613c7585828601613b48565b9150509250929050565b613c8881613b27565b82525050565b6000602082019050613ca36000830184613c7f565b92915050565b600080600060608486031215613cc257613cc16139b0565b5b6000613cd086828701613bfd565b9350506020613ce186828701613bfd565b9250506040613cf286828701613b48565b9150509250925092565b6000819050919050565b613d0f81613cfc565b8114613d1a57600080fd5b50565b600081359050613d2c81613d06565b92915050565b600060208284031215613d4857613d476139b0565b5b6000613d5684828501613d1d565b91505092915050565b613d6881613cfc565b82525050565b6000602082019050613d836000830184613d5f565b92915050565b600080fd5b600080fd5b600080fd5b60008083601f840112613dae57613dad613d89565b5b8235905067ffffffffffffffff811115613dcb57613dca613d8e565b5b602083019150836001820283011115613de757613de6613d93565b5b9250929050565b613df781613a3f565b8114613e0257600080fd5b50565b600081359050613e1481613dee565b92915050565b60008060008060008060006080888a031215613e3957613e386139b0565b5b600088013567ffffffffffffffff811115613e5757613e566139b5565b5b613e638a828b01613d98565b9750975050602088013567ffffffffffffffff811115613e8657613e856139b5565b5b613e928a828b01613d98565b9550955050604088013567ffffffffffffffff811115613eb557613eb46139b5565b5b613ec18a828b01613d98565b93509350506060613ed48a828b01613e05565b91505092959891949750929550565b60008060408385031215613efa57613ef96139b0565b5b6000613f0885828601613d1d565b9250506020613f1985828601613bfd565b9150509250929050565b60008083601f840112613f3957613f38613d89565b5b8235905067ffffffffffffffff811115613f5657613f55613d8e565b5b602083019150836020820283011115613f7257613f71613d93565b5b9250929050565b600060ff82169050919050565b613f8f81613f79565b8114613f9a57600080fd5b50565b600081359050613fac81613f86565b92915050565b60048110613fbf57600080fd5b50565b600081359050613fd181613fb2565b92915050565b60058110613fe457600080fd5b50565b600081359050613ff681613fd7565b92915050565b600080600080600080600080600080600060e08c8e031215614021576140206139b0565b5b60008c013567ffffffffffffffff81111561403f5761403e6139b5565b5b61404b8e828f01613f23565b9b509b505060208c013567ffffffffffffffff81111561406e5761406d6139b5565b5b61407a8e828f01613f23565b9950995050604061408d8e828f01613f9d565b97505060608c013567ffffffffffffffff8111156140ae576140ad6139b5565b5b6140ba8e828f01613d98565b965096505060806140cd8e828f01613fc2565b94505060a08c013567ffffffffffffffff8111156140ee576140ed6139b5565b5b6140fa8e828f01613d98565b935093505060c061410d8e828f01613fe7565b9150509295989b509295989b9093969950565b6000806000806000806060878903121561413d5761413c6139b0565b5b600087013567ffffffffffffffff81111561415b5761415a6139b5565b5b61416789828a01613d98565b9650965050602087013567ffffffffffffffff81111561418a576141896139b5565b5b61419689828a01613d98565b9450945050604087013567ffffffffffffffff8111156141b9576141b86139b5565b5b6141c589828a01613d98565b92509250509295509295509295565b6141dd81613b27565b82525050565b600082825260208201905092915050565b60006141ff82613a75565b61420981856141e3565b9350614219818560208601613a91565b61422281613abb565b840191505092915050565b600081519050919050565b600082825260208201905092915050565b6000819050602082019050919050565b600061426583836141d4565b60208301905092915050565b6000602082019050919050565b60006142898261422d565b6142938185614238565b935061429e83614249565b8060005b838110156142cf5781516142b68882614259565b97506142c183614271565b9250506001810190506142a2565b5085935050505092915050565b6142e581613a3f565b82525050565b60006101008301600083015161430460008601826141d4565b50602083015161431760208601826141d4565b506040830151848203604086015261432f82826141f4565b9150506060830151848203606086015261434982826141f4565b9150506080830151848203608086015261436382826141f4565b91505060a083015184820360a086015261437d828261427e565b91505060c083015161439260c08601826142dc565b5060e08301516143a560e08601826142dc565b508091505092915050565b600060208201905081810360008301526143ca81846142eb565b905092915050565b600080fd5b7f4e487b7100000000000000000000000000000000000000000000000000000000600052604160045260246000fd5b61440f82613abb565b810181811067ffffffffffffffff8211171561442e5761442d6143d7565b5b80604052505050565b60006144416139a6565b905061444d8282614406565b919050565b600067ffffffffffffffff82111561446d5761446c6143d7565b5b61447682613abb565b9050602081019050919050565b82818337600083830152505050565b60006144a56144a084614452565b614437565b9050828152602081018484840111156144c1576144c06143d2565b5b6144cc848285614483565b509392505050565b600082601f8301126144e9576144e8613d89565b5b81356144f9848260208601614492565b91505092915050565b600060208284031215614518576145176139b0565b5b600082013567ffffffffffffffff811115614536576145356139b5565b5b614542848285016144d4565b91505092915050565b60008060408385031215614562576145616139b0565b5b600061457085828601613bfd565b925050602061458185828601613e05565b9150509250929050565b600080600080608085870312156145a5576145a46139b0565b5b60006145b387828801613bfd565b94505060206145c487828801613bfd565b93505060406145d587828801613b48565b925050606085013567ffffffffffffffff8111156145f6576145f56139b5565b5b614602878288016144d4565b91505092959194509250565b600081519050919050565b600082825260208201905092915050565b6000819050602082019050919050565b61464381613f79565b82525050565b6000614655838361463a565b60208301905092915050565b6000602082019050919050565b60006146798261460e565b6146838185614619565b935061468e8361462a565b8060005b838110156146bf5781516146a68882614649565b97506146b183614661565b925050600181019050614692565b5085935050505092915050565b7f4e487b7100000000000000000000000000000000000000000000000000000000600052602160045260246000fd5b6004811061470c5761470b6146cc565b5b50565b600081905061471d826146fb565b919050565b600061472d8261470f565b9050919050565b61473d81614722565b82525050565b60058110614754576147536146cc565b5b50565b600081905061476582614743565b919050565b600061477582614757565b9050919050565b6147858161476a565b82525050565b6000610120830160008301516147a460008601826141d4565b5060208301516147b760208601826141d4565b50604083015184820360408601526147cf828261466e565b915050606083015184820360608601526147e9828261466e565b91505060808301516147fe608086018261463a565b5060a083015184820360a086015261481682826141f4565b91505060c083015161482b60c0860182614734565b5060e083015184820360e086015261484382826141f4565b91505061010083015161485a61010086018261477c565b508091505092915050565b6000602082019050818103600083015261487f818461478b565b905092915050565b6000806040838503121561489e5761489d6139b0565b5b60006148ac85828601613bfd565b92505060206148bd85828601613bfd565b9150509250929050565b600060e0830160008301516148df60008601826141d4565b5060208301516148f260208601826141d4565b506040830151848203604086015261490a82826141f4565b9150506060830151848203606086015261492482826141f4565b9150506080830151848203608086015261493e82826141f4565b91505060a083015161495360a08601826142dc565b5060c083015184820360c086015261496b828261427e565b9150508091505092915050565b6000602082019050818103600083015261499281846148c7565b905092915050565b7f4e487b7100000000000000000000000000000000000000000000000000000000600052602260045260246000fd5b600060028204905060018216806149e157607f821691505b6020821081036149f4576149f361499a565b5b50919050565b600081519050614a0981613dee565b92915050565b600060208284031215614a2557614a246139b0565b5b6000614a33848285016149fa565b91505092915050565b6000604082019050614a516000830185613bbc565b614a5e6020830184613c7f565b9392505050565b600081519050614a7481613b31565b92915050565b600060208284031215614a9057614a8f6139b0565b5b6000614a9e84828501614a65565b91505092915050565b6000606082019050614abc6000830186613bbc565b614ac96020830185613c7f565b614ad66040830184613bbc565b949350505050565b6000614aea8385613a80565b9350614af7838584614483565b614b0083613abb565b840190509392505050565b600060a082019050614b20600083018b613bbc565b8181036020830152614b3381898b614ade565b90508181036040830152614b48818789614ade565b90508181036060830152614b5d818587614ade565b9050614b6c6080830184613a4b565b9998505050505050505050565b7f4e487b7100000000000000000000000000000000000000000000000000000000600052601160045260246000fd5b6000614bb382613b27565b91507fffffffffffffffffffffffffffffffffffffffffffffffffffffffffffffffff8203614be557614be4614b79565b5b600182019050919050565b600082825260208201905092915050565b6000819050919050565b6000614c1a6020840184613f9d565b905092915050565b6000602082019050919050565b6000614c3b8385614bf0565b9350614c4682614c01565b8060005b85811015614c7f57614c5c8284614c0b565b614c668882614649565b9750614c7183614c22565b925050600181019050614c4a565b5085925050509392505050565b614c9581613f79565b82525050565b614ca481614722565b82525050565b614cb38161476a565b82525050565b600060e0820190508181036000830152614cd4818d8f614c2f565b90508181036020830152614ce9818b8d614c2f565b9050614cf8604083018a614c8c565b8181036060830152614d0b81888a614ade565b9050614d1a6080830187614c9b565b81810360a0830152614d2d818587614ade565b9050614d3c60c0830184614caa565b9c9b505050505050505050505050565b7f4e487b7100000000000000000000000000000000000000000000000000000000600052603260045260246000fd5b600060c082019050614d90600083018c613bbc565b8181036020830152614da3818a8c614ade565b90508181036040830152614db881888a614ade565b90508181036060830152614dcd818688614ade565b9050614ddc6080830185613a4b565b614de960a0830184613a4b565b9a9950505050505050505050565b600080fd5b600080fd5b600067ffffffffffffffff821115614e1c57614e1b6143d7565b5b614e2582613abb565b9050602081019050919050565b6000614e45614e4084614e01565b614437565b905082815260208101848484011115614e6157614e606143d2565b5b614e6c848285613a91565b509392505050565b600082601f830112614e8957614e88613d89565b5b8151614e99848260208601614e32565b91505092915050565b600067ffffffffffffffff821115614ebd57614ebc6143d7565b5b602082029050602081019050919050565b6000614ee1614edc84614ea2565b614437565b90508083825260208201905060208402830185811115614f0457614f03613d93565b5b835b81811015614f2d5780614f198882614a65565b845260208401935050602081019050614f06565b5050509392505050565b600082601f830112614f4c57614f4b613d89565b5b8151614f5c848260208601614ece565b91505092915050565b60006101008284031215614f7c57614f7b614df7565b5b614f87610100614437565b90506000614f9784828501614a65565b6000830152506020614fab84828501614a65565b602083015250604082015167ffffffffffffffff811115614fcf57614fce614dfc565b5b614fdb84828501614e74565b604083015250606082015167ffffffffffffffff811115614fff57614ffe614dfc565b5b61500b84828501614e74565b606083015250608082015167ffffffffffffffff81111561502f5761502e614dfc565b5b61503b84828501614e74565b60808301525060a082015167ffffffffffffffff81111561505f5761505e614dfc565b5b61506b84828501614f37565b60a08301525060c061507f848285016149fa565b60c08301525060e0615093848285016149fa565b60e08301525092915050565b6000602082840312156150b5576150b46139b0565b5b600082015167ffffffffffffffff8111156150d3576150d26139b5565b5b6150df84828501614f65565b91505092915050565b600067ffffffffffffffff821115615103576151026143d7565b5b602082029050602081019050919050565b60008151905061512381613f86565b92915050565b600061513c615137846150e8565b614437565b9050808382526020820190506020840283018581111561515f5761515e613d93565b5b835b8181101561518857806151748882615114565b845260208401935050602081019050615161565b5050509392505050565b600082601f8301126151a7576151a6613d89565b5b81516151b7848260208601615129565b91505092915050565b6000815190506151cf81613fb2565b92915050565b6000815190506151e481613fd7565b92915050565b6000610120828403121561520157615200614df7565b5b61520c610120614437565b9050600061521c84828501614a65565b600083015250602061523084828501614a65565b602083015250604082015167ffffffffffffffff81111561525457615253614dfc565b5b61526084828501615192565b604083015250606082015167ffffffffffffffff81111561528457615283614dfc565b5b61529084828501615192565b60608301525060806152a484828501615114565b60808301525060a082015167ffffffffffffffff8111156152c8576152c7614dfc565b5b6152d484828501614e74565b60a08301525060c06152e8848285016151c0565b60c08301525060e082015167ffffffffffffffff81111561530c5761530b614dfc565b5b61531884828501614e74565b60e08301525061010061532d848285016151d5565b6101008301525092915050565b6000602082840312156153505761534f6139b0565b5b600082015167ffffffffffffffff81111561536e5761536d6139b5565b5b61537a848285016151ea565b91505092915050565b600081905092915050565b600061539982613a75565b6153a38185615383565b93506153b3818560208601613a91565b80840191505092915050565b60006153cb828861538e565b91506153d7828761538e565b91506153e3828661538e565b91506153ef828561538e565b91506153fb828461538e565b91508190509695505050505050565b6000615416828561538e565b9150615422828461538e565b91508190509392505050565b600060e0828403121561544457615443614df7565b5b61544e60e0614437565b9050600061545e84828501614a65565b600083015250602061547284828501614a65565b602083015250604082015167ffffffffffffffff81111561549657615495614dfc565b5b6154a284828501614e74565b604083015250606082015167ffffffffffffffff8111156154c6576154c5614dfc565b5b6154d284828501614e74565b606083015250608082015167ffffffffffffffff8111156154f6576154f5614dfc565b5b61550284828501614e74565b60808301525060a0615516848285016149fa565b60a08301525060c082015167ffffffffffffffff81111561553a57615539614dfc565b5b61554684828501614f37565b60c08301525092915050565b600060208284031215615568576155676139b0565b5b600082015167ffffffffffffffff811115615586576155856139b5565b5b6155928482850161542e565b91505092915050565b60006155a682613b27565b91506155b183613b27565b92508282019050808211156155c9576155c8614b79565b5b92915050565b7f4e487b7100000000000000000000000000000000000000000000000000000000600052601260045260246000fd5b600061560982613b27565b915061561483613b27565b925082615624576156236155cf565b5b828204905092915050565b600061563a82613b27565b915061564583613b27565b925082820261565381613b27565b9150828204841483151761566a57615669614b79565b5b5092915050565b600081519050919050565b600082825260208201905092915050565b600061569882615671565b6156a2818561567c565b93506156b2818560208601613a91565b6156bb81613abb565b840191505092915050565b60006080820190506156db6000830187613bbc565b6156e86020830186613bbc565b6156f56040830185613c7f565b8181036060830152615707818461568d565b905095945050505050565b600081519050615721816139e6565b92915050565b60006020828403121561573d5761573c6139b0565b5b600061574b84828501615712565b91505092915050565b60008160f81b9050919050565b600061576c82615754565b9050919050565b61578461577f82613f79565b615761565b82525050565b6000615796828961538e565b91506157a2828861538e565b91506157ae828761538e565b91506157ba8286615773565b6001820191506157ca828561538e565b91506157d68284615773565b600182019150819050979650505050505050565b6157fb6157f682614722565b615761565b82525050565b600061580d828b61538e565b9150615819828a61538e565b9150615825828961538e565b9150615831828861538e565b915061583d828761538e565b9150615849828661538e565b915061585582856157ea565b600182019150615865828461538e565b91508190509998505050505050505050565b6000615883828761538e565b915061588f828661538e565b915061589b828561538e565b91506158a7828461538e565b915081905095945050505050565b60006040820190506158ca6000830185613bbc565b6158d76020830184613d5f565b9392505050565b60006158e982613b27565b91506158f483613b27565b925082820390508181111561590c5761590b614b79565b5b92915050565b7f4e487b7100000000000000000000000000000000000000000000000000000000600052603160045260246000fdfe227d5d2c22696d616765223a2022646174613a696d6167652f7376672b786d6c3b6261736536342c3c7376672077696474683d2238303022206865696768743d22383030222076696577426f783d2230203020383030203830302220786d6c6e733d22687474703a2f2f7777772e77332e6f72672f323030302f737667223e227d2c7b2274726169745f74797065223a20226d61696e436f6c6f72222c2276616c7565223a20223c6c696e652078313d22333330222079313d22333030222078323d22343730222079323d2233383022207374726f6b653d222338613666333022207374726f6b652d77696474683d2233222f3e227d2c7b2274726169745f74797065223a2022776569676874496e4772616d73222c2276616c7565223a20223c706f6c79676f6e20706f696e74733d223430302c323530203437302c333030203437302c333830203430302c343330203333302c333830203333302c333030222066696c6c3d22776869746522207374726f6b653d222338613666333022207374726f6b652d77696474683d2235222f3e222c202261747472696275746573223a205b7b2274726169745f74797065223a20224a6577656c65724e616d65222c2276616c7565223a20223c7465787420783d223530252220793d223630302220666f6e742d73697a653d2234302220666f6e742d66616d696c793d22417269616c2c2073616e732d73657269662220666f6e742d7765696768743d22626f6c64222066696c6c3d22236434616633372220746578742d616e63686f723d226d6964646c65223e3c7265637420783d22302220793d2230222077696474683d2238303022206865696768743d22383030222066696c6c3d222366386639666122207374726f6b653d222364346166333722207374726f6b652d77696474683d223130222072783d223230222072793d223230222f3e3c7265637420783d223230302220793d22363530222077696474683d2234303022206865696768743d223830222066696c6c3d22776869746522207374726f6b653d222333333322207374726f6b652d77696474683d2233222072783d223130222072793d223130222f3e3c6c696e652078313d22343030222079313d22323530222078323d22343030222079323d2234333022207374726f6b653d222338613666333022207374726f6b652d77696474683d2233222f3e4142434445464748494a4b4c4d4e4f505152535455565758595a6162636465666768696a6b6c6d6e6f707172737475767778797a303132333435363738392b2f227d2c7b2274726169745f74797065223a20226d61696e4d6174657269616c222c2276616c7565223a20223c656c6c697073652063783d22343030222063793d22343230222072783d22313830222072793d22313030222066696c6c3d226e6f6e6522207374726f6b653d222364346166333722207374726f6b652d77696474683d223230222f3e3c656c6c697073652063783d22343030222063793d22343230222072783d22313430222072793d223830222066696c6c3d226e6f6e6522207374726f6b653d222366386639666122207374726f6b652d77696474683d223230222f3e3c6c696e652078313d22343730222079313d22333030222078323d22333330222079323d2233383022207374726f6b653d222338613666333022207374726f6b652d77696474683d2233222f3e3c7465787420783d223530252220793d223132302220666f6e742d73697a653d2235302220666f6e742d66616d696c793d22417269616c2c2073616e732d73657269662220666f6e742d7765696768743d22626f6c64222066696c6c3d22233333332220746578742d616e63686f723d226d6964646c65223e3c7465787420783d223530252220793d223730302220666f6e742d73697a653d2233302220666f6e742d66616d696c793d22417269616c2c2073616e732d7365726966222066696c6c3d22233333332220746578742d616e63686f723d226d6964646c65223e7b226e616d65223a2022476f6c64436861696e204365727469666963617465204e46542023227d2c7b2274726169745f74797065223a202243657274696669636174654c6576656c222c2276616c7565223a2022227d2c7b2274726169745f74797065223a20226d61696e47656d53746f6e6573222c2276616c7565223a2022a26469706673582212203d3f5afff23f5083f17d823ca338d20f9c79336be278affd1d0fcbf43b678c6164736f6c634300081c0033",
  "linkReferences": {},
  "deployedLinkReferences": {}
}