{
  "_format": "hh-sol-artifact-1",
  "contractName": "GoldChain",
  "sourceName": "contracts/GoldChain.sol",
  "abi": [
    {
      "inputs": [
        {
          "internalType": "contract IDataStorage",
          "name": "_dataStorage",
          "type": "address"
        }
      ],
      "stateMutability": "nonpayable",
      "type": "constructor"
    },
    {
      "inputs": [],
      "name": "AccessControlBadConfirmation",
      "type": "error"
    },
    {
      "inputs": [
        {
          "internalType": "address",
          "name": "account",
          "type": "address"
        },
        {
          "internalType": "bytes32",
          "name": "neededRole",
          "type": "bytes32"
        }
      ],
      "name": "AccessControlUnauthorizedAccount",
      "type": "error"
    },
    {
      "inputs": [],
      "name": "CustomerIsAlreadyRegistered",
      "type": "error"
    },
    {
      "inputs": [],
      "name": "CustomerNotExists",
      "type": "error"
    },
    {
      "inputs": [],
      "name": "JewelerIsAlreadyRegistered",
      "type": "error"
    },
    {
      "inputs": [],
      "name": "JewelerNotExists",
      "type": "error"
    },
    {
      "anonymous": false,
      "inputs": [
        {
          "indexed": true,
          "internalType": "bytes32",
          "name": "role",
          "type": "bytes32"
        },
        {
          "indexed": true,
          "internalType": "bytes32",
          "name": "previousAdminRole",
          "type": "bytes32"
        },
        {
          "indexed": true,
          "internalType": "bytes32",
          "name": "newAdminRole",
          "type": "bytes32"
        }
      ],
      "name": "RoleAdminChanged",
      "type": "event"
    },
    {
      "anonymous": false,
      "inputs": [
        {
          "indexed": true,
          "internalType": "bytes32",
          "name": "role",
          "type": "bytes32"
        },
        {
          "indexed": true,
          "internalType": "address",
          "name": "account",
          "type": "address"
        },
        {
          "indexed": true,
          "internalType": "address",
          "name": "sender",
          "type": "address"
        }
      ],
      "name": "RoleGranted",
      "type": "event"
    },
    {
      "anonymous": false,
      "inputs": [
        {
          "indexed": true,
          "internalType": "bytes32",
          "name": "role",
          "type": "bytes32"
        },
        {
          "indexed": true,
          "internalType": "address",
          "name": "account",
          "type": "address"
        },
        {
          "indexed": true,
          "internalType": "address",
          "name": "sender",
          "type": "address"
        }
      ],
      "name": "RoleRevoked",
      "type": "event"
    },
    {
      "anonymous": false,
      "inputs": [
        {
          "indexed": false,
          "internalType": "address",
          "name": "jewelerAddress",
          "type": "address"
        },
        {
          "indexed": false,
          "internalType": "uint256",
          "name": "timestamp",
          "type": "uint256"
        },
        {
          "indexed": false,
          "internalType": "uint256",
          "name": "certificateId",
          "type": "uint256"
        }
      ],
      "name": "certificateCreated",
      "type": "event"
    },
    {
      "anonymous": false,
      "inputs": [
        {
          "indexed": false,
          "internalType": "address",
          "name": "customerAddress",
          "type": "address"
        },
        {
          "indexed": false,
          "internalType": "uint256",
          "name": "timestamp",
          "type": "uint256"
        }
      ],
      "name": "customerCreated",
      "type": "event"
    },
    {
      "anonymous": false,
      "inputs": [
        {
          "indexed": false,
          "internalType": "address",
          "name": "customerAddress",
          "type": "address"
        },
        {
          "indexed": false,
          "internalType": "uint256",
          "name": "timestamp",
          "type": "uint256"
        }
      ],
      "name": "customerUpdated",
      "type": "event"
    },
    {
      "anonymous": false,
      "inputs": [
        {
          "indexed": false,
          "internalType": "address",
          "name": "jewelerAddress",
          "type": "address"
        },
        {
          "indexed": false,
          "internalType": "uint256",
          "name": "timestamp",
          "type": "uint256"
        }
      ],
      "name": "jewelerCreated",
      "type": "event"
    },
    {
      "anonymous": false,
      "inputs": [
        {
          "indexed": false,
          "internalType": "address",
          "name": "jewelerAddress",
          "type": "address"
        },
        {
          "indexed": false,
          "internalType": "uint256",
          "name": "timestamp",
          "type": "uint256"
        }
      ],
      "name": "jewelerUpdated",
      "type": "event"
    },
    {
      "inputs": [],
      "name": "ADMIN",
      "outputs": [
        {
          "internalType": "bytes32",
          "name": "",
          "type": "bytes32"
        }
      ],
      "stateMutability": "view",
      "type": "function"
    },
    {
      "inputs": [],
      "name": "CERTIFICATOR_ROLE",
      "outputs": [
        {
          "internalType": "bytes32",
          "name": "",
          "type": "bytes32"
        }
      ],
      "stateMutability": "view",
      "type": "function"
    },
    {
      "inputs": [],
      "name": "CUSTOMERS_ROLE",
      "outputs": [
        {
          "internalType": "bytes32",
          "name": "",
          "type": "bytes32"
        }
      ],
      "stateMutability": "view",
      "type": "function"
    },
    {
      "inputs": [],
      "name": "DEFAULT_ADMIN_ROLE",
      "outputs": [
        {
          "internalType": "bytes32",
          "name": "",
          "type": "bytes32"
        }
      ],
      "stateMutability": "view",
      "type": "function"
    },
    {
      "inputs": [],
      "name": "FALSE",
      "outputs": [
        {
          "internalType": "bool",
          "name": "",
          "type": "bool"
        }
      ],
      "stateMutability": "view",
      "type": "function"
    },
    {
      "inputs": [],
      "name": "JEWELERS_ROLE",
      "outputs": [
        {
          "internalType": "bytes32",
          "name": "",
          "type": "bytes32"
        }
      ],
      "stateMutability": "view",
      "type": "function"
    },
    {
      "inputs": [],
      "name": "TRUE",
      "outputs": [
        {
          "internalType": "bool",
          "name": "",
          "type": "bool"
        }
      ],
      "stateMutability": "view",
      "type": "function"
    },
    {
      "inputs": [
        {
          "internalType": "address",
          "name": "_jewelerAddress",
          "type": "address"
        }
      ],
      "name": "activateJeweler",
      "outputs": [
        {
          "internalType": "bool",
          "name": "",
          "type": "bool"
        }
      ],
      "stateMutability": "nonpayable",
      "type": "function"
    },
    {
      "inputs": [],
      "name": "admin",
      "outputs": [
        {
          "internalType": "address",
          "name": "",
          "type": "address"
        }
      ],
      "stateMutability": "view",
      "type": "function"
    },
    {
      "inputs": [
        {
          "internalType": "uint8[]",
          "name": "_materials",
          "type": "uint8[]"
        },
        {
          "internalType": "uint8[]",
          "name": "_gemStones",
          "type": "uint8[]"
        },
        {
          "internalType": "uint8",
          "name": "_weightInGrams",
          "type": "uint8"
        },
        {
          "internalType": "string",
          "name": "_mainColor",
          "type": "string"
        },
        {
          "internalType": "enum IDataStorage.CertificateLevel",
          "name": "_level",
          "type": "uint8"
        },
        {
          "internalType": "string",
          "name": "_JewelerName",
          "type": "string"
        },
        {
          "internalType": "enum IDataStorage.CertificateStatus",
          "name": "_status",
          "type": "uint8"
        }
      ],
      "name": "createCertificate",
      "outputs": [
        {
          "internalType": "bool",
          "name": "",
          "type": "bool"
        }
      ],
      "stateMutability": "nonpayable",
      "type": "function"
    },
    {
      "inputs": [
        {
          "internalType": "string",
          "name": "_name",
          "type": "string"
        },
        {
          "internalType": "string",
          "name": "_email",
          "type": "string"
        }
      ],
      "name": "createCustomer",
      "outputs": [
        {
          "internalType": "bool",
          "name": "",
          "type": "bool"
        }
      ],
      "stateMutability": "nonpayable",
      "type": "function"
    },
    {
      "inputs": [
        {
          "internalType": "string",
          "name": "_name",
          "type": "string"
        },
        {
          "internalType": "string",
          "name": "_email",
          "type": "string"
        },
        {
          "internalType": "string",
          "name": "_location",
          "type": "string"
        }
      ],
      "name": "createJeweler",
      "outputs": [
        {
          "internalType": "bool",
          "name": "",
          "type": "bool"
        }
      ],
      "stateMutability": "nonpayable",
      "type": "function"
    },
    {
      "inputs": [
        {
          "internalType": "address",
          "name": "_jewelerAddress",
          "type": "address"
        }
      ],
      "name": "desactivateJeweler",
      "outputs": [
        {
          "internalType": "bool",
          "name": "",
          "type": "bool"
        }
      ],
      "stateMutability": "nonpayable",
      "type": "function"
    },
    {
      "inputs": [],
      "name": "getCustomerCount",
      "outputs": [
        {
          "internalType": "uint256",
          "name": "",
          "type": "uint256"
        }
      ],
      "stateMutability": "view",
      "type": "function"
    },
    {
      "inputs": [],
      "name": "getJewelerCount",
      "outputs": [
        {
          "internalType": "uint256",
          "name": "",
          "type": "uint256"
        }
      ],
      "stateMutability": "view",
      "type": "function"
    },
    {
      "inputs": [
        {
          "internalType": "address",
          "name": "_customerAddress",
          "type": "address"
        }
      ],
      "name": "getOneCustomer",
      "outputs": [
        {
          "components": [
            {
              "internalType": "uint256",
              "name": "created_at",
              "type": "uint256"
            },
            {
              "internalType": "uint256",
              "name": "updated_at",
              "type": "uint256"
            },
            {
              "internalType": "string",
              "name": "name",
              "type": "string"
            },
            {
              "internalType": "string",
              "name": "email",
              "type": "string"
            },
            {
              "internalType": "bool",
              "name": "visible",
              "type": "bool"
            },
            {
              "internalType": "uint256[]",
              "name": "OwnedCertificateIds",
              "type": "uint256[]"
            }
          ],
          "internalType": "struct IDataStorage.Customer",
          "name": "",
          "type": "tuple"
        }
      ],
      "stateMutability": "view",
      "type": "function"
    },
    {
      "inputs": [
        {
          "internalType": "address",
          "name": "_jewelerAddress",
          "type": "address"
        }
      ],
      "name": "getOneJeweler",
      "outputs": [
        {
          "components": [
            {
              "internalType": "uint256",
              "name": "created_at",
              "type": "uint256"
            },
            {
              "internalType": "uint256",
              "name": "updated_at",
              "type": "uint256"
            },
            {
              "internalType": "string",
              "name": "name",
              "type": "string"
            },
            {
              "internalType": "string",
              "name": "email",
              "type": "string"
            },
            {
              "internalType": "string",
              "name": "location",
              "type": "string"
            },
            {
              "internalType": "uint256[]",
              "name": "CreatedCertificateIds",
              "type": "uint256[]"
            },
            {
              "internalType": "bool",
              "name": "available",
              "type": "bool"
            },
            {
              "internalType": "bool",
              "name": "visible",
              "type": "bool"
            }
          ],
          "internalType": "struct IDataStorage.Jeweler",
          "name": "",
          "type": "tuple"
        }
      ],
      "stateMutability": "view",
      "type": "function"
    },
    {
      "inputs": [
        {
          "internalType": "bytes32",
          "name": "role",
          "type": "bytes32"
        }
      ],
      "name": "getRoleAdmin",
      "outputs": [
        {
          "internalType": "bytes32",
          "name": "",
          "type": "bytes32"
        }
      ],
      "stateMutability": "view",
      "type": "function"
    },
    {
      "inputs": [
        {
          "internalType": "bytes32",
          "name": "role",
          "type": "bytes32"
        },
        {
          "internalType": "address",
          "name": "account",
          "type": "address"
        }
      ],
      "name": "grantRole",
      "outputs": [],
      "stateMutability": "nonpayable",
      "type": "function"
    },
    {
      "inputs": [
        {
          "internalType": "bytes32",
          "name": "role",
          "type": "bytes32"
        },
        {
          "internalType": "address",
          "name": "account",
          "type": "address"
        }
      ],
      "name": "hasRole",
      "outputs": [
        {
          "internalType": "bool",
          "name": "",
          "type": "bool"
        }
      ],
      "stateMutability": "view",
      "type": "function"
    },
    {
      "inputs": [
        {
          "internalType": "bytes32",
          "name": "role",
          "type": "bytes32"
        },
        {
          "internalType": "address",
          "name": "callerConfirmation",
          "type": "address"
        }
      ],
      "name": "renounceRole",
      "outputs": [],
      "stateMutability": "nonpayable",
      "type": "function"
    },
    {
      "inputs": [
        {
          "internalType": "bytes32",
          "name": "role",
          "type": "bytes32"
        },
        {
          "internalType": "address",
          "name": "account",
          "type": "address"
        }
      ],
      "name": "revokeRole",
      "outputs": [],
      "stateMutability": "nonpayable",
      "type": "function"
    },
    {
      "inputs": [
        {
          "internalType": "bytes4",
          "name": "interfaceId",
          "type": "bytes4"
        }
      ],
      "name": "supportsInterface",
      "outputs": [
        {
          "internalType": "bool",
          "name": "",
          "type": "bool"
        }
      ],
      "stateMutability": "view",
      "type": "function"
    },
    {
      "inputs": [],
      "name": "transertCertificate",
      "outputs": [
        {
          "internalType": "bool",
          "name": "",
          "type": "bool"
        }
      ],
      "stateMutability": "nonpayable",
      "type": "function"
    },
    {
      "inputs": [],
      "name": "updateCertificate",
      "outputs": [
        {
          "internalType": "bool",
          "name": "",
          "type": "bool"
        }
      ],
      "stateMutability": "nonpayable",
      "type": "function"
    },
    {
      "inputs": [
        {
          "internalType": "string",
          "name": "_name",
          "type": "string"
        },
        {
          "internalType": "string",
          "name": "_email",
          "type": "string"
        },
        {
          "internalType": "bool",
          "name": "_visible",
          "type": "bool"
        }
      ],
      "name": "updateCustomer",
      "outputs": [
        {
          "internalType": "bool",
          "name": "",
          "type": "bool"
        }
      ],
      "stateMutability": "nonpayable",
      "type": "function"
    },
    {
      "inputs": [
        {
          "internalType": "string",
          "name": "_name",
          "type": "string"
        },
        {
          "internalType": "string",
          "name": "_email",
          "type": "string"
        },
        {
          "internalType": "string",
          "name": "_location",
          "type": "string"
        },
        {
          "internalType": "bool",
          "name": "_visible",
          "type": "bool"
        }
      ],
      "name": "updateJeweler",
      "outputs": [
        {
          "internalType": "bool",
          "name": "",
          "type": "bool"
        }
      ],
      "stateMutability": "nonpayable",
      "type": "function"
    }
  ],
  "bytecode": "0x608060405234801561001057600080fd5b50604051612eef380380612eef833981810160405281019061003291906102e3565b6100456000801b336100ff60201b60201c565b506100767fdf8b4c520ffe197c5343c6f5aec59570151ef9a492f2c624fd45ddde6135ec42336100ff60201b60201c565b5033600260006101000a81548173ffffffffffffffffffffffffffffffffffffffff021916908373ffffffffffffffffffffffffffffffffffffffff16021790555080600160006101000a81548173ffffffffffffffffffffffffffffffffffffffff021916908373ffffffffffffffffffffffffffffffffffffffff16021790555050610310565b600061011183836101fc60201b60201c565b6101f157600160008085815260200190815260200160002060000160008473ffffffffffffffffffffffffffffffffffffffff1673ffffffffffffffffffffffffffffffffffffffff16815260200190815260200160002060006101000a81548160ff02191690831515021790555061018e61026660201b60201c565b73ffffffffffffffffffffffffffffffffffffffff168273ffffffffffffffffffffffffffffffffffffffff16847f2f8788117e7eff1d82e926ec794901d17c78024a50270940304540a733656f0d60405160405180910390a4600190506101f6565b600090505b92915050565b600080600084815260200190815260200160002060000160008373ffffffffffffffffffffffffffffffffffffffff1673ffffffffffffffffffffffffffffffffffffffff16815260200190815260200160002060009054906101000a900460ff16905092915050565b600033905090565b600080fd5b600073ffffffffffffffffffffffffffffffffffffffff82169050919050565b600061029e82610273565b9050919050565b60006102b082610293565b9050919050565b6102c0816102a5565b81146102cb57600080fd5b50565b6000815190506102dd816102b7565b92915050565b6000602082840312156102f9576102f861026e565b5b6000610307848285016102ce565b91505092915050565b612bd08061031f6000396000f3fe608060405234801561001057600080fd5b50600436106101a95760003560e01c806355ed5fe8116100f9578063a1e5a38a11610097578063c43fe7c411610071578063c43fe7c414610510578063d547741f14610540578063ee7bf0ee1461055c578063f851a4401461058c576101a9565b8063a1e5a38a146104a4578063a217fddf146104c2578063c21d034f146104e0576101a9565b8063899f9d0d116100d3578063899f9d0d1461041a5780638c2717771461043857806391d1485414610456578063934b4af214610486576101a9565b806355ed5fe81461039c57806357a00ccf146103cc5780635994d984146103fc576101a9565b806329acc209116101665780632f2ff15d116101405780632f2ff15d1461031657806336568abe1461033257806341cc7c731461034e5780634ff7986e1461037e576101a9565b806329acc209146102985780632a0acc6a146102c85780632b3dd38b146102e6576101a9565b806301ffc9a7146101ae578063081ba2d5146101de5780630cdb5cb51461020e5780632027d7461461022c57806322f537ce1461024a578063248a9ca314610268575b600080fd5b6101c860048036038101906101c39190611816565b6105aa565b6040516101d5919061185e565b60405180910390f35b6101f860048036038101906101f391906118d7565b610624565b604051610205919061185e565b60405180910390f35b6102166106f9565b604051610223919061191d565b60405180910390f35b61023461071d565b6040516102419190611951565b60405180910390f35b6102526107b5565b60405161025f919061191d565b60405180910390f35b610282600480360381019061027d9190611998565b6107d9565b60405161028f919061191d565b60405180910390f35b6102b260048036038101906102ad91906118d7565b6107f8565b6040516102bf919061185e565b60405180910390f35b6102d06108cd565b6040516102dd919061191d565b60405180910390f35b61030060048036038101906102fb9190611a56565b6108f1565b60405161030d919061185e565b60405180910390f35b610330600480360381019061032b9190611b1f565b610af1565b005b61034c60048036038101906103479190611b1f565b610b13565b005b61036860048036038101906103639190611c38565b610b8e565b604051610375919061185e565b60405180910390f35b610386610c81565b604051610393919061185e565b60405180910390f35b6103b660048036038101906103b19190611d5c565b610c86565b6040516103c3919061185e565b60405180910390f35b6103e660048036038101906103e191906118d7565b610e0c565b6040516103f39190612032565b60405180910390f35b610404610ebc565b604051610411919061185e565b60405180910390f35b610422610ec1565b60405161042f919061185e565b60405180910390f35b610440610eca565b60405161044d9190611951565b60405180910390f35b610470600480360381019061046b9190611b1f565b610f62565b60405161047d919061185e565b60405180910390f35b61048e610fcc565b60405161049b919061191d565b60405180910390f35b6104ac610ff0565b6040516104b9919061185e565b60405180910390f35b6104ca610ff9565b6040516104d7919061191d565b60405180910390f35b6104fa60048036038101906104f59190612054565b611000565b604051610507919061185e565b60405180910390f35b61052a600480360381019061052591906120e9565b6111fa565b604051610537919061185e565b60405180910390f35b61055a60048036038101906105559190611b1f565b611377565b005b610576600480360381019061057191906118d7565b611399565b6040516105839190612201565b60405180910390f35b610594611449565b6040516105a19190612232565b60405180910390f35b60007f7965db0b000000000000000000000000000000000000000000000000000000007bffffffffffffffffffffffffffffffffffffffffffffffffffffffff1916827bffffffffffffffffffffffffffffffffffffffffffffffffffffffff1916148061061d575061061c8261146f565b5b9050919050565b60007fdf8b4c520ffe197c5343c6f5aec59570151ef9a492f2c624fd45ddde6135ec42610650816114d9565b600160009054906101000a900473ffffffffffffffffffffffffffffffffffffffff1673ffffffffffffffffffffffffffffffffffffffff1663081ba2d5846040518263ffffffff1660e01b81526004016106ab9190612232565b6020604051808303816000875af11580156106ca573d6000803e3d6000fd5b505050506040513d601f19601f820116820180604052508101906106ee9190612262565b506001915050919050565b7f61e6a4bb6bca8aa1f17c71895c1ab1bf9c06c812442a0a16aad9f0837c23ca7981565b6000600160009054906101000a900473ffffffffffffffffffffffffffffffffffffffff1673ffffffffffffffffffffffffffffffffffffffff16632027d7466040518163ffffffff1660e01b8152600401602060405180830381865afa15801561078c573d6000803e3d6000fd5b505050506040513d601f19601f820116820180604052508101906107b091906122bb565b905090565b7faf6786efc154b345802554f1dea27e60ea4c3393b6b38eb8438e22c20e088bd281565b6000806000838152602001908152602001600020600101549050919050565b60007fdf8b4c520ffe197c5343c6f5aec59570151ef9a492f2c624fd45ddde6135ec42610824816114d9565b600160009054906101000a900473ffffffffffffffffffffffffffffffffffffffff1673ffffffffffffffffffffffffffffffffffffffff166329acc209846040518263ffffffff1660e01b815260040161087f9190612232565b6020604051808303816000875af115801561089e573d6000803e3d6000fd5b505050506040513d601f19601f820116820180604052508101906108c29190612262565b506001915050919050565b7fdf8b4c520ffe197c5343c6f5aec59570151ef9a492f2c624fd45ddde6135ec4281565b60007f61e6a4bb6bca8aa1f17c71895c1ab1bf9c06c812442a0a16aad9f0837c23ca7961091d816114d9565b6000600160009054906101000a900473ffffffffffffffffffffffffffffffffffffffff1673ffffffffffffffffffffffffffffffffffffffff166357a00ccf336040518263ffffffff1660e01b815260040161097a9190612232565b600060405180830381865afa158015610997573d6000803e3d6000fd5b505050506040513d6000823e3d601f19601f820116820180604052508101906109c09190612610565b60000151036109fb576040517f1d65442900000000000000000000000000000000000000000000000000000000815260040160405180910390fd5b600160009054906101000a900473ffffffffffffffffffffffffffffffffffffffff1673ffffffffffffffffffffffffffffffffffffffff1663a735e5de338b8b8b8b8b8b8b6040518963ffffffff1660e01b8152600401610a649897969594939291906126a6565b6020604051808303816000875af1158015610a83573d6000803e3d6000fd5b505050506040513d601f19601f82011682018060405250810190610aa79190612262565b507fc21195a7f73acb0112d9942f6c5c02acc3d8d2c74ab81a6c28f4f492dac933b83342604051610ad9929190612714565b60405180910390a16001915050979650505050505050565b610afa826107d9565b610b03816114d9565b610b0d83836114ed565b50505050565b610b1b6115de565b73ffffffffffffffffffffffffffffffffffffffff168173ffffffffffffffffffffffffffffffffffffffff1614610b7f576040517f6697b23200000000000000000000000000000000000000000000000000000000815260040160405180910390fd5b610b8982826115e6565b505050565b60007f61e6a4bb6bca8aa1f17c71895c1ab1bf9c06c812442a0a16aad9f0837c23ca79610bba816114d9565b600160009054906101000a900473ffffffffffffffffffffffffffffffffffffffff1673ffffffffffffffffffffffffffffffffffffffff166364df69e78e8e8e8e8e8e8e8e8e8e8e6040518c63ffffffff1660e01b8152600401610c299b9a999897969594939291906128ce565b6020604051808303816000875af1158015610c48573d6000803e3d6000fd5b505050506040513d601f19601f82011682018060405250810190610c6c9190612262565b5060019150509b9a5050505050505050505050565b600081565b6000610cb27f61e6a4bb6bca8aa1f17c71895c1ab1bf9c06c812442a0a16aad9f0837c23ca7933610f62565b15610ce9576040517f9e5ae09300000000000000000000000000000000000000000000000000000000815260040160405180910390fd5b610d137f61e6a4bb6bca8aa1f17c71895c1ab1bf9c06c812442a0a16aad9f0837c23ca79336114ed565b50600160009054906101000a900473ffffffffffffffffffffffffffffffffffffffff1673ffffffffffffffffffffffffffffffffffffffff16637208ca1933898989898989600060016040518a63ffffffff1660e01b8152600401610d8199989796959493929190612961565b6020604051808303816000875af1158015610da0573d6000803e3d6000fd5b505050506040513d601f19601f82011682018060405250810190610dc49190612262565b507fa12abd8201760a4e094635a878d94e4e31ee41204057e1ba4081b4c8ba7df8a83342604051610df6929190612714565b60405180910390a1600190509695505050505050565b610e14611729565b600160009054906101000a900473ffffffffffffffffffffffffffffffffffffffff1673ffffffffffffffffffffffffffffffffffffffff166357a00ccf836040518263ffffffff1660e01b8152600401610e6f9190612232565b600060405180830381865afa158015610e8c573d6000803e3d6000fd5b505050506040513d6000823e3d601f19601f82011682018060405250810190610eb59190612610565b9050919050565b600181565b60006001905090565b6000600160009054906101000a900473ffffffffffffffffffffffffffffffffffffffff1673ffffffffffffffffffffffffffffffffffffffff16638c2717776040518163ffffffff1660e01b8152600401602060405180830381865afa158015610f39573d6000803e3d6000fd5b505050506040513d601f19601f82011682018060405250810190610f5d91906122bb565b905090565b600080600084815260200190815260200160002060000160008373ffffffffffffffffffffffffffffffffffffffff1673ffffffffffffffffffffffffffffffffffffffff16815260200190815260200160002060009054906101000a900460ff16905092915050565b7f8c6ae1b8cac4c99ac9b51ba2b44ec85e94139863fa8d7f1ab8f7e39763b3db4e81565b60006001905090565b6000801b81565b60007faf6786efc154b345802554f1dea27e60ea4c3393b6b38eb8438e22c20e088bd261102c816114d9565b6000600160009054906101000a900473ffffffffffffffffffffffffffffffffffffffff1673ffffffffffffffffffffffffffffffffffffffff1663ee7bf0ee336040518263ffffffff1660e01b81526004016110899190612232565b600060405180830381865afa1580156110a6573d6000803e3d6000fd5b505050506040513d6000823e3d601f19601f820116820180604052508101906110cf9190612ad1565b600001510361110a576040517f4a46a71500000000000000000000000000000000000000000000000000000000815260040160405180910390fd5b600160009054906101000a900473ffffffffffffffffffffffffffffffffffffffff1673ffffffffffffffffffffffffffffffffffffffff1663c5128e053389898989896040518763ffffffff1660e01b815260040161116f96959493929190612b1a565b6020604051808303816000875af115801561118e573d6000803e3d6000fd5b505050506040513d601f19601f820116820180604052508101906111b29190612262565b507f3e981d6fd4c5bd91ef3f68ca28a36322130d52221ab7319ae700e4c417dcc8e333426040516111e4929190612714565b60405180910390a1600191505095945050505050565b60006112267faf6786efc154b345802554f1dea27e60ea4c3393b6b38eb8438e22c20e088bd233610f62565b1561125d576040517f937df23900000000000000000000000000000000000000000000000000000000815260040160405180910390fd5b6112877faf6786efc154b345802554f1dea27e60ea4c3393b6b38eb8438e22c20e088bd2336114ed565b50600160009054906101000a900473ffffffffffffffffffffffffffffffffffffffff1673ffffffffffffffffffffffffffffffffffffffff166378e4d305338787878760016040518763ffffffff1660e01b81526004016112ee96959493929190612b1a565b6020604051808303816000875af115801561130d573d6000803e3d6000fd5b505050506040513d601f19601f820116820180604052508101906113319190612262565b507f9355f2ba77852e61793679ff03cf26231b8175fdfb97dc47490f1b151e6ab0d43342604051611363929190612714565b60405180910390a160019050949350505050565b611380826107d9565b611389816114d9565b61139383836115e6565b50505050565b6113a1611772565b600160009054906101000a900473ffffffffffffffffffffffffffffffffffffffff1673ffffffffffffffffffffffffffffffffffffffff1663ee7bf0ee836040518263ffffffff1660e01b81526004016113fc9190612232565b600060405180830381865afa158015611419573d6000803e3d6000fd5b505050506040513d6000823e3d601f19601f820116820180604052508101906114429190612ad1565b9050919050565b600260009054906101000a900473ffffffffffffffffffffffffffffffffffffffff1681565b60007f01ffc9a7000000000000000000000000000000000000000000000000000000007bffffffffffffffffffffffffffffffffffffffffffffffffffffffff1916827bffffffffffffffffffffffffffffffffffffffffffffffffffffffff1916149050919050565b6114ea816114e56115de565b6116d8565b50565b60006114f98383610f62565b6115d357600160008085815260200190815260200160002060000160008473ffffffffffffffffffffffffffffffffffffffff1673ffffffffffffffffffffffffffffffffffffffff16815260200190815260200160002060006101000a81548160ff0219169083151502179055506115706115de565b73ffffffffffffffffffffffffffffffffffffffff168273ffffffffffffffffffffffffffffffffffffffff16847f2f8788117e7eff1d82e926ec794901d17c78024a50270940304540a733656f0d60405160405180910390a4600190506115d8565b600090505b92915050565b600033905090565b60006115f28383610f62565b156116cd57600080600085815260200190815260200160002060000160008473ffffffffffffffffffffffffffffffffffffffff1673ffffffffffffffffffffffffffffffffffffffff16815260200190815260200160002060006101000a81548160ff02191690831515021790555061166a6115de565b73ffffffffffffffffffffffffffffffffffffffff168273ffffffffffffffffffffffffffffffffffffffff16847ff6391f5c32d9c69d2a47ea670b442974b53935d1edc7fd64eb21e047a839171b60405160405180910390a4600190506116d2565b600090505b92915050565b6116e28282610f62565b6117255780826040517fe2517d3f00000000000000000000000000000000000000000000000000000000815260040161171c929190612b71565b60405180910390fd5b5050565b6040518061010001604052806000815260200160008152602001606081526020016060815260200160608152602001606081526020016000151581526020016000151581525090565b6040518060c0016040528060008152602001600081526020016060815260200160608152602001600015158152602001606081525090565b6000604051905090565b600080fd5b600080fd5b60007fffffffff0000000000000000000000000000000000000000000000000000000082169050919050565b6117f3816117be565b81146117fe57600080fd5b50565b600081359050611810816117ea565b92915050565b60006020828403121561182c5761182b6117b4565b5b600061183a84828501611801565b91505092915050565b60008115159050919050565b61185881611843565b82525050565b6000602082019050611873600083018461184f565b92915050565b600073ffffffffffffffffffffffffffffffffffffffff82169050919050565b60006118a482611879565b9050919050565b6118b481611899565b81146118bf57600080fd5b50565b6000813590506118d1816118ab565b92915050565b6000602082840312156118ed576118ec6117b4565b5b60006118fb848285016118c2565b91505092915050565b6000819050919050565b61191781611904565b82525050565b6000602082019050611932600083018461190e565b92915050565b6000819050919050565b61194b81611938565b82525050565b60006020820190506119666000830184611942565b92915050565b61197581611904565b811461198057600080fd5b50565b6000813590506119928161196c565b92915050565b6000602082840312156119ae576119ad6117b4565b5b60006119bc84828501611983565b91505092915050565b600080fd5b600080fd5b600080fd5b60008083601f8401126119ea576119e96119c5565b5b8235905067ffffffffffffffff811115611a0757611a066119ca565b5b602083019150836001820283011115611a2357611a226119cf565b5b9250929050565b611a3381611843565b8114611a3e57600080fd5b50565b600081359050611a5081611a2a565b92915050565b60008060008060008060006080888a031215611a7557611a746117b4565b5b600088013567ffffffffffffffff811115611a9357611a926117b9565b5b611a9f8a828b016119d4565b9750975050602088013567ffffffffffffffff811115611ac257611ac16117b9565b5b611ace8a828b016119d4565b9550955050604088013567ffffffffffffffff811115611af157611af06117b9565b5b611afd8a828b016119d4565b93509350506060611b108a828b01611a41565b91505092959891949750929550565b60008060408385031215611b3657611b356117b4565b5b6000611b4485828601611983565b9250506020611b55858286016118c2565b9150509250929050565b60008083601f840112611b7557611b746119c5565b5b8235905067ffffffffffffffff811115611b9257611b916119ca565b5b602083019150836020820283011115611bae57611bad6119cf565b5b9250929050565b600060ff82169050919050565b611bcb81611bb5565b8114611bd657600080fd5b50565b600081359050611be881611bc2565b92915050565b60048110611bfb57600080fd5b50565b600081359050611c0d81611bee565b92915050565b60058110611c2057600080fd5b50565b600081359050611c3281611c13565b92915050565b600080600080600080600080600080600060e08c8e031215611c5d57611c5c6117b4565b5b60008c013567ffffffffffffffff811115611c7b57611c7a6117b9565b5b611c878e828f01611b5f565b9b509b505060208c013567ffffffffffffffff811115611caa57611ca96117b9565b5b611cb68e828f01611b5f565b99509950506040611cc98e828f01611bd9565b97505060608c013567ffffffffffffffff811115611cea57611ce96117b9565b5b611cf68e828f016119d4565b96509650506080611d098e828f01611bfe565b94505060a08c013567ffffffffffffffff811115611d2a57611d296117b9565b5b611d368e828f016119d4565b935093505060c0611d498e828f01611c23565b9150509295989b509295989b9093969950565b60008060008060008060608789031215611d7957611d786117b4565b5b600087013567ffffffffffffffff811115611d9757611d966117b9565b5b611da389828a016119d4565b9650965050602087013567ffffffffffffffff811115611dc657611dc56117b9565b5b611dd289828a016119d4565b9450945050604087013567ffffffffffffffff811115611df557611df46117b9565b5b611e0189828a016119d4565b92509250509295509295509295565b611e1981611938565b82525050565b600081519050919050565b600082825260208201905092915050565b60005b83811015611e59578082015181840152602081019050611e3e565b60008484015250505050565b6000601f19601f8301169050919050565b6000611e8182611e1f565b611e8b8185611e2a565b9350611e9b818560208601611e3b565b611ea481611e65565b840191505092915050565b600081519050919050565b600082825260208201905092915050565b6000819050602082019050919050565b6000611ee78383611e10565b60208301905092915050565b6000602082019050919050565b6000611f0b82611eaf565b611f158185611eba565b9350611f2083611ecb565b8060005b83811015611f51578151611f388882611edb565b9750611f4383611ef3565b925050600181019050611f24565b5085935050505092915050565b611f6781611843565b82525050565b600061010083016000830151611f866000860182611e10565b506020830151611f996020860182611e10565b5060408301518482036040860152611fb18282611e76565b91505060608301518482036060860152611fcb8282611e76565b91505060808301518482036080860152611fe58282611e76565b91505060a083015184820360a0860152611fff8282611f00565b91505060c083015161201460c0860182611f5e565b5060e083015161202760e0860182611f5e565b508091505092915050565b6000602082019050818103600083015261204c8184611f6d565b905092915050565b6000806000806000606086880312156120705761206f6117b4565b5b600086013567ffffffffffffffff81111561208e5761208d6117b9565b5b61209a888289016119d4565b9550955050602086013567ffffffffffffffff8111156120bd576120bc6117b9565b5b6120c9888289016119d4565b935093505060406120dc88828901611a41565b9150509295509295909350565b60008060008060408587031215612103576121026117b4565b5b600085013567ffffffffffffffff811115612121576121206117b9565b5b61212d878288016119d4565b9450945050602085013567ffffffffffffffff8111156121505761214f6117b9565b5b61215c878288016119d4565b925092505092959194509250565b600060c0830160008301516121826000860182611e10565b5060208301516121956020860182611e10565b50604083015184820360408601526121ad8282611e76565b915050606083015184820360608601526121c78282611e76565b91505060808301516121dc6080860182611f5e565b5060a083015184820360a08601526121f48282611f00565b9150508091505092915050565b6000602082019050818103600083015261221b818461216a565b905092915050565b61222c81611899565b82525050565b60006020820190506122476000830184612223565b92915050565b60008151905061225c81611a2a565b92915050565b600060208284031215612278576122776117b4565b5b60006122868482850161224d565b91505092915050565b61229881611938565b81146122a357600080fd5b50565b6000815190506122b58161228f565b92915050565b6000602082840312156122d1576122d06117b4565b5b60006122df848285016122a6565b91505092915050565b600080fd5b7f4e487b7100000000000000000000000000000000000000000000000000000000600052604160045260246000fd5b61232582611e65565b810181811067ffffffffffffffff82111715612344576123436122ed565b5b80604052505050565b60006123576117aa565b9050612363828261231c565b919050565b600080fd5b600080fd5b600067ffffffffffffffff82111561238d5761238c6122ed565b5b61239682611e65565b9050602081019050919050565b60006123b66123b184612372565b61234d565b9050828152602081018484840111156123d2576123d161236d565b5b6123dd848285611e3b565b509392505050565b600082601f8301126123fa576123f96119c5565b5b815161240a8482602086016123a3565b91505092915050565b600067ffffffffffffffff82111561242e5761242d6122ed565b5b602082029050602081019050919050565b600061245261244d84612413565b61234d565b90508083825260208201905060208402830185811115612475576124746119cf565b5b835b8181101561249e578061248a88826122a6565b845260208401935050602081019050612477565b5050509392505050565b600082601f8301126124bd576124bc6119c5565b5b81516124cd84826020860161243f565b91505092915050565b600061010082840312156124ed576124ec6122e8565b5b6124f861010061234d565b90506000612508848285016122a6565b600083015250602061251c848285016122a6565b602083015250604082015167ffffffffffffffff8111156125405761253f612368565b5b61254c848285016123e5565b604083015250606082015167ffffffffffffffff8111156125705761256f612368565b5b61257c848285016123e5565b606083015250608082015167ffffffffffffffff8111156125a05761259f612368565b5b6125ac848285016123e5565b60808301525060a082015167ffffffffffffffff8111156125d0576125cf612368565b5b6125dc848285016124a8565b60a08301525060c06125f08482850161224d565b60c08301525060e06126048482850161224d565b60e08301525092915050565b600060208284031215612626576126256117b4565b5b600082015167ffffffffffffffff811115612644576126436117b9565b5b612650848285016124d6565b91505092915050565b600082825260208201905092915050565b82818337600083830152505050565b60006126858385612659565b935061269283858461266a565b61269b83611e65565b840190509392505050565b600060a0820190506126bb600083018b612223565b81810360208301526126ce81898b612679565b905081810360408301526126e3818789612679565b905081810360608301526126f8818587612679565b9050612707608083018461184f565b9998505050505050505050565b60006040820190506127296000830185612223565b6127366020830184611942565b9392505050565b600082825260208201905092915050565b6000819050919050565b61276181611bb5565b82525050565b60006127738383612758565b60208301905092915050565b600061278e6020840184611bd9565b905092915050565b6000602082019050919050565b60006127af838561273d565b93506127ba8261274e565b8060005b858110156127f3576127d0828461277f565b6127da8882612767565b97506127e583612796565b9250506001810190506127be565b5085925050509392505050565b61280981611bb5565b82525050565b7f4e487b7100000000000000000000000000000000000000000000000000000000600052602160045260246000fd5b6004811061284f5761284e61280f565b5b50565b60008190506128608261283e565b919050565b600061287082612852565b9050919050565b61288081612865565b82525050565b600581106128975761289661280f565b5b50565b60008190506128a882612886565b919050565b60006128b88261289a565b9050919050565b6128c8816128ad565b82525050565b600060e08201905081810360008301526128e9818d8f6127a3565b905081810360208301526128fe818b8d6127a3565b905061290d604083018a612800565b818103606083015261292081888a612679565b905061292f6080830187612877565b81810360a0830152612942818587612679565b905061295160c08301846128bf565b9c9b505050505050505050505050565b600060c082019050612976600083018c612223565b8181036020830152612989818a8c612679565b9050818103604083015261299e81888a612679565b905081810360608301526129b3818688612679565b90506129c2608083018561184f565b6129cf60a083018461184f565b9a9950505050505050505050565b600060c082840312156129f3576129f26122e8565b5b6129fd60c061234d565b90506000612a0d848285016122a6565b6000830152506020612a21848285016122a6565b602083015250604082015167ffffffffffffffff811115612a4557612a44612368565b5b612a51848285016123e5565b604083015250606082015167ffffffffffffffff811115612a7557612a74612368565b5b612a81848285016123e5565b6060830152506080612a958482850161224d565b60808301525060a082015167ffffffffffffffff811115612ab957612ab8612368565b5b612ac5848285016124a8565b60a08301525092915050565b600060208284031215612ae757612ae66117b4565b5b600082015167ffffffffffffffff811115612b0557612b046117b9565b5b612b11848285016129dd565b91505092915050565b6000608082019050612b2f6000830189612223565b8181036020830152612b42818789612679565b90508181036040830152612b57818587612679565b9050612b66606083018461184f565b979650505050505050565b6000604082019050612b866000830185612223565b612b93602083018461190e565b939250505056fea26469706673582212200758081f4eb96273c26f0d6ad684880e13f8f4c0bfae8ac7ea89176edf771cf964736f6c634300081c0033",
  "linkReferences": {},
  "deployedLinkReferences": {}
}