{
  "_format": "hh-sol-artifact-1",
  "contractName": "GoldChain",
  "sourceName": "contracts/GoldChain.sol",
  "abi": [
    {
      "inputs": [
        {
          "internalType": "contract IDataStorage",
          "name": "_dataStorage",
          "type": "address"
        }
      ],
      "stateMutability": "nonpayable",
      "type": "constructor"
    },
    {
      "inputs": [],
      "name": "AccessControlBadConfirmation",
      "type": "error"
    },
    {
      "inputs": [
        {
          "internalType": "address",
          "name": "account",
          "type": "address"
        },
        {
          "internalType": "bytes32",
          "name": "neededRole",
          "type": "bytes32"
        }
      ],
      "name": "AccessControlUnauthorizedAccount",
      "type": "error"
    },
    {
      "inputs": [],
      "name": "CustomerIsAlreadyRegistered",
      "type": "error"
    },
    {
      "inputs": [],
      "name": "CustomerNotExists",
      "type": "error"
    },
    {
      "inputs": [],
      "name": "JewelerIsAlreadyRegistered",
      "type": "error"
    },
    {
      "inputs": [],
      "name": "JewelerNotExists",
      "type": "error"
    },
    {
      "anonymous": false,
      "inputs": [
        {
          "indexed": true,
          "internalType": "bytes32",
          "name": "role",
          "type": "bytes32"
        },
        {
          "indexed": true,
          "internalType": "bytes32",
          "name": "previousAdminRole",
          "type": "bytes32"
        },
        {
          "indexed": true,
          "internalType": "bytes32",
          "name": "newAdminRole",
          "type": "bytes32"
        }
      ],
      "name": "RoleAdminChanged",
      "type": "event"
    },
    {
      "anonymous": false,
      "inputs": [
        {
          "indexed": true,
          "internalType": "bytes32",
          "name": "role",
          "type": "bytes32"
        },
        {
          "indexed": true,
          "internalType": "address",
          "name": "account",
          "type": "address"
        },
        {
          "indexed": true,
          "internalType": "address",
          "name": "sender",
          "type": "address"
        }
      ],
      "name": "RoleGranted",
      "type": "event"
    },
    {
      "anonymous": false,
      "inputs": [
        {
          "indexed": true,
          "internalType": "bytes32",
          "name": "role",
          "type": "bytes32"
        },
        {
          "indexed": true,
          "internalType": "address",
          "name": "account",
          "type": "address"
        },
        {
          "indexed": true,
          "internalType": "address",
          "name": "sender",
          "type": "address"
        }
      ],
      "name": "RoleRevoked",
      "type": "event"
    },
    {
      "anonymous": false,
      "inputs": [
        {
          "indexed": false,
          "internalType": "address",
          "name": "jewelerAddress",
          "type": "address"
        },
        {
          "indexed": false,
          "internalType": "uint256",
          "name": "timestamp",
          "type": "uint256"
        },
        {
          "indexed": false,
          "internalType": "uint256",
          "name": "certificateId",
          "type": "uint256"
        }
      ],
      "name": "certificateCreated",
      "type": "event"
    },
    {
      "anonymous": false,
      "inputs": [
        {
          "indexed": false,
          "internalType": "address",
          "name": "customerAddress",
          "type": "address"
        },
        {
          "indexed": false,
          "internalType": "uint256",
          "name": "timestamp",
          "type": "uint256"
        }
      ],
      "name": "customerCreated",
      "type": "event"
    },
    {
      "anonymous": false,
      "inputs": [
        {
          "indexed": false,
          "internalType": "address",
          "name": "customerAddress",
          "type": "address"
        },
        {
          "indexed": false,
          "internalType": "uint256",
          "name": "timestamp",
          "type": "uint256"
        }
      ],
      "name": "customerUpdated",
      "type": "event"
    },
    {
      "anonymous": false,
      "inputs": [
        {
          "indexed": false,
          "internalType": "address",
          "name": "jewelerAddress",
          "type": "address"
        },
        {
          "indexed": false,
          "internalType": "uint256",
          "name": "timestamp",
          "type": "uint256"
        }
      ],
      "name": "jewelerActivated",
      "type": "event"
    },
    {
      "anonymous": false,
      "inputs": [
        {
          "indexed": false,
          "internalType": "address",
          "name": "jewelerAddress",
          "type": "address"
        },
        {
          "indexed": false,
          "internalType": "uint256",
          "name": "timestamp",
          "type": "uint256"
        }
      ],
      "name": "jewelerCreated",
      "type": "event"
    },
    {
      "anonymous": false,
      "inputs": [
        {
          "indexed": false,
          "internalType": "address",
          "name": "jewelerAddress",
          "type": "address"
        },
        {
          "indexed": false,
          "internalType": "uint256",
          "name": "timestamp",
          "type": "uint256"
        }
      ],
      "name": "jewelerDesactivated",
      "type": "event"
    },
    {
      "anonymous": false,
      "inputs": [
        {
          "indexed": false,
          "internalType": "address",
          "name": "jewelerAddress",
          "type": "address"
        },
        {
          "indexed": false,
          "internalType": "uint256",
          "name": "timestamp",
          "type": "uint256"
        }
      ],
      "name": "jewelerUpdated",
      "type": "event"
    },
    {
      "inputs": [],
      "name": "ADMIN",
      "outputs": [
        {
          "internalType": "bytes32",
          "name": "",
          "type": "bytes32"
        }
      ],
      "stateMutability": "view",
      "type": "function"
    },
    {
      "inputs": [],
      "name": "CERTIFICATOR_ROLE",
      "outputs": [
        {
          "internalType": "bytes32",
          "name": "",
          "type": "bytes32"
        }
      ],
      "stateMutability": "view",
      "type": "function"
    },
    {
      "inputs": [],
      "name": "CUSTOMERS_ROLE",
      "outputs": [
        {
          "internalType": "bytes32",
          "name": "",
          "type": "bytes32"
        }
      ],
      "stateMutability": "view",
      "type": "function"
    },
    {
      "inputs": [],
      "name": "DEFAULT_ADMIN_ROLE",
      "outputs": [
        {
          "internalType": "bytes32",
          "name": "",
          "type": "bytes32"
        }
      ],
      "stateMutability": "view",
      "type": "function"
    },
    {
      "inputs": [],
      "name": "FALSE",
      "outputs": [
        {
          "internalType": "bool",
          "name": "",
          "type": "bool"
        }
      ],
      "stateMutability": "view",
      "type": "function"
    },
    {
      "inputs": [],
      "name": "JEWELERS_ROLE",
      "outputs": [
        {
          "internalType": "bytes32",
          "name": "",
          "type": "bytes32"
        }
      ],
      "stateMutability": "view",
      "type": "function"
    },
    {
      "inputs": [],
      "name": "TRUE",
      "outputs": [
        {
          "internalType": "bool",
          "name": "",
          "type": "bool"
        }
      ],
      "stateMutability": "view",
      "type": "function"
    },
    {
      "inputs": [
        {
          "internalType": "address",
          "name": "_jewelerAddress",
          "type": "address"
        }
      ],
      "name": "activateJeweler",
      "outputs": [
        {
          "internalType": "bool",
          "name": "",
          "type": "bool"
        }
      ],
      "stateMutability": "nonpayable",
      "type": "function"
    },
    {
      "inputs": [],
      "name": "admin",
      "outputs": [
        {
          "internalType": "address",
          "name": "",
          "type": "address"
        }
      ],
      "stateMutability": "view",
      "type": "function"
    },
    {
      "inputs": [
        {
          "internalType": "uint8[]",
          "name": "_materials",
          "type": "uint8[]"
        },
        {
          "internalType": "uint8[]",
          "name": "_gemStones",
          "type": "uint8[]"
        },
        {
          "internalType": "uint8",
          "name": "_weightInGrams",
          "type": "uint8"
        },
        {
          "internalType": "string",
          "name": "_mainColor",
          "type": "string"
        },
        {
          "internalType": "enum IDataStorage.CertificateLevel",
          "name": "_level",
          "type": "uint8"
        },
        {
          "internalType": "string",
          "name": "_JewelerName",
          "type": "string"
        },
        {
          "internalType": "enum IDataStorage.CertificateStatus",
          "name": "_status",
          "type": "uint8"
        }
      ],
      "name": "createCertificate",
      "outputs": [
        {
          "internalType": "bool",
          "name": "",
          "type": "bool"
        }
      ],
      "stateMutability": "nonpayable",
      "type": "function"
    },
    {
      "inputs": [
        {
          "internalType": "string",
          "name": "_name",
          "type": "string"
        },
        {
          "internalType": "string",
          "name": "_email",
          "type": "string"
        }
      ],
      "name": "createCustomer",
      "outputs": [
        {
          "internalType": "bool",
          "name": "",
          "type": "bool"
        }
      ],
      "stateMutability": "nonpayable",
      "type": "function"
    },
    {
      "inputs": [
        {
          "internalType": "string",
          "name": "_name",
          "type": "string"
        },
        {
          "internalType": "string",
          "name": "_email",
          "type": "string"
        },
        {
          "internalType": "string",
          "name": "_location",
          "type": "string"
        }
      ],
      "name": "createJeweler",
      "outputs": [
        {
          "internalType": "bool",
          "name": "",
          "type": "bool"
        }
      ],
      "stateMutability": "nonpayable",
      "type": "function"
    },
    {
      "inputs": [
        {
          "internalType": "address",
          "name": "_jewelerAddress",
          "type": "address"
        }
      ],
      "name": "desactivateJeweler",
      "outputs": [
        {
          "internalType": "bool",
          "name": "",
          "type": "bool"
        }
      ],
      "stateMutability": "nonpayable",
      "type": "function"
    },
    {
      "inputs": [],
      "name": "getCustomerCount",
      "outputs": [
        {
          "internalType": "uint256",
          "name": "",
          "type": "uint256"
        }
      ],
      "stateMutability": "view",
      "type": "function"
    },
    {
      "inputs": [],
      "name": "getJewelerCount",
      "outputs": [
        {
          "internalType": "uint256",
          "name": "",
          "type": "uint256"
        }
      ],
      "stateMutability": "view",
      "type": "function"
    },
    {
      "inputs": [
        {
          "internalType": "address",
          "name": "_customerAddress",
          "type": "address"
        }
      ],
      "name": "getOneCustomer",
      "outputs": [
        {
          "components": [
            {
              "internalType": "uint256",
              "name": "created_at",
              "type": "uint256"
            },
            {
              "internalType": "uint256",
              "name": "updated_at",
              "type": "uint256"
            },
            {
              "internalType": "string",
              "name": "name",
              "type": "string"
            },
            {
              "internalType": "string",
              "name": "email",
              "type": "string"
            },
            {
              "internalType": "bool",
              "name": "visible",
              "type": "bool"
            },
            {
              "internalType": "uint256[]",
              "name": "OwnedCertificateIds",
              "type": "uint256[]"
            }
          ],
          "internalType": "struct IDataStorage.Customer",
          "name": "",
          "type": "tuple"
        }
      ],
      "stateMutability": "view",
      "type": "function"
    },
    {
      "inputs": [
        {
          "internalType": "address",
          "name": "_jewelerAddress",
          "type": "address"
        }
      ],
      "name": "getOneJeweler",
      "outputs": [
        {
          "components": [
            {
              "internalType": "uint256",
              "name": "created_at",
              "type": "uint256"
            },
            {
              "internalType": "uint256",
              "name": "updated_at",
              "type": "uint256"
            },
            {
              "internalType": "string",
              "name": "name",
              "type": "string"
            },
            {
              "internalType": "string",
              "name": "email",
              "type": "string"
            },
            {
              "internalType": "string",
              "name": "location",
              "type": "string"
            },
            {
              "internalType": "uint256[]",
              "name": "CreatedCertificateIds",
              "type": "uint256[]"
            },
            {
              "internalType": "bool",
              "name": "available",
              "type": "bool"
            },
            {
              "internalType": "bool",
              "name": "visible",
              "type": "bool"
            }
          ],
          "internalType": "struct IDataStorage.Jeweler",
          "name": "",
          "type": "tuple"
        }
      ],
      "stateMutability": "view",
      "type": "function"
    },
    {
      "inputs": [
        {
          "internalType": "bytes32",
          "name": "role",
          "type": "bytes32"
        }
      ],
      "name": "getRoleAdmin",
      "outputs": [
        {
          "internalType": "bytes32",
          "name": "",
          "type": "bytes32"
        }
      ],
      "stateMutability": "view",
      "type": "function"
    },
    {
      "inputs": [
        {
          "internalType": "bytes32",
          "name": "role",
          "type": "bytes32"
        },
        {
          "internalType": "address",
          "name": "account",
          "type": "address"
        }
      ],
      "name": "grantRole",
      "outputs": [],
      "stateMutability": "nonpayable",
      "type": "function"
    },
    {
      "inputs": [
        {
          "internalType": "bytes32",
          "name": "role",
          "type": "bytes32"
        },
        {
          "internalType": "address",
          "name": "account",
          "type": "address"
        }
      ],
      "name": "hasRole",
      "outputs": [
        {
          "internalType": "bool",
          "name": "",
          "type": "bool"
        }
      ],
      "stateMutability": "view",
      "type": "function"
    },
    {
      "inputs": [
        {
          "internalType": "bytes32",
          "name": "role",
          "type": "bytes32"
        },
        {
          "internalType": "address",
          "name": "callerConfirmation",
          "type": "address"
        }
      ],
      "name": "renounceRole",
      "outputs": [],
      "stateMutability": "nonpayable",
      "type": "function"
    },
    {
      "inputs": [
        {
          "internalType": "bytes32",
          "name": "role",
          "type": "bytes32"
        },
        {
          "internalType": "address",
          "name": "account",
          "type": "address"
        }
      ],
      "name": "revokeRole",
      "outputs": [],
      "stateMutability": "nonpayable",
      "type": "function"
    },
    {
      "inputs": [
        {
          "internalType": "bytes4",
          "name": "interfaceId",
          "type": "bytes4"
        }
      ],
      "name": "supportsInterface",
      "outputs": [
        {
          "internalType": "bool",
          "name": "",
          "type": "bool"
        }
      ],
      "stateMutability": "view",
      "type": "function"
    },
    {
      "inputs": [],
      "name": "transertCertificate",
      "outputs": [
        {
          "internalType": "bool",
          "name": "",
          "type": "bool"
        }
      ],
      "stateMutability": "nonpayable",
      "type": "function"
    },
    {
      "inputs": [],
      "name": "updateCertificate",
      "outputs": [
        {
          "internalType": "bool",
          "name": "",
          "type": "bool"
        }
      ],
      "stateMutability": "nonpayable",
      "type": "function"
    },
    {
      "inputs": [
        {
          "internalType": "string",
          "name": "_name",
          "type": "string"
        },
        {
          "internalType": "string",
          "name": "_email",
          "type": "string"
        },
        {
          "internalType": "bool",
          "name": "_visible",
          "type": "bool"
        }
      ],
      "name": "updateCustomer",
      "outputs": [
        {
          "internalType": "bool",
          "name": "",
          "type": "bool"
        }
      ],
      "stateMutability": "nonpayable",
      "type": "function"
    },
    {
      "inputs": [
        {
          "internalType": "string",
          "name": "_name",
          "type": "string"
        },
        {
          "internalType": "string",
          "name": "_email",
          "type": "string"
        },
        {
          "internalType": "string",
          "name": "_location",
          "type": "string"
        },
        {
          "internalType": "bool",
          "name": "_visible",
          "type": "bool"
        }
      ],
      "name": "updateJeweler",
      "outputs": [
        {
          "internalType": "bool",
          "name": "",
          "type": "bool"
        }
      ],
      "stateMutability": "nonpayable",
      "type": "function"
    }
  ],
  "bytecode": "0x608060405234801561001057600080fd5b50604051612f61380380612f61833981810160405281019061003291906102e3565b6100456000801b336100ff60201b60201c565b506100767fdf8b4c520ffe197c5343c6f5aec59570151ef9a492f2c624fd45ddde6135ec42336100ff60201b60201c565b5033600260006101000a81548173ffffffffffffffffffffffffffffffffffffffff021916908373ffffffffffffffffffffffffffffffffffffffff16021790555080600160006101000a81548173ffffffffffffffffffffffffffffffffffffffff021916908373ffffffffffffffffffffffffffffffffffffffff16021790555050610310565b600061011183836101fc60201b60201c565b6101f157600160008085815260200190815260200160002060000160008473ffffffffffffffffffffffffffffffffffffffff1673ffffffffffffffffffffffffffffffffffffffff16815260200190815260200160002060006101000a81548160ff02191690831515021790555061018e61026660201b60201c565b73ffffffffffffffffffffffffffffffffffffffff168273ffffffffffffffffffffffffffffffffffffffff16847f2f8788117e7eff1d82e926ec794901d17c78024a50270940304540a733656f0d60405160405180910390a4600190506101f6565b600090505b92915050565b600080600084815260200190815260200160002060000160008373ffffffffffffffffffffffffffffffffffffffff1673ffffffffffffffffffffffffffffffffffffffff16815260200190815260200160002060009054906101000a900460ff16905092915050565b600033905090565b600080fd5b600073ffffffffffffffffffffffffffffffffffffffff82169050919050565b600061029e82610273565b9050919050565b60006102b082610293565b9050919050565b6102c0816102a5565b81146102cb57600080fd5b50565b6000815190506102dd816102b7565b92915050565b6000602082840312156102f9576102f861026e565b5b6000610307848285016102ce565b91505092915050565b612c428061031f6000396000f3fe608060405234801561001057600080fd5b50600436106101a95760003560e01c806355ed5fe8116100f9578063a1e5a38a11610097578063c43fe7c411610071578063c43fe7c414610510578063d547741f14610540578063ee7bf0ee1461055c578063f851a4401461058c576101a9565b8063a1e5a38a146104a4578063a217fddf146104c2578063c21d034f146104e0576101a9565b8063899f9d0d116100d3578063899f9d0d1461041a5780638c2717771461043857806391d1485414610456578063934b4af214610486576101a9565b806355ed5fe81461039c57806357a00ccf146103cc5780635994d984146103fc576101a9565b806329acc209116101665780632f2ff15d116101405780632f2ff15d1461031657806336568abe1461033257806341cc7c731461034e5780634ff7986e1461037e576101a9565b806329acc209146102985780632a0acc6a146102c85780632b3dd38b146102e6576101a9565b806301ffc9a7146101ae578063081ba2d5146101de5780630cdb5cb51461020e5780632027d7461461022c57806322f537ce1461024a578063248a9ca314610268575b600080fd5b6101c860048036038101906101c39190611888565b6105aa565b6040516101d591906118d0565b60405180910390f35b6101f860048036038101906101f39190611949565b610624565b60405161020591906118d0565b60405180910390f35b610216610732565b604051610223919061198f565b60405180910390f35b610234610756565b60405161024191906119c3565b60405180910390f35b6102526107ee565b60405161025f919061198f565b60405180910390f35b610282600480360381019061027d9190611a0a565b610812565b60405161028f919061198f565b60405180910390f35b6102b260048036038101906102ad9190611949565b610831565b6040516102bf91906118d0565b60405180910390f35b6102d061093f565b6040516102dd919061198f565b60405180910390f35b61030060048036038101906102fb9190611ac8565b610963565b60405161030d91906118d0565b60405180910390f35b610330600480360381019061032b9190611b91565b610b63565b005b61034c60048036038101906103479190611b91565b610b85565b005b61036860048036038101906103639190611caa565b610c00565b60405161037591906118d0565b60405180910390f35b610386610cf3565b60405161039391906118d0565b60405180910390f35b6103b660048036038101906103b19190611dce565b610cf8565b6040516103c391906118d0565b60405180910390f35b6103e660048036038101906103e19190611949565b610e7e565b6040516103f391906120a4565b60405180910390f35b610404610f2e565b60405161041191906118d0565b60405180910390f35b610422610f33565b60405161042f91906118d0565b60405180910390f35b610440610f3c565b60405161044d91906119c3565b60405180910390f35b610470600480360381019061046b9190611b91565b610fd4565b60405161047d91906118d0565b60405180910390f35b61048e61103e565b60405161049b919061198f565b60405180910390f35b6104ac611062565b6040516104b991906118d0565b60405180910390f35b6104ca61106b565b6040516104d7919061198f565b60405180910390f35b6104fa60048036038101906104f591906120c6565b611072565b60405161050791906118d0565b60405180910390f35b61052a6004803603810190610525919061215b565b61126c565b60405161053791906118d0565b60405180910390f35b61055a60048036038101906105559190611b91565b6113e9565b005b61057660048036038101906105719190611949565b61140b565b6040516105839190612273565b60405180910390f35b6105946114bb565b6040516105a191906122a4565b60405180910390f35b60007f7965db0b000000000000000000000000000000000000000000000000000000007bffffffffffffffffffffffffffffffffffffffffffffffffffffffff1916827bffffffffffffffffffffffffffffffffffffffffffffffffffffffff1916148061061d575061061c826114e1565b5b9050919050565b60007fdf8b4c520ffe197c5343c6f5aec59570151ef9a492f2c624fd45ddde6135ec426106508161154b565b600160009054906101000a900473ffffffffffffffffffffffffffffffffffffffff1673ffffffffffffffffffffffffffffffffffffffff1663081ba2d5846040518263ffffffff1660e01b81526004016106ab91906122a4565b6020604051808303816000875af11580156106ca573d6000803e3d6000fd5b505050506040513d601f19601f820116820180604052508101906106ee91906122d4565b507f188d8ca5695483231734d1734924f73ab34848f997f2de827c8f73033b4614ae8342604051610720929190612301565b60405180910390a16001915050919050565b7f61e6a4bb6bca8aa1f17c71895c1ab1bf9c06c812442a0a16aad9f0837c23ca7981565b6000600160009054906101000a900473ffffffffffffffffffffffffffffffffffffffff1673ffffffffffffffffffffffffffffffffffffffff16632027d7466040518163ffffffff1660e01b8152600401602060405180830381865afa1580156107c5573d6000803e3d6000fd5b505050506040513d601f19601f820116820180604052508101906107e99190612356565b905090565b7faf6786efc154b345802554f1dea27e60ea4c3393b6b38eb8438e22c20e088bd281565b6000806000838152602001908152602001600020600101549050919050565b60007fdf8b4c520ffe197c5343c6f5aec59570151ef9a492f2c624fd45ddde6135ec4261085d8161154b565b600160009054906101000a900473ffffffffffffffffffffffffffffffffffffffff1673ffffffffffffffffffffffffffffffffffffffff166329acc209846040518263ffffffff1660e01b81526004016108b891906122a4565b6020604051808303816000875af11580156108d7573d6000803e3d6000fd5b505050506040513d601f19601f820116820180604052508101906108fb91906122d4565b507f449422d37ad477a115e35ded9d4971e6ed3594f45df1408f1eb2320a8bc5c2b8834260405161092d929190612301565b60405180910390a16001915050919050565b7fdf8b4c520ffe197c5343c6f5aec59570151ef9a492f2c624fd45ddde6135ec4281565b60007f61e6a4bb6bca8aa1f17c71895c1ab1bf9c06c812442a0a16aad9f0837c23ca7961098f8161154b565b6000600160009054906101000a900473ffffffffffffffffffffffffffffffffffffffff1673ffffffffffffffffffffffffffffffffffffffff166357a00ccf336040518263ffffffff1660e01b81526004016109ec91906122a4565b600060405180830381865afa158015610a09573d6000803e3d6000fd5b505050506040513d6000823e3d601f19601f82011682018060405250810190610a3291906126ab565b6000015103610a6d576040517f1d65442900000000000000000000000000000000000000000000000000000000815260040160405180910390fd5b600160009054906101000a900473ffffffffffffffffffffffffffffffffffffffff1673ffffffffffffffffffffffffffffffffffffffff1663a735e5de338b8b8b8b8b8b8b6040518963ffffffff1660e01b8152600401610ad6989796959493929190612741565b6020604051808303816000875af1158015610af5573d6000803e3d6000fd5b505050506040513d601f19601f82011682018060405250810190610b1991906122d4565b507fc21195a7f73acb0112d9942f6c5c02acc3d8d2c74ab81a6c28f4f492dac933b83342604051610b4b929190612301565b60405180910390a16001915050979650505050505050565b610b6c82610812565b610b758161154b565b610b7f838361155f565b50505050565b610b8d611650565b73ffffffffffffffffffffffffffffffffffffffff168173ffffffffffffffffffffffffffffffffffffffff1614610bf1576040517f6697b23200000000000000000000000000000000000000000000000000000000815260040160405180910390fd5b610bfb8282611658565b505050565b60007f61e6a4bb6bca8aa1f17c71895c1ab1bf9c06c812442a0a16aad9f0837c23ca79610c2c8161154b565b600160009054906101000a900473ffffffffffffffffffffffffffffffffffffffff1673ffffffffffffffffffffffffffffffffffffffff166364df69e78e8e8e8e8e8e8e8e8e8e8e6040518c63ffffffff1660e01b8152600401610c9b9b9a99989796959493929190612940565b6020604051808303816000875af1158015610cba573d6000803e3d6000fd5b505050506040513d601f19601f82011682018060405250810190610cde91906122d4565b5060019150509b9a5050505050505050505050565b600081565b6000610d247f61e6a4bb6bca8aa1f17c71895c1ab1bf9c06c812442a0a16aad9f0837c23ca7933610fd4565b15610d5b576040517f9e5ae09300000000000000000000000000000000000000000000000000000000815260040160405180910390fd5b610d857f61e6a4bb6bca8aa1f17c71895c1ab1bf9c06c812442a0a16aad9f0837c23ca793361155f565b50600160009054906101000a900473ffffffffffffffffffffffffffffffffffffffff1673ffffffffffffffffffffffffffffffffffffffff16637208ca1933898989898989600060016040518a63ffffffff1660e01b8152600401610df3999897969594939291906129d3565b6020604051808303816000875af1158015610e12573d6000803e3d6000fd5b505050506040513d601f19601f82011682018060405250810190610e3691906122d4565b507fa12abd8201760a4e094635a878d94e4e31ee41204057e1ba4081b4c8ba7df8a83342604051610e68929190612301565b60405180910390a1600190509695505050505050565b610e8661179b565b600160009054906101000a900473ffffffffffffffffffffffffffffffffffffffff1673ffffffffffffffffffffffffffffffffffffffff166357a00ccf836040518263ffffffff1660e01b8152600401610ee191906122a4565b600060405180830381865afa158015610efe573d6000803e3d6000fd5b505050506040513d6000823e3d601f19601f82011682018060405250810190610f2791906126ab565b9050919050565b600181565b60006001905090565b6000600160009054906101000a900473ffffffffffffffffffffffffffffffffffffffff1673ffffffffffffffffffffffffffffffffffffffff16638c2717776040518163ffffffff1660e01b8152600401602060405180830381865afa158015610fab573d6000803e3d6000fd5b505050506040513d601f19601f82011682018060405250810190610fcf9190612356565b905090565b600080600084815260200190815260200160002060000160008373ffffffffffffffffffffffffffffffffffffffff1673ffffffffffffffffffffffffffffffffffffffff16815260200190815260200160002060009054906101000a900460ff16905092915050565b7f8c6ae1b8cac4c99ac9b51ba2b44ec85e94139863fa8d7f1ab8f7e39763b3db4e81565b60006001905090565b6000801b81565b60007faf6786efc154b345802554f1dea27e60ea4c3393b6b38eb8438e22c20e088bd261109e8161154b565b6000600160009054906101000a900473ffffffffffffffffffffffffffffffffffffffff1673ffffffffffffffffffffffffffffffffffffffff1663ee7bf0ee336040518263ffffffff1660e01b81526004016110fb91906122a4565b600060405180830381865afa158015611118573d6000803e3d6000fd5b505050506040513d6000823e3d601f19601f820116820180604052508101906111419190612b43565b600001510361117c576040517f4a46a71500000000000000000000000000000000000000000000000000000000815260040160405180910390fd5b600160009054906101000a900473ffffffffffffffffffffffffffffffffffffffff1673ffffffffffffffffffffffffffffffffffffffff1663c5128e053389898989896040518763ffffffff1660e01b81526004016111e196959493929190612b8c565b6020604051808303816000875af1158015611200573d6000803e3d6000fd5b505050506040513d601f19601f8201168201806040525081019061122491906122d4565b507f3e981d6fd4c5bd91ef3f68ca28a36322130d52221ab7319ae700e4c417dcc8e33342604051611256929190612301565b60405180910390a1600191505095945050505050565b60006112987faf6786efc154b345802554f1dea27e60ea4c3393b6b38eb8438e22c20e088bd233610fd4565b156112cf576040517f937df23900000000000000000000000000000000000000000000000000000000815260040160405180910390fd5b6112f97faf6786efc154b345802554f1dea27e60ea4c3393b6b38eb8438e22c20e088bd23361155f565b50600160009054906101000a900473ffffffffffffffffffffffffffffffffffffffff1673ffffffffffffffffffffffffffffffffffffffff166378e4d305338787878760016040518763ffffffff1660e01b815260040161136096959493929190612b8c565b6020604051808303816000875af115801561137f573d6000803e3d6000fd5b505050506040513d601f19601f820116820180604052508101906113a391906122d4565b507f9355f2ba77852e61793679ff03cf26231b8175fdfb97dc47490f1b151e6ab0d433426040516113d5929190612301565b60405180910390a160019050949350505050565b6113f282610812565b6113fb8161154b565b6114058383611658565b50505050565b6114136117e4565b600160009054906101000a900473ffffffffffffffffffffffffffffffffffffffff1673ffffffffffffffffffffffffffffffffffffffff1663ee7bf0ee836040518263ffffffff1660e01b815260040161146e91906122a4565b600060405180830381865afa15801561148b573d6000803e3d6000fd5b505050506040513d6000823e3d601f19601f820116820180604052508101906114b49190612b43565b9050919050565b600260009054906101000a900473ffffffffffffffffffffffffffffffffffffffff1681565b60007f01ffc9a7000000000000000000000000000000000000000000000000000000007bffffffffffffffffffffffffffffffffffffffffffffffffffffffff1916827bffffffffffffffffffffffffffffffffffffffffffffffffffffffff1916149050919050565b61155c81611557611650565b61174a565b50565b600061156b8383610fd4565b61164557600160008085815260200190815260200160002060000160008473ffffffffffffffffffffffffffffffffffffffff1673ffffffffffffffffffffffffffffffffffffffff16815260200190815260200160002060006101000a81548160ff0219169083151502179055506115e2611650565b73ffffffffffffffffffffffffffffffffffffffff168273ffffffffffffffffffffffffffffffffffffffff16847f2f8788117e7eff1d82e926ec794901d17c78024a50270940304540a733656f0d60405160405180910390a46001905061164a565b600090505b92915050565b600033905090565b60006116648383610fd4565b1561173f57600080600085815260200190815260200160002060000160008473ffffffffffffffffffffffffffffffffffffffff1673ffffffffffffffffffffffffffffffffffffffff16815260200190815260200160002060006101000a81548160ff0219169083151502179055506116dc611650565b73ffffffffffffffffffffffffffffffffffffffff168273ffffffffffffffffffffffffffffffffffffffff16847ff6391f5c32d9c69d2a47ea670b442974b53935d1edc7fd64eb21e047a839171b60405160405180910390a460019050611744565b600090505b92915050565b6117548282610fd4565b6117975780826040517fe2517d3f00000000000000000000000000000000000000000000000000000000815260040161178e929190612be3565b60405180910390fd5b5050565b6040518061010001604052806000815260200160008152602001606081526020016060815260200160608152602001606081526020016000151581526020016000151581525090565b6040518060c0016040528060008152602001600081526020016060815260200160608152602001600015158152602001606081525090565b6000604051905090565b600080fd5b600080fd5b60007fffffffff0000000000000000000000000000000000000000000000000000000082169050919050565b61186581611830565b811461187057600080fd5b50565b6000813590506118828161185c565b92915050565b60006020828403121561189e5761189d611826565b5b60006118ac84828501611873565b91505092915050565b60008115159050919050565b6118ca816118b5565b82525050565b60006020820190506118e560008301846118c1565b92915050565b600073ffffffffffffffffffffffffffffffffffffffff82169050919050565b6000611916826118eb565b9050919050565b6119268161190b565b811461193157600080fd5b50565b6000813590506119438161191d565b92915050565b60006020828403121561195f5761195e611826565b5b600061196d84828501611934565b91505092915050565b6000819050919050565b61198981611976565b82525050565b60006020820190506119a46000830184611980565b92915050565b6000819050919050565b6119bd816119aa565b82525050565b60006020820190506119d860008301846119b4565b92915050565b6119e781611976565b81146119f257600080fd5b50565b600081359050611a04816119de565b92915050565b600060208284031215611a2057611a1f611826565b5b6000611a2e848285016119f5565b91505092915050565b600080fd5b600080fd5b600080fd5b60008083601f840112611a5c57611a5b611a37565b5b8235905067ffffffffffffffff811115611a7957611a78611a3c565b5b602083019150836001820283011115611a9557611a94611a41565b5b9250929050565b611aa5816118b5565b8114611ab057600080fd5b50565b600081359050611ac281611a9c565b92915050565b60008060008060008060006080888a031215611ae757611ae6611826565b5b600088013567ffffffffffffffff811115611b0557611b0461182b565b5b611b118a828b01611a46565b9750975050602088013567ffffffffffffffff811115611b3457611b3361182b565b5b611b408a828b01611a46565b9550955050604088013567ffffffffffffffff811115611b6357611b6261182b565b5b611b6f8a828b01611a46565b93509350506060611b828a828b01611ab3565b91505092959891949750929550565b60008060408385031215611ba857611ba7611826565b5b6000611bb6858286016119f5565b9250506020611bc785828601611934565b9150509250929050565b60008083601f840112611be757611be6611a37565b5b8235905067ffffffffffffffff811115611c0457611c03611a3c565b5b602083019150836020820283011115611c2057611c1f611a41565b5b9250929050565b600060ff82169050919050565b611c3d81611c27565b8114611c4857600080fd5b50565b600081359050611c5a81611c34565b92915050565b60048110611c6d57600080fd5b50565b600081359050611c7f81611c60565b92915050565b60058110611c9257600080fd5b50565b600081359050611ca481611c85565b92915050565b600080600080600080600080600080600060e08c8e031215611ccf57611cce611826565b5b60008c013567ffffffffffffffff811115611ced57611cec61182b565b5b611cf98e828f01611bd1565b9b509b505060208c013567ffffffffffffffff811115611d1c57611d1b61182b565b5b611d288e828f01611bd1565b99509950506040611d3b8e828f01611c4b565b97505060608c013567ffffffffffffffff811115611d5c57611d5b61182b565b5b611d688e828f01611a46565b96509650506080611d7b8e828f01611c70565b94505060a08c013567ffffffffffffffff811115611d9c57611d9b61182b565b5b611da88e828f01611a46565b935093505060c0611dbb8e828f01611c95565b9150509295989b509295989b9093969950565b60008060008060008060608789031215611deb57611dea611826565b5b600087013567ffffffffffffffff811115611e0957611e0861182b565b5b611e1589828a01611a46565b9650965050602087013567ffffffffffffffff811115611e3857611e3761182b565b5b611e4489828a01611a46565b9450945050604087013567ffffffffffffffff811115611e6757611e6661182b565b5b611e7389828a01611a46565b92509250509295509295509295565b611e8b816119aa565b82525050565b600081519050919050565b600082825260208201905092915050565b60005b83811015611ecb578082015181840152602081019050611eb0565b60008484015250505050565b6000601f19601f8301169050919050565b6000611ef382611e91565b611efd8185611e9c565b9350611f0d818560208601611ead565b611f1681611ed7565b840191505092915050565b600081519050919050565b600082825260208201905092915050565b6000819050602082019050919050565b6000611f598383611e82565b60208301905092915050565b6000602082019050919050565b6000611f7d82611f21565b611f878185611f2c565b9350611f9283611f3d565b8060005b83811015611fc3578151611faa8882611f4d565b9750611fb583611f65565b925050600181019050611f96565b5085935050505092915050565b611fd9816118b5565b82525050565b600061010083016000830151611ff86000860182611e82565b50602083015161200b6020860182611e82565b50604083015184820360408601526120238282611ee8565b9150506060830151848203606086015261203d8282611ee8565b915050608083015184820360808601526120578282611ee8565b91505060a083015184820360a08601526120718282611f72565b91505060c083015161208660c0860182611fd0565b5060e083015161209960e0860182611fd0565b508091505092915050565b600060208201905081810360008301526120be8184611fdf565b905092915050565b6000806000806000606086880312156120e2576120e1611826565b5b600086013567ffffffffffffffff811115612100576120ff61182b565b5b61210c88828901611a46565b9550955050602086013567ffffffffffffffff81111561212f5761212e61182b565b5b61213b88828901611a46565b9350935050604061214e88828901611ab3565b9150509295509295909350565b6000806000806040858703121561217557612174611826565b5b600085013567ffffffffffffffff8111156121935761219261182b565b5b61219f87828801611a46565b9450945050602085013567ffffffffffffffff8111156121c2576121c161182b565b5b6121ce87828801611a46565b925092505092959194509250565b600060c0830160008301516121f46000860182611e82565b5060208301516122076020860182611e82565b506040830151848203604086015261221f8282611ee8565b915050606083015184820360608601526122398282611ee8565b915050608083015161224e6080860182611fd0565b5060a083015184820360a08601526122668282611f72565b9150508091505092915050565b6000602082019050818103600083015261228d81846121dc565b905092915050565b61229e8161190b565b82525050565b60006020820190506122b96000830184612295565b92915050565b6000815190506122ce81611a9c565b92915050565b6000602082840312156122ea576122e9611826565b5b60006122f8848285016122bf565b91505092915050565b60006040820190506123166000830185612295565b61232360208301846119b4565b9392505050565b612333816119aa565b811461233e57600080fd5b50565b6000815190506123508161232a565b92915050565b60006020828403121561236c5761236b611826565b5b600061237a84828501612341565b91505092915050565b600080fd5b7f4e487b7100000000000000000000000000000000000000000000000000000000600052604160045260246000fd5b6123c082611ed7565b810181811067ffffffffffffffff821117156123df576123de612388565b5b80604052505050565b60006123f261181c565b90506123fe82826123b7565b919050565b600080fd5b600080fd5b600067ffffffffffffffff82111561242857612427612388565b5b61243182611ed7565b9050602081019050919050565b600061245161244c8461240d565b6123e8565b90508281526020810184848401111561246d5761246c612408565b5b612478848285611ead565b509392505050565b600082601f83011261249557612494611a37565b5b81516124a584826020860161243e565b91505092915050565b600067ffffffffffffffff8211156124c9576124c8612388565b5b602082029050602081019050919050565b60006124ed6124e8846124ae565b6123e8565b905080838252602082019050602084028301858111156125105761250f611a41565b5b835b8181101561253957806125258882612341565b845260208401935050602081019050612512565b5050509392505050565b600082601f83011261255857612557611a37565b5b81516125688482602086016124da565b91505092915050565b6000610100828403121561258857612587612383565b5b6125936101006123e8565b905060006125a384828501612341565b60008301525060206125b784828501612341565b602083015250604082015167ffffffffffffffff8111156125db576125da612403565b5b6125e784828501612480565b604083015250606082015167ffffffffffffffff81111561260b5761260a612403565b5b61261784828501612480565b606083015250608082015167ffffffffffffffff81111561263b5761263a612403565b5b61264784828501612480565b60808301525060a082015167ffffffffffffffff81111561266b5761266a612403565b5b61267784828501612543565b60a08301525060c061268b848285016122bf565b60c08301525060e061269f848285016122bf565b60e08301525092915050565b6000602082840312156126c1576126c0611826565b5b600082015167ffffffffffffffff8111156126df576126de61182b565b5b6126eb84828501612571565b91505092915050565b600082825260208201905092915050565b82818337600083830152505050565b600061272083856126f4565b935061272d838584612705565b61273683611ed7565b840190509392505050565b600060a082019050612756600083018b612295565b818103602083015261276981898b612714565b9050818103604083015261277e818789612714565b90508181036060830152612793818587612714565b90506127a260808301846118c1565b9998505050505050505050565b600082825260208201905092915050565b6000819050919050565b6127d381611c27565b82525050565b60006127e583836127ca565b60208301905092915050565b60006128006020840184611c4b565b905092915050565b6000602082019050919050565b600061282183856127af565b935061282c826127c0565b8060005b858110156128655761284282846127f1565b61284c88826127d9565b975061285783612808565b925050600181019050612830565b5085925050509392505050565b61287b81611c27565b82525050565b7f4e487b7100000000000000000000000000000000000000000000000000000000600052602160045260246000fd5b600481106128c1576128c0612881565b5b50565b60008190506128d2826128b0565b919050565b60006128e2826128c4565b9050919050565b6128f2816128d7565b82525050565b6005811061290957612908612881565b5b50565b600081905061291a826128f8565b919050565b600061292a8261290c565b9050919050565b61293a8161291f565b82525050565b600060e082019050818103600083015261295b818d8f612815565b90508181036020830152612970818b8d612815565b905061297f604083018a612872565b818103606083015261299281888a612714565b90506129a160808301876128e9565b81810360a08301526129b4818587612714565b90506129c360c0830184612931565b9c9b505050505050505050505050565b600060c0820190506129e8600083018c612295565b81810360208301526129fb818a8c612714565b90508181036040830152612a1081888a612714565b90508181036060830152612a25818688612714565b9050612a3460808301856118c1565b612a4160a08301846118c1565b9a9950505050505050505050565b600060c08284031215612a6557612a64612383565b5b612a6f60c06123e8565b90506000612a7f84828501612341565b6000830152506020612a9384828501612341565b602083015250604082015167ffffffffffffffff811115612ab757612ab6612403565b5b612ac384828501612480565b604083015250606082015167ffffffffffffffff811115612ae757612ae6612403565b5b612af384828501612480565b6060830152506080612b07848285016122bf565b60808301525060a082015167ffffffffffffffff811115612b2b57612b2a612403565b5b612b3784828501612543565b60a08301525092915050565b600060208284031215612b5957612b58611826565b5b600082015167ffffffffffffffff811115612b7757612b7661182b565b5b612b8384828501612a4f565b91505092915050565b6000608082019050612ba16000830189612295565b8181036020830152612bb4818789612714565b90508181036040830152612bc9818587612714565b9050612bd860608301846118c1565b979650505050505050565b6000604082019050612bf86000830185612295565b612c056020830184611980565b939250505056fea26469706673582212209cbee4f623eda5333684a92f008c65a449eb2174fe98b79104a6a073806ff0a864736f6c634300081c0033",
  "linkReferences": {},
  "deployedLinkReferences": {}
}