{
  "_format": "hh-sol-artifact-1",
  "contractName": "GoldChain",
  "sourceName": "contracts/GoldChain.sol",
  "abi": [
    {
      "inputs": [
        {
          "internalType": "contract IDataStorage",
          "name": "_dataStorage",
          "type": "address"
        }
      ],
      "stateMutability": "nonpayable",
      "type": "constructor"
    },
    {
      "inputs": [],
      "name": "AccessControlBadConfirmation",
      "type": "error"
    },
    {
      "inputs": [
        {
          "internalType": "address",
          "name": "account",
          "type": "address"
        },
        {
          "internalType": "bytes32",
          "name": "neededRole",
          "type": "bytes32"
        }
      ],
      "name": "AccessControlUnauthorizedAccount",
      "type": "error"
    },
    {
      "inputs": [],
      "name": "CustomerIsAlreadyRegistered",
      "type": "error"
    },
    {
      "inputs": [],
      "name": "CustomerNotExists",
      "type": "error"
    },
    {
      "inputs": [
        {
          "internalType": "address",
          "name": "sender",
          "type": "address"
        },
        {
          "internalType": "uint256",
          "name": "tokenId",
          "type": "uint256"
        },
        {
          "internalType": "address",
          "name": "owner",
          "type": "address"
        }
      ],
      "name": "ERC721IncorrectOwner",
      "type": "error"
    },
    {
      "inputs": [
        {
          "internalType": "address",
          "name": "operator",
          "type": "address"
        },
        {
          "internalType": "uint256",
          "name": "tokenId",
          "type": "uint256"
        }
      ],
      "name": "ERC721InsufficientApproval",
      "type": "error"
    },
    {
      "inputs": [
        {
          "internalType": "address",
          "name": "approver",
          "type": "address"
        }
      ],
      "name": "ERC721InvalidApprover",
      "type": "error"
    },
    {
      "inputs": [
        {
          "internalType": "address",
          "name": "operator",
          "type": "address"
        }
      ],
      "name": "ERC721InvalidOperator",
      "type": "error"
    },
    {
      "inputs": [
        {
          "internalType": "address",
          "name": "owner",
          "type": "address"
        }
      ],
      "name": "ERC721InvalidOwner",
      "type": "error"
    },
    {
      "inputs": [
        {
          "internalType": "address",
          "name": "receiver",
          "type": "address"
        }
      ],
      "name": "ERC721InvalidReceiver",
      "type": "error"
    },
    {
      "inputs": [
        {
          "internalType": "address",
          "name": "sender",
          "type": "address"
        }
      ],
      "name": "ERC721InvalidSender",
      "type": "error"
    },
    {
      "inputs": [
        {
          "internalType": "uint256",
          "name": "tokenId",
          "type": "uint256"
        }
      ],
      "name": "ERC721NonexistentToken",
      "type": "error"
    },
    {
      "inputs": [],
      "name": "JewelerIsAlreadyRegistered",
      "type": "error"
    },
    {
      "inputs": [],
      "name": "JewelerNotExists",
      "type": "error"
    },
    {
      "inputs": [],
      "name": "TokenDoesNotExist",
      "type": "error"
    },
    {
      "anonymous": false,
      "inputs": [
        {
          "indexed": true,
          "internalType": "address",
          "name": "owner",
          "type": "address"
        },
        {
          "indexed": true,
          "internalType": "address",
          "name": "approved",
          "type": "address"
        },
        {
          "indexed": true,
          "internalType": "uint256",
          "name": "tokenId",
          "type": "uint256"
        }
      ],
      "name": "Approval",
      "type": "event"
    },
    {
      "anonymous": false,
      "inputs": [
        {
          "indexed": true,
          "internalType": "address",
          "name": "owner",
          "type": "address"
        },
        {
          "indexed": true,
          "internalType": "address",
          "name": "operator",
          "type": "address"
        },
        {
          "indexed": false,
          "internalType": "bool",
          "name": "approved",
          "type": "bool"
        }
      ],
      "name": "ApprovalForAll",
      "type": "event"
    },
    {
      "anonymous": false,
      "inputs": [
        {
          "indexed": true,
          "internalType": "bytes32",
          "name": "role",
          "type": "bytes32"
        },
        {
          "indexed": true,
          "internalType": "bytes32",
          "name": "previousAdminRole",
          "type": "bytes32"
        },
        {
          "indexed": true,
          "internalType": "bytes32",
          "name": "newAdminRole",
          "type": "bytes32"
        }
      ],
      "name": "RoleAdminChanged",
      "type": "event"
    },
    {
      "anonymous": false,
      "inputs": [
        {
          "indexed": true,
          "internalType": "bytes32",
          "name": "role",
          "type": "bytes32"
        },
        {
          "indexed": true,
          "internalType": "address",
          "name": "account",
          "type": "address"
        },
        {
          "indexed": true,
          "internalType": "address",
          "name": "sender",
          "type": "address"
        }
      ],
      "name": "RoleGranted",
      "type": "event"
    },
    {
      "anonymous": false,
      "inputs": [
        {
          "indexed": true,
          "internalType": "bytes32",
          "name": "role",
          "type": "bytes32"
        },
        {
          "indexed": true,
          "internalType": "address",
          "name": "account",
          "type": "address"
        },
        {
          "indexed": true,
          "internalType": "address",
          "name": "sender",
          "type": "address"
        }
      ],
      "name": "RoleRevoked",
      "type": "event"
    },
    {
      "anonymous": false,
      "inputs": [
        {
          "indexed": true,
          "internalType": "address",
          "name": "from",
          "type": "address"
        },
        {
          "indexed": true,
          "internalType": "address",
          "name": "to",
          "type": "address"
        },
        {
          "indexed": true,
          "internalType": "uint256",
          "name": "tokenId",
          "type": "uint256"
        }
      ],
      "name": "Transfer",
      "type": "event"
    },
    {
      "anonymous": false,
      "inputs": [
        {
          "indexed": false,
          "internalType": "address",
          "name": "jewelerAddress",
          "type": "address"
        },
        {
          "indexed": false,
          "internalType": "uint256",
          "name": "timestamp",
          "type": "uint256"
        },
        {
          "indexed": false,
          "internalType": "uint256",
          "name": "certificateId",
          "type": "uint256"
        }
      ],
      "name": "certificateCreated",
      "type": "event"
    },
    {
      "anonymous": false,
      "inputs": [
        {
          "indexed": false,
          "internalType": "address",
          "name": "customerAddress",
          "type": "address"
        },
        {
          "indexed": false,
          "internalType": "uint256",
          "name": "timestamp",
          "type": "uint256"
        }
      ],
      "name": "customerCreated",
      "type": "event"
    },
    {
      "anonymous": false,
      "inputs": [
        {
          "indexed": false,
          "internalType": "address",
          "name": "customerAddress",
          "type": "address"
        },
        {
          "indexed": false,
          "internalType": "uint256",
          "name": "timestamp",
          "type": "uint256"
        }
      ],
      "name": "customerUpdated",
      "type": "event"
    },
    {
      "anonymous": false,
      "inputs": [
        {
          "indexed": false,
          "internalType": "address",
          "name": "jewelerAddress",
          "type": "address"
        },
        {
          "indexed": false,
          "internalType": "uint256",
          "name": "timestamp",
          "type": "uint256"
        }
      ],
      "name": "jewelerActivated",
      "type": "event"
    },
    {
      "anonymous": false,
      "inputs": [
        {
          "indexed": false,
          "internalType": "address",
          "name": "jewelerAddress",
          "type": "address"
        },
        {
          "indexed": false,
          "internalType": "uint256",
          "name": "timestamp",
          "type": "uint256"
        }
      ],
      "name": "jewelerCreated",
      "type": "event"
    },
    {
      "anonymous": false,
      "inputs": [
        {
          "indexed": false,
          "internalType": "address",
          "name": "jewelerAddress",
          "type": "address"
        },
        {
          "indexed": false,
          "internalType": "uint256",
          "name": "timestamp",
          "type": "uint256"
        }
      ],
      "name": "jewelerDesactivated",
      "type": "event"
    },
    {
      "anonymous": false,
      "inputs": [
        {
          "indexed": false,
          "internalType": "address",
          "name": "jewelerAddress",
          "type": "address"
        },
        {
          "indexed": false,
          "internalType": "uint256",
          "name": "timestamp",
          "type": "uint256"
        }
      ],
      "name": "jewelerUpdated",
      "type": "event"
    },
    {
      "inputs": [],
      "name": "ADMIN",
      "outputs": [
        {
          "internalType": "bytes32",
          "name": "",
          "type": "bytes32"
        }
      ],
      "stateMutability": "view",
      "type": "function"
    },
    {
      "inputs": [],
      "name": "CERTIFICATOR_ROLE",
      "outputs": [
        {
          "internalType": "bytes32",
          "name": "",
          "type": "bytes32"
        }
      ],
      "stateMutability": "view",
      "type": "function"
    },
    {
      "inputs": [],
      "name": "CUSTOMERS_ROLE",
      "outputs": [
        {
          "internalType": "bytes32",
          "name": "",
          "type": "bytes32"
        }
      ],
      "stateMutability": "view",
      "type": "function"
    },
    {
      "inputs": [],
      "name": "DEFAULT_ADMIN_ROLE",
      "outputs": [
        {
          "internalType": "bytes32",
          "name": "",
          "type": "bytes32"
        }
      ],
      "stateMutability": "view",
      "type": "function"
    },
    {
      "inputs": [],
      "name": "FALSE",
      "outputs": [
        {
          "internalType": "bool",
          "name": "",
          "type": "bool"
        }
      ],
      "stateMutability": "view",
      "type": "function"
    },
    {
      "inputs": [],
      "name": "JEWELERS_ROLE",
      "outputs": [
        {
          "internalType": "bytes32",
          "name": "",
          "type": "bytes32"
        }
      ],
      "stateMutability": "view",
      "type": "function"
    },
    {
      "inputs": [],
      "name": "TRUE",
      "outputs": [
        {
          "internalType": "bool",
          "name": "",
          "type": "bool"
        }
      ],
      "stateMutability": "view",
      "type": "function"
    },
    {
      "inputs": [
        {
          "internalType": "address",
          "name": "_jewelerAddress",
          "type": "address"
        }
      ],
      "name": "activateJeweler",
      "outputs": [
        {
          "internalType": "bool",
          "name": "",
          "type": "bool"
        }
      ],
      "stateMutability": "nonpayable",
      "type": "function"
    },
    {
      "inputs": [],
      "name": "admin",
      "outputs": [
        {
          "internalType": "address",
          "name": "",
          "type": "address"
        }
      ],
      "stateMutability": "view",
      "type": "function"
    },
    {
      "inputs": [
        {
          "internalType": "address",
          "name": "to",
          "type": "address"
        },
        {
          "internalType": "uint256",
          "name": "tokenId",
          "type": "uint256"
        }
      ],
      "name": "approve",
      "outputs": [],
      "stateMutability": "nonpayable",
      "type": "function"
    },
    {
      "inputs": [
        {
          "internalType": "address",
          "name": "owner",
          "type": "address"
        }
      ],
      "name": "balanceOf",
      "outputs": [
        {
          "internalType": "uint256",
          "name": "",
          "type": "uint256"
        }
      ],
      "stateMutability": "view",
      "type": "function"
    },
    {
      "inputs": [
        {
          "internalType": "uint8[]",
          "name": "_materials",
          "type": "uint8[]"
        },
        {
          "internalType": "uint8[]",
          "name": "_gemStones",
          "type": "uint8[]"
        },
        {
          "internalType": "uint8",
          "name": "_weightInGrams",
          "type": "uint8"
        },
        {
          "internalType": "string",
          "name": "_mainColor",
          "type": "string"
        },
        {
          "internalType": "enum IDataStorage.CertificateLevel",
          "name": "_level",
          "type": "uint8"
        },
        {
          "internalType": "string",
          "name": "_JewelerName",
          "type": "string"
        },
        {
          "internalType": "enum IDataStorage.CertificateStatus",
          "name": "_status",
          "type": "uint8"
        }
      ],
      "name": "createCertificate",
      "outputs": [
        {
          "internalType": "bool",
          "name": "",
          "type": "bool"
        }
      ],
      "stateMutability": "nonpayable",
      "type": "function"
    },
    {
      "inputs": [
        {
          "internalType": "string",
          "name": "_name",
          "type": "string"
        },
        {
          "internalType": "string",
          "name": "_email",
          "type": "string"
        },
        {
          "internalType": "string",
          "name": "_location",
          "type": "string"
        }
      ],
      "name": "createCustomer",
      "outputs": [
        {
          "internalType": "bool",
          "name": "",
          "type": "bool"
        }
      ],
      "stateMutability": "nonpayable",
      "type": "function"
    },
    {
      "inputs": [
        {
          "internalType": "string",
          "name": "_name",
          "type": "string"
        },
        {
          "internalType": "string",
          "name": "_email",
          "type": "string"
        },
        {
          "internalType": "string",
          "name": "_location",
          "type": "string"
        }
      ],
      "name": "createJeweler",
      "outputs": [
        {
          "internalType": "bool",
          "name": "",
          "type": "bool"
        }
      ],
      "stateMutability": "nonpayable",
      "type": "function"
    },
    {
      "inputs": [
        {
          "internalType": "address",
          "name": "_jewelerAddress",
          "type": "address"
        }
      ],
      "name": "desactivateJeweler",
      "outputs": [
        {
          "internalType": "bool",
          "name": "",
          "type": "bool"
        }
      ],
      "stateMutability": "nonpayable",
      "type": "function"
    },
    {
      "inputs": [
        {
          "internalType": "uint256",
          "name": "tokenId",
          "type": "uint256"
        }
      ],
      "name": "getApproved",
      "outputs": [
        {
          "internalType": "address",
          "name": "",
          "type": "address"
        }
      ],
      "stateMutability": "view",
      "type": "function"
    },
    {
      "inputs": [],
      "name": "getCustomerCount",
      "outputs": [
        {
          "internalType": "uint256",
          "name": "",
          "type": "uint256"
        }
      ],
      "stateMutability": "view",
      "type": "function"
    },
    {
      "inputs": [],
      "name": "getJewelerCount",
      "outputs": [
        {
          "internalType": "uint256",
          "name": "",
          "type": "uint256"
        }
      ],
      "stateMutability": "view",
      "type": "function"
    },
    {
      "inputs": [
        {
          "internalType": "address",
          "name": "_customerAddress",
          "type": "address"
        }
      ],
      "name": "getOneCustomer",
      "outputs": [
        {
          "components": [
            {
              "internalType": "uint256",
              "name": "created_at",
              "type": "uint256"
            },
            {
              "internalType": "uint256",
              "name": "updated_at",
              "type": "uint256"
            },
            {
              "internalType": "string",
              "name": "name",
              "type": "string"
            },
            {
              "internalType": "string",
              "name": "email",
              "type": "string"
            },
            {
              "internalType": "string",
              "name": "location",
              "type": "string"
            },
            {
              "internalType": "bool",
              "name": "visible",
              "type": "bool"
            },
            {
              "internalType": "uint256[]",
              "name": "OwnedCertificateIds",
              "type": "uint256[]"
            }
          ],
          "internalType": "struct IDataStorage.Customer",
          "name": "",
          "type": "tuple"
        }
      ],
      "stateMutability": "view",
      "type": "function"
    },
    {
      "inputs": [
        {
          "internalType": "address",
          "name": "_jewelerAddress",
          "type": "address"
        }
      ],
      "name": "getOneJeweler",
      "outputs": [
        {
          "components": [
            {
              "internalType": "uint256",
              "name": "created_at",
              "type": "uint256"
            },
            {
              "internalType": "uint256",
              "name": "updated_at",
              "type": "uint256"
            },
            {
              "internalType": "string",
              "name": "name",
              "type": "string"
            },
            {
              "internalType": "string",
              "name": "email",
              "type": "string"
            },
            {
              "internalType": "string",
              "name": "location",
              "type": "string"
            },
            {
              "internalType": "uint256[]",
              "name": "CreatedCertificateIds",
              "type": "uint256[]"
            },
            {
              "internalType": "bool",
              "name": "available",
              "type": "bool"
            },
            {
              "internalType": "bool",
              "name": "visible",
              "type": "bool"
            }
          ],
          "internalType": "struct IDataStorage.Jeweler",
          "name": "",
          "type": "tuple"
        }
      ],
      "stateMutability": "view",
      "type": "function"
    },
    {
      "inputs": [
        {
          "internalType": "bytes32",
          "name": "role",
          "type": "bytes32"
        }
      ],
      "name": "getRoleAdmin",
      "outputs": [
        {
          "internalType": "bytes32",
          "name": "",
          "type": "bytes32"
        }
      ],
      "stateMutability": "view",
      "type": "function"
    },
    {
      "inputs": [
        {
          "internalType": "bytes32",
          "name": "role",
          "type": "bytes32"
        },
        {
          "internalType": "address",
          "name": "account",
          "type": "address"
        }
      ],
      "name": "grantRole",
      "outputs": [],
      "stateMutability": "nonpayable",
      "type": "function"
    },
    {
      "inputs": [
        {
          "internalType": "bytes32",
          "name": "role",
          "type": "bytes32"
        },
        {
          "internalType": "address",
          "name": "account",
          "type": "address"
        }
      ],
      "name": "hasRole",
      "outputs": [
        {
          "internalType": "bool",
          "name": "",
          "type": "bool"
        }
      ],
      "stateMutability": "view",
      "type": "function"
    },
    {
      "inputs": [
        {
          "internalType": "address",
          "name": "owner",
          "type": "address"
        },
        {
          "internalType": "address",
          "name": "operator",
          "type": "address"
        }
      ],
      "name": "isApprovedForAll",
      "outputs": [
        {
          "internalType": "bool",
          "name": "",
          "type": "bool"
        }
      ],
      "stateMutability": "view",
      "type": "function"
    },
    {
      "inputs": [],
      "name": "name",
      "outputs": [
        {
          "internalType": "string",
          "name": "",
          "type": "string"
        }
      ],
      "stateMutability": "view",
      "type": "function"
    },
    {
      "inputs": [
        {
          "internalType": "uint256",
          "name": "tokenId",
          "type": "uint256"
        }
      ],
      "name": "ownerOf",
      "outputs": [
        {
          "internalType": "address",
          "name": "",
          "type": "address"
        }
      ],
      "stateMutability": "view",
      "type": "function"
    },
    {
      "inputs": [
        {
          "internalType": "bytes32",
          "name": "role",
          "type": "bytes32"
        },
        {
          "internalType": "address",
          "name": "callerConfirmation",
          "type": "address"
        }
      ],
      "name": "renounceRole",
      "outputs": [],
      "stateMutability": "nonpayable",
      "type": "function"
    },
    {
      "inputs": [
        {
          "internalType": "bytes32",
          "name": "role",
          "type": "bytes32"
        },
        {
          "internalType": "address",
          "name": "account",
          "type": "address"
        }
      ],
      "name": "revokeRole",
      "outputs": [],
      "stateMutability": "nonpayable",
      "type": "function"
    },
    {
      "inputs": [
        {
          "internalType": "address",
          "name": "to",
          "type": "address"
        }
      ],
      "name": "safeMint",
      "outputs": [
        {
          "internalType": "uint256",
          "name": "",
          "type": "uint256"
        }
      ],
      "stateMutability": "nonpayable",
      "type": "function"
    },
    {
      "inputs": [
        {
          "internalType": "address",
          "name": "from",
          "type": "address"
        },
        {
          "internalType": "address",
          "name": "to",
          "type": "address"
        },
        {
          "internalType": "uint256",
          "name": "tokenId",
          "type": "uint256"
        }
      ],
      "name": "safeTransferFrom",
      "outputs": [],
      "stateMutability": "nonpayable",
      "type": "function"
    },
    {
      "inputs": [
        {
          "internalType": "address",
          "name": "from",
          "type": "address"
        },
        {
          "internalType": "address",
          "name": "to",
          "type": "address"
        },
        {
          "internalType": "uint256",
          "name": "tokenId",
          "type": "uint256"
        },
        {
          "internalType": "bytes",
          "name": "data",
          "type": "bytes"
        }
      ],
      "name": "safeTransferFrom",
      "outputs": [],
      "stateMutability": "nonpayable",
      "type": "function"
    },
    {
      "inputs": [
        {
          "internalType": "address",
          "name": "operator",
          "type": "address"
        },
        {
          "internalType": "bool",
          "name": "approved",
          "type": "bool"
        }
      ],
      "name": "setApprovalForAll",
      "outputs": [],
      "stateMutability": "nonpayable",
      "type": "function"
    },
    {
      "inputs": [
        {
          "internalType": "bytes4",
          "name": "interfaceId",
          "type": "bytes4"
        }
      ],
      "name": "supportsInterface",
      "outputs": [
        {
          "internalType": "bool",
          "name": "",
          "type": "bool"
        }
      ],
      "stateMutability": "view",
      "type": "function"
    },
    {
      "inputs": [],
      "name": "symbol",
      "outputs": [
        {
          "internalType": "string",
          "name": "",
          "type": "string"
        }
      ],
      "stateMutability": "view",
      "type": "function"
    },
    {
      "inputs": [
        {
          "internalType": "uint256",
          "name": "tokenId",
          "type": "uint256"
        }
      ],
      "name": "tokenURI",
      "outputs": [
        {
          "internalType": "string",
          "name": "",
          "type": "string"
        }
      ],
      "stateMutability": "view",
      "type": "function"
    },
    {
      "inputs": [
        {
          "internalType": "address",
          "name": "_to",
          "type": "address"
        },
        {
          "internalType": "uint256",
          "name": "_tokenId",
          "type": "uint256"
        }
      ],
      "name": "transertCertificate",
      "outputs": [
        {
          "internalType": "bool",
          "name": "",
          "type": "bool"
        }
      ],
      "stateMutability": "nonpayable",
      "type": "function"
    },
    {
      "inputs": [
        {
          "internalType": "address",
          "name": "from",
          "type": "address"
        },
        {
          "internalType": "address",
          "name": "to",
          "type": "address"
        },
        {
          "internalType": "uint256",
          "name": "tokenId",
          "type": "uint256"
        }
      ],
      "name": "transferFrom",
      "outputs": [],
      "stateMutability": "nonpayable",
      "type": "function"
    },
    {
      "inputs": [],
      "name": "updateCertificate",
      "outputs": [
        {
          "internalType": "bool",
          "name": "",
          "type": "bool"
        }
      ],
      "stateMutability": "nonpayable",
      "type": "function"
    },
    {
      "inputs": [
        {
          "internalType": "string",
          "name": "_name",
          "type": "string"
        },
        {
          "internalType": "string",
          "name": "_email",
          "type": "string"
        },
        {
          "internalType": "string",
          "name": "_location",
          "type": "string"
        },
        {
          "internalType": "bool",
          "name": "_visible",
          "type": "bool"
        }
      ],
      "name": "updateCustomer",
      "outputs": [
        {
          "internalType": "bool",
          "name": "",
          "type": "bool"
        }
      ],
      "stateMutability": "nonpayable",
      "type": "function"
    },
    {
      "inputs": [
        {
          "internalType": "string",
          "name": "_name",
          "type": "string"
        },
        {
          "internalType": "string",
          "name": "_email",
          "type": "string"
        },
        {
          "internalType": "string",
          "name": "_location",
          "type": "string"
        },
        {
          "internalType": "bool",
          "name": "_visible",
          "type": "bool"
        }
      ],
      "name": "updateJeweler",
      "outputs": [
        {
          "internalType": "bool",
          "name": "",
          "type": "bool"
        }
      ],
      "stateMutability": "nonpayable",
      "type": "function"
    }
  ],
  "bytecode": "0x608060405234801561001057600080fd5b50604051615f95380380615f9583398181016040528101906100329190610371565b6040518060400160405280600f81526020017f476f6c64436861696e45524337323100000000000000000000000000000000008152506040518060400160405280600281526020017f474300000000000000000000000000000000000000000000000000000000000081525081600190816100ad91906105ee565b5080600290816100bd91906105ee565b5050506100d36000801b3361018d60201b60201c565b506101047fdf8b4c520ffe197c5343c6f5aec59570151ef9a492f2c624fd45ddde6135ec423361018d60201b60201c565b5033600960006101000a81548173ffffffffffffffffffffffffffffffffffffffff021916908373ffffffffffffffffffffffffffffffffffffffff16021790555080600860006101000a81548173ffffffffffffffffffffffffffffffffffffffff021916908373ffffffffffffffffffffffffffffffffffffffff160217905550506106c0565b600061019f838361028a60201b60201c565b61027f57600160008085815260200190815260200160002060000160008473ffffffffffffffffffffffffffffffffffffffff1673ffffffffffffffffffffffffffffffffffffffff16815260200190815260200160002060006101000a81548160ff02191690831515021790555061021c6102f460201b60201c565b73ffffffffffffffffffffffffffffffffffffffff168273ffffffffffffffffffffffffffffffffffffffff16847f2f8788117e7eff1d82e926ec794901d17c78024a50270940304540a733656f0d60405160405180910390a460019050610284565b600090505b92915050565b600080600084815260200190815260200160002060000160008373ffffffffffffffffffffffffffffffffffffffff1673ffffffffffffffffffffffffffffffffffffffff16815260200190815260200160002060009054906101000a900460ff16905092915050565b600033905090565b600080fd5b600073ffffffffffffffffffffffffffffffffffffffff82169050919050565b600061032c82610301565b9050919050565b600061033e82610321565b9050919050565b61034e81610333565b811461035957600080fd5b50565b60008151905061036b81610345565b92915050565b600060208284031215610387576103866102fc565b5b60006103958482850161035c565b91505092915050565b600081519050919050565b7f4e487b7100000000000000000000000000000000000000000000000000000000600052604160045260246000fd5b7f4e487b7100000000000000000000000000000000000000000000000000000000600052602260045260246000fd5b6000600282049050600182168061041f57607f821691505b602082108103610432576104316103d8565b5b50919050565b60008190508160005260206000209050919050565b60006020601f8301049050919050565b600082821b905092915050565b60006008830261049a7fffffffffffffffffffffffffffffffffffffffffffffffffffffffffffffffff8261045d565b6104a4868361045d565b95508019841693508086168417925050509392505050565b6000819050919050565b6000819050919050565b60006104eb6104e66104e1846104bc565b6104c6565b6104bc565b9050919050565b6000819050919050565b610505836104d0565b610519610511826104f2565b84845461046a565b825550505050565b600090565b61052e610521565b6105398184846104fc565b505050565b5b8181101561055d57610552600082610526565b60018101905061053f565b5050565b601f8211156105a25761057381610438565b61057c8461044d565b8101602085101561058b578190505b61059f6105978561044d565b83018261053e565b50505b505050565b600082821c905092915050565b60006105c5600019846008026105a7565b1980831691505092915050565b60006105de83836105b4565b9150826002028217905092915050565b6105f78261039e565b67ffffffffffffffff8111156106105761060f6103a9565b5b61061a8254610407565b610625828285610561565b600060209050601f8311600181146106585760008415610646578287015190505b61065085826105d2565b8655506106b8565b601f19841661066686610438565b60005b8281101561068e57848901518255600182019150602085019450602081019050610669565b868310156106ab57848901516106a7601f8916826105b4565b8355505b6001600288020188555050505b505050505050565b6158c6806106cf6000396000f3fe608060405234801561001057600080fd5b50600436106102485760003560e01c806355ed5fe81161013b578063a217fddf116100b8578063d547741f1161007c578063d547741f14610779578063e985e9c514610795578063ee7bf0ee146107c5578063f2e0bc58146107f5578063f851a4401461082557610248565b8063a217fddf146106c3578063a22cb465146106e1578063a5ddd288146106fd578063b88d4fde1461072d578063c87b56dd1461074957610248565b8063899f9d0d116100ff578063899f9d0d1461061b5780638c2717771461063957806391d1485414610657578063934b4af21461068757806395d89b41146106a557610248565b806355ed5fe81461053d57806357a00ccf1461056d5780635994d9841461059d5780636352211e146105bb57806370a08231146105eb57610248565b806329acc209116101c957806340d097c31161018d57806340d097c31461047357806341cc7c73146104a357806342842e0e146104d35780634ff7986e146104ef57806355b059e81461050d57610248565b806329acc209146103bd5780632a0acc6a146103ed5780632b3dd38b1461040b5780632f2ff15d1461043b57806336568abe1461045757610248565b80630cdb5cb5116102105780630cdb5cb5146103175780632027d7461461033557806322f537ce1461035357806323b872dd14610371578063248a9ca31461038d57610248565b806301ffc9a71461024d57806306fdde031461027d578063081812fc1461029b578063081ba2d5146102cb578063095ea7b3146102fb575b600080fd5b61026760048036038101906102629190613581565b610843565b60405161027491906135c9565b60405180910390f35b610285610855565b6040516102929190613674565b60405180910390f35b6102b560048036038101906102b091906136cc565b6108e7565b6040516102c2919061373a565b60405180910390f35b6102e560048036038101906102e09190613781565b610903565b6040516102f291906135c9565b60405180910390f35b610315600480360381019061031091906137ae565b610a11565b005b61031f610a27565b60405161032c9190613807565b60405180910390f35b61033d610a4b565b60405161034a9190613831565b60405180910390f35b61035b610ae3565b6040516103689190613807565b60405180910390f35b61038b6004803603810190610386919061384c565b610b07565b005b6103a760048036038101906103a291906138cb565b610c09565b6040516103b49190613807565b60405180910390f35b6103d760048036038101906103d29190613781565b610c28565b6040516103e491906135c9565b60405180910390f35b6103f5610d36565b6040516104029190613807565b60405180910390f35b61042560048036038101906104209190613989565b610d5a565b60405161043291906135c9565b60405180910390f35b61045560048036038101906104509190613a52565b610e7c565b005b610471600480360381019061046c9190613a52565b610e9e565b005b61048d60048036038101906104889190613781565b610f19565b60405161049a9190613831565b60405180910390f35b6104bd60048036038101906104b89190613b6b565b610f48565b6040516104ca91906135c9565b60405180910390f35b6104ed60048036038101906104e8919061384c565b611047565b005b6104f7611067565b60405161050491906135c9565b60405180910390f35b61052760048036038101906105229190613c8f565b61106c565b60405161053491906135c9565b60405180910390f35b61055760048036038101906105529190613c8f565b6111ef565b60405161056491906135c9565b60405180910390f35b61058760048036038101906105829190613781565b611375565b6040516105949190613f1f565b60405180910390f35b6105a5611425565b6040516105b291906135c9565b60405180910390f35b6105d560048036038101906105d091906136cc565b61142a565b6040516105e2919061373a565b60405180910390f35b61060560048036038101906106009190613781565b61143c565b6040516106129190613831565b60405180910390f35b6106236114f6565b60405161063091906135c9565b60405180910390f35b6106416114ff565b60405161064e9190613831565b60405180910390f35b610671600480360381019061066c9190613a52565b611597565b60405161067e91906135c9565b60405180910390f35b61068f611601565b60405161069c9190613807565b60405180910390f35b6106ad611625565b6040516106ba9190613674565b60405180910390f35b6106cb6116b7565b6040516106d89190613807565b60405180910390f35b6106fb60048036038101906106f69190613f41565b6116be565b005b610717600480360381019061071291906137ae565b6116d4565b60405161072491906135c9565b60405180910390f35b610747600480360381019061074291906140b1565b6116eb565b005b610763600480360381019061075e91906136cc565b611710565b6040516107709190613674565b60405180910390f35b610793600480360381019061078e9190613a52565b611847565b005b6107af60048036038101906107aa9190614134565b611869565b6040516107bc91906135c9565b60405180910390f35b6107df60048036038101906107da9190613781565b6118fd565b6040516107ec9190614225565b60405180910390f35b61080f600480360381019061080a9190613989565b6119ad565b60405161081c91906135c9565b60405180910390f35b61082d611acf565b60405161083a919061373a565b60405180910390f35b600061084e82611af5565b9050919050565b60606001805461086490614276565b80601f016020809104026020016040519081016040528092919081815260200182805461089090614276565b80156108dd5780601f106108b2576101008083540402835291602001916108dd565b820191906000526020600020905b8154815290600101906020018083116108c057829003601f168201915b5050505050905090565b60006108f282611b07565b506108fc82611b8f565b9050919050565b60007fdf8b4c520ffe197c5343c6f5aec59570151ef9a492f2c624fd45ddde6135ec4261092f81611bcc565b600860009054906101000a900473ffffffffffffffffffffffffffffffffffffffff1673ffffffffffffffffffffffffffffffffffffffff1663081ba2d5846040518263ffffffff1660e01b815260040161098a919061373a565b6020604051808303816000875af11580156109a9573d6000803e3d6000fd5b505050506040513d601f19601f820116820180604052508101906109cd91906142bc565b507f188d8ca5695483231734d1734924f73ab34848f997f2de827c8f73033b4614ae83426040516109ff9291906142e9565b60405180910390a16001915050919050565b610a238282610a1e611be0565b611be8565b5050565b7f61e6a4bb6bca8aa1f17c71895c1ab1bf9c06c812442a0a16aad9f0837c23ca7981565b6000600860009054906101000a900473ffffffffffffffffffffffffffffffffffffffff1673ffffffffffffffffffffffffffffffffffffffff16632027d7466040518163ffffffff1660e01b8152600401602060405180830381865afa158015610aba573d6000803e3d6000fd5b505050506040513d601f19601f82011682018060405250810190610ade9190614327565b905090565b7faf6786efc154b345802554f1dea27e60ea4c3393b6b38eb8438e22c20e088bd281565b600073ffffffffffffffffffffffffffffffffffffffff168273ffffffffffffffffffffffffffffffffffffffff1603610b795760006040517f64a0ae92000000000000000000000000000000000000000000000000000000008152600401610b70919061373a565b60405180910390fd5b6000610b8d8383610b88611be0565b611bfa565b90508373ffffffffffffffffffffffffffffffffffffffff168173ffffffffffffffffffffffffffffffffffffffff1614610c03578382826040517f64283d7b000000000000000000000000000000000000000000000000000000008152600401610bfa93929190614354565b60405180910390fd5b50505050565b6000806000838152602001908152602001600020600101549050919050565b60007fdf8b4c520ffe197c5343c6f5aec59570151ef9a492f2c624fd45ddde6135ec42610c5481611bcc565b600860009054906101000a900473ffffffffffffffffffffffffffffffffffffffff1673ffffffffffffffffffffffffffffffffffffffff166329acc209846040518263ffffffff1660e01b8152600401610caf919061373a565b6020604051808303816000875af1158015610cce573d6000803e3d6000fd5b505050506040513d601f19601f82011682018060405250810190610cf291906142bc565b507f449422d37ad477a115e35ded9d4971e6ed3594f45df1408f1eb2320a8bc5c2b88342604051610d249291906142e9565b60405180910390a16001915050919050565b7fdf8b4c520ffe197c5343c6f5aec59570151ef9a492f2c624fd45ddde6135ec4281565b60007f61e6a4bb6bca8aa1f17c71895c1ab1bf9c06c812442a0a16aad9f0837c23ca79610d8681611bcc565b600860009054906101000a900473ffffffffffffffffffffffffffffffffffffffff1673ffffffffffffffffffffffffffffffffffffffff1663a735e5de338b8b8b8b8b8b8b6040518963ffffffff1660e01b8152600401610def9897969594939291906143b8565b6020604051808303816000875af1158015610e0e573d6000803e3d6000fd5b505050506040513d601f19601f82011682018060405250810190610e3291906142bc565b507fc21195a7f73acb0112d9942f6c5c02acc3d8d2c74ab81a6c28f4f492dac933b83342604051610e649291906142e9565b60405180910390a16001915050979650505050505050565b610e8582610c09565b610e8e81611bcc565b610e988383611c10565b50505050565b610ea6611be0565b73ffffffffffffffffffffffffffffffffffffffff168173ffffffffffffffffffffffffffffffffffffffff1614610f0a576040517f6697b23200000000000000000000000000000000000000000000000000000000815260040160405180910390fd5b610f148282611d01565b505050565b60008060076000815480929190610f2f90614455565b919050559050610f3f8382611df3565b80915050919050565b60007f61e6a4bb6bca8aa1f17c71895c1ab1bf9c06c812442a0a16aad9f0837c23ca79610f7481611bcc565b600860009054906101000a900473ffffffffffffffffffffffffffffffffffffffff1673ffffffffffffffffffffffffffffffffffffffff166364df69e78e8e8e8e8e8e8e8e8e8e8e6040518c63ffffffff1660e01b8152600401610fe39b9a9998979695949392919061462e565b6020604051808303816000875af1158015611002573d6000803e3d6000fd5b505050506040513d601f19601f8201168201806040525081019061102691906142bc565b5061103333600754611df3565b60019150509b9a5050505050505050505050565b611062838383604051806020016040528060008152506116eb565b505050565b600081565b60006110987faf6786efc154b345802554f1dea27e60ea4c3393b6b38eb8438e22c20e088bd233611597565b156110cf576040517f937df23900000000000000000000000000000000000000000000000000000000815260040160405180910390fd5b6110f97faf6786efc154b345802554f1dea27e60ea4c3393b6b38eb8438e22c20e088bd233611c10565b50600860009054906101000a900473ffffffffffffffffffffffffffffffffffffffff1673ffffffffffffffffffffffffffffffffffffffff16630f6a35403389898989898960016040518963ffffffff1660e01b81526004016111649897969594939291906143b8565b6020604051808303816000875af1158015611183573d6000803e3d6000fd5b505050506040513d601f19601f820116820180604052508101906111a791906142bc565b507f9355f2ba77852e61793679ff03cf26231b8175fdfb97dc47490f1b151e6ab0d433426040516111d99291906142e9565b60405180910390a1600190509695505050505050565b600061121b7f61e6a4bb6bca8aa1f17c71895c1ab1bf9c06c812442a0a16aad9f0837c23ca7933611597565b15611252576040517f9e5ae09300000000000000000000000000000000000000000000000000000000815260040160405180910390fd5b61127c7f61e6a4bb6bca8aa1f17c71895c1ab1bf9c06c812442a0a16aad9f0837c23ca7933611c10565b50600860009054906101000a900473ffffffffffffffffffffffffffffffffffffffff1673ffffffffffffffffffffffffffffffffffffffff16637208ca1933898989898989600060016040518a63ffffffff1660e01b81526004016112ea999897969594939291906146c1565b6020604051808303816000875af1158015611309573d6000803e3d6000fd5b505050506040513d601f19601f8201168201806040525081019061132d91906142bc565b507fa12abd8201760a4e094635a878d94e4e31ee41204057e1ba4081b4c8ba7df8a8334260405161135f9291906142e9565b60405180910390a1600190509695505050505050565b61137d61348d565b600860009054906101000a900473ffffffffffffffffffffffffffffffffffffffff1673ffffffffffffffffffffffffffffffffffffffff166357a00ccf836040518263ffffffff1660e01b81526004016113d8919061373a565b600060405180830381865afa1580156113f5573d6000803e3d6000fd5b505050506040513d6000823e3d601f19601f8201168201806040525081019061141e91906149e5565b9050919050565b600181565b600061143582611b07565b9050919050565b60008073ffffffffffffffffffffffffffffffffffffffff168273ffffffffffffffffffffffffffffffffffffffff16036114af5760006040517f89c62b640000000000000000000000000000000000000000000000000000000081526004016114a6919061373a565b60405180910390fd5b600460008373ffffffffffffffffffffffffffffffffffffffff1673ffffffffffffffffffffffffffffffffffffffff168152602001908152602001600020549050919050565b60006001905090565b6000600860009054906101000a900473ffffffffffffffffffffffffffffffffffffffff1673ffffffffffffffffffffffffffffffffffffffff16638c2717776040518163ffffffff1660e01b8152600401602060405180830381865afa15801561156e573d6000803e3d6000fd5b505050506040513d601f19601f820116820180604052508101906115929190614327565b905090565b600080600084815260200190815260200160002060000160008373ffffffffffffffffffffffffffffffffffffffff1673ffffffffffffffffffffffffffffffffffffffff16815260200190815260200160002060009054906101000a900460ff16905092915050565b7f8c6ae1b8cac4c99ac9b51ba2b44ec85e94139863fa8d7f1ab8f7e39763b3db4e81565b60606002805461163490614276565b80601f016020809104026020016040519081016040528092919081815260200182805461166090614276565b80156116ad5780601f10611682576101008083540402835291602001916116ad565b820191906000526020600020905b81548152906001019060200180831161169057829003601f168201915b5050505050905090565b6000801b81565b6116d06116c9611be0565b8383611e11565b5050565b60006116e1338484611f80565b6001905092915050565b6116f6848484610b07565b61170a611701611be0565b858585856120ed565b50505050565b6060600754821061174d576040517fceea21b600000000000000000000000000000000000000000000000000000000815260040160405180910390fd5b6040518060400160405280601d81526020017f646174613a6170706c69636174696f6e2f6a736f6e3b6261736536342c000000815250611820604051806060016040528060258152602001615811602591396117a88561229e565b6117b18661236c565b6117c26117bd88612579565b6128ce565b6040518060400160405280600281526020017f227d00000000000000000000000000000000000000000000000000000000000081525060405160200161180c959493929190614a6a565b6040516020818303038152906040526128ce565b604051602001611831929190614ab5565b6040516020818303038152906040529050919050565b61185082610c09565b61185981611bcc565b6118638383611d01565b50505050565b6000600660008473ffffffffffffffffffffffffffffffffffffffff1673ffffffffffffffffffffffffffffffffffffffff16815260200190815260200160002060008373ffffffffffffffffffffffffffffffffffffffff1673ffffffffffffffffffffffffffffffffffffffff16815260200190815260200160002060009054906101000a900460ff16905092915050565b6119056134d6565b600860009054906101000a900473ffffffffffffffffffffffffffffffffffffffff1673ffffffffffffffffffffffffffffffffffffffff1663ee7bf0ee836040518263ffffffff1660e01b8152600401611960919061373a565b600060405180830381865afa15801561197d573d6000803e3d6000fd5b505050506040513d6000823e3d601f19601f820116820180604052508101906119a69190614bfd565b9050919050565b60007faf6786efc154b345802554f1dea27e60ea4c3393b6b38eb8438e22c20e088bd26119d981611bcc565b600860009054906101000a900473ffffffffffffffffffffffffffffffffffffffff1673ffffffffffffffffffffffffffffffffffffffff1663dfd49f25338b8b8b8b8b8b8b6040518963ffffffff1660e01b8152600401611a429897969594939291906143b8565b6020604051808303816000875af1158015611a61573d6000803e3d6000fd5b505050506040513d601f19601f82011682018060405250810190611a8591906142bc565b507f3e981d6fd4c5bd91ef3f68ca28a36322130d52221ab7319ae700e4c417dcc8e33342604051611ab79291906142e9565b60405180910390a16001915050979650505050505050565b600960009054906101000a900473ffffffffffffffffffffffffffffffffffffffff1681565b6000611b0082612a65565b9050919050565b600080611b1383612b47565b9050600073ffffffffffffffffffffffffffffffffffffffff168173ffffffffffffffffffffffffffffffffffffffff1603611b8657826040517f7e273289000000000000000000000000000000000000000000000000000000008152600401611b7d9190613831565b60405180910390fd5b80915050919050565b60006005600083815260200190815260200160002060009054906101000a900473ffffffffffffffffffffffffffffffffffffffff169050919050565b611bdd81611bd8611be0565b612b84565b50565b600033905090565b611bf58383836001612bd5565b505050565b6000611c07848484612d9a565b90509392505050565b6000611c1c8383611597565b611cf657600160008085815260200190815260200160002060000160008473ffffffffffffffffffffffffffffffffffffffff1673ffffffffffffffffffffffffffffffffffffffff16815260200190815260200160002060006101000a81548160ff021916908315150217905550611c93611be0565b73ffffffffffffffffffffffffffffffffffffffff168273ffffffffffffffffffffffffffffffffffffffff16847f2f8788117e7eff1d82e926ec794901d17c78024a50270940304540a733656f0d60405160405180910390a460019050611cfb565b600090505b92915050565b6000611d0d8383611597565b15611de857600080600085815260200190815260200160002060000160008473ffffffffffffffffffffffffffffffffffffffff1673ffffffffffffffffffffffffffffffffffffffff16815260200190815260200160002060006101000a81548160ff021916908315150217905550611d85611be0565b73ffffffffffffffffffffffffffffffffffffffff168273ffffffffffffffffffffffffffffffffffffffff16847ff6391f5c32d9c69d2a47ea670b442974b53935d1edc7fd64eb21e047a839171b60405160405180910390a460019050611ded565b600090505b92915050565b611e0d828260405180602001604052806000815250612fb4565b5050565b600073ffffffffffffffffffffffffffffffffffffffff168273ffffffffffffffffffffffffffffffffffffffff1603611e8257816040517f5b08ba18000000000000000000000000000000000000000000000000000000008152600401611e79919061373a565b60405180910390fd5b80600660008573ffffffffffffffffffffffffffffffffffffffff1673ffffffffffffffffffffffffffffffffffffffff16815260200190815260200160002060008473ffffffffffffffffffffffffffffffffffffffff1673ffffffffffffffffffffffffffffffffffffffff16815260200190815260200160002060006101000a81548160ff0219169083151502179055508173ffffffffffffffffffffffffffffffffffffffff168373ffffffffffffffffffffffffffffffffffffffff167f17307eab39ab6107e8899845ad3d59bd9653f200f220920489ca2b5937696c3183604051611f7391906135c9565b60405180910390a3505050565b600073ffffffffffffffffffffffffffffffffffffffff168273ffffffffffffffffffffffffffffffffffffffff1603611ff25760006040517f64a0ae92000000000000000000000000000000000000000000000000000000008152600401611fe9919061373a565b60405180910390fd5b600061200083836000611bfa565b9050600073ffffffffffffffffffffffffffffffffffffffff168173ffffffffffffffffffffffffffffffffffffffff160361207357816040517f7e27328900000000000000000000000000000000000000000000000000000000815260040161206a9190613831565b60405180910390fd5b8373ffffffffffffffffffffffffffffffffffffffff168173ffffffffffffffffffffffffffffffffffffffff16146120e7578382826040517f64283d7b0000000000000000000000000000000000000000000000000000000081526004016120de93929190614354565b60405180910390fd5b50505050565b60008373ffffffffffffffffffffffffffffffffffffffff163b1115612297578273ffffffffffffffffffffffffffffffffffffffff1663150b7a02868685856040518563ffffffff1660e01b815260040161214c9493929190614c9b565b6020604051808303816000875af192505050801561218857506040513d601f19601f820116820180604052508101906121859190614cfc565b60015b61220c573d80600081146121b8576040519150601f19603f3d011682016040523d82523d6000602084013e6121bd565b606091505b50600081510361220457836040517f64a0ae920000000000000000000000000000000000000000000000000000000081526004016121fb919061373a565b60405180910390fd5b805181602001fd5b63150b7a0260e01b7bffffffffffffffffffffffffffffffffffffffffffffffffffffffff1916817bffffffffffffffffffffffffffffffffffffffffffffffffffffffff19161461229557836040517f64a0ae9200000000000000000000000000000000000000000000000000000000815260040161228c919061373a565b60405180910390fd5b505b5050505050565b6060600060016122ad84612fd8565b01905060008167ffffffffffffffff8111156122cc576122cb613f86565b5b6040519080825280601f01601f1916602001820160405280156122fe5781602001600182028036833780820191505090505b509050600082602001820190505b600115612361578080600190039150507f3031323334353637383961626364656600000000000000000000000000000000600a86061a8153600a858161235557612354614d29565b5b0494506000850361230c575b819350505050919050565b60606000600860009054906101000a900473ffffffffffffffffffffffffffffffffffffffff1673ffffffffffffffffffffffffffffffffffffffff1663bab859a5846040518263ffffffff1660e01b81526004016123cb9190613831565b600060405180830381865afa1580156123e8573d6000803e3d6000fd5b505050506040513d6000823e3d601f19601f820116820180604052508101906124119190614faa565b905060006040518060600160405280603981526020016153e6603991398260e001516040518060600160405280602b8152602001615601602b9139846040015160008151811061246457612463614ff3565b5b60200260200101516040518060600160405280602c8152602001615865602c9139866060015160008151811061249d5761249c614ff3565b5b60200260200101516040516020016124ba96959493929190615058565b6040516020818303038152906040529050806040518060600160405280602c8152602001615348602c91396124f5846080015160ff1661229e565b6040518060600160405280602881526020016152d3602891398560a001516040518060600160405280602f8152602001615836602f91398760c00151604051806060016040528060288152602001615254602891396040516020016125619897969594939291906150cf565b60405160208183030381529060405292505050919050565b60606000604051602001604051602081830303815290604052905060405180608001604052806057815260200161527c605791396040518060a00160405280606e815260200161549b606e91396040518060a0016040528060798152602001615732607991396040518060400160405280601781526020017f43657274696669636174204e46542064652042696a6f750000000000000000008152506040518060400160405280600781526020017f3c2f746578743e0000000000000000000000000000000000000000000000000081525060405160200161265f959493929190614a6a565b6040516020818303038152906040529050806040518060800160405280605d815260200161562c605d91396040518060800160405280605c8152602001615689605c91396040518060a0016040528060728152602001615374607291396040518060800160405280604d8152602001615574604d91396040516020016126e9959493929190614a6a565b6040516020818303038152906040529050806040518060800160405280604d81526020016152fb604d91396040518060800160405280604d81526020016156e5604d91396040518060a00160405280607c815260200161541f607c91396040518060400160405280600981526020017f476f6c64436861696e0000000000000000000000000000000000000000000000815250604051602001612790959493929190614a6a565b6040516020818303038152906040529050806040518060400160405280600781526020017f3c2f746578743e000000000000000000000000000000000000000000000000008152506040518060a00160405280606b8152602001615509606b91396040518060a00160405280606681526020016157ab6066913960405160200161281d9493929190615145565b6040516020818303038152906040529050806040518060400160405280600781526020017f3c2f746578743e0000000000000000000000000000000000000000000000000081525061286e8561229e565b6040518060400160405280600681526020017f3c2f7376673e00000000000000000000000000000000000000000000000000008152506040516020016128b79493929190615145565b604051602081830303815290604052915050919050565b6060600082519050600081036128f65760405180602001604052806000815250915050612a60565b600060036002836129079190615183565b61291191906151b7565b600461291d91906151e8565b9050600060208261292e9190615183565b67ffffffffffffffff81111561294757612946613f86565b5b6040519080825280601f01601f1916602001820160405280156129795781602001600182028036833780820191505090505b50905060006040518060600160405280604081526020016155c1604091399050600181016020830160005b86811015612a1d5760038101905062ffffff818a015116603f8160121c168401518060081b905060ff603f83600c1c1686015116810190508060081b905060ff603f8360061c1686015116810190508060081b905060ff603f831686015116810190508060e01b905080845260048401935050506129a4565b506003860660018114612a375760028114612a4757612a52565b613d3d60f01b6002830352612a52565b603d60f81b60018303525b508484525050819450505050505b919050565b60007f80ac58cd000000000000000000000000000000000000000000000000000000007bffffffffffffffffffffffffffffffffffffffffffffffffffffffff1916827bffffffffffffffffffffffffffffffffffffffffffffffffffffffff19161480612b3057507f5b5e139f000000000000000000000000000000000000000000000000000000007bffffffffffffffffffffffffffffffffffffffffffffffffffffffff1916827bffffffffffffffffffffffffffffffffffffffffffffffffffffffff1916145b80612b405750612b3f8261312b565b5b9050919050565b60006003600083815260200190815260200160002060009054906101000a900473ffffffffffffffffffffffffffffffffffffffff169050919050565b612b8e8282611597565b612bd15780826040517fe2517d3f000000000000000000000000000000000000000000000000000000008152600401612bc892919061522a565b60405180910390fd5b5050565b8080612c0e5750600073ffffffffffffffffffffffffffffffffffffffff168273ffffffffffffffffffffffffffffffffffffffff1614155b15612d42576000612c1e84611b07565b9050600073ffffffffffffffffffffffffffffffffffffffff168373ffffffffffffffffffffffffffffffffffffffff1614158015612c8957508273ffffffffffffffffffffffffffffffffffffffff168173ffffffffffffffffffffffffffffffffffffffff1614155b8015612c9c5750612c9a8184611869565b155b15612cde57826040517fa9fbf51f000000000000000000000000000000000000000000000000000000008152600401612cd5919061373a565b60405180910390fd5b8115612d4057838573ffffffffffffffffffffffffffffffffffffffff168273ffffffffffffffffffffffffffffffffffffffff167f8c5be1e5ebec7d5bd14f71427d1e84f3dd0314c0f7b2291e5b200ac8c7c3b92560405160405180910390a45b505b836005600085815260200190815260200160002060006101000a81548173ffffffffffffffffffffffffffffffffffffffff021916908373ffffffffffffffffffffffffffffffffffffffff16021790555050505050565b600080612da684612b47565b9050600073ffffffffffffffffffffffffffffffffffffffff168373ffffffffffffffffffffffffffffffffffffffff1614612de857612de78184866131a5565b5b600073ffffffffffffffffffffffffffffffffffffffff168173ffffffffffffffffffffffffffffffffffffffff1614612e7957612e2a600085600080612bd5565b6001600460008373ffffffffffffffffffffffffffffffffffffffff1673ffffffffffffffffffffffffffffffffffffffff168152602001908152602001600020600082825403925050819055505b600073ffffffffffffffffffffffffffffffffffffffff168573ffffffffffffffffffffffffffffffffffffffff1614612efc576001600460008773ffffffffffffffffffffffffffffffffffffffff1673ffffffffffffffffffffffffffffffffffffffff168152602001908152602001600020600082825401925050819055505b846003600086815260200190815260200160002060006101000a81548173ffffffffffffffffffffffffffffffffffffffff021916908373ffffffffffffffffffffffffffffffffffffffff160217905550838573ffffffffffffffffffffffffffffffffffffffff168273ffffffffffffffffffffffffffffffffffffffff167fddf252ad1be2c89b69c2b068fc378daa952ba7f163c4a11628f55a4df523b3ef60405160405180910390a4809150509392505050565b612fbe8383613269565b612fd3612fc9611be0565b60008585856120ed565b505050565b600080600090507a184f03e93ff9f4daa797ed6e38ed64bf6a1f0100000000000000008310613036577a184f03e93ff9f4daa797ed6e38ed64bf6a1f010000000000000000838161302c5761302b614d29565b5b0492506040810190505b6d04ee2d6d415b85acef81000000008310613073576d04ee2d6d415b85acef8100000000838161306957613068614d29565b5b0492506020810190505b662386f26fc1000083106130a257662386f26fc10000838161309857613097614d29565b5b0492506010810190505b6305f5e10083106130cb576305f5e10083816130c1576130c0614d29565b5b0492506008810190505b61271083106130f05761271083816130e6576130e5614d29565b5b0492506004810190505b60648310613113576064838161310957613108614d29565b5b0492506002810190505b600a8310613122576001810190505b80915050919050565b60007f7965db0b000000000000000000000000000000000000000000000000000000007bffffffffffffffffffffffffffffffffffffffffffffffffffffffff1916827bffffffffffffffffffffffffffffffffffffffffffffffffffffffff1916148061319e575061319d82613362565b5b9050919050565b6131b08383836133cc565b61326457600073ffffffffffffffffffffffffffffffffffffffff168373ffffffffffffffffffffffffffffffffffffffff160361322557806040517f7e27328900000000000000000000000000000000000000000000000000000000815260040161321c9190613831565b60405180910390fd5b81816040517f177e802f00000000000000000000000000000000000000000000000000000000815260040161325b9291906142e9565b60405180910390fd5b505050565b600073ffffffffffffffffffffffffffffffffffffffff168273ffffffffffffffffffffffffffffffffffffffff16036132db5760006040517f64a0ae920000000000000000000000000000000000000000000000000000000081526004016132d2919061373a565b60405180910390fd5b60006132e983836000611bfa565b9050600073ffffffffffffffffffffffffffffffffffffffff168173ffffffffffffffffffffffffffffffffffffffff161461335d5760006040517f73c6ac6e000000000000000000000000000000000000000000000000000000008152600401613354919061373a565b60405180910390fd5b505050565b60007f01ffc9a7000000000000000000000000000000000000000000000000000000007bffffffffffffffffffffffffffffffffffffffffffffffffffffffff1916827bffffffffffffffffffffffffffffffffffffffffffffffffffffffff1916149050919050565b60008073ffffffffffffffffffffffffffffffffffffffff168373ffffffffffffffffffffffffffffffffffffffff161415801561348457508273ffffffffffffffffffffffffffffffffffffffff168473ffffffffffffffffffffffffffffffffffffffff16148061344557506134448484611869565b5b8061348357508273ffffffffffffffffffffffffffffffffffffffff1661346b83611b8f565b73ffffffffffffffffffffffffffffffffffffffff16145b5b90509392505050565b6040518061010001604052806000815260200160008152602001606081526020016060815260200160608152602001606081526020016000151581526020016000151581525090565b6040518060e001604052806000815260200160008152602001606081526020016060815260200160608152602001600015158152602001606081525090565b6000604051905090565b600080fd5b600080fd5b60007fffffffff0000000000000000000000000000000000000000000000000000000082169050919050565b61355e81613529565b811461356957600080fd5b50565b60008135905061357b81613555565b92915050565b6000602082840312156135975761359661351f565b5b60006135a58482850161356c565b91505092915050565b60008115159050919050565b6135c3816135ae565b82525050565b60006020820190506135de60008301846135ba565b92915050565b600081519050919050565b600082825260208201905092915050565b60005b8381101561361e578082015181840152602081019050613603565b60008484015250505050565b6000601f19601f8301169050919050565b6000613646826135e4565b61365081856135ef565b9350613660818560208601613600565b6136698161362a565b840191505092915050565b6000602082019050818103600083015261368e818461363b565b905092915050565b6000819050919050565b6136a981613696565b81146136b457600080fd5b50565b6000813590506136c6816136a0565b92915050565b6000602082840312156136e2576136e161351f565b5b60006136f0848285016136b7565b91505092915050565b600073ffffffffffffffffffffffffffffffffffffffff82169050919050565b6000613724826136f9565b9050919050565b61373481613719565b82525050565b600060208201905061374f600083018461372b565b92915050565b61375e81613719565b811461376957600080fd5b50565b60008135905061377b81613755565b92915050565b6000602082840312156137975761379661351f565b5b60006137a58482850161376c565b91505092915050565b600080604083850312156137c5576137c461351f565b5b60006137d38582860161376c565b92505060206137e4858286016136b7565b9150509250929050565b6000819050919050565b613801816137ee565b82525050565b600060208201905061381c60008301846137f8565b92915050565b61382b81613696565b82525050565b60006020820190506138466000830184613822565b92915050565b6000806000606084860312156138655761386461351f565b5b60006138738682870161376c565b93505060206138848682870161376c565b9250506040613895868287016136b7565b9150509250925092565b6138a8816137ee565b81146138b357600080fd5b50565b6000813590506138c58161389f565b92915050565b6000602082840312156138e1576138e061351f565b5b60006138ef848285016138b6565b91505092915050565b600080fd5b600080fd5b600080fd5b60008083601f84011261391d5761391c6138f8565b5b8235905067ffffffffffffffff81111561393a576139396138fd565b5b60208301915083600182028301111561395657613955613902565b5b9250929050565b613966816135ae565b811461397157600080fd5b50565b6000813590506139838161395d565b92915050565b60008060008060008060006080888a0312156139a8576139a761351f565b5b600088013567ffffffffffffffff8111156139c6576139c5613524565b5b6139d28a828b01613907565b9750975050602088013567ffffffffffffffff8111156139f5576139f4613524565b5b613a018a828b01613907565b9550955050604088013567ffffffffffffffff811115613a2457613a23613524565b5b613a308a828b01613907565b93509350506060613a438a828b01613974565b91505092959891949750929550565b60008060408385031215613a6957613a6861351f565b5b6000613a77858286016138b6565b9250506020613a888582860161376c565b9150509250929050565b60008083601f840112613aa857613aa76138f8565b5b8235905067ffffffffffffffff811115613ac557613ac46138fd565b5b602083019150836020820283011115613ae157613ae0613902565b5b9250929050565b600060ff82169050919050565b613afe81613ae8565b8114613b0957600080fd5b50565b600081359050613b1b81613af5565b92915050565b60048110613b2e57600080fd5b50565b600081359050613b4081613b21565b92915050565b60058110613b5357600080fd5b50565b600081359050613b6581613b46565b92915050565b600080600080600080600080600080600060e08c8e031215613b9057613b8f61351f565b5b60008c013567ffffffffffffffff811115613bae57613bad613524565b5b613bba8e828f01613a92565b9b509b505060208c013567ffffffffffffffff811115613bdd57613bdc613524565b5b613be98e828f01613a92565b99509950506040613bfc8e828f01613b0c565b97505060608c013567ffffffffffffffff811115613c1d57613c1c613524565b5b613c298e828f01613907565b96509650506080613c3c8e828f01613b31565b94505060a08c013567ffffffffffffffff811115613c5d57613c5c613524565b5b613c698e828f01613907565b935093505060c0613c7c8e828f01613b56565b9150509295989b509295989b9093969950565b60008060008060008060608789031215613cac57613cab61351f565b5b600087013567ffffffffffffffff811115613cca57613cc9613524565b5b613cd689828a01613907565b9650965050602087013567ffffffffffffffff811115613cf957613cf8613524565b5b613d0589828a01613907565b9450945050604087013567ffffffffffffffff811115613d2857613d27613524565b5b613d3489828a01613907565b92509250509295509295509295565b613d4c81613696565b82525050565b600082825260208201905092915050565b6000613d6e826135e4565b613d788185613d52565b9350613d88818560208601613600565b613d918161362a565b840191505092915050565b600081519050919050565b600082825260208201905092915050565b6000819050602082019050919050565b6000613dd48383613d43565b60208301905092915050565b6000602082019050919050565b6000613df882613d9c565b613e028185613da7565b9350613e0d83613db8565b8060005b83811015613e3e578151613e258882613dc8565b9750613e3083613de0565b925050600181019050613e11565b5085935050505092915050565b613e54816135ae565b82525050565b600061010083016000830151613e736000860182613d43565b506020830151613e866020860182613d43565b5060408301518482036040860152613e9e8282613d63565b91505060608301518482036060860152613eb88282613d63565b91505060808301518482036080860152613ed28282613d63565b91505060a083015184820360a0860152613eec8282613ded565b91505060c0830151613f0160c0860182613e4b565b5060e0830151613f1460e0860182613e4b565b508091505092915050565b60006020820190508181036000830152613f398184613e5a565b905092915050565b60008060408385031215613f5857613f5761351f565b5b6000613f668582860161376c565b9250506020613f7785828601613974565b9150509250929050565b600080fd5b7f4e487b7100000000000000000000000000000000000000000000000000000000600052604160045260246000fd5b613fbe8261362a565b810181811067ffffffffffffffff82111715613fdd57613fdc613f86565b5b80604052505050565b6000613ff0613515565b9050613ffc8282613fb5565b919050565b600067ffffffffffffffff82111561401c5761401b613f86565b5b6140258261362a565b9050602081019050919050565b82818337600083830152505050565b600061405461404f84614001565b613fe6565b9050828152602081018484840111156140705761406f613f81565b5b61407b848285614032565b509392505050565b600082601f830112614098576140976138f8565b5b81356140a8848260208601614041565b91505092915050565b600080600080608085870312156140cb576140ca61351f565b5b60006140d98782880161376c565b94505060206140ea8782880161376c565b93505060406140fb878288016136b7565b925050606085013567ffffffffffffffff81111561411c5761411b613524565b5b61412887828801614083565b91505092959194509250565b6000806040838503121561414b5761414a61351f565b5b60006141598582860161376c565b925050602061416a8582860161376c565b9150509250929050565b600060e08301600083015161418c6000860182613d43565b50602083015161419f6020860182613d43565b50604083015184820360408601526141b78282613d63565b915050606083015184820360608601526141d18282613d63565b915050608083015184820360808601526141eb8282613d63565b91505060a083015161420060a0860182613e4b565b5060c083015184820360c08601526142188282613ded565b9150508091505092915050565b6000602082019050818103600083015261423f8184614174565b905092915050565b7f4e487b7100000000000000000000000000000000000000000000000000000000600052602260045260246000fd5b6000600282049050600182168061428e57607f821691505b6020821081036142a1576142a0614247565b5b50919050565b6000815190506142b68161395d565b92915050565b6000602082840312156142d2576142d161351f565b5b60006142e0848285016142a7565b91505092915050565b60006040820190506142fe600083018561372b565b61430b6020830184613822565b9392505050565b600081519050614321816136a0565b92915050565b60006020828403121561433d5761433c61351f565b5b600061434b84828501614312565b91505092915050565b6000606082019050614369600083018661372b565b6143766020830185613822565b614383604083018461372b565b949350505050565b600061439783856135ef565b93506143a4838584614032565b6143ad8361362a565b840190509392505050565b600060a0820190506143cd600083018b61372b565b81810360208301526143e081898b61438b565b905081810360408301526143f581878961438b565b9050818103606083015261440a81858761438b565b905061441960808301846135ba565b9998505050505050505050565b7f4e487b7100000000000000000000000000000000000000000000000000000000600052601160045260246000fd5b600061446082613696565b91507fffffffffffffffffffffffffffffffffffffffffffffffffffffffffffffffff820361449257614491614426565b5b600182019050919050565b600082825260208201905092915050565b6000819050919050565b6144c181613ae8565b82525050565b60006144d383836144b8565b60208301905092915050565b60006144ee6020840184613b0c565b905092915050565b6000602082019050919050565b600061450f838561449d565b935061451a826144ae565b8060005b858110156145535761453082846144df565b61453a88826144c7565b9750614545836144f6565b92505060018101905061451e565b5085925050509392505050565b61456981613ae8565b82525050565b7f4e487b7100000000000000000000000000000000000000000000000000000000600052602160045260246000fd5b600481106145af576145ae61456f565b5b50565b60008190506145c08261459e565b919050565b60006145d0826145b2565b9050919050565b6145e0816145c5565b82525050565b600581106145f7576145f661456f565b5b50565b6000819050614608826145e6565b919050565b6000614618826145fa565b9050919050565b6146288161460d565b82525050565b600060e0820190508181036000830152614649818d8f614503565b9050818103602083015261465e818b8d614503565b905061466d604083018a614560565b818103606083015261468081888a61438b565b905061468f60808301876145d7565b81810360a08301526146a281858761438b565b90506146b160c083018461461f565b9c9b505050505050505050505050565b600060c0820190506146d6600083018c61372b565b81810360208301526146e9818a8c61438b565b905081810360408301526146fe81888a61438b565b9050818103606083015261471381868861438b565b905061472260808301856135ba565b61472f60a08301846135ba565b9a9950505050505050505050565b600080fd5b600080fd5b600067ffffffffffffffff82111561476257614761613f86565b5b61476b8261362a565b9050602081019050919050565b600061478b61478684614747565b613fe6565b9050828152602081018484840111156147a7576147a6613f81565b5b6147b2848285613600565b509392505050565b600082601f8301126147cf576147ce6138f8565b5b81516147df848260208601614778565b91505092915050565b600067ffffffffffffffff82111561480357614802613f86565b5b602082029050602081019050919050565b6000614827614822846147e8565b613fe6565b9050808382526020820190506020840283018581111561484a57614849613902565b5b835b81811015614873578061485f8882614312565b84526020840193505060208101905061484c565b5050509392505050565b600082601f830112614892576148916138f8565b5b81516148a2848260208601614814565b91505092915050565b600061010082840312156148c2576148c161473d565b5b6148cd610100613fe6565b905060006148dd84828501614312565b60008301525060206148f184828501614312565b602083015250604082015167ffffffffffffffff81111561491557614914614742565b5b614921848285016147ba565b604083015250606082015167ffffffffffffffff81111561494557614944614742565b5b614951848285016147ba565b606083015250608082015167ffffffffffffffff81111561497557614974614742565b5b614981848285016147ba565b60808301525060a082015167ffffffffffffffff8111156149a5576149a4614742565b5b6149b18482850161487d565b60a08301525060c06149c5848285016142a7565b60c08301525060e06149d9848285016142a7565b60e08301525092915050565b6000602082840312156149fb576149fa61351f565b5b600082015167ffffffffffffffff811115614a1957614a18613524565b5b614a25848285016148ab565b91505092915050565b600081905092915050565b6000614a44826135e4565b614a4e8185614a2e565b9350614a5e818560208601613600565b80840191505092915050565b6000614a768288614a39565b9150614a828287614a39565b9150614a8e8286614a39565b9150614a9a8285614a39565b9150614aa68284614a39565b91508190509695505050505050565b6000614ac18285614a39565b9150614acd8284614a39565b91508190509392505050565b600060e08284031215614aef57614aee61473d565b5b614af960e0613fe6565b90506000614b0984828501614312565b6000830152506020614b1d84828501614312565b602083015250604082015167ffffffffffffffff811115614b4157614b40614742565b5b614b4d848285016147ba565b604083015250606082015167ffffffffffffffff811115614b7157614b70614742565b5b614b7d848285016147ba565b606083015250608082015167ffffffffffffffff811115614ba157614ba0614742565b5b614bad848285016147ba565b60808301525060a0614bc1848285016142a7565b60a08301525060c082015167ffffffffffffffff811115614be557614be4614742565b5b614bf18482850161487d565b60c08301525092915050565b600060208284031215614c1357614c1261351f565b5b600082015167ffffffffffffffff811115614c3157614c30613524565b5b614c3d84828501614ad9565b91505092915050565b600081519050919050565b600082825260208201905092915050565b6000614c6d82614c46565b614c778185614c51565b9350614c87818560208601613600565b614c908161362a565b840191505092915050565b6000608082019050614cb0600083018761372b565b614cbd602083018661372b565b614cca6040830185613822565b8181036060830152614cdc8184614c62565b905095945050505050565b600081519050614cf681613555565b92915050565b600060208284031215614d1257614d1161351f565b5b6000614d2084828501614ce7565b91505092915050565b7f4e487b7100000000000000000000000000000000000000000000000000000000600052601260045260246000fd5b600067ffffffffffffffff821115614d7357614d72613f86565b5b602082029050602081019050919050565b600081519050614d9381613af5565b92915050565b6000614dac614da784614d58565b613fe6565b90508083825260208201905060208402830185811115614dcf57614dce613902565b5b835b81811015614df85780614de48882614d84565b845260208401935050602081019050614dd1565b5050509392505050565b600082601f830112614e1757614e166138f8565b5b8151614e27848260208601614d99565b91505092915050565b600081519050614e3f81613b21565b92915050565b600081519050614e5481613b46565b92915050565b60006101208284031215614e7157614e7061473d565b5b614e7c610120613fe6565b90506000614e8c84828501614312565b6000830152506020614ea084828501614312565b602083015250604082015167ffffffffffffffff811115614ec457614ec3614742565b5b614ed084828501614e02565b604083015250606082015167ffffffffffffffff811115614ef457614ef3614742565b5b614f0084828501614e02565b6060830152506080614f1484828501614d84565b60808301525060a082015167ffffffffffffffff811115614f3857614f37614742565b5b614f44848285016147ba565b60a08301525060c0614f5884828501614e30565b60c08301525060e082015167ffffffffffffffff811115614f7c57614f7b614742565b5b614f88848285016147ba565b60e083015250610100614f9d84828501614e45565b6101008301525092915050565b600060208284031215614fc057614fbf61351f565b5b600082015167ffffffffffffffff811115614fde57614fdd613524565b5b614fea84828501614e5a565b91505092915050565b7f4e487b7100000000000000000000000000000000000000000000000000000000600052603260045260246000fd5b60008160f81b9050919050565b600061503a82615022565b9050919050565b61505261504d82613ae8565b61502f565b82525050565b60006150648289614a39565b91506150708288614a39565b915061507c8287614a39565b91506150888286615041565b6001820191506150988285614a39565b91506150a48284615041565b600182019150819050979650505050505050565b6150c96150c4826145c5565b61502f565b82525050565b60006150db828b614a39565b91506150e7828a614a39565b91506150f38289614a39565b91506150ff8288614a39565b915061510b8287614a39565b91506151178286614a39565b915061512382856150b8565b6001820191506151338284614a39565b91508190509998505050505050505050565b60006151518287614a39565b915061515d8286614a39565b91506151698285614a39565b91506151758284614a39565b915081905095945050505050565b600061518e82613696565b915061519983613696565b92508282019050808211156151b1576151b0614426565b5b92915050565b60006151c282613696565b91506151cd83613696565b9250826151dd576151dc614d29565b5b828204905092915050565b60006151f382613696565b91506151fe83613696565b925082820261520c81613696565b9150828204841483151761522357615222614426565b5b5092915050565b600060408201905061523f600083018561372b565b61524c60208301846137f8565b939250505056fe227d5d2c22696d616765223a2022646174613a696d6167652f7376672b786d6c3b6261736536342c3c7376672077696474683d2238303022206865696768743d22383030222076696577426f783d2230203020383030203830302220786d6c6e733d22687474703a2f2f7777772e77332e6f72672f323030302f737667223e227d2c7b2274726169745f74797065223a20226d61696e436f6c6f72222c2276616c7565223a20223c6c696e652078313d22333330222079313d22333030222078323d22343730222079323d2233383022207374726f6b653d222338613666333022207374726f6b652d77696474683d2233222f3e227d2c7b2274726169745f74797065223a2022776569676874496e4772616d73222c2276616c7565223a20223c706f6c79676f6e20706f696e74733d223430302c323530203437302c333030203437302c333830203430302c343330203333302c333830203333302c333030222066696c6c3d22776869746522207374726f6b653d222338613666333022207374726f6b652d77696474683d2235222f3e222c202261747472696275746573223a205b7b2274726169745f74797065223a20224a6577656c65724e616d65222c2276616c7565223a20223c7465787420783d223530252220793d223630302220666f6e742d73697a653d2234302220666f6e742d66616d696c793d22417269616c2c2073616e732d73657269662220666f6e742d7765696768743d22626f6c64222066696c6c3d22236434616633372220746578742d616e63686f723d226d6964646c65223e3c7265637420783d22302220793d2230222077696474683d2238303022206865696768743d22383030222066696c6c3d222366386639666122207374726f6b653d222364346166333722207374726f6b652d77696474683d223130222072783d223230222072793d223230222f3e3c7265637420783d223230302220793d22363530222077696474683d2234303022206865696768743d223830222066696c6c3d22776869746522207374726f6b653d222333333322207374726f6b652d77696474683d2233222072783d223130222072793d223130222f3e3c6c696e652078313d22343030222079313d22323530222078323d22343030222079323d2234333022207374726f6b653d222338613666333022207374726f6b652d77696474683d2233222f3e4142434445464748494a4b4c4d4e4f505152535455565758595a6162636465666768696a6b6c6d6e6f707172737475767778797a303132333435363738392b2f227d2c7b2274726169745f74797065223a20226d61696e4d6174657269616c222c2276616c7565223a20223c656c6c697073652063783d22343030222063793d22343230222072783d22313830222072793d22313030222066696c6c3d226e6f6e6522207374726f6b653d222364346166333722207374726f6b652d77696474683d223230222f3e3c656c6c697073652063783d22343030222063793d22343230222072783d22313430222072793d223830222066696c6c3d226e6f6e6522207374726f6b653d222366386639666122207374726f6b652d77696474683d223230222f3e3c6c696e652078313d22343730222079313d22333030222078323d22333330222079323d2233383022207374726f6b653d222338613666333022207374726f6b652d77696474683d2233222f3e3c7465787420783d223530252220793d223132302220666f6e742d73697a653d2235302220666f6e742d66616d696c793d22417269616c2c2073616e732d73657269662220666f6e742d7765696768743d22626f6c64222066696c6c3d22233333332220746578742d616e63686f723d226d6964646c65223e3c7465787420783d223530252220793d223730302220666f6e742d73697a653d2233302220666f6e742d66616d696c793d22417269616c2c2073616e732d7365726966222066696c6c3d22233333332220746578742d616e63686f723d226d6964646c65223e7b226e616d65223a2022476f6c64436861696e204365727469666963617465204e46542023227d2c7b2274726169745f74797065223a202243657274696669636174654c6576656c222c2276616c7565223a2022227d2c7b2274726169745f74797065223a20226d61696e47656d53746f6e6573222c2276616c7565223a2022a26469706673582212200d364a369acdfc040f8491cd7c8ed0389956bf8b04a25d9527708dd1f1425f4e64736f6c634300081c0033",
  "linkReferences": {},
  "deployedLinkReferences": {}
}