{
  "_format": "hh-sol-artifact-1",
  "contractName": "GoldChain",
  "sourceName": "contracts/GoldChain.sol",
  "abi": [
    {
      "inputs": [
        {
          "internalType": "contract IDataStorage",
          "name": "_dataStorage",
          "type": "address"
        }
      ],
      "stateMutability": "nonpayable",
      "type": "constructor"
    },
    {
      "inputs": [],
      "name": "AccessControlBadConfirmation",
      "type": "error"
    },
    {
      "inputs": [
        {
          "internalType": "address",
          "name": "account",
          "type": "address"
        },
        {
          "internalType": "bytes32",
          "name": "neededRole",
          "type": "bytes32"
        }
      ],
      "name": "AccessControlUnauthorizedAccount",
      "type": "error"
    },
    {
      "inputs": [],
      "name": "CustomerIsAlreadyRegistered",
      "type": "error"
    },
    {
      "inputs": [],
      "name": "CustomerNotExists",
      "type": "error"
    },
    {
      "inputs": [
        {
          "internalType": "address",
          "name": "sender",
          "type": "address"
        },
        {
          "internalType": "uint256",
          "name": "tokenId",
          "type": "uint256"
        },
        {
          "internalType": "address",
          "name": "owner",
          "type": "address"
        }
      ],
      "name": "ERC721IncorrectOwner",
      "type": "error"
    },
    {
      "inputs": [
        {
          "internalType": "address",
          "name": "operator",
          "type": "address"
        },
        {
          "internalType": "uint256",
          "name": "tokenId",
          "type": "uint256"
        }
      ],
      "name": "ERC721InsufficientApproval",
      "type": "error"
    },
    {
      "inputs": [
        {
          "internalType": "address",
          "name": "approver",
          "type": "address"
        }
      ],
      "name": "ERC721InvalidApprover",
      "type": "error"
    },
    {
      "inputs": [
        {
          "internalType": "address",
          "name": "operator",
          "type": "address"
        }
      ],
      "name": "ERC721InvalidOperator",
      "type": "error"
    },
    {
      "inputs": [
        {
          "internalType": "address",
          "name": "owner",
          "type": "address"
        }
      ],
      "name": "ERC721InvalidOwner",
      "type": "error"
    },
    {
      "inputs": [
        {
          "internalType": "address",
          "name": "receiver",
          "type": "address"
        }
      ],
      "name": "ERC721InvalidReceiver",
      "type": "error"
    },
    {
      "inputs": [
        {
          "internalType": "address",
          "name": "sender",
          "type": "address"
        }
      ],
      "name": "ERC721InvalidSender",
      "type": "error"
    },
    {
      "inputs": [
        {
          "internalType": "uint256",
          "name": "tokenId",
          "type": "uint256"
        }
      ],
      "name": "ERC721NonexistentToken",
      "type": "error"
    },
    {
      "inputs": [],
      "name": "JewelerIsAlreadyRegistered",
      "type": "error"
    },
    {
      "inputs": [],
      "name": "JewelerNotExists",
      "type": "error"
    },
    {
      "inputs": [],
      "name": "TokenDoesNotExist",
      "type": "error"
    },
    {
      "anonymous": false,
      "inputs": [
        {
          "indexed": true,
          "internalType": "address",
          "name": "owner",
          "type": "address"
        },
        {
          "indexed": true,
          "internalType": "address",
          "name": "approved",
          "type": "address"
        },
        {
          "indexed": true,
          "internalType": "uint256",
          "name": "tokenId",
          "type": "uint256"
        }
      ],
      "name": "Approval",
      "type": "event"
    },
    {
      "anonymous": false,
      "inputs": [
        {
          "indexed": true,
          "internalType": "address",
          "name": "owner",
          "type": "address"
        },
        {
          "indexed": true,
          "internalType": "address",
          "name": "operator",
          "type": "address"
        },
        {
          "indexed": false,
          "internalType": "bool",
          "name": "approved",
          "type": "bool"
        }
      ],
      "name": "ApprovalForAll",
      "type": "event"
    },
    {
      "anonymous": false,
      "inputs": [
        {
          "indexed": true,
          "internalType": "bytes32",
          "name": "role",
          "type": "bytes32"
        },
        {
          "indexed": true,
          "internalType": "bytes32",
          "name": "previousAdminRole",
          "type": "bytes32"
        },
        {
          "indexed": true,
          "internalType": "bytes32",
          "name": "newAdminRole",
          "type": "bytes32"
        }
      ],
      "name": "RoleAdminChanged",
      "type": "event"
    },
    {
      "anonymous": false,
      "inputs": [
        {
          "indexed": true,
          "internalType": "bytes32",
          "name": "role",
          "type": "bytes32"
        },
        {
          "indexed": true,
          "internalType": "address",
          "name": "account",
          "type": "address"
        },
        {
          "indexed": true,
          "internalType": "address",
          "name": "sender",
          "type": "address"
        }
      ],
      "name": "RoleGranted",
      "type": "event"
    },
    {
      "anonymous": false,
      "inputs": [
        {
          "indexed": true,
          "internalType": "bytes32",
          "name": "role",
          "type": "bytes32"
        },
        {
          "indexed": true,
          "internalType": "address",
          "name": "account",
          "type": "address"
        },
        {
          "indexed": true,
          "internalType": "address",
          "name": "sender",
          "type": "address"
        }
      ],
      "name": "RoleRevoked",
      "type": "event"
    },
    {
      "anonymous": false,
      "inputs": [
        {
          "indexed": true,
          "internalType": "address",
          "name": "from",
          "type": "address"
        },
        {
          "indexed": true,
          "internalType": "address",
          "name": "to",
          "type": "address"
        },
        {
          "indexed": true,
          "internalType": "uint256",
          "name": "tokenId",
          "type": "uint256"
        }
      ],
      "name": "Transfer",
      "type": "event"
    },
    {
      "anonymous": false,
      "inputs": [
        {
          "indexed": false,
          "internalType": "address",
          "name": "jewelerAddress",
          "type": "address"
        },
        {
          "indexed": false,
          "internalType": "uint256",
          "name": "timestamp",
          "type": "uint256"
        },
        {
          "indexed": false,
          "internalType": "uint256",
          "name": "certificateId",
          "type": "uint256"
        }
      ],
      "name": "certificateCreated",
      "type": "event"
    },
    {
      "anonymous": false,
      "inputs": [
        {
          "indexed": false,
          "internalType": "address",
          "name": "customerAddress",
          "type": "address"
        },
        {
          "indexed": false,
          "internalType": "uint256",
          "name": "timestamp",
          "type": "uint256"
        }
      ],
      "name": "customerCreated",
      "type": "event"
    },
    {
      "anonymous": false,
      "inputs": [
        {
          "indexed": false,
          "internalType": "address",
          "name": "customerAddress",
          "type": "address"
        },
        {
          "indexed": false,
          "internalType": "uint256",
          "name": "timestamp",
          "type": "uint256"
        }
      ],
      "name": "customerUpdated",
      "type": "event"
    },
    {
      "anonymous": false,
      "inputs": [
        {
          "indexed": false,
          "internalType": "address",
          "name": "jewelerAddress",
          "type": "address"
        },
        {
          "indexed": false,
          "internalType": "uint256",
          "name": "timestamp",
          "type": "uint256"
        }
      ],
      "name": "jewelerActivated",
      "type": "event"
    },
    {
      "anonymous": false,
      "inputs": [
        {
          "indexed": false,
          "internalType": "address",
          "name": "jewelerAddress",
          "type": "address"
        },
        {
          "indexed": false,
          "internalType": "uint256",
          "name": "timestamp",
          "type": "uint256"
        }
      ],
      "name": "jewelerCreated",
      "type": "event"
    },
    {
      "anonymous": false,
      "inputs": [
        {
          "indexed": false,
          "internalType": "address",
          "name": "jewelerAddress",
          "type": "address"
        },
        {
          "indexed": false,
          "internalType": "uint256",
          "name": "timestamp",
          "type": "uint256"
        }
      ],
      "name": "jewelerDesactivated",
      "type": "event"
    },
    {
      "anonymous": false,
      "inputs": [
        {
          "indexed": false,
          "internalType": "address",
          "name": "jewelerAddress",
          "type": "address"
        },
        {
          "indexed": false,
          "internalType": "uint256",
          "name": "timestamp",
          "type": "uint256"
        }
      ],
      "name": "jewelerUpdated",
      "type": "event"
    },
    {
      "inputs": [],
      "name": "ADMIN",
      "outputs": [
        {
          "internalType": "bytes32",
          "name": "",
          "type": "bytes32"
        }
      ],
      "stateMutability": "view",
      "type": "function"
    },
    {
      "inputs": [
        {
          "internalType": "bytes",
          "name": "data",
          "type": "bytes"
        }
      ],
      "name": "Base64Encode",
      "outputs": [
        {
          "internalType": "string",
          "name": "",
          "type": "string"
        }
      ],
      "stateMutability": "pure",
      "type": "function"
    },
    {
      "inputs": [],
      "name": "CERTIFICATOR_ROLE",
      "outputs": [
        {
          "internalType": "bytes32",
          "name": "",
          "type": "bytes32"
        }
      ],
      "stateMutability": "view",
      "type": "function"
    },
    {
      "inputs": [],
      "name": "CUSTOMERS_ROLE",
      "outputs": [
        {
          "internalType": "bytes32",
          "name": "",
          "type": "bytes32"
        }
      ],
      "stateMutability": "view",
      "type": "function"
    },
    {
      "inputs": [],
      "name": "DEFAULT_ADMIN_ROLE",
      "outputs": [
        {
          "internalType": "bytes32",
          "name": "",
          "type": "bytes32"
        }
      ],
      "stateMutability": "view",
      "type": "function"
    },
    {
      "inputs": [],
      "name": "FALSE",
      "outputs": [
        {
          "internalType": "bool",
          "name": "",
          "type": "bool"
        }
      ],
      "stateMutability": "view",
      "type": "function"
    },
    {
      "inputs": [],
      "name": "JEWELERS_ROLE",
      "outputs": [
        {
          "internalType": "bytes32",
          "name": "",
          "type": "bytes32"
        }
      ],
      "stateMutability": "view",
      "type": "function"
    },
    {
      "inputs": [],
      "name": "TRUE",
      "outputs": [
        {
          "internalType": "bool",
          "name": "",
          "type": "bool"
        }
      ],
      "stateMutability": "view",
      "type": "function"
    },
    {
      "inputs": [
        {
          "internalType": "address",
          "name": "_jewelerAddress",
          "type": "address"
        }
      ],
      "name": "activateJeweler",
      "outputs": [
        {
          "internalType": "bool",
          "name": "",
          "type": "bool"
        }
      ],
      "stateMutability": "nonpayable",
      "type": "function"
    },
    {
      "inputs": [],
      "name": "admin",
      "outputs": [
        {
          "internalType": "address",
          "name": "",
          "type": "address"
        }
      ],
      "stateMutability": "view",
      "type": "function"
    },
    {
      "inputs": [
        {
          "internalType": "address",
          "name": "to",
          "type": "address"
        },
        {
          "internalType": "uint256",
          "name": "tokenId",
          "type": "uint256"
        }
      ],
      "name": "approve",
      "outputs": [],
      "stateMutability": "nonpayable",
      "type": "function"
    },
    {
      "inputs": [
        {
          "internalType": "address",
          "name": "owner",
          "type": "address"
        }
      ],
      "name": "balanceOf",
      "outputs": [
        {
          "internalType": "uint256",
          "name": "",
          "type": "uint256"
        }
      ],
      "stateMutability": "view",
      "type": "function"
    },
    {
      "inputs": [
        {
          "internalType": "uint8[]",
          "name": "_materials",
          "type": "uint8[]"
        },
        {
          "internalType": "uint8[]",
          "name": "_gemStones",
          "type": "uint8[]"
        },
        {
          "internalType": "uint8",
          "name": "_weightInGrams",
          "type": "uint8"
        },
        {
          "internalType": "string",
          "name": "_mainColor",
          "type": "string"
        },
        {
          "internalType": "enum IDataStorage.CertificateLevel",
          "name": "_level",
          "type": "uint8"
        },
        {
          "internalType": "string",
          "name": "_JewelerName",
          "type": "string"
        },
        {
          "internalType": "enum IDataStorage.CertificateStatus",
          "name": "_status",
          "type": "uint8"
        }
      ],
      "name": "createCertificate",
      "outputs": [
        {
          "internalType": "bool",
          "name": "",
          "type": "bool"
        }
      ],
      "stateMutability": "nonpayable",
      "type": "function"
    },
    {
      "inputs": [
        {
          "internalType": "string",
          "name": "_name",
          "type": "string"
        },
        {
          "internalType": "string",
          "name": "_email",
          "type": "string"
        },
        {
          "internalType": "string",
          "name": "_location",
          "type": "string"
        }
      ],
      "name": "createCustomer",
      "outputs": [
        {
          "internalType": "bool",
          "name": "",
          "type": "bool"
        }
      ],
      "stateMutability": "nonpayable",
      "type": "function"
    },
    {
      "inputs": [
        {
          "internalType": "string",
          "name": "_name",
          "type": "string"
        },
        {
          "internalType": "string",
          "name": "_email",
          "type": "string"
        },
        {
          "internalType": "string",
          "name": "_location",
          "type": "string"
        }
      ],
      "name": "createJeweler",
      "outputs": [
        {
          "internalType": "bool",
          "name": "",
          "type": "bool"
        }
      ],
      "stateMutability": "nonpayable",
      "type": "function"
    },
    {
      "inputs": [
        {
          "internalType": "address",
          "name": "_jewelerAddress",
          "type": "address"
        }
      ],
      "name": "desactivateJeweler",
      "outputs": [
        {
          "internalType": "bool",
          "name": "",
          "type": "bool"
        }
      ],
      "stateMutability": "nonpayable",
      "type": "function"
    },
    {
      "inputs": [
        {
          "internalType": "uint256",
          "name": "tokenId",
          "type": "uint256"
        }
      ],
      "name": "getApproved",
      "outputs": [
        {
          "internalType": "address",
          "name": "",
          "type": "address"
        }
      ],
      "stateMutability": "view",
      "type": "function"
    },
    {
      "inputs": [],
      "name": "getCustomerCount",
      "outputs": [
        {
          "internalType": "uint256",
          "name": "",
          "type": "uint256"
        }
      ],
      "stateMutability": "view",
      "type": "function"
    },
    {
      "inputs": [],
      "name": "getJewelerCount",
      "outputs": [
        {
          "internalType": "uint256",
          "name": "",
          "type": "uint256"
        }
      ],
      "stateMutability": "view",
      "type": "function"
    },
    {
      "inputs": [
        {
          "internalType": "address",
          "name": "_customerAddress",
          "type": "address"
        }
      ],
      "name": "getOneCustomer",
      "outputs": [
        {
          "components": [
            {
              "internalType": "uint256",
              "name": "created_at",
              "type": "uint256"
            },
            {
              "internalType": "uint256",
              "name": "updated_at",
              "type": "uint256"
            },
            {
              "internalType": "string",
              "name": "name",
              "type": "string"
            },
            {
              "internalType": "string",
              "name": "email",
              "type": "string"
            },
            {
              "internalType": "string",
              "name": "location",
              "type": "string"
            },
            {
              "internalType": "bool",
              "name": "visible",
              "type": "bool"
            },
            {
              "internalType": "uint256[]",
              "name": "OwnedCertificateIds",
              "type": "uint256[]"
            }
          ],
          "internalType": "struct IDataStorage.Customer",
          "name": "",
          "type": "tuple"
        }
      ],
      "stateMutability": "view",
      "type": "function"
    },
    {
      "inputs": [
        {
          "internalType": "address",
          "name": "_jewelerAddress",
          "type": "address"
        }
      ],
      "name": "getOneJeweler",
      "outputs": [
        {
          "components": [
            {
              "internalType": "uint256",
              "name": "created_at",
              "type": "uint256"
            },
            {
              "internalType": "uint256",
              "name": "updated_at",
              "type": "uint256"
            },
            {
              "internalType": "string",
              "name": "name",
              "type": "string"
            },
            {
              "internalType": "string",
              "name": "email",
              "type": "string"
            },
            {
              "internalType": "string",
              "name": "location",
              "type": "string"
            },
            {
              "internalType": "uint256[]",
              "name": "CreatedCertificateIds",
              "type": "uint256[]"
            },
            {
              "internalType": "bool",
              "name": "available",
              "type": "bool"
            },
            {
              "internalType": "bool",
              "name": "visible",
              "type": "bool"
            }
          ],
          "internalType": "struct IDataStorage.Jeweler",
          "name": "",
          "type": "tuple"
        }
      ],
      "stateMutability": "view",
      "type": "function"
    },
    {
      "inputs": [
        {
          "internalType": "bytes32",
          "name": "role",
          "type": "bytes32"
        }
      ],
      "name": "getRoleAdmin",
      "outputs": [
        {
          "internalType": "bytes32",
          "name": "",
          "type": "bytes32"
        }
      ],
      "stateMutability": "view",
      "type": "function"
    },
    {
      "inputs": [
        {
          "internalType": "bytes32",
          "name": "role",
          "type": "bytes32"
        },
        {
          "internalType": "address",
          "name": "account",
          "type": "address"
        }
      ],
      "name": "grantRole",
      "outputs": [],
      "stateMutability": "nonpayable",
      "type": "function"
    },
    {
      "inputs": [
        {
          "internalType": "bytes32",
          "name": "role",
          "type": "bytes32"
        },
        {
          "internalType": "address",
          "name": "account",
          "type": "address"
        }
      ],
      "name": "hasRole",
      "outputs": [
        {
          "internalType": "bool",
          "name": "",
          "type": "bool"
        }
      ],
      "stateMutability": "view",
      "type": "function"
    },
    {
      "inputs": [
        {
          "internalType": "address",
          "name": "owner",
          "type": "address"
        },
        {
          "internalType": "address",
          "name": "operator",
          "type": "address"
        }
      ],
      "name": "isApprovedForAll",
      "outputs": [
        {
          "internalType": "bool",
          "name": "",
          "type": "bool"
        }
      ],
      "stateMutability": "view",
      "type": "function"
    },
    {
      "inputs": [],
      "name": "name",
      "outputs": [
        {
          "internalType": "string",
          "name": "",
          "type": "string"
        }
      ],
      "stateMutability": "view",
      "type": "function"
    },
    {
      "inputs": [
        {
          "internalType": "uint256",
          "name": "tokenId",
          "type": "uint256"
        }
      ],
      "name": "ownerOf",
      "outputs": [
        {
          "internalType": "address",
          "name": "",
          "type": "address"
        }
      ],
      "stateMutability": "view",
      "type": "function"
    },
    {
      "inputs": [
        {
          "internalType": "bytes32",
          "name": "role",
          "type": "bytes32"
        },
        {
          "internalType": "address",
          "name": "callerConfirmation",
          "type": "address"
        }
      ],
      "name": "renounceRole",
      "outputs": [],
      "stateMutability": "nonpayable",
      "type": "function"
    },
    {
      "inputs": [
        {
          "internalType": "bytes32",
          "name": "role",
          "type": "bytes32"
        },
        {
          "internalType": "address",
          "name": "account",
          "type": "address"
        }
      ],
      "name": "revokeRole",
      "outputs": [],
      "stateMutability": "nonpayable",
      "type": "function"
    },
    {
      "inputs": [
        {
          "internalType": "address",
          "name": "to",
          "type": "address"
        }
      ],
      "name": "safeMint",
      "outputs": [
        {
          "internalType": "uint256",
          "name": "",
          "type": "uint256"
        }
      ],
      "stateMutability": "nonpayable",
      "type": "function"
    },
    {
      "inputs": [
        {
          "internalType": "address",
          "name": "from",
          "type": "address"
        },
        {
          "internalType": "address",
          "name": "to",
          "type": "address"
        },
        {
          "internalType": "uint256",
          "name": "tokenId",
          "type": "uint256"
        }
      ],
      "name": "safeTransferFrom",
      "outputs": [],
      "stateMutability": "nonpayable",
      "type": "function"
    },
    {
      "inputs": [
        {
          "internalType": "address",
          "name": "from",
          "type": "address"
        },
        {
          "internalType": "address",
          "name": "to",
          "type": "address"
        },
        {
          "internalType": "uint256",
          "name": "tokenId",
          "type": "uint256"
        },
        {
          "internalType": "bytes",
          "name": "data",
          "type": "bytes"
        }
      ],
      "name": "safeTransferFrom",
      "outputs": [],
      "stateMutability": "nonpayable",
      "type": "function"
    },
    {
      "inputs": [
        {
          "internalType": "address",
          "name": "operator",
          "type": "address"
        },
        {
          "internalType": "bool",
          "name": "approved",
          "type": "bool"
        }
      ],
      "name": "setApprovalForAll",
      "outputs": [],
      "stateMutability": "nonpayable",
      "type": "function"
    },
    {
      "inputs": [
        {
          "internalType": "bytes4",
          "name": "interfaceId",
          "type": "bytes4"
        }
      ],
      "name": "supportsInterface",
      "outputs": [
        {
          "internalType": "bool",
          "name": "",
          "type": "bool"
        }
      ],
      "stateMutability": "view",
      "type": "function"
    },
    {
      "inputs": [],
      "name": "symbol",
      "outputs": [
        {
          "internalType": "string",
          "name": "",
          "type": "string"
        }
      ],
      "stateMutability": "view",
      "type": "function"
    },
    {
      "inputs": [
        {
          "internalType": "uint256",
          "name": "tokenId",
          "type": "uint256"
        }
      ],
      "name": "tokenURI",
      "outputs": [
        {
          "internalType": "string",
          "name": "",
          "type": "string"
        }
      ],
      "stateMutability": "view",
      "type": "function"
    },
    {
      "inputs": [
        {
          "internalType": "address",
          "name": "_to",
          "type": "address"
        },
        {
          "internalType": "uint256",
          "name": "_tokenId",
          "type": "uint256"
        }
      ],
      "name": "transertCertificate",
      "outputs": [
        {
          "internalType": "bool",
          "name": "",
          "type": "bool"
        }
      ],
      "stateMutability": "nonpayable",
      "type": "function"
    },
    {
      "inputs": [
        {
          "internalType": "address",
          "name": "from",
          "type": "address"
        },
        {
          "internalType": "address",
          "name": "to",
          "type": "address"
        },
        {
          "internalType": "uint256",
          "name": "tokenId",
          "type": "uint256"
        }
      ],
      "name": "transferFrom",
      "outputs": [],
      "stateMutability": "nonpayable",
      "type": "function"
    },
    {
      "inputs": [],
      "name": "updateCertificate",
      "outputs": [
        {
          "internalType": "bool",
          "name": "",
          "type": "bool"
        }
      ],
      "stateMutability": "nonpayable",
      "type": "function"
    },
    {
      "inputs": [
        {
          "internalType": "string",
          "name": "_name",
          "type": "string"
        },
        {
          "internalType": "string",
          "name": "_email",
          "type": "string"
        },
        {
          "internalType": "string",
          "name": "_location",
          "type": "string"
        },
        {
          "internalType": "bool",
          "name": "_visible",
          "type": "bool"
        }
      ],
      "name": "updateCustomer",
      "outputs": [
        {
          "internalType": "bool",
          "name": "",
          "type": "bool"
        }
      ],
      "stateMutability": "nonpayable",
      "type": "function"
    },
    {
      "inputs": [
        {
          "internalType": "string",
          "name": "_name",
          "type": "string"
        },
        {
          "internalType": "string",
          "name": "_email",
          "type": "string"
        },
        {
          "internalType": "string",
          "name": "_location",
          "type": "string"
        },
        {
          "internalType": "bool",
          "name": "_visible",
          "type": "bool"
        }
      ],
      "name": "updateJeweler",
      "outputs": [
        {
          "internalType": "bool",
          "name": "",
          "type": "bool"
        }
      ],
      "stateMutability": "nonpayable",
      "type": "function"
    }
  ],
  "bytecode": "0x608060405234801561001057600080fd5b5060405161601538038061601583398181016040528101906100329190610371565b6040518060400160405280600f81526020017f476f6c64436861696e45524337323100000000000000000000000000000000008152506040518060400160405280600281526020017f474300000000000000000000000000000000000000000000000000000000000081525081600190816100ad91906105ee565b5080600290816100bd91906105ee565b5050506100d36000801b3361018d60201b60201c565b506101047fdf8b4c520ffe197c5343c6f5aec59570151ef9a492f2c624fd45ddde6135ec423361018d60201b60201c565b5033600960006101000a81548173ffffffffffffffffffffffffffffffffffffffff021916908373ffffffffffffffffffffffffffffffffffffffff16021790555080600860006101000a81548173ffffffffffffffffffffffffffffffffffffffff021916908373ffffffffffffffffffffffffffffffffffffffff160217905550506106c0565b600061019f838361028a60201b60201c565b61027f57600160008085815260200190815260200160002060000160008473ffffffffffffffffffffffffffffffffffffffff1673ffffffffffffffffffffffffffffffffffffffff16815260200190815260200160002060006101000a81548160ff02191690831515021790555061021c6102f460201b60201c565b73ffffffffffffffffffffffffffffffffffffffff168273ffffffffffffffffffffffffffffffffffffffff16847f2f8788117e7eff1d82e926ec794901d17c78024a50270940304540a733656f0d60405160405180910390a460019050610284565b600090505b92915050565b600080600084815260200190815260200160002060000160008373ffffffffffffffffffffffffffffffffffffffff1673ffffffffffffffffffffffffffffffffffffffff16815260200190815260200160002060009054906101000a900460ff16905092915050565b600033905090565b600080fd5b600073ffffffffffffffffffffffffffffffffffffffff82169050919050565b600061032c82610301565b9050919050565b600061033e82610321565b9050919050565b61034e81610333565b811461035957600080fd5b50565b60008151905061036b81610345565b92915050565b600060208284031215610387576103866102fc565b5b60006103958482850161035c565b91505092915050565b600081519050919050565b7f4e487b7100000000000000000000000000000000000000000000000000000000600052604160045260246000fd5b7f4e487b7100000000000000000000000000000000000000000000000000000000600052602260045260246000fd5b6000600282049050600182168061041f57607f821691505b602082108103610432576104316103d8565b5b50919050565b60008190508160005260206000209050919050565b60006020601f8301049050919050565b600082821b905092915050565b60006008830261049a7fffffffffffffffffffffffffffffffffffffffffffffffffffffffffffffffff8261045d565b6104a4868361045d565b95508019841693508086168417925050509392505050565b6000819050919050565b6000819050919050565b60006104eb6104e66104e1846104bc565b6104c6565b6104bc565b9050919050565b6000819050919050565b610505836104d0565b610519610511826104f2565b84845461046a565b825550505050565b600090565b61052e610521565b6105398184846104fc565b505050565b5b8181101561055d57610552600082610526565b60018101905061053f565b5050565b601f8211156105a25761057381610438565b61057c8461044d565b8101602085101561058b578190505b61059f6105978561044d565b83018261053e565b50505b505050565b600082821c905092915050565b60006105c5600019846008026105a7565b1980831691505092915050565b60006105de83836105b4565b9150826002028217905092915050565b6105f78261039e565b67ffffffffffffffff8111156106105761060f6103a9565b5b61061a8254610407565b610625828285610561565b600060209050601f8311600181146106585760008415610646578287015190505b61065085826105d2565b8655506106b8565b601f19841661066686610438565b60005b8281101561068e57848901518255600182019150602085019450602081019050610669565b868310156106ab57848901516106a7601f8916826105b4565b8355505b6001600288020188555050505b505050505050565b615946806106cf6000396000f3fe608060405234801561001057600080fd5b50600436106102535760003560e01c806355ed5fe81161014657806395d89b41116100c3578063c87b56dd11610087578063c87b56dd14610784578063d547741f146107b4578063e985e9c5146107d0578063ee7bf0ee14610800578063f2e0bc5814610830578063f851a4401461086057610253565b806395d89b41146106e0578063a217fddf146106fe578063a22cb4651461071c578063a5ddd28814610738578063b88d4fde1461076857610253565b8063832cc77e1161010a578063832cc77e14610626578063899f9d0d146106565780638c2717771461067457806391d1485414610692578063934b4af2146106c257610253565b806355ed5fe81461054857806357a00ccf146105785780635994d984146105a85780636352211e146105c657806370a08231146105f657610253565b806329acc209116101d457806340d097c31161019857806340d097c31461047e57806341cc7c73146104ae57806342842e0e146104de5780634ff7986e146104fa57806355b059e81461051857610253565b806329acc209146103c85780632a0acc6a146103f85780632b3dd38b146104165780632f2ff15d1461044657806336568abe1461046257610253565b80630cdb5cb51161021b5780630cdb5cb5146103225780632027d7461461034057806322f537ce1461035e57806323b872dd1461037c578063248a9ca31461039857610253565b806301ffc9a71461025857806306fdde0314610288578063081812fc146102a6578063081ba2d5146102d6578063095ea7b314610306575b600080fd5b610272600480360381019061026d91906135b8565b61087e565b60405161027f9190613600565b60405180910390f35b610290610890565b60405161029d91906136ab565b60405180910390f35b6102c060048036038101906102bb9190613703565b610922565b6040516102cd9190613771565b60405180910390f35b6102f060048036038101906102eb91906137b8565b61093e565b6040516102fd9190613600565b60405180910390f35b610320600480360381019061031b91906137e5565b610a4c565b005b61032a610a62565b604051610337919061383e565b60405180910390f35b610348610a86565b6040516103559190613868565b60405180910390f35b610366610b1e565b604051610373919061383e565b60405180910390f35b61039660048036038101906103919190613883565b610b42565b005b6103b260048036038101906103ad9190613902565b610c44565b6040516103bf919061383e565b60405180910390f35b6103e260048036038101906103dd91906137b8565b610c63565b6040516103ef9190613600565b60405180910390f35b610400610d71565b60405161040d919061383e565b60405180910390f35b610430600480360381019061042b91906139c0565b610d95565b60405161043d9190613600565b60405180910390f35b610460600480360381019061045b9190613a89565b610eb7565b005b61047c60048036038101906104779190613a89565b610ed9565b005b610498600480360381019061049391906137b8565b610f54565b6040516104a59190613868565b60405180910390f35b6104c860048036038101906104c39190613ba2565b610f83565b6040516104d59190613600565b60405180910390f35b6104f860048036038101906104f39190613883565b611082565b005b6105026110a2565b60405161050f9190613600565b60405180910390f35b610532600480360381019061052d9190613cc6565b6110a7565b60405161053f9190613600565b60405180910390f35b610562600480360381019061055d9190613cc6565b61122a565b60405161056f9190613600565b60405180910390f35b610592600480360381019061058d91906137b8565b6113b0565b60405161059f9190613f56565b60405180910390f35b6105b0611460565b6040516105bd9190613600565b60405180910390f35b6105e060048036038101906105db9190613703565b611465565b6040516105ed9190613771565b60405180910390f35b610610600480360381019061060b91906137b8565b611477565b60405161061d9190613868565b60405180910390f35b610640600480360381019061063b91906140a8565b611531565b60405161064d91906136ab565b60405180910390f35b61065e611543565b60405161066b9190613600565b60405180910390f35b61067c61154c565b6040516106899190613868565b60405180910390f35b6106ac60048036038101906106a79190613a89565b6115e4565b6040516106b99190613600565b60405180910390f35b6106ca61164e565b6040516106d7919061383e565b60405180910390f35b6106e8611672565b6040516106f591906136ab565b60405180910390f35b610706611704565b604051610713919061383e565b60405180910390f35b610736600480360381019061073191906140f1565b61170b565b005b610752600480360381019061074d91906137e5565b611721565b60405161075f9190613600565b60405180910390f35b610782600480360381019061077d9190614131565b611738565b005b61079e60048036038101906107999190613703565b61175d565b6040516107ab91906136ab565b60405180910390f35b6107ce60048036038101906107c99190613a89565b611894565b005b6107ea60048036038101906107e591906141b4565b6118b6565b6040516107f79190613600565b60405180910390f35b61081a600480360381019061081591906137b8565b61194a565b60405161082791906142a5565b60405180910390f35b61084a600480360381019061084591906139c0565b6119fa565b6040516108579190613600565b60405180910390f35b610868611b1c565b6040516108759190613771565b60405180910390f35b600061088982611b42565b9050919050565b60606001805461089f906142f6565b80601f01602080910402602001604051908101604052809291908181526020018280546108cb906142f6565b80156109185780601f106108ed57610100808354040283529160200191610918565b820191906000526020600020905b8154815290600101906020018083116108fb57829003601f168201915b5050505050905090565b600061092d82611b54565b5061093782611bdc565b9050919050565b60007fdf8b4c520ffe197c5343c6f5aec59570151ef9a492f2c624fd45ddde6135ec4261096a81611c19565b600860009054906101000a900473ffffffffffffffffffffffffffffffffffffffff1673ffffffffffffffffffffffffffffffffffffffff1663081ba2d5846040518263ffffffff1660e01b81526004016109c59190613771565b6020604051808303816000875af11580156109e4573d6000803e3d6000fd5b505050506040513d601f19601f82011682018060405250810190610a08919061433c565b507f188d8ca5695483231734d1734924f73ab34848f997f2de827c8f73033b4614ae8342604051610a3a929190614369565b60405180910390a16001915050919050565b610a5e8282610a59611c2d565b611c35565b5050565b7f61e6a4bb6bca8aa1f17c71895c1ab1bf9c06c812442a0a16aad9f0837c23ca7981565b6000600860009054906101000a900473ffffffffffffffffffffffffffffffffffffffff1673ffffffffffffffffffffffffffffffffffffffff16632027d7466040518163ffffffff1660e01b8152600401602060405180830381865afa158015610af5573d6000803e3d6000fd5b505050506040513d601f19601f82011682018060405250810190610b1991906143a7565b905090565b7faf6786efc154b345802554f1dea27e60ea4c3393b6b38eb8438e22c20e088bd281565b600073ffffffffffffffffffffffffffffffffffffffff168273ffffffffffffffffffffffffffffffffffffffff1603610bb45760006040517f64a0ae92000000000000000000000000000000000000000000000000000000008152600401610bab9190613771565b60405180910390fd5b6000610bc88383610bc3611c2d565b611c47565b90508373ffffffffffffffffffffffffffffffffffffffff168173ffffffffffffffffffffffffffffffffffffffff1614610c3e578382826040517f64283d7b000000000000000000000000000000000000000000000000000000008152600401610c35939291906143d4565b60405180910390fd5b50505050565b6000806000838152602001908152602001600020600101549050919050565b60007fdf8b4c520ffe197c5343c6f5aec59570151ef9a492f2c624fd45ddde6135ec42610c8f81611c19565b600860009054906101000a900473ffffffffffffffffffffffffffffffffffffffff1673ffffffffffffffffffffffffffffffffffffffff166329acc209846040518263ffffffff1660e01b8152600401610cea9190613771565b6020604051808303816000875af1158015610d09573d6000803e3d6000fd5b505050506040513d601f19601f82011682018060405250810190610d2d919061433c565b507f449422d37ad477a115e35ded9d4971e6ed3594f45df1408f1eb2320a8bc5c2b88342604051610d5f929190614369565b60405180910390a16001915050919050565b7fdf8b4c520ffe197c5343c6f5aec59570151ef9a492f2c624fd45ddde6135ec4281565b60007f61e6a4bb6bca8aa1f17c71895c1ab1bf9c06c812442a0a16aad9f0837c23ca79610dc181611c19565b600860009054906101000a900473ffffffffffffffffffffffffffffffffffffffff1673ffffffffffffffffffffffffffffffffffffffff1663a735e5de338b8b8b8b8b8b8b6040518963ffffffff1660e01b8152600401610e2a989796959493929190614438565b6020604051808303816000875af1158015610e49573d6000803e3d6000fd5b505050506040513d601f19601f82011682018060405250810190610e6d919061433c565b507fc21195a7f73acb0112d9942f6c5c02acc3d8d2c74ab81a6c28f4f492dac933b83342604051610e9f929190614369565b60405180910390a16001915050979650505050505050565b610ec082610c44565b610ec981611c19565b610ed38383611e61565b50505050565b610ee1611c2d565b73ffffffffffffffffffffffffffffffffffffffff168173ffffffffffffffffffffffffffffffffffffffff1614610f45576040517f6697b23200000000000000000000000000000000000000000000000000000000815260040160405180910390fd5b610f4f8282611f52565b505050565b60008060076000815480929190610f6a906144d5565b919050559050610f7a8382612044565b80915050919050565b60007f61e6a4bb6bca8aa1f17c71895c1ab1bf9c06c812442a0a16aad9f0837c23ca79610faf81611c19565b600860009054906101000a900473ffffffffffffffffffffffffffffffffffffffff1673ffffffffffffffffffffffffffffffffffffffff166364df69e78e8e8e8e8e8e8e8e8e8e8e6040518c63ffffffff1660e01b815260040161101e9b9a999897969594939291906146ae565b6020604051808303816000875af115801561103d573d6000803e3d6000fd5b505050506040513d601f19601f82011682018060405250810190611061919061433c565b5061106e33600754612044565b60019150509b9a5050505050505050505050565b61109d83838360405180602001604052806000815250611738565b505050565b600081565b60006110d37faf6786efc154b345802554f1dea27e60ea4c3393b6b38eb8438e22c20e088bd2336115e4565b1561110a576040517f937df23900000000000000000000000000000000000000000000000000000000815260040160405180910390fd5b6111347faf6786efc154b345802554f1dea27e60ea4c3393b6b38eb8438e22c20e088bd233611e61565b50600860009054906101000a900473ffffffffffffffffffffffffffffffffffffffff1673ffffffffffffffffffffffffffffffffffffffff16630f6a35403389898989898960016040518963ffffffff1660e01b815260040161119f989796959493929190614438565b6020604051808303816000875af11580156111be573d6000803e3d6000fd5b505050506040513d601f19601f820116820180604052508101906111e2919061433c565b507f9355f2ba77852e61793679ff03cf26231b8175fdfb97dc47490f1b151e6ab0d43342604051611214929190614369565b60405180910390a1600190509695505050505050565b60006112567f61e6a4bb6bca8aa1f17c71895c1ab1bf9c06c812442a0a16aad9f0837c23ca79336115e4565b1561128d576040517f9e5ae09300000000000000000000000000000000000000000000000000000000815260040160405180910390fd5b6112b77f61e6a4bb6bca8aa1f17c71895c1ab1bf9c06c812442a0a16aad9f0837c23ca7933611e61565b50600860009054906101000a900473ffffffffffffffffffffffffffffffffffffffff1673ffffffffffffffffffffffffffffffffffffffff16637208ca1933898989898989600060016040518a63ffffffff1660e01b815260040161132599989796959493929190614741565b6020604051808303816000875af1158015611344573d6000803e3d6000fd5b505050506040513d601f19601f82011682018060405250810190611368919061433c565b507fa12abd8201760a4e094635a878d94e4e31ee41204057e1ba4081b4c8ba7df8a8334260405161139a929190614369565b60405180910390a1600190509695505050505050565b6113b86134c4565b600860009054906101000a900473ffffffffffffffffffffffffffffffffffffffff1673ffffffffffffffffffffffffffffffffffffffff166357a00ccf836040518263ffffffff1660e01b81526004016114139190613771565b600060405180830381865afa158015611430573d6000803e3d6000fd5b505050506040513d6000823e3d601f19601f820116820180604052508101906114599190614a65565b9050919050565b600181565b600061147082611b54565b9050919050565b60008073ffffffffffffffffffffffffffffffffffffffff168273ffffffffffffffffffffffffffffffffffffffff16036114ea5760006040517f89c62b640000000000000000000000000000000000000000000000000000000081526004016114e19190613771565b60405180910390fd5b600460008373ffffffffffffffffffffffffffffffffffffffff1673ffffffffffffffffffffffffffffffffffffffff168152602001908152602001600020549050919050565b606061153c82612062565b9050919050565b60006001905090565b6000600860009054906101000a900473ffffffffffffffffffffffffffffffffffffffff1673ffffffffffffffffffffffffffffffffffffffff16638c2717776040518163ffffffff1660e01b8152600401602060405180830381865afa1580156115bb573d6000803e3d6000fd5b505050506040513d601f19601f820116820180604052508101906115df91906143a7565b905090565b600080600084815260200190815260200160002060000160008373ffffffffffffffffffffffffffffffffffffffff1673ffffffffffffffffffffffffffffffffffffffff16815260200190815260200160002060009054906101000a900460ff16905092915050565b7f8c6ae1b8cac4c99ac9b51ba2b44ec85e94139863fa8d7f1ab8f7e39763b3db4e81565b606060028054611681906142f6565b80601f01602080910402602001604051908101604052809291908181526020018280546116ad906142f6565b80156116fa5780601f106116cf576101008083540402835291602001916116fa565b820191906000526020600020905b8154815290600101906020018083116116dd57829003601f168201915b5050505050905090565b6000801b81565b61171d611716611c2d565b83836121f9565b5050565b600061172e338484612368565b6001905092915050565b611743848484610b42565b61175761174e611c2d565b858585856124d5565b50505050565b6060600754821061179a576040517fceea21b600000000000000000000000000000000000000000000000000000000815260040160405180910390fd5b6040518060400160405280601d81526020017f646174613a6170706c69636174696f6e2f6a736f6e3b6261736536342c00000081525061186d604051806060016040528060258152602001615891602591396117f585612686565b6117fe86612754565b61180f61180a88612961565b612062565b6040518060400160405280600281526020017f227d000000000000000000000000000000000000000000000000000000000000815250604051602001611859959493929190614aea565b604051602081830303815290604052612062565b60405160200161187e929190614b35565b6040516020818303038152906040529050919050565b61189d82610c44565b6118a681611c19565b6118b08383611f52565b50505050565b6000600660008473ffffffffffffffffffffffffffffffffffffffff1673ffffffffffffffffffffffffffffffffffffffff16815260200190815260200160002060008373ffffffffffffffffffffffffffffffffffffffff1673ffffffffffffffffffffffffffffffffffffffff16815260200190815260200160002060009054906101000a900460ff16905092915050565b61195261350d565b600860009054906101000a900473ffffffffffffffffffffffffffffffffffffffff1673ffffffffffffffffffffffffffffffffffffffff1663ee7bf0ee836040518263ffffffff1660e01b81526004016119ad9190613771565b600060405180830381865afa1580156119ca573d6000803e3d6000fd5b505050506040513d6000823e3d601f19601f820116820180604052508101906119f39190614c7d565b9050919050565b60007faf6786efc154b345802554f1dea27e60ea4c3393b6b38eb8438e22c20e088bd2611a2681611c19565b600860009054906101000a900473ffffffffffffffffffffffffffffffffffffffff1673ffffffffffffffffffffffffffffffffffffffff1663dfd49f25338b8b8b8b8b8b8b6040518963ffffffff1660e01b8152600401611a8f989796959493929190614438565b6020604051808303816000875af1158015611aae573d6000803e3d6000fd5b505050506040513d601f19601f82011682018060405250810190611ad2919061433c565b507f3e981d6fd4c5bd91ef3f68ca28a36322130d52221ab7319ae700e4c417dcc8e33342604051611b04929190614369565b60405180910390a16001915050979650505050505050565b600960009054906101000a900473ffffffffffffffffffffffffffffffffffffffff1681565b6000611b4d82612cb6565b9050919050565b600080611b6083612d98565b9050600073ffffffffffffffffffffffffffffffffffffffff168173ffffffffffffffffffffffffffffffffffffffff1603611bd357826040517f7e273289000000000000000000000000000000000000000000000000000000008152600401611bca9190613868565b60405180910390fd5b80915050919050565b60006005600083815260200190815260200160002060009054906101000a900473ffffffffffffffffffffffffffffffffffffffff169050919050565b611c2a81611c25611c2d565b612dd5565b50565b600033905090565b611c428383836001612e26565b505050565b600080611c5384612d98565b9050600073ffffffffffffffffffffffffffffffffffffffff168373ffffffffffffffffffffffffffffffffffffffff1614611c9557611c94818486612feb565b5b600073ffffffffffffffffffffffffffffffffffffffff168173ffffffffffffffffffffffffffffffffffffffff1614611d2657611cd7600085600080612e26565b6001600460008373ffffffffffffffffffffffffffffffffffffffff1673ffffffffffffffffffffffffffffffffffffffff168152602001908152602001600020600082825403925050819055505b600073ffffffffffffffffffffffffffffffffffffffff168573ffffffffffffffffffffffffffffffffffffffff1614611da9576001600460008773ffffffffffffffffffffffffffffffffffffffff1673ffffffffffffffffffffffffffffffffffffffff168152602001908152602001600020600082825401925050819055505b846003600086815260200190815260200160002060006101000a81548173ffffffffffffffffffffffffffffffffffffffff021916908373ffffffffffffffffffffffffffffffffffffffff160217905550838573ffffffffffffffffffffffffffffffffffffffff168273ffffffffffffffffffffffffffffffffffffffff167fddf252ad1be2c89b69c2b068fc378daa952ba7f163c4a11628f55a4df523b3ef60405160405180910390a4809150509392505050565b6000611e6d83836115e4565b611f4757600160008085815260200190815260200160002060000160008473ffffffffffffffffffffffffffffffffffffffff1673ffffffffffffffffffffffffffffffffffffffff16815260200190815260200160002060006101000a81548160ff021916908315150217905550611ee4611c2d565b73ffffffffffffffffffffffffffffffffffffffff168273ffffffffffffffffffffffffffffffffffffffff16847f2f8788117e7eff1d82e926ec794901d17c78024a50270940304540a733656f0d60405160405180910390a460019050611f4c565b600090505b92915050565b6000611f5e83836115e4565b1561203957600080600085815260200190815260200160002060000160008473ffffffffffffffffffffffffffffffffffffffff1673ffffffffffffffffffffffffffffffffffffffff16815260200190815260200160002060006101000a81548160ff021916908315150217905550611fd6611c2d565b73ffffffffffffffffffffffffffffffffffffffff168273ffffffffffffffffffffffffffffffffffffffff16847ff6391f5c32d9c69d2a47ea670b442974b53935d1edc7fd64eb21e047a839171b60405160405180910390a46001905061203e565b600090505b92915050565b61205e8282604051806020016040528060008152506130af565b5050565b60606000825190506000810361208a57604051806020016040528060008152509150506121f4565b6000600360028361209b9190614cc6565b6120a59190614d29565b60046120b19190614d5a565b905060006020826120c29190614cc6565b67ffffffffffffffff8111156120db576120da613f7d565b5b6040519080825280601f01601f19166020018201604052801561210d5781602001600182028036833780820191505090505b5090506000604051806060016040528060408152602001615641604091399050600181016020830160005b868110156121b15760038101905062ffffff818a015116603f8160121c168401518060081b905060ff603f83600c1c1686015116810190508060081b905060ff603f8360061c1686015116810190508060081b905060ff603f831686015116810190508060e01b90508084526004840193505050612138565b5060038606600181146121cb57600281146121db576121e6565b613d3d60f01b60028303526121e6565b603d60f81b60018303525b508484525050819450505050505b919050565b600073ffffffffffffffffffffffffffffffffffffffff168273ffffffffffffffffffffffffffffffffffffffff160361226a57816040517f5b08ba180000000000000000000000000000000000000000000000000000000081526004016122619190613771565b60405180910390fd5b80600660008573ffffffffffffffffffffffffffffffffffffffff1673ffffffffffffffffffffffffffffffffffffffff16815260200190815260200160002060008473ffffffffffffffffffffffffffffffffffffffff1673ffffffffffffffffffffffffffffffffffffffff16815260200190815260200160002060006101000a81548160ff0219169083151502179055508173ffffffffffffffffffffffffffffffffffffffff168373ffffffffffffffffffffffffffffffffffffffff167f17307eab39ab6107e8899845ad3d59bd9653f200f220920489ca2b5937696c318360405161235b9190613600565b60405180910390a3505050565b600073ffffffffffffffffffffffffffffffffffffffff168273ffffffffffffffffffffffffffffffffffffffff16036123da5760006040517f64a0ae920000000000000000000000000000000000000000000000000000000081526004016123d19190613771565b60405180910390fd5b60006123e883836000611c47565b9050600073ffffffffffffffffffffffffffffffffffffffff168173ffffffffffffffffffffffffffffffffffffffff160361245b57816040517f7e2732890000000000000000000000000000000000000000000000000000000081526004016124529190613868565b60405180910390fd5b8373ffffffffffffffffffffffffffffffffffffffff168173ffffffffffffffffffffffffffffffffffffffff16146124cf578382826040517f64283d7b0000000000000000000000000000000000000000000000000000000081526004016124c6939291906143d4565b60405180910390fd5b50505050565b60008373ffffffffffffffffffffffffffffffffffffffff163b111561267f578273ffffffffffffffffffffffffffffffffffffffff1663150b7a02868685856040518563ffffffff1660e01b81526004016125349493929190614df1565b6020604051808303816000875af192505050801561257057506040513d601f19601f8201168201806040525081019061256d9190614e52565b60015b6125f4573d80600081146125a0576040519150601f19603f3d011682016040523d82523d6000602084013e6125a5565b606091505b5060008151036125ec57836040517f64a0ae920000000000000000000000000000000000000000000000000000000081526004016125e39190613771565b60405180910390fd5b805181602001fd5b63150b7a0260e01b7bffffffffffffffffffffffffffffffffffffffffffffffffffffffff1916817bffffffffffffffffffffffffffffffffffffffffffffffffffffffff19161461267d57836040517f64a0ae920000000000000000000000000000000000000000000000000000000081526004016126749190613771565b60405180910390fd5b505b5050505050565b606060006001612695846130d3565b01905060008167ffffffffffffffff8111156126b4576126b3613f7d565b5b6040519080825280601f01601f1916602001820160405280156126e65781602001600182028036833780820191505090505b509050600082602001820190505b600115612749578080600190039150507f3031323334353637383961626364656600000000000000000000000000000000600a86061a8153600a858161273d5761273c614cfa565b5b049450600085036126f4575b819350505050919050565b60606000600860009054906101000a900473ffffffffffffffffffffffffffffffffffffffff1673ffffffffffffffffffffffffffffffffffffffff1663bab859a5846040518263ffffffff1660e01b81526004016127b39190613868565b600060405180830381865afa1580156127d0573d6000803e3d6000fd5b505050506040513d6000823e3d601f19601f820116820180604052508101906127f991906150d1565b90506000604051806060016040528060398152602001615466603991398260e001516040518060600160405280602b8152602001615681602b9139846040015160008151811061284c5761284b61511a565b5b60200260200101516040518060600160405280602c81526020016158e5602c913986606001516000815181106128855761288461511a565b5b60200260200101516040516020016128a29695949392919061517f565b6040516020818303038152906040529050806040518060600160405280602c81526020016153c8602c91396128dd846080015160ff16612686565b604051806060016040528060288152602001615353602891398560a001516040518060600160405280602f81526020016158b6602f91398760c001516040518060600160405280602881526020016152d4602891396040516020016129499897969594939291906151f6565b60405160208183030381529060405292505050919050565b6060600060405160200160405160208183030381529060405290506040518060800160405280605781526020016152fc605791396040518060a00160405280606e815260200161551b606e91396040518060a00160405280607981526020016157b2607991396040518060400160405280601781526020017f43657274696669636174204e46542064652042696a6f750000000000000000008152506040518060400160405280600781526020017f3c2f746578743e00000000000000000000000000000000000000000000000000815250604051602001612a47959493929190614aea565b6040516020818303038152906040529050806040518060800160405280605d81526020016156ac605d91396040518060800160405280605c8152602001615709605c91396040518060a00160405280607281526020016153f4607291396040518060800160405280604d81526020016155f4604d9139604051602001612ad1959493929190614aea565b6040516020818303038152906040529050806040518060800160405280604d815260200161537b604d91396040518060800160405280604d8152602001615765604d91396040518060a00160405280607c815260200161549f607c91396040518060400160405280600981526020017f476f6c64436861696e0000000000000000000000000000000000000000000000815250604051602001612b78959493929190614aea565b6040516020818303038152906040529050806040518060400160405280600781526020017f3c2f746578743e000000000000000000000000000000000000000000000000008152506040518060a00160405280606b8152602001615589606b91396040518060a001604052806066815260200161582b60669139604051602001612c05949392919061526c565b6040516020818303038152906040529050806040518060400160405280600781526020017f3c2f746578743e00000000000000000000000000000000000000000000000000815250612c5685612686565b6040518060400160405280600681526020017f3c2f7376673e0000000000000000000000000000000000000000000000000000815250604051602001612c9f949392919061526c565b604051602081830303815290604052915050919050565b60007f80ac58cd000000000000000000000000000000000000000000000000000000007bffffffffffffffffffffffffffffffffffffffffffffffffffffffff1916827bffffffffffffffffffffffffffffffffffffffffffffffffffffffff19161480612d8157507f5b5e139f000000000000000000000000000000000000000000000000000000007bffffffffffffffffffffffffffffffffffffffffffffffffffffffff1916827bffffffffffffffffffffffffffffffffffffffffffffffffffffffff1916145b80612d915750612d9082613226565b5b9050919050565b60006003600083815260200190815260200160002060009054906101000a900473ffffffffffffffffffffffffffffffffffffffff169050919050565b612ddf82826115e4565b612e225780826040517fe2517d3f000000000000000000000000000000000000000000000000000000008152600401612e199291906152aa565b60405180910390fd5b5050565b8080612e5f5750600073ffffffffffffffffffffffffffffffffffffffff168273ffffffffffffffffffffffffffffffffffffffff1614155b15612f93576000612e6f84611b54565b9050600073ffffffffffffffffffffffffffffffffffffffff168373ffffffffffffffffffffffffffffffffffffffff1614158015612eda57508273ffffffffffffffffffffffffffffffffffffffff168173ffffffffffffffffffffffffffffffffffffffff1614155b8015612eed5750612eeb81846118b6565b155b15612f2f57826040517fa9fbf51f000000000000000000000000000000000000000000000000000000008152600401612f269190613771565b60405180910390fd5b8115612f9157838573ffffffffffffffffffffffffffffffffffffffff168273ffffffffffffffffffffffffffffffffffffffff167f8c5be1e5ebec7d5bd14f71427d1e84f3dd0314c0f7b2291e5b200ac8c7c3b92560405160405180910390a45b505b836005600085815260200190815260200160002060006101000a81548173ffffffffffffffffffffffffffffffffffffffff021916908373ffffffffffffffffffffffffffffffffffffffff16021790555050505050565b612ff68383836132a0565b6130aa57600073ffffffffffffffffffffffffffffffffffffffff168373ffffffffffffffffffffffffffffffffffffffff160361306b57806040517f7e2732890000000000000000000000000000000000000000000000000000000081526004016130629190613868565b60405180910390fd5b81816040517f177e802f0000000000000000000000000000000000000000000000000000000081526004016130a1929190614369565b60405180910390fd5b505050565b6130b98383613361565b6130ce6130c4611c2d565b60008585856124d5565b505050565b600080600090507a184f03e93ff9f4daa797ed6e38ed64bf6a1f0100000000000000008310613131577a184f03e93ff9f4daa797ed6e38ed64bf6a1f010000000000000000838161312757613126614cfa565b5b0492506040810190505b6d04ee2d6d415b85acef8100000000831061316e576d04ee2d6d415b85acef8100000000838161316457613163614cfa565b5b0492506020810190505b662386f26fc10000831061319d57662386f26fc10000838161319357613192614cfa565b5b0492506010810190505b6305f5e10083106131c6576305f5e10083816131bc576131bb614cfa565b5b0492506008810190505b61271083106131eb5761271083816131e1576131e0614cfa565b5b0492506004810190505b6064831061320e576064838161320457613203614cfa565b5b0492506002810190505b600a831061321d576001810190505b80915050919050565b60007f7965db0b000000000000000000000000000000000000000000000000000000007bffffffffffffffffffffffffffffffffffffffffffffffffffffffff1916827bffffffffffffffffffffffffffffffffffffffffffffffffffffffff1916148061329957506132988261345a565b5b9050919050565b60008073ffffffffffffffffffffffffffffffffffffffff168373ffffffffffffffffffffffffffffffffffffffff161415801561335857508273ffffffffffffffffffffffffffffffffffffffff168473ffffffffffffffffffffffffffffffffffffffff161480613319575061331884846118b6565b5b8061335757508273ffffffffffffffffffffffffffffffffffffffff1661333f83611bdc565b73ffffffffffffffffffffffffffffffffffffffff16145b5b90509392505050565b600073ffffffffffffffffffffffffffffffffffffffff168273ffffffffffffffffffffffffffffffffffffffff16036133d35760006040517f64a0ae920000000000000000000000000000000000000000000000000000000081526004016133ca9190613771565b60405180910390fd5b60006133e183836000611c47565b9050600073ffffffffffffffffffffffffffffffffffffffff168173ffffffffffffffffffffffffffffffffffffffff16146134555760006040517f73c6ac6e00000000000000000000000000000000000000000000000000000000815260040161344c9190613771565b60405180910390fd5b505050565b60007f01ffc9a7000000000000000000000000000000000000000000000000000000007bffffffffffffffffffffffffffffffffffffffffffffffffffffffff1916827bffffffffffffffffffffffffffffffffffffffffffffffffffffffff1916149050919050565b6040518061010001604052806000815260200160008152602001606081526020016060815260200160608152602001606081526020016000151581526020016000151581525090565b6040518060e001604052806000815260200160008152602001606081526020016060815260200160608152602001600015158152602001606081525090565b6000604051905090565b600080fd5b600080fd5b60007fffffffff0000000000000000000000000000000000000000000000000000000082169050919050565b61359581613560565b81146135a057600080fd5b50565b6000813590506135b28161358c565b92915050565b6000602082840312156135ce576135cd613556565b5b60006135dc848285016135a3565b91505092915050565b60008115159050919050565b6135fa816135e5565b82525050565b600060208201905061361560008301846135f1565b92915050565b600081519050919050565b600082825260208201905092915050565b60005b8381101561365557808201518184015260208101905061363a565b60008484015250505050565b6000601f19601f8301169050919050565b600061367d8261361b565b6136878185613626565b9350613697818560208601613637565b6136a081613661565b840191505092915050565b600060208201905081810360008301526136c58184613672565b905092915050565b6000819050919050565b6136e0816136cd565b81146136eb57600080fd5b50565b6000813590506136fd816136d7565b92915050565b60006020828403121561371957613718613556565b5b6000613727848285016136ee565b91505092915050565b600073ffffffffffffffffffffffffffffffffffffffff82169050919050565b600061375b82613730565b9050919050565b61376b81613750565b82525050565b60006020820190506137866000830184613762565b92915050565b61379581613750565b81146137a057600080fd5b50565b6000813590506137b28161378c565b92915050565b6000602082840312156137ce576137cd613556565b5b60006137dc848285016137a3565b91505092915050565b600080604083850312156137fc576137fb613556565b5b600061380a858286016137a3565b925050602061381b858286016136ee565b9150509250929050565b6000819050919050565b61383881613825565b82525050565b6000602082019050613853600083018461382f565b92915050565b613862816136cd565b82525050565b600060208201905061387d6000830184613859565b92915050565b60008060006060848603121561389c5761389b613556565b5b60006138aa868287016137a3565b93505060206138bb868287016137a3565b92505060406138cc868287016136ee565b9150509250925092565b6138df81613825565b81146138ea57600080fd5b50565b6000813590506138fc816138d6565b92915050565b60006020828403121561391857613917613556565b5b6000613926848285016138ed565b91505092915050565b600080fd5b600080fd5b600080fd5b60008083601f8401126139545761395361392f565b5b8235905067ffffffffffffffff81111561397157613970613934565b5b60208301915083600182028301111561398d5761398c613939565b5b9250929050565b61399d816135e5565b81146139a857600080fd5b50565b6000813590506139ba81613994565b92915050565b60008060008060008060006080888a0312156139df576139de613556565b5b600088013567ffffffffffffffff8111156139fd576139fc61355b565b5b613a098a828b0161393e565b9750975050602088013567ffffffffffffffff811115613a2c57613a2b61355b565b5b613a388a828b0161393e565b9550955050604088013567ffffffffffffffff811115613a5b57613a5a61355b565b5b613a678a828b0161393e565b93509350506060613a7a8a828b016139ab565b91505092959891949750929550565b60008060408385031215613aa057613a9f613556565b5b6000613aae858286016138ed565b9250506020613abf858286016137a3565b9150509250929050565b60008083601f840112613adf57613ade61392f565b5b8235905067ffffffffffffffff811115613afc57613afb613934565b5b602083019150836020820283011115613b1857613b17613939565b5b9250929050565b600060ff82169050919050565b613b3581613b1f565b8114613b4057600080fd5b50565b600081359050613b5281613b2c565b92915050565b60048110613b6557600080fd5b50565b600081359050613b7781613b58565b92915050565b60058110613b8a57600080fd5b50565b600081359050613b9c81613b7d565b92915050565b600080600080600080600080600080600060e08c8e031215613bc757613bc6613556565b5b60008c013567ffffffffffffffff811115613be557613be461355b565b5b613bf18e828f01613ac9565b9b509b505060208c013567ffffffffffffffff811115613c1457613c1361355b565b5b613c208e828f01613ac9565b99509950506040613c338e828f01613b43565b97505060608c013567ffffffffffffffff811115613c5457613c5361355b565b5b613c608e828f0161393e565b96509650506080613c738e828f01613b68565b94505060a08c013567ffffffffffffffff811115613c9457613c9361355b565b5b613ca08e828f0161393e565b935093505060c0613cb38e828f01613b8d565b9150509295989b509295989b9093969950565b60008060008060008060608789031215613ce357613ce2613556565b5b600087013567ffffffffffffffff811115613d0157613d0061355b565b5b613d0d89828a0161393e565b9650965050602087013567ffffffffffffffff811115613d3057613d2f61355b565b5b613d3c89828a0161393e565b9450945050604087013567ffffffffffffffff811115613d5f57613d5e61355b565b5b613d6b89828a0161393e565b92509250509295509295509295565b613d83816136cd565b82525050565b600082825260208201905092915050565b6000613da58261361b565b613daf8185613d89565b9350613dbf818560208601613637565b613dc881613661565b840191505092915050565b600081519050919050565b600082825260208201905092915050565b6000819050602082019050919050565b6000613e0b8383613d7a565b60208301905092915050565b6000602082019050919050565b6000613e2f82613dd3565b613e398185613dde565b9350613e4483613def565b8060005b83811015613e75578151613e5c8882613dff565b9750613e6783613e17565b925050600181019050613e48565b5085935050505092915050565b613e8b816135e5565b82525050565b600061010083016000830151613eaa6000860182613d7a565b506020830151613ebd6020860182613d7a565b5060408301518482036040860152613ed58282613d9a565b91505060608301518482036060860152613eef8282613d9a565b91505060808301518482036080860152613f098282613d9a565b91505060a083015184820360a0860152613f238282613e24565b91505060c0830151613f3860c0860182613e82565b5060e0830151613f4b60e0860182613e82565b508091505092915050565b60006020820190508181036000830152613f708184613e91565b905092915050565b600080fd5b7f4e487b7100000000000000000000000000000000000000000000000000000000600052604160045260246000fd5b613fb582613661565b810181811067ffffffffffffffff82111715613fd457613fd3613f7d565b5b80604052505050565b6000613fe761354c565b9050613ff38282613fac565b919050565b600067ffffffffffffffff82111561401357614012613f7d565b5b61401c82613661565b9050602081019050919050565b82818337600083830152505050565b600061404b61404684613ff8565b613fdd565b90508281526020810184848401111561406757614066613f78565b5b614072848285614029565b509392505050565b600082601f83011261408f5761408e61392f565b5b813561409f848260208601614038565b91505092915050565b6000602082840312156140be576140bd613556565b5b600082013567ffffffffffffffff8111156140dc576140db61355b565b5b6140e88482850161407a565b91505092915050565b6000806040838503121561410857614107613556565b5b6000614116858286016137a3565b9250506020614127858286016139ab565b9150509250929050565b6000806000806080858703121561414b5761414a613556565b5b6000614159878288016137a3565b945050602061416a878288016137a3565b935050604061417b878288016136ee565b925050606085013567ffffffffffffffff81111561419c5761419b61355b565b5b6141a88782880161407a565b91505092959194509250565b600080604083850312156141cb576141ca613556565b5b60006141d9858286016137a3565b92505060206141ea858286016137a3565b9150509250929050565b600060e08301600083015161420c6000860182613d7a565b50602083015161421f6020860182613d7a565b50604083015184820360408601526142378282613d9a565b915050606083015184820360608601526142518282613d9a565b9150506080830151848203608086015261426b8282613d9a565b91505060a083015161428060a0860182613e82565b5060c083015184820360c08601526142988282613e24565b9150508091505092915050565b600060208201905081810360008301526142bf81846141f4565b905092915050565b7f4e487b7100000000000000000000000000000000000000000000000000000000600052602260045260246000fd5b6000600282049050600182168061430e57607f821691505b602082108103614321576143206142c7565b5b50919050565b60008151905061433681613994565b92915050565b60006020828403121561435257614351613556565b5b600061436084828501614327565b91505092915050565b600060408201905061437e6000830185613762565b61438b6020830184613859565b9392505050565b6000815190506143a1816136d7565b92915050565b6000602082840312156143bd576143bc613556565b5b60006143cb84828501614392565b91505092915050565b60006060820190506143e96000830186613762565b6143f66020830185613859565b6144036040830184613762565b949350505050565b60006144178385613626565b9350614424838584614029565b61442d83613661565b840190509392505050565b600060a08201905061444d600083018b613762565b818103602083015261446081898b61440b565b9050818103604083015261447581878961440b565b9050818103606083015261448a81858761440b565b905061449960808301846135f1565b9998505050505050505050565b7f4e487b7100000000000000000000000000000000000000000000000000000000600052601160045260246000fd5b60006144e0826136cd565b91507fffffffffffffffffffffffffffffffffffffffffffffffffffffffffffffffff8203614512576145116144a6565b5b600182019050919050565b600082825260208201905092915050565b6000819050919050565b61454181613b1f565b82525050565b60006145538383614538565b60208301905092915050565b600061456e6020840184613b43565b905092915050565b6000602082019050919050565b600061458f838561451d565b935061459a8261452e565b8060005b858110156145d3576145b0828461455f565b6145ba8882614547565b97506145c583614576565b92505060018101905061459e565b5085925050509392505050565b6145e981613b1f565b82525050565b7f4e487b7100000000000000000000000000000000000000000000000000000000600052602160045260246000fd5b6004811061462f5761462e6145ef565b5b50565b60008190506146408261461e565b919050565b600061465082614632565b9050919050565b61466081614645565b82525050565b60058110614677576146766145ef565b5b50565b600081905061468882614666565b919050565b60006146988261467a565b9050919050565b6146a88161468d565b82525050565b600060e08201905081810360008301526146c9818d8f614583565b905081810360208301526146de818b8d614583565b90506146ed604083018a6145e0565b818103606083015261470081888a61440b565b905061470f6080830187614657565b81810360a083015261472281858761440b565b905061473160c083018461469f565b9c9b505050505050505050505050565b600060c082019050614756600083018c613762565b8181036020830152614769818a8c61440b565b9050818103604083015261477e81888a61440b565b9050818103606083015261479381868861440b565b90506147a260808301856135f1565b6147af60a08301846135f1565b9a9950505050505050505050565b600080fd5b600080fd5b600067ffffffffffffffff8211156147e2576147e1613f7d565b5b6147eb82613661565b9050602081019050919050565b600061480b614806846147c7565b613fdd565b90508281526020810184848401111561482757614826613f78565b5b614832848285613637565b509392505050565b600082601f83011261484f5761484e61392f565b5b815161485f8482602086016147f8565b91505092915050565b600067ffffffffffffffff82111561488357614882613f7d565b5b602082029050602081019050919050565b60006148a76148a284614868565b613fdd565b905080838252602082019050602084028301858111156148ca576148c9613939565b5b835b818110156148f357806148df8882614392565b8452602084019350506020810190506148cc565b5050509392505050565b600082601f8301126149125761491161392f565b5b8151614922848260208601614894565b91505092915050565b60006101008284031215614942576149416147bd565b5b61494d610100613fdd565b9050600061495d84828501614392565b600083015250602061497184828501614392565b602083015250604082015167ffffffffffffffff811115614995576149946147c2565b5b6149a18482850161483a565b604083015250606082015167ffffffffffffffff8111156149c5576149c46147c2565b5b6149d18482850161483a565b606083015250608082015167ffffffffffffffff8111156149f5576149f46147c2565b5b614a018482850161483a565b60808301525060a082015167ffffffffffffffff811115614a2557614a246147c2565b5b614a31848285016148fd565b60a08301525060c0614a4584828501614327565b60c08301525060e0614a5984828501614327565b60e08301525092915050565b600060208284031215614a7b57614a7a613556565b5b600082015167ffffffffffffffff811115614a9957614a9861355b565b5b614aa58482850161492b565b91505092915050565b600081905092915050565b6000614ac48261361b565b614ace8185614aae565b9350614ade818560208601613637565b80840191505092915050565b6000614af68288614ab9565b9150614b028287614ab9565b9150614b0e8286614ab9565b9150614b1a8285614ab9565b9150614b268284614ab9565b91508190509695505050505050565b6000614b418285614ab9565b9150614b4d8284614ab9565b91508190509392505050565b600060e08284031215614b6f57614b6e6147bd565b5b614b7960e0613fdd565b90506000614b8984828501614392565b6000830152506020614b9d84828501614392565b602083015250604082015167ffffffffffffffff811115614bc157614bc06147c2565b5b614bcd8482850161483a565b604083015250606082015167ffffffffffffffff811115614bf157614bf06147c2565b5b614bfd8482850161483a565b606083015250608082015167ffffffffffffffff811115614c2157614c206147c2565b5b614c2d8482850161483a565b60808301525060a0614c4184828501614327565b60a08301525060c082015167ffffffffffffffff811115614c6557614c646147c2565b5b614c71848285016148fd565b60c08301525092915050565b600060208284031215614c9357614c92613556565b5b600082015167ffffffffffffffff811115614cb157614cb061355b565b5b614cbd84828501614b59565b91505092915050565b6000614cd1826136cd565b9150614cdc836136cd565b9250828201905080821115614cf457614cf36144a6565b5b92915050565b7f4e487b7100000000000000000000000000000000000000000000000000000000600052601260045260246000fd5b6000614d34826136cd565b9150614d3f836136cd565b925082614d4f57614d4e614cfa565b5b828204905092915050565b6000614d65826136cd565b9150614d70836136cd565b9250828202614d7e816136cd565b91508282048414831517614d9557614d946144a6565b5b5092915050565b600081519050919050565b600082825260208201905092915050565b6000614dc382614d9c565b614dcd8185614da7565b9350614ddd818560208601613637565b614de681613661565b840191505092915050565b6000608082019050614e066000830187613762565b614e136020830186613762565b614e206040830185613859565b8181036060830152614e328184614db8565b905095945050505050565b600081519050614e4c8161358c565b92915050565b600060208284031215614e6857614e67613556565b5b6000614e7684828501614e3d565b91505092915050565b600067ffffffffffffffff821115614e9a57614e99613f7d565b5b602082029050602081019050919050565b600081519050614eba81613b2c565b92915050565b6000614ed3614ece84614e7f565b613fdd565b90508083825260208201905060208402830185811115614ef657614ef5613939565b5b835b81811015614f1f5780614f0b8882614eab565b845260208401935050602081019050614ef8565b5050509392505050565b600082601f830112614f3e57614f3d61392f565b5b8151614f4e848260208601614ec0565b91505092915050565b600081519050614f6681613b58565b92915050565b600081519050614f7b81613b7d565b92915050565b60006101208284031215614f9857614f976147bd565b5b614fa3610120613fdd565b90506000614fb384828501614392565b6000830152506020614fc784828501614392565b602083015250604082015167ffffffffffffffff811115614feb57614fea6147c2565b5b614ff784828501614f29565b604083015250606082015167ffffffffffffffff81111561501b5761501a6147c2565b5b61502784828501614f29565b606083015250608061503b84828501614eab565b60808301525060a082015167ffffffffffffffff81111561505f5761505e6147c2565b5b61506b8482850161483a565b60a08301525060c061507f84828501614f57565b60c08301525060e082015167ffffffffffffffff8111156150a3576150a26147c2565b5b6150af8482850161483a565b60e0830152506101006150c484828501614f6c565b6101008301525092915050565b6000602082840312156150e7576150e6613556565b5b600082015167ffffffffffffffff8111156151055761510461355b565b5b61511184828501614f81565b91505092915050565b7f4e487b7100000000000000000000000000000000000000000000000000000000600052603260045260246000fd5b60008160f81b9050919050565b600061516182615149565b9050919050565b61517961517482613b1f565b615156565b82525050565b600061518b8289614ab9565b91506151978288614ab9565b91506151a38287614ab9565b91506151af8286615168565b6001820191506151bf8285614ab9565b91506151cb8284615168565b600182019150819050979650505050505050565b6151f06151eb82614645565b615156565b82525050565b6000615202828b614ab9565b915061520e828a614ab9565b915061521a8289614ab9565b91506152268288614ab9565b91506152328287614ab9565b915061523e8286614ab9565b915061524a82856151df565b60018201915061525a8284614ab9565b91508190509998505050505050505050565b60006152788287614ab9565b91506152848286614ab9565b91506152908285614ab9565b915061529c8284614ab9565b915081905095945050505050565b60006040820190506152bf6000830185613762565b6152cc602083018461382f565b939250505056fe227d5d2c22696d616765223a2022646174613a696d6167652f7376672b786d6c3b6261736536342c3c7376672077696474683d2238303022206865696768743d22383030222076696577426f783d2230203020383030203830302220786d6c6e733d22687474703a2f2f7777772e77332e6f72672f323030302f737667223e227d2c7b2274726169745f74797065223a20226d61696e436f6c6f72222c2276616c7565223a20223c6c696e652078313d22333330222079313d22333030222078323d22343730222079323d2233383022207374726f6b653d222338613666333022207374726f6b652d77696474683d2233222f3e227d2c7b2274726169745f74797065223a2022776569676874496e4772616d73222c2276616c7565223a20223c706f6c79676f6e20706f696e74733d223430302c323530203437302c333030203437302c333830203430302c343330203333302c333830203333302c333030222066696c6c3d22776869746522207374726f6b653d222338613666333022207374726f6b652d77696474683d2235222f3e222c202261747472696275746573223a205b7b2274726169745f74797065223a20224a6577656c65724e616d65222c2276616c7565223a20223c7465787420783d223530252220793d223630302220666f6e742d73697a653d2234302220666f6e742d66616d696c793d22417269616c2c2073616e732d73657269662220666f6e742d7765696768743d22626f6c64222066696c6c3d22236434616633372220746578742d616e63686f723d226d6964646c65223e3c7265637420783d22302220793d2230222077696474683d2238303022206865696768743d22383030222066696c6c3d222366386639666122207374726f6b653d222364346166333722207374726f6b652d77696474683d223130222072783d223230222072793d223230222f3e3c7265637420783d223230302220793d22363530222077696474683d2234303022206865696768743d223830222066696c6c3d22776869746522207374726f6b653d222333333322207374726f6b652d77696474683d2233222072783d223130222072793d223130222f3e3c6c696e652078313d22343030222079313d22323530222078323d22343030222079323d2234333022207374726f6b653d222338613666333022207374726f6b652d77696474683d2233222f3e4142434445464748494a4b4c4d4e4f505152535455565758595a6162636465666768696a6b6c6d6e6f707172737475767778797a303132333435363738392b2f227d2c7b2274726169745f74797065223a20226d61696e4d6174657269616c222c2276616c7565223a20223c656c6c697073652063783d22343030222063793d22343230222072783d22313830222072793d22313030222066696c6c3d226e6f6e6522207374726f6b653d222364346166333722207374726f6b652d77696474683d223230222f3e3c656c6c697073652063783d22343030222063793d22343230222072783d22313430222072793d223830222066696c6c3d226e6f6e6522207374726f6b653d222366386639666122207374726f6b652d77696474683d223230222f3e3c6c696e652078313d22343730222079313d22333030222078323d22333330222079323d2233383022207374726f6b653d222338613666333022207374726f6b652d77696474683d2233222f3e3c7465787420783d223530252220793d223132302220666f6e742d73697a653d2235302220666f6e742d66616d696c793d22417269616c2c2073616e732d73657269662220666f6e742d7765696768743d22626f6c64222066696c6c3d22233333332220746578742d616e63686f723d226d6964646c65223e3c7465787420783d223530252220793d223730302220666f6e742d73697a653d2233302220666f6e742d66616d696c793d22417269616c2c2073616e732d7365726966222066696c6c3d22233333332220746578742d616e63686f723d226d6964646c65223e7b226e616d65223a2022476f6c64436861696e204365727469666963617465204e46542023227d2c7b2274726169745f74797065223a202243657274696669636174654c6576656c222c2276616c7565223a2022227d2c7b2274726169745f74797065223a20226d61696e47656d53746f6e6573222c2276616c7565223a2022a2646970667358221220b6bf30a07e6513962dcb28ad89ff82aba668e86f1977b6951c1eb0efcd956aeb64736f6c634300081c0033",
  "linkReferences": {},
  "deployedLinkReferences": {}
}