{
  "_format": "hh-sol-artifact-1",
  "contractName": "DataStorage",
  "sourceName": "contracts/DataStorage.sol",
  "abi": [
    {
      "inputs": [],
      "stateMutability": "nonpayable",
      "type": "constructor"
    },
    {
      "inputs": [
        {
          "internalType": "address",
          "name": "owner",
          "type": "address"
        }
      ],
      "name": "OwnableInvalidOwner",
      "type": "error"
    },
    {
      "inputs": [
        {
          "internalType": "address",
          "name": "account",
          "type": "address"
        }
      ],
      "name": "OwnableUnauthorizedAccount",
      "type": "error"
    },
    {
      "anonymous": false,
      "inputs": [
        {
          "indexed": true,
          "internalType": "address",
          "name": "previousOwner",
          "type": "address"
        },
        {
          "indexed": true,
          "internalType": "address",
          "name": "newOwner",
          "type": "address"
        }
      ],
      "name": "OwnershipTransferred",
      "type": "event"
    },
    {
      "inputs": [
        {
          "internalType": "address",
          "name": "_jewelerAddress",
          "type": "address"
        }
      ],
      "name": "activateJeweler",
      "outputs": [
        {
          "internalType": "bool",
          "name": "",
          "type": "bool"
        }
      ],
      "stateMutability": "nonpayable",
      "type": "function"
    },
    {
      "inputs": [
        {
          "internalType": "uint8[]",
          "name": "_materials",
          "type": "uint8[]"
        },
        {
          "internalType": "uint8[]",
          "name": "_gemStones",
          "type": "uint8[]"
        },
        {
          "internalType": "uint8",
          "name": "_weightInGrams",
          "type": "uint8"
        },
        {
          "internalType": "string",
          "name": "_mainColor",
          "type": "string"
        },
        {
          "internalType": "enum DataStorage.CertificateLevel",
          "name": "_level",
          "type": "uint8"
        },
        {
          "internalType": "string",
          "name": "_JewelerName",
          "type": "string"
        },
        {
          "internalType": "enum DataStorage.CertificateStatus",
          "name": "_status",
          "type": "uint8"
        }
      ],
      "name": "addCertificate",
      "outputs": [
        {
          "internalType": "bool",
          "name": "",
          "type": "bool"
        }
      ],
      "stateMutability": "nonpayable",
      "type": "function"
    },
    {
      "inputs": [
        {
          "internalType": "address",
          "name": "_customerAddress",
          "type": "address"
        },
        {
          "internalType": "string",
          "name": "_name",
          "type": "string"
        },
        {
          "internalType": "string",
          "name": "_email",
          "type": "string"
        },
        {
          "internalType": "string",
          "name": "_location",
          "type": "string"
        },
        {
          "internalType": "bool",
          "name": "_visible",
          "type": "bool"
        }
      ],
      "name": "addCustomer",
      "outputs": [
        {
          "internalType": "bool",
          "name": "",
          "type": "bool"
        }
      ],
      "stateMutability": "nonpayable",
      "type": "function"
    },
    {
      "inputs": [
        {
          "internalType": "address",
          "name": "_jewelerAddress",
          "type": "address"
        },
        {
          "internalType": "string",
          "name": "_name",
          "type": "string"
        },
        {
          "internalType": "string",
          "name": "_email",
          "type": "string"
        },
        {
          "internalType": "string",
          "name": "_location",
          "type": "string"
        },
        {
          "internalType": "bool",
          "name": "_available",
          "type": "bool"
        },
        {
          "internalType": "bool",
          "name": "_visible",
          "type": "bool"
        }
      ],
      "name": "addJeweler",
      "outputs": [
        {
          "internalType": "bool",
          "name": "",
          "type": "bool"
        }
      ],
      "stateMutability": "nonpayable",
      "type": "function"
    },
    {
      "inputs": [
        {
          "internalType": "uint256",
          "name": "",
          "type": "uint256"
        }
      ],
      "name": "certificates",
      "outputs": [
        {
          "internalType": "uint256",
          "name": "creationDate",
          "type": "uint256"
        },
        {
          "internalType": "uint256",
          "name": "updated_at",
          "type": "uint256"
        },
        {
          "internalType": "uint8",
          "name": "weightInGrams",
          "type": "uint8"
        },
        {
          "internalType": "string",
          "name": "mainColor",
          "type": "string"
        },
        {
          "internalType": "enum DataStorage.CertificateLevel",
          "name": "level",
          "type": "uint8"
        },
        {
          "internalType": "string",
          "name": "JewelerName",
          "type": "string"
        },
        {
          "internalType": "enum DataStorage.CertificateStatus",
          "name": "status",
          "type": "uint8"
        }
      ],
      "stateMutability": "view",
      "type": "function"
    },
    {
      "inputs": [
        {
          "internalType": "address",
          "name": "",
          "type": "address"
        }
      ],
      "name": "customers",
      "outputs": [
        {
          "internalType": "uint256",
          "name": "created_at",
          "type": "uint256"
        },
        {
          "internalType": "uint256",
          "name": "updated_at",
          "type": "uint256"
        },
        {
          "internalType": "string",
          "name": "name",
          "type": "string"
        },
        {
          "internalType": "string",
          "name": "email",
          "type": "string"
        },
        {
          "internalType": "string",
          "name": "location",
          "type": "string"
        },
        {
          "internalType": "bool",
          "name": "visible",
          "type": "bool"
        }
      ],
      "stateMutability": "view",
      "type": "function"
    },
    {
      "inputs": [
        {
          "internalType": "address",
          "name": "_jewelerAddress",
          "type": "address"
        }
      ],
      "name": "desactivateJeweler",
      "outputs": [
        {
          "internalType": "bool",
          "name": "",
          "type": "bool"
        }
      ],
      "stateMutability": "nonpayable",
      "type": "function"
    },
    {
      "inputs": [],
      "name": "getCertificateCount",
      "outputs": [
        {
          "internalType": "uint256",
          "name": "",
          "type": "uint256"
        }
      ],
      "stateMutability": "view",
      "type": "function"
    },
    {
      "inputs": [],
      "name": "getCustomerCount",
      "outputs": [
        {
          "internalType": "uint256",
          "name": "",
          "type": "uint256"
        }
      ],
      "stateMutability": "view",
      "type": "function"
    },
    {
      "inputs": [],
      "name": "getJewelerCount",
      "outputs": [
        {
          "internalType": "uint256",
          "name": "",
          "type": "uint256"
        }
      ],
      "stateMutability": "view",
      "type": "function"
    },
    {
      "inputs": [
        {
          "internalType": "uint256",
          "name": "_certificateId",
          "type": "uint256"
        }
      ],
      "name": "getOneCertificate",
      "outputs": [
        {
          "components": [
            {
              "internalType": "uint256",
              "name": "creationDate",
              "type": "uint256"
            },
            {
              "internalType": "uint256",
              "name": "updated_at",
              "type": "uint256"
            },
            {
              "internalType": "uint8[]",
              "name": "materials",
              "type": "uint8[]"
            },
            {
              "internalType": "uint8[]",
              "name": "gemStones",
              "type": "uint8[]"
            },
            {
              "internalType": "uint8",
              "name": "weightInGrams",
              "type": "uint8"
            },
            {
              "internalType": "string",
              "name": "mainColor",
              "type": "string"
            },
            {
              "internalType": "enum DataStorage.CertificateLevel",
              "name": "level",
              "type": "uint8"
            },
            {
              "internalType": "string",
              "name": "JewelerName",
              "type": "string"
            },
            {
              "internalType": "enum DataStorage.CertificateStatus",
              "name": "status",
              "type": "uint8"
            }
          ],
          "internalType": "struct DataStorage.Certificate",
          "name": "",
          "type": "tuple"
        }
      ],
      "stateMutability": "view",
      "type": "function"
    },
    {
      "inputs": [
        {
          "internalType": "address",
          "name": "_customerAddress",
          "type": "address"
        }
      ],
      "name": "getOneCustomer",
      "outputs": [
        {
          "components": [
            {
              "internalType": "uint256",
              "name": "created_at",
              "type": "uint256"
            },
            {
              "internalType": "uint256",
              "name": "updated_at",
              "type": "uint256"
            },
            {
              "internalType": "string",
              "name": "name",
              "type": "string"
            },
            {
              "internalType": "string",
              "name": "email",
              "type": "string"
            },
            {
              "internalType": "string",
              "name": "location",
              "type": "string"
            },
            {
              "internalType": "bool",
              "name": "visible",
              "type": "bool"
            },
            {
              "internalType": "uint256[]",
              "name": "OwnedCertificateIds",
              "type": "uint256[]"
            }
          ],
          "internalType": "struct DataStorage.Customer",
          "name": "",
          "type": "tuple"
        }
      ],
      "stateMutability": "view",
      "type": "function"
    },
    {
      "inputs": [
        {
          "internalType": "address",
          "name": "_jewelerAddress",
          "type": "address"
        }
      ],
      "name": "getOneJeweler",
      "outputs": [
        {
          "components": [
            {
              "internalType": "uint256",
              "name": "created_at",
              "type": "uint256"
            },
            {
              "internalType": "uint256",
              "name": "updated_at",
              "type": "uint256"
            },
            {
              "internalType": "string",
              "name": "name",
              "type": "string"
            },
            {
              "internalType": "string",
              "name": "email",
              "type": "string"
            },
            {
              "internalType": "string",
              "name": "location",
              "type": "string"
            },
            {
              "internalType": "uint256[]",
              "name": "CreatedCertificateIds",
              "type": "uint256[]"
            },
            {
              "internalType": "bool",
              "name": "available",
              "type": "bool"
            },
            {
              "internalType": "bool",
              "name": "visible",
              "type": "bool"
            }
          ],
          "internalType": "struct DataStorage.Jeweler",
          "name": "",
          "type": "tuple"
        }
      ],
      "stateMutability": "view",
      "type": "function"
    },
    {
      "inputs": [
        {
          "internalType": "address",
          "name": "",
          "type": "address"
        }
      ],
      "name": "jewelers",
      "outputs": [
        {
          "internalType": "uint256",
          "name": "created_at",
          "type": "uint256"
        },
        {
          "internalType": "uint256",
          "name": "updated_at",
          "type": "uint256"
        },
        {
          "internalType": "string",
          "name": "name",
          "type": "string"
        },
        {
          "internalType": "string",
          "name": "email",
          "type": "string"
        },
        {
          "internalType": "string",
          "name": "location",
          "type": "string"
        },
        {
          "internalType": "bool",
          "name": "available",
          "type": "bool"
        },
        {
          "internalType": "bool",
          "name": "visible",
          "type": "bool"
        }
      ],
      "stateMutability": "view",
      "type": "function"
    },
    {
      "inputs": [],
      "name": "owner",
      "outputs": [
        {
          "internalType": "address",
          "name": "",
          "type": "address"
        }
      ],
      "stateMutability": "view",
      "type": "function"
    },
    {
      "inputs": [],
      "name": "renounceOwnership",
      "outputs": [],
      "stateMutability": "nonpayable",
      "type": "function"
    },
    {
      "inputs": [
        {
          "internalType": "address",
          "name": "newOwner",
          "type": "address"
        }
      ],
      "name": "transferOwnership",
      "outputs": [],
      "stateMutability": "nonpayable",
      "type": "function"
    },
    {
      "inputs": [],
      "name": "updateCertificate",
      "outputs": [
        {
          "internalType": "bool",
          "name": "",
          "type": "bool"
        }
      ],
      "stateMutability": "nonpayable",
      "type": "function"
    },
    {
      "inputs": [
        {
          "internalType": "address",
          "name": "_customerAddress",
          "type": "address"
        },
        {
          "internalType": "string",
          "name": "_name",
          "type": "string"
        },
        {
          "internalType": "string",
          "name": "_email",
          "type": "string"
        },
        {
          "internalType": "string",
          "name": "_location",
          "type": "string"
        },
        {
          "internalType": "bool",
          "name": "_visible",
          "type": "bool"
        }
      ],
      "name": "updateCustomer",
      "outputs": [
        {
          "internalType": "bool",
          "name": "",
          "type": "bool"
        }
      ],
      "stateMutability": "nonpayable",
      "type": "function"
    },
    {
      "inputs": [
        {
          "internalType": "address",
          "name": "_jewelerAddress",
          "type": "address"
        },
        {
          "internalType": "string",
          "name": "_name",
          "type": "string"
        },
        {
          "internalType": "string",
          "name": "_email",
          "type": "string"
        },
        {
          "internalType": "string",
          "name": "_location",
          "type": "string"
        },
        {
          "internalType": "bool",
          "name": "_visible",
          "type": "bool"
        }
      ],
      "name": "updateJeweler",
      "outputs": [
        {
          "internalType": "bool",
          "name": "",
          "type": "bool"
        }
      ],
      "stateMutability": "nonpayable",
      "type": "function"
    }
  ],
  "bytecode": "0x608060405234801561001057600080fd5b5033600073ffffffffffffffffffffffffffffffffffffffff168173ffffffffffffffffffffffffffffffffffffffff16036100845760006040517f1e4fbdf700000000000000000000000000000000000000000000000000000000815260040161007b919061019e565b60405180910390fd5b6100938161009960201b60201c565b506101b9565b60008060009054906101000a900473ffffffffffffffffffffffffffffffffffffffff169050816000806101000a81548173ffffffffffffffffffffffffffffffffffffffff021916908373ffffffffffffffffffffffffffffffffffffffff1602179055508173ffffffffffffffffffffffffffffffffffffffff168173ffffffffffffffffffffffffffffffffffffffff167f8be0079c531659141344cd1fd0a4f28419497f9722a3daafe3b4186f6b6457e060405160405180910390a35050565b600073ffffffffffffffffffffffffffffffffffffffff82169050919050565b60006101888261015d565b9050919050565b6101988161017d565b82525050565b60006020820190506101b3600083018461018f565b92915050565b613472806101c86000396000f3fe608060405234801561001057600080fd5b506004361061012c5760003560e01c80638809f727116100ad578063a735e5de11610071578063a735e5de14610392578063bab859a5146103c2578063dfd49f25146103f2578063ee7bf0ee14610422578063f2fde38b146104525761012c565b80638809f727146102e4578063899f9d0d146103025780638c271777146103205780638da5cb5b1461033e578063930fa7941461035c5761012c565b806357a00ccf116100f457806357a00ccf1461021457806364df69e714610244578063663b3e2214610274578063715018a6146102aa5780637208ca19146102b45761012c565b8063081ba2d5146101315780630f6a3540146101615780632027d7461461019157806329acc209146101af578063336989ae146101df575b600080fd5b61014b60048036038101906101469190612300565b61046e565b6040516101589190612348565b60405180910390f35b61017b600480360381019061017691906123f4565b6104d3565b6040516101889190612348565b60405180910390f35b610199610781565b6040516101a691906124e9565b60405180910390f35b6101c960048036038101906101c49190612300565b61078b565b6040516101d69190612348565b60405180910390f35b6101f960048036038101906101f49190612300565b6107f1565b60405161020b96959493929190612594565b60405180910390f35b61022e60048036038101906102299190612300565b6109d2565b60405161023b91906127e6565b60405180910390f35b61025e600480360381019061025991906128e1565b610c84565b60405161026b9190612348565b60405180910390f35b61028e60048036038101906102899190612a31565b610f38565b6040516102a19796959493929190612b2c565b60405180910390f35b6102b26110b1565b005b6102ce60048036038101906102c99190612ba9565b6110c5565b6040516102db9190612348565b60405180910390f35b6102ec61139c565b6040516102f991906124e9565b60405180910390f35b61030a6113a6565b6040516103179190612348565b60405180910390f35b6103286113af565b60405161033591906124e9565b60405180910390f35b6103466113b9565b6040516103539190612ca7565b60405180910390f35b61037660048036038101906103719190612300565b6113e2565b6040516103899796959493929190612cc2565b60405180910390f35b6103ac60048036038101906103a791906123f4565b6115d6565b6040516103b99190612348565b60405180910390f35b6103dc60048036038101906103d79190612a31565b61177f565b6040516103e99190612efc565b60405180910390f35b61040c600480360381019061040791906123f4565b611a74565b6040516104199190612348565b60405180910390f35b61043c60048036038101906104379190612300565b611c1d565b6040516104499190612fcf565b60405180910390f35b61046c60048036038101906104679190612300565b611eb3565b005b600080600660008473ffffffffffffffffffffffffffffffffffffffff1673ffffffffffffffffffffffffffffffffffffffff16815260200190815260200160002060060160006101000a81548160ff02191690831515021790555060019050919050565b60006040518060e0016040528042815260200142815260200189898080601f016020809104026020016040519081016040528093929190818152602001838380828437600081840152601f19601f82011690508083019250505050505050815260200187878080601f016020809104026020016040519081016040528093929190818152602001838380828437600081840152601f19601f82011690508083019250505050505050815260200185858080601f016020809104026020016040519081016040528093929190818152602001838380828437600081840152601f19601f8201169050808301925050505050505081526020018315158152602001600067ffffffffffffffff8111156105ed576105ec612ff1565b5b60405190808252806020026020018201604052801561061b5781602001602082028036833780820191505090505b50815250600760008b73ffffffffffffffffffffffffffffffffffffffff1673ffffffffffffffffffffffffffffffffffffffff16815260200190815260200160002060008201518160000155602082015181600101556040820151816002019081610687919061322c565b50606082015181600301908161069d919061322c565b5060808201518160040190816106b3919061322c565b5060a08201518160050160006101000a81548160ff02191690831515021790555060c08201518160060190805190602001906106f092919061208c565b50905050600160026000828254610707919061332d565b925050819055506005899080600181540180825580915050600190039060005260206000200160009091909190916101000a81548173ffffffffffffffffffffffffffffffffffffffff021916908373ffffffffffffffffffffffffffffffffffffffff1602179055506001905098975050505050505050565b6000600254905090565b60006001600660008473ffffffffffffffffffffffffffffffffffffffff1673ffffffffffffffffffffffffffffffffffffffff16815260200190815260200160002060060160006101000a81548160ff02191690831515021790555060019050919050565b60076020528060005260406000206000915090508060000154908060010154908060020180546108209061304f565b80601f016020809104026020016040519081016040528092919081815260200182805461084c9061304f565b80156108995780601f1061086e57610100808354040283529160200191610899565b820191906000526020600020905b81548152906001019060200180831161087c57829003601f168201915b5050505050908060030180546108ae9061304f565b80601f01602080910402602001604051908101604052809291908181526020018280546108da9061304f565b80156109275780601f106108fc57610100808354040283529160200191610927565b820191906000526020600020905b81548152906001019060200180831161090a57829003601f168201915b50505050509080600401805461093c9061304f565b80601f01602080910402602001604051908101604052809291908181526020018280546109689061304f565b80156109b55780601f1061098a576101008083540402835291602001916109b5565b820191906000526020600020905b81548152906001019060200180831161099857829003601f168201915b5050505050908060050160009054906101000a900460ff16905086565b6109da6120d9565b600660008373ffffffffffffffffffffffffffffffffffffffff1673ffffffffffffffffffffffffffffffffffffffff168152602001908152602001600020604051806101000160405290816000820154815260200160018201548152602001600282018054610a499061304f565b80601f0160208091040260200160405190810160405280929190818152602001828054610a759061304f565b8015610ac25780601f10610a9757610100808354040283529160200191610ac2565b820191906000526020600020905b815481529060010190602001808311610aa557829003601f168201915b50505050508152602001600382018054610adb9061304f565b80601f0160208091040260200160405190810160405280929190818152602001828054610b079061304f565b8015610b545780601f10610b2957610100808354040283529160200191610b54565b820191906000526020600020905b815481529060010190602001808311610b3757829003601f168201915b50505050508152602001600482018054610b6d9061304f565b80601f0160208091040260200160405190810160405280929190818152602001828054610b999061304f565b8015610be65780601f10610bbb57610100808354040283529160200191610be6565b820191906000526020600020905b815481529060010190602001808311610bc957829003601f168201915b5050505050815260200160058201805480602002602001604051908101604052809291908181526020018280548015610c3e57602002820191906000526020600020905b815481526020019060010190808311610c2a575b505050505081526020016006820160009054906101000a900460ff161515151581526020016006820160019054906101000a900460ff1615151515815250509050919050565b60006040518061012001604052804281526020014281526020018d8d80806020026020016040519081016040528093929190818152602001838360200280828437600081840152601f19601f8201169050808301925050505050505081526020018b8b80806020026020016040519081016040528093929190818152602001838360200280828437600081840152601f19601f8201169050808301925050505050505081526020018960ff16815260200188888080601f016020809104026020016040519081016040528093929190818152602001838380828437600081840152601f19601f820116905080830192505050505050508152602001866003811115610d9257610d91612a6d565b5b815260200185858080601f016020809104026020016040519081016040528093929190818152602001838380828437600081840152601f19601f820116905080830192505050505050508152602001836004811115610df457610df3612a6d565b5b81525060086000600354815260200190815260200160002060008201518160000155602082015181600101556040820151816002019080519060200190610e3c929190612122565b506060820151816003019080519060200190610e59929190612122565b5060808201518160040160006101000a81548160ff021916908360ff16021790555060a0820151816005019081610e90919061322c565b5060c08201518160060160006101000a81548160ff02191690836003811115610ebc57610ebb612a6d565b5b021790555060e0820151816007019081610ed6919061322c565b506101008201518160080160006101000a81548160ff02191690836004811115610f0357610f02612a6d565b5b0217905550905050600160036000828254610f1e919061332d565b92505081905550600190509b9a5050505050505050505050565b60086020528060005260406000206000915090508060000154908060010154908060040160009054906101000a900460ff1690806005018054610f7a9061304f565b80601f0160208091040260200160405190810160405280929190818152602001828054610fa69061304f565b8015610ff35780601f10610fc857610100808354040283529160200191610ff3565b820191906000526020600020905b815481529060010190602001808311610fd657829003601f168201915b5050505050908060060160009054906101000a900460ff169080600701805461101b9061304f565b80601f01602080910402602001604051908101604052809291908181526020018280546110479061304f565b80156110945780601f1061106957610100808354040283529160200191611094565b820191906000526020600020905b81548152906001019060200180831161107757829003601f168201915b5050505050908060080160009054906101000a900460ff16905087565b6110b9611f39565b6110c36000611fc0565b565b60006040518061010001604052804281526020014281526020018a8a8080601f016020809104026020016040519081016040528093929190818152602001838380828437600081840152601f19601f82011690508083019250505050505050815260200188888080601f016020809104026020016040519081016040528093929190818152602001838380828437600081840152601f19601f82011690508083019250505050505050815260200186868080601f016020809104026020016040519081016040528093929190818152602001838380828437600081840152601f19601f820116905080830192505050505050508152602001600067ffffffffffffffff8111156111d8576111d7612ff1565b5b6040519080825280602002602001820160405280156112065781602001602082028036833780820191505090505b5081526020018415158152602001831515815250600660008c73ffffffffffffffffffffffffffffffffffffffff1673ffffffffffffffffffffffffffffffffffffffff16815260200190815260200160002060008201518160000155602082015181600101556040820151816002019081611282919061322c565b506060820151816003019081611298919061322c565b5060808201518160040190816112ae919061322c565b5060a08201518160050190805190602001906112cb92919061208c565b5060c08201518160060160006101000a81548160ff02191690831515021790555060e08201518160060160016101000a81548160ff0219169083151502179055509050506001806000828254611321919061332d565b9250508190555060048a9080600181540180825580915050600190039060005260206000200160009091909190916101000a81548173ffffffffffffffffffffffffffffffffffffffff021916908373ffffffffffffffffffffffffffffffffffffffff160217905550600190509998505050505050505050565b6000600354905090565b60006001905090565b6000600154905090565b60008060009054906101000a900473ffffffffffffffffffffffffffffffffffffffff16905090565b60066020528060005260406000206000915090508060000154908060010154908060020180546114119061304f565b80601f016020809104026020016040519081016040528092919081815260200182805461143d9061304f565b801561148a5780601f1061145f5761010080835404028352916020019161148a565b820191906000526020600020905b81548152906001019060200180831161146d57829003601f168201915b50505050509080600301805461149f9061304f565b80601f01602080910402602001604051908101604052809291908181526020018280546114cb9061304f565b80156115185780601f106114ed57610100808354040283529160200191611518565b820191906000526020600020905b8154815290600101906020018083116114fb57829003601f168201915b50505050509080600401805461152d9061304f565b80601f01602080910402602001604051908101604052809291908181526020018280546115599061304f565b80156115a65780601f1061157b576101008083540402835291602001916115a6565b820191906000526020600020905b81548152906001019060200180831161158957829003601f168201915b5050505050908060060160009054906101000a900460ff16908060060160019054906101000a900460ff16905087565b600042600660008b73ffffffffffffffffffffffffffffffffffffffff1673ffffffffffffffffffffffffffffffffffffffff168152602001908152602001600020600101819055508787600660008c73ffffffffffffffffffffffffffffffffffffffff1673ffffffffffffffffffffffffffffffffffffffff168152602001908152602001600020600201918261167092919061336c565b508585600660008c73ffffffffffffffffffffffffffffffffffffffff1673ffffffffffffffffffffffffffffffffffffffff16815260200190815260200160002060030191826116c292919061336c565b508383600660008c73ffffffffffffffffffffffffffffffffffffffff1673ffffffffffffffffffffffffffffffffffffffff168152602001908152602001600020600401918261171492919061336c565b5081600660008b73ffffffffffffffffffffffffffffffffffffffff1673ffffffffffffffffffffffffffffffffffffffff16815260200190815260200160002060060160016101000a81548160ff0219169083151502179055506001905098975050505050505050565b6117876121c9565b600860008381526020019081526020016000206040518061012001604052908160008201548152602001600182015481526020016002820180548060200260200160405190810160405280929190818152602001828054801561182f57602002820191906000526020600020906000905b82829054906101000a900460ff1660ff16815260200190600101906020826000010492830192600103820291508084116117f85790505b50505050508152602001600382018054806020026020016040519081016040528092919081815260200182805480156118ad57602002820191906000526020600020906000905b82829054906101000a900460ff1660ff16815260200190600101906020826000010492830192600103820291508084116118765790505b505050505081526020016004820160009054906101000a900460ff1660ff1660ff1681526020016005820180546118e39061304f565b80601f016020809104026020016040519081016040528092919081815260200182805461190f9061304f565b801561195c5780601f106119315761010080835404028352916020019161195c565b820191906000526020600020905b81548152906001019060200180831161193f57829003601f168201915b505050505081526020016006820160009054906101000a900460ff16600381111561198a57611989612a6d565b5b600381111561199c5761199b612a6d565b5b81526020016007820180546119b09061304f565b80601f01602080910402602001604051908101604052809291908181526020018280546119dc9061304f565b8015611a295780601f106119fe57610100808354040283529160200191611a29565b820191906000526020600020905b815481529060010190602001808311611a0c57829003601f168201915b505050505081526020016008820160009054906101000a900460ff166004811115611a5757611a56612a6d565b5b6004811115611a6957611a68612a6d565b5b815250509050919050565b600042600760008b73ffffffffffffffffffffffffffffffffffffffff1673ffffffffffffffffffffffffffffffffffffffff168152602001908152602001600020600101819055508787600760008c73ffffffffffffffffffffffffffffffffffffffff1673ffffffffffffffffffffffffffffffffffffffff1681526020019081526020016000206002019182611b0e92919061336c565b508585600760008c73ffffffffffffffffffffffffffffffffffffffff1673ffffffffffffffffffffffffffffffffffffffff1681526020019081526020016000206003019182611b6092919061336c565b508383600760008c73ffffffffffffffffffffffffffffffffffffffff1673ffffffffffffffffffffffffffffffffffffffff1681526020019081526020016000206004019182611bb292919061336c565b5081600760008b73ffffffffffffffffffffffffffffffffffffffff1673ffffffffffffffffffffffffffffffffffffffff16815260200190815260200160002060050160006101000a81548160ff0219169083151502179055506001905098975050505050505050565b611c2561223c565b600760008373ffffffffffffffffffffffffffffffffffffffff1673ffffffffffffffffffffffffffffffffffffffff1681526020019081526020016000206040518060e00160405290816000820154815260200160018201548152602001600282018054611c939061304f565b80601f0160208091040260200160405190810160405280929190818152602001828054611cbf9061304f565b8015611d0c5780601f10611ce157610100808354040283529160200191611d0c565b820191906000526020600020905b815481529060010190602001808311611cef57829003601f168201915b50505050508152602001600382018054611d259061304f565b80601f0160208091040260200160405190810160405280929190818152602001828054611d519061304f565b8015611d9e5780601f10611d7357610100808354040283529160200191611d9e565b820191906000526020600020905b815481529060010190602001808311611d8157829003601f168201915b50505050508152602001600482018054611db79061304f565b80601f0160208091040260200160405190810160405280929190818152602001828054611de39061304f565b8015611e305780601f10611e0557610100808354040283529160200191611e30565b820191906000526020600020905b815481529060010190602001808311611e1357829003601f168201915b505050505081526020016005820160009054906101000a900460ff1615151515815260200160068201805480602002602001604051908101604052809291908181526020018280548015611ea357602002820191906000526020600020905b815481526020019060010190808311611e8f575b5050505050815250509050919050565b611ebb611f39565b600073ffffffffffffffffffffffffffffffffffffffff168173ffffffffffffffffffffffffffffffffffffffff1603611f2d5760006040517f1e4fbdf7000000000000000000000000000000000000000000000000000000008152600401611f249190612ca7565b60405180910390fd5b611f3681611fc0565b50565b611f41612084565b73ffffffffffffffffffffffffffffffffffffffff16611f5f6113b9565b73ffffffffffffffffffffffffffffffffffffffff1614611fbe57611f82612084565b6040517f118cdaa7000000000000000000000000000000000000000000000000000000008152600401611fb59190612ca7565b60405180910390fd5b565b60008060009054906101000a900473ffffffffffffffffffffffffffffffffffffffff169050816000806101000a81548173ffffffffffffffffffffffffffffffffffffffff021916908373ffffffffffffffffffffffffffffffffffffffff1602179055508173ffffffffffffffffffffffffffffffffffffffff168173ffffffffffffffffffffffffffffffffffffffff167f8be0079c531659141344cd1fd0a4f28419497f9722a3daafe3b4186f6b6457e060405160405180910390a35050565b600033905090565b8280548282559060005260206000209081019282156120c8579160200282015b828111156120c75782518255916020019190600101906120ac565b5b5090506120d5919061227b565b5090565b6040518061010001604052806000815260200160008152602001606081526020016060815260200160608152602001606081526020016000151581526020016000151581525090565b82805482825590600052602060002090601f016020900481019282156121b85791602002820160005b8382111561218957835183826101000a81548160ff021916908360ff160217905550926020019260010160208160000104928301926001030261214b565b80156121b65782816101000a81549060ff0219169055600101602081600001049283019260010302612189565b505b5090506121c5919061227b565b5090565b60405180610120016040528060008152602001600081526020016060815260200160608152602001600060ff168152602001606081526020016000600381111561221657612215612a6d565b5b8152602001606081526020016000600481111561223657612235612a6d565b5b81525090565b6040518060e001604052806000815260200160008152602001606081526020016060815260200160608152602001600015158152602001606081525090565b5b8082111561229457600081600090555060010161227c565b5090565b600080fd5b600080fd5b600073ffffffffffffffffffffffffffffffffffffffff82169050919050565b60006122cd826122a2565b9050919050565b6122dd816122c2565b81146122e857600080fd5b50565b6000813590506122fa816122d4565b92915050565b60006020828403121561231657612315612298565b5b6000612324848285016122eb565b91505092915050565b60008115159050919050565b6123428161232d565b82525050565b600060208201905061235d6000830184612339565b92915050565b600080fd5b600080fd5b600080fd5b60008083601f84011261238857612387612363565b5b8235905067ffffffffffffffff8111156123a5576123a4612368565b5b6020830191508360018202830111156123c1576123c061236d565b5b9250929050565b6123d18161232d565b81146123dc57600080fd5b50565b6000813590506123ee816123c8565b92915050565b60008060008060008060008060a0898b03121561241457612413612298565b5b60006124228b828c016122eb565b985050602089013567ffffffffffffffff8111156124435761244261229d565b5b61244f8b828c01612372565b9750975050604089013567ffffffffffffffff8111156124725761247161229d565b5b61247e8b828c01612372565b9550955050606089013567ffffffffffffffff8111156124a1576124a061229d565b5b6124ad8b828c01612372565b935093505060806124c08b828c016123df565b9150509295985092959890939650565b6000819050919050565b6124e3816124d0565b82525050565b60006020820190506124fe60008301846124da565b92915050565b600081519050919050565b600082825260208201905092915050565b60005b8381101561253e578082015181840152602081019050612523565b60008484015250505050565b6000601f19601f8301169050919050565b600061256682612504565b612570818561250f565b9350612580818560208601612520565b6125898161254a565b840191505092915050565b600060c0820190506125a960008301896124da565b6125b660208301886124da565b81810360408301526125c8818761255b565b905081810360608301526125dc818661255b565b905081810360808301526125f0818561255b565b90506125ff60a0830184612339565b979650505050505050565b612613816124d0565b82525050565b600082825260208201905092915050565b600061263582612504565b61263f8185612619565b935061264f818560208601612520565b6126588161254a565b840191505092915050565b600081519050919050565b600082825260208201905092915050565b6000819050602082019050919050565b600061269b838361260a565b60208301905092915050565b6000602082019050919050565b60006126bf82612663565b6126c9818561266e565b93506126d48361267f565b8060005b838110156127055781516126ec888261268f565b97506126f7836126a7565b9250506001810190506126d8565b5085935050505092915050565b61271b8161232d565b82525050565b60006101008301600083015161273a600086018261260a565b50602083015161274d602086018261260a565b5060408301518482036040860152612765828261262a565b9150506060830151848203606086015261277f828261262a565b91505060808301518482036080860152612799828261262a565b91505060a083015184820360a08601526127b382826126b4565b91505060c08301516127c860c0860182612712565b5060e08301516127db60e0860182612712565b508091505092915050565b600060208201905081810360008301526128008184612721565b905092915050565b60008083601f84011261281e5761281d612363565b5b8235905067ffffffffffffffff81111561283b5761283a612368565b5b6020830191508360208202830111156128575761285661236d565b5b9250929050565b600060ff82169050919050565b6128748161285e565b811461287f57600080fd5b50565b6000813590506128918161286b565b92915050565b600481106128a457600080fd5b50565b6000813590506128b681612897565b92915050565b600581106128c957600080fd5b50565b6000813590506128db816128bc565b92915050565b600080600080600080600080600080600060e08c8e03121561290657612905612298565b5b60008c013567ffffffffffffffff8111156129245761292361229d565b5b6129308e828f01612808565b9b509b505060208c013567ffffffffffffffff8111156129535761295261229d565b5b61295f8e828f01612808565b995099505060406129728e828f01612882565b97505060608c013567ffffffffffffffff8111156129935761299261229d565b5b61299f8e828f01612372565b965096505060806129b28e828f016128a7565b94505060a08c013567ffffffffffffffff8111156129d3576129d261229d565b5b6129df8e828f01612372565b935093505060c06129f28e828f016128cc565b9150509295989b509295989b9093969950565b612a0e816124d0565b8114612a1957600080fd5b50565b600081359050612a2b81612a05565b92915050565b600060208284031215612a4757612a46612298565b5b6000612a5584828501612a1c565b91505092915050565b612a678161285e565b82525050565b7f4e487b7100000000000000000000000000000000000000000000000000000000600052602160045260246000fd5b60048110612aad57612aac612a6d565b5b50565b6000819050612abe82612a9c565b919050565b6000612ace82612ab0565b9050919050565b612ade81612ac3565b82525050565b60058110612af557612af4612a6d565b5b50565b6000819050612b0682612ae4565b919050565b6000612b1682612af8565b9050919050565b612b2681612b0b565b82525050565b600060e082019050612b41600083018a6124da565b612b4e60208301896124da565b612b5b6040830188612a5e565b8181036060830152612b6d818761255b565b9050612b7c6080830186612ad5565b81810360a0830152612b8e818561255b565b9050612b9d60c0830184612b1d565b98975050505050505050565b600080600080600080600080600060c08a8c031215612bcb57612bca612298565b5b6000612bd98c828d016122eb565b99505060208a013567ffffffffffffffff811115612bfa57612bf961229d565b5b612c068c828d01612372565b985098505060408a013567ffffffffffffffff811115612c2957612c2861229d565b5b612c358c828d01612372565b965096505060608a013567ffffffffffffffff811115612c5857612c5761229d565b5b612c648c828d01612372565b94509450506080612c778c828d016123df565b92505060a0612c888c828d016123df565b9150509295985092959850929598565b612ca1816122c2565b82525050565b6000602082019050612cbc6000830184612c98565b92915050565b600060e082019050612cd7600083018a6124da565b612ce460208301896124da565b8181036040830152612cf6818861255b565b90508181036060830152612d0a818761255b565b90508181036080830152612d1e818661255b565b9050612d2d60a0830185612339565b612d3a60c0830184612339565b98975050505050505050565b600081519050919050565b600082825260208201905092915050565b6000819050602082019050919050565b612d7b8161285e565b82525050565b6000612d8d8383612d72565b60208301905092915050565b6000602082019050919050565b6000612db182612d46565b612dbb8185612d51565b9350612dc683612d62565b8060005b83811015612df7578151612dde8882612d81565b9750612de983612d99565b925050600181019050612dca565b5085935050505092915050565b612e0d81612ac3565b82525050565b612e1c81612b0b565b82525050565b600061012083016000830151612e3b600086018261260a565b506020830151612e4e602086018261260a565b5060408301518482036040860152612e668282612da6565b91505060608301518482036060860152612e808282612da6565b9150506080830151612e956080860182612d72565b5060a083015184820360a0860152612ead828261262a565b91505060c0830151612ec260c0860182612e04565b5060e083015184820360e0860152612eda828261262a565b915050610100830151612ef1610100860182612e13565b508091505092915050565b60006020820190508181036000830152612f168184612e22565b905092915050565b600060e083016000830151612f36600086018261260a565b506020830151612f49602086018261260a565b5060408301518482036040860152612f61828261262a565b91505060608301518482036060860152612f7b828261262a565b91505060808301518482036080860152612f95828261262a565b91505060a0830151612faa60a0860182612712565b5060c083015184820360c0860152612fc282826126b4565b9150508091505092915050565b60006020820190508181036000830152612fe98184612f1e565b905092915050565b7f4e487b7100000000000000000000000000000000000000000000000000000000600052604160045260246000fd5b7f4e487b7100000000000000000000000000000000000000000000000000000000600052602260045260246000fd5b6000600282049050600182168061306757607f821691505b60208210810361307a57613079613020565b5b50919050565b60008190508160005260206000209050919050565b60006020601f8301049050919050565b600082821b905092915050565b6000600883026130e27fffffffffffffffffffffffffffffffffffffffffffffffffffffffffffffffff826130a5565b6130ec86836130a5565b95508019841693508086168417925050509392505050565b6000819050919050565b600061312961312461311f846124d0565b613104565b6124d0565b9050919050565b6000819050919050565b6131438361310e565b61315761314f82613130565b8484546130b2565b825550505050565b600090565b61316c61315f565b61317781848461313a565b505050565b5b8181101561319b57613190600082613164565b60018101905061317d565b5050565b601f8211156131e0576131b181613080565b6131ba84613095565b810160208510156131c9578190505b6131dd6131d585613095565b83018261317c565b50505b505050565b600082821c905092915050565b6000613203600019846008026131e5565b1980831691505092915050565b600061321c83836131f2565b9150826002028217905092915050565b61323582612504565b67ffffffffffffffff81111561324e5761324d612ff1565b5b613258825461304f565b61326382828561319f565b600060209050601f8311600181146132965760008415613284578287015190505b61328e8582613210565b8655506132f6565b601f1984166132a486613080565b60005b828110156132cc578489015182556001820191506020850194506020810190506132a7565b868310156132e957848901516132e5601f8916826131f2565b8355505b6001600288020188555050505b505050505050565b7f4e487b7100000000000000000000000000000000000000000000000000000000600052601160045260246000fd5b6000613338826124d0565b9150613343836124d0565b925082820190508082111561335b5761335a6132fe565b5b92915050565b600082905092915050565b6133768383613361565b67ffffffffffffffff81111561338f5761338e612ff1565b5b613399825461304f565b6133a482828561319f565b6000601f8311600181146133d357600084156133c1578287013590505b6133cb8582613210565b865550613433565b601f1984166133e186613080565b60005b82811015613409578489013582556001820191506020850194506020810190506133e4565b868310156134265784890135613422601f8916826131f2565b8355505b6001600288020188555050505b5050505050505056fea2646970667358221220c722eaa5f559a8f9d319bd61f1037b4581d380df59a9b751f4964e1f584c27b364736f6c634300081c0033",
  "linkReferences": {},
  "deployedLinkReferences": {}
}