{
  "_format": "hh-sol-artifact-1",
  "contractName": "GoldChain",
  "sourceName": "contracts/GoldChain.sol",
  "abi": [
    {
      "inputs": [
        {
          "internalType": "contract IDataStorage",
          "name": "_dataStorage",
          "type": "address"
        }
      ],
      "stateMutability": "nonpayable",
      "type": "constructor"
    },
    {
      "inputs": [],
      "name": "AccessControlBadConfirmation",
      "type": "error"
    },
    {
      "inputs": [
        {
          "internalType": "address",
          "name": "account",
          "type": "address"
        },
        {
          "internalType": "bytes32",
          "name": "neededRole",
          "type": "bytes32"
        }
      ],
      "name": "AccessControlUnauthorizedAccount",
      "type": "error"
    },
    {
      "inputs": [],
      "name": "CustomerIsAlreadyRegistered",
      "type": "error"
    },
    {
      "inputs": [],
      "name": "CustomerNotExists",
      "type": "error"
    },
    {
      "inputs": [],
      "name": "JewelerIsAlreadyRegistered",
      "type": "error"
    },
    {
      "inputs": [],
      "name": "JewelerNotExists",
      "type": "error"
    },
    {
      "anonymous": false,
      "inputs": [
        {
          "indexed": true,
          "internalType": "bytes32",
          "name": "role",
          "type": "bytes32"
        },
        {
          "indexed": true,
          "internalType": "bytes32",
          "name": "previousAdminRole",
          "type": "bytes32"
        },
        {
          "indexed": true,
          "internalType": "bytes32",
          "name": "newAdminRole",
          "type": "bytes32"
        }
      ],
      "name": "RoleAdminChanged",
      "type": "event"
    },
    {
      "anonymous": false,
      "inputs": [
        {
          "indexed": true,
          "internalType": "bytes32",
          "name": "role",
          "type": "bytes32"
        },
        {
          "indexed": true,
          "internalType": "address",
          "name": "account",
          "type": "address"
        },
        {
          "indexed": true,
          "internalType": "address",
          "name": "sender",
          "type": "address"
        }
      ],
      "name": "RoleGranted",
      "type": "event"
    },
    {
      "anonymous": false,
      "inputs": [
        {
          "indexed": true,
          "internalType": "bytes32",
          "name": "role",
          "type": "bytes32"
        },
        {
          "indexed": true,
          "internalType": "address",
          "name": "account",
          "type": "address"
        },
        {
          "indexed": true,
          "internalType": "address",
          "name": "sender",
          "type": "address"
        }
      ],
      "name": "RoleRevoked",
      "type": "event"
    },
    {
      "anonymous": false,
      "inputs": [
        {
          "indexed": false,
          "internalType": "address",
          "name": "jewelerAddress",
          "type": "address"
        },
        {
          "indexed": false,
          "internalType": "uint256",
          "name": "timestamp",
          "type": "uint256"
        },
        {
          "indexed": false,
          "internalType": "uint256",
          "name": "certificateId",
          "type": "uint256"
        }
      ],
      "name": "certificateCreated",
      "type": "event"
    },
    {
      "anonymous": false,
      "inputs": [
        {
          "indexed": false,
          "internalType": "address",
          "name": "customerAddress",
          "type": "address"
        },
        {
          "indexed": false,
          "internalType": "uint256",
          "name": "timestamp",
          "type": "uint256"
        }
      ],
      "name": "customerCreated",
      "type": "event"
    },
    {
      "anonymous": false,
      "inputs": [
        {
          "indexed": false,
          "internalType": "address",
          "name": "customerAddress",
          "type": "address"
        },
        {
          "indexed": false,
          "internalType": "uint256",
          "name": "timestamp",
          "type": "uint256"
        }
      ],
      "name": "customerUpdated",
      "type": "event"
    },
    {
      "anonymous": false,
      "inputs": [
        {
          "indexed": false,
          "internalType": "address",
          "name": "jewelerAddress",
          "type": "address"
        },
        {
          "indexed": false,
          "internalType": "uint256",
          "name": "timestamp",
          "type": "uint256"
        }
      ],
      "name": "jewelerActivated",
      "type": "event"
    },
    {
      "anonymous": false,
      "inputs": [
        {
          "indexed": false,
          "internalType": "address",
          "name": "jewelerAddress",
          "type": "address"
        },
        {
          "indexed": false,
          "internalType": "uint256",
          "name": "timestamp",
          "type": "uint256"
        }
      ],
      "name": "jewelerCreated",
      "type": "event"
    },
    {
      "anonymous": false,
      "inputs": [
        {
          "indexed": false,
          "internalType": "address",
          "name": "jewelerAddress",
          "type": "address"
        },
        {
          "indexed": false,
          "internalType": "uint256",
          "name": "timestamp",
          "type": "uint256"
        }
      ],
      "name": "jewelerDesactivated",
      "type": "event"
    },
    {
      "anonymous": false,
      "inputs": [
        {
          "indexed": false,
          "internalType": "address",
          "name": "jewelerAddress",
          "type": "address"
        },
        {
          "indexed": false,
          "internalType": "uint256",
          "name": "timestamp",
          "type": "uint256"
        }
      ],
      "name": "jewelerUpdated",
      "type": "event"
    },
    {
      "inputs": [],
      "name": "ADMIN",
      "outputs": [
        {
          "internalType": "bytes32",
          "name": "",
          "type": "bytes32"
        }
      ],
      "stateMutability": "view",
      "type": "function"
    },
    {
      "inputs": [],
      "name": "CERTIFICATOR_ROLE",
      "outputs": [
        {
          "internalType": "bytes32",
          "name": "",
          "type": "bytes32"
        }
      ],
      "stateMutability": "view",
      "type": "function"
    },
    {
      "inputs": [],
      "name": "CUSTOMERS_ROLE",
      "outputs": [
        {
          "internalType": "bytes32",
          "name": "",
          "type": "bytes32"
        }
      ],
      "stateMutability": "view",
      "type": "function"
    },
    {
      "inputs": [],
      "name": "DEFAULT_ADMIN_ROLE",
      "outputs": [
        {
          "internalType": "bytes32",
          "name": "",
          "type": "bytes32"
        }
      ],
      "stateMutability": "view",
      "type": "function"
    },
    {
      "inputs": [],
      "name": "FALSE",
      "outputs": [
        {
          "internalType": "bool",
          "name": "",
          "type": "bool"
        }
      ],
      "stateMutability": "view",
      "type": "function"
    },
    {
      "inputs": [],
      "name": "JEWELERS_ROLE",
      "outputs": [
        {
          "internalType": "bytes32",
          "name": "",
          "type": "bytes32"
        }
      ],
      "stateMutability": "view",
      "type": "function"
    },
    {
      "inputs": [],
      "name": "TRUE",
      "outputs": [
        {
          "internalType": "bool",
          "name": "",
          "type": "bool"
        }
      ],
      "stateMutability": "view",
      "type": "function"
    },
    {
      "inputs": [
        {
          "internalType": "address",
          "name": "_jewelerAddress",
          "type": "address"
        }
      ],
      "name": "activateJeweler",
      "outputs": [
        {
          "internalType": "bool",
          "name": "",
          "type": "bool"
        }
      ],
      "stateMutability": "nonpayable",
      "type": "function"
    },
    {
      "inputs": [],
      "name": "admin",
      "outputs": [
        {
          "internalType": "address",
          "name": "",
          "type": "address"
        }
      ],
      "stateMutability": "view",
      "type": "function"
    },
    {
      "inputs": [
        {
          "internalType": "uint8[]",
          "name": "_materials",
          "type": "uint8[]"
        },
        {
          "internalType": "uint8[]",
          "name": "_gemStones",
          "type": "uint8[]"
        },
        {
          "internalType": "uint8",
          "name": "_weightInGrams",
          "type": "uint8"
        },
        {
          "internalType": "string",
          "name": "_mainColor",
          "type": "string"
        },
        {
          "internalType": "enum IDataStorage.CertificateLevel",
          "name": "_level",
          "type": "uint8"
        },
        {
          "internalType": "string",
          "name": "_JewelerName",
          "type": "string"
        },
        {
          "internalType": "enum IDataStorage.CertificateStatus",
          "name": "_status",
          "type": "uint8"
        }
      ],
      "name": "createCertificate",
      "outputs": [
        {
          "internalType": "bool",
          "name": "",
          "type": "bool"
        }
      ],
      "stateMutability": "nonpayable",
      "type": "function"
    },
    {
      "inputs": [
        {
          "internalType": "string",
          "name": "_name",
          "type": "string"
        },
        {
          "internalType": "string",
          "name": "_email",
          "type": "string"
        },
        {
          "internalType": "string",
          "name": "_location",
          "type": "string"
        }
      ],
      "name": "createCustomer",
      "outputs": [
        {
          "internalType": "bool",
          "name": "",
          "type": "bool"
        }
      ],
      "stateMutability": "nonpayable",
      "type": "function"
    },
    {
      "inputs": [
        {
          "internalType": "string",
          "name": "_name",
          "type": "string"
        },
        {
          "internalType": "string",
          "name": "_email",
          "type": "string"
        },
        {
          "internalType": "string",
          "name": "_location",
          "type": "string"
        }
      ],
      "name": "createJeweler",
      "outputs": [
        {
          "internalType": "bool",
          "name": "",
          "type": "bool"
        }
      ],
      "stateMutability": "nonpayable",
      "type": "function"
    },
    {
      "inputs": [
        {
          "internalType": "address",
          "name": "_jewelerAddress",
          "type": "address"
        }
      ],
      "name": "desactivateJeweler",
      "outputs": [
        {
          "internalType": "bool",
          "name": "",
          "type": "bool"
        }
      ],
      "stateMutability": "nonpayable",
      "type": "function"
    },
    {
      "inputs": [],
      "name": "getCustomerCount",
      "outputs": [
        {
          "internalType": "uint256",
          "name": "",
          "type": "uint256"
        }
      ],
      "stateMutability": "view",
      "type": "function"
    },
    {
      "inputs": [],
      "name": "getJewelerCount",
      "outputs": [
        {
          "internalType": "uint256",
          "name": "",
          "type": "uint256"
        }
      ],
      "stateMutability": "view",
      "type": "function"
    },
    {
      "inputs": [
        {
          "internalType": "address",
          "name": "_customerAddress",
          "type": "address"
        }
      ],
      "name": "getOneCustomer",
      "outputs": [
        {
          "components": [
            {
              "internalType": "uint256",
              "name": "created_at",
              "type": "uint256"
            },
            {
              "internalType": "uint256",
              "name": "updated_at",
              "type": "uint256"
            },
            {
              "internalType": "string",
              "name": "name",
              "type": "string"
            },
            {
              "internalType": "string",
              "name": "email",
              "type": "string"
            },
            {
              "internalType": "string",
              "name": "location",
              "type": "string"
            },
            {
              "internalType": "bool",
              "name": "visible",
              "type": "bool"
            },
            {
              "internalType": "uint256[]",
              "name": "OwnedCertificateIds",
              "type": "uint256[]"
            }
          ],
          "internalType": "struct IDataStorage.Customer",
          "name": "",
          "type": "tuple"
        }
      ],
      "stateMutability": "view",
      "type": "function"
    },
    {
      "inputs": [
        {
          "internalType": "address",
          "name": "_jewelerAddress",
          "type": "address"
        }
      ],
      "name": "getOneJeweler",
      "outputs": [
        {
          "components": [
            {
              "internalType": "uint256",
              "name": "created_at",
              "type": "uint256"
            },
            {
              "internalType": "uint256",
              "name": "updated_at",
              "type": "uint256"
            },
            {
              "internalType": "string",
              "name": "name",
              "type": "string"
            },
            {
              "internalType": "string",
              "name": "email",
              "type": "string"
            },
            {
              "internalType": "string",
              "name": "location",
              "type": "string"
            },
            {
              "internalType": "uint256[]",
              "name": "CreatedCertificateIds",
              "type": "uint256[]"
            },
            {
              "internalType": "bool",
              "name": "available",
              "type": "bool"
            },
            {
              "internalType": "bool",
              "name": "visible",
              "type": "bool"
            }
          ],
          "internalType": "struct IDataStorage.Jeweler",
          "name": "",
          "type": "tuple"
        }
      ],
      "stateMutability": "view",
      "type": "function"
    },
    {
      "inputs": [
        {
          "internalType": "bytes32",
          "name": "role",
          "type": "bytes32"
        }
      ],
      "name": "getRoleAdmin",
      "outputs": [
        {
          "internalType": "bytes32",
          "name": "",
          "type": "bytes32"
        }
      ],
      "stateMutability": "view",
      "type": "function"
    },
    {
      "inputs": [
        {
          "internalType": "bytes32",
          "name": "role",
          "type": "bytes32"
        },
        {
          "internalType": "address",
          "name": "account",
          "type": "address"
        }
      ],
      "name": "grantRole",
      "outputs": [],
      "stateMutability": "nonpayable",
      "type": "function"
    },
    {
      "inputs": [
        {
          "internalType": "bytes32",
          "name": "role",
          "type": "bytes32"
        },
        {
          "internalType": "address",
          "name": "account",
          "type": "address"
        }
      ],
      "name": "hasRole",
      "outputs": [
        {
          "internalType": "bool",
          "name": "",
          "type": "bool"
        }
      ],
      "stateMutability": "view",
      "type": "function"
    },
    {
      "inputs": [
        {
          "internalType": "bytes32",
          "name": "role",
          "type": "bytes32"
        },
        {
          "internalType": "address",
          "name": "callerConfirmation",
          "type": "address"
        }
      ],
      "name": "renounceRole",
      "outputs": [],
      "stateMutability": "nonpayable",
      "type": "function"
    },
    {
      "inputs": [
        {
          "internalType": "bytes32",
          "name": "role",
          "type": "bytes32"
        },
        {
          "internalType": "address",
          "name": "account",
          "type": "address"
        }
      ],
      "name": "revokeRole",
      "outputs": [],
      "stateMutability": "nonpayable",
      "type": "function"
    },
    {
      "inputs": [
        {
          "internalType": "bytes4",
          "name": "interfaceId",
          "type": "bytes4"
        }
      ],
      "name": "supportsInterface",
      "outputs": [
        {
          "internalType": "bool",
          "name": "",
          "type": "bool"
        }
      ],
      "stateMutability": "view",
      "type": "function"
    },
    {
      "inputs": [],
      "name": "transertCertificate",
      "outputs": [
        {
          "internalType": "bool",
          "name": "",
          "type": "bool"
        }
      ],
      "stateMutability": "nonpayable",
      "type": "function"
    },
    {
      "inputs": [],
      "name": "updateCertificate",
      "outputs": [
        {
          "internalType": "bool",
          "name": "",
          "type": "bool"
        }
      ],
      "stateMutability": "nonpayable",
      "type": "function"
    },
    {
      "inputs": [
        {
          "internalType": "string",
          "name": "_name",
          "type": "string"
        },
        {
          "internalType": "string",
          "name": "_email",
          "type": "string"
        },
        {
          "internalType": "string",
          "name": "_location",
          "type": "string"
        },
        {
          "internalType": "bool",
          "name": "_visible",
          "type": "bool"
        }
      ],
      "name": "updateCustomer",
      "outputs": [
        {
          "internalType": "bool",
          "name": "",
          "type": "bool"
        }
      ],
      "stateMutability": "nonpayable",
      "type": "function"
    },
    {
      "inputs": [
        {
          "internalType": "string",
          "name": "_name",
          "type": "string"
        },
        {
          "internalType": "string",
          "name": "_email",
          "type": "string"
        },
        {
          "internalType": "string",
          "name": "_location",
          "type": "string"
        },
        {
          "internalType": "bool",
          "name": "_visible",
          "type": "bool"
        }
      ],
      "name": "updateJeweler",
      "outputs": [
        {
          "internalType": "bool",
          "name": "",
          "type": "bool"
        }
      ],
      "stateMutability": "nonpayable",
      "type": "function"
    }
  ],
  "bytecode": "0x608060405234801561001057600080fd5b50604051612e51380380612e51833981810160405281019061003291906102e3565b6100456000801b336100ff60201b60201c565b506100767fdf8b4c520ffe197c5343c6f5aec59570151ef9a492f2c624fd45ddde6135ec42336100ff60201b60201c565b5033600260006101000a81548173ffffffffffffffffffffffffffffffffffffffff021916908373ffffffffffffffffffffffffffffffffffffffff16021790555080600160006101000a81548173ffffffffffffffffffffffffffffffffffffffff021916908373ffffffffffffffffffffffffffffffffffffffff16021790555050610310565b600061011183836101fc60201b60201c565b6101f157600160008085815260200190815260200160002060000160008473ffffffffffffffffffffffffffffffffffffffff1673ffffffffffffffffffffffffffffffffffffffff16815260200190815260200160002060006101000a81548160ff02191690831515021790555061018e61026660201b60201c565b73ffffffffffffffffffffffffffffffffffffffff168273ffffffffffffffffffffffffffffffffffffffff16847f2f8788117e7eff1d82e926ec794901d17c78024a50270940304540a733656f0d60405160405180910390a4600190506101f6565b600090505b92915050565b600080600084815260200190815260200160002060000160008373ffffffffffffffffffffffffffffffffffffffff1673ffffffffffffffffffffffffffffffffffffffff16815260200190815260200160002060009054906101000a900460ff16905092915050565b600033905090565b600080fd5b600073ffffffffffffffffffffffffffffffffffffffff82169050919050565b600061029e82610273565b9050919050565b60006102b082610293565b9050919050565b6102c0816102a5565b81146102cb57600080fd5b50565b6000815190506102dd816102b7565b92915050565b6000602082840312156102f9576102f861026e565b5b6000610307848285016102ce565b91505092915050565b612b328061031f6000396000f3fe608060405234801561001057600080fd5b50600436106101a95760003560e01c806355b059e8116100f9578063934b4af211610097578063d547741f11610071578063d547741f14610510578063ee7bf0ee1461052c578063f2e0bc581461055c578063f851a4401461058c576101a9565b8063934b4af2146104b6578063a1e5a38a146104d4578063a217fddf146104f2576101a9565b80635994d984116100d35780635994d9841461042c578063899f9d0d1461044a5780638c2717771461046857806391d1485414610486576101a9565b806355b059e81461039c57806355ed5fe8146103cc57806357a00ccf146103fc576101a9565b806329acc209116101665780632f2ff15d116101405780632f2ff15d1461031657806336568abe1461033257806341cc7c731461034e5780634ff7986e1461037e576101a9565b806329acc209146102985780632a0acc6a146102c85780632b3dd38b146102e6576101a9565b806301ffc9a7146101ae578063081ba2d5146101de5780630cdb5cb51461020e5780632027d7461461022c57806322f537ce1461024a578063248a9ca314610268575b600080fd5b6101c860048036038101906101c3919061189b565b6105aa565b6040516101d591906118e3565b60405180910390f35b6101f860048036038101906101f3919061195c565b610624565b60405161020591906118e3565b60405180910390f35b610216610732565b60405161022391906119a2565b60405180910390f35b610234610756565b60405161024191906119d6565b60405180910390f35b6102526107ee565b60405161025f91906119a2565b60405180910390f35b610282600480360381019061027d9190611a1d565b610812565b60405161028f91906119a2565b60405180910390f35b6102b260048036038101906102ad919061195c565b610831565b6040516102bf91906118e3565b60405180910390f35b6102d061093f565b6040516102dd91906119a2565b60405180910390f35b61030060048036038101906102fb9190611adb565b610963565b60405161030d91906118e3565b60405180910390f35b610330600480360381019061032b9190611ba4565b610b63565b005b61034c60048036038101906103479190611ba4565b610b85565b005b61036860048036038101906103639190611cbd565b610c00565b60405161037591906118e3565b60405180910390f35b610386610cf3565b60405161039391906118e3565b60405180910390f35b6103b660048036038101906103b19190611de1565b610cf8565b6040516103c391906118e3565b60405180910390f35b6103e660048036038101906103e19190611de1565b610e7b565b6040516103f391906118e3565b60405180910390f35b6104166004803603810190610411919061195c565b611001565b60405161042391906120b7565b60405180910390f35b6104346110b1565b60405161044191906118e3565b60405180910390f35b6104526110b6565b60405161045f91906118e3565b60405180910390f35b6104706110bf565b60405161047d91906119d6565b60405180910390f35b6104a0600480360381019061049b9190611ba4565b611157565b6040516104ad91906118e3565b60405180910390f35b6104be6111c1565b6040516104cb91906119a2565b60405180910390f35b6104dc6111e5565b6040516104e991906118e3565b60405180910390f35b6104fa6111ee565b60405161050791906119a2565b60405180910390f35b61052a60048036038101906105259190611ba4565b6111f5565b005b6105466004803603810190610541919061195c565b611217565b604051610553919061218a565b60405180910390f35b61057660048036038101906105719190611adb565b6112c7565b60405161058391906118e3565b60405180910390f35b6105946114c7565b6040516105a191906121bb565b60405180910390f35b60007f7965db0b000000000000000000000000000000000000000000000000000000007bffffffffffffffffffffffffffffffffffffffffffffffffffffffff1916827bffffffffffffffffffffffffffffffffffffffffffffffffffffffff1916148061061d575061061c826114ed565b5b9050919050565b60007fdf8b4c520ffe197c5343c6f5aec59570151ef9a492f2c624fd45ddde6135ec4261065081611557565b600160009054906101000a900473ffffffffffffffffffffffffffffffffffffffff1673ffffffffffffffffffffffffffffffffffffffff1663081ba2d5846040518263ffffffff1660e01b81526004016106ab91906121bb565b6020604051808303816000875af11580156106ca573d6000803e3d6000fd5b505050506040513d601f19601f820116820180604052508101906106ee91906121eb565b507f188d8ca5695483231734d1734924f73ab34848f997f2de827c8f73033b4614ae8342604051610720929190612218565b60405180910390a16001915050919050565b7f61e6a4bb6bca8aa1f17c71895c1ab1bf9c06c812442a0a16aad9f0837c23ca7981565b6000600160009054906101000a900473ffffffffffffffffffffffffffffffffffffffff1673ffffffffffffffffffffffffffffffffffffffff16632027d7466040518163ffffffff1660e01b8152600401602060405180830381865afa1580156107c5573d6000803e3d6000fd5b505050506040513d601f19601f820116820180604052508101906107e9919061226d565b905090565b7faf6786efc154b345802554f1dea27e60ea4c3393b6b38eb8438e22c20e088bd281565b6000806000838152602001908152602001600020600101549050919050565b60007fdf8b4c520ffe197c5343c6f5aec59570151ef9a492f2c624fd45ddde6135ec4261085d81611557565b600160009054906101000a900473ffffffffffffffffffffffffffffffffffffffff1673ffffffffffffffffffffffffffffffffffffffff166329acc209846040518263ffffffff1660e01b81526004016108b891906121bb565b6020604051808303816000875af11580156108d7573d6000803e3d6000fd5b505050506040513d601f19601f820116820180604052508101906108fb91906121eb565b507f449422d37ad477a115e35ded9d4971e6ed3594f45df1408f1eb2320a8bc5c2b8834260405161092d929190612218565b60405180910390a16001915050919050565b7fdf8b4c520ffe197c5343c6f5aec59570151ef9a492f2c624fd45ddde6135ec4281565b60007f61e6a4bb6bca8aa1f17c71895c1ab1bf9c06c812442a0a16aad9f0837c23ca7961098f81611557565b6000600160009054906101000a900473ffffffffffffffffffffffffffffffffffffffff1673ffffffffffffffffffffffffffffffffffffffff166357a00ccf336040518263ffffffff1660e01b81526004016109ec91906121bb565b600060405180830381865afa158015610a09573d6000803e3d6000fd5b505050506040513d6000823e3d601f19601f82011682018060405250810190610a3291906125c2565b6000015103610a6d576040517f1d65442900000000000000000000000000000000000000000000000000000000815260040160405180910390fd5b600160009054906101000a900473ffffffffffffffffffffffffffffffffffffffff1673ffffffffffffffffffffffffffffffffffffffff1663a735e5de338b8b8b8b8b8b8b6040518963ffffffff1660e01b8152600401610ad6989796959493929190612658565b6020604051808303816000875af1158015610af5573d6000803e3d6000fd5b505050506040513d601f19601f82011682018060405250810190610b1991906121eb565b507fc21195a7f73acb0112d9942f6c5c02acc3d8d2c74ab81a6c28f4f492dac933b83342604051610b4b929190612218565b60405180910390a16001915050979650505050505050565b610b6c82610812565b610b7581611557565b610b7f838361156b565b50505050565b610b8d61165c565b73ffffffffffffffffffffffffffffffffffffffff168173ffffffffffffffffffffffffffffffffffffffff1614610bf1576040517f6697b23200000000000000000000000000000000000000000000000000000000815260040160405180910390fd5b610bfb8282611664565b505050565b60007f61e6a4bb6bca8aa1f17c71895c1ab1bf9c06c812442a0a16aad9f0837c23ca79610c2c81611557565b600160009054906101000a900473ffffffffffffffffffffffffffffffffffffffff1673ffffffffffffffffffffffffffffffffffffffff166364df69e78e8e8e8e8e8e8e8e8e8e8e6040518c63ffffffff1660e01b8152600401610c9b9b9a99989796959493929190612857565b6020604051808303816000875af1158015610cba573d6000803e3d6000fd5b505050506040513d601f19601f82011682018060405250810190610cde91906121eb565b5060019150509b9a5050505050505050505050565b600081565b6000610d247faf6786efc154b345802554f1dea27e60ea4c3393b6b38eb8438e22c20e088bd233611157565b15610d5b576040517f937df23900000000000000000000000000000000000000000000000000000000815260040160405180910390fd5b610d857faf6786efc154b345802554f1dea27e60ea4c3393b6b38eb8438e22c20e088bd23361156b565b50600160009054906101000a900473ffffffffffffffffffffffffffffffffffffffff1673ffffffffffffffffffffffffffffffffffffffff16630f6a35403389898989898960016040518963ffffffff1660e01b8152600401610df0989796959493929190612658565b6020604051808303816000875af1158015610e0f573d6000803e3d6000fd5b505050506040513d601f19601f82011682018060405250810190610e3391906121eb565b507f9355f2ba77852e61793679ff03cf26231b8175fdfb97dc47490f1b151e6ab0d43342604051610e65929190612218565b60405180910390a1600190509695505050505050565b6000610ea77f61e6a4bb6bca8aa1f17c71895c1ab1bf9c06c812442a0a16aad9f0837c23ca7933611157565b15610ede576040517f9e5ae09300000000000000000000000000000000000000000000000000000000815260040160405180910390fd5b610f087f61e6a4bb6bca8aa1f17c71895c1ab1bf9c06c812442a0a16aad9f0837c23ca793361156b565b50600160009054906101000a900473ffffffffffffffffffffffffffffffffffffffff1673ffffffffffffffffffffffffffffffffffffffff16637208ca1933898989898989600060016040518a63ffffffff1660e01b8152600401610f76999897969594939291906128ea565b6020604051808303816000875af1158015610f95573d6000803e3d6000fd5b505050506040513d601f19601f82011682018060405250810190610fb991906121eb565b507fa12abd8201760a4e094635a878d94e4e31ee41204057e1ba4081b4c8ba7df8a83342604051610feb929190612218565b60405180910390a1600190509695505050505050565b6110096117a7565b600160009054906101000a900473ffffffffffffffffffffffffffffffffffffffff1673ffffffffffffffffffffffffffffffffffffffff166357a00ccf836040518263ffffffff1660e01b815260040161106491906121bb565b600060405180830381865afa158015611081573d6000803e3d6000fd5b505050506040513d6000823e3d601f19601f820116820180604052508101906110aa91906125c2565b9050919050565b600181565b60006001905090565b6000600160009054906101000a900473ffffffffffffffffffffffffffffffffffffffff1673ffffffffffffffffffffffffffffffffffffffff16638c2717776040518163ffffffff1660e01b8152600401602060405180830381865afa15801561112e573d6000803e3d6000fd5b505050506040513d601f19601f82011682018060405250810190611152919061226d565b905090565b600080600084815260200190815260200160002060000160008373ffffffffffffffffffffffffffffffffffffffff1673ffffffffffffffffffffffffffffffffffffffff16815260200190815260200160002060009054906101000a900460ff16905092915050565b7f8c6ae1b8cac4c99ac9b51ba2b44ec85e94139863fa8d7f1ab8f7e39763b3db4e81565b60006001905090565b6000801b81565b6111fe82610812565b61120781611557565b6112118383611664565b50505050565b61121f6117f0565b600160009054906101000a900473ffffffffffffffffffffffffffffffffffffffff1673ffffffffffffffffffffffffffffffffffffffff1663ee7bf0ee836040518263ffffffff1660e01b815260040161127a91906121bb565b600060405180830381865afa158015611297573d6000803e3d6000fd5b505050506040513d6000823e3d601f19601f820116820180604052508101906112c09190612a8a565b9050919050565b60007faf6786efc154b345802554f1dea27e60ea4c3393b6b38eb8438e22c20e088bd26112f381611557565b6000600160009054906101000a900473ffffffffffffffffffffffffffffffffffffffff1673ffffffffffffffffffffffffffffffffffffffff1663ee7bf0ee336040518263ffffffff1660e01b815260040161135091906121bb565b600060405180830381865afa15801561136d573d6000803e3d6000fd5b505050506040513d6000823e3d601f19601f820116820180604052508101906113969190612a8a565b60000151036113d1576040517f4a46a71500000000000000000000000000000000000000000000000000000000815260040160405180910390fd5b600160009054906101000a900473ffffffffffffffffffffffffffffffffffffffff1673ffffffffffffffffffffffffffffffffffffffff1663dfd49f25338b8b8b8b8b8b8b6040518963ffffffff1660e01b815260040161143a989796959493929190612658565b6020604051808303816000875af1158015611459573d6000803e3d6000fd5b505050506040513d601f19601f8201168201806040525081019061147d91906121eb565b507f3e981d6fd4c5bd91ef3f68ca28a36322130d52221ab7319ae700e4c417dcc8e333426040516114af929190612218565b60405180910390a16001915050979650505050505050565b600260009054906101000a900473ffffffffffffffffffffffffffffffffffffffff1681565b60007f01ffc9a7000000000000000000000000000000000000000000000000000000007bffffffffffffffffffffffffffffffffffffffffffffffffffffffff1916827bffffffffffffffffffffffffffffffffffffffffffffffffffffffff1916149050919050565b6115688161156361165c565b611756565b50565b60006115778383611157565b61165157600160008085815260200190815260200160002060000160008473ffffffffffffffffffffffffffffffffffffffff1673ffffffffffffffffffffffffffffffffffffffff16815260200190815260200160002060006101000a81548160ff0219169083151502179055506115ee61165c565b73ffffffffffffffffffffffffffffffffffffffff168273ffffffffffffffffffffffffffffffffffffffff16847f2f8788117e7eff1d82e926ec794901d17c78024a50270940304540a733656f0d60405160405180910390a460019050611656565b600090505b92915050565b600033905090565b60006116708383611157565b1561174b57600080600085815260200190815260200160002060000160008473ffffffffffffffffffffffffffffffffffffffff1673ffffffffffffffffffffffffffffffffffffffff16815260200190815260200160002060006101000a81548160ff0219169083151502179055506116e861165c565b73ffffffffffffffffffffffffffffffffffffffff168273ffffffffffffffffffffffffffffffffffffffff16847ff6391f5c32d9c69d2a47ea670b442974b53935d1edc7fd64eb21e047a839171b60405160405180910390a460019050611750565b600090505b92915050565b6117608282611157565b6117a35780826040517fe2517d3f00000000000000000000000000000000000000000000000000000000815260040161179a929190612ad3565b60405180910390fd5b5050565b6040518061010001604052806000815260200160008152602001606081526020016060815260200160608152602001606081526020016000151581526020016000151581525090565b6040518060e001604052806000815260200160008152602001606081526020016060815260200160608152602001600015158152602001606081525090565b6000604051905090565b600080fd5b600080fd5b60007fffffffff0000000000000000000000000000000000000000000000000000000082169050919050565b61187881611843565b811461188357600080fd5b50565b6000813590506118958161186f565b92915050565b6000602082840312156118b1576118b0611839565b5b60006118bf84828501611886565b91505092915050565b60008115159050919050565b6118dd816118c8565b82525050565b60006020820190506118f860008301846118d4565b92915050565b600073ffffffffffffffffffffffffffffffffffffffff82169050919050565b6000611929826118fe565b9050919050565b6119398161191e565b811461194457600080fd5b50565b60008135905061195681611930565b92915050565b60006020828403121561197257611971611839565b5b600061198084828501611947565b91505092915050565b6000819050919050565b61199c81611989565b82525050565b60006020820190506119b76000830184611993565b92915050565b6000819050919050565b6119d0816119bd565b82525050565b60006020820190506119eb60008301846119c7565b92915050565b6119fa81611989565b8114611a0557600080fd5b50565b600081359050611a17816119f1565b92915050565b600060208284031215611a3357611a32611839565b5b6000611a4184828501611a08565b91505092915050565b600080fd5b600080fd5b600080fd5b60008083601f840112611a6f57611a6e611a4a565b5b8235905067ffffffffffffffff811115611a8c57611a8b611a4f565b5b602083019150836001820283011115611aa857611aa7611a54565b5b9250929050565b611ab8816118c8565b8114611ac357600080fd5b50565b600081359050611ad581611aaf565b92915050565b60008060008060008060006080888a031215611afa57611af9611839565b5b600088013567ffffffffffffffff811115611b1857611b1761183e565b5b611b248a828b01611a59565b9750975050602088013567ffffffffffffffff811115611b4757611b4661183e565b5b611b538a828b01611a59565b9550955050604088013567ffffffffffffffff811115611b7657611b7561183e565b5b611b828a828b01611a59565b93509350506060611b958a828b01611ac6565b91505092959891949750929550565b60008060408385031215611bbb57611bba611839565b5b6000611bc985828601611a08565b9250506020611bda85828601611947565b9150509250929050565b60008083601f840112611bfa57611bf9611a4a565b5b8235905067ffffffffffffffff811115611c1757611c16611a4f565b5b602083019150836020820283011115611c3357611c32611a54565b5b9250929050565b600060ff82169050919050565b611c5081611c3a565b8114611c5b57600080fd5b50565b600081359050611c6d81611c47565b92915050565b60048110611c8057600080fd5b50565b600081359050611c9281611c73565b92915050565b60058110611ca557600080fd5b50565b600081359050611cb781611c98565b92915050565b600080600080600080600080600080600060e08c8e031215611ce257611ce1611839565b5b60008c013567ffffffffffffffff811115611d0057611cff61183e565b5b611d0c8e828f01611be4565b9b509b505060208c013567ffffffffffffffff811115611d2f57611d2e61183e565b5b611d3b8e828f01611be4565b99509950506040611d4e8e828f01611c5e565b97505060608c013567ffffffffffffffff811115611d6f57611d6e61183e565b5b611d7b8e828f01611a59565b96509650506080611d8e8e828f01611c83565b94505060a08c013567ffffffffffffffff811115611daf57611dae61183e565b5b611dbb8e828f01611a59565b935093505060c0611dce8e828f01611ca8565b9150509295989b509295989b9093969950565b60008060008060008060608789031215611dfe57611dfd611839565b5b600087013567ffffffffffffffff811115611e1c57611e1b61183e565b5b611e2889828a01611a59565b9650965050602087013567ffffffffffffffff811115611e4b57611e4a61183e565b5b611e5789828a01611a59565b9450945050604087013567ffffffffffffffff811115611e7a57611e7961183e565b5b611e8689828a01611a59565b92509250509295509295509295565b611e9e816119bd565b82525050565b600081519050919050565b600082825260208201905092915050565b60005b83811015611ede578082015181840152602081019050611ec3565b60008484015250505050565b6000601f19601f8301169050919050565b6000611f0682611ea4565b611f108185611eaf565b9350611f20818560208601611ec0565b611f2981611eea565b840191505092915050565b600081519050919050565b600082825260208201905092915050565b6000819050602082019050919050565b6000611f6c8383611e95565b60208301905092915050565b6000602082019050919050565b6000611f9082611f34565b611f9a8185611f3f565b9350611fa583611f50565b8060005b83811015611fd6578151611fbd8882611f60565b9750611fc883611f78565b925050600181019050611fa9565b5085935050505092915050565b611fec816118c8565b82525050565b60006101008301600083015161200b6000860182611e95565b50602083015161201e6020860182611e95565b50604083015184820360408601526120368282611efb565b915050606083015184820360608601526120508282611efb565b9150506080830151848203608086015261206a8282611efb565b91505060a083015184820360a08601526120848282611f85565b91505060c083015161209960c0860182611fe3565b5060e08301516120ac60e0860182611fe3565b508091505092915050565b600060208201905081810360008301526120d18184611ff2565b905092915050565b600060e0830160008301516120f16000860182611e95565b5060208301516121046020860182611e95565b506040830151848203604086015261211c8282611efb565b915050606083015184820360608601526121368282611efb565b915050608083015184820360808601526121508282611efb565b91505060a083015161216560a0860182611fe3565b5060c083015184820360c086015261217d8282611f85565b9150508091505092915050565b600060208201905081810360008301526121a481846120d9565b905092915050565b6121b58161191e565b82525050565b60006020820190506121d060008301846121ac565b92915050565b6000815190506121e581611aaf565b92915050565b60006020828403121561220157612200611839565b5b600061220f848285016121d6565b91505092915050565b600060408201905061222d60008301856121ac565b61223a60208301846119c7565b9392505050565b61224a816119bd565b811461225557600080fd5b50565b60008151905061226781612241565b92915050565b60006020828403121561228357612282611839565b5b600061229184828501612258565b91505092915050565b600080fd5b7f4e487b7100000000000000000000000000000000000000000000000000000000600052604160045260246000fd5b6122d782611eea565b810181811067ffffffffffffffff821117156122f6576122f561229f565b5b80604052505050565b600061230961182f565b905061231582826122ce565b919050565b600080fd5b600080fd5b600067ffffffffffffffff82111561233f5761233e61229f565b5b61234882611eea565b9050602081019050919050565b600061236861236384612324565b6122ff565b9050828152602081018484840111156123845761238361231f565b5b61238f848285611ec0565b509392505050565b600082601f8301126123ac576123ab611a4a565b5b81516123bc848260208601612355565b91505092915050565b600067ffffffffffffffff8211156123e0576123df61229f565b5b602082029050602081019050919050565b60006124046123ff846123c5565b6122ff565b9050808382526020820190506020840283018581111561242757612426611a54565b5b835b81811015612450578061243c8882612258565b845260208401935050602081019050612429565b5050509392505050565b600082601f83011261246f5761246e611a4a565b5b815161247f8482602086016123f1565b91505092915050565b6000610100828403121561249f5761249e61229a565b5b6124aa6101006122ff565b905060006124ba84828501612258565b60008301525060206124ce84828501612258565b602083015250604082015167ffffffffffffffff8111156124f2576124f161231a565b5b6124fe84828501612397565b604083015250606082015167ffffffffffffffff8111156125225761252161231a565b5b61252e84828501612397565b606083015250608082015167ffffffffffffffff8111156125525761255161231a565b5b61255e84828501612397565b60808301525060a082015167ffffffffffffffff8111156125825761258161231a565b5b61258e8482850161245a565b60a08301525060c06125a2848285016121d6565b60c08301525060e06125b6848285016121d6565b60e08301525092915050565b6000602082840312156125d8576125d7611839565b5b600082015167ffffffffffffffff8111156125f6576125f561183e565b5b61260284828501612488565b91505092915050565b600082825260208201905092915050565b82818337600083830152505050565b6000612637838561260b565b935061264483858461261c565b61264d83611eea565b840190509392505050565b600060a08201905061266d600083018b6121ac565b818103602083015261268081898b61262b565b9050818103604083015261269581878961262b565b905081810360608301526126aa81858761262b565b90506126b960808301846118d4565b9998505050505050505050565b600082825260208201905092915050565b6000819050919050565b6126ea81611c3a565b82525050565b60006126fc83836126e1565b60208301905092915050565b60006127176020840184611c5e565b905092915050565b6000602082019050919050565b600061273883856126c6565b9350612743826126d7565b8060005b8581101561277c576127598284612708565b61276388826126f0565b975061276e8361271f565b925050600181019050612747565b5085925050509392505050565b61279281611c3a565b82525050565b7f4e487b7100000000000000000000000000000000000000000000000000000000600052602160045260246000fd5b600481106127d8576127d7612798565b5b50565b60008190506127e9826127c7565b919050565b60006127f9826127db565b9050919050565b612809816127ee565b82525050565b600581106128205761281f612798565b5b50565b60008190506128318261280f565b919050565b600061284182612823565b9050919050565b61285181612836565b82525050565b600060e0820190508181036000830152612872818d8f61272c565b90508181036020830152612887818b8d61272c565b9050612896604083018a612789565b81810360608301526128a981888a61262b565b90506128b86080830187612800565b81810360a08301526128cb81858761262b565b90506128da60c0830184612848565b9c9b505050505050505050505050565b600060c0820190506128ff600083018c6121ac565b8181036020830152612912818a8c61262b565b9050818103604083015261292781888a61262b565b9050818103606083015261293c81868861262b565b905061294b60808301856118d4565b61295860a08301846118d4565b9a9950505050505050505050565b600060e0828403121561297c5761297b61229a565b5b61298660e06122ff565b9050600061299684828501612258565b60008301525060206129aa84828501612258565b602083015250604082015167ffffffffffffffff8111156129ce576129cd61231a565b5b6129da84828501612397565b604083015250606082015167ffffffffffffffff8111156129fe576129fd61231a565b5b612a0a84828501612397565b606083015250608082015167ffffffffffffffff811115612a2e57612a2d61231a565b5b612a3a84828501612397565b60808301525060a0612a4e848285016121d6565b60a08301525060c082015167ffffffffffffffff811115612a7257612a7161231a565b5b612a7e8482850161245a565b60c08301525092915050565b600060208284031215612aa057612a9f611839565b5b600082015167ffffffffffffffff811115612abe57612abd61183e565b5b612aca84828501612966565b91505092915050565b6000604082019050612ae860008301856121ac565b612af56020830184611993565b939250505056fea26469706673582212200181a8dd9bf855526ee45a88a94baf6eca10d38205dbd6f91ce12e262ac0adb964736f6c634300081c0033",
  "linkReferences": {},
  "deployedLinkReferences": {}
}