{
  "_format": "hh-sol-artifact-1",
  "contractName": "GoldChain",
  "sourceName": "contracts/GoldChain.sol",
  "abi": [
    {
      "inputs": [
        {
          "internalType": "contract IDataStorage",
          "name": "_dataStorage",
          "type": "address"
        }
      ],
      "stateMutability": "nonpayable",
      "type": "constructor"
    },
    {
      "inputs": [],
      "name": "AccessControlBadConfirmation",
      "type": "error"
    },
    {
      "inputs": [
        {
          "internalType": "address",
          "name": "account",
          "type": "address"
        },
        {
          "internalType": "bytes32",
          "name": "neededRole",
          "type": "bytes32"
        }
      ],
      "name": "AccessControlUnauthorizedAccount",
      "type": "error"
    },
    {
      "inputs": [],
      "name": "CustomerIsAlreadyRegistered",
      "type": "error"
    },
    {
      "inputs": [],
      "name": "CustomerNotExists",
      "type": "error"
    },
    {
      "inputs": [],
      "name": "ERC721EnumerableForbiddenBatchMint",
      "type": "error"
    },
    {
      "inputs": [
        {
          "internalType": "address",
          "name": "sender",
          "type": "address"
        },
        {
          "internalType": "uint256",
          "name": "tokenId",
          "type": "uint256"
        },
        {
          "internalType": "address",
          "name": "owner",
          "type": "address"
        }
      ],
      "name": "ERC721IncorrectOwner",
      "type": "error"
    },
    {
      "inputs": [
        {
          "internalType": "address",
          "name": "operator",
          "type": "address"
        },
        {
          "internalType": "uint256",
          "name": "tokenId",
          "type": "uint256"
        }
      ],
      "name": "ERC721InsufficientApproval",
      "type": "error"
    },
    {
      "inputs": [
        {
          "internalType": "address",
          "name": "approver",
          "type": "address"
        }
      ],
      "name": "ERC721InvalidApprover",
      "type": "error"
    },
    {
      "inputs": [
        {
          "internalType": "address",
          "name": "operator",
          "type": "address"
        }
      ],
      "name": "ERC721InvalidOperator",
      "type": "error"
    },
    {
      "inputs": [
        {
          "internalType": "address",
          "name": "owner",
          "type": "address"
        }
      ],
      "name": "ERC721InvalidOwner",
      "type": "error"
    },
    {
      "inputs": [
        {
          "internalType": "address",
          "name": "receiver",
          "type": "address"
        }
      ],
      "name": "ERC721InvalidReceiver",
      "type": "error"
    },
    {
      "inputs": [
        {
          "internalType": "address",
          "name": "sender",
          "type": "address"
        }
      ],
      "name": "ERC721InvalidSender",
      "type": "error"
    },
    {
      "inputs": [
        {
          "internalType": "uint256",
          "name": "tokenId",
          "type": "uint256"
        }
      ],
      "name": "ERC721NonexistentToken",
      "type": "error"
    },
    {
      "inputs": [
        {
          "internalType": "address",
          "name": "owner",
          "type": "address"
        },
        {
          "internalType": "uint256",
          "name": "index",
          "type": "uint256"
        }
      ],
      "name": "ERC721OutOfBoundsIndex",
      "type": "error"
    },
    {
      "inputs": [],
      "name": "JewelerIsAlreadyRegistered",
      "type": "error"
    },
    {
      "inputs": [],
      "name": "JewelerNotExists",
      "type": "error"
    },
    {
      "inputs": [],
      "name": "TokenDoesNotExist",
      "type": "error"
    },
    {
      "anonymous": false,
      "inputs": [
        {
          "indexed": true,
          "internalType": "address",
          "name": "owner",
          "type": "address"
        },
        {
          "indexed": true,
          "internalType": "address",
          "name": "approved",
          "type": "address"
        },
        {
          "indexed": true,
          "internalType": "uint256",
          "name": "tokenId",
          "type": "uint256"
        }
      ],
      "name": "Approval",
      "type": "event"
    },
    {
      "anonymous": false,
      "inputs": [
        {
          "indexed": true,
          "internalType": "address",
          "name": "owner",
          "type": "address"
        },
        {
          "indexed": true,
          "internalType": "address",
          "name": "operator",
          "type": "address"
        },
        {
          "indexed": false,
          "internalType": "bool",
          "name": "approved",
          "type": "bool"
        }
      ],
      "name": "ApprovalForAll",
      "type": "event"
    },
    {
      "anonymous": false,
      "inputs": [
        {
          "indexed": true,
          "internalType": "bytes32",
          "name": "role",
          "type": "bytes32"
        },
        {
          "indexed": true,
          "internalType": "bytes32",
          "name": "previousAdminRole",
          "type": "bytes32"
        },
        {
          "indexed": true,
          "internalType": "bytes32",
          "name": "newAdminRole",
          "type": "bytes32"
        }
      ],
      "name": "RoleAdminChanged",
      "type": "event"
    },
    {
      "anonymous": false,
      "inputs": [
        {
          "indexed": true,
          "internalType": "bytes32",
          "name": "role",
          "type": "bytes32"
        },
        {
          "indexed": true,
          "internalType": "address",
          "name": "account",
          "type": "address"
        },
        {
          "indexed": true,
          "internalType": "address",
          "name": "sender",
          "type": "address"
        }
      ],
      "name": "RoleGranted",
      "type": "event"
    },
    {
      "anonymous": false,
      "inputs": [
        {
          "indexed": true,
          "internalType": "bytes32",
          "name": "role",
          "type": "bytes32"
        },
        {
          "indexed": true,
          "internalType": "address",
          "name": "account",
          "type": "address"
        },
        {
          "indexed": true,
          "internalType": "address",
          "name": "sender",
          "type": "address"
        }
      ],
      "name": "RoleRevoked",
      "type": "event"
    },
    {
      "anonymous": false,
      "inputs": [
        {
          "indexed": true,
          "internalType": "address",
          "name": "from",
          "type": "address"
        },
        {
          "indexed": true,
          "internalType": "address",
          "name": "to",
          "type": "address"
        },
        {
          "indexed": true,
          "internalType": "uint256",
          "name": "tokenId",
          "type": "uint256"
        }
      ],
      "name": "Transfer",
      "type": "event"
    },
    {
      "anonymous": false,
      "inputs": [
        {
          "indexed": false,
          "internalType": "address",
          "name": "jewelerAddress",
          "type": "address"
        },
        {
          "indexed": false,
          "internalType": "uint256",
          "name": "timestamp",
          "type": "uint256"
        },
        {
          "indexed": false,
          "internalType": "uint256",
          "name": "certificateId",
          "type": "uint256"
        }
      ],
      "name": "certificateCreated",
      "type": "event"
    },
    {
      "anonymous": false,
      "inputs": [
        {
          "indexed": false,
          "internalType": "address",
          "name": "customerAddress",
          "type": "address"
        },
        {
          "indexed": false,
          "internalType": "uint256",
          "name": "timestamp",
          "type": "uint256"
        }
      ],
      "name": "customerCreated",
      "type": "event"
    },
    {
      "anonymous": false,
      "inputs": [
        {
          "indexed": false,
          "internalType": "address",
          "name": "customerAddress",
          "type": "address"
        },
        {
          "indexed": false,
          "internalType": "uint256",
          "name": "timestamp",
          "type": "uint256"
        }
      ],
      "name": "customerUpdated",
      "type": "event"
    },
    {
      "anonymous": false,
      "inputs": [
        {
          "indexed": false,
          "internalType": "address",
          "name": "jewelerAddress",
          "type": "address"
        },
        {
          "indexed": false,
          "internalType": "uint256",
          "name": "timestamp",
          "type": "uint256"
        }
      ],
      "name": "jewelerActivated",
      "type": "event"
    },
    {
      "anonymous": false,
      "inputs": [
        {
          "indexed": false,
          "internalType": "address",
          "name": "jewelerAddress",
          "type": "address"
        },
        {
          "indexed": false,
          "internalType": "uint256",
          "name": "timestamp",
          "type": "uint256"
        }
      ],
      "name": "jewelerCreated",
      "type": "event"
    },
    {
      "anonymous": false,
      "inputs": [
        {
          "indexed": false,
          "internalType": "address",
          "name": "jewelerAddress",
          "type": "address"
        },
        {
          "indexed": false,
          "internalType": "uint256",
          "name": "timestamp",
          "type": "uint256"
        }
      ],
      "name": "jewelerDesactivated",
      "type": "event"
    },
    {
      "anonymous": false,
      "inputs": [
        {
          "indexed": false,
          "internalType": "address",
          "name": "jewelerAddress",
          "type": "address"
        },
        {
          "indexed": false,
          "internalType": "uint256",
          "name": "timestamp",
          "type": "uint256"
        }
      ],
      "name": "jewelerUpdated",
      "type": "event"
    },
    {
      "inputs": [
        {
          "internalType": "bytes",
          "name": "data",
          "type": "bytes"
        }
      ],
      "name": "Base64Encode",
      "outputs": [
        {
          "internalType": "string",
          "name": "",
          "type": "string"
        }
      ],
      "stateMutability": "pure",
      "type": "function"
    },
    {
      "inputs": [],
      "name": "DEFAULT_ADMIN_ROLE",
      "outputs": [
        {
          "internalType": "bytes32",
          "name": "",
          "type": "bytes32"
        }
      ],
      "stateMutability": "view",
      "type": "function"
    },
    {
      "inputs": [],
      "name": "FALSE",
      "outputs": [
        {
          "internalType": "bool",
          "name": "",
          "type": "bool"
        }
      ],
      "stateMutability": "view",
      "type": "function"
    },
    {
      "inputs": [],
      "name": "TRUE",
      "outputs": [
        {
          "internalType": "bool",
          "name": "",
          "type": "bool"
        }
      ],
      "stateMutability": "view",
      "type": "function"
    },
    {
      "inputs": [
        {
          "internalType": "address",
          "name": "_jewelerAddress",
          "type": "address"
        }
      ],
      "name": "activateJeweler",
      "outputs": [
        {
          "internalType": "bool",
          "name": "",
          "type": "bool"
        }
      ],
      "stateMutability": "nonpayable",
      "type": "function"
    },
    {
      "inputs": [],
      "name": "admin",
      "outputs": [
        {
          "internalType": "address",
          "name": "",
          "type": "address"
        }
      ],
      "stateMutability": "view",
      "type": "function"
    },
    {
      "inputs": [
        {
          "internalType": "address",
          "name": "to",
          "type": "address"
        },
        {
          "internalType": "uint256",
          "name": "tokenId",
          "type": "uint256"
        }
      ],
      "name": "approve",
      "outputs": [],
      "stateMutability": "nonpayable",
      "type": "function"
    },
    {
      "inputs": [
        {
          "internalType": "address",
          "name": "owner",
          "type": "address"
        }
      ],
      "name": "balanceOf",
      "outputs": [
        {
          "internalType": "uint256",
          "name": "",
          "type": "uint256"
        }
      ],
      "stateMutability": "view",
      "type": "function"
    },
    {
      "inputs": [
        {
          "internalType": "uint8[]",
          "name": "_materials",
          "type": "uint8[]"
        },
        {
          "internalType": "uint8[]",
          "name": "_gemStones",
          "type": "uint8[]"
        },
        {
          "internalType": "uint8",
          "name": "_weightInGrams",
          "type": "uint8"
        },
        {
          "internalType": "string",
          "name": "_mainColor",
          "type": "string"
        },
        {
          "internalType": "enum IDataStorage.CertificateLevel",
          "name": "_level",
          "type": "uint8"
        },
        {
          "internalType": "string",
          "name": "_JewelerName",
          "type": "string"
        },
        {
          "internalType": "enum IDataStorage.CertificateStatus",
          "name": "_status",
          "type": "uint8"
        }
      ],
      "name": "createCertificate",
      "outputs": [
        {
          "internalType": "bool",
          "name": "",
          "type": "bool"
        }
      ],
      "stateMutability": "nonpayable",
      "type": "function"
    },
    {
      "inputs": [
        {
          "internalType": "string",
          "name": "_name",
          "type": "string"
        },
        {
          "internalType": "string",
          "name": "_email",
          "type": "string"
        },
        {
          "internalType": "string",
          "name": "_location",
          "type": "string"
        }
      ],
      "name": "createCustomer",
      "outputs": [
        {
          "internalType": "bool",
          "name": "",
          "type": "bool"
        }
      ],
      "stateMutability": "nonpayable",
      "type": "function"
    },
    {
      "inputs": [
        {
          "internalType": "string",
          "name": "_name",
          "type": "string"
        },
        {
          "internalType": "string",
          "name": "_email",
          "type": "string"
        },
        {
          "internalType": "string",
          "name": "_location",
          "type": "string"
        }
      ],
      "name": "createJeweler",
      "outputs": [
        {
          "internalType": "bool",
          "name": "",
          "type": "bool"
        }
      ],
      "stateMutability": "nonpayable",
      "type": "function"
    },
    {
      "inputs": [
        {
          "internalType": "address",
          "name": "_jewelerAddress",
          "type": "address"
        }
      ],
      "name": "desactivateJeweler",
      "outputs": [
        {
          "internalType": "bool",
          "name": "",
          "type": "bool"
        }
      ],
      "stateMutability": "nonpayable",
      "type": "function"
    },
    {
      "inputs": [
        {
          "internalType": "uint256",
          "name": "tokenId",
          "type": "uint256"
        }
      ],
      "name": "getApproved",
      "outputs": [
        {
          "internalType": "address",
          "name": "",
          "type": "address"
        }
      ],
      "stateMutability": "view",
      "type": "function"
    },
    {
      "inputs": [],
      "name": "getCustomerCount",
      "outputs": [
        {
          "internalType": "uint256",
          "name": "",
          "type": "uint256"
        }
      ],
      "stateMutability": "view",
      "type": "function"
    },
    {
      "inputs": [],
      "name": "getJewelerCount",
      "outputs": [
        {
          "internalType": "uint256",
          "name": "",
          "type": "uint256"
        }
      ],
      "stateMutability": "view",
      "type": "function"
    },
    {
      "inputs": [
        {
          "internalType": "uint256",
          "name": "_certificateId",
          "type": "uint256"
        }
      ],
      "name": "getOneCertificate",
      "outputs": [
        {
          "components": [
            {
              "internalType": "uint256",
              "name": "creationDate",
              "type": "uint256"
            },
            {
              "internalType": "uint256",
              "name": "updated_at",
              "type": "uint256"
            },
            {
              "internalType": "uint8[]",
              "name": "materials",
              "type": "uint8[]"
            },
            {
              "internalType": "uint8[]",
              "name": "gemStones",
              "type": "uint8[]"
            },
            {
              "internalType": "uint8",
              "name": "weightInGrams",
              "type": "uint8"
            },
            {
              "internalType": "string",
              "name": "mainColor",
              "type": "string"
            },
            {
              "internalType": "enum IDataStorage.CertificateLevel",
              "name": "level",
              "type": "uint8"
            },
            {
              "internalType": "string",
              "name": "JewelerName",
              "type": "string"
            },
            {
              "internalType": "enum IDataStorage.CertificateStatus",
              "name": "status",
              "type": "uint8"
            }
          ],
          "internalType": "struct IDataStorage.Certificate",
          "name": "",
          "type": "tuple"
        }
      ],
      "stateMutability": "view",
      "type": "function"
    },
    {
      "inputs": [
        {
          "internalType": "address",
          "name": "_customerAddress",
          "type": "address"
        }
      ],
      "name": "getOneCustomer",
      "outputs": [
        {
          "components": [
            {
              "internalType": "uint256",
              "name": "created_at",
              "type": "uint256"
            },
            {
              "internalType": "uint256",
              "name": "updated_at",
              "type": "uint256"
            },
            {
              "internalType": "string",
              "name": "name",
              "type": "string"
            },
            {
              "internalType": "string",
              "name": "email",
              "type": "string"
            },
            {
              "internalType": "string",
              "name": "location",
              "type": "string"
            },
            {
              "internalType": "bool",
              "name": "visible",
              "type": "bool"
            },
            {
              "internalType": "uint256[]",
              "name": "OwnedCertificateIds",
              "type": "uint256[]"
            }
          ],
          "internalType": "struct IDataStorage.Customer",
          "name": "",
          "type": "tuple"
        }
      ],
      "stateMutability": "view",
      "type": "function"
    },
    {
      "inputs": [
        {
          "internalType": "address",
          "name": "_jewelerAddress",
          "type": "address"
        }
      ],
      "name": "getOneJeweler",
      "outputs": [
        {
          "components": [
            {
              "internalType": "uint256",
              "name": "created_at",
              "type": "uint256"
            },
            {
              "internalType": "uint256",
              "name": "updated_at",
              "type": "uint256"
            },
            {
              "internalType": "string",
              "name": "name",
              "type": "string"
            },
            {
              "internalType": "string",
              "name": "email",
              "type": "string"
            },
            {
              "internalType": "string",
              "name": "location",
              "type": "string"
            },
            {
              "internalType": "uint256[]",
              "name": "CreatedCertificateIds",
              "type": "uint256[]"
            },
            {
              "internalType": "bool",
              "name": "available",
              "type": "bool"
            },
            {
              "internalType": "bool",
              "name": "visible",
              "type": "bool"
            }
          ],
          "internalType": "struct IDataStorage.Jeweler",
          "name": "",
          "type": "tuple"
        }
      ],
      "stateMutability": "view",
      "type": "function"
    },
    {
      "inputs": [
        {
          "internalType": "bytes32",
          "name": "role",
          "type": "bytes32"
        }
      ],
      "name": "getRoleAdmin",
      "outputs": [
        {
          "internalType": "bytes32",
          "name": "",
          "type": "bytes32"
        }
      ],
      "stateMutability": "view",
      "type": "function"
    },
    {
      "inputs": [
        {
          "internalType": "bytes32",
          "name": "role",
          "type": "bytes32"
        },
        {
          "internalType": "address",
          "name": "account",
          "type": "address"
        }
      ],
      "name": "grantRole",
      "outputs": [],
      "stateMutability": "nonpayable",
      "type": "function"
    },
    {
      "inputs": [
        {
          "internalType": "bytes32",
          "name": "role",
          "type": "bytes32"
        },
        {
          "internalType": "address",
          "name": "account",
          "type": "address"
        }
      ],
      "name": "hasRole",
      "outputs": [
        {
          "internalType": "bool",
          "name": "",
          "type": "bool"
        }
      ],
      "stateMutability": "view",
      "type": "function"
    },
    {
      "inputs": [
        {
          "internalType": "address",
          "name": "owner",
          "type": "address"
        },
        {
          "internalType": "address",
          "name": "operator",
          "type": "address"
        }
      ],
      "name": "isApprovedForAll",
      "outputs": [
        {
          "internalType": "bool",
          "name": "",
          "type": "bool"
        }
      ],
      "stateMutability": "view",
      "type": "function"
    },
    {
      "inputs": [],
      "name": "name",
      "outputs": [
        {
          "internalType": "string",
          "name": "",
          "type": "string"
        }
      ],
      "stateMutability": "view",
      "type": "function"
    },
    {
      "inputs": [
        {
          "internalType": "uint256",
          "name": "tokenId",
          "type": "uint256"
        }
      ],
      "name": "ownerOf",
      "outputs": [
        {
          "internalType": "address",
          "name": "",
          "type": "address"
        }
      ],
      "stateMutability": "view",
      "type": "function"
    },
    {
      "inputs": [
        {
          "internalType": "bytes32",
          "name": "role",
          "type": "bytes32"
        },
        {
          "internalType": "address",
          "name": "callerConfirmation",
          "type": "address"
        }
      ],
      "name": "renounceRole",
      "outputs": [],
      "stateMutability": "nonpayable",
      "type": "function"
    },
    {
      "inputs": [
        {
          "internalType": "bytes32",
          "name": "role",
          "type": "bytes32"
        },
        {
          "internalType": "address",
          "name": "account",
          "type": "address"
        }
      ],
      "name": "revokeRole",
      "outputs": [],
      "stateMutability": "nonpayable",
      "type": "function"
    },
    {
      "inputs": [
        {
          "internalType": "address",
          "name": "to",
          "type": "address"
        }
      ],
      "name": "safeMint",
      "outputs": [
        {
          "internalType": "uint256",
          "name": "",
          "type": "uint256"
        }
      ],
      "stateMutability": "nonpayable",
      "type": "function"
    },
    {
      "inputs": [
        {
          "internalType": "address",
          "name": "from",
          "type": "address"
        },
        {
          "internalType": "address",
          "name": "to",
          "type": "address"
        },
        {
          "internalType": "uint256",
          "name": "tokenId",
          "type": "uint256"
        }
      ],
      "name": "safeTransferFrom",
      "outputs": [],
      "stateMutability": "nonpayable",
      "type": "function"
    },
    {
      "inputs": [
        {
          "internalType": "address",
          "name": "from",
          "type": "address"
        },
        {
          "internalType": "address",
          "name": "to",
          "type": "address"
        },
        {
          "internalType": "uint256",
          "name": "tokenId",
          "type": "uint256"
        },
        {
          "internalType": "bytes",
          "name": "data",
          "type": "bytes"
        }
      ],
      "name": "safeTransferFrom",
      "outputs": [],
      "stateMutability": "nonpayable",
      "type": "function"
    },
    {
      "inputs": [
        {
          "internalType": "address",
          "name": "operator",
          "type": "address"
        },
        {
          "internalType": "bool",
          "name": "approved",
          "type": "bool"
        }
      ],
      "name": "setApprovalForAll",
      "outputs": [],
      "stateMutability": "nonpayable",
      "type": "function"
    },
    {
      "inputs": [
        {
          "internalType": "bytes4",
          "name": "interfaceId",
          "type": "bytes4"
        }
      ],
      "name": "supportsInterface",
      "outputs": [
        {
          "internalType": "bool",
          "name": "",
          "type": "bool"
        }
      ],
      "stateMutability": "view",
      "type": "function"
    },
    {
      "inputs": [],
      "name": "symbol",
      "outputs": [
        {
          "internalType": "string",
          "name": "",
          "type": "string"
        }
      ],
      "stateMutability": "view",
      "type": "function"
    },
    {
      "inputs": [
        {
          "internalType": "uint256",
          "name": "index",
          "type": "uint256"
        }
      ],
      "name": "tokenByIndex",
      "outputs": [
        {
          "internalType": "uint256",
          "name": "",
          "type": "uint256"
        }
      ],
      "stateMutability": "view",
      "type": "function"
    },
    {
      "inputs": [
        {
          "internalType": "address",
          "name": "owner",
          "type": "address"
        },
        {
          "internalType": "uint256",
          "name": "index",
          "type": "uint256"
        }
      ],
      "name": "tokenOfOwnerByIndex",
      "outputs": [
        {
          "internalType": "uint256",
          "name": "",
          "type": "uint256"
        }
      ],
      "stateMutability": "view",
      "type": "function"
    },
    {
      "inputs": [
        {
          "internalType": "uint256",
          "name": "tokenId",
          "type": "uint256"
        }
      ],
      "name": "tokenURI",
      "outputs": [
        {
          "internalType": "string",
          "name": "",
          "type": "string"
        }
      ],
      "stateMutability": "view",
      "type": "function"
    },
    {
      "inputs": [],
      "name": "totalSupply",
      "outputs": [
        {
          "internalType": "uint256",
          "name": "",
          "type": "uint256"
        }
      ],
      "stateMutability": "view",
      "type": "function"
    },
    {
      "inputs": [
        {
          "internalType": "address",
          "name": "from",
          "type": "address"
        },
        {
          "internalType": "address",
          "name": "to",
          "type": "address"
        },
        {
          "internalType": "uint256",
          "name": "tokenId",
          "type": "uint256"
        }
      ],
      "name": "transferFrom",
      "outputs": [],
      "stateMutability": "nonpayable",
      "type": "function"
    },
    {
      "inputs": [],
      "name": "updateCertificate",
      "outputs": [
        {
          "internalType": "bool",
          "name": "",
          "type": "bool"
        }
      ],
      "stateMutability": "nonpayable",
      "type": "function"
    },
    {
      "inputs": [
        {
          "internalType": "string",
          "name": "_name",
          "type": "string"
        },
        {
          "internalType": "string",
          "name": "_email",
          "type": "string"
        },
        {
          "internalType": "string",
          "name": "_location",
          "type": "string"
        },
        {
          "internalType": "bool",
          "name": "_visible",
          "type": "bool"
        }
      ],
      "name": "updateCustomer",
      "outputs": [
        {
          "internalType": "bool",
          "name": "",
          "type": "bool"
        }
      ],
      "stateMutability": "nonpayable",
      "type": "function"
    },
    {
      "inputs": [
        {
          "internalType": "string",
          "name": "_name",
          "type": "string"
        },
        {
          "internalType": "string",
          "name": "_email",
          "type": "string"
        },
        {
          "internalType": "string",
          "name": "_location",
          "type": "string"
        },
        {
          "internalType": "bool",
          "name": "_visible",
          "type": "bool"
        }
      ],
      "name": "updateJeweler",
      "outputs": [
        {
          "internalType": "bool",
          "name": "",
          "type": "bool"
        }
      ],
      "stateMutability": "nonpayable",
      "type": "function"
    }
  ],
  "bytecode": "0x608060405234801561001057600080fd5b5060405161668538038061668583398181016040528101906100329190610371565b6040518060400160405280600f81526020017f476f6c64436861696e45524337323100000000000000000000000000000000008152506040518060400160405280600281526020017f474300000000000000000000000000000000000000000000000000000000000081525081600190816100ad91906105ee565b5080600290816100bd91906105ee565b5050506100d36000801b3361018d60201b60201c565b506101047fdf8b4c520ffe197c5343c6f5aec59570151ef9a492f2c624fd45ddde6135ec423361018d60201b60201c565b5033600d60006101000a81548173ffffffffffffffffffffffffffffffffffffffff021916908373ffffffffffffffffffffffffffffffffffffffff16021790555080600c60006101000a81548173ffffffffffffffffffffffffffffffffffffffff021916908373ffffffffffffffffffffffffffffffffffffffff160217905550506106c0565b600061019f838361028a60201b60201c565b61027f57600160008085815260200190815260200160002060000160008473ffffffffffffffffffffffffffffffffffffffff1673ffffffffffffffffffffffffffffffffffffffff16815260200190815260200160002060006101000a81548160ff02191690831515021790555061021c6102f460201b60201c565b73ffffffffffffffffffffffffffffffffffffffff168273ffffffffffffffffffffffffffffffffffffffff16847f2f8788117e7eff1d82e926ec794901d17c78024a50270940304540a733656f0d60405160405180910390a460019050610284565b600090505b92915050565b600080600084815260200190815260200160002060000160008373ffffffffffffffffffffffffffffffffffffffff1673ffffffffffffffffffffffffffffffffffffffff16815260200190815260200160002060009054906101000a900460ff16905092915050565b600033905090565b600080fd5b600073ffffffffffffffffffffffffffffffffffffffff82169050919050565b600061032c82610301565b9050919050565b600061033e82610321565b9050919050565b61034e81610333565b811461035957600080fd5b50565b60008151905061036b81610345565b92915050565b600060208284031215610387576103866102fc565b5b60006103958482850161035c565b91505092915050565b600081519050919050565b7f4e487b7100000000000000000000000000000000000000000000000000000000600052604160045260246000fd5b7f4e487b7100000000000000000000000000000000000000000000000000000000600052602260045260246000fd5b6000600282049050600182168061041f57607f821691505b602082108103610432576104316103d8565b5b50919050565b60008190508160005260206000209050919050565b60006020601f8301049050919050565b600082821b905092915050565b60006008830261049a7fffffffffffffffffffffffffffffffffffffffffffffffffffffffffffffffff8261045d565b6104a4868361045d565b95508019841693508086168417925050509392505050565b6000819050919050565b6000819050919050565b60006104eb6104e66104e1846104bc565b6104c6565b6104bc565b9050919050565b6000819050919050565b610505836104d0565b610519610511826104f2565b84845461046a565b825550505050565b600090565b61052e610521565b6105398184846104fc565b505050565b5b8181101561055d57610552600082610526565b60018101905061053f565b5050565b601f8211156105a25761057381610438565b61057c8461044d565b8101602085101561058b578190505b61059f6105978561044d565b83018261053e565b50505b505050565b600082821c905092915050565b60006105c5600019846008026105a7565b1980831691505092915050565b60006105de83836105b4565b9150826002028217905092915050565b6105f78261039e565b67ffffffffffffffff8111156106105761060f6103a9565b5b61061a8254610407565b610625828285610561565b600060209050601f8311600181146106585760008415610646578287015190505b61065085826105d2565b8655506106b8565b601f19841661066686610438565b60005b8281101561068e57848901518255600182019150602085019450602081019050610669565b868310156106ab57848901516106a7601f8916826105b4565b8355505b6001600288020188555050505b505050505050565b615fb6806106cf6000396000f3fe608060405234801561001057600080fd5b50600436106102485760003560e01c806355ed5fe81161013b578063a217fddf116100b8578063d547741f1161007c578063d547741f146107af578063e985e9c5146107cb578063ee7bf0ee146107fb578063f2e0bc581461082b578063f851a4401461085b57610248565b8063a217fddf146106f9578063a22cb46514610717578063b88d4fde14610733578063bab859a51461074f578063c87b56dd1461077f57610248565b8063832cc77e116100ff578063832cc77e1461063f578063899f9d0d1461066f5780638c2717771461068d57806391d14854146106ab57806395d89b41146106db57610248565b806355ed5fe81461056157806357a00ccf146105915780635994d984146105c15780636352211e146105df57806370a082311461060f57610248565b80632b3dd38b116101c957806341cc7c731161018d57806341cc7c731461049757806342842e0e146104c75780634f6ccce7146104e35780634ff7986e1461051357806355b059e81461053157610248565b80632b3dd38b146103cf5780632f2ff15d146103ff5780632f745c591461041b57806336568abe1461044b57806340d097c31461046757610248565b806318160ddd1161021057806318160ddd146103175780632027d7461461033557806323b872dd14610353578063248a9ca31461036f57806329acc2091461039f57610248565b806301ffc9a71461024d57806306fdde031461027d578063081812fc1461029b578063081ba2d5146102cb578063095ea7b3146102fb575b600080fd5b61026760048036038101906102629190613a14565b610879565b6040516102749190613a5c565b60405180910390f35b61028561088b565b6040516102929190613b07565b60405180910390f35b6102b560048036038101906102b09190613b5f565b61091d565b6040516102c29190613bcd565b60405180910390f35b6102e560048036038101906102e09190613c14565b610939565b6040516102f29190613a5c565b60405180910390f35b61031560048036038101906103109190613c41565b610a47565b005b61031f610a5d565b60405161032c9190613c90565b60405180910390f35b61033d610a6a565b60405161034a9190613c90565b60405180910390f35b61036d60048036038101906103689190613cab565b610b02565b005b61038960048036038101906103849190613d34565b610c04565b6040516103969190613d70565b60405180910390f35b6103b960048036038101906103b49190613c14565b610c23565b6040516103c69190613a5c565b60405180910390f35b6103e960048036038101906103e49190613e1c565b610d31565b6040516103f69190613a5c565b60405180910390f35b61041960048036038101906104149190613ee5565b610e53565b005b61043560048036038101906104309190613c41565b610e75565b6040516104429190613c90565b60405180910390f35b61046560048036038101906104609190613ee5565b610f1e565b005b610481600480360381019061047c9190613c14565b610f99565b60405161048e9190613c90565b60405180910390f35b6104b160048036038101906104ac9190613ffe565b610fc8565b6040516104be9190613a5c565b60405180910390f35b6104e160048036038101906104dc9190613cab565b6110c7565b005b6104fd60048036038101906104f89190613b5f565b6110e7565b60405161050a9190613c90565b60405180910390f35b61051b61115d565b6040516105289190613a5c565b60405180910390f35b61054b60048036038101906105469190614122565b611162565b6040516105589190613a5c565b60405180910390f35b61057b60048036038101906105769190614122565b6112e5565b6040516105889190613a5c565b60405180910390f35b6105ab60048036038101906105a69190613c14565b61146b565b6040516105b891906143b2565b60405180910390f35b6105c961151b565b6040516105d69190613a5c565b60405180910390f35b6105f960048036038101906105f49190613b5f565b611520565b6040516106069190613bcd565b60405180910390f35b61062960048036038101906106249190613c14565b611532565b6040516106369190613c90565b60405180910390f35b61065960048036038101906106549190614504565b6115ec565b6040516106669190613b07565b60405180910390f35b6106776115fe565b6040516106849190613a5c565b60405180910390f35b610695611607565b6040516106a29190613c90565b60405180910390f35b6106c560048036038101906106c09190613ee5565b61169f565b6040516106d29190613a5c565b60405180910390f35b6106e3611709565b6040516106f09190613b07565b60405180910390f35b61070161179b565b60405161070e9190613d70565b60405180910390f35b610731600480360381019061072c919061454d565b6117a2565b005b61074d6004803603810190610748919061458d565b6117b8565b005b61076960048036038101906107649190613b5f565b6117dd565b6040516107769190614867565b60405180910390f35b61079960048036038101906107949190613b5f565b61188d565b6040516107a69190613b07565b60405180910390f35b6107c960048036038101906107c49190613ee5565b6119c4565b005b6107e560048036038101906107e09190614889565b6119e6565b6040516107f29190613a5c565b60405180910390f35b61081560048036038101906108109190613c14565b611a7a565b604051610822919061497a565b60405180910390f35b61084560048036038101906108409190613e1c565b611b2a565b6040516108529190613a5c565b60405180910390f35b610863611c4c565b6040516108709190613bcd565b60405180910390f35b600061088482611c72565b9050919050565b60606001805461089a906149cb565b80601f01602080910402602001604051908101604052809291908181526020018280546108c6906149cb565b80156109135780601f106108e857610100808354040283529160200191610913565b820191906000526020600020905b8154815290600101906020018083116108f657829003601f168201915b5050505050905090565b600061092882611c84565b5061093282611d0c565b9050919050565b60007fdf8b4c520ffe197c5343c6f5aec59570151ef9a492f2c624fd45ddde6135ec4261096581611d49565b600c60009054906101000a900473ffffffffffffffffffffffffffffffffffffffff1673ffffffffffffffffffffffffffffffffffffffff1663081ba2d5846040518263ffffffff1660e01b81526004016109c09190613bcd565b6020604051808303816000875af11580156109df573d6000803e3d6000fd5b505050506040513d601f19601f82011682018060405250810190610a039190614a11565b507f188d8ca5695483231734d1734924f73ab34848f997f2de827c8f73033b4614ae8342604051610a35929190614a3e565b60405180910390a16001915050919050565b610a598282610a54611d5d565b611d65565b5050565b6000600980549050905090565b6000600c60009054906101000a900473ffffffffffffffffffffffffffffffffffffffff1673ffffffffffffffffffffffffffffffffffffffff16632027d7466040518163ffffffff1660e01b8152600401602060405180830381865afa158015610ad9573d6000803e3d6000fd5b505050506040513d601f19601f82011682018060405250810190610afd9190614a7c565b905090565b600073ffffffffffffffffffffffffffffffffffffffff168273ffffffffffffffffffffffffffffffffffffffff1603610b745760006040517f64a0ae92000000000000000000000000000000000000000000000000000000008152600401610b6b9190613bcd565b60405180910390fd5b6000610b888383610b83611d5d565b611d77565b90508373ffffffffffffffffffffffffffffffffffffffff168173ffffffffffffffffffffffffffffffffffffffff1614610bfe578382826040517f64283d7b000000000000000000000000000000000000000000000000000000008152600401610bf593929190614aa9565b60405180910390fd5b50505050565b6000806000838152602001908152602001600020600101549050919050565b60007fdf8b4c520ffe197c5343c6f5aec59570151ef9a492f2c624fd45ddde6135ec42610c4f81611d49565b600c60009054906101000a900473ffffffffffffffffffffffffffffffffffffffff1673ffffffffffffffffffffffffffffffffffffffff166329acc209846040518263ffffffff1660e01b8152600401610caa9190613bcd565b6020604051808303816000875af1158015610cc9573d6000803e3d6000fd5b505050506040513d601f19601f82011682018060405250810190610ced9190614a11565b507f449422d37ad477a115e35ded9d4971e6ed3594f45df1408f1eb2320a8bc5c2b88342604051610d1f929190614a3e565b60405180910390a16001915050919050565b60007f61e6a4bb6bca8aa1f17c71895c1ab1bf9c06c812442a0a16aad9f0837c23ca79610d5d81611d49565b600c60009054906101000a900473ffffffffffffffffffffffffffffffffffffffff1673ffffffffffffffffffffffffffffffffffffffff1663a735e5de338b8b8b8b8b8b8b6040518963ffffffff1660e01b8152600401610dc6989796959493929190614b0d565b6020604051808303816000875af1158015610de5573d6000803e3d6000fd5b505050506040513d601f19601f82011682018060405250810190610e099190614a11565b507fc21195a7f73acb0112d9942f6c5c02acc3d8d2c74ab81a6c28f4f492dac933b83342604051610e3b929190614a3e565b60405180910390a16001915050979650505050505050565b610e5c82610c04565b610e6581611d49565b610e6f8383611d8d565b50505050565b6000610e8083611532565b8210610ec55782826040517fa57d13dc000000000000000000000000000000000000000000000000000000008152600401610ebc929190614a3e565b60405180910390fd5b600760008473ffffffffffffffffffffffffffffffffffffffff1673ffffffffffffffffffffffffffffffffffffffff168152602001908152602001600020600083815260200190815260200160002054905092915050565b610f26611d5d565b73ffffffffffffffffffffffffffffffffffffffff168173ffffffffffffffffffffffffffffffffffffffff1614610f8a576040517f6697b23200000000000000000000000000000000000000000000000000000000815260040160405180910390fd5b610f948282611e7e565b505050565b600080600b6000815480929190610faf90614baa565b919050559050610fbf8382611f70565b80915050919050565b60007f61e6a4bb6bca8aa1f17c71895c1ab1bf9c06c812442a0a16aad9f0837c23ca79610ff481611d49565b600c60009054906101000a900473ffffffffffffffffffffffffffffffffffffffff1673ffffffffffffffffffffffffffffffffffffffff166364df69e78e8e8e8e8e8e8e8e8e8e8e6040518c63ffffffff1660e01b81526004016110639b9a99989796959493929190614cbb565b6020604051808303816000875af1158015611082573d6000803e3d6000fd5b505050506040513d601f19601f820116820180604052508101906110a69190614a11565b506110b333600b54611f70565b60019150509b9a5050505050505050505050565b6110e2838383604051806020016040528060008152506117b8565b505050565b60006110f1610a5d565b8210611137576000826040517fa57d13dc00000000000000000000000000000000000000000000000000000000815260040161112e929190614a3e565b60405180910390fd5b6009828154811061114b5761114a614d4e565b5b90600052602060002001549050919050565b600081565b600061118e7faf6786efc154b345802554f1dea27e60ea4c3393b6b38eb8438e22c20e088bd23361169f565b156111c5576040517f937df23900000000000000000000000000000000000000000000000000000000815260040160405180910390fd5b6111ef7faf6786efc154b345802554f1dea27e60ea4c3393b6b38eb8438e22c20e088bd233611d8d565b50600c60009054906101000a900473ffffffffffffffffffffffffffffffffffffffff1673ffffffffffffffffffffffffffffffffffffffff16630f6a35403389898989898960016040518963ffffffff1660e01b815260040161125a989796959493929190614b0d565b6020604051808303816000875af1158015611279573d6000803e3d6000fd5b505050506040513d601f19601f8201168201806040525081019061129d9190614a11565b507f9355f2ba77852e61793679ff03cf26231b8175fdfb97dc47490f1b151e6ab0d433426040516112cf929190614a3e565b60405180910390a1600190509695505050505050565b60006113117f61e6a4bb6bca8aa1f17c71895c1ab1bf9c06c812442a0a16aad9f0837c23ca793361169f565b15611348576040517f9e5ae09300000000000000000000000000000000000000000000000000000000815260040160405180910390fd5b6113727f61e6a4bb6bca8aa1f17c71895c1ab1bf9c06c812442a0a16aad9f0837c23ca7933611d8d565b50600c60009054906101000a900473ffffffffffffffffffffffffffffffffffffffff1673ffffffffffffffffffffffffffffffffffffffff16637208ca1933898989898989600060016040518a63ffffffff1660e01b81526004016113e099989796959493929190614d7d565b6020604051808303816000875af11580156113ff573d6000803e3d6000fd5b505050506040513d601f19601f820116820180604052508101906114239190614a11565b507fa12abd8201760a4e094635a878d94e4e31ee41204057e1ba4081b4c8ba7df8a83342604051611455929190614a3e565b60405180910390a1600190509695505050505050565b6114736138ad565b600c60009054906101000a900473ffffffffffffffffffffffffffffffffffffffff1673ffffffffffffffffffffffffffffffffffffffff166357a00ccf836040518263ffffffff1660e01b81526004016114ce9190613bcd565b600060405180830381865afa1580156114eb573d6000803e3d6000fd5b505050506040513d6000823e3d601f19601f8201168201806040525081019061151491906150a1565b9050919050565b600181565b600061152b82611c84565b9050919050565b60008073ffffffffffffffffffffffffffffffffffffffff168273ffffffffffffffffffffffffffffffffffffffff16036115a55760006040517f89c62b6400000000000000000000000000000000000000000000000000000000815260040161159c9190613bcd565b60405180910390fd5b600460008373ffffffffffffffffffffffffffffffffffffffff1673ffffffffffffffffffffffffffffffffffffffff168152602001908152602001600020549050919050565b60606115f782611f8e565b9050919050565b60006001905090565b6000600c60009054906101000a900473ffffffffffffffffffffffffffffffffffffffff1673ffffffffffffffffffffffffffffffffffffffff16638c2717776040518163ffffffff1660e01b8152600401602060405180830381865afa158015611676573d6000803e3d6000fd5b505050506040513d601f19601f8201168201806040525081019061169a9190614a7c565b905090565b600080600084815260200190815260200160002060000160008373ffffffffffffffffffffffffffffffffffffffff1673ffffffffffffffffffffffffffffffffffffffff16815260200190815260200160002060009054906101000a900460ff16905092915050565b606060028054611718906149cb565b80601f0160208091040260200160405190810160405280929190818152602001828054611744906149cb565b80156117915780601f1061176657610100808354040283529160200191611791565b820191906000526020600020905b81548152906001019060200180831161177457829003601f168201915b5050505050905090565b6000801b81565b6117b46117ad611d5d565b8383612125565b5050565b6117c3848484610b02565b6117d76117ce611d5d565b85858585612294565b50505050565b6117e56138f6565b600c60009054906101000a900473ffffffffffffffffffffffffffffffffffffffff1673ffffffffffffffffffffffffffffffffffffffff1663bab859a5836040518263ffffffff1660e01b81526004016118409190613c90565b600060405180830381865afa15801561185d573d6000803e3d6000fd5b505050506040513d6000823e3d601f19601f82011682018060405250810190611886919061533c565b9050919050565b6060600b5482106118ca576040517fceea21b600000000000000000000000000000000000000000000000000000000815260040160405180910390fd5b6040518060400160405280601d81526020017f646174613a6170706c69636174696f6e2f6a736f6e3b6261736536342c00000081525061199d604051806060016040528060258152602001615f016025913961192585612445565b61192e86612513565b61193f61193a88612720565b611f8e565b6040518060400160405280600281526020017f227d0000000000000000000000000000000000000000000000000000000000008152506040516020016119899594939291906153c1565b604051602081830303815290604052611f8e565b6040516020016119ae92919061540c565b6040516020818303038152906040529050919050565b6119cd82610c04565b6119d681611d49565b6119e08383611e7e565b50505050565b6000600660008473ffffffffffffffffffffffffffffffffffffffff1673ffffffffffffffffffffffffffffffffffffffff16815260200190815260200160002060008373ffffffffffffffffffffffffffffffffffffffff1673ffffffffffffffffffffffffffffffffffffffff16815260200190815260200160002060009054906101000a900460ff16905092915050565b611a82613969565b600c60009054906101000a900473ffffffffffffffffffffffffffffffffffffffff1673ffffffffffffffffffffffffffffffffffffffff1663ee7bf0ee836040518263ffffffff1660e01b8152600401611add9190613bcd565b600060405180830381865afa158015611afa573d6000803e3d6000fd5b505050506040513d6000823e3d601f19601f82011682018060405250810190611b239190615554565b9050919050565b60007faf6786efc154b345802554f1dea27e60ea4c3393b6b38eb8438e22c20e088bd2611b5681611d49565b600c60009054906101000a900473ffffffffffffffffffffffffffffffffffffffff1673ffffffffffffffffffffffffffffffffffffffff1663dfd49f25338b8b8b8b8b8b8b6040518963ffffffff1660e01b8152600401611bbf989796959493929190614b0d565b6020604051808303816000875af1158015611bde573d6000803e3d6000fd5b505050506040513d601f19601f82011682018060405250810190611c029190614a11565b507f3e981d6fd4c5bd91ef3f68ca28a36322130d52221ab7319ae700e4c417dcc8e33342604051611c34929190614a3e565b60405180910390a16001915050979650505050505050565b600d60009054906101000a900473ffffffffffffffffffffffffffffffffffffffff1681565b6000611c7d82612a5e565b9050919050565b600080611c9083612ad8565b9050600073ffffffffffffffffffffffffffffffffffffffff168173ffffffffffffffffffffffffffffffffffffffff1603611d0357826040517f7e273289000000000000000000000000000000000000000000000000000000008152600401611cfa9190613c90565b60405180910390fd5b80915050919050565b60006005600083815260200190815260200160002060009054906101000a900473ffffffffffffffffffffffffffffffffffffffff169050919050565b611d5a81611d55611d5d565b612b15565b50565b600033905090565b611d728383836001612b66565b505050565b6000611d84848484612d2b565b90509392505050565b6000611d99838361169f565b611e7357600160008085815260200190815260200160002060000160008473ffffffffffffffffffffffffffffffffffffffff1673ffffffffffffffffffffffffffffffffffffffff16815260200190815260200160002060006101000a81548160ff021916908315150217905550611e10611d5d565b73ffffffffffffffffffffffffffffffffffffffff168273ffffffffffffffffffffffffffffffffffffffff16847f2f8788117e7eff1d82e926ec794901d17c78024a50270940304540a733656f0d60405160405180910390a460019050611e78565b600090505b92915050565b6000611e8a838361169f565b15611f6557600080600085815260200190815260200160002060000160008473ffffffffffffffffffffffffffffffffffffffff1673ffffffffffffffffffffffffffffffffffffffff16815260200190815260200160002060006101000a81548160ff021916908315150217905550611f02611d5d565b73ffffffffffffffffffffffffffffffffffffffff168273ffffffffffffffffffffffffffffffffffffffff16847ff6391f5c32d9c69d2a47ea670b442974b53935d1edc7fd64eb21e047a839171b60405160405180910390a460019050611f6a565b600090505b92915050565b611f8a828260405180602001604052806000815250612e48565b5050565b606060008251905060008103611fb65760405180602001604052806000815250915050612120565b60006003600283611fc7919061559d565b611fd19190615600565b6004611fdd9190615631565b90506000602082611fee919061559d565b67ffffffffffffffff811115612007576120066143d9565b5b6040519080825280601f01601f1916602001820160405280156120395781602001600182028036833780820191505090505b5090506000604051806060016040528060408152602001615cb1604091399050600181016020830160005b868110156120dd5760038101905062ffffff818a015116603f8160121c168401518060081b905060ff603f83600c1c1686015116810190508060081b905060ff603f8360061c1686015116810190508060081b905060ff603f831686015116810190508060e01b90508084526004840193505050612064565b5060038606600181146120f7576002811461210757612112565b613d3d60f01b6002830352612112565b603d60f81b60018303525b508484525050819450505050505b919050565b600073ffffffffffffffffffffffffffffffffffffffff168273ffffffffffffffffffffffffffffffffffffffff160361219657816040517f5b08ba1800000000000000000000000000000000000000000000000000000000815260040161218d9190613bcd565b60405180910390fd5b80600660008573ffffffffffffffffffffffffffffffffffffffff1673ffffffffffffffffffffffffffffffffffffffff16815260200190815260200160002060008473ffffffffffffffffffffffffffffffffffffffff1673ffffffffffffffffffffffffffffffffffffffff16815260200190815260200160002060006101000a81548160ff0219169083151502179055508173ffffffffffffffffffffffffffffffffffffffff168373ffffffffffffffffffffffffffffffffffffffff167f17307eab39ab6107e8899845ad3d59bd9653f200f220920489ca2b5937696c31836040516122879190613a5c565b60405180910390a3505050565b60008373ffffffffffffffffffffffffffffffffffffffff163b111561243e578273ffffffffffffffffffffffffffffffffffffffff1663150b7a02868685856040518563ffffffff1660e01b81526004016122f394939291906156c8565b6020604051808303816000875af192505050801561232f57506040513d601f19601f8201168201806040525081019061232c9190615729565b60015b6123b3573d806000811461235f576040519150601f19603f3d011682016040523d82523d6000602084013e612364565b606091505b5060008151036123ab57836040517f64a0ae920000000000000000000000000000000000000000000000000000000081526004016123a29190613bcd565b60405180910390fd5b805181602001fd5b63150b7a0260e01b7bffffffffffffffffffffffffffffffffffffffffffffffffffffffff1916817bffffffffffffffffffffffffffffffffffffffffffffffffffffffff19161461243c57836040517f64a0ae920000000000000000000000000000000000000000000000000000000081526004016124339190613bcd565b60405180910390fd5b505b5050505050565b60606000600161245484612e6c565b01905060008167ffffffffffffffff811115612473576124726143d9565b5b6040519080825280601f01601f1916602001820160405280156124a55781602001600182028036833780820191505090505b509050600082602001820190505b600115612508578080600190039150507f3031323334353637383961626364656600000000000000000000000000000000600a86061a8153600a85816124fc576124fb6155d1565b5b049450600085036124b3575b819350505050919050565b60606000600c60009054906101000a900473ffffffffffffffffffffffffffffffffffffffff1673ffffffffffffffffffffffffffffffffffffffff1663bab859a5846040518263ffffffff1660e01b81526004016125729190613c90565b600060405180830381865afa15801561258f573d6000803e3d6000fd5b505050506040513d6000823e3d601f19601f820116820180604052508101906125b8919061533c565b90506000604051806060016040528060398152602001615ad6603991398260e001516040518060600160405280602b8152602001615cf1602b9139846040015160008151811061260b5761260a614d4e565b5b60200260200101516040518060600160405280602c8152602001615f55602c9139866060015160008151811061264457612643614d4e565b5b60200260200101516040516020016126619695949392919061578c565b6040516020818303038152906040529050806040518060600160405280602c8152602001615a38602c913961269c846080015160ff16612445565b6040518060600160405280602881526020016159c3602891398560a001516040518060600160405280602f8152602001615f26602f91398760c0015160405180606001604052806028815260200161594460289139604051602001612708989796959493929190615803565b60405160208183030381529060405292505050919050565b6060600060405180608001604052806057815260200161596c605791396040518060a00160405280606e8152602001615b8b606e91396040518060a0016040528060798152602001615e22607991396040518060400160405280601781526020017f43657274696669636174204e46542064652042696a6f750000000000000000008152506040518060400160405280600781526020017f3c2f746578743e000000000000000000000000000000000000000000000000008152506040516020016127ef9594939291906153c1565b6040516020818303038152906040529050806040518060800160405280605d8152602001615d1c605d91396040518060800160405280605c8152602001615d79605c91396040518060a0016040528060728152602001615a64607291396040518060800160405280604d8152602001615c64604d91396040516020016128799594939291906153c1565b6040516020818303038152906040529050806040518060800160405280604d81526020016159eb604d91396040518060800160405280604d8152602001615dd5604d91396040518060a00160405280607c8152602001615b0f607c91396040518060400160405280600981526020017f476f6c64436861696e00000000000000000000000000000000000000000000008152506040516020016129209594939291906153c1565b6040516020818303038152906040529050806040518060400160405280600781526020017f3c2f746578743e000000000000000000000000000000000000000000000000008152506040518060a00160405280606b8152602001615bf9606b91396040518060a0016040528060668152602001615e9b606691396040516020016129ad9493929190615879565b6040516020818303038152906040529050806040518060400160405280600781526020017f3c2f746578743e000000000000000000000000000000000000000000000000008152506129fe85612445565b6040518060400160405280600681526020017f3c2f7376673e0000000000000000000000000000000000000000000000000000815250604051602001612a479493929190615879565b604051602081830303815290604052915050919050565b60007f780e9d63000000000000000000000000000000000000000000000000000000007bffffffffffffffffffffffffffffffffffffffffffffffffffffffff1916827bffffffffffffffffffffffffffffffffffffffffffffffffffffffff19161480612ad15750612ad082612fbf565b5b9050919050565b60006003600083815260200190815260200160002060009054906101000a900473ffffffffffffffffffffffffffffffffffffffff169050919050565b612b1f828261169f565b612b625780826040517fe2517d3f000000000000000000000000000000000000000000000000000000008152600401612b599291906158b7565b60405180910390fd5b5050565b8080612b9f5750600073ffffffffffffffffffffffffffffffffffffffff168273ffffffffffffffffffffffffffffffffffffffff1614155b15612cd3576000612baf84611c84565b9050600073ffffffffffffffffffffffffffffffffffffffff168373ffffffffffffffffffffffffffffffffffffffff1614158015612c1a57508273ffffffffffffffffffffffffffffffffffffffff168173ffffffffffffffffffffffffffffffffffffffff1614155b8015612c2d5750612c2b81846119e6565b155b15612c6f57826040517fa9fbf51f000000000000000000000000000000000000000000000000000000008152600401612c669190613bcd565b60405180910390fd5b8115612cd157838573ffffffffffffffffffffffffffffffffffffffff168273ffffffffffffffffffffffffffffffffffffffff167f8c5be1e5ebec7d5bd14f71427d1e84f3dd0314c0f7b2291e5b200ac8c7c3b92560405160405180910390a45b505b836005600085815260200190815260200160002060006101000a81548173ffffffffffffffffffffffffffffffffffffffff021916908373ffffffffffffffffffffffffffffffffffffffff16021790555050505050565b600080612d398585856130a1565b9050600073ffffffffffffffffffffffffffffffffffffffff168173ffffffffffffffffffffffffffffffffffffffff1603612d7d57612d78846132bb565b612dbc565b8473ffffffffffffffffffffffffffffffffffffffff168173ffffffffffffffffffffffffffffffffffffffff1614612dbb57612dba8185613304565b5b5b600073ffffffffffffffffffffffffffffffffffffffff168573ffffffffffffffffffffffffffffffffffffffff1603612dfe57612df9846133ef565b612e3d565b8473ffffffffffffffffffffffffffffffffffffffff168173ffffffffffffffffffffffffffffffffffffffff1614612e3c57612e3b85856134c0565b5b5b809150509392505050565b612e52838361354b565b612e67612e5d611d5d565b6000858585612294565b505050565b600080600090507a184f03e93ff9f4daa797ed6e38ed64bf6a1f0100000000000000008310612eca577a184f03e93ff9f4daa797ed6e38ed64bf6a1f0100000000000000008381612ec057612ebf6155d1565b5b0492506040810190505b6d04ee2d6d415b85acef81000000008310612f07576d04ee2d6d415b85acef81000000008381612efd57612efc6155d1565b5b0492506020810190505b662386f26fc100008310612f3657662386f26fc100008381612f2c57612f2b6155d1565b5b0492506010810190505b6305f5e1008310612f5f576305f5e1008381612f5557612f546155d1565b5b0492506008810190505b6127108310612f84576127108381612f7a57612f796155d1565b5b0492506004810190505b60648310612fa75760648381612f9d57612f9c6155d1565b5b0492506002810190505b600a8310612fb6576001810190505b80915050919050565b60007f80ac58cd000000000000000000000000000000000000000000000000000000007bffffffffffffffffffffffffffffffffffffffffffffffffffffffff1916827bffffffffffffffffffffffffffffffffffffffffffffffffffffffff1916148061308a57507f5b5e139f000000000000000000000000000000000000000000000000000000007bffffffffffffffffffffffffffffffffffffffffffffffffffffffff1916827bffffffffffffffffffffffffffffffffffffffffffffffffffffffff1916145b8061309a575061309982613644565b5b9050919050565b6000806130ad84612ad8565b9050600073ffffffffffffffffffffffffffffffffffffffff168373ffffffffffffffffffffffffffffffffffffffff16146130ef576130ee8184866136be565b5b600073ffffffffffffffffffffffffffffffffffffffff168173ffffffffffffffffffffffffffffffffffffffff161461318057613131600085600080612b66565b6001600460008373ffffffffffffffffffffffffffffffffffffffff1673ffffffffffffffffffffffffffffffffffffffff168152602001908152602001600020600082825403925050819055505b600073ffffffffffffffffffffffffffffffffffffffff168573ffffffffffffffffffffffffffffffffffffffff1614613203576001600460008773ffffffffffffffffffffffffffffffffffffffff1673ffffffffffffffffffffffffffffffffffffffff168152602001908152602001600020600082825401925050819055505b846003600086815260200190815260200160002060006101000a81548173ffffffffffffffffffffffffffffffffffffffff021916908373ffffffffffffffffffffffffffffffffffffffff160217905550838573ffffffffffffffffffffffffffffffffffffffff168273ffffffffffffffffffffffffffffffffffffffff167fddf252ad1be2c89b69c2b068fc378daa952ba7f163c4a11628f55a4df523b3ef60405160405180910390a4809150509392505050565b600980549050600a600083815260200190815260200160002081905550600981908060018154018082558091505060019003906000526020600020016000909190919091505550565b600061330f83611532565b90506000600860008481526020019081526020016000205490506000600760008673ffffffffffffffffffffffffffffffffffffffff1673ffffffffffffffffffffffffffffffffffffffff16815260200190815260200160002090508282146133bb5760008160008581526020019081526020016000205490508082600085815260200190815260200160002081905550826008600083815260200190815260200160002081905550505b6008600085815260200190815260200160002060009055806000848152602001908152602001600020600090555050505050565b6000600160098054905061340391906158e0565b90506000600a600084815260200190815260200160002054905060006009838154811061343357613432614d4e565b5b90600052602060002001549050806009838154811061345557613454614d4e565b5b906000526020600020018190555081600a600083815260200190815260200160002081905550600a60008581526020019081526020016000206000905560098054806134a4576134a3615914565b5b6001900381819060005260206000200160009055905550505050565b600060016134cd84611532565b6134d791906158e0565b905081600760008573ffffffffffffffffffffffffffffffffffffffff1673ffffffffffffffffffffffffffffffffffffffff168152602001908152602001600020600083815260200190815260200160002081905550806008600084815260200190815260200160002081905550505050565b600073ffffffffffffffffffffffffffffffffffffffff168273ffffffffffffffffffffffffffffffffffffffff16036135bd5760006040517f64a0ae920000000000000000000000000000000000000000000000000000000081526004016135b49190613bcd565b60405180910390fd5b60006135cb83836000611d77565b9050600073ffffffffffffffffffffffffffffffffffffffff168173ffffffffffffffffffffffffffffffffffffffff161461363f5760006040517f73c6ac6e0000000000000000000000000000000000000000000000000000000081526004016136369190613bcd565b60405180910390fd5b505050565b60007f7965db0b000000000000000000000000000000000000000000000000000000007bffffffffffffffffffffffffffffffffffffffffffffffffffffffff1916827bffffffffffffffffffffffffffffffffffffffffffffffffffffffff191614806136b757506136b682613782565b5b9050919050565b6136c98383836137ec565b61377d57600073ffffffffffffffffffffffffffffffffffffffff168373ffffffffffffffffffffffffffffffffffffffff160361373e57806040517f7e2732890000000000000000000000000000000000000000000000000000000081526004016137359190613c90565b60405180910390fd5b81816040517f177e802f000000000000000000000000000000000000000000000000000000008152600401613774929190614a3e565b60405180910390fd5b505050565b60007f01ffc9a7000000000000000000000000000000000000000000000000000000007bffffffffffffffffffffffffffffffffffffffffffffffffffffffff1916827bffffffffffffffffffffffffffffffffffffffffffffffffffffffff1916149050919050565b60008073ffffffffffffffffffffffffffffffffffffffff168373ffffffffffffffffffffffffffffffffffffffff16141580156138a457508273ffffffffffffffffffffffffffffffffffffffff168473ffffffffffffffffffffffffffffffffffffffff161480613865575061386484846119e6565b5b806138a357508273ffffffffffffffffffffffffffffffffffffffff1661388b83611d0c565b73ffffffffffffffffffffffffffffffffffffffff16145b5b90509392505050565b6040518061010001604052806000815260200160008152602001606081526020016060815260200160608152602001606081526020016000151581526020016000151581525090565b60405180610120016040528060008152602001600081526020016060815260200160608152602001600060ff1681526020016060815260200160006003811115613943576139426146ce565b5b81526020016060815260200160006004811115613963576139626146ce565b5b81525090565b6040518060e001604052806000815260200160008152602001606081526020016060815260200160608152602001600015158152602001606081525090565b6000604051905090565b600080fd5b600080fd5b60007fffffffff0000000000000000000000000000000000000000000000000000000082169050919050565b6139f1816139bc565b81146139fc57600080fd5b50565b600081359050613a0e816139e8565b92915050565b600060208284031215613a2a57613a296139b2565b5b6000613a38848285016139ff565b91505092915050565b60008115159050919050565b613a5681613a41565b82525050565b6000602082019050613a716000830184613a4d565b92915050565b600081519050919050565b600082825260208201905092915050565b60005b83811015613ab1578082015181840152602081019050613a96565b60008484015250505050565b6000601f19601f8301169050919050565b6000613ad982613a77565b613ae38185613a82565b9350613af3818560208601613a93565b613afc81613abd565b840191505092915050565b60006020820190508181036000830152613b218184613ace565b905092915050565b6000819050919050565b613b3c81613b29565b8114613b4757600080fd5b50565b600081359050613b5981613b33565b92915050565b600060208284031215613b7557613b746139b2565b5b6000613b8384828501613b4a565b91505092915050565b600073ffffffffffffffffffffffffffffffffffffffff82169050919050565b6000613bb782613b8c565b9050919050565b613bc781613bac565b82525050565b6000602082019050613be26000830184613bbe565b92915050565b613bf181613bac565b8114613bfc57600080fd5b50565b600081359050613c0e81613be8565b92915050565b600060208284031215613c2a57613c296139b2565b5b6000613c3884828501613bff565b91505092915050565b60008060408385031215613c5857613c576139b2565b5b6000613c6685828601613bff565b9250506020613c7785828601613b4a565b9150509250929050565b613c8a81613b29565b82525050565b6000602082019050613ca56000830184613c81565b92915050565b600080600060608486031215613cc457613cc36139b2565b5b6000613cd286828701613bff565b9350506020613ce386828701613bff565b9250506040613cf486828701613b4a565b9150509250925092565b6000819050919050565b613d1181613cfe565b8114613d1c57600080fd5b50565b600081359050613d2e81613d08565b92915050565b600060208284031215613d4a57613d496139b2565b5b6000613d5884828501613d1f565b91505092915050565b613d6a81613cfe565b82525050565b6000602082019050613d856000830184613d61565b92915050565b600080fd5b600080fd5b600080fd5b60008083601f840112613db057613daf613d8b565b5b8235905067ffffffffffffffff811115613dcd57613dcc613d90565b5b602083019150836001820283011115613de957613de8613d95565b5b9250929050565b613df981613a41565b8114613e0457600080fd5b50565b600081359050613e1681613df0565b92915050565b60008060008060008060006080888a031215613e3b57613e3a6139b2565b5b600088013567ffffffffffffffff811115613e5957613e586139b7565b5b613e658a828b01613d9a565b9750975050602088013567ffffffffffffffff811115613e8857613e876139b7565b5b613e948a828b01613d9a565b9550955050604088013567ffffffffffffffff811115613eb757613eb66139b7565b5b613ec38a828b01613d9a565b93509350506060613ed68a828b01613e07565b91505092959891949750929550565b60008060408385031215613efc57613efb6139b2565b5b6000613f0a85828601613d1f565b9250506020613f1b85828601613bff565b9150509250929050565b60008083601f840112613f3b57613f3a613d8b565b5b8235905067ffffffffffffffff811115613f5857613f57613d90565b5b602083019150836020820283011115613f7457613f73613d95565b5b9250929050565b600060ff82169050919050565b613f9181613f7b565b8114613f9c57600080fd5b50565b600081359050613fae81613f88565b92915050565b60048110613fc157600080fd5b50565b600081359050613fd381613fb4565b92915050565b60058110613fe657600080fd5b50565b600081359050613ff881613fd9565b92915050565b600080600080600080600080600080600060e08c8e031215614023576140226139b2565b5b60008c013567ffffffffffffffff811115614041576140406139b7565b5b61404d8e828f01613f25565b9b509b505060208c013567ffffffffffffffff8111156140705761406f6139b7565b5b61407c8e828f01613f25565b9950995050604061408f8e828f01613f9f565b97505060608c013567ffffffffffffffff8111156140b0576140af6139b7565b5b6140bc8e828f01613d9a565b965096505060806140cf8e828f01613fc4565b94505060a08c013567ffffffffffffffff8111156140f0576140ef6139b7565b5b6140fc8e828f01613d9a565b935093505060c061410f8e828f01613fe9565b9150509295989b509295989b9093969950565b6000806000806000806060878903121561413f5761413e6139b2565b5b600087013567ffffffffffffffff81111561415d5761415c6139b7565b5b61416989828a01613d9a565b9650965050602087013567ffffffffffffffff81111561418c5761418b6139b7565b5b61419889828a01613d9a565b9450945050604087013567ffffffffffffffff8111156141bb576141ba6139b7565b5b6141c789828a01613d9a565b92509250509295509295509295565b6141df81613b29565b82525050565b600082825260208201905092915050565b600061420182613a77565b61420b81856141e5565b935061421b818560208601613a93565b61422481613abd565b840191505092915050565b600081519050919050565b600082825260208201905092915050565b6000819050602082019050919050565b600061426783836141d6565b60208301905092915050565b6000602082019050919050565b600061428b8261422f565b614295818561423a565b93506142a08361424b565b8060005b838110156142d15781516142b8888261425b565b97506142c383614273565b9250506001810190506142a4565b5085935050505092915050565b6142e781613a41565b82525050565b60006101008301600083015161430660008601826141d6565b50602083015161431960208601826141d6565b506040830151848203604086015261433182826141f6565b9150506060830151848203606086015261434b82826141f6565b9150506080830151848203608086015261436582826141f6565b91505060a083015184820360a086015261437f8282614280565b91505060c083015161439460c08601826142de565b5060e08301516143a760e08601826142de565b508091505092915050565b600060208201905081810360008301526143cc81846142ed565b905092915050565b600080fd5b7f4e487b7100000000000000000000000000000000000000000000000000000000600052604160045260246000fd5b61441182613abd565b810181811067ffffffffffffffff821117156144305761442f6143d9565b5b80604052505050565b60006144436139a8565b905061444f8282614408565b919050565b600067ffffffffffffffff82111561446f5761446e6143d9565b5b61447882613abd565b9050602081019050919050565b82818337600083830152505050565b60006144a76144a284614454565b614439565b9050828152602081018484840111156144c3576144c26143d4565b5b6144ce848285614485565b509392505050565b600082601f8301126144eb576144ea613d8b565b5b81356144fb848260208601614494565b91505092915050565b60006020828403121561451a576145196139b2565b5b600082013567ffffffffffffffff811115614538576145376139b7565b5b614544848285016144d6565b91505092915050565b60008060408385031215614564576145636139b2565b5b600061457285828601613bff565b925050602061458385828601613e07565b9150509250929050565b600080600080608085870312156145a7576145a66139b2565b5b60006145b587828801613bff565b94505060206145c687828801613bff565b93505060406145d787828801613b4a565b925050606085013567ffffffffffffffff8111156145f8576145f76139b7565b5b614604878288016144d6565b91505092959194509250565b600081519050919050565b600082825260208201905092915050565b6000819050602082019050919050565b61464581613f7b565b82525050565b6000614657838361463c565b60208301905092915050565b6000602082019050919050565b600061467b82614610565b614685818561461b565b93506146908361462c565b8060005b838110156146c15781516146a8888261464b565b97506146b383614663565b925050600181019050614694565b5085935050505092915050565b7f4e487b7100000000000000000000000000000000000000000000000000000000600052602160045260246000fd5b6004811061470e5761470d6146ce565b5b50565b600081905061471f826146fd565b919050565b600061472f82614711565b9050919050565b61473f81614724565b82525050565b60058110614756576147556146ce565b5b50565b600081905061476782614745565b919050565b600061477782614759565b9050919050565b6147878161476c565b82525050565b6000610120830160008301516147a660008601826141d6565b5060208301516147b960208601826141d6565b50604083015184820360408601526147d18282614670565b915050606083015184820360608601526147eb8282614670565b9150506080830151614800608086018261463c565b5060a083015184820360a086015261481882826141f6565b91505060c083015161482d60c0860182614736565b5060e083015184820360e086015261484582826141f6565b91505061010083015161485c61010086018261477e565b508091505092915050565b60006020820190508181036000830152614881818461478d565b905092915050565b600080604083850312156148a05761489f6139b2565b5b60006148ae85828601613bff565b92505060206148bf85828601613bff565b9150509250929050565b600060e0830160008301516148e160008601826141d6565b5060208301516148f460208601826141d6565b506040830151848203604086015261490c82826141f6565b9150506060830151848203606086015261492682826141f6565b9150506080830151848203608086015261494082826141f6565b91505060a083015161495560a08601826142de565b5060c083015184820360c086015261496d8282614280565b9150508091505092915050565b6000602082019050818103600083015261499481846148c9565b905092915050565b7f4e487b7100000000000000000000000000000000000000000000000000000000600052602260045260246000fd5b600060028204905060018216806149e357607f821691505b6020821081036149f6576149f561499c565b5b50919050565b600081519050614a0b81613df0565b92915050565b600060208284031215614a2757614a266139b2565b5b6000614a35848285016149fc565b91505092915050565b6000604082019050614a536000830185613bbe565b614a606020830184613c81565b9392505050565b600081519050614a7681613b33565b92915050565b600060208284031215614a9257614a916139b2565b5b6000614aa084828501614a67565b91505092915050565b6000606082019050614abe6000830186613bbe565b614acb6020830185613c81565b614ad86040830184613bbe565b949350505050565b6000614aec8385613a82565b9350614af9838584614485565b614b0283613abd565b840190509392505050565b600060a082019050614b22600083018b613bbe565b8181036020830152614b3581898b614ae0565b90508181036040830152614b4a818789614ae0565b90508181036060830152614b5f818587614ae0565b9050614b6e6080830184613a4d565b9998505050505050505050565b7f4e487b7100000000000000000000000000000000000000000000000000000000600052601160045260246000fd5b6000614bb582613b29565b91507fffffffffffffffffffffffffffffffffffffffffffffffffffffffffffffffff8203614be757614be6614b7b565b5b600182019050919050565b600082825260208201905092915050565b6000819050919050565b6000614c1c6020840184613f9f565b905092915050565b6000602082019050919050565b6000614c3d8385614bf2565b9350614c4882614c03565b8060005b85811015614c8157614c5e8284614c0d565b614c68888261464b565b9750614c7383614c24565b925050600181019050614c4c565b5085925050509392505050565b614c9781613f7b565b82525050565b614ca681614724565b82525050565b614cb58161476c565b82525050565b600060e0820190508181036000830152614cd6818d8f614c31565b90508181036020830152614ceb818b8d614c31565b9050614cfa604083018a614c8e565b8181036060830152614d0d81888a614ae0565b9050614d1c6080830187614c9d565b81810360a0830152614d2f818587614ae0565b9050614d3e60c0830184614cac565b9c9b505050505050505050505050565b7f4e487b7100000000000000000000000000000000000000000000000000000000600052603260045260246000fd5b600060c082019050614d92600083018c613bbe565b8181036020830152614da5818a8c614ae0565b90508181036040830152614dba81888a614ae0565b90508181036060830152614dcf818688614ae0565b9050614dde6080830185613a4d565b614deb60a0830184613a4d565b9a9950505050505050505050565b600080fd5b600080fd5b600067ffffffffffffffff821115614e1e57614e1d6143d9565b5b614e2782613abd565b9050602081019050919050565b6000614e47614e4284614e03565b614439565b905082815260208101848484011115614e6357614e626143d4565b5b614e6e848285613a93565b509392505050565b600082601f830112614e8b57614e8a613d8b565b5b8151614e9b848260208601614e34565b91505092915050565b600067ffffffffffffffff821115614ebf57614ebe6143d9565b5b602082029050602081019050919050565b6000614ee3614ede84614ea4565b614439565b90508083825260208201905060208402830185811115614f0657614f05613d95565b5b835b81811015614f2f5780614f1b8882614a67565b845260208401935050602081019050614f08565b5050509392505050565b600082601f830112614f4e57614f4d613d8b565b5b8151614f5e848260208601614ed0565b91505092915050565b60006101008284031215614f7e57614f7d614df9565b5b614f89610100614439565b90506000614f9984828501614a67565b6000830152506020614fad84828501614a67565b602083015250604082015167ffffffffffffffff811115614fd157614fd0614dfe565b5b614fdd84828501614e76565b604083015250606082015167ffffffffffffffff81111561500157615000614dfe565b5b61500d84828501614e76565b606083015250608082015167ffffffffffffffff81111561503157615030614dfe565b5b61503d84828501614e76565b60808301525060a082015167ffffffffffffffff81111561506157615060614dfe565b5b61506d84828501614f39565b60a08301525060c0615081848285016149fc565b60c08301525060e0615095848285016149fc565b60e08301525092915050565b6000602082840312156150b7576150b66139b2565b5b600082015167ffffffffffffffff8111156150d5576150d46139b7565b5b6150e184828501614f67565b91505092915050565b600067ffffffffffffffff821115615105576151046143d9565b5b602082029050602081019050919050565b60008151905061512581613f88565b92915050565b600061513e615139846150ea565b614439565b9050808382526020820190506020840283018581111561516157615160613d95565b5b835b8181101561518a57806151768882615116565b845260208401935050602081019050615163565b5050509392505050565b600082601f8301126151a9576151a8613d8b565b5b81516151b984826020860161512b565b91505092915050565b6000815190506151d181613fb4565b92915050565b6000815190506151e681613fd9565b92915050565b6000610120828403121561520357615202614df9565b5b61520e610120614439565b9050600061521e84828501614a67565b600083015250602061523284828501614a67565b602083015250604082015167ffffffffffffffff81111561525657615255614dfe565b5b61526284828501615194565b604083015250606082015167ffffffffffffffff81111561528657615285614dfe565b5b61529284828501615194565b60608301525060806152a684828501615116565b60808301525060a082015167ffffffffffffffff8111156152ca576152c9614dfe565b5b6152d684828501614e76565b60a08301525060c06152ea848285016151c2565b60c08301525060e082015167ffffffffffffffff81111561530e5761530d614dfe565b5b61531a84828501614e76565b60e08301525061010061532f848285016151d7565b6101008301525092915050565b600060208284031215615352576153516139b2565b5b600082015167ffffffffffffffff8111156153705761536f6139b7565b5b61537c848285016151ec565b91505092915050565b600081905092915050565b600061539b82613a77565b6153a58185615385565b93506153b5818560208601613a93565b80840191505092915050565b60006153cd8288615390565b91506153d98287615390565b91506153e58286615390565b91506153f18285615390565b91506153fd8284615390565b91508190509695505050505050565b60006154188285615390565b91506154248284615390565b91508190509392505050565b600060e0828403121561544657615445614df9565b5b61545060e0614439565b9050600061546084828501614a67565b600083015250602061547484828501614a67565b602083015250604082015167ffffffffffffffff81111561549857615497614dfe565b5b6154a484828501614e76565b604083015250606082015167ffffffffffffffff8111156154c8576154c7614dfe565b5b6154d484828501614e76565b606083015250608082015167ffffffffffffffff8111156154f8576154f7614dfe565b5b61550484828501614e76565b60808301525060a0615518848285016149fc565b60a08301525060c082015167ffffffffffffffff81111561553c5761553b614dfe565b5b61554884828501614f39565b60c08301525092915050565b60006020828403121561556a576155696139b2565b5b600082015167ffffffffffffffff811115615588576155876139b7565b5b61559484828501615430565b91505092915050565b60006155a882613b29565b91506155b383613b29565b92508282019050808211156155cb576155ca614b7b565b5b92915050565b7f4e487b7100000000000000000000000000000000000000000000000000000000600052601260045260246000fd5b600061560b82613b29565b915061561683613b29565b925082615626576156256155d1565b5b828204905092915050565b600061563c82613b29565b915061564783613b29565b925082820261565581613b29565b9150828204841483151761566c5761566b614b7b565b5b5092915050565b600081519050919050565b600082825260208201905092915050565b600061569a82615673565b6156a4818561567e565b93506156b4818560208601613a93565b6156bd81613abd565b840191505092915050565b60006080820190506156dd6000830187613bbe565b6156ea6020830186613bbe565b6156f76040830185613c81565b8181036060830152615709818461568f565b905095945050505050565b600081519050615723816139e8565b92915050565b60006020828403121561573f5761573e6139b2565b5b600061574d84828501615714565b91505092915050565b60008160f81b9050919050565b600061576e82615756565b9050919050565b61578661578182613f7b565b615763565b82525050565b60006157988289615390565b91506157a48288615390565b91506157b08287615390565b91506157bc8286615775565b6001820191506157cc8285615390565b91506157d88284615775565b600182019150819050979650505050505050565b6157fd6157f882614724565b615763565b82525050565b600061580f828b615390565b915061581b828a615390565b91506158278289615390565b91506158338288615390565b915061583f8287615390565b915061584b8286615390565b915061585782856157ec565b6001820191506158678284615390565b91508190509998505050505050505050565b60006158858287615390565b91506158918286615390565b915061589d8285615390565b91506158a98284615390565b915081905095945050505050565b60006040820190506158cc6000830185613bbe565b6158d96020830184613d61565b9392505050565b60006158eb82613b29565b91506158f683613b29565b925082820390508181111561590e5761590d614b7b565b5b92915050565b7f4e487b7100000000000000000000000000000000000000000000000000000000600052603160045260246000fdfe227d5d2c22696d616765223a2022646174613a696d6167652f7376672b786d6c3b6261736536342c3c7376672077696474683d2238303022206865696768743d22383030222076696577426f783d2230203020383030203830302220786d6c6e733d22687474703a2f2f7777772e77332e6f72672f323030302f737667223e227d2c7b2274726169745f74797065223a20226d61696e436f6c6f72222c2276616c7565223a20223c6c696e652078313d22333330222079313d22333030222078323d22343730222079323d2233383022207374726f6b653d222338613666333022207374726f6b652d77696474683d2233222f3e227d2c7b2274726169745f74797065223a2022776569676874496e4772616d73222c2276616c7565223a20223c706f6c79676f6e20706f696e74733d223430302c323530203437302c333030203437302c333830203430302c343330203333302c333830203333302c333030222066696c6c3d22776869746522207374726f6b653d222338613666333022207374726f6b652d77696474683d2235222f3e222c202261747472696275746573223a205b7b2274726169745f74797065223a20224a6577656c65724e616d65222c2276616c7565223a20223c7465787420783d223530252220793d223630302220666f6e742d73697a653d2234302220666f6e742d66616d696c793d22417269616c2c2073616e732d73657269662220666f6e742d7765696768743d22626f6c64222066696c6c3d22236434616633372220746578742d616e63686f723d226d6964646c65223e3c7265637420783d22302220793d2230222077696474683d2238303022206865696768743d22383030222066696c6c3d222366386639666122207374726f6b653d222364346166333722207374726f6b652d77696474683d223130222072783d223230222072793d223230222f3e3c7265637420783d223230302220793d22363530222077696474683d2234303022206865696768743d223830222066696c6c3d22776869746522207374726f6b653d222333333322207374726f6b652d77696474683d2233222072783d223130222072793d223130222f3e3c6c696e652078313d22343030222079313d22323530222078323d22343030222079323d2234333022207374726f6b653d222338613666333022207374726f6b652d77696474683d2233222f3e4142434445464748494a4b4c4d4e4f505152535455565758595a6162636465666768696a6b6c6d6e6f707172737475767778797a303132333435363738392b2f227d2c7b2274726169745f74797065223a20226d61696e4d6174657269616c222c2276616c7565223a20223c656c6c697073652063783d22343030222063793d22343230222072783d22313830222072793d22313030222066696c6c3d226e6f6e6522207374726f6b653d222364346166333722207374726f6b652d77696474683d223230222f3e3c656c6c697073652063783d22343030222063793d22343230222072783d22313430222072793d223830222066696c6c3d226e6f6e6522207374726f6b653d222366386639666122207374726f6b652d77696474683d223230222f3e3c6c696e652078313d22343730222079313d22333030222078323d22333330222079323d2233383022207374726f6b653d222338613666333022207374726f6b652d77696474683d2233222f3e3c7465787420783d223530252220793d223132302220666f6e742d73697a653d2235302220666f6e742d66616d696c793d22417269616c2c2073616e732d73657269662220666f6e742d7765696768743d22626f6c64222066696c6c3d22233333332220746578742d616e63686f723d226d6964646c65223e3c7465787420783d223530252220793d223730302220666f6e742d73697a653d2233302220666f6e742d66616d696c793d22417269616c2c2073616e732d7365726966222066696c6c3d22233333332220746578742d616e63686f723d226d6964646c65223e7b226e616d65223a2022476f6c64436861696e204365727469666963617465204e46542023227d2c7b2274726169745f74797065223a202243657274696669636174654c6576656c222c2276616c7565223a2022227d2c7b2274726169745f74797065223a20226d61696e47656d53746f6e6573222c2276616c7565223a2022a2646970667358221220844413ca78203a3216ae5db9260adebf732dc21320232b8be7116442ccd7289864736f6c634300081c0033",
  "linkReferences": {},
  "deployedLinkReferences": {}
}