{
  "_format": "hh-sol-artifact-1",
  "contractName": "GoldChain",
  "sourceName": "contracts/GoldChain.sol",
  "abi": [
    {
      "inputs": [
        {
          "internalType": "contract IDataStorage",
          "name": "_dataStorage",
          "type": "address"
        }
      ],
      "stateMutability": "nonpayable",
      "type": "constructor"
    },
    {
      "inputs": [],
      "name": "AccessControlBadConfirmation",
      "type": "error"
    },
    {
      "inputs": [
        {
          "internalType": "address",
          "name": "account",
          "type": "address"
        },
        {
          "internalType": "bytes32",
          "name": "neededRole",
          "type": "bytes32"
        }
      ],
      "name": "AccessControlUnauthorizedAccount",
      "type": "error"
    },
    {
      "inputs": [],
      "name": "CustomerIsAlreadyRegistered",
      "type": "error"
    },
    {
      "inputs": [],
      "name": "CustomerNotExists",
      "type": "error"
    },
    {
      "inputs": [],
      "name": "ERC721EnumerableForbiddenBatchMint",
      "type": "error"
    },
    {
      "inputs": [
        {
          "internalType": "address",
          "name": "sender",
          "type": "address"
        },
        {
          "internalType": "uint256",
          "name": "tokenId",
          "type": "uint256"
        },
        {
          "internalType": "address",
          "name": "owner",
          "type": "address"
        }
      ],
      "name": "ERC721IncorrectOwner",
      "type": "error"
    },
    {
      "inputs": [
        {
          "internalType": "address",
          "name": "operator",
          "type": "address"
        },
        {
          "internalType": "uint256",
          "name": "tokenId",
          "type": "uint256"
        }
      ],
      "name": "ERC721InsufficientApproval",
      "type": "error"
    },
    {
      "inputs": [
        {
          "internalType": "address",
          "name": "approver",
          "type": "address"
        }
      ],
      "name": "ERC721InvalidApprover",
      "type": "error"
    },
    {
      "inputs": [
        {
          "internalType": "address",
          "name": "operator",
          "type": "address"
        }
      ],
      "name": "ERC721InvalidOperator",
      "type": "error"
    },
    {
      "inputs": [
        {
          "internalType": "address",
          "name": "owner",
          "type": "address"
        }
      ],
      "name": "ERC721InvalidOwner",
      "type": "error"
    },
    {
      "inputs": [
        {
          "internalType": "address",
          "name": "receiver",
          "type": "address"
        }
      ],
      "name": "ERC721InvalidReceiver",
      "type": "error"
    },
    {
      "inputs": [
        {
          "internalType": "address",
          "name": "sender",
          "type": "address"
        }
      ],
      "name": "ERC721InvalidSender",
      "type": "error"
    },
    {
      "inputs": [
        {
          "internalType": "uint256",
          "name": "tokenId",
          "type": "uint256"
        }
      ],
      "name": "ERC721NonexistentToken",
      "type": "error"
    },
    {
      "inputs": [
        {
          "internalType": "address",
          "name": "owner",
          "type": "address"
        },
        {
          "internalType": "uint256",
          "name": "index",
          "type": "uint256"
        }
      ],
      "name": "ERC721OutOfBoundsIndex",
      "type": "error"
    },
    {
      "inputs": [],
      "name": "JewelerIsAlreadyRegistered",
      "type": "error"
    },
    {
      "inputs": [],
      "name": "JewelerNotExists",
      "type": "error"
    },
    {
      "inputs": [],
      "name": "TokenDoesNotExist",
      "type": "error"
    },
    {
      "anonymous": false,
      "inputs": [
        {
          "indexed": true,
          "internalType": "address",
          "name": "owner",
          "type": "address"
        },
        {
          "indexed": true,
          "internalType": "address",
          "name": "approved",
          "type": "address"
        },
        {
          "indexed": true,
          "internalType": "uint256",
          "name": "tokenId",
          "type": "uint256"
        }
      ],
      "name": "Approval",
      "type": "event"
    },
    {
      "anonymous": false,
      "inputs": [
        {
          "indexed": true,
          "internalType": "address",
          "name": "owner",
          "type": "address"
        },
        {
          "indexed": true,
          "internalType": "address",
          "name": "operator",
          "type": "address"
        },
        {
          "indexed": false,
          "internalType": "bool",
          "name": "approved",
          "type": "bool"
        }
      ],
      "name": "ApprovalForAll",
      "type": "event"
    },
    {
      "anonymous": false,
      "inputs": [
        {
          "indexed": true,
          "internalType": "bytes32",
          "name": "role",
          "type": "bytes32"
        },
        {
          "indexed": true,
          "internalType": "bytes32",
          "name": "previousAdminRole",
          "type": "bytes32"
        },
        {
          "indexed": true,
          "internalType": "bytes32",
          "name": "newAdminRole",
          "type": "bytes32"
        }
      ],
      "name": "RoleAdminChanged",
      "type": "event"
    },
    {
      "anonymous": false,
      "inputs": [
        {
          "indexed": true,
          "internalType": "bytes32",
          "name": "role",
          "type": "bytes32"
        },
        {
          "indexed": true,
          "internalType": "address",
          "name": "account",
          "type": "address"
        },
        {
          "indexed": true,
          "internalType": "address",
          "name": "sender",
          "type": "address"
        }
      ],
      "name": "RoleGranted",
      "type": "event"
    },
    {
      "anonymous": false,
      "inputs": [
        {
          "indexed": true,
          "internalType": "bytes32",
          "name": "role",
          "type": "bytes32"
        },
        {
          "indexed": true,
          "internalType": "address",
          "name": "account",
          "type": "address"
        },
        {
          "indexed": true,
          "internalType": "address",
          "name": "sender",
          "type": "address"
        }
      ],
      "name": "RoleRevoked",
      "type": "event"
    },
    {
      "anonymous": false,
      "inputs": [
        {
          "indexed": true,
          "internalType": "address",
          "name": "from",
          "type": "address"
        },
        {
          "indexed": true,
          "internalType": "address",
          "name": "to",
          "type": "address"
        },
        {
          "indexed": true,
          "internalType": "uint256",
          "name": "tokenId",
          "type": "uint256"
        }
      ],
      "name": "Transfer",
      "type": "event"
    },
    {
      "anonymous": false,
      "inputs": [
        {
          "indexed": false,
          "internalType": "address",
          "name": "jewelerAddress",
          "type": "address"
        },
        {
          "indexed": false,
          "internalType": "uint256",
          "name": "timestamp",
          "type": "uint256"
        },
        {
          "indexed": false,
          "internalType": "uint256",
          "name": "certificateId",
          "type": "uint256"
        }
      ],
      "name": "certificateCreated",
      "type": "event"
    },
    {
      "anonymous": false,
      "inputs": [
        {
          "indexed": false,
          "internalType": "address",
          "name": "customerAddress",
          "type": "address"
        },
        {
          "indexed": false,
          "internalType": "uint256",
          "name": "timestamp",
          "type": "uint256"
        }
      ],
      "name": "customerCreated",
      "type": "event"
    },
    {
      "anonymous": false,
      "inputs": [
        {
          "indexed": false,
          "internalType": "address",
          "name": "customerAddress",
          "type": "address"
        },
        {
          "indexed": false,
          "internalType": "uint256",
          "name": "timestamp",
          "type": "uint256"
        }
      ],
      "name": "customerUpdated",
      "type": "event"
    },
    {
      "anonymous": false,
      "inputs": [
        {
          "indexed": false,
          "internalType": "address",
          "name": "jewelerAddress",
          "type": "address"
        },
        {
          "indexed": false,
          "internalType": "uint256",
          "name": "timestamp",
          "type": "uint256"
        }
      ],
      "name": "jewelerActivated",
      "type": "event"
    },
    {
      "anonymous": false,
      "inputs": [
        {
          "indexed": false,
          "internalType": "address",
          "name": "jewelerAddress",
          "type": "address"
        },
        {
          "indexed": false,
          "internalType": "uint256",
          "name": "timestamp",
          "type": "uint256"
        }
      ],
      "name": "jewelerCreated",
      "type": "event"
    },
    {
      "anonymous": false,
      "inputs": [
        {
          "indexed": false,
          "internalType": "address",
          "name": "jewelerAddress",
          "type": "address"
        },
        {
          "indexed": false,
          "internalType": "uint256",
          "name": "timestamp",
          "type": "uint256"
        }
      ],
      "name": "jewelerDesactivated",
      "type": "event"
    },
    {
      "anonymous": false,
      "inputs": [
        {
          "indexed": false,
          "internalType": "address",
          "name": "jewelerAddress",
          "type": "address"
        },
        {
          "indexed": false,
          "internalType": "uint256",
          "name": "timestamp",
          "type": "uint256"
        }
      ],
      "name": "jewelerUpdated",
      "type": "event"
    },
    {
      "inputs": [],
      "name": "ADMIN",
      "outputs": [
        {
          "internalType": "bytes32",
          "name": "",
          "type": "bytes32"
        }
      ],
      "stateMutability": "view",
      "type": "function"
    },
    {
      "inputs": [],
      "name": "CERTIFICATOR_ROLE",
      "outputs": [
        {
          "internalType": "bytes32",
          "name": "",
          "type": "bytes32"
        }
      ],
      "stateMutability": "view",
      "type": "function"
    },
    {
      "inputs": [],
      "name": "CUSTOMERS_ROLE",
      "outputs": [
        {
          "internalType": "bytes32",
          "name": "",
          "type": "bytes32"
        }
      ],
      "stateMutability": "view",
      "type": "function"
    },
    {
      "inputs": [],
      "name": "DEFAULT_ADMIN_ROLE",
      "outputs": [
        {
          "internalType": "bytes32",
          "name": "",
          "type": "bytes32"
        }
      ],
      "stateMutability": "view",
      "type": "function"
    },
    {
      "inputs": [],
      "name": "FALSE",
      "outputs": [
        {
          "internalType": "bool",
          "name": "",
          "type": "bool"
        }
      ],
      "stateMutability": "view",
      "type": "function"
    },
    {
      "inputs": [],
      "name": "JEWELERS_ROLE",
      "outputs": [
        {
          "internalType": "bytes32",
          "name": "",
          "type": "bytes32"
        }
      ],
      "stateMutability": "view",
      "type": "function"
    },
    {
      "inputs": [],
      "name": "TRUE",
      "outputs": [
        {
          "internalType": "bool",
          "name": "",
          "type": "bool"
        }
      ],
      "stateMutability": "view",
      "type": "function"
    },
    {
      "inputs": [
        {
          "internalType": "address",
          "name": "_jewelerAddress",
          "type": "address"
        }
      ],
      "name": "activateJeweler",
      "outputs": [
        {
          "internalType": "bool",
          "name": "",
          "type": "bool"
        }
      ],
      "stateMutability": "nonpayable",
      "type": "function"
    },
    {
      "inputs": [],
      "name": "admin",
      "outputs": [
        {
          "internalType": "address",
          "name": "",
          "type": "address"
        }
      ],
      "stateMutability": "view",
      "type": "function"
    },
    {
      "inputs": [
        {
          "internalType": "address",
          "name": "to",
          "type": "address"
        },
        {
          "internalType": "uint256",
          "name": "tokenId",
          "type": "uint256"
        }
      ],
      "name": "approve",
      "outputs": [],
      "stateMutability": "nonpayable",
      "type": "function"
    },
    {
      "inputs": [
        {
          "internalType": "address",
          "name": "owner",
          "type": "address"
        }
      ],
      "name": "balanceOf",
      "outputs": [
        {
          "internalType": "uint256",
          "name": "",
          "type": "uint256"
        }
      ],
      "stateMutability": "view",
      "type": "function"
    },
    {
      "inputs": [
        {
          "internalType": "uint8[]",
          "name": "_materials",
          "type": "uint8[]"
        },
        {
          "internalType": "uint8[]",
          "name": "_gemStones",
          "type": "uint8[]"
        },
        {
          "internalType": "uint8",
          "name": "_weightInGrams",
          "type": "uint8"
        },
        {
          "internalType": "string",
          "name": "_mainColor",
          "type": "string"
        },
        {
          "internalType": "enum IDataStorage.CertificateLevel",
          "name": "_level",
          "type": "uint8"
        },
        {
          "internalType": "string",
          "name": "_JewelerName",
          "type": "string"
        },
        {
          "internalType": "enum IDataStorage.CertificateStatus",
          "name": "_status",
          "type": "uint8"
        }
      ],
      "name": "createCertificate",
      "outputs": [
        {
          "internalType": "bool",
          "name": "",
          "type": "bool"
        }
      ],
      "stateMutability": "nonpayable",
      "type": "function"
    },
    {
      "inputs": [
        {
          "internalType": "string",
          "name": "_name",
          "type": "string"
        },
        {
          "internalType": "string",
          "name": "_email",
          "type": "string"
        },
        {
          "internalType": "string",
          "name": "_location",
          "type": "string"
        }
      ],
      "name": "createCustomer",
      "outputs": [
        {
          "internalType": "bool",
          "name": "",
          "type": "bool"
        }
      ],
      "stateMutability": "nonpayable",
      "type": "function"
    },
    {
      "inputs": [
        {
          "internalType": "string",
          "name": "_name",
          "type": "string"
        },
        {
          "internalType": "string",
          "name": "_email",
          "type": "string"
        },
        {
          "internalType": "string",
          "name": "_location",
          "type": "string"
        }
      ],
      "name": "createJeweler",
      "outputs": [
        {
          "internalType": "bool",
          "name": "",
          "type": "bool"
        }
      ],
      "stateMutability": "nonpayable",
      "type": "function"
    },
    {
      "inputs": [
        {
          "internalType": "address",
          "name": "_jewelerAddress",
          "type": "address"
        }
      ],
      "name": "desactivateJeweler",
      "outputs": [
        {
          "internalType": "bool",
          "name": "",
          "type": "bool"
        }
      ],
      "stateMutability": "nonpayable",
      "type": "function"
    },
    {
      "inputs": [
        {
          "internalType": "uint256",
          "name": "tokenId",
          "type": "uint256"
        }
      ],
      "name": "getApproved",
      "outputs": [
        {
          "internalType": "address",
          "name": "",
          "type": "address"
        }
      ],
      "stateMutability": "view",
      "type": "function"
    },
    {
      "inputs": [],
      "name": "getCustomerCount",
      "outputs": [
        {
          "internalType": "uint256",
          "name": "",
          "type": "uint256"
        }
      ],
      "stateMutability": "view",
      "type": "function"
    },
    {
      "inputs": [],
      "name": "getJewelerCount",
      "outputs": [
        {
          "internalType": "uint256",
          "name": "",
          "type": "uint256"
        }
      ],
      "stateMutability": "view",
      "type": "function"
    },
    {
      "inputs": [
        {
          "internalType": "address",
          "name": "_customerAddress",
          "type": "address"
        }
      ],
      "name": "getOneCustomer",
      "outputs": [
        {
          "components": [
            {
              "internalType": "uint256",
              "name": "created_at",
              "type": "uint256"
            },
            {
              "internalType": "uint256",
              "name": "updated_at",
              "type": "uint256"
            },
            {
              "internalType": "string",
              "name": "name",
              "type": "string"
            },
            {
              "internalType": "string",
              "name": "email",
              "type": "string"
            },
            {
              "internalType": "string",
              "name": "location",
              "type": "string"
            },
            {
              "internalType": "bool",
              "name": "visible",
              "type": "bool"
            },
            {
              "internalType": "uint256[]",
              "name": "OwnedCertificateIds",
              "type": "uint256[]"
            }
          ],
          "internalType": "struct IDataStorage.Customer",
          "name": "",
          "type": "tuple"
        }
      ],
      "stateMutability": "view",
      "type": "function"
    },
    {
      "inputs": [
        {
          "internalType": "address",
          "name": "_jewelerAddress",
          "type": "address"
        }
      ],
      "name": "getOneJeweler",
      "outputs": [
        {
          "components": [
            {
              "internalType": "uint256",
              "name": "created_at",
              "type": "uint256"
            },
            {
              "internalType": "uint256",
              "name": "updated_at",
              "type": "uint256"
            },
            {
              "internalType": "string",
              "name": "name",
              "type": "string"
            },
            {
              "internalType": "string",
              "name": "email",
              "type": "string"
            },
            {
              "internalType": "string",
              "name": "location",
              "type": "string"
            },
            {
              "internalType": "uint256[]",
              "name": "CreatedCertificateIds",
              "type": "uint256[]"
            },
            {
              "internalType": "bool",
              "name": "available",
              "type": "bool"
            },
            {
              "internalType": "bool",
              "name": "visible",
              "type": "bool"
            }
          ],
          "internalType": "struct IDataStorage.Jeweler",
          "name": "",
          "type": "tuple"
        }
      ],
      "stateMutability": "view",
      "type": "function"
    },
    {
      "inputs": [
        {
          "internalType": "bytes32",
          "name": "role",
          "type": "bytes32"
        }
      ],
      "name": "getRoleAdmin",
      "outputs": [
        {
          "internalType": "bytes32",
          "name": "",
          "type": "bytes32"
        }
      ],
      "stateMutability": "view",
      "type": "function"
    },
    {
      "inputs": [
        {
          "internalType": "bytes32",
          "name": "role",
          "type": "bytes32"
        },
        {
          "internalType": "address",
          "name": "account",
          "type": "address"
        }
      ],
      "name": "grantRole",
      "outputs": [],
      "stateMutability": "nonpayable",
      "type": "function"
    },
    {
      "inputs": [
        {
          "internalType": "bytes32",
          "name": "role",
          "type": "bytes32"
        },
        {
          "internalType": "address",
          "name": "account",
          "type": "address"
        }
      ],
      "name": "hasRole",
      "outputs": [
        {
          "internalType": "bool",
          "name": "",
          "type": "bool"
        }
      ],
      "stateMutability": "view",
      "type": "function"
    },
    {
      "inputs": [
        {
          "internalType": "address",
          "name": "owner",
          "type": "address"
        },
        {
          "internalType": "address",
          "name": "operator",
          "type": "address"
        }
      ],
      "name": "isApprovedForAll",
      "outputs": [
        {
          "internalType": "bool",
          "name": "",
          "type": "bool"
        }
      ],
      "stateMutability": "view",
      "type": "function"
    },
    {
      "inputs": [],
      "name": "name",
      "outputs": [
        {
          "internalType": "string",
          "name": "",
          "type": "string"
        }
      ],
      "stateMutability": "view",
      "type": "function"
    },
    {
      "inputs": [
        {
          "internalType": "uint256",
          "name": "tokenId",
          "type": "uint256"
        }
      ],
      "name": "ownerOf",
      "outputs": [
        {
          "internalType": "address",
          "name": "",
          "type": "address"
        }
      ],
      "stateMutability": "view",
      "type": "function"
    },
    {
      "inputs": [
        {
          "internalType": "bytes32",
          "name": "role",
          "type": "bytes32"
        },
        {
          "internalType": "address",
          "name": "callerConfirmation",
          "type": "address"
        }
      ],
      "name": "renounceRole",
      "outputs": [],
      "stateMutability": "nonpayable",
      "type": "function"
    },
    {
      "inputs": [
        {
          "internalType": "bytes32",
          "name": "role",
          "type": "bytes32"
        },
        {
          "internalType": "address",
          "name": "account",
          "type": "address"
        }
      ],
      "name": "revokeRole",
      "outputs": [],
      "stateMutability": "nonpayable",
      "type": "function"
    },
    {
      "inputs": [
        {
          "internalType": "address",
          "name": "to",
          "type": "address"
        }
      ],
      "name": "safeMint",
      "outputs": [
        {
          "internalType": "uint256",
          "name": "",
          "type": "uint256"
        }
      ],
      "stateMutability": "nonpayable",
      "type": "function"
    },
    {
      "inputs": [
        {
          "internalType": "address",
          "name": "from",
          "type": "address"
        },
        {
          "internalType": "address",
          "name": "to",
          "type": "address"
        },
        {
          "internalType": "uint256",
          "name": "tokenId",
          "type": "uint256"
        }
      ],
      "name": "safeTransferFrom",
      "outputs": [],
      "stateMutability": "nonpayable",
      "type": "function"
    },
    {
      "inputs": [
        {
          "internalType": "address",
          "name": "from",
          "type": "address"
        },
        {
          "internalType": "address",
          "name": "to",
          "type": "address"
        },
        {
          "internalType": "uint256",
          "name": "tokenId",
          "type": "uint256"
        },
        {
          "internalType": "bytes",
          "name": "data",
          "type": "bytes"
        }
      ],
      "name": "safeTransferFrom",
      "outputs": [],
      "stateMutability": "nonpayable",
      "type": "function"
    },
    {
      "inputs": [
        {
          "internalType": "address",
          "name": "operator",
          "type": "address"
        },
        {
          "internalType": "bool",
          "name": "approved",
          "type": "bool"
        }
      ],
      "name": "setApprovalForAll",
      "outputs": [],
      "stateMutability": "nonpayable",
      "type": "function"
    },
    {
      "inputs": [
        {
          "internalType": "bytes4",
          "name": "interfaceId",
          "type": "bytes4"
        }
      ],
      "name": "supportsInterface",
      "outputs": [
        {
          "internalType": "bool",
          "name": "",
          "type": "bool"
        }
      ],
      "stateMutability": "view",
      "type": "function"
    },
    {
      "inputs": [],
      "name": "symbol",
      "outputs": [
        {
          "internalType": "string",
          "name": "",
          "type": "string"
        }
      ],
      "stateMutability": "view",
      "type": "function"
    },
    {
      "inputs": [
        {
          "internalType": "uint256",
          "name": "index",
          "type": "uint256"
        }
      ],
      "name": "tokenByIndex",
      "outputs": [
        {
          "internalType": "uint256",
          "name": "",
          "type": "uint256"
        }
      ],
      "stateMutability": "view",
      "type": "function"
    },
    {
      "inputs": [
        {
          "internalType": "address",
          "name": "owner",
          "type": "address"
        },
        {
          "internalType": "uint256",
          "name": "index",
          "type": "uint256"
        }
      ],
      "name": "tokenOfOwnerByIndex",
      "outputs": [
        {
          "internalType": "uint256",
          "name": "",
          "type": "uint256"
        }
      ],
      "stateMutability": "view",
      "type": "function"
    },
    {
      "inputs": [
        {
          "internalType": "uint256",
          "name": "tokenId",
          "type": "uint256"
        }
      ],
      "name": "tokenURI",
      "outputs": [
        {
          "internalType": "string",
          "name": "",
          "type": "string"
        }
      ],
      "stateMutability": "view",
      "type": "function"
    },
    {
      "inputs": [],
      "name": "totalSupply",
      "outputs": [
        {
          "internalType": "uint256",
          "name": "",
          "type": "uint256"
        }
      ],
      "stateMutability": "view",
      "type": "function"
    },
    {
      "inputs": [
        {
          "internalType": "address",
          "name": "_to",
          "type": "address"
        },
        {
          "internalType": "uint256",
          "name": "_tokenId",
          "type": "uint256"
        }
      ],
      "name": "transertCertificate",
      "outputs": [
        {
          "internalType": "bool",
          "name": "",
          "type": "bool"
        }
      ],
      "stateMutability": "nonpayable",
      "type": "function"
    },
    {
      "inputs": [
        {
          "internalType": "address",
          "name": "from",
          "type": "address"
        },
        {
          "internalType": "address",
          "name": "to",
          "type": "address"
        },
        {
          "internalType": "uint256",
          "name": "tokenId",
          "type": "uint256"
        }
      ],
      "name": "transferFrom",
      "outputs": [],
      "stateMutability": "nonpayable",
      "type": "function"
    },
    {
      "inputs": [],
      "name": "updateCertificate",
      "outputs": [
        {
          "internalType": "bool",
          "name": "",
          "type": "bool"
        }
      ],
      "stateMutability": "nonpayable",
      "type": "function"
    },
    {
      "inputs": [
        {
          "internalType": "string",
          "name": "_name",
          "type": "string"
        },
        {
          "internalType": "string",
          "name": "_email",
          "type": "string"
        },
        {
          "internalType": "string",
          "name": "_location",
          "type": "string"
        },
        {
          "internalType": "bool",
          "name": "_visible",
          "type": "bool"
        }
      ],
      "name": "updateCustomer",
      "outputs": [
        {
          "internalType": "bool",
          "name": "",
          "type": "bool"
        }
      ],
      "stateMutability": "nonpayable",
      "type": "function"
    },
    {
      "inputs": [
        {
          "internalType": "string",
          "name": "_name",
          "type": "string"
        },
        {
          "internalType": "string",
          "name": "_email",
          "type": "string"
        },
        {
          "internalType": "string",
          "name": "_location",
          "type": "string"
        },
        {
          "internalType": "bool",
          "name": "_visible",
          "type": "bool"
        }
      ],
      "name": "updateJeweler",
      "outputs": [
        {
          "internalType": "bool",
          "name": "",
          "type": "bool"
        }
      ],
      "stateMutability": "nonpayable",
      "type": "function"
    }
  ],
  "bytecode": "0x608060405234801561001057600080fd5b506040516167a63803806167a683398181016040528101906100329190610371565b6040518060400160405280600f81526020017f476f6c64436861696e45524337323100000000000000000000000000000000008152506040518060400160405280600281526020017f474300000000000000000000000000000000000000000000000000000000000081525081600190816100ad91906105ee565b5080600290816100bd91906105ee565b5050506100d36000801b3361018d60201b60201c565b506101047fdf8b4c520ffe197c5343c6f5aec59570151ef9a492f2c624fd45ddde6135ec423361018d60201b60201c565b5033600d60006101000a81548173ffffffffffffffffffffffffffffffffffffffff021916908373ffffffffffffffffffffffffffffffffffffffff16021790555080600c60006101000a81548173ffffffffffffffffffffffffffffffffffffffff021916908373ffffffffffffffffffffffffffffffffffffffff160217905550506106c0565b600061019f838361028a60201b60201c565b61027f57600160008085815260200190815260200160002060000160008473ffffffffffffffffffffffffffffffffffffffff1673ffffffffffffffffffffffffffffffffffffffff16815260200190815260200160002060006101000a81548160ff02191690831515021790555061021c6102f460201b60201c565b73ffffffffffffffffffffffffffffffffffffffff168273ffffffffffffffffffffffffffffffffffffffff16847f2f8788117e7eff1d82e926ec794901d17c78024a50270940304540a733656f0d60405160405180910390a460019050610284565b600090505b92915050565b600080600084815260200190815260200160002060000160008373ffffffffffffffffffffffffffffffffffffffff1673ffffffffffffffffffffffffffffffffffffffff16815260200190815260200160002060009054906101000a900460ff16905092915050565b600033905090565b600080fd5b600073ffffffffffffffffffffffffffffffffffffffff82169050919050565b600061032c82610301565b9050919050565b600061033e82610321565b9050919050565b61034e81610333565b811461035957600080fd5b50565b60008151905061036b81610345565b92915050565b600060208284031215610387576103866102fc565b5b60006103958482850161035c565b91505092915050565b600081519050919050565b7f4e487b7100000000000000000000000000000000000000000000000000000000600052604160045260246000fd5b7f4e487b7100000000000000000000000000000000000000000000000000000000600052602260045260246000fd5b6000600282049050600182168061041f57607f821691505b602082108103610432576104316103d8565b5b50919050565b60008190508160005260206000209050919050565b60006020601f8301049050919050565b600082821b905092915050565b60006008830261049a7fffffffffffffffffffffffffffffffffffffffffffffffffffffffffffffffff8261045d565b6104a4868361045d565b95508019841693508086168417925050509392505050565b6000819050919050565b6000819050919050565b60006104eb6104e66104e1846104bc565b6104c6565b6104bc565b9050919050565b6000819050919050565b610505836104d0565b610519610511826104f2565b84845461046a565b825550505050565b600090565b61052e610521565b6105398184846104fc565b505050565b5b8181101561055d57610552600082610526565b60018101905061053f565b5050565b601f8211156105a25761057381610438565b61057c8461044d565b8101602085101561058b578190505b61059f6105978561044d565b83018261053e565b50505b505050565b600082821c905092915050565b60006105c5600019846008026105a7565b1980831691505092915050565b60006105de83836105b4565b9150826002028217905092915050565b6105f78261039e565b67ffffffffffffffff8111156106105761060f6103a9565b5b61061a8254610407565b610625828285610561565b600060209050601f8311600181146106585760008415610646578287015190505b61065085826105d2565b8655506106b8565b601f19841661066686610438565b60005b8281101561068e57848901518255600182019150602085019450602081019050610669565b868310156106ab57848901516106a7601f8916826105b4565b8355505b6001600288020188555050505b505050505050565b6160d7806106cf6000396000f3fe608060405234801561001057600080fd5b50600436106102695760003560e01c80634ff7986e1161015157806395d89b41116100c3578063c87b56dd11610087578063c87b56dd146107e8578063d547741f14610818578063e985e9c514610834578063ee7bf0ee14610864578063f2e0bc5814610894578063f851a440146108c457610269565b806395d89b4114610744578063a217fddf14610762578063a22cb46514610780578063a5ddd2881461079c578063b88d4fde146107cc57610269565b80636352211e116101155780636352211e1461065a57806370a082311461068a578063899f9d0d146106ba5780638c271777146106d857806391d14854146106f6578063934b4af21461072657610269565b80634ff7986e1461058e57806355b059e8146105ac57806355ed5fe8146105dc57806357a00ccf1461060c5780635994d9841461063c57610269565b8063248a9ca3116101ea5780632f745c59116101ae5780632f745c591461049657806336568abe146104c657806340d097c3146104e257806341cc7c731461051257806342842e0e146105425780634f6ccce71461055e57610269565b8063248a9ca3146103cc57806329acc209146103fc5780632a0acc6a1461042c5780632b3dd38b1461044a5780632f2ff15d1461047a57610269565b80630cdb5cb5116102315780630cdb5cb51461033857806318160ddd146103565780632027d7461461037457806322f537ce1461039257806323b872dd146103b057610269565b806301ffc9a71461026e57806306fdde031461029e578063081812fc146102bc578063081ba2d5146102ec578063095ea7b31461031c575b600080fd5b61028860048036038101906102839190613d2f565b6108e2565b6040516102959190613d77565b60405180910390f35b6102a66108f4565b6040516102b39190613e22565b60405180910390f35b6102d660048036038101906102d19190613e7a565b610986565b6040516102e39190613ee8565b60405180910390f35b61030660048036038101906103019190613f2f565b6109a2565b6040516103139190613d77565b60405180910390f35b61033660048036038101906103319190613f5c565b610ab0565b005b610340610ac6565b60405161034d9190613fb5565b60405180910390f35b61035e610aea565b60405161036b9190613fdf565b60405180910390f35b61037c610af7565b6040516103899190613fdf565b60405180910390f35b61039a610b8f565b6040516103a79190613fb5565b60405180910390f35b6103ca60048036038101906103c59190613ffa565b610bb3565b005b6103e660048036038101906103e19190614079565b610cb5565b6040516103f39190613fb5565b60405180910390f35b61041660048036038101906104119190613f2f565b610cd4565b6040516104239190613d77565b60405180910390f35b610434610de2565b6040516104419190613fb5565b60405180910390f35b610464600480360381019061045f9190614137565b610e06565b6040516104719190613d77565b60405180910390f35b610494600480360381019061048f9190614200565b611006565b005b6104b060048036038101906104ab9190613f5c565b611028565b6040516104bd9190613fdf565b60405180910390f35b6104e060048036038101906104db9190614200565b6110d1565b005b6104fc60048036038101906104f79190613f2f565b61114c565b6040516105099190613fdf565b60405180910390f35b61052c60048036038101906105279190614319565b61117b565b6040516105399190613d77565b60405180910390f35b61055c60048036038101906105579190613ffa565b61127a565b005b61057860048036038101906105739190613e7a565b61129a565b6040516105859190613fdf565b60405180910390f35b610596611310565b6040516105a39190613d77565b60405180910390f35b6105c660048036038101906105c1919061443d565b611315565b6040516105d39190613d77565b60405180910390f35b6105f660048036038101906105f1919061443d565b611498565b6040516106039190613d77565b60405180910390f35b61062660048036038101906106219190613f2f565b61161e565b60405161063391906146cd565b60405180910390f35b6106446116ce565b6040516106519190613d77565b60405180910390f35b610674600480360381019061066f9190613e7a565b6116d3565b6040516106819190613ee8565b60405180910390f35b6106a4600480360381019061069f9190613f2f565b6116e5565b6040516106b19190613fdf565b60405180910390f35b6106c261179f565b6040516106cf9190613d77565b60405180910390f35b6106e06117a8565b6040516106ed9190613fdf565b60405180910390f35b610710600480360381019061070b9190614200565b611840565b60405161071d9190613d77565b60405180910390f35b61072e6118aa565b60405161073b9190613fb5565b60405180910390f35b61074c6118ce565b6040516107599190613e22565b60405180910390f35b61076a611960565b6040516107779190613fb5565b60405180910390f35b61079a600480360381019061079591906146ef565b611967565b005b6107b660048036038101906107b19190613f5c565b61197d565b6040516107c39190613d77565b60405180910390f35b6107e660048036038101906107e1919061485f565b611994565b005b61080260048036038101906107fd9190613e7a565b6119b9565b60405161080f9190613e22565b60405180910390f35b610832600480360381019061082d9190614200565b611af0565b005b61084e600480360381019061084991906148e2565b611b12565b60405161085b9190613d77565b60405180910390f35b61087e60048036038101906108799190613f2f565b611ba6565b60405161088b91906149d3565b60405180910390f35b6108ae60048036038101906108a99190614137565b611c56565b6040516108bb9190613d77565b60405180910390f35b6108cc611e56565b6040516108d99190613ee8565b60405180910390f35b60006108ed82611e7c565b9050919050565b60606001805461090390614a24565b80601f016020809104026020016040519081016040528092919081815260200182805461092f90614a24565b801561097c5780601f106109515761010080835404028352916020019161097c565b820191906000526020600020905b81548152906001019060200180831161095f57829003601f168201915b5050505050905090565b600061099182611e8e565b5061099b82611f16565b9050919050565b60007fdf8b4c520ffe197c5343c6f5aec59570151ef9a492f2c624fd45ddde6135ec426109ce81611f53565b600c60009054906101000a900473ffffffffffffffffffffffffffffffffffffffff1673ffffffffffffffffffffffffffffffffffffffff1663081ba2d5846040518263ffffffff1660e01b8152600401610a299190613ee8565b6020604051808303816000875af1158015610a48573d6000803e3d6000fd5b505050506040513d601f19601f82011682018060405250810190610a6c9190614a6a565b507f188d8ca5695483231734d1734924f73ab34848f997f2de827c8f73033b4614ae8342604051610a9e929190614a97565b60405180910390a16001915050919050565b610ac28282610abd611f67565b611f6f565b5050565b7f61e6a4bb6bca8aa1f17c71895c1ab1bf9c06c812442a0a16aad9f0837c23ca7981565b6000600980549050905090565b6000600c60009054906101000a900473ffffffffffffffffffffffffffffffffffffffff1673ffffffffffffffffffffffffffffffffffffffff16632027d7466040518163ffffffff1660e01b8152600401602060405180830381865afa158015610b66573d6000803e3d6000fd5b505050506040513d601f19601f82011682018060405250810190610b8a9190614ad5565b905090565b7faf6786efc154b345802554f1dea27e60ea4c3393b6b38eb8438e22c20e088bd281565b600073ffffffffffffffffffffffffffffffffffffffff168273ffffffffffffffffffffffffffffffffffffffff1603610c255760006040517f64a0ae92000000000000000000000000000000000000000000000000000000008152600401610c1c9190613ee8565b60405180910390fd5b6000610c398383610c34611f67565b611f81565b90508373ffffffffffffffffffffffffffffffffffffffff168173ffffffffffffffffffffffffffffffffffffffff1614610caf578382826040517f64283d7b000000000000000000000000000000000000000000000000000000008152600401610ca693929190614b02565b60405180910390fd5b50505050565b6000806000838152602001908152602001600020600101549050919050565b60007fdf8b4c520ffe197c5343c6f5aec59570151ef9a492f2c624fd45ddde6135ec42610d0081611f53565b600c60009054906101000a900473ffffffffffffffffffffffffffffffffffffffff1673ffffffffffffffffffffffffffffffffffffffff166329acc209846040518263ffffffff1660e01b8152600401610d5b9190613ee8565b6020604051808303816000875af1158015610d7a573d6000803e3d6000fd5b505050506040513d601f19601f82011682018060405250810190610d9e9190614a6a565b507f449422d37ad477a115e35ded9d4971e6ed3594f45df1408f1eb2320a8bc5c2b88342604051610dd0929190614a97565b60405180910390a16001915050919050565b7fdf8b4c520ffe197c5343c6f5aec59570151ef9a492f2c624fd45ddde6135ec4281565b60007f61e6a4bb6bca8aa1f17c71895c1ab1bf9c06c812442a0a16aad9f0837c23ca79610e3281611f53565b6000600c60009054906101000a900473ffffffffffffffffffffffffffffffffffffffff1673ffffffffffffffffffffffffffffffffffffffff166357a00ccf336040518263ffffffff1660e01b8152600401610e8f9190613ee8565b600060405180830381865afa158015610eac573d6000803e3d6000fd5b505050506040513d6000823e3d601f19601f82011682018060405250810190610ed59190614de1565b6000015103610f10576040517f1d65442900000000000000000000000000000000000000000000000000000000815260040160405180910390fd5b600c60009054906101000a900473ffffffffffffffffffffffffffffffffffffffff1673ffffffffffffffffffffffffffffffffffffffff1663a735e5de338b8b8b8b8b8b8b6040518963ffffffff1660e01b8152600401610f79989796959493929190614e57565b6020604051808303816000875af1158015610f98573d6000803e3d6000fd5b505050506040513d601f19601f82011682018060405250810190610fbc9190614a6a565b507fc21195a7f73acb0112d9942f6c5c02acc3d8d2c74ab81a6c28f4f492dac933b83342604051610fee929190614a97565b60405180910390a16001915050979650505050505050565b61100f82610cb5565b61101881611f53565b6110228383611f97565b50505050565b6000611033836116e5565b82106110785782826040517fa57d13dc00000000000000000000000000000000000000000000000000000000815260040161106f929190614a97565b60405180910390fd5b600760008473ffffffffffffffffffffffffffffffffffffffff1673ffffffffffffffffffffffffffffffffffffffff168152602001908152602001600020600083815260200190815260200160002054905092915050565b6110d9611f67565b73ffffffffffffffffffffffffffffffffffffffff168173ffffffffffffffffffffffffffffffffffffffff161461113d576040517f6697b23200000000000000000000000000000000000000000000000000000000815260040160405180910390fd5b6111478282612088565b505050565b600080600b600081548092919061116290614ef4565b919050559050611172838261217a565b80915050919050565b60007f61e6a4bb6bca8aa1f17c71895c1ab1bf9c06c812442a0a16aad9f0837c23ca796111a781611f53565b600c60009054906101000a900473ffffffffffffffffffffffffffffffffffffffff1673ffffffffffffffffffffffffffffffffffffffff166364df69e78e8e8e8e8e8e8e8e8e8e8e6040518c63ffffffff1660e01b81526004016112169b9a999897969594939291906150cd565b6020604051808303816000875af1158015611235573d6000803e3d6000fd5b505050506040513d601f19601f820116820180604052508101906112599190614a6a565b5061126633600b5461217a565b60019150509b9a5050505050505050505050565b61129583838360405180602001604052806000815250611994565b505050565b60006112a4610aea565b82106112ea576000826040517fa57d13dc0000000000000000000000000000000000000000000000000000000081526004016112e1929190614a97565b60405180910390fd5b600982815481106112fe576112fd615160565b5b90600052602060002001549050919050565b600081565b60006113417faf6786efc154b345802554f1dea27e60ea4c3393b6b38eb8438e22c20e088bd233611840565b15611378576040517f937df23900000000000000000000000000000000000000000000000000000000815260040160405180910390fd5b6113a27faf6786efc154b345802554f1dea27e60ea4c3393b6b38eb8438e22c20e088bd233611f97565b50600c60009054906101000a900473ffffffffffffffffffffffffffffffffffffffff1673ffffffffffffffffffffffffffffffffffffffff16630f6a35403389898989898960016040518963ffffffff1660e01b815260040161140d989796959493929190614e57565b6020604051808303816000875af115801561142c573d6000803e3d6000fd5b505050506040513d601f19601f820116820180604052508101906114509190614a6a565b507f9355f2ba77852e61793679ff03cf26231b8175fdfb97dc47490f1b151e6ab0d43342604051611482929190614a97565b60405180910390a1600190509695505050505050565b60006114c47f61e6a4bb6bca8aa1f17c71895c1ab1bf9c06c812442a0a16aad9f0837c23ca7933611840565b156114fb576040517f9e5ae09300000000000000000000000000000000000000000000000000000000815260040160405180910390fd5b6115257f61e6a4bb6bca8aa1f17c71895c1ab1bf9c06c812442a0a16aad9f0837c23ca7933611f97565b50600c60009054906101000a900473ffffffffffffffffffffffffffffffffffffffff1673ffffffffffffffffffffffffffffffffffffffff16637208ca1933898989898989600060016040518a63ffffffff1660e01b81526004016115939998979695949392919061518f565b6020604051808303816000875af11580156115b2573d6000803e3d6000fd5b505050506040513d601f19601f820116820180604052508101906115d69190614a6a565b507fa12abd8201760a4e094635a878d94e4e31ee41204057e1ba4081b4c8ba7df8a83342604051611608929190614a97565b60405180910390a1600190509695505050505050565b611626613c3b565b600c60009054906101000a900473ffffffffffffffffffffffffffffffffffffffff1673ffffffffffffffffffffffffffffffffffffffff166357a00ccf836040518263ffffffff1660e01b81526004016116819190613ee8565b600060405180830381865afa15801561169e573d6000803e3d6000fd5b505050506040513d6000823e3d601f19601f820116820180604052508101906116c79190614de1565b9050919050565b600181565b60006116de82611e8e565b9050919050565b60008073ffffffffffffffffffffffffffffffffffffffff168273ffffffffffffffffffffffffffffffffffffffff16036117585760006040517f89c62b6400000000000000000000000000000000000000000000000000000000815260040161174f9190613ee8565b60405180910390fd5b600460008373ffffffffffffffffffffffffffffffffffffffff1673ffffffffffffffffffffffffffffffffffffffff168152602001908152602001600020549050919050565b60006001905090565b6000600c60009054906101000a900473ffffffffffffffffffffffffffffffffffffffff1673ffffffffffffffffffffffffffffffffffffffff16638c2717776040518163ffffffff1660e01b8152600401602060405180830381865afa158015611817573d6000803e3d6000fd5b505050506040513d601f19601f8201168201806040525081019061183b9190614ad5565b905090565b600080600084815260200190815260200160002060000160008373ffffffffffffffffffffffffffffffffffffffff1673ffffffffffffffffffffffffffffffffffffffff16815260200190815260200160002060009054906101000a900460ff16905092915050565b7f8c6ae1b8cac4c99ac9b51ba2b44ec85e94139863fa8d7f1ab8f7e39763b3db4e81565b6060600280546118dd90614a24565b80601f016020809104026020016040519081016040528092919081815260200182805461190990614a24565b80156119565780601f1061192b57610100808354040283529160200191611956565b820191906000526020600020905b81548152906001019060200180831161193957829003601f168201915b5050505050905090565b6000801b81565b611979611972611f67565b8383612198565b5050565b600061198a338484612307565b6001905092915050565b61199f848484610bb3565b6119b36119aa611f67565b85858585612474565b50505050565b6060600b5482106119f6576040517fceea21b600000000000000000000000000000000000000000000000000000000815260040160405180910390fd5b6040518060400160405280601d81526020017f646174613a6170706c69636174696f6e2f6a736f6e3b6261736536342c000000815250611ac960405180606001604052806025815260200161602260259139611a5185612625565b611a5a866126f3565b611a6b611a6688612900565b612c55565b6040518060400160405280600281526020017f227d000000000000000000000000000000000000000000000000000000000000815250604051602001611ab5959493929190615247565b604051602081830303815290604052612c55565b604051602001611ada929190615292565b6040516020818303038152906040529050919050565b611af982610cb5565b611b0281611f53565b611b0c8383612088565b50505050565b6000600660008473ffffffffffffffffffffffffffffffffffffffff1673ffffffffffffffffffffffffffffffffffffffff16815260200190815260200160002060008373ffffffffffffffffffffffffffffffffffffffff1673ffffffffffffffffffffffffffffffffffffffff16815260200190815260200160002060009054906101000a900460ff16905092915050565b611bae613c84565b600c60009054906101000a900473ffffffffffffffffffffffffffffffffffffffff1673ffffffffffffffffffffffffffffffffffffffff1663ee7bf0ee836040518263ffffffff1660e01b8152600401611c099190613ee8565b600060405180830381865afa158015611c26573d6000803e3d6000fd5b505050506040513d6000823e3d601f19601f82011682018060405250810190611c4f91906153da565b9050919050565b60007faf6786efc154b345802554f1dea27e60ea4c3393b6b38eb8438e22c20e088bd2611c8281611f53565b6000600c60009054906101000a900473ffffffffffffffffffffffffffffffffffffffff1673ffffffffffffffffffffffffffffffffffffffff1663ee7bf0ee336040518263ffffffff1660e01b8152600401611cdf9190613ee8565b600060405180830381865afa158015611cfc573d6000803e3d6000fd5b505050506040513d6000823e3d601f19601f82011682018060405250810190611d2591906153da565b6000015103611d60576040517f4a46a71500000000000000000000000000000000000000000000000000000000815260040160405180910390fd5b600c60009054906101000a900473ffffffffffffffffffffffffffffffffffffffff1673ffffffffffffffffffffffffffffffffffffffff1663dfd49f25338b8b8b8b8b8b8b6040518963ffffffff1660e01b8152600401611dc9989796959493929190614e57565b6020604051808303816000875af1158015611de8573d6000803e3d6000fd5b505050506040513d601f19601f82011682018060405250810190611e0c9190614a6a565b507f3e981d6fd4c5bd91ef3f68ca28a36322130d52221ab7319ae700e4c417dcc8e33342604051611e3e929190614a97565b60405180910390a16001915050979650505050505050565b600d60009054906101000a900473ffffffffffffffffffffffffffffffffffffffff1681565b6000611e8782612dec565b9050919050565b600080611e9a83612e66565b9050600073ffffffffffffffffffffffffffffffffffffffff168173ffffffffffffffffffffffffffffffffffffffff1603611f0d57826040517f7e273289000000000000000000000000000000000000000000000000000000008152600401611f049190613fdf565b60405180910390fd5b80915050919050565b60006005600083815260200190815260200160002060009054906101000a900473ffffffffffffffffffffffffffffffffffffffff169050919050565b611f6481611f5f611f67565b612ea3565b50565b600033905090565b611f7c8383836001612ef4565b505050565b6000611f8e8484846130b9565b90509392505050565b6000611fa38383611840565b61207d57600160008085815260200190815260200160002060000160008473ffffffffffffffffffffffffffffffffffffffff1673ffffffffffffffffffffffffffffffffffffffff16815260200190815260200160002060006101000a81548160ff02191690831515021790555061201a611f67565b73ffffffffffffffffffffffffffffffffffffffff168273ffffffffffffffffffffffffffffffffffffffff16847f2f8788117e7eff1d82e926ec794901d17c78024a50270940304540a733656f0d60405160405180910390a460019050612082565b600090505b92915050565b60006120948383611840565b1561216f57600080600085815260200190815260200160002060000160008473ffffffffffffffffffffffffffffffffffffffff1673ffffffffffffffffffffffffffffffffffffffff16815260200190815260200160002060006101000a81548160ff02191690831515021790555061210c611f67565b73ffffffffffffffffffffffffffffffffffffffff168273ffffffffffffffffffffffffffffffffffffffff16847ff6391f5c32d9c69d2a47ea670b442974b53935d1edc7fd64eb21e047a839171b60405160405180910390a460019050612174565b600090505b92915050565b6121948282604051806020016040528060008152506131d6565b5050565b600073ffffffffffffffffffffffffffffffffffffffff168273ffffffffffffffffffffffffffffffffffffffff160361220957816040517f5b08ba180000000000000000000000000000000000000000000000000000000081526004016122009190613ee8565b60405180910390fd5b80600660008573ffffffffffffffffffffffffffffffffffffffff1673ffffffffffffffffffffffffffffffffffffffff16815260200190815260200160002060008473ffffffffffffffffffffffffffffffffffffffff1673ffffffffffffffffffffffffffffffffffffffff16815260200190815260200160002060006101000a81548160ff0219169083151502179055508173ffffffffffffffffffffffffffffffffffffffff168373ffffffffffffffffffffffffffffffffffffffff167f17307eab39ab6107e8899845ad3d59bd9653f200f220920489ca2b5937696c31836040516122fa9190613d77565b60405180910390a3505050565b600073ffffffffffffffffffffffffffffffffffffffff168273ffffffffffffffffffffffffffffffffffffffff16036123795760006040517f64a0ae920000000000000000000000000000000000000000000000000000000081526004016123709190613ee8565b60405180910390fd5b600061238783836000611f81565b9050600073ffffffffffffffffffffffffffffffffffffffff168173ffffffffffffffffffffffffffffffffffffffff16036123fa57816040517f7e2732890000000000000000000000000000000000000000000000000000000081526004016123f19190613fdf565b60405180910390fd5b8373ffffffffffffffffffffffffffffffffffffffff168173ffffffffffffffffffffffffffffffffffffffff161461246e578382826040517f64283d7b00000000000000000000000000000000000000000000000000000000815260040161246593929190614b02565b60405180910390fd5b50505050565b60008373ffffffffffffffffffffffffffffffffffffffff163b111561261e578273ffffffffffffffffffffffffffffffffffffffff1663150b7a02868685856040518563ffffffff1660e01b81526004016124d39493929190615478565b6020604051808303816000875af192505050801561250f57506040513d601f19601f8201168201806040525081019061250c91906154d9565b60015b612593573d806000811461253f576040519150601f19603f3d011682016040523d82523d6000602084013e612544565b606091505b50600081510361258b57836040517f64a0ae920000000000000000000000000000000000000000000000000000000081526004016125829190613ee8565b60405180910390fd5b805181602001fd5b63150b7a0260e01b7bffffffffffffffffffffffffffffffffffffffffffffffffffffffff1916817bffffffffffffffffffffffffffffffffffffffffffffffffffffffff19161461261c57836040517f64a0ae920000000000000000000000000000000000000000000000000000000081526004016126139190613ee8565b60405180910390fd5b505b5050505050565b606060006001612634846131fa565b01905060008167ffffffffffffffff81111561265357612652614734565b5b6040519080825280601f01601f1916602001820160405280156126855781602001600182028036833780820191505090505b509050600082602001820190505b6001156126e8578080600190039150507f3031323334353637383961626364656600000000000000000000000000000000600a86061a8153600a85816126dc576126db615506565b5b04945060008503612693575b819350505050919050565b60606000600c60009054906101000a900473ffffffffffffffffffffffffffffffffffffffff1673ffffffffffffffffffffffffffffffffffffffff1663bab859a5846040518263ffffffff1660e01b81526004016127529190613fdf565b600060405180830381865afa15801561276f573d6000803e3d6000fd5b505050506040513d6000823e3d601f19601f820116820180604052508101906127989190615787565b90506000604051806060016040528060398152602001615bf7603991398260e001516040518060600160405280602b8152602001615e12602b913984604001516000815181106127eb576127ea615160565b5b60200260200101516040518060600160405280602c8152602001616076602c9139866060015160008151811061282457612823615160565b5b602002602001015160405160200161284196959493929190615806565b6040516020818303038152906040529050806040518060600160405280602c8152602001615b59602c913961287c846080015160ff16612625565b604051806060016040528060288152602001615ae4602891398560a001516040518060600160405280602f8152602001616047602f91398760c00151604051806060016040528060288152602001615a65602891396040516020016128e898979695949392919061587d565b60405160208183030381529060405292505050919050565b606060006040516020016040516020818303038152906040529050604051806080016040528060578152602001615a8d605791396040518060a00160405280606e8152602001615cac606e91396040518060a0016040528060798152602001615f43607991396040518060400160405280601781526020017f43657274696669636174204e46542064652042696a6f750000000000000000008152506040518060400160405280600781526020017f3c2f746578743e000000000000000000000000000000000000000000000000008152506040516020016129e6959493929190615247565b6040516020818303038152906040529050806040518060800160405280605d8152602001615e3d605d91396040518060800160405280605c8152602001615e9a605c91396040518060a0016040528060728152602001615b85607291396040518060800160405280604d8152602001615d85604d9139604051602001612a70959493929190615247565b6040516020818303038152906040529050806040518060800160405280604d8152602001615b0c604d91396040518060800160405280604d8152602001615ef6604d91396040518060a00160405280607c8152602001615c30607c91396040518060400160405280600981526020017f476f6c64436861696e0000000000000000000000000000000000000000000000815250604051602001612b17959493929190615247565b6040516020818303038152906040529050806040518060400160405280600781526020017f3c2f746578743e000000000000000000000000000000000000000000000000008152506040518060a00160405280606b8152602001615d1a606b91396040518060a0016040528060668152602001615fbc60669139604051602001612ba494939291906158f3565b6040516020818303038152906040529050806040518060400160405280600781526020017f3c2f746578743e00000000000000000000000000000000000000000000000000815250612bf585612625565b6040518060400160405280600681526020017f3c2f7376673e0000000000000000000000000000000000000000000000000000815250604051602001612c3e94939291906158f3565b604051602081830303815290604052915050919050565b606060008251905060008103612c7d5760405180602001604052806000815250915050612de7565b60006003600283612c8e9190615931565b612c989190615965565b6004612ca49190615996565b90506000602082612cb59190615931565b67ffffffffffffffff811115612cce57612ccd614734565b5b6040519080825280601f01601f191660200182016040528015612d005781602001600182028036833780820191505090505b5090506000604051806060016040528060408152602001615dd2604091399050600181016020830160005b86811015612da45760038101905062ffffff818a015116603f8160121c168401518060081b905060ff603f83600c1c1686015116810190508060081b905060ff603f8360061c1686015116810190508060081b905060ff603f831686015116810190508060e01b90508084526004840193505050612d2b565b506003860660018114612dbe5760028114612dce57612dd9565b613d3d60f01b6002830352612dd9565b603d60f81b60018303525b508484525050819450505050505b919050565b60007f780e9d63000000000000000000000000000000000000000000000000000000007bffffffffffffffffffffffffffffffffffffffffffffffffffffffff1916827bffffffffffffffffffffffffffffffffffffffffffffffffffffffff19161480612e5f5750612e5e8261334d565b5b9050919050565b60006003600083815260200190815260200160002060009054906101000a900473ffffffffffffffffffffffffffffffffffffffff169050919050565b612ead8282611840565b612ef05780826040517fe2517d3f000000000000000000000000000000000000000000000000000000008152600401612ee79291906159d8565b60405180910390fd5b5050565b8080612f2d5750600073ffffffffffffffffffffffffffffffffffffffff168273ffffffffffffffffffffffffffffffffffffffff1614155b15613061576000612f3d84611e8e565b9050600073ffffffffffffffffffffffffffffffffffffffff168373ffffffffffffffffffffffffffffffffffffffff1614158015612fa857508273ffffffffffffffffffffffffffffffffffffffff168173ffffffffffffffffffffffffffffffffffffffff1614155b8015612fbb5750612fb98184611b12565b155b15612ffd57826040517fa9fbf51f000000000000000000000000000000000000000000000000000000008152600401612ff49190613ee8565b60405180910390fd5b811561305f57838573ffffffffffffffffffffffffffffffffffffffff168273ffffffffffffffffffffffffffffffffffffffff167f8c5be1e5ebec7d5bd14f71427d1e84f3dd0314c0f7b2291e5b200ac8c7c3b92560405160405180910390a45b505b836005600085815260200190815260200160002060006101000a81548173ffffffffffffffffffffffffffffffffffffffff021916908373ffffffffffffffffffffffffffffffffffffffff16021790555050505050565b6000806130c785858561342f565b9050600073ffffffffffffffffffffffffffffffffffffffff168173ffffffffffffffffffffffffffffffffffffffff160361310b5761310684613649565b61314a565b8473ffffffffffffffffffffffffffffffffffffffff168173ffffffffffffffffffffffffffffffffffffffff1614613149576131488185613692565b5b5b600073ffffffffffffffffffffffffffffffffffffffff168573ffffffffffffffffffffffffffffffffffffffff160361318c576131878461377d565b6131cb565b8473ffffffffffffffffffffffffffffffffffffffff168173ffffffffffffffffffffffffffffffffffffffff16146131ca576131c9858561384e565b5b5b809150509392505050565b6131e083836138d9565b6131f56131eb611f67565b6000858585612474565b505050565b600080600090507a184f03e93ff9f4daa797ed6e38ed64bf6a1f0100000000000000008310613258577a184f03e93ff9f4daa797ed6e38ed64bf6a1f010000000000000000838161324e5761324d615506565b5b0492506040810190505b6d04ee2d6d415b85acef81000000008310613295576d04ee2d6d415b85acef8100000000838161328b5761328a615506565b5b0492506020810190505b662386f26fc1000083106132c457662386f26fc1000083816132ba576132b9615506565b5b0492506010810190505b6305f5e10083106132ed576305f5e10083816132e3576132e2615506565b5b0492506008810190505b612710831061331257612710838161330857613307615506565b5b0492506004810190505b60648310613335576064838161332b5761332a615506565b5b0492506002810190505b600a8310613344576001810190505b80915050919050565b60007f80ac58cd000000000000000000000000000000000000000000000000000000007bffffffffffffffffffffffffffffffffffffffffffffffffffffffff1916827bffffffffffffffffffffffffffffffffffffffffffffffffffffffff1916148061341857507f5b5e139f000000000000000000000000000000000000000000000000000000007bffffffffffffffffffffffffffffffffffffffffffffffffffffffff1916827bffffffffffffffffffffffffffffffffffffffffffffffffffffffff1916145b806134285750613427826139d2565b5b9050919050565b60008061343b84612e66565b9050600073ffffffffffffffffffffffffffffffffffffffff168373ffffffffffffffffffffffffffffffffffffffff161461347d5761347c818486613a4c565b5b600073ffffffffffffffffffffffffffffffffffffffff168173ffffffffffffffffffffffffffffffffffffffff161461350e576134bf600085600080612ef4565b6001600460008373ffffffffffffffffffffffffffffffffffffffff1673ffffffffffffffffffffffffffffffffffffffff168152602001908152602001600020600082825403925050819055505b600073ffffffffffffffffffffffffffffffffffffffff168573ffffffffffffffffffffffffffffffffffffffff1614613591576001600460008773ffffffffffffffffffffffffffffffffffffffff1673ffffffffffffffffffffffffffffffffffffffff168152602001908152602001600020600082825401925050819055505b846003600086815260200190815260200160002060006101000a81548173ffffffffffffffffffffffffffffffffffffffff021916908373ffffffffffffffffffffffffffffffffffffffff160217905550838573ffffffffffffffffffffffffffffffffffffffff168273ffffffffffffffffffffffffffffffffffffffff167fddf252ad1be2c89b69c2b068fc378daa952ba7f163c4a11628f55a4df523b3ef60405160405180910390a4809150509392505050565b600980549050600a600083815260200190815260200160002081905550600981908060018154018082558091505060019003906000526020600020016000909190919091505550565b600061369d836116e5565b90506000600860008481526020019081526020016000205490506000600760008673ffffffffffffffffffffffffffffffffffffffff1673ffffffffffffffffffffffffffffffffffffffff16815260200190815260200160002090508282146137495760008160008581526020019081526020016000205490508082600085815260200190815260200160002081905550826008600083815260200190815260200160002081905550505b6008600085815260200190815260200160002060009055806000848152602001908152602001600020600090555050505050565b600060016009805490506137919190615a01565b90506000600a60008481526020019081526020016000205490506000600983815481106137c1576137c0615160565b5b9060005260206000200154905080600983815481106137e3576137e2615160565b5b906000526020600020018190555081600a600083815260200190815260200160002081905550600a600085815260200190815260200160002060009055600980548061383257613831615a35565b5b6001900381819060005260206000200160009055905550505050565b6000600161385b846116e5565b6138659190615a01565b905081600760008573ffffffffffffffffffffffffffffffffffffffff1673ffffffffffffffffffffffffffffffffffffffff168152602001908152602001600020600083815260200190815260200160002081905550806008600084815260200190815260200160002081905550505050565b600073ffffffffffffffffffffffffffffffffffffffff168273ffffffffffffffffffffffffffffffffffffffff160361394b5760006040517f64a0ae920000000000000000000000000000000000000000000000000000000081526004016139429190613ee8565b60405180910390fd5b600061395983836000611f81565b9050600073ffffffffffffffffffffffffffffffffffffffff168173ffffffffffffffffffffffffffffffffffffffff16146139cd5760006040517f73c6ac6e0000000000000000000000000000000000000000000000000000000081526004016139c49190613ee8565b60405180910390fd5b505050565b60007f7965db0b000000000000000000000000000000000000000000000000000000007bffffffffffffffffffffffffffffffffffffffffffffffffffffffff1916827bffffffffffffffffffffffffffffffffffffffffffffffffffffffff19161480613a455750613a4482613b10565b5b9050919050565b613a57838383613b7a565b613b0b57600073ffffffffffffffffffffffffffffffffffffffff168373ffffffffffffffffffffffffffffffffffffffff1603613acc57806040517f7e273289000000000000000000000000000000000000000000000000000000008152600401613ac39190613fdf565b60405180910390fd5b81816040517f177e802f000000000000000000000000000000000000000000000000000000008152600401613b02929190614a97565b60405180910390fd5b505050565b60007f01ffc9a7000000000000000000000000000000000000000000000000000000007bffffffffffffffffffffffffffffffffffffffffffffffffffffffff1916827bffffffffffffffffffffffffffffffffffffffffffffffffffffffff1916149050919050565b60008073ffffffffffffffffffffffffffffffffffffffff168373ffffffffffffffffffffffffffffffffffffffff1614158015613c3257508273ffffffffffffffffffffffffffffffffffffffff168473ffffffffffffffffffffffffffffffffffffffff161480613bf35750613bf28484611b12565b5b80613c3157508273ffffffffffffffffffffffffffffffffffffffff16613c1983611f16565b73ffffffffffffffffffffffffffffffffffffffff16145b5b90509392505050565b6040518061010001604052806000815260200160008152602001606081526020016060815260200160608152602001606081526020016000151581526020016000151581525090565b6040518060e001604052806000815260200160008152602001606081526020016060815260200160608152602001600015158152602001606081525090565b6000604051905090565b600080fd5b600080fd5b60007fffffffff0000000000000000000000000000000000000000000000000000000082169050919050565b613d0c81613cd7565b8114613d1757600080fd5b50565b600081359050613d2981613d03565b92915050565b600060208284031215613d4557613d44613ccd565b5b6000613d5384828501613d1a565b91505092915050565b60008115159050919050565b613d7181613d5c565b82525050565b6000602082019050613d8c6000830184613d68565b92915050565b600081519050919050565b600082825260208201905092915050565b60005b83811015613dcc578082015181840152602081019050613db1565b60008484015250505050565b6000601f19601f8301169050919050565b6000613df482613d92565b613dfe8185613d9d565b9350613e0e818560208601613dae565b613e1781613dd8565b840191505092915050565b60006020820190508181036000830152613e3c8184613de9565b905092915050565b6000819050919050565b613e5781613e44565b8114613e6257600080fd5b50565b600081359050613e7481613e4e565b92915050565b600060208284031215613e9057613e8f613ccd565b5b6000613e9e84828501613e65565b91505092915050565b600073ffffffffffffffffffffffffffffffffffffffff82169050919050565b6000613ed282613ea7565b9050919050565b613ee281613ec7565b82525050565b6000602082019050613efd6000830184613ed9565b92915050565b613f0c81613ec7565b8114613f1757600080fd5b50565b600081359050613f2981613f03565b92915050565b600060208284031215613f4557613f44613ccd565b5b6000613f5384828501613f1a565b91505092915050565b60008060408385031215613f7357613f72613ccd565b5b6000613f8185828601613f1a565b9250506020613f9285828601613e65565b9150509250929050565b6000819050919050565b613faf81613f9c565b82525050565b6000602082019050613fca6000830184613fa6565b92915050565b613fd981613e44565b82525050565b6000602082019050613ff46000830184613fd0565b92915050565b60008060006060848603121561401357614012613ccd565b5b600061402186828701613f1a565b935050602061403286828701613f1a565b925050604061404386828701613e65565b9150509250925092565b61405681613f9c565b811461406157600080fd5b50565b6000813590506140738161404d565b92915050565b60006020828403121561408f5761408e613ccd565b5b600061409d84828501614064565b91505092915050565b600080fd5b600080fd5b600080fd5b60008083601f8401126140cb576140ca6140a6565b5b8235905067ffffffffffffffff8111156140e8576140e76140ab565b5b602083019150836001820283011115614104576141036140b0565b5b9250929050565b61411481613d5c565b811461411f57600080fd5b50565b6000813590506141318161410b565b92915050565b60008060008060008060006080888a03121561415657614155613ccd565b5b600088013567ffffffffffffffff81111561417457614173613cd2565b5b6141808a828b016140b5565b9750975050602088013567ffffffffffffffff8111156141a3576141a2613cd2565b5b6141af8a828b016140b5565b9550955050604088013567ffffffffffffffff8111156141d2576141d1613cd2565b5b6141de8a828b016140b5565b935093505060606141f18a828b01614122565b91505092959891949750929550565b6000806040838503121561421757614216613ccd565b5b600061422585828601614064565b925050602061423685828601613f1a565b9150509250929050565b60008083601f840112614256576142556140a6565b5b8235905067ffffffffffffffff811115614273576142726140ab565b5b60208301915083602082028301111561428f5761428e6140b0565b5b9250929050565b600060ff82169050919050565b6142ac81614296565b81146142b757600080fd5b50565b6000813590506142c9816142a3565b92915050565b600481106142dc57600080fd5b50565b6000813590506142ee816142cf565b92915050565b6005811061430157600080fd5b50565b600081359050614313816142f4565b92915050565b600080600080600080600080600080600060e08c8e03121561433e5761433d613ccd565b5b60008c013567ffffffffffffffff81111561435c5761435b613cd2565b5b6143688e828f01614240565b9b509b505060208c013567ffffffffffffffff81111561438b5761438a613cd2565b5b6143978e828f01614240565b995099505060406143aa8e828f016142ba565b97505060608c013567ffffffffffffffff8111156143cb576143ca613cd2565b5b6143d78e828f016140b5565b965096505060806143ea8e828f016142df565b94505060a08c013567ffffffffffffffff81111561440b5761440a613cd2565b5b6144178e828f016140b5565b935093505060c061442a8e828f01614304565b9150509295989b509295989b9093969950565b6000806000806000806060878903121561445a57614459613ccd565b5b600087013567ffffffffffffffff81111561447857614477613cd2565b5b61448489828a016140b5565b9650965050602087013567ffffffffffffffff8111156144a7576144a6613cd2565b5b6144b389828a016140b5565b9450945050604087013567ffffffffffffffff8111156144d6576144d5613cd2565b5b6144e289828a016140b5565b92509250509295509295509295565b6144fa81613e44565b82525050565b600082825260208201905092915050565b600061451c82613d92565b6145268185614500565b9350614536818560208601613dae565b61453f81613dd8565b840191505092915050565b600081519050919050565b600082825260208201905092915050565b6000819050602082019050919050565b600061458283836144f1565b60208301905092915050565b6000602082019050919050565b60006145a68261454a565b6145b08185614555565b93506145bb83614566565b8060005b838110156145ec5781516145d38882614576565b97506145de8361458e565b9250506001810190506145bf565b5085935050505092915050565b61460281613d5c565b82525050565b60006101008301600083015161462160008601826144f1565b50602083015161463460208601826144f1565b506040830151848203604086015261464c8282614511565b915050606083015184820360608601526146668282614511565b915050608083015184820360808601526146808282614511565b91505060a083015184820360a086015261469a828261459b565b91505060c08301516146af60c08601826145f9565b5060e08301516146c260e08601826145f9565b508091505092915050565b600060208201905081810360008301526146e78184614608565b905092915050565b6000806040838503121561470657614705613ccd565b5b600061471485828601613f1a565b925050602061472585828601614122565b9150509250929050565b600080fd5b7f4e487b7100000000000000000000000000000000000000000000000000000000600052604160045260246000fd5b61476c82613dd8565b810181811067ffffffffffffffff8211171561478b5761478a614734565b5b80604052505050565b600061479e613cc3565b90506147aa8282614763565b919050565b600067ffffffffffffffff8211156147ca576147c9614734565b5b6147d382613dd8565b9050602081019050919050565b82818337600083830152505050565b60006148026147fd846147af565b614794565b90508281526020810184848401111561481e5761481d61472f565b5b6148298482856147e0565b509392505050565b600082601f830112614846576148456140a6565b5b81356148568482602086016147ef565b91505092915050565b6000806000806080858703121561487957614878613ccd565b5b600061488787828801613f1a565b945050602061489887828801613f1a565b93505060406148a987828801613e65565b925050606085013567ffffffffffffffff8111156148ca576148c9613cd2565b5b6148d687828801614831565b91505092959194509250565b600080604083850312156148f9576148f8613ccd565b5b600061490785828601613f1a565b925050602061491885828601613f1a565b9150509250929050565b600060e08301600083015161493a60008601826144f1565b50602083015161494d60208601826144f1565b50604083015184820360408601526149658282614511565b9150506060830151848203606086015261497f8282614511565b915050608083015184820360808601526149998282614511565b91505060a08301516149ae60a08601826145f9565b5060c083015184820360c08601526149c6828261459b565b9150508091505092915050565b600060208201905081810360008301526149ed8184614922565b905092915050565b7f4e487b7100000000000000000000000000000000000000000000000000000000600052602260045260246000fd5b60006002820490506001821680614a3c57607f821691505b602082108103614a4f57614a4e6149f5565b5b50919050565b600081519050614a648161410b565b92915050565b600060208284031215614a8057614a7f613ccd565b5b6000614a8e84828501614a55565b91505092915050565b6000604082019050614aac6000830185613ed9565b614ab96020830184613fd0565b9392505050565b600081519050614acf81613e4e565b92915050565b600060208284031215614aeb57614aea613ccd565b5b6000614af984828501614ac0565b91505092915050565b6000606082019050614b176000830186613ed9565b614b246020830185613fd0565b614b316040830184613ed9565b949350505050565b600080fd5b600080fd5b600067ffffffffffffffff821115614b5e57614b5d614734565b5b614b6782613dd8565b9050602081019050919050565b6000614b87614b8284614b43565b614794565b905082815260208101848484011115614ba357614ba261472f565b5b614bae848285613dae565b509392505050565b600082601f830112614bcb57614bca6140a6565b5b8151614bdb848260208601614b74565b91505092915050565b600067ffffffffffffffff821115614bff57614bfe614734565b5b602082029050602081019050919050565b6000614c23614c1e84614be4565b614794565b90508083825260208201905060208402830185811115614c4657614c456140b0565b5b835b81811015614c6f5780614c5b8882614ac0565b845260208401935050602081019050614c48565b5050509392505050565b600082601f830112614c8e57614c8d6140a6565b5b8151614c9e848260208601614c10565b91505092915050565b60006101008284031215614cbe57614cbd614b39565b5b614cc9610100614794565b90506000614cd984828501614ac0565b6000830152506020614ced84828501614ac0565b602083015250604082015167ffffffffffffffff811115614d1157614d10614b3e565b5b614d1d84828501614bb6565b604083015250606082015167ffffffffffffffff811115614d4157614d40614b3e565b5b614d4d84828501614bb6565b606083015250608082015167ffffffffffffffff811115614d7157614d70614b3e565b5b614d7d84828501614bb6565b60808301525060a082015167ffffffffffffffff811115614da157614da0614b3e565b5b614dad84828501614c79565b60a08301525060c0614dc184828501614a55565b60c08301525060e0614dd584828501614a55565b60e08301525092915050565b600060208284031215614df757614df6613ccd565b5b600082015167ffffffffffffffff811115614e1557614e14613cd2565b5b614e2184828501614ca7565b91505092915050565b6000614e368385613d9d565b9350614e438385846147e0565b614e4c83613dd8565b840190509392505050565b600060a082019050614e6c600083018b613ed9565b8181036020830152614e7f81898b614e2a565b90508181036040830152614e94818789614e2a565b90508181036060830152614ea9818587614e2a565b9050614eb86080830184613d68565b9998505050505050505050565b7f4e487b7100000000000000000000000000000000000000000000000000000000600052601160045260246000fd5b6000614eff82613e44565b91507fffffffffffffffffffffffffffffffffffffffffffffffffffffffffffffffff8203614f3157614f30614ec5565b5b600182019050919050565b600082825260208201905092915050565b6000819050919050565b614f6081614296565b82525050565b6000614f728383614f57565b60208301905092915050565b6000614f8d60208401846142ba565b905092915050565b6000602082019050919050565b6000614fae8385614f3c565b9350614fb982614f4d565b8060005b85811015614ff257614fcf8284614f7e565b614fd98882614f66565b9750614fe483614f95565b925050600181019050614fbd565b5085925050509392505050565b61500881614296565b82525050565b7f4e487b7100000000000000000000000000000000000000000000000000000000600052602160045260246000fd5b6004811061504e5761504d61500e565b5b50565b600081905061505f8261503d565b919050565b600061506f82615051565b9050919050565b61507f81615064565b82525050565b600581106150965761509561500e565b5b50565b60008190506150a782615085565b919050565b60006150b782615099565b9050919050565b6150c7816150ac565b82525050565b600060e08201905081810360008301526150e8818d8f614fa2565b905081810360208301526150fd818b8d614fa2565b905061510c604083018a614fff565b818103606083015261511f81888a614e2a565b905061512e6080830187615076565b81810360a0830152615141818587614e2a565b905061515060c08301846150be565b9c9b505050505050505050505050565b7f4e487b7100000000000000000000000000000000000000000000000000000000600052603260045260246000fd5b600060c0820190506151a4600083018c613ed9565b81810360208301526151b7818a8c614e2a565b905081810360408301526151cc81888a614e2a565b905081810360608301526151e1818688614e2a565b90506151f06080830185613d68565b6151fd60a0830184613d68565b9a9950505050505050505050565b600081905092915050565b600061522182613d92565b61522b818561520b565b935061523b818560208601613dae565b80840191505092915050565b60006152538288615216565b915061525f8287615216565b915061526b8286615216565b91506152778285615216565b91506152838284615216565b91508190509695505050505050565b600061529e8285615216565b91506152aa8284615216565b91508190509392505050565b600060e082840312156152cc576152cb614b39565b5b6152d660e0614794565b905060006152e684828501614ac0565b60008301525060206152fa84828501614ac0565b602083015250604082015167ffffffffffffffff81111561531e5761531d614b3e565b5b61532a84828501614bb6565b604083015250606082015167ffffffffffffffff81111561534e5761534d614b3e565b5b61535a84828501614bb6565b606083015250608082015167ffffffffffffffff81111561537e5761537d614b3e565b5b61538a84828501614bb6565b60808301525060a061539e84828501614a55565b60a08301525060c082015167ffffffffffffffff8111156153c2576153c1614b3e565b5b6153ce84828501614c79565b60c08301525092915050565b6000602082840312156153f0576153ef613ccd565b5b600082015167ffffffffffffffff81111561540e5761540d613cd2565b5b61541a848285016152b6565b91505092915050565b600081519050919050565b600082825260208201905092915050565b600061544a82615423565b615454818561542e565b9350615464818560208601613dae565b61546d81613dd8565b840191505092915050565b600060808201905061548d6000830187613ed9565b61549a6020830186613ed9565b6154a76040830185613fd0565b81810360608301526154b9818461543f565b905095945050505050565b6000815190506154d381613d03565b92915050565b6000602082840312156154ef576154ee613ccd565b5b60006154fd848285016154c4565b91505092915050565b7f4e487b7100000000000000000000000000000000000000000000000000000000600052601260045260246000fd5b600067ffffffffffffffff8211156155505761554f614734565b5b602082029050602081019050919050565b600081519050615570816142a3565b92915050565b600061558961558484615535565b614794565b905080838252602082019050602084028301858111156155ac576155ab6140b0565b5b835b818110156155d557806155c18882615561565b8452602084019350506020810190506155ae565b5050509392505050565b600082601f8301126155f4576155f36140a6565b5b8151615604848260208601615576565b91505092915050565b60008151905061561c816142cf565b92915050565b600081519050615631816142f4565b92915050565b6000610120828403121561564e5761564d614b39565b5b615659610120614794565b9050600061566984828501614ac0565b600083015250602061567d84828501614ac0565b602083015250604082015167ffffffffffffffff8111156156a1576156a0614b3e565b5b6156ad848285016155df565b604083015250606082015167ffffffffffffffff8111156156d1576156d0614b3e565b5b6156dd848285016155df565b60608301525060806156f184828501615561565b60808301525060a082015167ffffffffffffffff81111561571557615714614b3e565b5b61572184828501614bb6565b60a08301525060c06157358482850161560d565b60c08301525060e082015167ffffffffffffffff81111561575957615758614b3e565b5b61576584828501614bb6565b60e08301525061010061577a84828501615622565b6101008301525092915050565b60006020828403121561579d5761579c613ccd565b5b600082015167ffffffffffffffff8111156157bb576157ba613cd2565b5b6157c784828501615637565b91505092915050565b60008160f81b9050919050565b60006157e8826157d0565b9050919050565b6158006157fb82614296565b6157dd565b82525050565b60006158128289615216565b915061581e8288615216565b915061582a8287615216565b915061583682866157ef565b6001820191506158468285615216565b915061585282846157ef565b600182019150819050979650505050505050565b61587761587282615064565b6157dd565b82525050565b6000615889828b615216565b9150615895828a615216565b91506158a18289615216565b91506158ad8288615216565b91506158b98287615216565b91506158c58286615216565b91506158d18285615866565b6001820191506158e18284615216565b91508190509998505050505050505050565b60006158ff8287615216565b915061590b8286615216565b91506159178285615216565b91506159238284615216565b915081905095945050505050565b600061593c82613e44565b915061594783613e44565b925082820190508082111561595f5761595e614ec5565b5b92915050565b600061597082613e44565b915061597b83613e44565b92508261598b5761598a615506565b5b828204905092915050565b60006159a182613e44565b91506159ac83613e44565b92508282026159ba81613e44565b915082820484148315176159d1576159d0614ec5565b5b5092915050565b60006040820190506159ed6000830185613ed9565b6159fa6020830184613fa6565b9392505050565b6000615a0c82613e44565b9150615a1783613e44565b9250828203905081811115615a2f57615a2e614ec5565b5b92915050565b7f4e487b7100000000000000000000000000000000000000000000000000000000600052603160045260246000fdfe227d5d2c22696d616765223a2022646174613a696d6167652f7376672b786d6c3b6261736536342c3c7376672077696474683d2238303022206865696768743d22383030222076696577426f783d2230203020383030203830302220786d6c6e733d22687474703a2f2f7777772e77332e6f72672f323030302f737667223e227d2c7b2274726169745f74797065223a20226d61696e436f6c6f72222c2276616c7565223a20223c6c696e652078313d22333330222079313d22333030222078323d22343730222079323d2233383022207374726f6b653d222338613666333022207374726f6b652d77696474683d2233222f3e227d2c7b2274726169745f74797065223a2022776569676874496e4772616d73222c2276616c7565223a20223c706f6c79676f6e20706f696e74733d223430302c323530203437302c333030203437302c333830203430302c343330203333302c333830203333302c333030222066696c6c3d22776869746522207374726f6b653d222338613666333022207374726f6b652d77696474683d2235222f3e222c202261747472696275746573223a205b7b2274726169745f74797065223a20224a6577656c65724e616d65222c2276616c7565223a20223c7465787420783d223530252220793d223630302220666f6e742d73697a653d2234302220666f6e742d66616d696c793d22417269616c2c2073616e732d73657269662220666f6e742d7765696768743d22626f6c64222066696c6c3d22236434616633372220746578742d616e63686f723d226d6964646c65223e3c7265637420783d22302220793d2230222077696474683d2238303022206865696768743d22383030222066696c6c3d222366386639666122207374726f6b653d222364346166333722207374726f6b652d77696474683d223130222072783d223230222072793d223230222f3e3c7265637420783d223230302220793d22363530222077696474683d2234303022206865696768743d223830222066696c6c3d22776869746522207374726f6b653d222333333322207374726f6b652d77696474683d2233222072783d223130222072793d223130222f3e3c6c696e652078313d22343030222079313d22323530222078323d22343030222079323d2234333022207374726f6b653d222338613666333022207374726f6b652d77696474683d2233222f3e4142434445464748494a4b4c4d4e4f505152535455565758595a6162636465666768696a6b6c6d6e6f707172737475767778797a303132333435363738392b2f227d2c7b2274726169745f74797065223a20226d61696e4d6174657269616c222c2276616c7565223a20223c656c6c697073652063783d22343030222063793d22343230222072783d22313830222072793d22313030222066696c6c3d226e6f6e6522207374726f6b653d222364346166333722207374726f6b652d77696474683d223230222f3e3c656c6c697073652063783d22343030222063793d22343230222072783d22313430222072793d223830222066696c6c3d226e6f6e6522207374726f6b653d222366386639666122207374726f6b652d77696474683d223230222f3e3c6c696e652078313d22343730222079313d22333030222078323d22333330222079323d2233383022207374726f6b653d222338613666333022207374726f6b652d77696474683d2233222f3e3c7465787420783d223530252220793d223132302220666f6e742d73697a653d2235302220666f6e742d66616d696c793d22417269616c2c2073616e732d73657269662220666f6e742d7765696768743d22626f6c64222066696c6c3d22233333332220746578742d616e63686f723d226d6964646c65223e3c7465787420783d223530252220793d223730302220666f6e742d73697a653d2233302220666f6e742d66616d696c793d22417269616c2c2073616e732d7365726966222066696c6c3d22233333332220746578742d616e63686f723d226d6964646c65223e7b226e616d65223a2022476f6c64436861696e204365727469666963617465204e46542023227d2c7b2274726169745f74797065223a202243657274696669636174654c6576656c222c2276616c7565223a2022227d2c7b2274726169745f74797065223a20226d61696e47656d53746f6e6573222c2276616c7565223a2022a26469706673582212208cc75a5ccdb8a299604159351a2e4fa89c216d7719c11d7d2c20b6b73643a4e364736f6c634300081c0033",
  "linkReferences": {},
  "deployedLinkReferences": {}
}